{
  "contractName": "BankGuarantee",
  "abi": [
    {
      "inputs": [
        {
          "internalType": "address",
          "name": "gateKeeper",
          "type": "address"
        },
        {
          "internalType": "string",
          "name": "Name",
          "type": "string"
        },
        {
          "internalType": "string",
          "name": "ipfsFieldContainerHash",
          "type": "string"
        },
        {
          "internalType": "string",
          "name": "uiFieldDefinitionsHash",
          "type": "string"
        }
      ],
      "stateMutability": "nonpayable",
      "type": "constructor"
    },
    {
      "anonymous": false,
      "inputs": [
        {
          "indexed": false,
          "internalType": "address",
          "name": "sender",
          "type": "address"
        },
        {
          "indexed": false,
          "internalType": "bytes32",
          "name": "fromState",
          "type": "bytes32"
        },
        {
          "indexed": false,
          "internalType": "bytes32",
          "name": "toState",
          "type": "bytes32"
        }
      ],
      "name": "Transition",
      "type": "event"
    },
    {
      "inputs": [],
      "name": "ROLE_ADMIN",
      "outputs": [
        {
          "internalType": "bytes32",
          "name": "",
          "type": "bytes32"
        }
      ],
      "stateMutability": "view",
      "type": "function"
    },
    {
      "inputs": [],
      "name": "ROLE_APPLICANT",
      "outputs": [
        {
          "internalType": "bytes32",
          "name": "",
          "type": "bytes32"
        }
      ],
      "stateMutability": "view",
      "type": "function"
    },
    {
      "inputs": [],
      "name": "ROLE_BANK",
      "outputs": [
        {
          "internalType": "bytes32",
          "name": "",
          "type": "bytes32"
        }
      ],
      "stateMutability": "view",
      "type": "function"
    },
    {
      "inputs": [],
      "name": "ROLE_BENEFICIARY",
      "outputs": [
        {
          "internalType": "bytes32",
          "name": "",
          "type": "bytes32"
        }
      ],
      "stateMutability": "view",
      "type": "function"
    },
    {
      "inputs": [],
      "name": "STATE_ACCEPTED",
      "outputs": [
        {
          "internalType": "bytes32",
          "name": "",
          "type": "bytes32"
        }
      ],
      "stateMutability": "view",
      "type": "function"
    },
    {
      "inputs": [],
      "name": "STATE_AMENDMENT",
      "outputs": [
        {
          "internalType": "bytes32",
          "name": "",
          "type": "bytes32"
        }
      ],
      "stateMutability": "view",
      "type": "function"
    },
    {
      "inputs": [],
      "name": "STATE_APPROVED",
      "outputs": [
        {
          "internalType": "bytes32",
          "name": "",
          "type": "bytes32"
        }
      ],
      "stateMutability": "view",
      "type": "function"
    },
    {
      "inputs": [],
      "name": "STATE_FINISHED",
      "outputs": [
        {
          "internalType": "bytes32",
          "name": "",
          "type": "bytes32"
        }
      ],
      "stateMutability": "view",
      "type": "function"
    },
    {
      "inputs": [],
      "name": "STATE_INCOMPLETE",
      "outputs": [
        {
          "internalType": "bytes32",
          "name": "",
          "type": "bytes32"
        }
      ],
      "stateMutability": "view",
      "type": "function"
    },
    {
      "inputs": [],
      "name": "STATE_INITIATED",
      "outputs": [
        {
          "internalType": "bytes32",
          "name": "",
          "type": "bytes32"
        }
      ],
      "stateMutability": "view",
      "type": "function"
    },
    {
      "inputs": [],
      "name": "STATE_INVOKED",
      "outputs": [
        {
          "internalType": "bytes32",
          "name": "",
          "type": "bytes32"
        }
      ],
      "stateMutability": "view",
      "type": "function"
    },
    {
      "inputs": [],
      "name": "STATE_IN_REVIEW",
      "outputs": [
        {
          "internalType": "bytes32",
          "name": "",
          "type": "bytes32"
        }
      ],
      "stateMutability": "view",
      "type": "function"
    },
    {
      "inputs": [],
      "name": "STATE_ISSUED",
      "outputs": [
        {
          "internalType": "bytes32",
          "name": "",
          "type": "bytes32"
        }
      ],
      "stateMutability": "view",
      "type": "function"
    },
    {
      "inputs": [],
      "name": "STATE_REJECTED_BANK",
      "outputs": [
        {
          "internalType": "bytes32",
          "name": "",
          "type": "bytes32"
        }
      ],
      "stateMutability": "view",
      "type": "function"
    },
    {
      "inputs": [],
      "name": "STATE_REJECTED_BENEFICIARY",
      "outputs": [
        {
          "internalType": "bytes32",
          "name": "",
          "type": "bytes32"
        }
      ],
      "stateMutability": "view",
      "type": "function"
    },
    {
      "inputs": [],
      "name": "UPDATE_IPFSCONTAINERHASH_ROLE",
      "outputs": [
        {
          "internalType": "bytes32",
          "name": "",
          "type": "bytes32"
        }
      ],
      "stateMutability": "view",
      "type": "function"
    },
    {
      "inputs": [],
      "name": "_Name",
      "outputs": [
        {
          "internalType": "string",
          "name": "",
          "type": "string"
        }
      ],
      "stateMutability": "view",
      "type": "function"
    },
    {
      "inputs": [],
      "name": "_ipfsFieldContainerHash",
      "outputs": [
        {
          "internalType": "string",
          "name": "",
          "type": "string"
        }
      ],
      "stateMutability": "view",
      "type": "function"
    },
    {
      "inputs": [
        {
          "internalType": "uint256",
          "name": "",
          "type": "uint256"
        }
      ],
      "name": "_roles",
      "outputs": [
        {
          "internalType": "bytes32",
          "name": "",
          "type": "bytes32"
        }
      ],
      "stateMutability": "view",
      "type": "function"
    },
    {
      "inputs": [],
      "name": "_uiFieldDefinitionsHash",
      "outputs": [
        {
          "internalType": "string",
          "name": "",
          "type": "string"
        }
      ],
      "stateMutability": "view",
      "type": "function"
    },
    {
      "inputs": [],
      "name": "gateKeeper",
      "outputs": [
        {
          "internalType": "contract GateKeeper",
          "name": "",
          "type": "address"
        }
      ],
      "stateMutability": "view",
      "type": "function"
    },
    {
      "inputs": [],
      "name": "getAllStates",
      "outputs": [
        {
          "internalType": "bytes32[]",
          "name": "allStates",
          "type": "bytes32[]"
        }
      ],
      "stateMutability": "view",
      "type": "function"
    },
    {
      "inputs": [],
      "name": "getCurrentState",
      "outputs": [
        {
          "internalType": "bytes32",
          "name": "state",
          "type": "bytes32"
        }
      ],
      "stateMutability": "view",
      "type": "function"
    },
    {
      "inputs": [
        {
          "internalType": "uint256",
          "name": "index",
          "type": "uint256"
        }
      ],
      "name": "getHistory",
      "outputs": [
        {
          "internalType": "bytes32",
          "name": "fromState",
          "type": "bytes32"
        },
        {
          "internalType": "bytes32",
          "name": "toState",
          "type": "bytes32"
        },
        {
          "internalType": "address",
          "name": "actor",
          "type": "address"
        },
        {
          "internalType": "uint256",
          "name": "timestamp",
          "type": "uint256"
        }
      ],
      "stateMutability": "view",
      "type": "function"
    },
    {
      "inputs": [],
      "name": "getHistoryLength",
      "outputs": [
        {
          "internalType": "uint256",
          "name": "",
          "type": "uint256"
        }
      ],
      "stateMutability": "view",
      "type": "function"
    },
    {
      "inputs": [],
      "name": "getIpfsFieldContainerHash",
      "outputs": [
        {
          "internalType": "string",
          "name": "",
          "type": "string"
        }
      ],
      "stateMutability": "view",
      "type": "function"
    },
    {
      "inputs": [],
      "name": "getNextStates",
      "outputs": [
        {
          "internalType": "bytes32[]",
          "name": "nextStates",
          "type": "bytes32[]"
        }
      ],
      "stateMutability": "view",
      "type": "function"
    },
    {
      "inputs": [
        {
          "internalType": "bytes32",
          "name": "state",
          "type": "bytes32"
        }
      ],
      "name": "getState",
      "outputs": [
        {
          "internalType": "bytes32",
          "name": "name",
          "type": "bytes32"
        },
        {
          "internalType": "bytes32[]",
          "name": "nextStates",
          "type": "bytes32[]"
        },
        {
          "internalType": "bytes32[]",
          "name": "allowedRoles",
          "type": "bytes32[]"
        },
        {
          "internalType": "bytes4[]",
          "name": "allowedFunctions",
          "type": "bytes4[]"
        },
        {
          "internalType": "bytes4",
          "name": "preFunction",
          "type": "bytes4"
        }
      ],
      "stateMutability": "view",
      "type": "function"
    },
    {
      "inputs": [
        {
          "internalType": "uint256",
          "name": "",
          "type": "uint256"
        }
      ],
      "name": "history",
      "outputs": [
        {
          "internalType": "bytes32",
          "name": "fromState",
          "type": "bytes32"
        },
        {
          "internalType": "bytes32",
          "name": "toState",
          "type": "bytes32"
        },
        {
          "internalType": "address",
          "name": "actor",
          "type": "address"
        },
        {
          "internalType": "uint256",
          "name": "timestamp",
          "type": "uint256"
        }
      ],
      "stateMutability": "view",
      "type": "function"
    },
    {
      "inputs": [
        {
          "internalType": "bytes32",
          "name": "key",
          "type": "bytes32"
        },
        {
          "internalType": "string",
          "name": "file",
          "type": "string"
        }
      ],
      "name": "setContractFile",
      "outputs": [],
      "stateMutability": "nonpayable",
      "type": "function"
    },
    {
      "inputs": [
        {
          "internalType": "string",
          "name": "ipfsFieldContainerHash",
          "type": "string"
        }
      ],
      "name": "setIpfsFieldContainerHash",
      "outputs": [],
      "stateMutability": "nonpayable",
      "type": "function"
    },
    {
      "inputs": [
        {
          "internalType": "bytes32",
          "name": "toState",
          "type": "bytes32"
        }
      ],
      "name": "transitionState",
      "outputs": [],
      "stateMutability": "nonpayable",
      "type": "function"
    },
    {
      "inputs": [],
      "name": "canEdit",
      "outputs": [
        {
          "internalType": "bytes32[]",
          "name": "",
          "type": "bytes32[]"
        }
      ],
      "stateMutability": "view",
      "type": "function"
    },
    {
      "inputs": [
        {
          "internalType": "string",
          "name": "Name",
          "type": "string"
        },
        {
          "internalType": "string",
          "name": "ipfsFieldContainerHash",
          "type": "string"
        }
      ],
      "name": "edit",
      "outputs": [],
      "stateMutability": "nonpayable",
      "type": "function"
    },
    {
      "inputs": [],
      "name": "DID",
      "outputs": [
        {
          "internalType": "string",
          "name": "",
          "type": "string"
        }
      ],
      "stateMutability": "view",
      "type": "function"
    },
    {
      "inputs": [],
      "name": "getRoles",
      "outputs": [
        {
          "internalType": "bytes32[]",
          "name": "",
          "type": "bytes32[]"
        }
      ],
      "stateMutability": "view",
      "type": "function"
    }
  ],
  "bytecode": "0x610100604052692927a622afa0a226a4a760b11b608090815268524f4c455f42414e4b60b81b60a0526f524f4c455f42454e454649434941525960801b60c0526d1493d31157d05414131250d0539560921b60e0526200006490600b90600462000b13565b506040518060600160405280692927a622afa0a226a4a760b11b815260200168524f4c455f42414e4b60b81b81526020016d1493d31157d05414131250d0539560921b815250600c906003620000bc92919062000b13565b50348015620000ca57600080fd5b50604051620027b6380380620027b6833981016040819052620000ed9162000ca9565b600080546001600160a01b0319166001600160a01b03861617905582516200011d90600e90602086019062000b63565b5081516200013390600790602085019062000b63565b5080516200014990600d90602084019062000b63565b50620001546200015e565b5050505062000da9565b620001756812539255125055115160ba1b6200069a565b6200018c68494e2d52455649455760b81b6200069a565b620001a469494e434f4d504c45544560b01b6200069a565b620001b9660652d5354414d560cc1b6200069a565b620001cd651254d4d5515160d21b6200069a565b620001e3671050d0d15415115160c21b6200069a565b620001f86612539593d2d15160ca1b6200069a565b6200020f6810535153911351539560ba1b6200069a565b6200022a6c52454a45435445442d42414e4b60981b6200069a565b62000244600080516020620027968339815191526200069a565b6200025a671192539254d2115160c21b6200069a565b620002716812539255125055115160ba1b62000758565b620002956812539255125055115160ba1b68524f4c455f42414e4b60b81b62000878565b620002be6812539255125055115160ba1b6d1493d31157d05414131250d0539560921b62000878565b620002e768494e2d52455649455760b81b6d1493d31157d05414131250d0539560921b62000878565b620003066812539255125055115160ba1b63489f19eb60e01b620008fb565b62000323660652d5354414d560cc1b63489f19eb60e01b620008fb565b62000344651254d4d5515160d21b68524f4c455f42414e4b60b81b62000878565b6200036969494e434f4d504c45544560b01b68524f4c455f42414e4b60b81b62000878565b6200038b660652d5354414d560cc1b68524f4c455f42414e4b60b81b62000878565b620003b36c52454a45435445442d42414e4b60981b68524f4c455f42414e4b60b81b62000878565b620003d6671192539254d2115160c21b68524f4c455f42414e4b60b81b62000878565b62000404600080516020620027968339815191526f524f4c455f42454e454649434941525960801b62000878565b6200042e671050d0d15415115160c21b6f524f4c455f42454e454649434941525960801b62000878565b620004576612539593d2d15160ca1b6f524f4c455f42454e454649434941525960801b62000878565b620004826810535153911351539560ba1b6f524f4c455f42454e454649434941525960801b62000878565b620004a66812539255125055115160ba1b68494e2d52455649455760b81b62000a33565b620004cb68494e2d52455649455760b81b69494e434f4d504c45544560b01b62000a33565b620004ed68494e2d52455649455760b81b660652d5354414d560cc1b62000a33565b6200051568494e2d52455649455760b81b6c52454a45435445442d42414e4b60981b62000a33565b6200053a69494e434f4d504c45544560b01b68494e2d52455649455760b81b62000a33565b62000559660652d5354414d560cc1b651254d4d5515160d21b62000a33565b620005806c52454a45435445442d42414e4b60981b671192539254d2115160c21b62000a33565b620005a4651254d4d5515160d21b6000805160206200279683398151915262000a33565b620005c4651254d4d5515160d21b671050d0d15415115160c21b62000a33565b620005e5671050d0d15415115160c21b6612539593d2d15160ca1b62000a33565b62000608671050d0d15415115160c21b6810535153911351539560ba1b62000a33565b620006296810535153911351539560ba1b651254d4d5515160d21b62000a33565b620006516810535153911351539560ba1b6c52454a45435445442d42414e4b60981b62000a33565b620006726612539593d2d15160ca1b671192539254d2115160c21b62000a33565b6200069860008051602062002796833981519152671192539254d2115160c21b62000a33565b565b60008181526002602052604090205460ff16156200070b5760405162461bcd60e51b815260206004820152602360248201527f746869732073746174652068617320616c7265616479206265656e20637265616044820152621d195960ea1b60648201526084015b60405180910390fd5b6000818152600260205260408120805460ff191660019081179091556003805491820181559091527fc2575a0e9e593c00f959f8c92f12db2869c3395a3b0502d05e2516446f71f85b0155565b60008181526002602052604090205460ff16620007cb5760405162461bcd60e51b815260206004820152602a60248201527f74686520696e697469616c20737461746520686173206e6f74206265656e20636044820152691c99585d1959081e595d60b21b606482015260840162000702565b60045415620008735760405162461bcd60e51b815260206004820152606160248201527f7468652063757272656e742073746174652068617320616c726561647920626560448201527f656e207365742c20736f20796f752063616e6e6f7420636f6e6669677572652060648201527f74686520696e697469616c20737461746520616e64206f7665727269646520696084820152601d60fa1b60a482015260c40162000702565b600455565b600082815260026020526040902054829060ff16620008d45760405162461bcd60e51b8152602060048201526022602482015260008051602062002776833981519152604482015261195d60f21b606482015260840162000702565b50600091825260026020818152604084209091018054600181018255908452922090910155565b600082815260026020526040902054829060ff16620009575760405162461bcd60e51b8152602060048201526022602482015260008051602062002776833981519152604482015261195d60f21b606482015260840162000702565b6001600160e01b0319821660009081526006602052604090205460ff16620009fb576001600160e01b0319821660009081526006602052604081208054600160ff1990911681179091556005805491820181559091527f036b6384b5eca791c62761152d0c79bb0604c104a5fb6f4eb0703f3154bb3db06008820401805463ffffffff60079093166004026101000a928302191660e085901c929092029190911790555b5060009182526002602090815260408084206001600160e01b031990931684526001928301909152909120805460ff19169091179055565b600082815260026020526040902054829060ff1662000a8f5760405162461bcd60e51b8152602060048201526022602482015260008051602062002776833981519152604482015261195d60f21b606482015260840162000702565b600082815260026020526040902054829060ff1662000aeb5760405162461bcd60e51b8152602060048201526022602482015260008051602062002776833981519152604482015261195d60f21b606482015260840162000702565b5050600091825260026020908152604083206005018054600181018255908452922090910155565b82805482825590600052602060002090810192821562000b51579160200282015b8281111562000b5157825182559160200191906001019062000b34565b5062000b5f92915062000bdf565b5090565b82805462000b719062000d56565b90600052602060002090601f01602090048101928262000b95576000855562000b51565b82601f1062000bb057805160ff191683800117855562000b51565b8280016001018555821562000b51579182018281111562000b5157825182559160200191906001019062000b34565b5b8082111562000b5f576000815560010162000be0565b600082601f83011262000c07578081fd5b81516001600160401b038082111562000c245762000c2462000d93565b604051601f8301601f19908116603f0116810190828211818310171562000c4f5762000c4f62000d93565b8160405283815260209250868385880101111562000c6b578485fd5b8491505b8382101562000c8e578582018301518183018401529082019062000c6f565b8382111562000c9f57848385830101525b9695505050505050565b6000806000806080858703121562000cbf578384fd5b84516001600160a01b038116811462000cd6578485fd5b60208601519094506001600160401b038082111562000cf3578485fd5b62000d018883890162000bf6565b9450604087015191508082111562000d17578384fd5b62000d258883890162000bf6565b9350606087015191508082111562000d3b578283fd5b5062000d4a8782880162000bf6565b91505092959194509250565b600181811c9082168062000d6b57607f821691505b6020821081141562000d8d57634e487b7160e01b600052602260045260246000fd5b50919050565b634e487b7160e01b600052604160045260246000fd5b6119bd8062000db96000396000f3fe608060405234801561001057600080fd5b506004361061021c5760003560e01c80637106139811610125578063bac1e2d0116100ad578063d391014b1161007c578063d391014b146104a1578063ef120a6e146104b5578063ef261af7146104bd578063f4a979a3146104cd578063fcbb5907146104e05761021c565b8063bac1e2d01461044a578063c5e865da14610461578063c8691b2a14610474578063cf5194d6146104875761021c565b8063910fd10a116100f4578063910fd10a146103cf578063a4ddb071146103d7578063a7a38f0b146103df578063b47813db14610421578063ba2a283f146104395761021c565b806371061398146103a657806376d150dd146103ae57806381beeb64146103b657806388437e0f146103be5761021c565b80633e44694f116101a85780635131e2bf116101775780635131e2bf146103535780635478f4681461036657806356c57bd11461036e5780635be0ef3814610381578063694f1105146103935761021c565b80633e44694f146102f657806345d61ded1461030b578063489f19eb146103365780634de6740e1461034b5761021c565b806329813756116101ef57806329813756146102965780632d595ac4146102b45780632e2bc0d5146102c6578063304b1bd1146102db578063378aa701146102ee5761021c565b806309648a9d146102215780630d791ab51461024e578063226220571461026f57806327ab3ce114610282575b600080fd5b61023461022f366004611604565b610507565b604051610245959493929190611802565b60405180910390f35b61026168494e2d52455649455760b81b81565b604051908152602001610245565b61026168524f4c455f42414e4b60b81b81565b61026169494e434f4d504c45544560b01b81565b6102617352454a45435445442d42454e454649434941525960601b81565b610261671050d0d15415115160c21b81565b6102ce610851565b60405161024591906117ef565b6102616102e9366004611604565b6108b7565b6102616108d8565b6102fe610958565b604051610245919061188d565b60005461031e906001600160a01b031681565b6040516001600160a01b039091168152602001610245565b61034961034436600461169c565b610980565b005b6102fe6109ac565b6102616810535153911351539560ba1b81565b600154610261565b61034961037c366004611661565b610a3a565b610261671192539254d2115160c21b81565b6103496103a1366004611604565b610a51565b6102ce610c90565b6102fe610ce6565b6102ce610cf3565b6102616612539593d2d15160ca1b81565b6102fe610d49565b6102ce610d56565b6103f26103ed366004611604565b610dac565b604051610245949392919093845260208401929092526001600160a01b03166040830152606082015260800190565b6102616d1493d31157d05414131250d0539560921b81565b610261660652d5354414d560cc1b81565b6102616c52454a45435445442d42414e4b60981b81565b6102616812539255125055115160ba1b81565b6103f2610482366004611604565b610def565b6102616f524f4c455f42454e454649434941525960801b81565b610261692927a622afa0a226a4a760b11b81565b6102fe610f29565b610261651254d4d5515160d21b81565b6103496104db36600461161c565b610fb2565b6102617f5550444154455f49504653434f4e5441494e4552484153485f524f4c4500000081565b60008181526002602052604081206005546060918291829185918290819067ffffffffffffffff81111561054b57634e487b7160e01b600052604160045260246000fd5b604051908082528060200260200182016040528015610574578160200160208202803683370190505b50905060005b60055481101561069f57600260008b81526020019081526020016000206001016000600583815481106105bd57634e487b7160e01b600052603260045260246000fd5b6000918252602080832060088304015460079092166004026101000a90910460e01b6001600160e01b031916835282019290925260400190205460ff161561068d576005818154811061062057634e487b7160e01b600052603260045260246000fd5b90600052602060002090600891828204019190066004029054906101000a900460e01b828460ff168151811061066657634e487b7160e01b600052603260045260246000fd5b6001600160e01b03199092166020928302919091019091015261068a6001846118e0565b92505b8061069781611940565b91505061057a565b5060008260ff1667ffffffffffffffff8111156106cc57634e487b7160e01b600052604160045260246000fd5b6040519080825280602002602001820160405280156106f5578160200160208202803683370190505b50905060005b8360ff168110156107795782818151811061072657634e487b7160e01b600052603260045260246000fd5b602002602001015182828151811061074e57634e487b7160e01b600052603260045260246000fd5b6001600160e01b0319909216602092830291909101909101528061077181611940565b9150506106fb565b50898460050185600201838760060160009054906101000a900460e01b838054806020026020016040519081016040528092919081815260200182805480156107e157602002820191906000526020600020905b8154815260200190600101908083116107cd575b505050505093508280548060200260200160405190810160405280929190818152602001828054801561083357602002820191906000526020600020905b81548152602001906001019080831161081f575b50505050509250985098509850985098505050505091939590929450565b6004546000908152600260209081526040918290206005018054835181840281018401909452808452606093928301828280156108ad57602002820191906000526020600020905b815481526020019060010190808311610899575b5050505050905090565b600b81815481106108c757600080fd5b600091825260209091200154905081565b60045460009081526002602052604081205460ff166109515760405162461bcd60e51b815260206004820152602a60248201527f74686520696e697469616c20737461746520686173206e6f74206265656e20636044820152691c99585d1959081e595d60b21b60648201526084015b60405180910390fd5b5060045490565b6060600e60405160200161096c919061172d565b604051602081830303815290604052905090565b815161099390600e9060208501906114ae565b5080516109a79060079060208401906114ae565b505050565b600d80546109b990611905565b80601f01602080910402602001604051908101604052809291908181526020018280546109e590611905565b8015610a325780601f10610a0757610100808354040283529160200191610a32565b820191906000526020600020905b815481529060010190602001808311610a1557829003601f168201915b505050505081565b8051610a4d9060079060208401906114ae565b5050565b600354610ab15760405162461bcd60e51b815260206004820152602860248201527f746869732073746174656d616368696e6520686173206e6f74206265656e2073604482015267195d1d5c081e595d60c21b6064820152608401610948565b80610ac3610abd6108d8565b82611032565b600480548382556000848152600260205260408120919291909101905b8154811015610b5957610b478386848481548110610b0e57634e487b7160e01b600052603260045260246000fd5b90600052602060002090600491828204019190066008029054906101000a90048015611532021767ffffffffffffffff1663ffffffff16565b80610b5181611940565b915050610ae0565b506040805160808101825283815260208082018781523383850181815242606080870191825260018054808201825560009190915296517fb10e2d527612073b26eecdfd717e6a320cf44b4afac2b0732d9fcbe2b7fa0cf660049889029081019190915594517fb10e2d527612073b26eecdfd717e6a320cf44b4afac2b0732d9fcbe2b7fa0cf786015591517fb10e2d527612073b26eecdfd717e6a320cf44b4afac2b0732d9fcbe2b7fa0cf8850180546001600160a01b0319166001600160a01b03909216919091179055517fb10e2d527612073b26eecdfd717e6a320cf44b4afac2b0732d9fcbe2b7fa0cf99093019290925592548451938452918301869052928201527f483a31c379a4b707332853662276a3424ec44f0ccbfc20d78fd9d143694f7669910160405180910390a150505050565b6060600b8054806020026020016040519081016040528092919081815260200182805480156108ad5760200282019190600052602060002090815481526020019060010190808311610899575050505050905090565b600e80546109b990611905565b6060600c8054806020026020016040519081016040528092919081815260200182805480156108ad5760200282019190600052602060002090815481526020019060010190808311610899575050505050905090565b600780546109b990611905565b606060038054806020026020016040519081016040528092919081815260200182805480156108ad5760200282019190600052602060002090815481526020019060010190808311610899575050505050905090565b60018181548110610dbc57600080fd5b60009182526020909120600490910201805460018201546002830154600390930154919350916001600160a01b03169084565b60008080806001548510610e3b5760405162461bcd60e51b8152602060048201526013602482015272496e646578206f7574206f6620626f756e647360681b6044820152606401610948565b60018581548110610e5c57634e487b7160e01b600052603260045260246000fd5b90600052602060002090600402016000015460018681548110610e8f57634e487b7160e01b600052603260045260246000fd5b90600052602060002090600402016001015460018781548110610ec257634e487b7160e01b600052603260045260246000fd5b906000526020600020906004020160020160009054906101000a90046001600160a01b031660018881548110610f0857634e487b7160e01b600052603260045260246000fd5b90600052602060002090600402016003015493509350935093509193509193565b606060078054610f3890611905565b80601f0160208091040260200160405190810160405280929190818152602001828054610f6490611905565b80156108ad5780601f10610f86576101008083540402835291602001916108ad565b820191906000526020600020905b815481529060010190602001808311610f9457509395945050505050565b60008281526009602052604090205460ff16611013576008805460018181019092557ff3f7a9fe364faab93b216da50a3214154f22a0a2b415b23a84c8169e8b636ee3018390556000838152600960205260409020805460ff191690911790555b6000828152600a6020908152604090912082516109a7928401906114ae565b60008281526002602052604090205460ff166110ae5760405162461bcd60e51b815260206004820152603560248201527f7468652066726f6d20737461746520686173206e6f74206265656e20636f6e666044820152741a59dd5c9959081a5b881d1a1a5cc81bd89a9958dd605a1b6064820152608401610948565b60008181526002602052604090205460ff166111285760405162461bcd60e51b815260206004820152603360248201527f74686520746f20737461746520686173206e6f74206265656e20636f6e6669676044820152721d5c9959081a5b881d1a1a5cc81bd89a9958dd606a1b6064820152608401610948565b6111328282611273565b6111b65760405162461bcd60e51b815260206004820152604960248201527f74686520726571756573746564206e657874207374617465206973206e6f742060448201527f616e20616c6c6f776564206e65787420737461746520666f72207468697320746064820152683930b739b4ba34b7b760b91b608482015260a401610948565b6111bf8161132d565b6112695760405162461bcd60e51b815260206004820152606960248201527f7468652073656e646572206f662074686973207472616e73616374696f6e206460448201527f6f6573206e6f742068617665206120726f6c65207468617420616c6c6f77732060648201527f7472616e736974696f6e206265747765656e207468652066726f6d20616e6420608482015268746f2073746174657360b81b60a482015260c401610948565b610a4d82826113b0565b6000828152600260205260408120600501815b815481101561132557604080516020810186905201604051602081830303815290604052805190602001208282815481106112d157634e487b7160e01b600052603260045260246000fd5b90600052602060002001546040516020016112ee91815260200190565b6040516020818303038152906040528051906020012014156113135760019250611325565b8061131d81611940565b915050611286565b505092915050565b6000818152600260208190526040822001805461134957600191505b60005b81548110156113a9576113893383838154811061137957634e487b7160e01b600052603260045260246000fd5b9060005260206000200154611409565b1561139757600192506113a9565b806113a181611940565b91505061134c565b5050919050565b6000818152600260205260408120600301905b8154811015611403576113f18484848481548110610b0e57634e487b7160e01b600052603260045260246000fd5b806113fb81611940565b9150506113c3565b50505050565b600080546001600160a01b031615806114a75750600054604051630dace25b60e31b81526001600160a01b0385811660048301523060248301526044820185905290911690636d6712d89060640160206040518083038186803b15801561146f57600080fd5b505afa158015611483573d6000803e3d6000fd5b505050506040513d601f19601f820116820180604052508101906114a791906115e4565b9392505050565b8280546114ba90611905565b90600052602060002090601f0160209004810192826114dc5760008555611522565b82601f106114f557805160ff1916838001178555611522565b82800160010185558215611522579182015b82811115611522578251825591602001919060010190611507565b5061152e929150611548565b5090565b634e487b7160e01b600052605160045260246000fd5b5b8082111561152e5760008155600101611549565b600082601f83011261156d578081fd5b813567ffffffffffffffff8082111561158857611588611971565b604051601f8301601f19908116603f011681019082821181831017156115b0576115b0611971565b816040528381528660208588010111156115c8578485fd5b8360208701602083013792830160200193909352509392505050565b6000602082840312156115f5578081fd5b815180151581146114a7578182fd5b600060208284031215611615578081fd5b5035919050565b6000806040838503121561162e578081fd5b82359150602083013567ffffffffffffffff81111561164b578182fd5b6116578582860161155d565b9150509250929050565b600060208284031215611672578081fd5b813567ffffffffffffffff811115611688578182fd5b6116948482850161155d565b949350505050565b600080604083850312156116ae578182fd5b823567ffffffffffffffff808211156116c5578384fd5b6116d18683870161155d565b935060208501359150808211156116e6578283fd5b506116578582860161155d565b6000815180845260208085019450808401835b8381101561172257815187529582019590820190600101611706565b509495945050505050565b6000753234b21d3232b6b79d3130b735b3bab930b73a32b29d60511b8252601681845483600182811c91508083168061176757607f831692505b602080841082141561178757634e487b7160e01b88526022600452602488fd5b81801561179b57600181146117b0576117e0565b60ff1986168a890152848a01880196506117e0565b60008b815260209020895b868110156117d65781548c82018b01529085019083016117bb565b505087858b010196505b50949998505050505050505050565b6000602082526114a760208301846116f3565b6000868252602060a08184015261181c60a08401886116f3565b838103604085015261182e81886116f3565b84810360608601528651808252838801925090830190845b8181101561186c5783516001600160e01b03191683529284019291840191600101611846565b505080935050505063ffffffff60e01b831660808301529695505050505050565b6000602080835283518082850152825b818110156118b95785810183015185820160400152820161189d565b818111156118ca5783604083870101525b50601f01601f1916929092016040019392505050565b600060ff821660ff84168060ff038211156118fd576118fd61195b565b019392505050565b600181811c9082168061191957607f821691505b6020821081141561193a57634e487b7160e01b600052602260045260246000fd5b50919050565b60006000198214156119545761195461195b565b5060010190565b634e487b7160e01b600052601160045260246000fd5b634e487b7160e01b600052604160045260246000fdfea26469706673582212207cab5b5fa9513c7dc44d1f38ba2bbe218d04616d202bf5024f105271a1fb876d64736f6c6343000803003374686520737461746520686173206e6f74206265656e2063726561746564207952454a45435445442d42454e4546494349415259000000000000000000000000",
  "immutableReferences": {},
  "source": "/**\n * Copyright (C) SettleMint NV - All Rights Reserved\n *\n * Use of this file is strictly prohibited without an active license agreement.\n * Distribution of this file, via any medium, is strictly prohibited.\n *\n * For license inquiries, contact hello@settlemint.com\n *\n * SPDX-License-Identifier: UNLICENSED\n */\n\npragma solidity ^0.8.0;\n\nimport '../_library//authentication/Secured.sol';\nimport '../_library//provenance/statemachine/StateMachine.sol';\nimport '../_library//utility/metadata/IpfsFieldContainer.sol';\nimport '../_library//utility/metadata/FileFieldContainer.sol';\nimport '../_library//utility/conversions/Converter.sol';\n\n/**\n * BankGuarantee\n\n *\n * @title State machine for BankGuarantee\n */\ncontract BankGuarantee is Converter, StateMachine, IpfsFieldContainer, FileFieldContainer {\n  bytes32 public constant STATE_INITIATED = 'INITIATED';\n  bytes32 public constant STATE_IN_REVIEW = 'IN-REVIEW';\n  bytes32 public constant STATE_INCOMPLETE = 'INCOMPLETE';\n  bytes32 public constant STATE_APPROVED = 'e-STAMP';\n  bytes32 public constant STATE_ISSUED = 'ISSUED';\n  bytes32 public constant STATE_ACCEPTED = 'ACCEPTED';\n  bytes32 public constant STATE_INVOKED = 'INVOKED';\n  bytes32 public constant STATE_AMENDMENT = 'AMENDMENT';\n  bytes32 public constant STATE_REJECTED_BANK = 'REJECTED-BANK';\n  bytes32 public constant STATE_REJECTED_BENEFICIARY = 'REJECTED-BENEFICIARY';\n  bytes32 public constant STATE_FINISHED = 'FINISHED';\n\n  bytes32 public constant ROLE_ADMIN = 'ROLE_ADMIN';\n  bytes32 public constant ROLE_BANK = 'ROLE_BANK';\n  bytes32 public constant ROLE_BENEFICIARY = 'ROLE_BENEFICIARY';\n  bytes32 public constant ROLE_APPLICANT = 'ROLE_APPLICANT';\n\n  bytes32[] public _roles = [ROLE_ADMIN, ROLE_BANK, ROLE_BENEFICIARY, ROLE_APPLICANT];\n  bytes32[] private _canEdit = [ROLE_ADMIN, ROLE_BANK, ROLE_APPLICANT];\n\n  string public _uiFieldDefinitionsHash;\n  string public _Name;\n\n  constructor(\n    address gateKeeper,\n    string memory Name,\n    string memory ipfsFieldContainerHash,\n    string memory uiFieldDefinitionsHash\n  ) Secured(gateKeeper) {\n    _Name = Name;\n    _ipfsFieldContainerHash = ipfsFieldContainerHash;\n    _uiFieldDefinitionsHash = uiFieldDefinitionsHash;\n    setupStateMachine();\n  }\n\n  function canEdit() public view returns (bytes32[] memory) {\n    return _canEdit;\n  }\n\n  /**\n   * @notice Updates expense properties\n   * @param Name It is the order Identification Number\n   * @param ipfsFieldContainerHash ipfs hash of bankgurantee metadata\n   */\n  function edit(string memory Name, string memory ipfsFieldContainerHash) public {\n    _Name = Name;\n    _ipfsFieldContainerHash = ipfsFieldContainerHash;\n  }\n\n  /**\n   * @notice Returns a DID of the bankgurantee\n   * @dev Returns a unique DID (Decentralized Identifier) for the bankgurantee.\n   * @return string representing the DID of the bankgurantee\n   */\n  function DID() public view returns (string memory) {\n    return string(abi.encodePacked('did:demo:bankgurantee:', _Name));\n  }\n\n  /**\n   * @notice Returns all the roles for this contract\n   * @return bytes32[] array of raw bytes representing the roles\n   */\n  function getRoles() public view returns (bytes32[] memory) {\n    return _roles;\n  }\n\n  function setupStateMachine() internal override {\n    //create all states\n    createState(STATE_INITIATED);\n    createState(STATE_IN_REVIEW);\n    createState(STATE_INCOMPLETE);\n    createState(STATE_APPROVED);\n    createState(STATE_ISSUED);\n    createState(STATE_ACCEPTED);\n    createState(STATE_INVOKED);\n    createState(STATE_AMENDMENT);\n    createState(STATE_REJECTED_BANK);\n    createState(STATE_REJECTED_BENEFICIARY);\n    createState(STATE_FINISHED);\n\n    setInitialState(STATE_INITIATED);\n\n    addRoleForState(STATE_INITIATED, ROLE_BANK);\n    addRoleForState(STATE_INITIATED, ROLE_APPLICANT);\n\n    addRoleForState(STATE_IN_REVIEW, ROLE_APPLICANT);\n\n    addAllowedFunctionForState(STATE_INITIATED, this.edit.selector);\n    addAllowedFunctionForState(STATE_APPROVED, this.edit.selector);\n\n    addRoleForState(STATE_ISSUED, ROLE_BANK);\n    addRoleForState(STATE_INCOMPLETE, ROLE_BANK);\n    addRoleForState(STATE_APPROVED, ROLE_BANK);\n    addRoleForState(STATE_REJECTED_BANK, ROLE_BANK);\n    addRoleForState(STATE_FINISHED, ROLE_BANK);\n\n    addRoleForState(STATE_REJECTED_BENEFICIARY, ROLE_BENEFICIARY);\n    addRoleForState(STATE_ACCEPTED, ROLE_BENEFICIARY);\n    addRoleForState(STATE_INVOKED, ROLE_BENEFICIARY);\n    addRoleForState(STATE_AMENDMENT, ROLE_BENEFICIARY);\n\n    //addRoleForState(STATE_INITIATED,ROLE_ADMIN);\n    //addRoleForState(STATE_READY,ROLE_ADMIN);\n    //addRoleForState(STATE_IN_REVIEW,ROLE_ADMIN);\n    //addRoleForState(STATE_INCOMPLETE,ROLE_ADMIN);\n    //addRoleForState(STATE_APPROVED,ROLE_ADMIN);\n    //addRoleForState(STATE_ISSUED,ROLE_ADMIN);\n    //addRoleForState(STATE_ACCEPTED,ROLE_ADMIN);\n    //addRoleForState(STATE_INVOKED,ROLE_ADMIN);\n    //addRoleForState(STATE_AMENDMENT,ROLE_ADMIN);\n    //addRoleForState(STATE_REJECTED_BANK,ROLE_ADMIN);\n    //addRoleForState(STATE_FINISHED,ROLE_ADMIN);\n\n    // add properties\n\n    addNextStateForState(STATE_INITIATED, STATE_IN_REVIEW);\n\n    addNextStateForState(STATE_IN_REVIEW, STATE_INCOMPLETE);\n    addNextStateForState(STATE_IN_REVIEW, STATE_APPROVED);\n    addNextStateForState(STATE_IN_REVIEW, STATE_REJECTED_BANK);\n\n    addNextStateForState(STATE_INCOMPLETE, STATE_IN_REVIEW);\n    addNextStateForState(STATE_APPROVED, STATE_ISSUED);\n    addNextStateForState(STATE_REJECTED_BANK, STATE_FINISHED);\n\n    addNextStateForState(STATE_ISSUED, STATE_REJECTED_BENEFICIARY);\n    addNextStateForState(STATE_ISSUED, STATE_ACCEPTED);\n\n    addNextStateForState(STATE_ACCEPTED, STATE_INVOKED);\n    addNextStateForState(STATE_ACCEPTED, STATE_AMENDMENT);\n\n    addNextStateForState(STATE_AMENDMENT, STATE_ISSUED);\n    addNextStateForState(STATE_AMENDMENT, STATE_REJECTED_BANK);\n\n    addNextStateForState(STATE_INVOKED, STATE_FINISHED);\n\n    addNextStateForState(STATE_REJECTED_BENEFICIARY, STATE_FINISHED);\n  }\n}\n",
  "sourcePath": "/home/coder/project/contracts/bankguarantee/BankGuarantee.sol",
  "compiler": {
    "name": "solc",
    "version": "0.8.3+commit.8d00100c.Emscripten.clang"
  },
  "schemaVersion": "3.4.1",
  "updatedAt": "2021-08-01T16:33:48.941Z",
  "devdoc": {
    "kind": "dev",
    "methods": {
      "DID()": {
        "details": "Returns a unique DID (Decentralized Identifier) for the bankgurantee.",
        "returns": {
          "_0": "string representing the DID of the bankgurantee"
        }
      },
      "edit(string,string)": {
        "params": {
          "Name": "It is the order Identification Number",
          "ipfsFieldContainerHash": "ipfs hash of bankgurantee metadata"
        }
      },
      "getCurrentState()": {
        "details": "Requires the current state to be configured before calling this function"
      },
      "getHistory(uint256)": {
        "details": "Requires the index to be within the bounds of the history array"
      },
      "getRoles()": {
        "returns": {
          "_0": "bytes32[] array of raw bytes representing the roles"
        }
      },
      "transitionState(bytes32)": {
        "details": "Emits a Transition event after a successful transition."
      }
    },
    "title": "State machine for BankGuarantee",
    "version": 1
  },
  "userdoc": {
    "kind": "user",
    "methods": {
      "DID()": {
        "notice": "Returns a DID of the bankgurantee"
      },
      "edit(string,string)": {
        "notice": "Updates expense properties"
      },
      "getAllStates()": {
        "notice": "Returns a list of all the possible states of this object."
      },
      "getCurrentState()": {
        "notice": "Returns the name of the current state of this object."
      },
      "getHistory(uint256)": {
        "notice": "Returns history as tuple for given index."
      },
      "getHistoryLength()": {
        "notice": "Returns the length of the history"
      },
      "getNextStates()": {
        "notice": "Returns a list of all the possible next states of the current state."
      },
      "getRoles()": {
        "notice": "Returns all the roles for this contract"
      },
      "getState(bytes32)": {
        "notice": "Returns state as tuple for give state."
      },
      "transitionState(bytes32)": {
        "notice": "Transitions the state and executes all callbacks."
      }
    },
    "notice": "BankGuarantee",
    "version": 1
  }
}