{
  "contractName": "BillOfLading",
  "abi": [
    {
      "inputs": [
        {
          "internalType": "address",
          "name": "gateKeeper",
          "type": "address"
        },
        {
          "internalType": "address",
          "name": "registry",
          "type": "address"
        }
      ],
      "stateMutability": "nonpayable",
      "type": "constructor"
    },
    {
      "anonymous": false,
      "inputs": [
        {
          "indexed": false,
          "internalType": "address",
          "name": "sender",
          "type": "address"
        },
        {
          "indexed": false,
          "internalType": "uint256",
          "name": "fromAmount",
          "type": "uint256"
        },
        {
          "indexed": false,
          "internalType": "uint256",
          "name": "toAmount",
          "type": "uint256"
        }
      ],
      "name": "AmountChanged",
      "type": "event"
    },
    {
      "anonymous": false,
      "inputs": [
        {
          "indexed": false,
          "internalType": "address",
          "name": "owner",
          "type": "address"
        },
        {
          "indexed": false,
          "internalType": "address",
          "name": "expense",
          "type": "address"
        },
        {
          "indexed": false,
          "internalType": "uint256",
          "name": "amount",
          "type": "uint256"
        }
      ],
      "name": "BillOfLadingAccepted",
      "type": "event"
    },
    {
      "anonymous": false,
      "inputs": [
        {
          "indexed": false,
          "internalType": "uint256",
          "name": "fsmIndex",
          "type": "uint256"
        },
        {
          "indexed": false,
          "internalType": "address",
          "name": "owner",
          "type": "address"
        },
        {
          "indexed": false,
          "internalType": "address",
          "name": "registry",
          "type": "address"
        }
      ],
      "name": "BillOfLadingCreated",
      "type": "event"
    },
    {
      "anonymous": false,
      "inputs": [
        {
          "indexed": false,
          "internalType": "address",
          "name": "owner",
          "type": "address"
        },
        {
          "indexed": false,
          "internalType": "address",
          "name": "expense",
          "type": "address"
        },
        {
          "indexed": false,
          "internalType": "uint256",
          "name": "amount",
          "type": "uint256"
        },
        {
          "indexed": false,
          "internalType": "string",
          "name": "comment",
          "type": "string"
        }
      ],
      "name": "BillOfLadingForceApproved",
      "type": "event"
    },
    {
      "anonymous": false,
      "inputs": [
        {
          "indexed": false,
          "internalType": "address",
          "name": "owner",
          "type": "address"
        },
        {
          "indexed": false,
          "internalType": "address",
          "name": "expense",
          "type": "address"
        },
        {
          "indexed": false,
          "internalType": "uint256",
          "name": "amount",
          "type": "uint256"
        },
        {
          "indexed": false,
          "internalType": "string",
          "name": "comment",
          "type": "string"
        }
      ],
      "name": "BillOfLadingNeedsUpdate",
      "type": "event"
    },
    {
      "anonymous": false,
      "inputs": [
        {
          "indexed": false,
          "internalType": "address",
          "name": "owner",
          "type": "address"
        },
        {
          "indexed": false,
          "internalType": "address",
          "name": "expense",
          "type": "address"
        },
        {
          "indexed": false,
          "internalType": "uint256",
          "name": "amount",
          "type": "uint256"
        },
        {
          "indexed": false,
          "internalType": "string",
          "name": "comment",
          "type": "string"
        }
      ],
      "name": "BillOfLadingRejected",
      "type": "event"
    },
    {
      "anonymous": false,
      "inputs": [
        {
          "indexed": false,
          "internalType": "address",
          "name": "owner",
          "type": "address"
        },
        {
          "indexed": false,
          "internalType": "address",
          "name": "expense",
          "type": "address"
        },
        {
          "indexed": false,
          "internalType": "uint256",
          "name": "amount",
          "type": "uint256"
        }
      ],
      "name": "BillOfLadingReviewed",
      "type": "event"
    },
    {
      "anonymous": false,
      "inputs": [
        {
          "indexed": false,
          "internalType": "address",
          "name": "owner",
          "type": "address"
        },
        {
          "indexed": false,
          "internalType": "address",
          "name": "expense",
          "type": "address"
        },
        {
          "indexed": false,
          "internalType": "uint256",
          "name": "amount",
          "type": "uint256"
        }
      ],
      "name": "BillOfLadingSubmitted",
      "type": "event"
    },
    {
      "anonymous": false,
      "inputs": [
        {
          "indexed": false,
          "internalType": "address",
          "name": "owner",
          "type": "address"
        },
        {
          "indexed": false,
          "internalType": "address",
          "name": "expense",
          "type": "address"
        },
        {
          "indexed": false,
          "internalType": "uint256",
          "name": "amount",
          "type": "uint256"
        },
        {
          "indexed": false,
          "internalType": "string",
          "name": "comment",
          "type": "string"
        }
      ],
      "name": "BillOfLadingSubmittedWithException",
      "type": "event"
    },
    {
      "anonymous": false,
      "inputs": [
        {
          "indexed": false,
          "internalType": "address",
          "name": "sender",
          "type": "address"
        },
        {
          "indexed": false,
          "internalType": "string",
          "name": "fromProof",
          "type": "string"
        },
        {
          "indexed": false,
          "internalType": "string",
          "name": "toProof",
          "type": "string"
        }
      ],
      "name": "ProofChanged",
      "type": "event"
    },
    {
      "anonymous": false,
      "inputs": [
        {
          "indexed": false,
          "internalType": "uint256",
          "name": "index",
          "type": "uint256"
        },
        {
          "indexed": false,
          "internalType": "address",
          "name": "sender",
          "type": "address"
        },
        {
          "indexed": false,
          "internalType": "bytes32",
          "name": "fromState",
          "type": "bytes32"
        },
        {
          "indexed": false,
          "internalType": "bytes32",
          "name": "toState",
          "type": "bytes32"
        }
      ],
      "name": "StateTransition",
      "type": "event"
    },
    {
      "inputs": [],
      "name": "CREATE_STATEMACHINE_ROLE",
      "outputs": [
        {
          "internalType": "bytes32",
          "name": "",
          "type": "bytes32"
        }
      ],
      "stateMutability": "view",
      "type": "function"
    },
    {
      "inputs": [],
      "name": "FINITE_STATE_MACHINE",
      "outputs": [
        {
          "internalType": "bytes32",
          "name": "",
          "type": "bytes32"
        }
      ],
      "stateMutability": "view",
      "type": "function"
    },
    {
      "inputs": [],
      "name": "UPDATE_IPFSCONTAINERHASH_ROLE",
      "outputs": [
        {
          "internalType": "bytes32",
          "name": "",
          "type": "bytes32"
        }
      ],
      "stateMutability": "view",
      "type": "function"
    },
    {
      "inputs": [],
      "name": "UPDATE_UIFIELDDEFINITIONS_ROLE",
      "outputs": [
        {
          "internalType": "bytes32",
          "name": "",
          "type": "bytes32"
        }
      ],
      "stateMutability": "view",
      "type": "function"
    },
    {
      "inputs": [],
      "name": "UPGRADEABLE_REGISTRY_TARGET",
      "outputs": [
        {
          "internalType": "bytes32",
          "name": "",
          "type": "bytes32"
        }
      ],
      "stateMutability": "view",
      "type": "function"
    },
    {
      "inputs": [
        {
          "internalType": "uint256",
          "name": "",
          "type": "uint256"
        }
      ],
      "name": "_allRoles",
      "outputs": [
        {
          "internalType": "bytes32",
          "name": "",
          "type": "bytes32"
        }
      ],
      "stateMutability": "view",
      "type": "function"
    },
    {
      "inputs": [
        {
          "internalType": "uint256",
          "name": "",
          "type": "uint256"
        }
      ],
      "name": "_allStates",
      "outputs": [
        {
          "internalType": "bytes32",
          "name": "",
          "type": "bytes32"
        }
      ],
      "stateMutability": "view",
      "type": "function"
    },
    {
      "inputs": [],
      "name": "_ipfsFieldContainerHash",
      "outputs": [
        {
          "internalType": "string",
          "name": "",
          "type": "string"
        }
      ],
      "stateMutability": "view",
      "type": "function"
    },
    {
      "inputs": [],
      "name": "_upgradeableRegistry",
      "outputs": [
        {
          "internalType": "address",
          "name": "",
          "type": "address"
        }
      ],
      "stateMutability": "view",
      "type": "function"
    },
    {
      "inputs": [],
      "name": "gateKeeper",
      "outputs": [
        {
          "internalType": "contract GateKeeper",
          "name": "",
          "type": "address"
        }
      ],
      "stateMutability": "view",
      "type": "function"
    },
    {
      "inputs": [],
      "name": "getIndexLength",
      "outputs": [
        {
          "internalType": "uint256",
          "name": "length",
          "type": "uint256"
        }
      ],
      "stateMutability": "view",
      "type": "function"
    },
    {
      "inputs": [],
      "name": "getIpfsFieldContainerHash",
      "outputs": [
        {
          "internalType": "string",
          "name": "",
          "type": "string"
        }
      ],
      "stateMutability": "view",
      "type": "function"
    },
    {
      "inputs": [
        {
          "internalType": "bytes32",
          "name": "key",
          "type": "bytes32"
        },
        {
          "internalType": "string",
          "name": "file",
          "type": "string"
        }
      ],
      "name": "setContractFile",
      "outputs": [],
      "stateMutability": "nonpayable",
      "type": "function"
    },
    {
      "inputs": [
        {
          "internalType": "string",
          "name": "ipfsFieldContainerHash",
          "type": "string"
        }
      ],
      "name": "setIpfsFieldContainerHash",
      "outputs": [],
      "stateMutability": "nonpayable",
      "type": "function"
    },
    {
      "inputs": [
        {
          "internalType": "uint256",
          "name": "fsmIndex",
          "type": "uint256"
        },
        {
          "internalType": "bytes32",
          "name": "toState",
          "type": "bytes32"
        }
      ],
      "name": "transitionState",
      "outputs": [],
      "stateMutability": "nonpayable",
      "type": "function"
    },
    {
      "inputs": [],
      "name": "initialState",
      "outputs": [
        {
          "internalType": "bytes32",
          "name": "",
          "type": "bytes32"
        }
      ],
      "stateMutability": "pure",
      "type": "function"
    },
    {
      "inputs": [],
      "name": "allStates",
      "outputs": [
        {
          "internalType": "bytes32[]",
          "name": "",
          "type": "bytes32[]"
        }
      ],
      "stateMutability": "view",
      "type": "function"
    },
    {
      "inputs": [],
      "name": "allRoles",
      "outputs": [
        {
          "internalType": "bytes32[]",
          "name": "",
          "type": "bytes32[]"
        }
      ],
      "stateMutability": "view",
      "type": "function"
    },
    {
      "inputs": [
        {
          "internalType": "bytes32",
          "name": "state",
          "type": "bytes32"
        }
      ],
      "name": "getNextStatesForState",
      "outputs": [
        {
          "internalType": "bytes32[]",
          "name": "test",
          "type": "bytes32[]"
        }
      ],
      "stateMutability": "view",
      "type": "function"
    },
    {
      "inputs": [
        {
          "internalType": "bytes32",
          "name": "state",
          "type": "bytes32"
        }
      ],
      "name": "getAllowedRolesForState",
      "outputs": [
        {
          "internalType": "bytes32[]",
          "name": "",
          "type": "bytes32[]"
        }
      ],
      "stateMutability": "view",
      "type": "function"
    },
    {
      "inputs": [
        {
          "internalType": "bytes32",
          "name": "state",
          "type": "bytes32"
        }
      ],
      "name": "getAllowedFunctionsForState",
      "outputs": [
        {
          "internalType": "bytes4[]",
          "name": "",
          "type": "bytes4[]"
        }
      ],
      "stateMutability": "view",
      "type": "function"
    },
    {
      "inputs": [
        {
          "internalType": "bytes32",
          "name": "state",
          "type": "bytes32"
        }
      ],
      "name": "getPreconditionsForState",
      "outputs": [
        {
          "internalType": "bytes4[]",
          "name": "",
          "type": "bytes4[]"
        }
      ],
      "stateMutability": "view",
      "type": "function"
    },
    {
      "inputs": [
        {
          "internalType": "bytes32",
          "name": "state",
          "type": "bytes32"
        }
      ],
      "name": "getCallbacksForState",
      "outputs": [
        {
          "internalType": "bytes4[]",
          "name": "",
          "type": "bytes4[]"
        }
      ],
      "stateMutability": "view",
      "type": "function"
    },
    {
      "inputs": [
        {
          "internalType": "bytes32",
          "name": "state",
          "type": "bytes32"
        }
      ],
      "name": "getPreFunctionForState",
      "outputs": [
        {
          "internalType": "bytes4",
          "name": "",
          "type": "bytes4"
        }
      ],
      "stateMutability": "pure",
      "type": "function"
    },
    {
      "inputs": [
        {
          "internalType": "string",
          "name": "uiFieldDefinitionsHash",
          "type": "string"
        }
      ],
      "name": "setUIFieldDefinitionsHash",
      "outputs": [],
      "stateMutability": "nonpayable",
      "type": "function"
    },
    {
      "inputs": [],
      "name": "getUIFieldDefinitionsHash",
      "outputs": [
        {
          "internalType": "string",
          "name": "",
          "type": "string"
        }
      ],
      "stateMutability": "view",
      "type": "function"
    },
    {
      "inputs": [
        {
          "internalType": "string",
          "name": "ipfsFieldContainerHash",
          "type": "string"
        }
      ],
      "name": "create",
      "outputs": [],
      "stateMutability": "nonpayable",
      "type": "function"
    },
    {
      "inputs": [
        {
          "internalType": "uint256",
          "name": "fsmIndex",
          "type": "uint256"
        },
        {
          "internalType": "string",
          "name": "ipfsFieldContainerHash",
          "type": "string"
        }
      ],
      "name": "edit",
      "outputs": [],
      "stateMutability": "nonpayable",
      "type": "function"
    },
    {
      "inputs": [],
      "name": "canEdit",
      "outputs": [
        {
          "internalType": "bytes32[]",
          "name": "",
          "type": "bytes32[]"
        }
      ],
      "stateMutability": "view",
      "type": "function"
    },
    {
      "inputs": [
        {
          "internalType": "uint256",
          "name": "fsmIndex",
          "type": "uint256"
        }
      ],
      "name": "getByIndex",
      "outputs": [
        {
          "components": [
            {
              "internalType": "uint256",
              "name": "index",
              "type": "uint256"
            },
            {
              "internalType": "bytes32",
              "name": "currentState",
              "type": "bytes32"
            },
            {
              "components": [
                {
                  "internalType": "bytes32",
                  "name": "fromState",
                  "type": "bytes32"
                },
                {
                  "internalType": "bytes32",
                  "name": "toState",
                  "type": "bytes32"
                },
                {
                  "internalType": "address",
                  "name": "actor",
                  "type": "address"
                },
                {
                  "internalType": "uint256",
                  "name": "timestamp",
                  "type": "uint256"
                }
              ],
              "internalType": "struct FiniteStateMachine.Transition[]",
              "name": "transitions",
              "type": "tuple[]"
            },
            {
              "internalType": "uint256",
              "name": "createdAt",
              "type": "uint256"
            }
          ],
          "internalType": "struct FiniteStateMachine.StateMachine",
          "name": "item",
          "type": "tuple"
        },
        {
          "components": [
            {
              "internalType": "string",
              "name": "DID",
              "type": "string"
            },
            {
              "internalType": "string",
              "name": "ipfsFieldContainerHash",
              "type": "string"
            }
          ],
          "internalType": "struct BillOfLading.StateMachineMeta",
          "name": "meta",
          "type": "tuple"
        }
      ],
      "stateMutability": "view",
      "type": "function"
    },
    {
      "inputs": [],
      "name": "getContents",
      "outputs": [
        {
          "components": [
            {
              "internalType": "uint256",
              "name": "index",
              "type": "uint256"
            },
            {
              "internalType": "bytes32",
              "name": "currentState",
              "type": "bytes32"
            },
            {
              "components": [
                {
                  "internalType": "bytes32",
                  "name": "fromState",
                  "type": "bytes32"
                },
                {
                  "internalType": "bytes32",
                  "name": "toState",
                  "type": "bytes32"
                },
                {
                  "internalType": "address",
                  "name": "actor",
                  "type": "address"
                },
                {
                  "internalType": "uint256",
                  "name": "timestamp",
                  "type": "uint256"
                }
              ],
              "internalType": "struct FiniteStateMachine.Transition[]",
              "name": "transitions",
              "type": "tuple[]"
            },
            {
              "internalType": "uint256",
              "name": "createdAt",
              "type": "uint256"
            }
          ],
          "internalType": "struct FiniteStateMachine.StateMachine[]",
          "name": "registry",
          "type": "tuple[]"
        },
        {
          "components": [
            {
              "internalType": "string",
              "name": "DID",
              "type": "string"
            },
            {
              "internalType": "string",
              "name": "ipfsFieldContainerHash",
              "type": "string"
            }
          ],
          "internalType": "struct BillOfLading.StateMachineMeta[]",
          "name": "meta",
          "type": "tuple[]"
        }
      ],
      "stateMutability": "view",
      "type": "function"
    },
    {
      "inputs": [],
      "name": "getIndex",
      "outputs": [
        {
          "internalType": "string[]",
          "name": "index",
          "type": "string[]"
        }
      ],
      "stateMutability": "view",
      "type": "function"
    }
  ],
  "bytecode": "0x6101a060405267141491541054915160c21b60809081526d2827a92a2fa7a32fa7a924a3a4a760911b60a05268494e5f52455649455760b81b60c05269494e434f4d504c45544560b01b60e05270115610d154151253d397d1d49053951151607a1b610100526610d4915055115160ca1b610120526a125397d4d212541351539560aa1b610140527f504f52545f4f465f44455354494e4154494f4e000000000000000000000000006101605267149150d15255915160c21b61018052620000cc90600790600962000267565b506040518060800160405280692927a622afa0a226a4a760b11b81526020016b2927a622afa1a0a82a20a4a760a11b81526020016b2927a622afa1a0a92924a2a960a11b81526020017f524f4c455f465245494748545f464f525741524445520000000000000000000081525060089060046200014b92919062000267565b5060408051808201909152692927a622afa0a226a4a760b11b81527f524f4c455f465245494748545f464f525741524445520000000000000000000060208201526200019c90600990600262000267565b50348015620001aa57600080fd5b5060405162002e5838038062002e58833981016040819052620001cd91620002eb565b600080546001600160a01b0319166001600160a01b03848116919091179091558116620002405760405162461bcd60e51b815260206004820152601860248201527f72656769737472792063616e206e6f74206265207a65726f0000000000000000604482015260640160405180910390fd5b600a80546001600160a01b0319166001600160a01b03929092169190911790555062000322565b828054828255906000526020600020908101928215620002a5579160200282015b82811115620002a557825182559160200191906001019062000288565b50620002b3929150620002b7565b5090565b5b80821115620002b35760008155600101620002b8565b80516001600160a01b0381168114620002e657600080fd5b919050565b60008060408385031215620002fe578182fd5b6200030983620002ce565b91506200031960208401620002ce565b90509250929050565b612b2680620003326000396000f3fe608060405234801561001057600080fd5b50600436106101f05760003560e01c806381beeb641161010f578063d143d005116100a2578063ef120a6e11610071578063ef120a6e14610476578063f4a979a31461047e578063fcbb590714610491578063fd95caa4146104b8576101f0565b8063d143d0051461042a578063dc834a7314610448578063e1ba7d011461045b578063e2f3e56c14610463576101f0565b8063910fd10a116100de578063910fd10a146103d5578063a303dbce146103dd578063b6a46b3b14610404578063c4f10f3d14610417576101f0565b806381beeb64146103b257806382f68683146103ba57806385fda2dc146103615780638baba52a146103cd576101f0565b80634c86a5551161018757806367b06eac1161015657806367b06eac14610361578063747f0642146103755780637dcbe4351461039557806381045ead1461039d576101f0565b80634c86a5551461030a5780634c9be9331461031d57806356c57bd11461033d578063590fa6f814610350576101f0565b806336423f54116101c357806336423f5414610288578063412db2ad1461029d578063459b9af9146102ca57806345d61ded146102df576101f0565b80631f0f992a146101f557806323677ae21461022f5780632d883a7314610245578063309c70cf14610266575b600080fd5b61021c7f5550444154455f55494649454c44444546494e4954494f4e535f524f4c45000081565b6040519081526020015b60405180910390f35b6102376104cb565b6040516102269291906126a2565b610258610253366004612394565b610752565b60405161022692919061276b565b61021c774352454154455f53544154454d414348494e455f524f4c4560401b81565b61029b61029636600461244d565b6109dd565b005b6102b16102ab366004612394565b50600090565b6040516001600160e01b03199091168152602001610226565b6102d2610cc1565b6040516102269190612758565b6000546102f2906001600160a01b031681565b6040516001600160a01b039091168152602001610226565b61021c610318366004612394565b610d53565b61033061032b366004612394565b610d74565b60405161022691906125ff565b61029b61034b3660046123f1565b610e3d565b67141491541054915160c21b61021c565b61033061036f366004612394565b50606090565b610388610383366004612394565b610e54565b60405161022691906125bb565b610388611278565b6103a56112cf565b6040516102269190612641565b6103886113a8565b61029b6103c83660046123f1565b6113fe565b61038861147b565b6102d26114d1565b61021c7f5550475241444541424c455f52454749535452595f544152474554000000000081565b61029b6104123660046123f1565b61155f565b610388610425366004612394565b611775565b61021c7346494e4954455f53544154455f4d414348494e4560601b81565b61021c610456366004612394565b611996565b60015461021c565b600a546102f2906001600160a01b031681565b6102d26119a6565b61029b61048c3660046123ac565b6119b5565b61021c7f5550444154455f49504653434f4e5441494e4552484153485f524f4c4500000081565b61029b6104c636600461242c565b611a3a565b6060806001805480602002602001604051908101604052809291908181526020016000905b828210156105ca5783829060005260206000209060040201604051806080016040529081600082015481526020016001820154815260200160028201805480602002602001604051908101604052809291908181526020016000905b828210156105a95760008481526020908190206040805160808101825260048602909201805483526001808201548486015260028201546001600160a01b031692840192909252600301546060830152908352909201910161054c565b505050508152602001600382015481525050815260200190600101906104f0565b505050509150600b805480602002602001604051908101604052809291908181526020016000905b828210156107485783829060005260206000209060020201604051806040016040529081600082018054610625906129c5565b80601f0160208091040260200160405190810160405280929190818152602001828054610651906129c5565b801561069e5780601f106106735761010080835404028352916020019161069e565b820191906000526020600020905b81548152906001019060200180831161068157829003601f168201915b505050505081526020016001820180546106b7906129c5565b80601f01602080910402602001604051908101604052809291908181526020018280546106e3906129c5565b80156107305780601f1061070557610100808354040283529160200191610730565b820191906000526020600020905b81548152906001019060200180831161071357829003601f168201915b505050505081525050815260200190600101906105f2565b5050505090509091565b6107806040518060800160405280600081526020016000801916815260200160608152602001600081525090565b6040805180820190915260608082526020820152600183815481106107b557634e487b7160e01b600052603260045260246000fd5b9060005260206000209060040201604051806080016040529081600082015481526020016001820154815260200160028201805480602002602001604051908101604052809291908181526020016000905b828210156108645760008481526020908190206040805160808101825260048602909201805483526001808201548486015260028201546001600160a01b0316928401929092526003015460608301529083529092019101610807565b5050505081526020016003820154815250509150600b838154811061089957634e487b7160e01b600052603260045260246000fd5b90600052602060002090600202016040518060400160405290816000820180546108c2906129c5565b80601f01602080910402602001604051908101604052809291908181526020018280546108ee906129c5565b801561093b5780601f106109105761010080835404028352916020019161093b565b820191906000526020600020905b81548152906001019060200180831161091e57829003601f168201915b50505050508152602001600182018054610954906129c5565b80601f0160208091040260200160405190810160405280929190818152602001828054610980906129c5565b80156109cd5780601f106109a2576101008083540402835291602001916109cd565b820191906000526020600020905b8154815290600101906020018083116109b057829003601f168201915b5050505050815250509050915091565b6009805480602002602001604051908101604052809291908181526020018280548015610a2957602002820191906000526020600020905b815481526020019060010190808311610a15575b5050505050604051806080016040528060438152602001612a5e604391396000805b8351811015610aa557610a8533858381518110610a7857634e487b7160e01b600052603260045260246000fd5b6020026020010151611cdb565b15610a935760019150610aa5565b80610a9d81612a00565b915050610a4b565b5081600182151514610ad35760405162461bcd60e51b8152600401610aca9190612758565b60405180910390fd5b5084600060018281548110610af857634e487b7160e01b600052603260045260246000fd5b90600052602060002090600402016003015411610b575760405162461bcd60e51b815260206004820152601c60248201527f7374617465206d616368696e6520646f6573206e6f74206578697374000000006044820152606401610aca565b60018681548110610b7857634e487b7160e01b600052603260045260246000fd5b9060005260206000209060040201600101546000610b9582610d74565b90506000805b8251811015610c0e576000356001600160e01b0319166001600160e01b031916838281518110610bdb57634e487b7160e01b600052603260045260246000fd5b60200260200101516001600160e01b0319161415610bfc5760019150610c0e565b80610c0681612a00565b915050610b9b565b5080610c6f5760405162461bcd60e51b815260206004820152602a60248201527f746869732066756e6374696f6e206973206e6f7420616c6c6f77656420696e206044820152697468697320737461746560b01b6064820152608401610aca565b87600b8a81548110610c9157634e487b7160e01b600052603260045260246000fd5b90600052602060002090600202016001019080519060200190610cb59291906121d9565b50505050505050505050565b606060068054610cd0906129c5565b80601f0160208091040260200160405190810160405280929190818152602001828054610cfc906129c5565b8015610d495780601f10610d1e57610100808354040283529160200191610d49565b820191906000526020600020905b815481529060010190602001808311610d2c57829003601f168201915b5050505050905090565b60078181548110610d6357600080fd5b600091825260209091200154905081565b60608067141491541054915160c21b831480610da057506d2827a92a2fa7a32fa7a924a3a4a760911b83145b80610db6575068494e5f52455649455760b81b83145b80610dcd575069494e434f4d504c45544560b01b83145b15610e355760408051600180825281830190925290602080830190803683370190505090506336423f5460e01b81600081518110610e1b57634e487b7160e01b600052603260045260246000fd5b6001600160e01b0319909216602092830291909101909101525b90505b919050565b8051610e509060029060208401906121d9565b5050565b60608067141491541054915160c21b831415610eca5760408051600180825281830190925290602080830190803683370190505090506d2827a92a2fa7a32fa7a924a3a4a760911b81600081518110610ebd57634e487b7160e01b600052603260045260246000fd5b6020026020010181815250505b6d2827a92a2fa7a32fa7a924a3a4a760911b831415610f3e57604080516001808252818301909252906020808301908036833701905050905068494e5f52455649455760b81b81600081518110610f3157634e487b7160e01b600052603260045260246000fd5b6020026020010181815250505b68494e5f52455649455760b81b831415610fe657604080516002808252606082018352909160208301908036833701905050905069494e434f4d504c45544560b01b81600081518110610fa157634e487b7160e01b600052603260045260246000fd5b6020026020010181815250506610d4915055115160ca1b81600181518110610fd957634e487b7160e01b600052603260045260246000fd5b6020026020010181815250505b69494e434f4d504c45544560b01b83141561109d5760408051600280825260608201835290916020830190803683370190505090506d2827a92a2fa7a32fa7a924a3a4a760911b8160008151811061104e57634e487b7160e01b600052603260045260246000fd5b60200260200101818152505070115610d154151253d397d1d49053951151607a1b8160018151811061109057634e487b7160e01b600052603260045260246000fd5b6020026020010181815250505b70115610d154151253d397d1d49053951151607a1b8314156111125760408051600180825281830190925290602080830190803683370190505090506610d4915055115160ca1b8160008151811061110557634e487b7160e01b600052603260045260246000fd5b6020026020010181815250505b6610d4915055115160ca1b8314156111815760408051600180825281830190925290602080830190803683370190505090506a125397d4d212541351539560aa1b8160008151811061117457634e487b7160e01b600052603260045260246000fd5b6020026020010181815250505b6a125397d4d212541351539560aa1b8314156111fc576040805160018082528183019092529060208083019080368337019050509050722827a92a2fa7a32fa222a9aa24a720aa24a7a760691b816000815181106111ef57634e487b7160e01b600052603260045260246000fd5b6020026020010181815250505b722827a92a2fa7a32fa222a9aa24a720aa24a7a760691b831415610e3557604080516001808252818301909252906020808301908036833701905050905067149150d15255915160c21b8160008151811061126757634e487b7160e01b600052603260045260246000fd5b602090810291909101015292915050565b60606008805480602002602001604051908101604052809291908181526020018280548015610d4957602002820191906000526020600020905b8154815260200190600101908083116112b2575050505050905090565b6060600c805480602002602001604051908101604052809291908181526020016000905b8282101561139f578382906000526020600020018054611312906129c5565b80601f016020809104026020016040519081016040528092919081815260200182805461133e906129c5565b801561138b5780601f106113605761010080835404028352916020019161138b565b820191906000526020600020905b81548152906001019060200180831161136e57829003601f168201915b5050505050815260200190600101906112f3565b50505050905090565b60606009805480602002602001604051908101604052809291908181526020018280548015610d4957602002820191906000526020600020908154815260200190600101908083116112b2575050505050905090565b7f5550444154455f55494649454c44444546494e4954494f4e535f524f4c4500006040518060600160405280602b8152602001612aa1602b91396114423383611cdb565b81906114615760405162461bcd60e51b8152600401610aca9190612758565b5082516114759060069060208601906121d9565b50505050565b60606007805480602002602001604051908101604052809291908181526020018280548015610d4957602002820191906000526020600020908154815260200190600101908083116112b2575050505050905090565b600280546114de906129c5565b80601f016020809104026020016040519081016040528092919081815260200182805461150a906129c5565b80156115575780601f1061152c57610100808354040283529160200191611557565b820191906000526020600020905b81548152906001019060200180831161153a57829003601f168201915b505050505081565b774352454154455f53544154454d414348494e455f524f4c4560401b604051806060016040528060258152602001612acc6025913961159e3383611cdb565b81906115bd5760405162461bcd60e51b8152600401610aca9190612758565b50600180548101808255600082815291906115d990829061295f565b815481106115f757634e487b7160e01b600052603260045260246000fd5b9060005260206000209060040201905061161967141491541054915160c21b90565b6001808301919091554260038301558054611634919061295f565b8155600b80546001908101808355600083815292916116529161295f565b8154811061167057634e487b7160e01b600052603260045260246000fd5b90600052602060002090600202019050848160010190805190602001906116989291906121d9565b50600b546116b1906116ac9060019061295f565b611d80565b80516116c49183916020909101906121d9565b50600c8054600190810180835560008390528392916116e29161295f565b8154811061170057634e487b7160e01b600052603260045260246000fd5b90600052602060002001908054611716906129c5565b61172192919061225d565b508154600a54604080519283523360208401526001600160a01b0390911682820152517f5af18be256ead9250457d4ebbad72f55686079a7164d379aa4b4f1d90a137a5b9181900360600190a15050505050565b60608067141491541054915160c21b83148061179b575067149150d15255915160c21b83145b806117b657506d2827a92a2fa7a32fa7a924a3a4a760911b83145b15611862576040805160028082526060820183529091602083019080368337019050509050692927a622afa0a226a4a760b11b8160008151811061180a57634e487b7160e01b600052603260045260246000fd5b602002602001018181525050752927a622afa32922a4a3a42a2fa327a92ba0a92222a960511b8160018151811061185157634e487b7160e01b600052603260045260246000fd5b602002602001018181525050610e35565b70115610d154151253d397d1d49053951151607a1b83141561190a576040805160028082526060820183529091602083019080368337019050509050692927a622afa0a226a4a760b11b816000815181106118cd57634e487b7160e01b600052603260045260246000fd5b6020026020010181815250506b2927a622afa1a0a82a20a4a760a11b8160018151811061185157634e487b7160e01b600052603260045260246000fd5b6040805160028082526060820183529091602083019080368337019050509050692927a622afa0a226a4a760b11b8160008151811061195957634e487b7160e01b600052603260045260246000fd5b6020026020010181815250506b2927a622afa1a0a92924a2a960a11b8160018151811061126757634e487b7160e01b600052603260045260246000fd5b60088181548110610d6357600080fd5b606060028054610cd0906129c5565b60008281526004602052604090205460ff16611a16576003805460018181019092557fc2575a0e9e593c00f959f8c92f12db2869c3395a3b0502d05e2516446f71f85b018390556000838152600460205260409020805460ff191690911790555b60008281526005602090815260409091208251611a35928401906121d9565b505050565b8181611a7860018381548110611a6057634e487b7160e01b600052603260045260246000fd5b90600052602060002090600402016001015482611dbb565b611ab75760405162461bcd60e51b815260206004820152601060248201526f696e76616c696420746f20737461746560801b6044820152606401610aca565b611ac081611e74565b611b0c5760405162461bcd60e51b815260206004820152601f60248201527f7472616e736974696f6e20746f207374617465206e6f7420616c6c6f776564006044820152606401610aca565b611b498260018481548110611b3157634e487b7160e01b600052603260045260246000fd5b90600052602060002090600402016001015483611eec565b600060018581548110611b6c57634e487b7160e01b600052603260045260246000fd5b6000918252602082206004919091020160018101805490879055909250906060905b8151811015611bdf57611bcd888489858581518110611bbd57634e487b7160e01b600052603260045260246000fd5b602002602001015163ffffffff16565b80611bd781612a00565b915050611b8e565b5060018781548110611c0157634e487b7160e01b600052603260045260246000fd5b6000918252602080832060408051608080820183528882528185018d81523383850181815242606080870191825260049a8b029098016002908101805460018082018355918e529c8b902097519c909b029096019a8b559251988a0198909855965192880180546001600160a01b0319166001600160a01b0390941693909317909255905160039096019590955580518c8152928301939093529181018590529081018890527fda0ea013b184628ef221c26d3ecdde1c5bbade441ed06a851b724a7ace03c274910160405180910390a150505050505050565b600080546001600160a01b03161580611d795750600054604051630dace25b60e31b81526001600160a01b0385811660048301523060248301526044820185905290911690636d6712d89060640160206040518083038186803b158015611d4157600080fd5b505afa158015611d55573d6000803e3d6000fd5b505050506040513d601f19601f82011682018060405250810190611d799190612374565b9392505050565b6060611d8b30611f39565b611d948361209c565b604051602001611da5929190612556565b6040516020818303038152906040529050919050565b600080611dc784610e54565b90506000915060005b8151811015611e6c5760408051602081018690520160405160208183030381529060405280519060200120828281518110611e1b57634e487b7160e01b600052603260045260246000fd5b6020026020010151604051602001611e3591815260200190565b604051602081830303815290604052805190602001201415611e5a5760019250611e6c565b80611e6481612a00565b915050611dd0565b505092915050565b600080611e8083611775565b905060009150805160001415611e9557600191505b60005b8151811015611ee557611ec533838381518110610a7857634e487b7160e01b600052603260045260246000fd5b15611ed35760019250611ee5565b80611edd81612a00565b915050611e98565b5050919050565b606060005b8151811015611f3257611f20858585858581518110611bbd57634e487b7160e01b600052603260045260246000fd5b80611f2a81612a00565b915050611ef1565b5050505050565b60408051602880825260608281019093526000919060208201818036833701905050905060005b6014811015612095576000611f7682601361295f565b611f81906008612917565b611f8c906002612849565b611f9f906001600160a01b0387166127cd565b60f81b9050600060108260f81c611fb691906127e1565b60f81b905060008160f81c6010611fcd9190612936565b8360f81c611fdb9190612976565b60f81b9050611fe982612199565b85611ff5866002612917565b8151811061201357634e487b7160e01b600052603260045260246000fd5b60200101906001600160f81b031916908160001a90535061203381612199565b8561203f866002612917565b61204a906001612790565b8151811061206857634e487b7160e01b600052603260045260246000fd5b60200101906001600160f81b031916908160001a905350505050808061208d90612a00565b915050611f60565b5092915050565b6060816120c157506040805180820190915260018152600360fc1b6020820152610e38565b8160005b81156120d957600101600a820491506120c5565b8360008267ffffffffffffffff81111561210357634e487b7160e01b600052604160045260246000fd5b6040519080825280601f01601f19166020018201604052801561212d576020820181803683370190505b50905060001983015b821561218f57600a830660300160f81b8282806001900393508151811061216d57634e487b7160e01b600052603260045260246000fd5b60200101906001600160f81b031916908160001a905350600a83049250612136565b5095945050505050565b6000600a60f883901c10156121c1576121b760f883901c60306127a8565b60f81b9050610e38565b6121d060f883901c60576127a8565b60f81b92915050565b8280546121e5906129c5565b90600052602060002090601f016020900481019282612207576000855561224d565b82601f1061222057805160ff191683800117855561224d565b8280016001018555821561224d579182015b8281111561224d578251825591602001919060010190612232565b506122599291506122d8565b5090565b828054612269906129c5565b90600052602060002090601f01602090048101928261228b576000855561224d565b82601f1061229c578054855561224d565b8280016001018555821561224d57600052602060002091601f016020900482015b8281111561224d5782548255916001019190600101906122bd565b5b8082111561225957600081556001016122d9565b600082601f8301126122fd578081fd5b813567ffffffffffffffff8082111561231857612318612a47565b604051601f8301601f19908116603f0116810190828211818310171561234057612340612a47565b81604052838152866020858801011115612358578485fd5b8360208701602083013792830160200193909352509392505050565b600060208284031215612385578081fd5b81518015158114611d79578182fd5b6000602082840312156123a5578081fd5b5035919050565b600080604083850312156123be578081fd5b82359150602083013567ffffffffffffffff8111156123db578182fd5b6123e7858286016122ed565b9150509250929050565b600060208284031215612402578081fd5b813567ffffffffffffffff811115612418578182fd5b612424848285016122ed565b949350505050565b6000806040838503121561243e578182fd5b50508035926020909101359150565b600080604083850312156123be578182fd5b60008151808452612477816020860160208601612999565b601f01601f19169290920160200192915050565b60008151604084526124a0604085018261245f565b9050602083015184820360208601526124b9828261245f565b95945050505050565b600060808084018351855260208085015181870152604080860151848289015283815180865260a08a01915084830195508792505b8083101561253c578551805183528581015186840152848101516001600160a01b031685840152606090810151908301529484019460019290920191908601906124f7565b50606088015160608a015280965050505050505092915050565b60007f6469643a64656d6f3a62696c6c6f666c6164696e673a307800000000000000008252835161258e816018850160208801612999565b601d60f91b60189184019182015283516125af816019840160208801612999565b01601901949350505050565b6020808252825182820181905260009190848201906040850190845b818110156125f3578351835292840192918401916001016125d7565b50909695505050505050565b6020808252825182820181905260009190848201906040850190845b818110156125f35783516001600160e01b0319168352928401929184019160010161261b565b6000602080830181845280855180835260408601915060408160051b8701019250838701855b8281101561269557603f1988860301845261268385835161245f565b94509285019290850190600101612667565b5092979650505050505050565b6000604082016040835280855180835260608501915060608160051b86010192506020808801855b838110156126f857605f198887030185526126e68683516124c2565b955093820193908201906001016126ca565b505085840381870152865180855281850193509150600582901b84018101878201865b8481101561274957601f1987840301865261273783835161248b565b9584019592509083019060010161271b565b50909998505050505050505050565b600060208252611d79602083018461245f565b60006040825261277e60408301856124c2565b82810360208401526124b9818561248b565b600082198211156127a3576127a3612a1b565b500190565b600060ff821660ff84168060ff038211156127c5576127c5612a1b565b019392505050565b6000826127dc576127dc612a31565b500490565b600060ff8316806127f4576127f4612a31565b8060ff84160491505092915050565b80825b60018086116128155750612840565b81870482111561282757612827612a1b565b8086161561283457918102915b9490941c938002612806565b94509492505050565b6000611d79600019848460008261286257506001611d79565b8161286f57506000611d79565b8160018114612885576002811461288f576128bc565b6001915050611d79565b60ff8411156128a0576128a0612a1b565b6001841b9150848211156128b6576128b6612a1b565b50611d79565b5060208310610133831016604e8410600b84101617156128ef575081810a838111156128ea576128ea612a1b565b611d79565b6128fc8484846001612803565b80860482111561290e5761290e612a1b565b02949350505050565b600081600019048311821515161561293157612931612a1b565b500290565b600060ff821660ff84168160ff048111821515161561295757612957612a1b565b029392505050565b60008282101561297157612971612a1b565b500390565b600060ff821660ff84168082101561299057612990612a1b565b90039392505050565b60005b838110156129b457818101518382015260200161299c565b838111156114755750506000910152565b600181811c908216806129d957607f821691505b602082108114156129fa57634e487b7160e01b600052602260045260246000fd5b50919050565b6000600019821415612a1457612a14612a1b565b5060010190565b634e487b7160e01b600052601160045260246000fd5b634e487b7160e01b600052601260045260246000fd5b634e487b7160e01b600052604160045260246000fdfe45646974207265717569726573206f6e65206f6620726f6c65733a20524f4c455f41444d494e2c20524f4c455f4346502c20524f4c455f4f422c20524f4c455f56444253656e646572206e65656473205550444154455f55494649454c44444546494e4954494f4e535f524f4c4553656e646572206e65656473204352454154455f53544154454d414348494e455f524f4c45a2646970667358221220e885cba3ae780020118cbe951d6dece55d5cb43c26e8d386b6da861354c129a464736f6c63430008030033",
  "immutableReferences": {},
  "source": "/**\n * Copyright (C) SettleMint NV - All Rights Reserved\n *\n * Use of this file is strictly prohibited without an active license agreement.\n * Distribution of this file, via any medium, is strictly prohibited.\n *\n * For license inquiries, contact hello@settlemint.com\n *\n * SPDX-License-Identifier: UNLICENSED\n */\n\npragma solidity ^0.8.0;\n\nimport '../_library//provenance/statemachine/FiniteStateMachine.sol';\nimport '../_library//authentication/Secured.sol';\nimport '../_library//utility/metadata/IpfsFieldContainer.sol';\nimport '../_library//utility/metadata/FileFieldContainer.sol';\nimport '../_library//utility/ui/UIFieldDefinitions.sol';\nimport '../_library//utility/conversions/Converter.sol';\n\n/**\n * @title BillOfLading Contract\n */\ncontract BillOfLading is FiniteStateMachine, IpfsFieldContainer, FileFieldContainer, UIFieldDefinitions {\n  bytes32 public constant UPGRADEABLE_REGISTRY_TARGET = 'UPGRADEABLE_REGISTRY_TARGET';\n  bytes32 public constant CREATE_STATEMACHINE_ROLE = 'CREATE_STATEMACHINE_ROLE';\n\n  /**\n   * @dev BillOfLading Events\n   */\n  event BillOfLadingCreated(uint256 fsmIndex, address owner, address registry);\n  event BillOfLadingSubmitted(address owner, address expense, uint256 amount);\n  event BillOfLadingSubmittedWithException(address owner, address expense, uint256 amount, string comment);\n  event BillOfLadingReviewed(address owner, address expense, uint256 amount);\n  event BillOfLadingNeedsUpdate(address owner, address expense, uint256 amount, string comment);\n  event BillOfLadingAccepted(address owner, address expense, uint256 amount);\n  event BillOfLadingRejected(address owner, address expense, uint256 amount, string comment);\n  event BillOfLadingForceApproved(address owner, address expense, uint256 amount, string comment);\n  event AmountChanged(address sender, uint256 fromAmount, uint256 toAmount);\n  event ProofChanged(address sender, string fromProof, string toProof);\n\n  /**\n   * @dev State Constants\n   */\n  bytes32 private constant STATE_PREPARED = 'PREPARED';\n  bytes32 private constant STATE_PORT_OF_ORIGIN = 'PORT_OF_ORIGIN';\n  bytes32 private constant STATE_IN_REVIEW = 'IN_REVIEW';\n  bytes32 private constant STATE_INCOMPLETE = 'INCOMPLETE';\n  bytes32 private constant STATE_EXCEPTION_GRANTED = 'EXCEPTION_GRANTED';\n  bytes32 private constant STATE_CREATED = 'CREATED';\n  bytes32 private constant STATE_IN_SHIPMENT = 'IN_SHIPMENT';\n  bytes32 private constant STATE_PORT_OF_DESTINATION = 'PORT_OF_DESTINATION';\n  bytes32 private constant STATE_RECEIVED = 'RECEIVED';\n\n  /**\n   * @dev Role Constants\n   */\n  bytes32 private constant ROLE_ADMIN = 'ROLE_ADMIN';\n  bytes32 private constant ROLE_CARRIER = 'ROLE_CARRIER';\n  bytes32 private constant ROLE_CAPTAIN = 'ROLE_CAPTAIN';\n  bytes32 private constant ROLE_FREIGHT_FORWARDER = 'ROLE_FREIGHT_FORWARDER';\n\n  /**\n   * @dev BillOfLading states\n   */\n  bytes32[] public _allStates = [\n    STATE_PREPARED,\n    STATE_PORT_OF_ORIGIN,\n    STATE_IN_REVIEW,\n    STATE_INCOMPLETE,\n    STATE_EXCEPTION_GRANTED,\n    STATE_CREATED,\n    STATE_IN_SHIPMENT,\n    STATE_PORT_OF_DESTINATION,\n    STATE_RECEIVED\n  ];\n\n  /**\n   * @dev BillOfLading roles\n   */\n  bytes32[] public _allRoles = [ROLE_ADMIN, ROLE_CAPTAIN, ROLE_CARRIER, ROLE_FREIGHT_FORWARDER];\n\n  /**\n   * @dev BillOfLading helper role collection\n   * specifies anyone who can edit an exponse\n   */\n  bytes32[] private _canEdit = [ROLE_ADMIN, ROLE_FREIGHT_FORWARDER];\n\n  /**\n   * The address of the upgradeable registry this contract belongs to.\n   * Note that both this property together with the UPGRADEABLE_REGISTRY_TARGET const define a contract\n   * that is part of an upgradeable registry and provides the link to the registry if required.\n   */\n  address public _upgradeableRegistry;\n\n  /**\n   * @dev StateMachineMeta contains meta data for every StateMachine - seeing as struct are not composable\n   * and the base StateMachine struct is defined in the FiniteStateMachine abstract there's no other\n   * way to compose structs than having two separte arrays where the indices match.\n   *\n   * @dev Mint is aware of the above and will zip these two into a single struct so statemachines\n   * from the outside will look as a composition of both StateMachine and StateMachineMeta structs.\n   */\n  StateMachineMeta[] internal _meta;\n\n  /**\n   * @dev The index is a collection of DIDs for every state machine in the registry\n   * Usually the getIndex call returns a list of contract addresses however as FSMs are\n   * uniquely identified by their DID we return those instead\n   */\n  string[] internal _index;\n\n  /**\n   * @dev Struct defining an BillOfLading\n   * @notice Gets decorated together with the StateMachine structs and forms the BillOfLading FSM\n   */\n  struct StateMachineMeta {\n    string DID;\n    string ipfsFieldContainerHash;\n  }\n\n  constructor(address gateKeeper, address registry) Secured(gateKeeper) {\n    require(registry != address(0x0), 'registry can not be zero');\n    _upgradeableRegistry = registry;\n  }\n\n  //////\n  // FSM Definition Functions\n  //////\n\n  /**\n   * @notice Returns initial state\n   */\n  function initialState() public pure override returns (bytes32) {\n    return STATE_PREPARED;\n  }\n\n  /**\n   * @notice Returns all possible states\n   */\n  function allStates() public view override returns (bytes32[] memory) {\n    return _allStates;\n  }\n\n  /**\n   * @notice Returns all possible roles\n   */\n  function allRoles() public view override returns (bytes32[] memory) {\n    return _allRoles;\n  }\n\n  /**\n   * @notice Retrieve all possible next states for a certain state\n   * @param state state\n   */\n  function getNextStatesForState(bytes32 state) public view override returns (bytes32[] memory test) {\n    bytes32[] memory states;\n\n    if (state == STATE_PREPARED) {\n      states = new bytes32[](1);\n      states[0] = STATE_PORT_OF_ORIGIN;\n    }\n\n    if (state == STATE_PORT_OF_ORIGIN) {\n      states = new bytes32[](1);\n      states[0] = STATE_IN_REVIEW;\n    }\n\n    if (state == STATE_IN_REVIEW) {\n      states = new bytes32[](2);\n      states[0] = STATE_INCOMPLETE;\n      states[1] = STATE_CREATED;\n    }\n\n    if (state == STATE_INCOMPLETE) {\n      states = new bytes32[](2);\n      states[0] = STATE_PORT_OF_ORIGIN;\n      states[1] = STATE_EXCEPTION_GRANTED;\n    }\n\n    if (state == STATE_EXCEPTION_GRANTED) {\n      states = new bytes32[](1);\n      states[0] = STATE_CREATED;\n    }\n\n    if (state == STATE_CREATED) {\n      states = new bytes32[](1);\n      states[0] = STATE_IN_SHIPMENT;\n    }\n\n    if (state == STATE_IN_SHIPMENT) {\n      states = new bytes32[](1);\n      states[0] = STATE_PORT_OF_DESTINATION;\n    }\n\n    if (state == STATE_PORT_OF_DESTINATION) {\n      states = new bytes32[](1);\n      states[0] = STATE_RECEIVED;\n    }\n\n    return states;\n  }\n\n  /**\n   * @notice Retrieve all roles that are allowed to move it to the given state\n   * @param state state\n   */\n  function getAllowedRolesForState(bytes32 state) public view override returns (bytes32[] memory) {\n    bytes32[] memory roles;\n\n    if (state == STATE_PREPARED || state == STATE_RECEIVED || state == STATE_PORT_OF_ORIGIN) {\n      roles = new bytes32[](2);\n      roles[0] = ROLE_ADMIN;\n      roles[1] = ROLE_FREIGHT_FORWARDER;\n    } else if (state == STATE_EXCEPTION_GRANTED) {\n      roles = new bytes32[](2);\n      roles[0] = ROLE_ADMIN;\n      roles[1] = ROLE_CAPTAIN;\n    } else {\n      roles = new bytes32[](2);\n      roles[0] = ROLE_ADMIN;\n      roles[1] = ROLE_CARRIER;\n    }\n\n    return roles;\n  }\n\n  /**\n   * @notice Returns method signatures for functions which are allowed to execute in the given state\n   * @param state state\n   */\n  function getAllowedFunctionsForState(bytes32 state) public view override returns (bytes4[] memory) {\n    bytes4[] memory functions;\n\n    if (\n      state == STATE_PREPARED || state == STATE_PORT_OF_ORIGIN || state == STATE_IN_REVIEW || state == STATE_INCOMPLETE\n    ) {\n      functions = new bytes4[](1);\n      functions[0] = this.edit.selector;\n    }\n\n    return functions;\n  }\n\n  /**\n   * @notice Returns method signatures for functions that act as preconditions that must be met in order to transition to the given state\n   * @param state state\n   */\n  function getPreconditionsForState(bytes32 state) public view override returns (bytes4[] memory) {}\n\n  /**\n   * @notice Returns method signatures for functions that will get called after transitioning to the given state\n   * @param state state\n   */\n  function getCallbacksForState(bytes32 state) public view override returns (bytes4[] memory) {}\n\n  /**\n   * @notice Returns method signatures for functions that need to be called before transitioning to the given state\n   * @param state state\n   */\n  function getPreFunctionForState(bytes32 state) public pure override returns (bytes4) {}\n\n  //////\n  // UI Field Definition Functions\n  //////\n\n  /**\n   * @notice Set the UI field definition hash\n   * @param uiFieldDefinitionsHash IPFS hash containing the UI field definitions JSON\n   */\n  function setUIFieldDefinitionsHash(string memory uiFieldDefinitionsHash)\n    public\n    override\n    authWithCustomReason(UPDATE_UIFIELDDEFINITIONS_ROLE, 'Sender needs UPDATE_UIFIELDDEFINITIONS_ROLE')\n  {\n    _uiFieldDefinitionsHash = uiFieldDefinitionsHash;\n  }\n\n  /**\n   * @notice Returns the UI field definition hash\n   */\n  function getUIFieldDefinitionsHash() public view override returns (string memory) {\n    return _uiFieldDefinitionsHash;\n  }\n\n  //////\n  // Factory Functions\n  //////\n\n  /**\n   * @notice Create a new statemachine\n   * @param ipfsFieldContainerHash IPFS hash of the metadata fields\n   */\n  function create(string memory ipfsFieldContainerHash)\n    public\n    authWithCustomReason(CREATE_STATEMACHINE_ROLE, 'Sender needs CREATE_STATEMACHINE_ROLE')\n  {\n    _registry.push();\n    StateMachine storage sm = _registry[_registry.length - 1];\n    sm.currentState = initialState();\n    sm.createdAt = block.timestamp;\n    sm.index = _registry.length - 1;\n\n    _meta.push();\n    StateMachineMeta storage meta = _meta[_meta.length - 1];\n    meta.ipfsFieldContainerHash = ipfsFieldContainerHash;\n    meta.DID = generateDID(_meta.length - 1);\n\n    _index.push();\n    _index[_index.length - 1] = meta.DID;\n\n    emit BillOfLadingCreated(sm.index, msg.sender, _upgradeableRegistry);\n  }\n\n  /**\n   * @notice Edit an existing statemachine\n   * @param fsmIndex registry index of the statemachine struct\n   * @param ipfsFieldContainerHash IPFS hash of the metadata fields\n   */\n  function edit(uint256 fsmIndex, string memory ipfsFieldContainerHash)\n    public\n    authManyWithCustomReason(_canEdit, 'Edit requires one of roles: ROLE_ADMIN, ROLE_CFP, ROLE_OB, ROLE_VDB')\n    doesStateMachineExists(fsmIndex)\n    checkAllowedFunction(_registry[fsmIndex].currentState)\n  {\n    _meta[fsmIndex].ipfsFieldContainerHash = ipfsFieldContainerHash;\n  }\n\n  function canEdit() public view returns (bytes32[] memory) {\n    return _canEdit;\n  }\n\n  //////\n  // Syncable Functions\n  //////\n\n  /**\n   * @notice Returns the structs composing a statemachine for given index\n   * @param fsmIndex state machine index\n   */\n  function getByIndex(uint256 fsmIndex) public view returns (StateMachine memory item, StateMachineMeta memory meta) {\n    item = _registry[fsmIndex];\n    meta = _meta[fsmIndex];\n  }\n\n  /**\n   * @notice Returns all state machines structs in a single fetch\n   */\n  function getContents() public view returns (StateMachine[] memory registry, StateMachineMeta[] memory meta) {\n    registry = _registry;\n    meta = _meta;\n  }\n\n  /**\n   * @notice Returns the (DID) index\n   */\n  function getIndex() public view returns (string[] memory index) {\n    return _index;\n  }\n\n  //////\n  // BillOfLading Functions\n  //////\n\n  /**\n   * @notice Returns the preconditions for given state\n   * @param state state\n   * @dev Internal helper function that returns actual function pointers so a method can\n   * loop those and effectively call the precondition function\n   */\n  function getPreconditionFunctionsForState(bytes32 state)\n    internal\n    view\n    override\n    returns (function(uint256, bytes32, bytes32) view[] memory)\n  {}\n\n  /**\n   * @notice Returns the callbacks for given state\n   * @param state state\n   * @dev Internal helper function that returns actual function pointers so a method can\n   * loop those and effectively call the callback function\n   */\n  function getCallbackFunctionsForState(bytes32 state)\n    internal\n    override\n    returns (function(uint256, bytes32, bytes32) internal[] memory)\n  {}\n\n  //////\n  // Helper Functions\n  //////\n\n  /**\n   * @notice Generate state machine DID\n   * @param fsmIndex state machine index\n   */\n  function generateDID(uint256 fsmIndex) internal view returns (string memory) {\n    return\n      string(abi.encodePacked('did:demo:billoflading:0x', addressToString(address(this)), ':', uintToString(fsmIndex)));\n  }\n}\n",
  "sourcePath": "/home/coder/project/contracts/billoflading/BillOfLading.sol",
  "compiler": {
    "name": "solc",
    "version": "0.8.3+commit.8d00100c.Emscripten.clang"
  },
  "schemaVersion": "3.4.1",
  "updatedAt": "2021-07-13T12:53:56.547Z",
  "devdoc": {
    "events": {
      "BillOfLadingCreated(uint256,address,address)": {
        "details": "BillOfLading Events"
      }
    },
    "kind": "dev",
    "methods": {
      "create(string)": {
        "params": {
          "ipfsFieldContainerHash": "IPFS hash of the metadata fields"
        }
      },
      "edit(uint256,string)": {
        "params": {
          "fsmIndex": "registry index of the statemachine struct",
          "ipfsFieldContainerHash": "IPFS hash of the metadata fields"
        }
      },
      "getAllowedFunctionsForState(bytes32)": {
        "params": {
          "state": "state"
        }
      },
      "getAllowedRolesForState(bytes32)": {
        "params": {
          "state": "state"
        }
      },
      "getByIndex(uint256)": {
        "params": {
          "fsmIndex": "state machine index"
        }
      },
      "getCallbacksForState(bytes32)": {
        "params": {
          "state": "state"
        }
      },
      "getIndexLength()": {
        "details": "Returns the length of the state machine registry",
        "returns": {
          "length": "the number of state machines in the registry"
        }
      },
      "getNextStatesForState(bytes32)": {
        "params": {
          "state": "state"
        }
      },
      "getPreFunctionForState(bytes32)": {
        "params": {
          "state": "state"
        }
      },
      "getPreconditionsForState(bytes32)": {
        "params": {
          "state": "state"
        }
      },
      "setUIFieldDefinitionsHash(string)": {
        "params": {
          "uiFieldDefinitionsHash": "IPFS hash containing the UI field definitions JSON"
        }
      },
      "transitionState(uint256,bytes32)": {
        "details": "Ensures predefined transition criteria are met before transitioning to a new state. Executes callbacks. Emits a Transition event after a successful transition.",
        "params": {
          "fsmIndex": "registry index of the transitioning state machine",
          "toState": "identifier of the state to transition to"
        }
      }
    },
    "stateVariables": {
      "ROLE_ADMIN": {
        "details": "Role Constants"
      },
      "STATE_PREPARED": {
        "details": "State Constants"
      },
      "_allRoles": {
        "details": "BillOfLading roles"
      },
      "_allStates": {
        "details": "BillOfLading states"
      },
      "_canEdit": {
        "details": "BillOfLading helper role collection specifies anyone who can edit an exponse"
      },
      "_index": {
        "details": "The index is a collection of DIDs for every state machine in the registry Usually the getIndex call returns a list of contract addresses however as FSMs are uniquely identified by their DID we return those instead"
      },
      "_meta": {
        "details": "StateMachineMeta contains meta data for every StateMachine - seeing as struct are not composable and the base StateMachine struct is defined in the FiniteStateMachine abstract there's no other way to compose structs than having two separte arrays where the indices match.Mint is aware of the above and will zip these two into a single struct so statemachines from the outside will look as a composition of both StateMachine and StateMachineMeta structs."
      }
    },
    "title": "BillOfLading Contract",
    "version": 1
  },
  "userdoc": {
    "kind": "user",
    "methods": {
      "_upgradeableRegistry()": {
        "notice": "The address of the upgradeable registry this contract belongs to. Note that both this property together with the UPGRADEABLE_REGISTRY_TARGET const define a contract that is part of an upgradeable registry and provides the link to the registry if required."
      },
      "allRoles()": {
        "notice": "Returns all possible roles"
      },
      "allStates()": {
        "notice": "Returns all possible states"
      },
      "create(string)": {
        "notice": "Create a new statemachine"
      },
      "edit(uint256,string)": {
        "notice": "Edit an existing statemachine"
      },
      "getAllowedFunctionsForState(bytes32)": {
        "notice": "Returns method signatures for functions which are allowed to execute in the given state"
      },
      "getAllowedRolesForState(bytes32)": {
        "notice": "Retrieve all roles that are allowed to move it to the given state"
      },
      "getByIndex(uint256)": {
        "notice": "Returns the structs composing a statemachine for given index"
      },
      "getCallbacksForState(bytes32)": {
        "notice": "Returns method signatures for functions that will get called after transitioning to the given state"
      },
      "getContents()": {
        "notice": "Returns all state machines structs in a single fetch"
      },
      "getIndex()": {
        "notice": "Returns the (DID) index"
      },
      "getIndexLength()": {
        "notice": "Returns the length of the state machine registry"
      },
      "getNextStatesForState(bytes32)": {
        "notice": "Retrieve all possible next states for a certain state"
      },
      "getPreFunctionForState(bytes32)": {
        "notice": "Returns method signatures for functions that need to be called before transitioning to the given state"
      },
      "getPreconditionsForState(bytes32)": {
        "notice": "Returns method signatures for functions that act as preconditions that must be met in order to transition to the given state"
      },
      "getUIFieldDefinitionsHash()": {
        "notice": "Returns the UI field definition hash"
      },
      "initialState()": {
        "notice": "Returns initial state"
      },
      "setUIFieldDefinitionsHash(string)": {
        "notice": "Set the UI field definition hash"
      },
      "transitionState(uint256,bytes32)": {
        "notice": "Transitions a state machine to a new state"
      }
    },
    "version": 1
  }
}