{
  "contractName": "Bond",
  "abi": [
    {
      "inputs": [
        {
          "internalType": "string",
          "name": "name",
          "type": "string"
        },
        {
          "internalType": "uint256",
          "name": "parValue",
          "type": "uint256"
        },
        {
          "internalType": "contract Currency",
          "name": "parCurrency",
          "type": "address"
        },
        {
          "internalType": "uint256",
          "name": "maturityPeriod",
          "type": "uint256"
        },
        {
          "internalType": "uint256",
          "name": "couponRate",
          "type": "uint256"
        },
        {
          "internalType": "uint256",
          "name": "couponPeriod",
          "type": "uint256"
        },
        {
          "internalType": "uint8",
          "name": "decimals",
          "type": "uint8"
        },
        {
          "internalType": "contract GateKeeper",
          "name": "gateKeeper",
          "type": "address"
        },
        {
          "internalType": "string",
          "name": "ipfsFieldContainerHash",
          "type": "string"
        },
        {
          "internalType": "string",
          "name": "uiFieldDefinitionsHash",
          "type": "string"
        }
      ],
      "stateMutability": "nonpayable",
      "type": "constructor"
    },
    {
      "anonymous": false,
      "inputs": [
        {
          "indexed": true,
          "internalType": "address",
          "name": "owner",
          "type": "address"
        },
        {
          "indexed": true,
          "internalType": "address",
          "name": "spender",
          "type": "address"
        },
        {
          "indexed": false,
          "internalType": "uint256",
          "name": "value",
          "type": "uint256"
        }
      ],
      "name": "Approval",
      "type": "event"
    },
    {
      "anonymous": false,
      "inputs": [
        {
          "indexed": true,
          "internalType": "address",
          "name": "from",
          "type": "address"
        },
        {
          "indexed": false,
          "internalType": "uint256",
          "name": "amount",
          "type": "uint256"
        }
      ],
      "name": "Burn",
      "type": "event"
    },
    {
      "anonymous": false,
      "inputs": [
        {
          "indexed": true,
          "internalType": "address",
          "name": "to",
          "type": "address"
        },
        {
          "indexed": false,
          "internalType": "uint256",
          "name": "amount",
          "type": "uint256"
        }
      ],
      "name": "Mint",
      "type": "event"
    },
    {
      "anonymous": false,
      "inputs": [
        {
          "indexed": true,
          "internalType": "address",
          "name": "from",
          "type": "address"
        },
        {
          "indexed": true,
          "internalType": "address",
          "name": "to",
          "type": "address"
        },
        {
          "indexed": false,
          "internalType": "uint256",
          "name": "value",
          "type": "uint256"
        }
      ],
      "name": "Transfer",
      "type": "event"
    },
    {
      "anonymous": false,
      "inputs": [
        {
          "indexed": true,
          "internalType": "address",
          "name": "from",
          "type": "address"
        },
        {
          "indexed": true,
          "internalType": "address",
          "name": "to",
          "type": "address"
        },
        {
          "indexed": false,
          "internalType": "bytes",
          "name": "data",
          "type": "bytes"
        }
      ],
      "name": "TransferData",
      "type": "event"
    },
    {
      "inputs": [],
      "name": "BURN_ROLE",
      "outputs": [
        {
          "internalType": "bytes32",
          "name": "",
          "type": "bytes32"
        }
      ],
      "stateMutability": "view",
      "type": "function"
    },
    {
      "inputs": [],
      "name": "EDIT_ROLE",
      "outputs": [
        {
          "internalType": "bytes32",
          "name": "",
          "type": "bytes32"
        }
      ],
      "stateMutability": "view",
      "type": "function"
    },
    {
      "inputs": [],
      "name": "MINT_ROLE",
      "outputs": [
        {
          "internalType": "bytes32",
          "name": "",
          "type": "bytes32"
        }
      ],
      "stateMutability": "view",
      "type": "function"
    },
    {
      "inputs": [],
      "name": "UPDATE_IPFSCONTAINERHASH_ROLE",
      "outputs": [
        {
          "internalType": "bytes32",
          "name": "",
          "type": "bytes32"
        }
      ],
      "stateMutability": "view",
      "type": "function"
    },
    {
      "inputs": [
        {
          "internalType": "uint256",
          "name": "",
          "type": "uint256"
        }
      ],
      "name": "_couponDates",
      "outputs": [
        {
          "internalType": "uint256",
          "name": "",
          "type": "uint256"
        }
      ],
      "stateMutability": "view",
      "type": "function"
    },
    {
      "inputs": [],
      "name": "_couponPeriod",
      "outputs": [
        {
          "internalType": "uint256",
          "name": "",
          "type": "uint256"
        }
      ],
      "stateMutability": "view",
      "type": "function"
    },
    {
      "inputs": [],
      "name": "_couponRate",
      "outputs": [
        {
          "internalType": "uint256",
          "name": "",
          "type": "uint256"
        }
      ],
      "stateMutability": "view",
      "type": "function"
    },
    {
      "inputs": [
        {
          "internalType": "uint256",
          "name": "",
          "type": "uint256"
        }
      ],
      "name": "_coupons",
      "outputs": [
        {
          "internalType": "bool",
          "name": "inititated",
          "type": "bool"
        },
        {
          "internalType": "uint256",
          "name": "totalCouponAmount",
          "type": "uint256"
        },
        {
          "internalType": "uint256",
          "name": "redeemedCouponAmount",
          "type": "uint256"
        }
      ],
      "stateMutability": "view",
      "type": "function"
    },
    {
      "inputs": [],
      "name": "_decimals",
      "outputs": [
        {
          "internalType": "uint8",
          "name": "",
          "type": "uint8"
        }
      ],
      "stateMutability": "view",
      "type": "function"
    },
    {
      "inputs": [],
      "name": "_ipfsFieldContainerHash",
      "outputs": [
        {
          "internalType": "string",
          "name": "",
          "type": "string"
        }
      ],
      "stateMutability": "view",
      "type": "function"
    },
    {
      "inputs": [],
      "name": "_issuanceDate",
      "outputs": [
        {
          "internalType": "uint256",
          "name": "",
          "type": "uint256"
        }
      ],
      "stateMutability": "view",
      "type": "function"
    },
    {
      "inputs": [],
      "name": "_launchDate",
      "outputs": [
        {
          "internalType": "uint256",
          "name": "",
          "type": "uint256"
        }
      ],
      "stateMutability": "view",
      "type": "function"
    },
    {
      "inputs": [],
      "name": "_maturityDate",
      "outputs": [
        {
          "internalType": "uint256",
          "name": "",
          "type": "uint256"
        }
      ],
      "stateMutability": "view",
      "type": "function"
    },
    {
      "inputs": [],
      "name": "_maturityPeriod",
      "outputs": [
        {
          "internalType": "uint256",
          "name": "",
          "type": "uint256"
        }
      ],
      "stateMutability": "view",
      "type": "function"
    },
    {
      "inputs": [],
      "name": "_name",
      "outputs": [
        {
          "internalType": "string",
          "name": "",
          "type": "string"
        }
      ],
      "stateMutability": "view",
      "type": "function"
    },
    {
      "inputs": [],
      "name": "_parCurrency",
      "outputs": [
        {
          "internalType": "contract Currency",
          "name": "",
          "type": "address"
        }
      ],
      "stateMutability": "view",
      "type": "function"
    },
    {
      "inputs": [],
      "name": "_parValue",
      "outputs": [
        {
          "internalType": "uint256",
          "name": "",
          "type": "uint256"
        }
      ],
      "stateMutability": "view",
      "type": "function"
    },
    {
      "inputs": [],
      "name": "_uiFieldDefinitionsHash",
      "outputs": [
        {
          "internalType": "string",
          "name": "",
          "type": "string"
        }
      ],
      "stateMutability": "view",
      "type": "function"
    },
    {
      "inputs": [
        {
          "internalType": "address",
          "name": "owner",
          "type": "address"
        },
        {
          "internalType": "address",
          "name": "spender",
          "type": "address"
        }
      ],
      "name": "allowance",
      "outputs": [
        {
          "internalType": "uint256",
          "name": "remaining",
          "type": "uint256"
        }
      ],
      "stateMutability": "view",
      "type": "function"
    },
    {
      "inputs": [
        {
          "internalType": "address",
          "name": "spender",
          "type": "address"
        },
        {
          "internalType": "uint256",
          "name": "value",
          "type": "uint256"
        }
      ],
      "name": "approve",
      "outputs": [
        {
          "internalType": "bool",
          "name": "",
          "type": "bool"
        }
      ],
      "stateMutability": "nonpayable",
      "type": "function"
    },
    {
      "inputs": [
        {
          "internalType": "address",
          "name": "spender",
          "type": "address"
        },
        {
          "internalType": "uint256",
          "name": "value",
          "type": "uint256"
        },
        {
          "internalType": "bytes",
          "name": "data",
          "type": "bytes"
        }
      ],
      "name": "approveAndCall",
      "outputs": [
        {
          "internalType": "bool",
          "name": "success",
          "type": "bool"
        }
      ],
      "stateMutability": "nonpayable",
      "type": "function"
    },
    {
      "inputs": [
        {
          "internalType": "address",
          "name": "owner",
          "type": "address"
        }
      ],
      "name": "balanceOf",
      "outputs": [
        {
          "internalType": "uint256",
          "name": "balance",
          "type": "uint256"
        }
      ],
      "stateMutability": "view",
      "type": "function"
    },
    {
      "inputs": [
        {
          "internalType": "address",
          "name": "roleRegistryAddress",
          "type": "address"
        },
        {
          "internalType": "uint256",
          "name": "amount",
          "type": "uint256"
        }
      ],
      "name": "burnFromRoleRegistry",
      "outputs": [
        {
          "internalType": "bool",
          "name": "success",
          "type": "bool"
        }
      ],
      "stateMutability": "nonpayable",
      "type": "function"
    },
    {
      "inputs": [
        {
          "internalType": "address",
          "name": "spender",
          "type": "address"
        },
        {
          "internalType": "uint256",
          "name": "subtractedValue",
          "type": "uint256"
        }
      ],
      "name": "decreaseApproval",
      "outputs": [
        {
          "internalType": "bool",
          "name": "success",
          "type": "bool"
        }
      ],
      "stateMutability": "nonpayable",
      "type": "function"
    },
    {
      "inputs": [],
      "name": "gateKeeper",
      "outputs": [
        {
          "internalType": "contract GateKeeper",
          "name": "",
          "type": "address"
        }
      ],
      "stateMutability": "view",
      "type": "function"
    },
    {
      "inputs": [],
      "name": "getIpfsFieldContainerHash",
      "outputs": [
        {
          "internalType": "string",
          "name": "",
          "type": "string"
        }
      ],
      "stateMutability": "view",
      "type": "function"
    },
    {
      "inputs": [
        {
          "internalType": "address",
          "name": "spender",
          "type": "address"
        },
        {
          "internalType": "uint256",
          "name": "addedValue",
          "type": "uint256"
        }
      ],
      "name": "increaseApproval",
      "outputs": [
        {
          "internalType": "bool",
          "name": "success",
          "type": "bool"
        }
      ],
      "stateMutability": "nonpayable",
      "type": "function"
    },
    {
      "inputs": [
        {
          "internalType": "address",
          "name": "roleRegistryAddress",
          "type": "address"
        },
        {
          "internalType": "uint256",
          "name": "amount",
          "type": "uint256"
        }
      ],
      "name": "mintToRoleRegistry",
      "outputs": [
        {
          "internalType": "bool",
          "name": "success",
          "type": "bool"
        }
      ],
      "stateMutability": "nonpayable",
      "type": "function"
    },
    {
      "inputs": [
        {
          "internalType": "string",
          "name": "ipfsHash",
          "type": "string"
        }
      ],
      "name": "setIpfsFieldContainerHash",
      "outputs": [],
      "stateMutability": "nonpayable",
      "type": "function"
    },
    {
      "inputs": [],
      "name": "totalSupply",
      "outputs": [
        {
          "internalType": "uint256",
          "name": "",
          "type": "uint256"
        }
      ],
      "stateMutability": "view",
      "type": "function"
    },
    {
      "inputs": [
        {
          "internalType": "address",
          "name": "from",
          "type": "address"
        },
        {
          "internalType": "address",
          "name": "to",
          "type": "address"
        },
        {
          "internalType": "uint256",
          "name": "value",
          "type": "uint256"
        }
      ],
      "name": "transferFrom",
      "outputs": [
        {
          "internalType": "bool",
          "name": "success",
          "type": "bool"
        }
      ],
      "stateMutability": "nonpayable",
      "type": "function"
    },
    {
      "inputs": [
        {
          "internalType": "address",
          "name": "from",
          "type": "address"
        },
        {
          "internalType": "address",
          "name": "to",
          "type": "address"
        },
        {
          "internalType": "uint256",
          "name": "value",
          "type": "uint256"
        },
        {
          "internalType": "bytes",
          "name": "data",
          "type": "bytes"
        }
      ],
      "name": "transferFromWithData",
      "outputs": [
        {
          "internalType": "bool",
          "name": "success",
          "type": "bool"
        }
      ],
      "stateMutability": "nonpayable",
      "type": "function"
    },
    {
      "inputs": [
        {
          "internalType": "address",
          "name": "to",
          "type": "address"
        },
        {
          "internalType": "uint256",
          "name": "value",
          "type": "uint256"
        },
        {
          "internalType": "bytes",
          "name": "data",
          "type": "bytes"
        }
      ],
      "name": "transferWithData",
      "outputs": [
        {
          "internalType": "bool",
          "name": "success",
          "type": "bool"
        }
      ],
      "stateMutability": "nonpayable",
      "type": "function"
    },
    {
      "inputs": [
        {
          "internalType": "bytes",
          "name": "fieldName",
          "type": "bytes"
        }
      ],
      "name": "getDecimalsFor",
      "outputs": [
        {
          "internalType": "uint256",
          "name": "",
          "type": "uint256"
        }
      ],
      "stateMutability": "view",
      "type": "function"
    },
    {
      "inputs": [
        {
          "internalType": "string",
          "name": "name",
          "type": "string"
        },
        {
          "internalType": "uint256",
          "name": "parValue",
          "type": "uint256"
        },
        {
          "internalType": "contract Currency",
          "name": "parCurrency",
          "type": "address"
        },
        {
          "internalType": "uint256",
          "name": "maturityPeriod",
          "type": "uint256"
        },
        {
          "internalType": "uint256",
          "name": "couponRate",
          "type": "uint256"
        },
        {
          "internalType": "uint256",
          "name": "couponPeriod",
          "type": "uint256"
        },
        {
          "internalType": "uint8",
          "name": "decimals",
          "type": "uint8"
        },
        {
          "internalType": "string",
          "name": "ipfsFieldContainerHash",
          "type": "string"
        }
      ],
      "name": "edit",
      "outputs": [],
      "stateMutability": "nonpayable",
      "type": "function"
    },
    {
      "inputs": [
        {
          "internalType": "uint256",
          "name": "issuanceDate",
          "type": "uint256"
        }
      ],
      "name": "setIssuanceDate",
      "outputs": [],
      "stateMutability": "nonpayable",
      "type": "function"
    },
    {
      "inputs": [
        {
          "internalType": "uint256",
          "name": "launchDate",
          "type": "uint256"
        }
      ],
      "name": "launch",
      "outputs": [],
      "stateMutability": "nonpayable",
      "type": "function"
    },
    {
      "inputs": [],
      "name": "updateCoupons",
      "outputs": [],
      "stateMutability": "nonpayable",
      "type": "function"
    },
    {
      "inputs": [
        {
          "internalType": "address",
          "name": "holder",
          "type": "address"
        }
      ],
      "name": "redeemCoupons",
      "outputs": [],
      "stateMutability": "nonpayable",
      "type": "function"
    },
    {
      "inputs": [
        {
          "internalType": "address",
          "name": "holder",
          "type": "address"
        }
      ],
      "name": "claimPar",
      "outputs": [],
      "stateMutability": "nonpayable",
      "type": "function"
    },
    {
      "inputs": [],
      "name": "coupons",
      "outputs": [
        {
          "components": [
            {
              "internalType": "bool",
              "name": "inititated",
              "type": "bool"
            },
            {
              "internalType": "uint256",
              "name": "totalCouponAmount",
              "type": "uint256"
            },
            {
              "internalType": "uint256",
              "name": "redeemedCouponAmount",
              "type": "uint256"
            },
            {
              "internalType": "address[]",
              "name": "holdersAtCouponDate",
              "type": "address[]"
            },
            {
              "internalType": "uint256[]",
              "name": "amountsAtCouponDate",
              "type": "uint256[]"
            }
          ],
          "internalType": "struct Bond.Coupon[]",
          "name": "",
          "type": "tuple[]"
        }
      ],
      "stateMutability": "view",
      "type": "function"
    },
    {
      "inputs": [],
      "name": "couponDates",
      "outputs": [
        {
          "internalType": "uint256[]",
          "name": "",
          "type": "uint256[]"
        }
      ],
      "stateMutability": "view",
      "type": "function"
    },
    {
      "inputs": [
        {
          "internalType": "address",
          "name": "to",
          "type": "address"
        },
        {
          "internalType": "uint256",
          "name": "amount",
          "type": "uint256"
        }
      ],
      "name": "mint",
      "outputs": [
        {
          "internalType": "bool",
          "name": "success",
          "type": "bool"
        }
      ],
      "stateMutability": "nonpayable",
      "type": "function"
    },
    {
      "inputs": [
        {
          "internalType": "address",
          "name": "from",
          "type": "address"
        },
        {
          "internalType": "uint256",
          "name": "amount",
          "type": "uint256"
        }
      ],
      "name": "burn",
      "outputs": [
        {
          "internalType": "bool",
          "name": "success",
          "type": "bool"
        }
      ],
      "stateMutability": "nonpayable",
      "type": "function"
    },
    {
      "inputs": [
        {
          "internalType": "address",
          "name": "to",
          "type": "address"
        },
        {
          "internalType": "uint256",
          "name": "value",
          "type": "uint256"
        }
      ],
      "name": "transfer",
      "outputs": [
        {
          "internalType": "bool",
          "name": "success",
          "type": "bool"
        }
      ],
      "stateMutability": "nonpayable",
      "type": "function"
    },
    {
      "inputs": [],
      "name": "getIndexLength",
      "outputs": [
        {
          "internalType": "uint256",
          "name": "length",
          "type": "uint256"
        }
      ],
      "stateMutability": "view",
      "type": "function"
    },
    {
      "inputs": [
        {
          "internalType": "uint256",
          "name": "index",
          "type": "uint256"
        }
      ],
      "name": "getByIndex",
      "outputs": [
        {
          "internalType": "address",
          "name": "holder",
          "type": "address"
        },
        {
          "internalType": "uint256",
          "name": "balance",
          "type": "uint256"
        }
      ],
      "stateMutability": "view",
      "type": "function"
    },
    {
      "inputs": [
        {
          "internalType": "address",
          "name": "key",
          "type": "address"
        }
      ],
      "name": "getByKey",
      "outputs": [
        {
          "internalType": "address",
          "name": "holder",
          "type": "address"
        },
        {
          "internalType": "uint256",
          "name": "balance",
          "type": "uint256"
        }
      ],
      "stateMutability": "view",
      "type": "function"
    }
  ],
  "bytecode": "0x60806040526224ea006013553480156200001857600080fd5b50604051620037c6380380620037c68339810160408190526200003b91620003e6565b600080546001600160a01b0319166001600160a01b03851617905589518a90859085908490849084908490620000799060029060208601906200025e565b50506003805460ff191660ff92909216919091179055508051620000a59060089060208401906200025e565b505050505086858689620000ba9190620004f8565b620000c6919062000519565b146200013e5760405162461bcd60e51b815260206004820152603f60248201527f546865206d6174757269747920706572696f64206e6565647320746f2062652060448201527f61206d756c7469706c65206f662074686520636f75706f6e20706572696f6400606482015260840160405180910390fd5b8951620001539060029060208d01906200025e565b506009899055600a80546001600160a01b0319166001600160a01b038a16908117909155604080516332424aa360e01b815290516332424aa391600480820192602092909190829003018186803b158015620001ae57600080fd5b505afa158015620001c3573d6000803e3d6000fd5b505050506040513d601f19601f82011682018060405250810190620001e99190620004d4565b60ff16601455600c879055600d869055600f8590556200020b600686620004f8565b60105560646200021d600288620004f8565b62000229908b62000519565b620002359190620004f8565b600e5581516200024d9060019060208501906200025e565b505050505050505050505062000598565b8280546200026c9062000545565b90600052602060002090601f016020900481019282620002905760008555620002db565b82601f10620002ab57805160ff1916838001178555620002db565b82800160010185558215620002db579182015b82811115620002db578251825591602001919060010190620002be565b50620002e9929150620002ed565b5090565b5b80821115620002e95760008155600101620002ee565b80516001600160a01b03811681146200031c57600080fd5b919050565b600082601f83011262000332578081fd5b81516001600160401b03808211156200034f576200034f62000582565b604051601f8301601f19908116603f011681019082821181831017156200037a576200037a62000582565b8160405283815260209250868385880101111562000396578485fd5b8491505b83821015620003b957858201830151818301840152908201906200039a565b83821115620003ca57848385830101525b9695505050505050565b805160ff811681146200031c57600080fd5b6000806000806000806000806000806101408b8d03121562000406578586fd5b8a516001600160401b03808211156200041d578788fd5b6200042b8e838f0162000321565b9b5060208d01519a506200044260408e0162000304565b995060608d0151985060808d0151975060a08d015196506200046760c08e01620003d4565b95506200047760e08e0162000304565b94506101008d01519150808211156200048e578384fd5b6200049c8e838f0162000321565b93506101208d0151915080821115620004b3578283fd5b50620004c28d828e0162000321565b9150509295989b9194979a5092959850565b600060208284031215620004e6578081fd5b620004f182620003d4565b9392505050565b6000826200051457634e487b7160e01b81526012600452602481fd5b500490565b60008160001904831182151516156200054057634e487b7160e01b81526011600452602481fd5b500290565b600181811c908216806200055a57607f821691505b602082108114156200057c57634e487b7160e01b600052602260045260246000fd5b50919050565b634e487b7160e01b600052604160045260246000fd5b61321e80620005a86000396000f3fe608060405234801561001057600080fd5b506004361061029f5760003560e01c80639993995411610167578063d4e9d5ab116100ce578063e1ba7d0111610087578063e1ba7d0114610630578063e9a9c85014610638578063ee532f311461064b578063ef120a6e1461065e578063fcbb590714610666578063ff88e4d61461068d5761029f565b8063d4e9d5ab146105a2578063d73dd623146105ab578063d8eab9a5146105be578063dcb82f81146105d1578063dd62ed3e146105e4578063de97d3421461061d5761029f565b8063b930908f11610120578063b930908f14610544578063c0e53d3c14610557578063c704b4341461055f578063c72ed1b614610572578063cae9ca5114610587578063d28d88521461059a5761029f565b806399939954146104c95780639b241b44146104dc5780639dc29fac146104e5578063a9059cbb146104f8578063ac1d0ddc1461050b578063b78ebbd7146105145761029f565b806345d61ded1161020b578063557bbf2c116101c4578063557bbf2c1461045657806356c57bd11461045f578063661884631461047257806370a082311461048557806385b12c7c146104ae578063910fd10a146104c15761029f565b806345d61ded146103dc578063473d06aa146103ef57806349877038146103f85780634c16f0f9146104235780634de6740e1461043857806350843cd01461044d5761029f565b80632535f7621161025d5780632535f762146103495780632d883a731461035c578063309040881461038e57806332424aa31461039757806340c10f19146103b657806342822756146103c95761029f565b8062051a44146102a4578063095ea7b3146102d4578063124dbff8146102f757806318160ddd1461030c5780631bd42f3e1461032357806323b872dd14610336575b600080fd5b600a546102b7906001600160a01b031681565b6040516001600160a01b0390911681526020015b60405180910390f35b6102e76102e2366004612ac6565b6106a0565b60405190151581526020016102cb565b6102ff61070c565b6040516102cb9190612d5c565b61031560075481565b6040519081526020016102cb565b6102e7610331366004612ac6565b610840565b6102e76103443660046129e8565b6109f3565b6102e7610357366004612af1565b610c53565b61036f61036a366004612c4e565b610ce0565b604080516001600160a01b0390931683526020830191909152016102cb565b610315600d5481565b6003546103a49060ff1681565b60405160ff90911681526020016102cb565b6102e76103c4366004612ac6565b610d6f565b6103156103d7366004612b62565b610d83565b6000546102b7906001600160a01b031681565b610315600c5481565b61036f610406366004612994565b6001600160a01b0381166000908152600460205260409020549091565b610436610431366004612994565b610dca565b005b610440611161565b6040516102cb9190612e43565b61031560115481565b61031560125481565b61043661046d366004612b62565b6111ef565b6102e7610480366004612ac6565b611261565b610315610493366004612994565b6001600160a01b031660009081526004602052604090205490565b6104366104bc366004612c4e565b611349565b610440611423565b61031568454449545f524f4c4560b81b81565b61031560095481565b6102e76104f3366004612ac6565b611430565b6102e7610506366004612ac6565b611444565b610315600b5481565b610527610522366004612c4e565b611458565b6040805193151584526020840192909252908201526060016102cb565b610315684255524e5f524f4c4560b81b81565b61043661148f565b61031561056d366004612c4e565b61161e565b61057a61163f565b6040516102cb9190612e30565b6102e7610595366004612af1565b611697565b61044061175b565b610315600f5481565b6102e76105b9366004612ac6565b611768565b6104366105cc366004612c4e565b6117f9565b6102e76105df366004612ac6565b61184a565b6103156105f23660046129b0565b6001600160a01b03918216600090815260066020908152604080832093909416825291909152205490565b61043661062b366004612b9d565b6119e6565b600554610315565b610315684d494e545f524f4c4560b81b81565b6102e7610659366004612a28565b611cfc565b610440611d9d565b6103157f5550444154455f49504653434f4e5441494e4552484153485f524f4c4500000081565b61043661069b366004612994565b611e26565b3360008181526006602090815260408083206001600160a01b038716808552925280832085905551919290917f8c5be1e5ebec7d5bd14f71427d1e84f3dd0314c0f7b2291e5b200ac8c7c3b925906106fb9086815260200190565b60405180910390a350600192915050565b60606015805480602002602001604051908101604052809291908181526020016000905b828210156108375760008481526020908190206040805160a08101825260058602909201805460ff1615158352600181015483850152600281015483830152600381018054835181870281018701909452808452939491936060860193928301828280156107c757602002820191906000526020600020905b81546001600160a01b031681526001909101906020018083116107a9575b505050505081526020016004820180548060200260200160405190810160405280929190818152602001828054801561081f57602002820191906000526020600020905b81548152602001906001019080831161080b575b50505050508152505081526020019060010190610730565b50505050905090565b6000684255524e5f524f4c4560b81b6040518060400160405280601a81526020017f53656e646572206e6565647320746865204255524e5f524f4c4500000000000081525061088f3383612158565b81906108b75760405162461bcd60e51b81526004016108ae9190612e43565b60405180910390fd5b5060008590506000816001600160a01b031663e1ba7d016040518163ffffffff1660e01b815260040160206040518083038186803b1580156108f857600080fd5b505afa15801561090c573d6000803e3d6000fd5b505050506040513d601f19601f820116820180604052508101906109309190612c66565b905060005b818110156109e557604051632d883a7360e01b81526004810182905260009081906001600160a01b03861690632d883a7390602401604080518083038186803b15801561098157600080fd5b505afa158015610995573d6000803e3d6000fd5b505050506040513d601f19601f820116820180604052508101906109b99190612a92565b909250905080156109d0576109ce828a611430565b505b505080806109dd90613109565b915050610935565b506001979650505050505050565b60006001600160a01b038316610a435760405162461bcd60e51b81526020600482015260156024820152741d1bc81cda1bdd5b19081b9bdd081899481b9d5b1b605a1b60448201526064016108ae565b6001600160a01b038416600090815260046020526040902054821115610a7b5760405162461bcd60e51b81526004016108ae90612ea7565b6001600160a01b0384166000908152600660209081526040808320338452909152902054821115610afa5760405162461bcd60e51b815260206004820152602360248201527f76616c75652073686f756c64206265206c657373207468616e20616c6c6f77616044820152626e636560e81b60648201526084016108ae565b6001600160a01b038316600090815260046020526040902060010154610b79576001600160a01b0383166000818152600460205260408120426001918201556005805491820181559091527f036b6384b5eca791c62761152d0c79bb0604c104a5fb6f4eb0703f3154bb3db00180546001600160a01b03191690911790555b6001600160a01b03841660009081526004602052604081208054849290610ba19084906130b7565b90915550506001600160a01b03831660009081526004602052604081208054849290610bce908490612f58565b90915550506001600160a01b038416600090815260066020908152604080832033845290915281208054849290610c069084906130b7565b92505081905550826001600160a01b0316846001600160a01b03166000805160206131c983398151915284604051610c4091815260200190565b60405180910390a35060015b9392505050565b6000610c5f8484611444565b610c9d5760405162461bcd60e51b815260206004820152600f60248201526e1d1c985b9cd9995c8819985a5b1959608a1b60448201526064016108ae565b836001600160a01b0316336001600160a01b03167f69cf42fddae119b7568ebaa1f70aac657fd6abd62d00c2ab4fcf81ff87935ab384604051610c409190612e43565b60008060058381548110610d0457634e487b7160e01b600052603260045260246000fd5b6000918252602082200154600580546001600160a01b0390921694506004929186908110610d4257634e487b7160e01b600052603260045260246000fd5b60009182526020808320909101546001600160a01b03168352820192909252604001902054919391925050565b6000610d7961148f565b610c4c83836121f6565b60007fa8a285229a638ac33328a5b9c7eecfbf4da4677cfd7f86413448ce0575367e0482805190602001201415610dbd5750601454610dc5565b5060035460ff165b919050565b610dd261148f565b60005b60165481101561115d57600060168281548110610e0257634e487b7160e01b600052603260045260246000fd5b906000526020600020015490504281101561114a57600060158381548110610e3a57634e487b7160e01b600052603260045260246000fd5b90600052602060002090600502019050600081600101549050816002015481610e6391906130b7565b600a546040516370a0823160e01b81523060048201526001600160a01b03909116906370a082319060240160206040518083038186803b158015610ea657600080fd5b505afa158015610eba573d6000803e3d6000fd5b505050506040513d601f19601f82011682018060405250810190610ede9190612c66565b1015610f6e5760405162461bcd60e51b815260206004820152605360248201527f546865726520617265206e6f7420656e6f7567682066756e647320696e20746860448201527f652063757272656e63792061737369676e656420746f207468697320626f6e6460648201527220746f20706179206f757420636f75706f6e7360681b608482015260a4016108ae565b60005b600383015481101561114657856001600160a01b0316836003018281548110610faa57634e487b7160e01b600052603260045260246000fd5b6000918252602090912001546001600160a01b03161415611134576000836004018281548110610fea57634e487b7160e01b600052603260045260246000fd5b90600052602060002001549050600081116110475760405162461bcd60e51b815260206004820152601960248201527f4e6f20636f75706f6e2076616c756520746f2072656465656d0000000000000060448201526064016108ae565b8084600201546110579190612f58565b8460020181905550600084600401838154811061108457634e487b7160e01b600052603260045260246000fd5b600091825260209091200155600a5460405163a9059cbb60e01b81526001600160a01b038981166004830152602482018490529091169063a9059cbb90604401602060405180830381600087803b1580156110de57600080fd5b505af11580156110f2573d6000803e3d6000fd5b505050506040513d601f19601f820116820180604052508101906111169190612b48565b6111325760405162461bcd60e51b81526004016108ae90612e56565b505b8061113e81613109565b915050610f71565b5050505b508061115581613109565b915050610dd5565b5050565b6008805461116e906130ce565b80601f016020809104026020016040519081016040528092919081815260200182805461119a906130ce565b80156111e75780601f106111bc576101008083540402835291602001916111e7565b820191906000526020600020905b8154815290600101906020018083116111ca57829003601f168201915b505050505081565b7f5550444154455f49504653434f4e5441494e4552484153485f524f4c450000006040518060600160405280602a815260200161319f602a91396112333383612158565b81906112525760405162461bcd60e51b81526004016108ae9190612e43565b5061125c836123a0565b505050565b3360009081526006602090815260408083206001600160a01b0386168452909152812054808311156112b6573360009081526006602090815260408083206001600160a01b03881684529091528120556112e5565b6112c083826130b7565b3360009081526006602090815260408083206001600160a01b03891684529091529020555b3360008181526006602090815260408083206001600160a01b038916808552908352928190205490519081529192917f8c5be1e5ebec7d5bd14f71427d1e84f3dd0314c0f7b2291e5b200ac8c7c3b925910160405180910390a35060019392505050565b601154156113995760405162461bcd60e51b815260206004820152601d60248201527f5468697320626f6e6420697320616c7265616479206c61756e6368656400000060448201526064016108ae565b600b5460115411156114135760405162461bcd60e51b815260206004820152603960248201527f4120626f6e642063616e206f6e6c79206265206c61756e63686564206166746560448201527f72206f72206f6e207468652069737375616e636520646174650000000000000060648201526084016108ae565b60118190556114206123b3565b50565b6001805461116e906130ce565b600061143a61148f565b610c4c83836124cb565b600061144e61148f565b610c4c83836126ad565b6015818154811061146857600080fd5b600091825260209091206005909102018054600182015460029092015460ff909116925083565b60005b601654811015611420576000601682815481106114bf57634e487b7160e01b600052603260045260246000fd5b906000526020600020015490506000601583815481106114ef57634e487b7160e01b600052603260045260246000fd5b9060005260206000209060050201905042821080156115105750805460ff16155b1561160957805460ff1916600117815560058054611532916003840191612824565b5060005b600554811015611607576000600460006005848154811061156757634e487b7160e01b600052603260045260246000fd5b60009182526020808320909101546001600160a01b03168352820192909252604001812054601054600e5460145492945090916115a590600a612fca565b6115af9085612f70565b6115b99190613098565b6115c39190613098565b90508084600101546115d59190612f58565b6001808601919091556004850180549182018155600090815260209020015550806115ff81613109565b915050611536565b505b5050808061161690613109565b915050611492565b6016818154811061162e57600080fd5b600091825260209091200154905081565b6060601680548060200260200160405190810160405280929190818152602001828054801561168d57602002820191906000526020600020905b815481526020019060010190808311611679575b5050505050905090565b60006116a384846106a0565b6116fb5760405162461bcd60e51b8152602060048201526024808201527f436f756c64206e6f7420617070726f766520616d6f756e7420666f7220737065604482015263373232b960e11b60648201526084016108ae565b604051638f4ffcb160e01b81526001600160a01b03851690638f4ffcb19061172d903390879030908890600401612d1f565b600060405180830381600087803b15801561174757600080fd5b505af11580156109e5573d6000803e3d6000fd5b6002805461116e906130ce565b3360009081526006602090815260408083206001600160a01b038616845290915281208054839190839061179d908490612f58565b90915550503360008181526006602090815260408083206001600160a01b038816808552908352928190205490519081529192917f8c5be1e5ebec7d5bd14f71427d1e84f3dd0314c0f7b2291e5b200ac8c7c3b92591016106fb565b6011541580611809575060115442105b6118255760405162461bcd60e51b81526004016108ae90612ee8565b600b819055601354600c5461183a9190613098565b6118449082612f58565b60125550565b6000684d494e545f524f4c4560b81b6040518060400160405280601b81526020017f53656e646572206e6565647320746865204d494e545f5f524f4c4500000000008152506118993383612158565b81906118b85760405162461bcd60e51b81526004016108ae9190612e43565b5060008590506000816001600160a01b031663e1ba7d016040518163ffffffff1660e01b815260040160206040518083038186803b1580156118f957600080fd5b505afa15801561190d573d6000803e3d6000fd5b505050506040513d601f19601f820116820180604052508101906119319190612c66565b905060005b818110156109e557604051632d883a7360e01b81526004810182905260009081906001600160a01b03861690632d883a7390602401604080518083038186803b15801561198257600080fd5b505afa158015611996573d6000803e3d6000fd5b505050506040513d601f19601f820116820180604052508101906119ba9190612a92565b909250905080156119d1576119cf828a610d6f565b505b505080806119de90613109565b915050611936565b68454449545f524f4c4560b81b6119fd3382612158565b611a575760405162461bcd60e51b815260206004820152602560248201527f53656e64657220646f6573206e6f7420686176652074686520636f727265637460448201526420726f6c6560d81b60648201526084016108ae565b6011541580611a67575060115442105b611a835760405162461bcd60e51b81526004016108ae90612ee8565b611a8e600687613124565b158015611aa35750611aa1600685613124565b155b611b235760405162461bcd60e51b815260206004820152604560248201527f546865206d6174757269747920616e6420636f75706f6e20706572696f64206e60448201527f6565647320746f2062652061206d756c7469706c65206f66207468652036206d6064820152646f6e74687360d81b608482015260a4016108ae565b83861015611bad5760405162461bcd60e51b815260206004820152604b60248201527f546865206d61747572697479506572696f6420706572696f64206e656564732060448201527f746f206265206174206c65617374206173206c6f6e672061732074686520636f60648201526a1d5c1bdb881c195c9a5bd960aa1b608482015260a4016108ae565b8851611bc09060029060208c0190612874565b506009889055600a80546001600160a01b0319166001600160a01b038916908117909155604080516332424aa360e01b815290516332424aa391600480820192602092909190829003018186803b158015611c1a57600080fd5b505afa158015611c2e573d6000803e3d6000fd5b505050506040513d601f19601f82011682018060405250810190611c529190612c7e565b60ff16601455600c869055600d859055600f849055611c72600685612f70565b601055601454611c8390600a612fca565b611c8e600287612f70565b611c98908a613098565b611ca29190612f70565b600e556003805460ff191660ff85161790558151611cc7906001906020850190612874565b50600b5415611cf157601354600c54611ce09190613098565b600b54611ced9190612f58565b6012555b505050505050505050565b6000611d098585856109f3565b611d475760405162461bcd60e51b815260206004820152600f60248201526e1d1c985b9cd9995c8819985a5b1959608a1b60448201526064016108ae565b836001600160a01b0316856001600160a01b03167f69cf42fddae119b7568ebaa1f70aac657fd6abd62d00c2ab4fcf81ff87935ab384604051611d8a9190612e43565b60405180910390a3506001949350505050565b606060018054611dac906130ce565b80601f0160208091040260200160405190810160405280929190818152602001828054611dd8906130ce565b801561168d5780601f10611dfa5761010080835404028352916020019161168d565b820191906000526020600020905b815481529060010190602001808311611e0857509395945050505050565b611e2e61148f565b426012541015611eb45760405162461bcd60e51b8152602060048201526044602482018190527f546865207061722076616c75652063616e206f6e6c7920626520636c61696d65908201527f6420616674657220746865206d617475726974792064617465206861732070616064820152631cdcd95960e21b608482015260a4016108ae565b601454611ec290600a612fca565b600954611ecf9190612f70565b600754611edc9190613098565b600a546040516370a0823160e01b81523060048201526001600160a01b03909116906370a082319060240160206040518083038186803b158015611f1f57600080fd5b505afa158015611f33573d6000803e3d6000fd5b505050506040513d601f19601f82011682018060405250810190611f579190612c66565b1015611ff15760405162461bcd60e51b815260206004820152605a60248201527f546865726520617265206e6f7420656e6f7567682066756e647320696e20746860448201527f652063757272656e63792061737369676e656420746f207468697320626f6e6460648201527f20746f20706179206f757420616c6c207061722076616c756573000000000000608482015260a4016108ae565b611ffa81610dca565b600a80546014546001600160a01b039091169163a9059cbb91849161201f9190612fca565b6009546001600160a01b0386166000908152600460205260409020546120459190613098565b61204f9190612f70565b6040516001600160e01b031960e085901b1681526001600160a01b0390921660048301526024820152604401602060405180830381600087803b15801561209557600080fd5b505af11580156120a9573d6000803e3d6000fd5b505050506040513d601f19601f820116820180604052508101906120cd9190612b48565b6120e95760405162461bcd60e51b81526004016108ae90612e56565b61210c816104f3836001600160a01b031660009081526004602052604090205490565b6114205760405162461bcd60e51b815260206004820152601e60248201527f4275726e696e672074686520626f6e6420746f6b656e73206661696c6564000060448201526064016108ae565b600080546001600160a01b03161580610c4c5750600054604051630dace25b60e31b81526001600160a01b0385811660048301523060248301526044820185905290911690636d6712d89060640160206040518083038186803b1580156121be57600080fd5b505afa1580156121d2573d6000803e3d6000fd5b505050506040513d601f19601f82011682018060405250810190610c4c9190612b48565b6000684d494e545f524f4c4560b81b6040518060400160405280601b81526020017f53656e646572206e6565647320746865204d494e545f5f524f4c4500000000008152506122453383612158565b81906122645760405162461bcd60e51b81526004016108ae9190612e43565b506001600160a01b0385166000908152600460205260409020600101546122e4576001600160a01b0385166000818152600460205260408120426001918201556005805491820181559091527f036b6384b5eca791c62761152d0c79bb0604c104a5fb6f4eb0703f3154bb3db00180546001600160a01b03191690911790555b83600760008282546122f69190612f58565b90915550506001600160a01b03851660009081526004602052604081208054869290612323908490612f58565b90915550506040518481526001600160a01b038616907f0f6798a560793a54c3bcfe86a93cde1e73087d944c0ea20544137d41213968859060200160405180910390a26040518481526001600160a01b038616906000906000805160206131c98339815191529060200160405180910390a3506001949350505050565b805161115d906001906020840190612874565b601554156124335760405162461bcd60e51b815260206004820152604160248201527f436f75706f6e732061726520616c726561647920696e697469616c697a65642c60448201527f2072652d696e697469616c697a6174696f6e206973206e6f7420616c6c6f77656064820152601960fa1b608482015260a4016108ae565b6000600f54600c546124459190612f70565b905060015b81811161115d576000600f546013546124639190613098565b61246d9083613098565b600b5461247a9190612f58565b6016805460018181019092557fd833147d7dc355ba459fc788f669e58cfaf9dc25ddcd0702e87d69c7b5124289019190915560158054909101815560005250806124c381613109565b91505061244a565b6000684255524e5f524f4c4560b81b6040518060400160405280601a81526020017f53656e646572206e6565647320746865204255524e5f524f4c4500000000000081525061251a3383612158565b81906125395760405162461bcd60e51b81526004016108ae9190612e43565b506000841161258a5760405162461bcd60e51b815260206004820152601e60248201527f616d6f756e742073686f756c6420626520626967676572207468616e2030000060448201526064016108ae565b6001600160a01b0385166000908152600460205260409020548411156125fd5760405162461bcd60e51b815260206004820152602260248201527f616d6f756e742073686f756c64206265206c657373207468616e2062616c616e604482015261636560f01b60648201526084016108ae565b6001600160a01b038516600090815260046020526040812080548692906126259084906130b7565b92505081905550836007600082825461263e91906130b7565b90915550506040518481526001600160a01b038616907fcc16f5dbb4873280815c1ee09dbd06736cffcc184412cf7a71a0fdb75d397ca59060200160405180910390a26040518481526000906001600160a01b038716906000805160206131c983398151915290602001611d8a565b60006001600160a01b0383166126fa5760405162461bcd60e51b81526020600482015260126024820152710746f2073686f756c64206e6f7420626520360741b60448201526064016108ae565b336000908152600460205260409020548211156127295760405162461bcd60e51b81526004016108ae90612ea7565b6001600160a01b0383166000908152600460205260409020600101546127a8576001600160a01b0383166000818152600460205260408120426001918201556005805491820181559091527f036b6384b5eca791c62761152d0c79bb0604c104a5fb6f4eb0703f3154bb3db00180546001600160a01b03191690911790555b33600090815260046020526040812080548492906127c79084906130b7565b90915550506001600160a01b038316600090815260046020526040812080548492906127f4908490612f58565b90915550506040518281526001600160a01b0384169033906000805160206131c9833981519152906020016106fb565b8280548282559060005260206000209081019282156128645760005260206000209182015b82811115612864578254825591600101919060010190612849565b506128709291506128e8565b5090565b828054612880906130ce565b90600052602060002090601f0160209004810192826128a25760008555612864565b82601f106128bb57805160ff1916838001178555612864565b82800160010185558215612864579182015b828111156128645782518255916020019190600101906128cd565b5b8082111561287057600081556001016128e9565b80518015158114610dc557600080fd5b600082601f83011261291d578081fd5b813567ffffffffffffffff8082111561293857612938613164565b604051601f8301601f19908116603f0116810190828211818310171561296057612960613164565b81604052838152866020858801011115612978578485fd5b8360208701602083013792830160200193909352509392505050565b6000602082840312156129a5578081fd5b8135610c4c8161317a565b600080604083850312156129c2578081fd5b82356129cd8161317a565b915060208301356129dd8161317a565b809150509250929050565b6000806000606084860312156129fc578081fd5b8335612a078161317a565b92506020840135612a178161317a565b929592945050506040919091013590565b60008060008060808587031215612a3d578081fd5b8435612a488161317a565b93506020850135612a588161317a565b925060408501359150606085013567ffffffffffffffff811115612a7a578182fd5b612a868782880161290d565b91505092959194509250565b60008060408385031215612aa4578182fd5b8251612aaf8161317a565b9150612abd602084016128fd565b90509250929050565b60008060408385031215612ad8578182fd5b8235612ae38161317a565b946020939093013593505050565b600080600060608486031215612b05578283fd5b8335612b108161317a565b925060208401359150604084013567ffffffffffffffff811115612b32578182fd5b612b3e8682870161290d565b9150509250925092565b600060208284031215612b59578081fd5b610c4c826128fd565b600060208284031215612b73578081fd5b813567ffffffffffffffff811115612b89578182fd5b612b958482850161290d565b949350505050565b600080600080600080600080610100898b031215612bb9578384fd5b883567ffffffffffffffff80821115612bd0578586fd5b612bdc8c838d0161290d565b995060208b0135985060408b01359150612bf58261317a565b90965060608a0135955060808a0135945060a08a0135935060c08a013590612c1c8261318f565b90925060e08a01359080821115612c31578283fd5b50612c3e8b828c0161290d565b9150509295985092959890939650565b600060208284031215612c5f578081fd5b5035919050565b600060208284031215612c77578081fd5b5051919050565b600060208284031215612c8f578081fd5b8151610c4c8161318f565b6000815180845260208085019450808401835b83811015612cc957815187529582019590820190600101612cad565b509495945050505050565b60008151808452815b81811015612cf957602081850181015186830182015201612cdd565b81811115612d0a5782602083870101525b50601f01601f19169290920160200192915050565b6001600160a01b0385811682526020820185905283166040820152608060608201819052600090612d5290830184612cd4565b9695505050505050565b60006020808301818452808551808352604092508286019150828160051b870101848801865b83811015612e2257888303603f1901855281518051151584528781015188850152868101518785015260608082015160a0918601829052805191860182905260c0860191908a01908b5b81811015612df15782516001600160a01b03168452928b0192918b0191600101612dcc565b50505060808083015192508582038187015250612e0e8183612c9a565b968901969450505090860190600101612d82565b509098975050505050505050565b600060208252610c4c6020830184612c9a565b600060208252610c4c6020830184612cd4565b60208082526031908201527f5472616e73666572206f6620746865207061722063757272656e637920746f206040820152701d1a19481a1bdb19195c8819985a5b1959607a1b606082015260800190565b60208082526021908201527f76616c75652073686f756c64206265206c657373207468616e2062616c616e636040820152606560f81b606082015260800190565b6020808252604a908201527f497420697320666f7262696464656e20746f2065646974206120626f6e64206160408201527f6674657220697420686173206265656e206c61756e6368656420746f2074686560608201526920696e766573746f727360b01b608082015260a00190565b60008219821115612f6b57612f6b613138565b500190565b600082612f7f57612f7f61314e565b500490565b80825b6001808611612f965750612fc1565b818704821115612fa857612fa8613138565b80861615612fb557918102915b9490941c938002612f87565b94509492505050565b6000610c4c6000198484600082612fe357506001610c4c565b81612ff057506000610c4c565b816001811461300657600281146130105761303d565b6001915050610c4c565b60ff84111561302157613021613138565b6001841b91508482111561303757613037613138565b50610c4c565b5060208310610133831016604e8410600b8410161715613070575081810a8381111561306b5761306b613138565b610c4c565b61307d8484846001612f84565b80860482111561308f5761308f613138565b02949350505050565b60008160001904831182151516156130b2576130b2613138565b500290565b6000828210156130c9576130c9613138565b500390565b600181811c908216806130e257607f821691505b6020821081141561310357634e487b7160e01b600052602260045260246000fd5b50919050565b600060001982141561311d5761311d613138565b5060010190565b6000826131335761313361314e565b500690565b634e487b7160e01b600052601160045260246000fd5b634e487b7160e01b600052601260045260246000fd5b634e487b7160e01b600052604160045260246000fd5b6001600160a01b038116811461142057600080fd5b60ff8116811461142057600080fdfe53656e646572206e65656473205550444154455f49504653434f4e5441494e4552484153485f524f4c45ddf252ad1be2c89b69c2b068fc378daa952ba7f163c4a11628f55a4df523b3efa2646970667358221220574cd27b9bedfdaacce5101bd6c5f730d96f2137e6ce245b00abb50f1b93e8c864736f6c63430008030033",
  "immutableReferences": {},
  "source": "/**\n * Copyright (C) SettleMint NV - All Rights Reserved\n *\n * Use of this file is strictly prohibited without an active license agreement.\n * Distribution of this file, via any medium, is strictly prohibited.\n *\n * For license inquiries, contact hello@settlemint.com\n *\n * SPDX-License-Identifier: UNLICENSED\n */\n\npragma solidity ^0.8.0;\n\nimport '../currency/Currency.sol';\nimport '../_library//tokens/ERC20/ERC20Token.sol';\n\n/**\n * IPFS Fields\n * - isin             ISIN are unique serial numbers for all bond offerings issued by the ISIN organization. ISIN is\n *                    a global catalogue of bonds and other securities.\n * - issuer           Issuer is the entity that is raising capital in the primary debt market.\n */\n\n/**\n * @title Bond\n * @notice A bond is a debt security that corporations and governments use to raise capital. It provides an investor\n *         the means to loan money to an issuer for a defined period of time. In return, the investor will receive variable\n *         or fixed interest payments periodically throughout the loaning period.\n */\ncontract Bond is ERC20Token {\n  bytes32 public constant EDIT_ROLE = 'EDIT_ROLE';\n\n  uint256 public _parValue;\n  Currency public _parCurrency;\n  uint256 public _issuanceDate;\n  uint256 public _maturityPeriod;\n  uint256 public _couponRate;\n  uint256 private _couponAmountPerBondPerSixMonths;\n  uint256 public _couponPeriod;\n  uint256 private _numSixMonthsPerCoupon;\n  uint256 public _launchDate;\n  uint256 public _maturityDate;\n  uint256 private month = 4 * 7 * 24 * 3600;\n  uint256 private parDecimals;\n\n  struct Coupon {\n    bool inititated;\n    uint256 totalCouponAmount;\n    uint256 redeemedCouponAmount;\n    address[] holdersAtCouponDate; // the list of addresses that held the bond at this coupon date\n    uint256[] amountsAtCouponDate;\n  }\n\n  Coupon[] public _coupons;\n  uint256[] public _couponDates;\n\n  /**\n   * @notice Creates a new bond\n   *\n   * @param name             A clear name of for the bond for humans.\n   * @param parValue         The principal amount is the amount paid out to the holder of the bond at its maturity date.\n   *                         It is also known as the par value. The principal amount is the reference amount used to\n   *                         calculate interest payments. (amount * 10^decimals of the currency)\n   * @param parCurrency      The currency of the par value\n   * @param maturityPeriod   The maturity period is an amount of months after the issuance date when the bond matures and the\n   *                         bond issuer must pay the principal amount to bondholders. (number of months after the issuance date)\n   * @param couponRate       The coupon rate is the annual rate of interest (expressed as a percentage) the bond issuer\n   *                         pays out to bondholders on the principal amount of the bond at each coupon payment date. Coupon\n   *                         payments compensate investors for the risk of loaning capital to the issuer. (percentage * 100)\n   * @param couponPeriod     The coupon period is the frequency that the bond issuer will make coupon payments to bondholders.\n   *                         Typically, this is either semi-annual or annual. (number of months between coupons)\n   * @param decimals         The granularity into which a single bond can be tokenized.\n   * @param gateKeeper       The gatekeeper is the smart contract which handles the permissions on this bond.\n   * @param ipfsFieldContainerHash The IPFS hash to all the fields that are not on chain.\n   * @param uiFieldDefinitionsHash The IPFS hash to the field definitions for the UI\n   */\n  constructor(\n    string memory name,\n    uint256 parValue,\n    Currency parCurrency,\n    uint256 maturityPeriod,\n    uint256 couponRate,\n    uint256 couponPeriod,\n    uint8 decimals,\n    GateKeeper gateKeeper,\n    string memory ipfsFieldContainerHash,\n    string memory uiFieldDefinitionsHash\n  ) ERC20Token(name, decimals, address(gateKeeper), uiFieldDefinitionsHash) {\n    require(\n      (maturityPeriod / couponPeriod) * couponPeriod == maturityPeriod,\n      'The maturity period needs to be a multiple of the coupon period'\n    );\n    _name = name;\n    _parValue = parValue;\n    _parCurrency = parCurrency;\n    parDecimals = _parCurrency._decimals();\n    _maturityPeriod = maturityPeriod;\n    _couponRate = couponRate;\n    _couponPeriod = couponPeriod;\n    _numSixMonthsPerCoupon = couponPeriod / 6;\n    _couponAmountPerBondPerSixMonths = (parValue * (couponRate / 2)) / 100;\n    _ipfsFieldContainerHash = ipfsFieldContainerHash;\n  }\n\n  function getDecimalsFor(bytes memory fieldName) public view override returns (uint256) {\n    if (keccak256(fieldName) == keccak256('parValue')) {\n      return parDecimals;\n    } else {\n      return _decimals;\n    }\n  }\n\n  /**\n   * @notice Updates most of the settings of a bond if the bond has not launched yet and the user had the EDIT_ROLE.\n   *\n   * @param name             A clear name of for the bond for humans.\n   * @param parValue         The principal amount is the amount paid out to the holder of the bond at its maturity date.\n   *                         It is also known as the par value. The principal amount is the reference amount used to\n   *                         calculate interest payments. (amount * 10^decimals of the currency)\n   * @param parCurrency      The currency of the par value\n   * @param maturityPeriod   The maturity period is an amount of months after the issuance date when the bond matures and the\n   *                         bond issuer must pay the principal amount to bondholders. (number of months after the issuance date)\n   * @param couponRate       The coupon rate is the annual rate of interest (expressed as a percentage) the bond issuer\n   *                         pays out to bondholders on the principal amount of the bond at each coupon payment date. Coupon\n   *                         payments compensate investors for the risk of loaning capital to the issuer. (percentage * 100)\n   * @param couponPeriod     The coupon period is the frequency that the bond issuer will make coupon payments to bondholders.\n   *                         Typically, this is either semi-annual or annual. (number of months between coupons)\n   * @param decimals         The granularity into which a single bond can be tokenized.\n   * @param ipfsFieldContainerHash The IPFS hash to all the fields that are not on chain.\n   */\n  function edit(\n    string memory name,\n    uint256 parValue,\n    Currency parCurrency,\n    uint256 maturityPeriod,\n    uint256 couponRate,\n    uint256 couponPeriod,\n    uint8 decimals,\n    string memory ipfsFieldContainerHash\n  ) public auth(EDIT_ROLE) {\n    require(\n      _launchDate == 0 || block.timestamp < _launchDate,\n      'It is forbidden to edit a bond after it has been launched to the investors'\n    );\n    require(\n      maturityPeriod % 6 == 0 && couponPeriod % 6 == 0,\n      'The maturity and coupon period needs to be a multiple of the 6 months'\n    );\n    require(\n      maturityPeriod >= couponPeriod,\n      'The maturityPeriod period needs to be at least as long as the coupon period'\n    );\n\n    _name = name;\n    _parValue = parValue;\n    _parCurrency = parCurrency;\n    parDecimals = _parCurrency._decimals();\n    _maturityPeriod = maturityPeriod;\n    _couponRate = couponRate;\n    _couponPeriod = couponPeriod;\n    _numSixMonthsPerCoupon = couponPeriod / 6;\n    _couponAmountPerBondPerSixMonths = (parValue * (couponRate / 2)) / 10**parDecimals;\n    _decimals = decimals;\n    _ipfsFieldContainerHash = ipfsFieldContainerHash;\n    if (_issuanceDate > 0) {\n      _maturityDate = _issuanceDate + _maturityPeriod * month;\n    }\n  }\n\n  /**\n   * @param issuanceDate     The date the bond is officially issued. This marks the start of the maturityPeriod (unix timestamp)\n   */\n  function setIssuanceDate(uint256 issuanceDate) public {\n    require(\n      _launchDate == 0 || block.timestamp < _launchDate,\n      'It is forbidden to edit a bond after it has been launched to the investors'\n    );\n    _issuanceDate = issuanceDate;\n    _maturityDate = issuanceDate + _maturityPeriod * month;\n  }\n\n  /**\n   * @notice Releases the issuance to investors at a certain date and time\n   *\n   * @param launchDate the launch date or announcement date is the date at which the details regarding a new issue\n   *                   are released to investors.\n   */\n  function launch(uint256 launchDate) public {\n    require(_launchDate == 0, 'This bond is already launched');\n    require(_launchDate <= _issuanceDate, 'A bond can only be launched after or on the issuance date');\n    _launchDate = launchDate;\n    createCoupons();\n  }\n\n  /**\n   * @notice Create the entries for the coupons.\n   */\n  function createCoupons() private {\n    require(_coupons.length == 0, 'Coupons are already initialized, re-initialization is not allowed');\n    uint256 amountOfCoupons = _maturityPeriod / _couponPeriod;\n    for (uint256 i = 1; i <= amountOfCoupons; i++) {\n      uint256 couponDate = _issuanceDate + i * (month * _couponPeriod);\n      _couponDates.push(couponDate);\n      _coupons.push();\n    }\n  }\n\n  /**\n   * @notice Function to run on each transfer, mint, burn and mature (action that changes the holders) to update the coupons\n   *         with the holders at that time. It does not matter if there is no movement, because then it will be the current\n   *         holder list.\n   */\n  function updateCoupons() public {\n    for (uint256 i = 0; i < _couponDates.length; i++) {\n      uint256 couponDate = _couponDates[i];\n      Coupon storage coupon = _coupons[i];\n      if (couponDate < block.timestamp && !coupon.inititated) {\n        coupon.inititated = true;\n        coupon.holdersAtCouponDate = tokenHolders;\n        for (uint256 j = 0; j < tokenHolders.length; j++) {\n          uint256 holderBalance = balances[tokenHolders[j]].balance;\n          uint256 couponAmount =\n            (holderBalance / uint256(10)**parDecimals) * _couponAmountPerBondPerSixMonths * _numSixMonthsPerCoupon;\n          coupon.totalCouponAmount = coupon.totalCouponAmount + couponAmount;\n          coupon.amountsAtCouponDate.push(couponAmount);\n        }\n      }\n    }\n  }\n\n  /**\n   * @notice Redeems the coupons for the supplied holder that have not been redeemed yet and have vested.\n   * @dev Note that this will fail when the contract has not enough currency balance to pay out the entire un-redeemed\n   *      balance of the coupon.\n   * @param holder The address of the account to redeem all unredeemed and vested coupons for.\n   */\n  function redeemCoupons(address holder) public {\n    updateCoupons();\n    for (uint256 i = 0; i < _couponDates.length; i++) {\n      uint256 couponDate = _couponDates[i];\n      if (couponDate < block.timestamp) {\n        Coupon storage coupon = _coupons[i];\n        uint256 totalCouponAmount = coupon.totalCouponAmount;\n        require(\n          _parCurrency.balanceOf(address(this)) >= totalCouponAmount - coupon.redeemedCouponAmount,\n          'There are not enough funds in the currency assigned to this bond to pay out coupons'\n        );\n        for (uint256 j = 0; j < coupon.holdersAtCouponDate.length; j++) {\n          if (coupon.holdersAtCouponDate[j] == holder) {\n            uint256 couponAmount = coupon.amountsAtCouponDate[j];\n            require(couponAmount > 0, 'No coupon value to redeem');\n            coupon.redeemedCouponAmount = coupon.redeemedCouponAmount + couponAmount;\n            coupon.amountsAtCouponDate[j] = 0;\n            require(_parCurrency.transfer(holder, couponAmount), 'Transfer of the par currency to the holder failed');\n          }\n        }\n      }\n    }\n  }\n\n  /**\n   * @notice Returns the principal amount to the holder and burns the bond tokens\n   * @dev Note that this will fail when the contract has not enough currency balance to pay out the entire un-claimed\n   *      principal balance.\n   * @param holder The address of the account to send  the principal amount to.\n   */\n  function claimPar(address holder) public {\n    updateCoupons();\n    require(_maturityDate >= block.timestamp, 'The par value can only be claimed after the maturity date has passed');\n    require(\n      _parCurrency.balanceOf(address(this)) >= totalSupply * (_parValue / (10**parDecimals)),\n      'There are not enough funds in the currency assigned to this bond to pay out all par values'\n    );\n    redeemCoupons(holder);\n    require(\n      _parCurrency.transfer(holder, (balanceOf(holder) * _parValue) / (10**parDecimals)),\n      'Transfer of the par currency to the holder failed'\n    );\n    require(burn(holder, balanceOf(holder)), 'Burning the bond tokens failed');\n  }\n\n  function coupons() public view returns (Coupon[] memory) {\n    return _coupons;\n  }\n\n  function couponDates() public view returns (uint256[] memory) {\n    return _couponDates;\n  }\n\n  function mint(address to, uint256 amount) public override returns (bool success) {\n    updateCoupons();\n    return super.mint(to, amount);\n  }\n\n  function burn(address from, uint256 amount) public override returns (bool success) {\n    updateCoupons();\n    return super.burn(from, amount);\n  }\n\n  function transfer(address to, uint256 value) public virtual override returns (bool success) {\n    updateCoupons();\n    return super.transfer(to, value);\n  }\n\n  // function to calculate how much money needs to be there\n  // override transfer, mint and burn\n\n  /**\n   * @notice Returns the amount of bond holders.\n   * @dev Gets the amount of bond holders, used by the middleware to build a cache you can query.\n   *      You should not need this function in general since iteration this way clientside is very slow.\n   *\n   * @return length An uint256 representing the amount of tokenholders recorded in this contract.\n   */\n  function getIndexLength() public view override returns (uint256 length) {\n    length = tokenHolders.length;\n  }\n\n  /**\n   * @notice Returns the address and balance of the tokenholder by index\n   * @dev Gets balance of an individual bond holder, used by the middleware to build a cache you can query.\n   *      You should not need this function in general since iteration this way clientside is very slow.\n   *\n   * @param index       used to access the tokenHolders array\n   * @return holder     holder's address\n   * @return balance    the holder's balance\n   */\n  function getByIndex(uint256 index) public view returns (address holder, uint256 balance) {\n    holder = tokenHolders[index];\n    balance = balances[tokenHolders[index]].balance;\n  }\n\n  /**\n   * @notice Returns the address and balance of the tokenholder by address\n   * @dev Gets balance of an individual bond holder, used by the middleware to build a cache you can query.\n   *      You should not need this function in general since iteration this way clientside is very slow.\n   *\n   * @param key         used to access the token's balances\n   * @return holder     holder's address and balance\n   * @return balance    the holder's balance\n   */\n  function getByKey(address key) public view returns (address holder, uint256 balance) {\n    holder = key;\n    balance = balances[key].balance;\n  }\n}\n",
  "sourcePath": "/home/coder/project/contracts/bonds/Bond.sol",
  "compiler": {
    "name": "solc",
    "version": "0.8.3+commit.8d00100c.Emscripten.clang"
  },
  "schemaVersion": "3.4.1",
  "updatedAt": "2021-08-01T16:33:49.051Z",
  "devdoc": {
    "kind": "dev",
    "methods": {
      "allowance(address,address)": {
        "details": "Function to check the amount of tokens that an owner allowed to a spender.",
        "params": {
          "owner": "The address which owns the funds.",
          "spender": "The address which will spend the funds."
        },
        "returns": {
          "remaining": "A uint256 specifying the amount of tokens still available for the spender."
        }
      },
      "approve(address,uint256)": {
        "details": "Approve the passed address to spend the specified amount of tokens on behalf of msg.sender. Beware that changing an allowance with this method brings the risk that someone may use both the old and the new allowance by unfortunate transaction ordering. One possible solution to mitigate this race condition is to first reduce the spender's allowance to 0 and set the desired value afterwards: https://github.com/ethereum/EIPs/issues/20#issuecomment-263524729",
        "params": {
          "spender": "The address which will spend the funds.",
          "value": "The amount of tokens to be spent."
        }
      },
      "approveAndCall(address,uint256,bytes)": {
        "details": "ApproveAndCall the passed address to spend the specified amount of tokens on behalf of msg.sender and call the receiveApproval function on that contract. This allows users to use their tokens to interact with contracts in one function call instead of two. Beware that changing an allowance with this method brings the risk that someone may use both the old and the new allowance by unfortunate transaction ordering. One possible solution to mitigate this race condition is to first reduce the spender's allowance to 0 and set the desired value afterwards: https://github.com/ethereum/EIPs/issues/20#issuecomment-263524729",
        "params": {
          "data": "Extra data to be sent along the call.",
          "spender": "The address which will spend the funds.",
          "value": "The amount of tokens to be spent."
        }
      },
      "balanceOf(address)": {
        "details": "Gets the balance of the specified address.",
        "params": {
          "owner": "The address to query the the balance of."
        },
        "returns": {
          "balance": "An uint256 representing the amount owned by the passed address."
        }
      },
      "claimPar(address)": {
        "details": "Note that this will fail when the contract has not enough currency balance to pay out the entire un-claimed      principal balance.",
        "params": {
          "holder": "The address of the account to send  the principal amount to."
        }
      },
      "constructor": {
        "params": {
          "couponPeriod": "The coupon period is the frequency that the bond issuer will make coupon payments to bondholders.                         Typically, this is either semi-annual or annual. (number of months between coupons)",
          "couponRate": "The coupon rate is the annual rate of interest (expressed as a percentage) the bond issuer                         pays out to bondholders on the principal amount of the bond at each coupon payment date. Coupon                         payments compensate investors for the risk of loaning capital to the issuer. (percentage * 100)",
          "decimals": "The granularity into which a single bond can be tokenized.",
          "gateKeeper": "The gatekeeper is the smart contract which handles the permissions on this bond.",
          "ipfsFieldContainerHash": "The IPFS hash to all the fields that are not on chain.",
          "maturityPeriod": "The maturity period is an amount of months after the issuance date when the bond matures and the                         bond issuer must pay the principal amount to bondholders. (number of months after the issuance date)",
          "name": "A clear name of for the bond for humans.",
          "parCurrency": "The currency of the par value",
          "parValue": "The principal amount is the amount paid out to the holder of the bond at its maturity date.                         It is also known as the par value. The principal amount is the reference amount used to                         calculate interest payments. (amount * 10^decimals of the currency)",
          "uiFieldDefinitionsHash": "The IPFS hash to the field definitions for the UI"
        }
      },
      "edit(string,uint256,address,uint256,uint256,uint256,uint8,string)": {
        "params": {
          "couponPeriod": "The coupon period is the frequency that the bond issuer will make coupon payments to bondholders.                         Typically, this is either semi-annual or annual. (number of months between coupons)",
          "couponRate": "The coupon rate is the annual rate of interest (expressed as a percentage) the bond issuer                         pays out to bondholders on the principal amount of the bond at each coupon payment date. Coupon                         payments compensate investors for the risk of loaning capital to the issuer. (percentage * 100)",
          "decimals": "The granularity into which a single bond can be tokenized.",
          "ipfsFieldContainerHash": "The IPFS hash to all the fields that are not on chain.",
          "maturityPeriod": "The maturity period is an amount of months after the issuance date when the bond matures and the                         bond issuer must pay the principal amount to bondholders. (number of months after the issuance date)",
          "name": "A clear name of for the bond for humans.",
          "parCurrency": "The currency of the par value",
          "parValue": "The principal amount is the amount paid out to the holder of the bond at its maturity date.                         It is also known as the par value. The principal amount is the reference amount used to                         calculate interest payments. (amount * 10^decimals of the currency)"
        }
      },
      "getByIndex(uint256)": {
        "details": "Gets balance of an individual bond holder, used by the middleware to build a cache you can query.      You should not need this function in general since iteration this way clientside is very slow.",
        "params": {
          "index": "used to access the tokenHolders array"
        },
        "returns": {
          "balance": "   the holder's balance",
          "holder": "    holder's address"
        }
      },
      "getByKey(address)": {
        "details": "Gets balance of an individual bond holder, used by the middleware to build a cache you can query.      You should not need this function in general since iteration this way clientside is very slow.",
        "params": {
          "key": "used to access the token's balances"
        },
        "returns": {
          "balance": "   the holder's balance",
          "holder": "    holder's address and balance"
        }
      },
      "getIndexLength()": {
        "details": "Gets the amount of bond holders, used by the middleware to build a cache you can query.      You should not need this function in general since iteration this way clientside is very slow.",
        "returns": {
          "length": "An uint256 representing the amount of tokenholders recorded in this contract."
        }
      },
      "increaseApproval(address,uint256)": {
        "details": "approve should be called when allowed[spender] == 0. To increment allowed value it's better to use this function to avoid 2 calls (and wait until the first transaction is mined). From MonolithDAO ERC20Token.sol"
      },
      "launch(uint256)": {
        "params": {
          "launchDate": "the launch date or announcement date is the date at which the details regarding a new issue                   are released to investors."
        }
      },
      "redeemCoupons(address)": {
        "details": "Note that this will fail when the contract has not enough currency balance to pay out the entire un-redeemed      balance of the coupon.",
        "params": {
          "holder": "The address of the account to redeem all unredeemed and vested coupons for."
        }
      },
      "setIssuanceDate(uint256)": {
        "params": {
          "issuanceDate": "The date the bond is officially issued. This marks the start of the maturityPeriod (unix timestamp)"
        }
      }
    },
    "title": "Bond",
    "version": 1
  },
  "userdoc": {
    "kind": "user",
    "methods": {
      "claimPar(address)": {
        "notice": "Returns the principal amount to the holder and burns the bond tokens"
      },
      "constructor": {
        "notice": "Creates a new bond"
      },
      "edit(string,uint256,address,uint256,uint256,uint256,uint8,string)": {
        "notice": "Updates most of the settings of a bond if the bond has not launched yet and the user had the EDIT_ROLE."
      },
      "getByIndex(uint256)": {
        "notice": "Returns the address and balance of the tokenholder by index"
      },
      "getByKey(address)": {
        "notice": "Returns the address and balance of the tokenholder by address"
      },
      "getIndexLength()": {
        "notice": "Returns the amount of bond holders."
      },
      "launch(uint256)": {
        "notice": "Releases the issuance to investors at a certain date and time"
      },
      "redeemCoupons(address)": {
        "notice": "Redeems the coupons for the supplied holder that have not been redeemed yet and have vested."
      },
      "updateCoupons()": {
        "notice": "Function to run on each transfer, mint, burn and mature (action that changes the holders) to update the coupons         with the holders at that time. It does not matter if there is no movement, because then it will be the current         holder list."
      }
    },
    "notice": "A bond is a debt security that corporations and governments use to raise capital. It provides an investor         the means to loan money to an issuer for a defined period of time. In return, the investor will receive variable         or fixed interest payments periodically throughout the loaning period.",
    "version": 1
  }
}