{
  "contractName": "ChallengeRegistry",
  "abi": [
    {
      "inputs": [
        {
          "internalType": "address",
          "name": "_gateKeeper",
          "type": "address"
        }
      ],
      "stateMutability": "nonpayable",
      "type": "constructor"
    },
    {
      "anonymous": false,
      "inputs": [
        {
          "indexed": false,
          "internalType": "address",
          "name": "_address",
          "type": "address"
        }
      ],
      "name": "ChallengeAdded",
      "type": "event"
    },
    {
      "inputs": [
        {
          "internalType": "address",
          "name": "",
          "type": "address"
        }
      ],
      "name": "challenges",
      "outputs": [
        {
          "internalType": "contract Challenge",
          "name": "",
          "type": "address"
        }
      ],
      "stateMutability": "view",
      "type": "function"
    },
    {
      "inputs": [
        {
          "internalType": "uint256",
          "name": "",
          "type": "uint256"
        }
      ],
      "name": "challengesIndex",
      "outputs": [
        {
          "internalType": "address",
          "name": "",
          "type": "address"
        }
      ],
      "stateMutability": "view",
      "type": "function"
    },
    {
      "inputs": [],
      "name": "gateKeeper",
      "outputs": [
        {
          "internalType": "contract GateKeeper",
          "name": "",
          "type": "address"
        }
      ],
      "stateMutability": "view",
      "type": "function"
    },
    {
      "inputs": [
        {
          "internalType": "address",
          "name": "_challenge",
          "type": "address"
        }
      ],
      "name": "addChallenge",
      "outputs": [],
      "stateMutability": "nonpayable",
      "type": "function"
    },
    {
      "inputs": [],
      "name": "getIndexLength",
      "outputs": [
        {
          "internalType": "uint256",
          "name": "length",
          "type": "uint256"
        }
      ],
      "stateMutability": "view",
      "type": "function"
    },
    {
      "inputs": [
        {
          "internalType": "uint256",
          "name": "index",
          "type": "uint256"
        }
      ],
      "name": "getByIndex",
      "outputs": [
        {
          "internalType": "address",
          "name": "key",
          "type": "address"
        },
        {
          "internalType": "address",
          "name": "contractAddress",
          "type": "address"
        }
      ],
      "stateMutability": "view",
      "type": "function"
    },
    {
      "inputs": [
        {
          "internalType": "address",
          "name": "_key",
          "type": "address"
        }
      ],
      "name": "getByKey",
      "outputs": [
        {
          "internalType": "address",
          "name": "key",
          "type": "address"
        },
        {
          "internalType": "address",
          "name": "contractAddress",
          "type": "address"
        }
      ],
      "stateMutability": "view",
      "type": "function"
    }
  ],
  "bytecode": "0x608060405234801561001057600080fd5b506040516103ab3803806103ab83398101604081905261002f91610054565b600080546001600160a01b0319166001600160a01b0392909216919091179055610082565b600060208284031215610065578081fd5b81516001600160a01b038116811461007b578182fd5b9392505050565b61031a806100916000396000f3fe608060405234801561001057600080fd5b506004361061007d5760003560e01c806345d61ded1161005b57806345d61ded1461010e5780634987703814610121578063e1ba7d011461014f578063f8242c32146101605761007d565b806308b43a19146100825780632d883a73146100c85780633a8e2e13146100fb575b600080fd5b6100ab61009036600461029e565b6001602052600090815260409020546001600160a01b031681565b6040516001600160a01b0390911681526020015b60405180910390f35b6100db6100d63660046102cc565b610175565b604080516001600160a01b039384168152929091166020830152016100bf565b6100ab6101093660046102cc565b6101da565b6000546100ab906001600160a01b031681565b6100db61012f36600461029e565b6001600160a01b0390811660009081526001602052604090205416908190565b6002546040519081526020016100bf565b61017361016e36600461029e565b610204565b005b6000806101d16002848154811061019c57634e487b7160e01b600052603260045260246000fd5b6000918252602090912001546001600160a01b03166001600160a01b0390811660009081526001602052604090205416908190565b91509150915091565b600281815481106101ea57600080fd5b6000918252602090912001546001600160a01b0316905081565b6001600160a01b038116600081815260016020818152604080842080546001600160a01b031990811687179091556002805494850181559094527f405787fa12a823e0f2b7631cc41b3ba8828b3321ca811111fa75cd3aa3bb5ace90920180549093168417909255519182527f2ffa3776d4bcbee1c082f84b2b35d2a24a419de30436c0c4b8f69ea2ced480b0910160405180910390a150565b6000602082840312156102af578081fd5b81356001600160a01b03811681146102c5578182fd5b9392505050565b6000602082840312156102dd578081fd5b503591905056fea264697066735822122051f24a24eca2ce0b1544d25aed669d2a52f33eb82112c1b54bf1baee12e4523f64736f6c63430008030033",
  "immutableReferences": {},
  "source": "// SPDX-License-Identifier: UNLICENSED\n/**\n * Copyright (C) SettleMint NV - All Rights Reserved\n *\n * Use of this file is strictly prohibited without an active license agreement.\n * Distribution of this file, via any medium, is strictly prohibited.\n *\n * For license inquiries, contact hello@settlemint.com\n */\n\npragma solidity ^0.8.0;\n\nimport '../authentication/Secured.sol';\nimport '../utility/syncing/Syncable.sol';\nimport './Challenge.sol';\n\ncontract ChallengeRegistry is Secured, Syncable {\n  event ChallengeAdded(address _address);\n\n  // Keep track of challenges\n  mapping(address => Challenge) public challenges;\n  address[] public challengesIndex; // Array of challenge ids\n\n  constructor(address _gateKeeper) Secured(_gateKeeper) {}\n\n  /**\n  @notice             Adds a challenge to the registry\n  @param _challenge   Address of the challenge to add\n  */\n  function addChallenge(address _challenge) public {\n    challenges[_challenge] = Challenge(address(_challenge));\n    challengesIndex.push(_challenge);\n    emit ChallengeAdded(_challenge);\n  }\n\n  /**\n   * implementation of syncable methods\n   */\n  function getIndexLength() public view override returns (uint256 length) {\n    length = challengesIndex.length;\n  }\n\n  function getByIndex(uint256 index) public view returns (address key, address contractAddress) {\n    return getByKey(challengesIndex[index]);\n  }\n\n  function getByKey(address _key) public view returns (address key, address contractAddress) {\n    key = address(challenges[_key]);\n    contractAddress = address(challenges[_key]);\n  }\n}\n",
  "sourcePath": "/home/coder/project/contracts/_library/tokencuratedregistry/ChallengeRegistry.sol",
  "compiler": {
    "name": "solc",
    "version": "0.8.3+commit.8d00100c.Emscripten.clang"
  },
  "schemaVersion": "3.4.3",
  "updatedAt": "2021-09-21T08:20:58.153Z",
  "devdoc": {
    "kind": "dev",
    "methods": {
      "addChallenge(address)": {
        "params": {
          "_challenge": "Address of the challenge to add"
        }
      }
    },
    "version": 1
  },
  "userdoc": {
    "kind": "user",
    "methods": {
      "addChallenge(address)": {
        "notice": "Adds a challenge to the registry"
      },
      "getIndexLength()": {
        "notice": "implementation of syncable methods"
      }
    },
    "version": 1
  }
}