{
  "contractName": "Challenge",
  "abi": [
    {
      "inputs": [
        {
          "internalType": "address",
          "name": "_challenger",
          "type": "address"
        },
        {
          "internalType": "uint256",
          "name": "_stakeAmount",
          "type": "uint256"
        },
        {
          "internalType": "address",
          "name": "_listing",
          "type": "address"
        },
        {
          "internalType": "address",
          "name": "_gateKeeper",
          "type": "address"
        }
      ],
      "stateMutability": "nonpayable",
      "type": "constructor"
    },
    {
      "anonymous": false,
      "inputs": [
        {
          "indexed": false,
          "internalType": "address",
          "name": "challenge",
          "type": "address"
        },
        {
          "indexed": false,
          "internalType": "bool",
          "name": "resoved",
          "type": "bool"
        }
      ],
      "name": "ResolvedSet",
      "type": "event"
    },
    {
      "inputs": [],
      "name": "UPDATE_IPFSCONTAINERHASH_ROLE",
      "outputs": [
        {
          "internalType": "bytes32",
          "name": "",
          "type": "bytes32"
        }
      ],
      "stateMutability": "view",
      "type": "function"
    },
    {
      "inputs": [],
      "name": "_ipfsFieldContainerHash",
      "outputs": [
        {
          "internalType": "string",
          "name": "",
          "type": "string"
        }
      ],
      "stateMutability": "view",
      "type": "function"
    },
    {
      "inputs": [],
      "name": "challenger",
      "outputs": [
        {
          "internalType": "address",
          "name": "",
          "type": "address"
        }
      ],
      "stateMutability": "view",
      "type": "function"
    },
    {
      "inputs": [],
      "name": "gateKeeper",
      "outputs": [
        {
          "internalType": "contract GateKeeper",
          "name": "",
          "type": "address"
        }
      ],
      "stateMutability": "view",
      "type": "function"
    },
    {
      "inputs": [],
      "name": "getIpfsFieldContainerHash",
      "outputs": [
        {
          "internalType": "string",
          "name": "",
          "type": "string"
        }
      ],
      "stateMutability": "view",
      "type": "function"
    },
    {
      "inputs": [],
      "name": "listing",
      "outputs": [
        {
          "internalType": "address",
          "name": "",
          "type": "address"
        }
      ],
      "stateMutability": "view",
      "type": "function"
    },
    {
      "inputs": [],
      "name": "resolved",
      "outputs": [
        {
          "internalType": "bool",
          "name": "",
          "type": "bool"
        }
      ],
      "stateMutability": "view",
      "type": "function"
    },
    {
      "inputs": [
        {
          "internalType": "string",
          "name": "ipfsFieldContainerHash",
          "type": "string"
        }
      ],
      "name": "setIpfsFieldContainerHash",
      "outputs": [],
      "stateMutability": "nonpayable",
      "type": "function"
    },
    {
      "inputs": [],
      "name": "stake",
      "outputs": [
        {
          "internalType": "uint256",
          "name": "",
          "type": "uint256"
        }
      ],
      "stateMutability": "view",
      "type": "function"
    },
    {
      "inputs": [],
      "name": "timestamp",
      "outputs": [
        {
          "internalType": "uint256",
          "name": "",
          "type": "uint256"
        }
      ],
      "stateMutability": "view",
      "type": "function"
    },
    {
      "inputs": [
        {
          "internalType": "bool",
          "name": "_resolved",
          "type": "bool"
        }
      ],
      "name": "setResolved",
      "outputs": [],
      "stateMutability": "nonpayable",
      "type": "function"
    }
  ],
  "bytecode": "0x60806040526002805460ff60a01b1916905534801561001d57600080fd5b5060405161068638038061068683398101604081905261003c916100a2565b600080546001600160a01b03199081166001600160a01b039384161790915560028054821695831695909517909455600392909255600480549093169116179055426005556100ee565b80516001600160a01b038116811461009d57600080fd5b919050565b600080600080608085870312156100b7578384fd5b6100c085610086565b9350602085015192506100d560408601610086565b91506100e360608601610086565b905092959194509250565b610589806100fd6000396000f3fe608060405234801561001057600080fd5b50600436106100a95760003560e01c806356c57bd11161007157806356c57bd114610141578063910fd10a14610154578063b80777ea14610169578063bc7c55ed14610172578063ef120a6e14610185578063fcbb59071461018d576100a9565b8063164d90e0146100ae5780633a4b66f1146100c35780633f6fa655146100df57806345d61ded14610103578063534db0e21461012e575b600080fd5b6100c16100bc3660046103de565b6101b4565b005b6100cc60035481565b6040519081526020015b60405180910390f35b6002546100f390600160a01b900460ff1681565b60405190151581526020016100d6565b600054610116906001600160a01b031681565b6040516001600160a01b0390911681526020016100d6565b600254610116906001600160a01b031681565b6100c161014f366004610405565b61020e565b61015c610225565b6040516100d691906104af565b6100cc60055481565b600454610116906001600160a01b031681565b61015c6102b3565b6100cc7f5550444154455f49504653434f4e5441494e4552484153485f524f4c4500000081565b6002805460ff60a01b1916600160a01b831515908102919091179091556040805130815260208101929092527f1e26517183efe4efd75405d381f0fd1aa3fc89740db3c17a9c244127ca64c79c910160405180910390a150565b8051610221906001906020840190610345565b5050565b6001805461023290610502565b80601f016020809104026020016040519081016040528092919081815260200182805461025e90610502565b80156102ab5780601f10610280576101008083540402835291602001916102ab565b820191906000526020600020905b81548152906001019060200180831161028e57829003601f168201915b505050505081565b6060600180546102c290610502565b80601f01602080910402602001604051908101604052809291908181526020018280546102ee90610502565b801561033b5780601f106103105761010080835404028352916020019161033b565b820191906000526020600020905b81548152906001019060200180831161031e57829003601f168201915b5050505050905090565b82805461035190610502565b90600052602060002090601f01602090048101928261037357600085556103b9565b82601f1061038c57805160ff19168380011785556103b9565b828001600101855582156103b9579182015b828111156103b957825182559160200191906001019061039e565b506103c59291506103c9565b5090565b5b808211156103c557600081556001016103ca565b6000602082840312156103ef578081fd5b813580151581146103fe578182fd5b9392505050565b600060208284031215610416578081fd5b813567ffffffffffffffff8082111561042d578283fd5b818401915084601f830112610440578283fd5b8135818111156104525761045261053d565b604051601f8201601f19908116603f0116810190838211818310171561047a5761047a61053d565b81604052828152876020848701011115610492578586fd5b826020860160208301379182016020019490945295945050505050565b6000602080835283518082850152825b818110156104db578581018301518582016040015282016104bf565b818111156104ec5783604083870101525b50601f01601f1916929092016040019392505050565b600181811c9082168061051657607f821691505b6020821081141561053757634e487b7160e01b600052602260045260246000fd5b50919050565b634e487b7160e01b600052604160045260246000fdfea2646970667358221220eda214ca3944fb915194eed33147eade2ad0f0fc6279c72f00e3e40bb06f49e464736f6c63430008030033",
  "immutableReferences": {},
  "source": "// SPDX-License-Identifier: UNLICENSED\n/**\n * Copyright (C) SettleMint NV - All Rights Reserved\n *\n * Use of this file is strictly prohibited without an active license agreement.\n * Distribution of this file, via any medium, is strictly prohibited.\n *\n * For license inquiries, contact hello@settlemint.com\n */\n\npragma solidity ^0.8.0;\n\nimport '../authentication/Secured.sol';\nimport '../utility/metadata/IpfsFieldContainer.sol';\n\ncontract Challenge is Secured, IpfsFieldContainer {\n  event ResolvedSet(address challenge, bool resoved);\n\n  address public challenger;\n  bool public resolved = false;\n  uint256 public stake;\n  address public listing;\n  uint256 public timestamp;\n\n  /**\n  @dev Contructor\n  @notice                     Hold one challenge to a listing\n  @param _challenger          Owner of Challenge\n  @param _stakeAmount         Number of tokens at risk for either party during challenge\n  @param _listing             Listing this challenge was added to\n  @param _gateKeeper          Address of the gatekeeper\n  */\n  constructor(\n    address _challenger,\n    uint256 _stakeAmount,\n    address _listing,\n    address _gateKeeper\n  ) Secured(_gateKeeper) IpfsFieldContainer() {\n    challenger = _challenger;\n    stake = _stakeAmount;\n    listing = _listing;\n    timestamp = block.timestamp;\n  }\n\n  /**\n  @notice            Sets resolved property\n  @param _resolved   Resolved\n  */\n  function setResolved(bool _resolved) public {\n    resolved = _resolved;\n    emit ResolvedSet(address(this), _resolved);\n  }\n}\n",
  "sourcePath": "/home/coder/project/contracts/_library/tokencuratedregistry/Challenge.sol",
  "compiler": {
    "name": "solc",
    "version": "0.8.3+commit.8d00100c.Emscripten.clang"
  },
  "schemaVersion": "3.4.3",
  "updatedAt": "2021-09-21T08:20:58.150Z",
  "devdoc": {
    "kind": "dev",
    "methods": {
      "constructor": {
        "details": "Contructor",
        "params": {
          "_challenger": "Owner of Challenge",
          "_gateKeeper": "Address of the gatekeeper",
          "_listing": "Listing this challenge was added to",
          "_stakeAmount": "Number of tokens at risk for either party during challenge"
        }
      },
      "setResolved(bool)": {
        "params": {
          "_resolved": "Resolved"
        }
      }
    },
    "version": 1
  },
  "userdoc": {
    "kind": "user",
    "methods": {
      "constructor": {
        "notice": "Hold one challenge to a listing"
      },
      "setResolved(bool)": {
        "notice": "Sets resolved property"
      }
    },
    "version": 1
  }
}