{
  "contractName": "CurrencyRegistry",
  "abi": [
    {
      "inputs": [
        {
          "internalType": "address",
          "name": "gatekeeper",
          "type": "address"
        }
      ],
      "stateMutability": "nonpayable",
      "type": "constructor"
    },
    {
      "anonymous": false,
      "inputs": [
        {
          "indexed": true,
          "internalType": "address",
          "name": "token",
          "type": "address"
        }
      ],
      "name": "TokenAdded",
      "type": "event"
    },
    {
      "inputs": [],
      "name": "LIST_TOKEN_ROLE",
      "outputs": [
        {
          "internalType": "bytes32",
          "name": "",
          "type": "bytes32"
        }
      ],
      "stateMutability": "view",
      "type": "function"
    },
    {
      "inputs": [
        {
          "internalType": "string",
          "name": "name",
          "type": "string"
        },
        {
          "internalType": "address",
          "name": "token",
          "type": "address"
        }
      ],
      "name": "addToken",
      "outputs": [],
      "stateMutability": "nonpayable",
      "type": "function"
    },
    {
      "inputs": [],
      "name": "gateKeeper",
      "outputs": [
        {
          "internalType": "contract GateKeeper",
          "name": "",
          "type": "address"
        }
      ],
      "stateMutability": "view",
      "type": "function"
    },
    {
      "inputs": [
        {
          "internalType": "uint256",
          "name": "index",
          "type": "uint256"
        }
      ],
      "name": "getByIndex",
      "outputs": [
        {
          "internalType": "string",
          "name": "key",
          "type": "string"
        },
        {
          "internalType": "address",
          "name": "contractAddress",
          "type": "address"
        }
      ],
      "stateMutability": "view",
      "type": "function"
    },
    {
      "inputs": [
        {
          "internalType": "string",
          "name": "_key",
          "type": "string"
        }
      ],
      "name": "getByKey",
      "outputs": [
        {
          "internalType": "string",
          "name": "key",
          "type": "string"
        },
        {
          "internalType": "address",
          "name": "contractAddress",
          "type": "address"
        }
      ],
      "stateMutability": "view",
      "type": "function"
    },
    {
      "inputs": [],
      "name": "getIndexLength",
      "outputs": [
        {
          "internalType": "uint256",
          "name": "length",
          "type": "uint256"
        }
      ],
      "stateMutability": "view",
      "type": "function"
    },
    {
      "inputs": [
        {
          "internalType": "uint256",
          "name": "",
          "type": "uint256"
        }
      ],
      "name": "tokenIndex",
      "outputs": [
        {
          "internalType": "string",
          "name": "",
          "type": "string"
        }
      ],
      "stateMutability": "view",
      "type": "function"
    },
    {
      "inputs": [
        {
          "internalType": "string",
          "name": "",
          "type": "string"
        }
      ],
      "name": "tokens",
      "outputs": [
        {
          "internalType": "contract IERC20Token",
          "name": "",
          "type": "address"
        }
      ],
      "stateMutability": "view",
      "type": "function"
    }
  ],
  "bytecode": "0x608060405234801561001057600080fd5b5060405161095038038061095083398101604081905261002f91610054565b600080546001600160a01b0319166001600160a01b0392909216919091179055610082565b600060208284031215610065578081fd5b81516001600160a01b038116811461007b578182fd5b9392505050565b6108bf806100916000396000f3fe608060405234801561001057600080fd5b50600436106100885760003560e01c806345d61ded1161005b57806345d61ded146101325780638273871e14610145578063b0b22c2c1461016c578063e1ba7d011461018157610088565b806304c2320b1461008d5780630583e9f8146100de5780632aac4039146100fe5780632d883a731461011f575b600080fd5b6100c161009b3660046106d5565b80516020818301810180516001825292820191909301209152546001600160a01b031681565b6040516001600160a01b0390911681526020015b60405180910390f35b6100f16100ec36600461076b565b610189565b6040516100d591906107cb565b61011161010c3660046106d5565b610235565b6040516100d59291906107de565b61011161012d36600461076b565b61026c565b6000546100c1906001600160a01b031681565b61015e6e4c4953545f544f4b454e5f524f4c4560881b81565b6040519081526020016100d5565b61017f61017a366004610710565b610335565b005b60025461015e565b6002818154811061019957600080fd5b9060005260206000200160009150905080546101b490610838565b80601f01602080910402602001604051908101604052809291908181526020018280546101e090610838565b801561022d5780601f106102025761010080835404028352916020019161022d565b820191906000526020600020905b81548152906001019060200180831161021057829003601f168201915b505050505081565b6060600060018360405161024991906107af565b9081526040519081900360200190205492936001600160a01b0390931692915050565b6060600061032c6002848154811061029457634e487b7160e01b600052603260045260246000fd5b9060005260206000200180546102a990610838565b80601f01602080910402602001604051908101604052809291908181526020018280546102d590610838565b80156103225780601f106102f757610100808354040283529160200191610322565b820191906000526020600020905b81548152906001019060200180831161030557829003601f168201915b5050505050610235565b91509150915091565b6e4c4953545f544f4b454e5f524f4c4560881b6040518060400160405280601c81526020017f53656e646572206e65656473204c4953545f544f4b454e5f524f4c450000000081525061038833836104f0565b81906103b05760405162461bcd60e51b81526004016103a791906107cb565b60405180910390fd5b5060006001600160a01b03166001856040516103cc91906107af565b908152604051908190036020019020546001600160a01b0316146104325760405162461bcd60e51b815260206004820152601860248201527f6f6e6c792061636365707420756e69717565206e616d6573000000000000000060448201526064016103a7565b8260018560405161044391906107af565b9081526040516020918190038201902080546001600160a01b0319166001600160a01b0393909316929092179091556002805460018101825560009190915285516104b5927f405787fa12a823e0f2b7631cc41b3ba8828b3321ca811111fa75cd3aa3bb5ace90920191870190610595565b506040516001600160a01b038416907f784c8f4dbf0ffedd6e72c76501c545a70f8b203b30a26ce542bf92ba87c248a490600090a250505050565b600080546001600160a01b0316158061058e5750600054604051630dace25b60e31b81526001600160a01b0385811660048301523060248301526044820185905290911690636d6712d89060640160206040518083038186803b15801561055657600080fd5b505afa15801561056a573d6000803e3d6000fd5b505050506040513d601f19601f8201168201806040525081019061058e91906106b5565b9392505050565b8280546105a190610838565b90600052602060002090601f0160209004810192826105c35760008555610609565b82601f106105dc57805160ff1916838001178555610609565b82800160010185558215610609579182015b828111156106095782518255916020019190600101906105ee565b50610615929150610619565b5090565b5b80821115610615576000815560010161061a565b600082601f83011261063e578081fd5b813567ffffffffffffffff8082111561065957610659610873565b604051601f8301601f19908116603f0116810190828211818310171561068157610681610873565b81604052838152866020858801011115610699578485fd5b8360208701602083013792830160200193909352509392505050565b6000602082840312156106c6578081fd5b8151801515811461058e578182fd5b6000602082840312156106e6578081fd5b813567ffffffffffffffff8111156106fc578182fd5b6107088482850161062e565b949350505050565b60008060408385031215610722578081fd5b823567ffffffffffffffff811115610738578182fd5b6107448582860161062e565b92505060208301356001600160a01b0381168114610760578182fd5b809150509250929050565b60006020828403121561077c578081fd5b5035919050565b6000815180845261079b816020860160208601610808565b601f01601f19169290920160200192915050565b600082516107c1818460208701610808565b9190910192915050565b60006020825261058e6020830184610783565b6000604082526107f16040830185610783565b905060018060a01b03831660208301529392505050565b60005b8381101561082357818101518382015260200161080b565b83811115610832576000848401525b50505050565b600181811c9082168061084c57607f821691505b6020821081141561086d57634e487b7160e01b600052602260045260246000fd5b50919050565b634e487b7160e01b600052604160045260246000fdfea2646970667358221220eb085a375b95e3210625306b5342d621d26885269db4879a3e779079d4ef20ad64736f6c63430008030033",
  "immutableReferences": {},
  "source": "/**\n * Copyright (C) SettleMint NV - All Rights Reserved\n *\n * Use of this file is strictly prohibited without an active license agreement.\n * Distribution of this file, via any medium, is strictly prohibited.\n *\n * For license inquiries, contact hello@settlemint.com\n *\n * SPDX-License-Identifier: UNLICENSED\n */\n\npragma solidity ^0.8.0;\n\nimport '../_library//tokens/ERC20/ERC20TokenRegistry.sol';\n\n/**\n * @title Lists all deployed coins\n */\ncontract CurrencyRegistry is ERC20TokenRegistry {\n  constructor(address gatekeeper) ERC20TokenRegistry(gatekeeper) {}\n}\n",
  "sourcePath": "/home/coder/project/contracts/currency/CurrencyRegistry.sol",
  "compiler": {
    "name": "solc",
    "version": "0.8.3+commit.8d00100c.Emscripten.clang"
  },
  "schemaVersion": "3.4.3",
  "updatedAt": "2021-09-21T08:26:23.060Z",
  "networkType": "ethereum",
  "devdoc": {
    "kind": "dev",
    "methods": {},
    "title": "Lists all deployed coins",
    "version": 1
  },
  "userdoc": {
    "kind": "user",
    "methods": {},
    "version": 1
  }
}