{
  "contractName": "CustomerRoleRegistry",
  "abi": [
    {
      "inputs": [
        {
          "internalType": "address",
          "name": "gatekeeper",
          "type": "address"
        }
      ],
      "stateMutability": "nonpayable",
      "type": "constructor"
    },
    {
      "anonymous": false,
      "inputs": [
        {
          "indexed": false,
          "internalType": "address",
          "name": "_address",
          "type": "address"
        }
      ],
      "name": "Designated",
      "type": "event"
    },
    {
      "anonymous": false,
      "inputs": [
        {
          "indexed": false,
          "internalType": "address",
          "name": "_address",
          "type": "address"
        }
      ],
      "name": "Discharged",
      "type": "event"
    },
    {
      "anonymous": false,
      "inputs": [
        {
          "indexed": false,
          "internalType": "address",
          "name": "_address",
          "type": "address"
        }
      ],
      "name": "RoleRegistryCreated",
      "type": "event"
    },
    {
      "inputs": [],
      "name": "DESIGNATE_ROLE",
      "outputs": [
        {
          "internalType": "bytes32",
          "name": "",
          "type": "bytes32"
        }
      ],
      "stateMutability": "view",
      "type": "function"
    },
    {
      "inputs": [],
      "name": "ROLE_CUSTOMER",
      "outputs": [
        {
          "internalType": "bytes32",
          "name": "",
          "type": "bytes32"
        }
      ],
      "stateMutability": "view",
      "type": "function"
    },
    {
      "inputs": [
        {
          "internalType": "address",
          "name": "_address",
          "type": "address"
        }
      ],
      "name": "designate",
      "outputs": [],
      "stateMutability": "nonpayable",
      "type": "function"
    },
    {
      "inputs": [
        {
          "internalType": "address",
          "name": "_address",
          "type": "address"
        }
      ],
      "name": "discharge",
      "outputs": [],
      "stateMutability": "nonpayable",
      "type": "function"
    },
    {
      "inputs": [],
      "name": "gateKeeper",
      "outputs": [
        {
          "internalType": "contract GateKeeper",
          "name": "",
          "type": "address"
        }
      ],
      "stateMutability": "view",
      "type": "function"
    },
    {
      "inputs": [
        {
          "internalType": "uint256",
          "name": "_index",
          "type": "uint256"
        }
      ],
      "name": "getByIndex",
      "outputs": [
        {
          "internalType": "address",
          "name": "key",
          "type": "address"
        },
        {
          "internalType": "bool",
          "name": "hasTheRole",
          "type": "bool"
        }
      ],
      "stateMutability": "view",
      "type": "function"
    },
    {
      "inputs": [
        {
          "internalType": "address",
          "name": "_key",
          "type": "address"
        }
      ],
      "name": "getByKey",
      "outputs": [
        {
          "internalType": "address",
          "name": "key",
          "type": "address"
        },
        {
          "internalType": "bool",
          "name": "hasTheRole",
          "type": "bool"
        }
      ],
      "stateMutability": "view",
      "type": "function"
    },
    {
      "inputs": [],
      "name": "getIndexLength",
      "outputs": [
        {
          "internalType": "uint256",
          "name": "length",
          "type": "uint256"
        }
      ],
      "stateMutability": "view",
      "type": "function"
    },
    {
      "inputs": [],
      "name": "getRoleHolders",
      "outputs": [
        {
          "internalType": "address[]",
          "name": "allRoleHolders",
          "type": "address[]"
        }
      ],
      "stateMutability": "view",
      "type": "function"
    },
    {
      "inputs": [
        {
          "internalType": "address",
          "name": "_address",
          "type": "address"
        }
      ],
      "name": "hasRole",
      "outputs": [
        {
          "internalType": "bool",
          "name": "hasTheRole",
          "type": "bool"
        }
      ],
      "stateMutability": "view",
      "type": "function"
    },
    {
      "inputs": [],
      "name": "role",
      "outputs": [
        {
          "internalType": "bytes32",
          "name": "",
          "type": "bytes32"
        }
      ],
      "stateMutability": "pure",
      "type": "function"
    }
  ],
  "bytecode": "0x608060405234801561001057600080fd5b506040516109fc3803806109fc83398101604081905261002f91610086565b600080546001600160a01b0319166001600160a01b03831617905560405130815281907fe1024fd8985d06ce8c9f997f972a1260bbbb007e7f7496825505aff3b18165e99060200160405180910390a150506100b4565b600060208284031215610097578081fd5b81516001600160a01b03811681146100ad578182fd5b9392505050565b610939806100c36000396000f3fe608060405234801561001057600080fd5b50600436106100a95760003560e01c806345d61ded1161007157806345d61ded1461014957806349877038146101745780637ef09bca146101a5578063a428c582146101e1578063d09200a3146101f8578063e1ba7d011461020d576100a9565b80630231853a146100ae5780630a7519a3146100c357806310055c1d146100ee5780632d883a73146101045780634534169214610136575b600080fd5b6100c16100bc3660046107a4565b610215565b005b6100db6d44455349474e4154455f524f4c4560901b81565b6040519081526020015b60405180910390f35b6c2927a622afa1aaa9aa27a6a2a960991b6100db565b6101176101123660046107eb565b6104bd565b604080516001600160a01b0390931683529015156020830152016100e5565b6100c16101443660046107a4565b610550565b60005461015c906001600160a01b031681565b6040516001600160a01b0390911681526020016100e5565b6101176101823660046107a4565b6001600160a01b038116600090815260016020526040902054909160ff90911690565b6101d16101b33660046107a4565b6001600160a01b031660009081526001602052604090205460ff1690565b60405190151581526020016100e5565b6100db6c2927a622afa1aaa9aa27a6a2a960991b81565b61020061069d565b6040516100e59190610803565b6002546100db565b6d44455349474e4154455f524f4c4560901b6040518060400160405280601b81526020017f53656e646572206e656564732044455349474e4154455f524f4c45000000000081525061026733836106ff565b819061028f5760405162461bcd60e51b81526004016102869190610850565b60405180910390fd5b506001600160a01b038316600090815260016020819052604090912001546103105760405162461bcd60e51b815260206004820152602e60248201527f54686973206164647265737320776173206e657665722064657369676e61746560448201526d6420746f207468697320726f6c6560901b6064820152608401610286565b60005b836001600160a01b03166002828154811061033e57634e487b7160e01b600052603260045260246000fd5b6000918252602090912001546001600160a01b03161461036a5780610362816108d2565b915050610313565b805b60025461037b906001906108bb565b81101561042257600261038f8260016108a3565b815481106103ad57634e487b7160e01b600052603260045260246000fd5b600091825260209091200154600280546001600160a01b0390921691839081106103e757634e487b7160e01b600052603260045260246000fd5b600091825260209091200180546001600160a01b0319166001600160a01b03929092169190911790558061041a816108d2565b91505061036c565b50600280548061044257634e487b7160e01b600052603160045260246000fd5b60008281526020808220600019908401810180546001600160a01b03191690559092019092556001600160a01b03861680835260018252604092839020805460ff1916905591519182527fa918a014a3cc4d384620aab101a9de9a018850704254ab6ce288864db9abd98b910160405180910390a150505050565b600080600283815481106104e157634e487b7160e01b600052603260045260246000fd5b6000918252602082200154600280546001600160a01b039092169450600192918690811061051f57634e487b7160e01b600052603260045260246000fd5b60009182526020808320909101546001600160a01b03168352820192909252604001902054919360ff909216925050565b6d44455349474e4154455f524f4c4560901b6040518060400160405280601b81526020017f53656e646572206e656564732044455349474e4154455f524f4c4500000000008152506105a233836106ff565b81906105c15760405162461bcd60e51b81526004016102869190610850565b506001600160a01b03831660009081526001602081905260409091200154610640576002805460018082019092557f405787fa12a823e0f2b7631cc41b3ba8828b3321ca811111fa75cd3aa3bb5ace0180546001600160a01b0319166001600160a01b0386169081179091556000908152602082905260409020429101555b6001600160a01b038316600081815260016020818152604092839020805460ff191690921790915590519182527f6a7971839356e91af1f994a516a95eac2d3583cb6ba16b104843fcc927d77dae910160405180910390a1505050565b606060028054806020026020016040519081016040528092919081815260200182805480156106f557602002820191906000526020600020905b81546001600160a01b031681526001909101906020018083116106d7575b5050505050905090565b600080546001600160a01b0316158061079d5750600054604051630dace25b60e31b81526001600160a01b0385811660048301523060248301526044820185905290911690636d6712d89060640160206040518083038186803b15801561076557600080fd5b505afa158015610779573d6000803e3d6000fd5b505050506040513d601f19601f8201168201806040525081019061079d91906107cb565b9392505050565b6000602082840312156107b5578081fd5b81356001600160a01b038116811461079d578182fd5b6000602082840312156107dc578081fd5b8151801515811461079d578182fd5b6000602082840312156107fc578081fd5b5035919050565b6020808252825182820181905260009190848201906040850190845b818110156108445783516001600160a01b03168352928401929184019160010161081f565b50909695505050505050565b6000602080835283518082850152825b8181101561087c57858101830151858201604001528201610860565b8181111561088d5783604083870101525b50601f01601f1916929092016040019392505050565b600082198211156108b6576108b66108ed565b500190565b6000828210156108cd576108cd6108ed565b500390565b60006000198214156108e6576108e66108ed565b5060010190565b634e487b7160e01b600052601160045260246000fdfea2646970667358221220ec84e593b022f8e7a7598ec4d28eb7d6dbf311bde549ab81bec88dd288712f0564736f6c63430008030033",
  "immutableReferences": {},
  "source": "/**\n * Copyright (C) SettleMint NV - All Rights Reserved\n *\n * Use of this file is strictly prohibited without an active license agreement.\n * Distribution of this file, via any medium, is strictly prohibited.\n *\n * For license inquiries, contact hello@settlemint.com\n *\n * SPDX-License-Identifier: UNLICENSED\n */\n\npragma solidity ^0.8.0;\n\nimport '../_library//authentication/RoleRegistry.sol';\n\n/**\n * @title Lists all customers\n */\ncontract CustomerRoleRegistry is RoleRegistry {\n  bytes32 public constant ROLE_CUSTOMER = 'ROLE_CUSTOMER';\n\n  constructor(address gatekeeper) RoleRegistry(gatekeeper) {}\n\n  /**\n   * @dev Returns the role\n   * @return A bytes32 role\n   */\n  function role() public pure returns (bytes32) {\n    return ROLE_CUSTOMER;\n  }\n}\n",
  "sourcePath": "/home/coder/project/contracts/roles/CustomerRoleRegistry.sol",
  "compiler": {
    "name": "solc",
    "version": "0.8.3+commit.8d00100c.Emscripten.clang"
  },
  "schemaVersion": "3.4.1",
  "updatedAt": "2021-08-01T16:33:49.844Z",
  "devdoc": {
    "kind": "dev",
    "methods": {
      "designate(address)": {
        "details": "Gives the role managed by this role registry to `_address`. Access is limited by the ACL.",
        "params": {
          "_address": "The address to designate the role to."
        }
      },
      "discharge(address)": {
        "details": "Removes the role from `_address`. Access is limited by the ACL.",
        "params": {
          "_address": "The address to discharge fromn the role."
        }
      },
      "getByIndex(uint256)": {
        "details": "Returns the information for the key at index `_index`",
        "params": {
          "_index": "The index of the key in the key array"
        },
        "returns": {
          "key": "the information for the key on a certain index"
        }
      },
      "getByKey(address)": {
        "details": "Returns the information for the key `_key`",
        "params": {
          "_key": "The key to get the info for"
        },
        "returns": {
          "key": "the information for the key"
        }
      },
      "getIndexLength()": {
        "details": "Returns the length of the index array",
        "returns": {
          "length": "the amount of items in the index array"
        }
      },
      "getRoleHolders()": {
        "details": "Returns a list of all the holders of this role.",
        "returns": {
          "allRoleHolders": "array with all role holders' addresses"
        }
      },
      "hasRole(address)": {
        "details": "Checks if `_address` has given the role managed by this role registry",
        "params": {
          "_address": "The address to check for the role."
        },
        "returns": {
          "hasTheRole": "A boolean that is True if the address has the role."
        }
      },
      "role()": {
        "details": "Returns the role",
        "returns": {
          "_0": "A bytes32 role"
        }
      }
    },
    "title": "Lists all customers",
    "version": 1
  },
  "userdoc": {
    "kind": "user",
    "methods": {
      "designate(address)": {
        "notice": "Gives the role to an address"
      },
      "discharge(address)": {
        "notice": "Removes the role from an address"
      },
      "getByIndex(uint256)": {
        "notice": "Returns the information for the key at a given index"
      },
      "getByKey(address)": {
        "notice": "Returns the information for the key"
      },
      "getIndexLength()": {
        "notice": "Returns the length of the index array"
      },
      "getRoleHolders()": {
        "notice": "Returns a list of all the holders of this role."
      },
      "hasRole(address)": {
        "notice": "Checks if an address has this role"
      }
    },
    "version": 1
  }
}