{
  "contractName": "DigitalTwin",
  "abi": [
    {
      "anonymous": false,
      "inputs": [
        {
          "indexed": false,
          "internalType": "string",
          "name": "DID",
          "type": "string"
        },
        {
          "indexed": false,
          "internalType": "address",
          "name": "identity",
          "type": "address"
        }
      ],
      "name": "ClaimAsserted",
      "type": "event"
    },
    {
      "anonymous": false,
      "inputs": [
        {
          "indexed": false,
          "internalType": "string",
          "name": "DID",
          "type": "string"
        },
        {
          "indexed": false,
          "internalType": "bytes32",
          "name": "kind",
          "type": "bytes32"
        },
        {
          "indexed": false,
          "internalType": "string",
          "name": "identifier",
          "type": "string"
        }
      ],
      "name": "ClaimWithIdentifierCreated",
      "type": "event"
    },
    {
      "anonymous": false,
      "inputs": [
        {
          "indexed": false,
          "internalType": "string",
          "name": "DID",
          "type": "string"
        },
        {
          "indexed": false,
          "internalType": "string",
          "name": "identifier",
          "type": "string"
        }
      ],
      "name": "ClaimWithIdentifierUpdated",
      "type": "event"
    },
    {
      "inputs": [],
      "name": "DIGITAL_TWIN",
      "outputs": [
        {
          "internalType": "bytes32",
          "name": "",
          "type": "bytes32"
        }
      ],
      "stateMutability": "view",
      "type": "function"
    },
    {
      "inputs": [],
      "name": "UPGRADEABLE_REGISTRY_TARGET",
      "outputs": [
        {
          "internalType": "bytes32",
          "name": "",
          "type": "bytes32"
        }
      ],
      "stateMutability": "view",
      "type": "function"
    },
    {
      "inputs": [
        {
          "internalType": "string",
          "name": "DID",
          "type": "string"
        }
      ],
      "name": "getClaimWithIdentifier",
      "outputs": [
        {
          "internalType": "string",
          "name": "identifier",
          "type": "string"
        }
      ],
      "stateMutability": "view",
      "type": "function"
    },
    {
      "inputs": [
        {
          "internalType": "string",
          "name": "DID",
          "type": "string"
        }
      ],
      "name": "claimExists",
      "outputs": [
        {
          "internalType": "bool",
          "name": "",
          "type": "bool"
        }
      ],
      "stateMutability": "view",
      "type": "function"
    }
  ],
  "bytecode": "0x608060405234801561001057600080fd5b50610441806100206000396000f3fe608060405234801561001057600080fd5b506004361061004c5760003560e01c806332bb534f1461005157806373e2567f1461007a578063a303dbce1461009d578063e5771d1e146100d2575b600080fd5b61006461005f36600461026e565b6100e8565b6040516100719190610334565b60405180910390f35b61008d61008836600461026e565b610244565b6040519015158152602001610071565b6100c47f5550475241444541424c455f52454749535452595f544152474554000000000081565b604051908152602001610071565b6100c46b2224a3a4aa20a62faa2ba4a760a11b81565b60606001826040516100fa9190610318565b9081526020016040518091039020546000141561014e5760405162461bcd60e51b815260206004820152600e60248201526d556e6b6e6f776e206669656c642160901b604482015260640160405180910390fd5b60006001836040516101609190610318565b908152604051908190036020019020549050600080610180600184610367565b8154811061019e57634e487b7160e01b600052603260045260246000fd5b906000526020600020906006020190508060050180546101bd906103ba565b80601f01602080910402602001604051908101604052809291908181526020018280546101e9906103ba565b80156102365780601f1061020b57610100808354040283529160200191610236565b820191906000526020600020905b81548152906001019060200180831161021957829003601f168201915b505050505092505050919050565b6000806001836040516102579190610318565b908152602001604051809103902054119050919050565b60006020828403121561027f578081fd5b813567ffffffffffffffff80821115610296578283fd5b818401915084601f8301126102a9578283fd5b8135818111156102bb576102bb6103f5565b604051601f8201601f19908116603f011681019083821181831017156102e3576102e36103f5565b816040528281528760208487010111156102fb578586fd5b826020860160208301379182016020019490945295945050505050565b6000825161032a81846020870161038a565b9190910192915050565b600060208252825180602084015261035381604085016020870161038a565b601f01601f19169190910160400192915050565b60008282101561038557634e487b7160e01b81526011600452602481fd5b500390565b60005b838110156103a557818101518382015260200161038d565b838111156103b4576000848401525b50505050565b600181811c908216806103ce57607f821691505b602082108114156103ef57634e487b7160e01b600052602260045260246000fd5b50919050565b634e487b7160e01b600052604160045260246000fdfea26469706673582212200926f8232372f62f8a338ded14308dfd5372cee23dfc21ec10ec83d3885d51cf64736f6c63430008030033",
  "immutableReferences": {},
  "source": "// SPDX-License-Identifier: UNLICENSED\npragma solidity ^0.8.0;\n\ncontract DigitalTwin {\n  bytes32 public constant DIGITAL_TWIN = 'DIGITAL_TWIN';\n  bytes32 public constant UPGRADEABLE_REGISTRY_TARGET = 'UPGRADEABLE_REGISTRY_TARGET';\n\n  struct Claim {\n    string DID;\n    address owner;\n    bytes32 kind;\n    address[] assertions;\n    uint256 createdAt;\n    string identifier;\n  }\n\n  /**\n   * Events\n   */\n  event ClaimWithIdentifierCreated(string DID, bytes32 kind, string identifier);\n  event ClaimAsserted(string DID, address identity);\n  event ClaimWithIdentifierUpdated(string DID, string identifier);\n\n  Claim[] internal _claimRegistry;\n\n  // Beware, the claimIndex is 1-based!\n  // Obviously a tradeoff, the main benefit is that by making it 1-based, 0 acts as an invalid index.\n  // This means we can use this mapping to check if the DID is known or not:\n  // _claimIndex[NON_EXISTING_DID] will resolve to 0 -> which is an invalid index -> non existing DID\n  mapping(string => uint256) internal _claimIndex;\n\n  function addClaimWithIdentifier(\n    string memory DID,\n    bytes32 kind,\n    string memory identifier\n  ) internal {\n    string[] memory DIDs = new string[](1);\n    DIDs[0] = DID;\n\n    bytes32[] memory kinds = new bytes32[](1);\n    kinds[0] = kind;\n\n    string[] memory identifiers = new string[](1);\n    identifiers[0] = identifier;\n\n    addClaimsWithIdentifier(DIDs, kinds, identifiers);\n  }\n\n  function addClaimsWithIdentifier(\n    string[] memory DIDs,\n    bytes32[] memory kinds,\n    string[] memory identifiers\n  ) internal {\n    require(DIDs.length == kinds.length, 'Invalid array length input');\n    require(kinds.length == identifiers.length, 'Invalid array length input');\n    require(DIDs.length > 0, 'Empty argument error');\n\n    for (uint256 i = 0; i < DIDs.length; i++) {\n      string memory DID = DIDs[i];\n      bytes32 kind = kinds[0];\n      string memory identifier = identifiers[0];\n\n      require(kind.length > 0, 'Invalid kind');\n      require(bytes(DID).length > 0, 'Invalid DID');\n      require(bytes(identifier).length > 0, 'Invalid identifier');\n\n      require(_claimIndex[DID] == 0, 'Claim already exists');\n      _claimRegistry.push();\n      uint256 claimIndex = _claimRegistry.length;\n\n      Claim storage c = _claimRegistry[claimIndex - 1];\n      c.DID = DID;\n      c.identifier = identifier;\n      c.kind = kind;\n      c.createdAt = block.timestamp;\n      c.owner = msg.sender;\n\n      _claimIndex[DID] = claimIndex;\n\n      emit ClaimWithIdentifierCreated(c.DID, kind, c.identifier);\n    }\n  }\n\n  function assertClaim(string memory DID) internal {\n    require(_claimIndex[DID] != 0, 'Unknown field');\n\n    uint256 claimIndex = _claimIndex[DID];\n    Claim storage c = _claimRegistry[claimIndex - 1];\n\n    c.assertions.push(msg.sender);\n\n    emit ClaimAsserted(DID, msg.sender);\n  }\n\n  function editClaimWithIdentifier(string memory DID, string memory identifier) internal {\n    require(_claimIndex[DID] != 0, 'Unknown field');\n\n    uint256 claimIndex = _claimIndex[DID];\n    Claim storage c = _claimRegistry[claimIndex - 1];\n    c.identifier = identifier;\n\n    emit ClaimWithIdentifierUpdated(c.DID, c.identifier);\n  }\n\n  function getClaimWithIdentifier(string memory DID) public view returns (string memory identifier) {\n    require(_claimIndex[DID] != 0, 'Unknown field!');\n\n    uint256 claimIndex = _claimIndex[DID];\n    Claim storage c = _claimRegistry[claimIndex - 1];\n\n    return c.identifier;\n  }\n\n  function claimExists(string memory DID) public view returns (bool) {\n    return _claimIndex[DID] > 0;\n  }\n}\n",
  "sourcePath": "/home/coder/project/contracts/_library/provenance/digitaltwin/DigitalTwin.sol",
  "compiler": {
    "name": "solc",
    "version": "0.8.3+commit.8d00100c.Emscripten.clang"
  },
  "schemaVersion": "3.4.3",
  "updatedAt": "2021-09-21T08:20:57.994Z",
  "devdoc": {
    "kind": "dev",
    "methods": {},
    "version": 1
  },
  "userdoc": {
    "events": {
      "ClaimWithIdentifierCreated(string,bytes32,string)": {
        "notice": "Events"
      }
    },
    "kind": "user",
    "methods": {},
    "version": 1
  }
}