{
  "contractName": "Dispatcher",
  "abi": [
    {
      "inputs": [
        {
          "internalType": "address",
          "name": "gateKeeper",
          "type": "address"
        }
      ],
      "stateMutability": "nonpayable",
      "type": "constructor"
    },
    {
      "anonymous": false,
      "inputs": [
        {
          "indexed": false,
          "internalType": "address",
          "name": "originalTarget",
          "type": "address"
        },
        {
          "indexed": false,
          "internalType": "address",
          "name": "newTarget",
          "type": "address"
        }
      ],
      "name": "TargetChanged",
      "type": "event"
    },
    {
      "stateMutability": "nonpayable",
      "type": "fallback"
    },
    {
      "inputs": [],
      "name": "UPGRADE_CONTRACT",
      "outputs": [
        {
          "internalType": "bytes32",
          "name": "",
          "type": "bytes32"
        }
      ],
      "stateMutability": "view",
      "type": "function"
    },
    {
      "inputs": [],
      "name": "_target",
      "outputs": [
        {
          "internalType": "address",
          "name": "",
          "type": "address"
        }
      ],
      "stateMutability": "view",
      "type": "function"
    },
    {
      "inputs": [],
      "name": "gateKeeper",
      "outputs": [
        {
          "internalType": "contract GateKeeper",
          "name": "",
          "type": "address"
        }
      ],
      "stateMutability": "view",
      "type": "function"
    },
    {
      "inputs": [
        {
          "internalType": "address",
          "name": "target",
          "type": "address"
        }
      ],
      "name": "setTarget",
      "outputs": [],
      "stateMutability": "nonpayable",
      "type": "function"
    }
  ],
  "bytecode": "0x608060405234801561001057600080fd5b506040516103a03803806103a083398101604081905261002f91610054565b600080546001600160a01b0319166001600160a01b0392909216919091179055610082565b600060208284031215610065578081fd5b81516001600160a01b038116811461007b578182fd5b9392505050565b61030f806100916000396000f3fe608060405234801561001057600080fd5b506004361061004c5760003560e01c806317f821391461007b5780632ac8bb15146100a857806345d61ded146100d3578063776d1a01146100e6575b60015460008035916001600160a01b03169036908037600080366000846127105a03f4503d806000803e806000f35b6100956f155411d490511157d0d3d395149050d560821b81565b6040519081526020015b60405180910390f35b6001546100bb906001600160a01b031681565b6040516001600160a01b03909116815260200161009f565b6000546100bb906001600160a01b031681565b6100f96100f4366004610292565b6100fb565b005b61010481610107565b50565b6f155411d490511157d0d3d395149050d560821b61012533826101ed565b6101835760405162461bcd60e51b815260206004820152602560248201527f53656e64657220646f6573206e6f7420686176652074686520636f727265637460448201526420726f6c6560d81b606482015260840160405180910390fd5b600154604080516001600160a01b03928316815291841660208301527f4d11d6210a5e807da812a693b5d341a870571b5fc31158172207a3d99c911ccd910160405180910390a150600180546001600160a01b0319166001600160a01b0392909216919091179055565b600080546001600160a01b0316158061028b5750600054604051630dace25b60e31b81526001600160a01b0385811660048301523060248301526044820185905290911690636d6712d89060640160206040518083038186803b15801561025357600080fd5b505afa158015610267573d6000803e3d6000fd5b505050506040513d601f19601f8201168201806040525081019061028b91906102b9565b9392505050565b6000602082840312156102a3578081fd5b81356001600160a01b038116811461028b578182fd5b6000602082840312156102ca578081fd5b8151801515811461028b578182fdfea2646970667358221220ba7c05462cddcf3703079c16fb9fac12be6c06fa6ed6dd863c9a53236b9270ad64736f6c63430008030033",
  "immutableReferences": {},
  "source": "// SPDX-License-Identifier: UNLICENSED\n/**\n * Copyright (C) SettleMint NV - All Rights Reserved\n *\n * Use of this file is strictly prohibited without an active license agreement.\n * Distribution of this file, via any medium, is strictly prohibited.\n *\n * For license inquiries, contact hello@settlemint.com\n */\n\npragma solidity ^0.8.0;\n\nimport './Upgradeable.sol';\n\n/**\n * Found at: https://gist.github.com/Arachnid/4ca9da48d51e23e5cfe0f0e14dd6318f and\n * https://github.com/maraoz/solidity-proxy/blob/master/contracts/Dispatcher.sol\n *\n * The dispatcher is a minimal 'shim' that dispatches calls to a targeted\n * contract. Calls are made using 'delegatecall', meaning all storage and value\n * is kept on the dispatcher. As a result, when the target is updated, the new\n * contract inherits all the stored data and value from the old contract.\n */\n\ncontract Dispatcher is Upgradeable {\n  constructor(address gateKeeper) Upgradeable(gateKeeper) {}\n\n  fallback() external {\n    bytes4 sig;\n    assembly {\n      sig := calldataload(0)\n    }\n    address dest = _target;\n\n    assembly {\n      calldatacopy(0x0, 0x0, calldatasize())\n      let callResult := delegatecall(sub(gas(), 10000), dest, 0x0, calldatasize(), 0, 0)\n      let retSz := returndatasize()\n      returndatacopy(0, 0, retSz)\n      return(0, retSz)\n    }\n  }\n\n  function setTarget(address target) public {\n    replace(target);\n  }\n}\n",
  "sourcePath": "/home/coder/project/contracts/_library/utility/upgrading/Dispatcher.sol",
  "compiler": {
    "name": "solc",
    "version": "0.8.3+commit.8d00100c.Emscripten.clang"
  },
  "schemaVersion": "3.4.3",
  "updatedAt": "2021-09-21T08:20:58.474Z",
  "devdoc": {
    "kind": "dev",
    "methods": {},
    "version": 1
  },
  "userdoc": {
    "kind": "user",
    "methods": {},
    "notice": "Found at: https://gist.github.com/Arachnid/4ca9da48d51e23e5cfe0f0e14dd6318f and https://github.com/maraoz/solidity-proxy/blob/master/contracts/Dispatcher.sol The dispatcher is a minimal 'shim' that dispatches calls to a targeted contract. Calls are made using 'delegatecall', meaning all storage and value is kept on the dispatcher. As a result, when the target is updated, the new contract inherits all the stored data and value from the old contract.",
    "version": 1
  }
}