{
  "contractName": "DrugPackageFactory",
  "abi": [
    {
      "inputs": [
        {
          "internalType": "contract GateKeeper",
          "name": "gateKeeper",
          "type": "address"
        },
        {
          "internalType": "contract DrugPackageRegistry",
          "name": "registry",
          "type": "address"
        }
      ],
      "stateMutability": "nonpayable",
      "type": "constructor"
    },
    {
      "anonymous": false,
      "inputs": [
        {
          "indexed": false,
          "internalType": "address",
          "name": "statemachine",
          "type": "address"
        }
      ],
      "name": "StateMachineCreated",
      "type": "event"
    },
    {
      "inputs": [],
      "name": "CREATE_STATEMACHINE_ROLE",
      "outputs": [
        {
          "internalType": "bytes32",
          "name": "",
          "type": "bytes32"
        }
      ],
      "stateMutability": "view",
      "type": "function"
    },
    {
      "inputs": [],
      "name": "UPDATE_UIFIELDDEFINITIONS_ROLE",
      "outputs": [
        {
          "internalType": "bytes32",
          "name": "",
          "type": "bytes32"
        }
      ],
      "stateMutability": "view",
      "type": "function"
    },
    {
      "inputs": [],
      "name": "gateKeeper",
      "outputs": [
        {
          "internalType": "contract GateKeeper",
          "name": "",
          "type": "address"
        }
      ],
      "stateMutability": "view",
      "type": "function"
    },
    {
      "inputs": [],
      "name": "getUIFieldDefinitionsHash",
      "outputs": [
        {
          "internalType": "string",
          "name": "",
          "type": "string"
        }
      ],
      "stateMutability": "view",
      "type": "function"
    },
    {
      "inputs": [
        {
          "internalType": "string",
          "name": "uiFieldDefinitionsHash",
          "type": "string"
        }
      ],
      "name": "setUIFieldDefinitionsHash",
      "outputs": [],
      "stateMutability": "nonpayable",
      "type": "function"
    },
    {
      "inputs": [
        {
          "internalType": "string",
          "name": "labellerCode",
          "type": "string"
        },
        {
          "internalType": "string",
          "name": "productCode",
          "type": "string"
        },
        {
          "internalType": "string",
          "name": "packageCode",
          "type": "string"
        },
        {
          "internalType": "string",
          "name": "ipfsFieldContainerHash",
          "type": "string"
        }
      ],
      "name": "create",
      "outputs": [],
      "stateMutability": "nonpayable",
      "type": "function"
    }
  ],
  "bytecode": "0x608060405234801561001057600080fd5b5060405161383d38038061383d83398101604081905261002f91610060565b600180546001600160a01b039384166001600160a01b031991821617909155600280549290931691161790556100b1565b60008060408385031215610072578182fd5b825161007d81610099565b602084015190925061008e81610099565b809150509250929050565b6001600160a01b03811681146100ae57600080fd5b50565b61377d806100c06000396000f3fe60806040523480156200001157600080fd5b50600436106200006a5760003560e01c80631f0f992a146200006f578063309c70cf14620000aa578063459b9af914620000cd57806345d61ded14620000e657806378ff6ee3146200011357806382f68683146200012c575b600080fd5b620000977f5550444154455f55494649454c44444546494e4954494f4e535f524f4c45000081565b6040519081526020015b60405180910390f35b62000097774352454154455f53544154454d414348494e455f524f4c4560401b81565b620000d762000143565b604051620000a1919062000bfb565b600154620000fa906001600160a01b031681565b6040516001600160a01b039091168152602001620000a1565b6200012a62000124366004620009db565b620001dd565b005b6200012a6200013d3660046200099c565b62000647565b606060008054620001549062000c44565b80601f0160208091040260200160405190810160405280929190818152602001828054620001829062000c44565b8015620001d35780601f10620001a757610100808354040283529160200191620001d3565b820191906000526020600020905b815481529060010190602001808311620001b557829003601f168201915b5050505050905090565b774352454154455f53544154454d414348494e455f524f4c4560401b60405180606001604052806025815260200162003723602591396200021f3383620006cc565b81906200024a5760405162461bcd60e51b815260040162000241919062000bfb565b60405180910390fd5b50855186906200029d5760405162461bcd60e51b815260206004820152601a60248201527f41206c6162656c6c6572436f6465206973207265717569726564000000000000604482015260640162000241565b8590506000815111620002f35760405162461bcd60e51b815260206004820152601960248201527f412070726f64756374436f646520697320726571756972656400000000000000604482015260640162000241565b8490506000815111620003495760405162461bcd60e51b815260206004820152601960248201527f41207061636b616765436f646520697320726571756972656400000000000000604482015260640162000241565b6000600160009054906101000a90046001600160a01b0316888888886000604051620003759062000778565b620003869695949392919062000ade565b604051809103906000f080158015620003a3573d6000803e3d6000fd5b5090506000816001600160a01b031663710613986040518163ffffffff1660e01b815260040160006040518083038186803b158015620003e257600080fd5b505afa158015620003f7573d6000803e3d6000fd5b505050506040513d6000823e601f3d908101601f19168201604052620004219190810190620008c7565b905060005b81518110156200059d5760015482516001600160a01b039091169063be038478908290630ef9ae39908690869081106200047057634e487b7160e01b600052603260045260246000fd5b60200260200101516040518263ffffffff1660e01b81526004016200049791815260200190565b60206040518083038186803b158015620004b057600080fd5b505afa158015620004c5573d6000803e3d6000fd5b505050506040513d601f19601f82011682018060405250810190620004eb91906200089e565b858585815181106200050d57634e487b7160e01b600052603260045260246000fd5b60209081029190910101516040516001600160e01b031960e086901b1681526001600160a01b0393841660048201529290911660248301526044820152306064820152608401600060405180830381600087803b1580156200056e57600080fd5b505af115801562000583573d6000803e3d6000fd5b505050508080620005949062000c81565b91505062000426565b50600254604051635e48156960e11b81526001600160a01b0384811660048301529091169063bc902ad290602401600060405180830381600087803b158015620005e657600080fd5b505af1158015620005fb573d6000803e3d6000fd5b50506040516001600160a01b03851681527f9133c0c22004f4e0d1b425e3f564b710f3fda1af39a2e9565a1ce53eda52f7889250602001905060405180910390a1505050505050505050565b7f5550444154455f55494649454c44444546494e4954494f4e535f524f4c4500006040518060600160405280602b8152602001620036f8602b91396200068e3383620006cc565b8190620006b05760405162461bcd60e51b815260040162000241919062000bfb565b508251620006c690600090602086019062000786565b50505050565b6001546000906001600160a01b03161580620007715750600154604051630dace25b60e31b81526001600160a01b0385811660048301523060248301526044820185905290911690636d6712d89060640160206040518083038186803b1580156200073657600080fd5b505afa1580156200074b573d6000803e3d6000fd5b505050506040513d601f19601f820116820180604052508101906200077191906200097a565b9392505050565b612a388062000cc083390190565b828054620007949062000c44565b90600052602060002090601f016020900481019282620007b8576000855562000803565b82601f10620007d357805160ff191683800117855562000803565b8280016001018555821562000803579182015b8281111562000803578251825591602001919060010190620007e6565b506200081192915062000815565b5090565b5b8082111562000811576000815560010162000816565b600082601f8301126200083d578081fd5b813567ffffffffffffffff8111156200085a576200085a62000ca9565b6200086f601f8201601f191660200162000c10565b81815284602083860101111562000884578283fd5b816020850160208301379081016020019190915292915050565b600060208284031215620008b0578081fd5b81516001600160a01b038116811462000771578182fd5b60006020808385031215620008da578182fd5b825167ffffffffffffffff80821115620008f2578384fd5b818501915085601f83011262000906578384fd5b8151818111156200091b576200091b62000ca9565b8060051b91506200092e84830162000c10565b8181528481019084860184860187018a101562000949578788fd5b8795505b838610156200096d5780518352600195909501949186019186016200094d565b5098975050505050505050565b6000602082840312156200098c578081fd5b8151801515811462000771578182fd5b600060208284031215620009ae578081fd5b813567ffffffffffffffff811115620009c5578182fd5b620009d3848285016200082c565b949350505050565b60008060008060808587031215620009f1578283fd5b843567ffffffffffffffff8082111562000a09578485fd5b62000a17888389016200082c565b9550602087013591508082111562000a2d578485fd5b62000a3b888389016200082c565b9450604087013591508082111562000a51578384fd5b62000a5f888389016200082c565b9350606087013591508082111562000a75578283fd5b5062000a84878288016200082c565b91505092959194509250565b60008151808452815b8181101562000ab75760208185018101518683018201520162000a99565b8181111562000ac95782602083870101525b50601f01601f19169290920160200192915050565b6001600160a01b038716815260c0602080830182905260009162000b059084018962000a90565b838103604085015262000b19818962000a90565b9050838103606085015262000b2f818862000a90565b9050838103608085015262000b45818762000a90565b905083810360a085015282855484600182811c91508083168062000b6a57607f831692505b86831081141562000b8957634e487b7160e01b88526022600452602488fd5b82865260208601955080801562000ba9576001811462000bbb5762000be7565b60ff1985168752878701955062000be7565b60008b815260209020895b8581101562000be15781548982015290840190890162000bc6565b88019650505b50939e9d5050505050505050505050505050565b60006020825262000771602083018462000a90565b604051601f8201601f1916810167ffffffffffffffff8111828210171562000c3c5762000c3c62000ca9565b604052919050565b600181811c9082168062000c5957607f821691505b6020821081141562000c7b57634e487b7160e01b600052602260045260246000fd5b50919050565b600060001982141562000ca257634e487b7160e01b81526011600452602481fd5b5060010190565b634e487b7160e01b600052604160045260246000fdfe610100604052692927a622afa0a226a4a760b11b6080908152702927a622afa6a0a72aa320a1aa2aa922a960791b60a0526c2927a622afa922a9a2a62622a960991b60c0526c524f4c455f504841524d41435960981b60e0526200006890600b90600462000867565b503480156200007657600080fd5b5060405162002a3838038062002a38833981016040819052620000999162000a1a565b600080546001600160a01b0319166001600160a01b0388161790558451620000c990600d906020880190620008b7565b508351620000df90600e906020870190620008b7565b508251620000f590600f906020860190620008b7565b5081516200010b906007906020850190620008b7565b5080516200012190600c906020840190620008b7565b506200012c62000138565b50505050505062000b5a565b62000152600080516020620029d883398151915262000526565b6200016c600080516020620029b883398151915262000526565b620001866000805160206200293883398151915262000526565b620001a0600080516020620029f883398151915262000526565b620001ba6000805160206200299883398151915262000526565b620001d46000805160206200297883398151915262000526565b620001ee60008051602062002a1883398151915262000526565b62000218600080516020620029d8833981519152600080516020620029b8833981519152620005e4565b62000240600080516020620029b8833981519152692927a622afa0a226a4a760b11b620006c4565b6200026f600080516020620029b8833981519152702927a622afa6a0a72aa320a1aa2aa922a960791b620006c4565b62000299600080516020620029b883398151915260008051602062002938833981519152620005e4565b620002c160008051602062002938833981519152692927a622afa0a226a4a760b11b620006c4565b620002ec600080516020620029388339815191526c2927a622afa922a9a2a62622a960991b620006c4565b6200031660008051602062002938833981519152600080516020620029f8833981519152620005e4565b620003406000805160206200293883398151915260008051602062002998833981519152620005e4565b62000368600080516020620029f8833981519152692927a622afa0a226a4a760b11b620006c4565b62000393600080516020620029f88339815191526c2927a622afa922a9a2a62622a960991b620006c4565b620003bd600080516020620029f883398151915260008051602062002938833981519152620005e4565b620003e560008051602062002998833981519152692927a622afa0a226a4a760b11b620006c4565b62000410600080516020620029988339815191526c2927a622afa922a9a2a62622a960991b620006c4565b6200043a6000805160206200299883398151915260008051602062002978833981519152620005e4565b6200046260008051602062002978833981519152692927a622afa0a226a4a760b11b620006c4565b6200048d600080516020620029788339815191526c524f4c455f504841524d41435960981b620006c4565b620004b76000805160206200297883398151915260008051602062002a18833981519152620005e4565b620004df60008051602062002a18833981519152692927a622afa0a226a4a760b11b620006c4565b6200050a60008051602062002a188339815191526c524f4c455f504841524d41435960981b620006c4565b62000524600080516020620029d883398151915262000747565b565b60008181526002602052604090205460ff1615620005975760405162461bcd60e51b815260206004820152602360248201527f746869732073746174652068617320616c7265616479206265656e20637265616044820152621d195960ea1b60648201526084015b60405180910390fd5b6000818152600260205260408120805460ff191660019081179091556003805491820181559091527fc2575a0e9e593c00f959f8c92f12db2869c3395a3b0502d05e2516446f71f85b0155565b600082815260026020526040902054829060ff16620006405760405162461bcd60e51b8152602060048201526022602482015260008051602062002958833981519152604482015261195d60f21b60648201526084016200058e565b600082815260026020526040902054829060ff166200069c5760405162461bcd60e51b8152602060048201526022602482015260008051602062002958833981519152604482015261195d60f21b60648201526084016200058e565b5050600091825260026020908152604083206005018054600181018255908452922090910155565b600082815260026020526040902054829060ff16620007205760405162461bcd60e51b8152602060048201526022602482015260008051602062002958833981519152604482015261195d60f21b60648201526084016200058e565b50600091825260026020818152604084209091018054600181018255908452922090910155565b60008181526002602052604090205460ff16620007ba5760405162461bcd60e51b815260206004820152602a60248201527f74686520696e697469616c20737461746520686173206e6f74206265656e20636044820152691c99585d1959081e595d60b21b60648201526084016200058e565b60045415620008625760405162461bcd60e51b815260206004820152606160248201527f7468652063757272656e742073746174652068617320616c726561647920626560448201527f656e207365742c20736f20796f752063616e6e6f7420636f6e6669677572652060648201527f74686520696e697469616c20737461746520616e64206f7665727269646520696084820152601d60fa1b60a482015260c4016200058e565b600455565b828054828255906000526020600020908101928215620008a5579160200282015b82811115620008a557825182559160200191906001019062000888565b50620008b392915062000933565b5090565b828054620008c59062000b07565b90600052602060002090601f016020900481019282620008e95760008555620008a5565b82601f106200090457805160ff1916838001178555620008a5565b82800160010185558215620008a55791820182811115620008a557825182559160200191906001019062000888565b5b80821115620008b3576000815560010162000934565b80516001600160a01b03811681146200096257600080fd5b919050565b600082601f83011262000978578081fd5b81516001600160401b038082111562000995576200099562000b44565b604051601f8301601f19908116603f01168101908282118183101715620009c057620009c062000b44565b81604052838152602092508683858801011115620009dc578485fd5b8491505b83821015620009ff5785820183015181830184015290820190620009e0565b8382111562000a1057848385830101525b9695505050505050565b60008060008060008060c0878903121562000a33578182fd5b62000a3e876200094a565b60208801519096506001600160401b038082111562000a5b578384fd5b62000a698a838b0162000967565b9650604089015191508082111562000a7f578384fd5b62000a8d8a838b0162000967565b9550606089015191508082111562000aa3578384fd5b62000ab18a838b0162000967565b9450608089015191508082111562000ac7578384fd5b62000ad58a838b0162000967565b935060a089015191508082111562000aeb578283fd5b5062000afa89828a0162000967565b9150509295509295509295565b600181811c9082168062000b1c57607f821691505b6020821081141562000b3e57634e487b7160e01b600052602260045260246000fd5b50919050565b634e487b7160e01b600052604160045260246000fd5b611dce8062000b6a6000396000f3fe608060405234801561001057600080fd5b50600436106101fb5760003560e01c806356c57bd11161011a578063c31016f5116100ad578063ea4abd691161007c578063ea4abd6914610485578063ef120a6e1461048d578063f0fc324414610495578063f4a979a3146104b3578063fcbb5907146104c6576101fb565b8063c31016f51461041c578063c8691b2a14610443578063d391014b14610456578063e9ac2d8b1461046a576101fb565b80637c9716a1116100e95780637c9716a1146103b3578063910fd10a146103ca578063a4ddb071146103d2578063a7a38f0b146103da576101fb565b806356c57bd11461036e578063694f1105146103815780637106139814610394578063758aeef41461039c576101fb565b80633956c43b1161019257806345d61ded1161016157806345d61ded1461031e5780634de6740e14610349578063513df195146103515780635478f46814610366576101fb565b80633956c43b146102d55780633a751dbb146102f35780633e44694f1461030e57806344f8aa5214610316576101fb565b80632cde8a5d116101ce5780632cde8a5d146102875780632e2bc0d5146102a5578063304b1bd1146102ba578063378aa701146102cd576101fb565b806301b909a11461020057806309648a9d146102335780630a959150146102575780632785add31461026c575b600080fd5b6102207514d510551157d41050d2d051d15117d310509153115160521b81565b6040519081526020015b60405180910390f35b610246610241366004611792565b6104ed565b60405161022a959493929190611a0d565b61025f610837565b60405161022a9190611a98565b6102207029aa20aa22afa0aa2fa922a9a2a62622a960791b81565b6102207329aa20aa22afa4a72faa2920a729a4aa2fa9192960611b81565b6102ad6108c5565b60405161022a91906119fa565b6102206102c8366004611792565b61092b565b61022061094c565b61022073053544154455f494e5f5452414e5349545f5232560641b81565b6102207053544154455f41545f504841524d41435960781b81565b61025f6109cc565b61025f610a04565b600054610331906001600160a01b031681565b6040516001600160a01b03909116815260200161022a565b61025f610a11565b61036461035f36600461182a565b610a1e565b005b600154610220565b61036461037c3660046117ef565b610a74565b61036461038f366004611792565b610a8b565b6102ad610cca565b6102206c524f4c455f504841524d41435960981b81565b6102206c2927a622afa922a9a2a62622a960991b81565b61025f610d20565b6102ad610d2d565b6103ed6103e8366004611792565b610d83565b60405161022a949392919093845260208401929092526001600160a01b03166040830152606082015260800190565b6102207f53544154455f46554c4c46494c4c45445f544f5f50415449454e54000000000081565b6103ed610451366004611792565b610dc6565b610220692927a622afa0a226a4a760b11b81565b610220702927a622afa6a0a72aa320a1aa2aa922a960791b81565b61025f610f00565b61025f610f0d565b6102207329aa20aa22afa4a72faa2920a729a4aa2fa6992960611b81565b6103646104c13660046117aa565b610f96565b6102207f5550444154455f49504653434f4e5441494e4552484153485f524f4c4500000081565b60008181526002602052604081206005546060918291829185918290819067ffffffffffffffff81111561053157634e487b7160e01b600052604160045260246000fd5b60405190808252806020026020018201604052801561055a578160200160208202803683370190505b50905060005b60055481101561068557600260008b81526020019081526020016000206001016000600583815481106105a357634e487b7160e01b600052603260045260246000fd5b6000918252602080832060088304015460079092166004026101000a90910460e01b6001600160e01b031916835282019290925260400190205460ff1615610673576005818154811061060657634e487b7160e01b600052603260045260246000fd5b90600052602060002090600891828204019190066004029054906101000a900460e01b828460ff168151811061064c57634e487b7160e01b600052603260045260246000fd5b6001600160e01b031990921660209283029190910190910152610670600184611ae3565b92505b8061067d81611d3b565b915050610560565b5060008260ff1667ffffffffffffffff8111156106b257634e487b7160e01b600052604160045260246000fd5b6040519080825280602002602001820160405280156106db578160200160208202803683370190505b50905060005b8360ff1681101561075f5782818151811061070c57634e487b7160e01b600052603260045260246000fd5b602002602001015182828151811061073457634e487b7160e01b600052603260045260246000fd5b6001600160e01b0319909216602092830291909101909101528061075781611d3b565b9150506106e1565b50898460050185600201838760060160009054906101000a900460e01b838054806020026020016040519081016040528092919081815260200182805480156107c757602002820191906000526020600020905b8154815260200190600101908083116107b3575b505050505093508280548060200260200160405190810160405280929190818152602001828054801561081957602002820191906000526020600020905b815481526020019060010190808311610805575b50505050509250985098509850985098505050505091939590929450565b600f805461084490611d00565b80601f016020809104026020016040519081016040528092919081815260200182805461087090611d00565b80156108bd5780601f10610892576101008083540402835291602001916108bd565b820191906000526020600020905b8154815290600101906020018083116108a057829003601f168201915b505050505081565b60045460009081526002602090815260409182902060050180548351818402810184019094528084526060939283018282801561092157602002820191906000526020600020905b81548152602001906001019080831161090d575b5050505050905090565b600b818154811061093b57600080fd5b600091825260209091200154905081565b60045460009081526002602052604081205460ff166109c55760405162461bcd60e51b815260206004820152602a60248201527f74686520696e697469616c20737461746520686173206e6f74206265656e20636044820152691c99585d1959081e595d60b21b60648201526084015b60405180910390fd5b5060045490565b6060600d600e600f6109dd3061101b565b6040516020016109f094939291906119a4565b604051602081830303815290604052905090565b600d805461084490611d00565b600c805461084490611d00565b8351610a3190600d90602087019061163c565b508251610a4590600e90602086019061163c565b508151610a5990600f90602085019061163c565b508051610a6d90600790602084019061163c565b5050505050565b8051610a8790600790602084019061163c565b5050565b600354610aeb5760405162461bcd60e51b815260206004820152602860248201527f746869732073746174656d616368696e6520686173206e6f74206265656e2073604482015267195d1d5c081e595d60c21b60648201526084016109bc565b80610afd610af761094c565b82611180565b600480548382556000848152600260205260408120919291909101905b8154811015610b9357610b818386848481548110610b4857634e487b7160e01b600052603260045260246000fd5b90600052602060002090600491828204019190066008029054906101000a900480156116c0021767ffffffffffffffff1663ffffffff16565b80610b8b81611d3b565b915050610b1a565b506040805160808101825283815260208082018781523383850181815242606080870191825260018054808201825560009190915296517fb10e2d527612073b26eecdfd717e6a320cf44b4afac2b0732d9fcbe2b7fa0cf660049889029081019190915594517fb10e2d527612073b26eecdfd717e6a320cf44b4afac2b0732d9fcbe2b7fa0cf786015591517fb10e2d527612073b26eecdfd717e6a320cf44b4afac2b0732d9fcbe2b7fa0cf8850180546001600160a01b0319166001600160a01b03909216919091179055517fb10e2d527612073b26eecdfd717e6a320cf44b4afac2b0732d9fcbe2b7fa0cf99093019290925592548451938452918301869052928201527f483a31c379a4b707332853662276a3424ec44f0ccbfc20d78fd9d143694f7669910160405180910390a150505050565b6060600b805480602002602001604051908101604052809291908181526020018280548015610921576020028201919060005260206000209081548152602001906001019080831161090d575050505050905090565b6007805461084490611d00565b60606003805480602002602001604051908101604052809291908181526020018280548015610921576020028201919060005260206000209081548152602001906001019080831161090d575050505050905090565b60018181548110610d9357600080fd5b60009182526020909120600490910201805460018201546002830154600390930154919350916001600160a01b03169084565b60008080806001548510610e125760405162461bcd60e51b8152602060048201526013602482015272496e646578206f7574206f6620626f756e647360681b60448201526064016109bc565b60018581548110610e3357634e487b7160e01b600052603260045260246000fd5b90600052602060002090600402016000015460018681548110610e6657634e487b7160e01b600052603260045260246000fd5b90600052602060002090600402016001015460018781548110610e9957634e487b7160e01b600052603260045260246000fd5b906000526020600020906004020160020160009054906101000a90046001600160a01b031660018881548110610edf57634e487b7160e01b600052603260045260246000fd5b90600052602060002090600402016003015493509350935093509193509193565b600e805461084490611d00565b606060078054610f1c90611d00565b80601f0160208091040260200160405190810160405280929190818152602001828054610f4890611d00565b80156109215780601f10610f6a57610100808354040283529160200191610921565b820191906000526020600020905b815481529060010190602001808311610f7857509395945050505050565b60008281526009602052604090205460ff16610ff7576008805460018181019092557ff3f7a9fe364faab93b216da50a3214154f22a0a2b415b23a84c8169e8b636ee3018390556000838152600960205260409020805460ff191690911790555b6000828152600a6020908152604090912082516110169284019061163c565b505050565b60408051602880825260608281019093526000919060208201818036833701905050905060005b6014811015611177576000611058826013611c9a565b611063906008611c52565b61106e906002611b84565b611081906001600160a01b038716611b08565b60f81b9050600060108260f81c6110989190611b1c565b60f81b905060008160f81c60106110af9190611c71565b8360f81c6110bd9190611cb1565b60f81b90506110cb826113c1565b856110d7866002611c52565b815181106110f557634e487b7160e01b600052603260045260246000fd5b60200101906001600160f81b031916908160001a905350611115816113c1565b85611121866002611c52565b61112c906001611acb565b8151811061114a57634e487b7160e01b600052603260045260246000fd5b60200101906001600160f81b031916908160001a905350505050808061116f90611d3b565b915050611042565b5090505b919050565b60008281526002602052604090205460ff166111fc5760405162461bcd60e51b815260206004820152603560248201527f7468652066726f6d20737461746520686173206e6f74206265656e20636f6e666044820152741a59dd5c9959081a5b881d1a1a5cc81bd89a9958dd605a1b60648201526084016109bc565b60008181526002602052604090205460ff166112765760405162461bcd60e51b815260206004820152603360248201527f74686520746f20737461746520686173206e6f74206265656e20636f6e6669676044820152721d5c9959081a5b881d1a1a5cc81bd89a9958dd606a1b60648201526084016109bc565b6112808282611401565b6113045760405162461bcd60e51b815260206004820152604960248201527f74686520726571756573746564206e657874207374617465206973206e6f742060448201527f616e20616c6c6f776564206e65787420737461746520666f72207468697320746064820152683930b739b4ba34b7b760b91b608482015260a4016109bc565b61130d816114bb565b6113b75760405162461bcd60e51b815260206004820152606960248201527f7468652073656e646572206f662074686973207472616e73616374696f6e206460448201527f6f6573206e6f742068617665206120726f6c65207468617420616c6c6f77732060648201527f7472616e736974696f6e206265747765656e207468652066726f6d20616e6420608482015268746f2073746174657360b81b60a482015260c4016109bc565b610a87828261153e565b6000600a60f883901c10156113e9576113df60f883901c6030611ae3565b60f81b905061117b565b6113f860f883901c6057611ae3565b60f81b92915050565b6000828152600260205260408120600501815b81548110156114b3576040805160208101869052016040516020818303038152906040528051906020012082828154811061145f57634e487b7160e01b600052603260045260246000fd5b906000526020600020015460405160200161147c91815260200190565b6040516020818303038152906040528051906020012014156114a157600192506114b3565b806114ab81611d3b565b915050611414565b505092915050565b600081815260026020819052604082200180546114d757600191505b60005b8154811015611537576115173383838154811061150757634e487b7160e01b600052603260045260246000fd5b9060005260206000200154611597565b156115255760019250611537565b8061152f81611d3b565b9150506114da565b5050919050565b6000818152600260205260408120600301905b81548110156115915761157f8484848481548110610b4857634e487b7160e01b600052603260045260246000fd5b8061158981611d3b565b915050611551565b50505050565b600080546001600160a01b031615806116355750600054604051630dace25b60e31b81526001600160a01b0385811660048301523060248301526044820185905290911690636d6712d89060640160206040518083038186803b1580156115fd57600080fd5b505afa158015611611573d6000803e3d6000fd5b505050506040513d601f19601f820116820180604052508101906116359190611772565b9392505050565b82805461164890611d00565b90600052602060002090601f01602090048101928261166a57600085556116b0565b82601f1061168357805160ff19168380011785556116b0565b828001600101855582156116b0579182015b828111156116b0578251825591602001919060010190611695565b506116bc9291506116d6565b5090565b634e487b7160e01b600052605160045260246000fd5b5b808211156116bc57600081556001016116d7565b600082601f8301126116fb578081fd5b813567ffffffffffffffff8082111561171657611716611d82565b604051601f8301601f19908116603f0116810190828211818310171561173e5761173e611d82565b81604052838152866020858801011115611756578485fd5b8360208701602083013792830160200193909352509392505050565b600060208284031215611783578081fd5b81518015158114611635578182fd5b6000602082840312156117a3578081fd5b5035919050565b600080604083850312156117bc578081fd5b82359150602083013567ffffffffffffffff8111156117d9578182fd5b6117e5858286016116eb565b9150509250929050565b600060208284031215611800578081fd5b813567ffffffffffffffff811115611816578182fd5b611822848285016116eb565b949350505050565b6000806000806080858703121561183f578182fd5b843567ffffffffffffffff80821115611856578384fd5b611862888389016116eb565b95506020870135915080821115611877578384fd5b611883888389016116eb565b94506040870135915080821115611898578384fd5b6118a4888389016116eb565b935060608701359150808211156118b9578283fd5b506118c6878288016116eb565b91505092959194509250565b6000815180845260208085019450808401835b83811015611901578151875295820195908201906001016118e5565b509495945050505050565b8054600090600181811c908083168061192657607f831692505b602080841082141561194657634e487b7160e01b86526022600452602486fd5b81801561195a576001811461196b57611998565b60ff19861689528489019650611998565b60008881526020902060005b868110156119905781548b820152908501908301611977565b505084890196505b50505050505092915050565b6000733234b21d3232b6b79d383430b936b0b830b1b59d60611b82526119df6119d96119d3601485018961190c565b8761190c565b8561190c565b83516119ef818360208801611cd4565b019695505050505050565b60006020825261163560208301846118d2565b6000868252602060a081840152611a2760a08401886118d2565b8381036040850152611a3981886118d2565b84810360608601528651808252838801925090830190845b81811015611a775783516001600160e01b03191683529284019291840191600101611a51565b505080935050505063ffffffff60e01b831660808301529695505050505050565b6000602082528251806020840152611ab7816040850160208701611cd4565b601f01601f19169190910160400192915050565b60008219821115611ade57611ade611d56565b500190565b600060ff821660ff84168060ff03821115611b0057611b00611d56565b019392505050565b600082611b1757611b17611d6c565b500490565b600060ff831680611b2f57611b2f611d6c565b8060ff84160491505092915050565b80825b6001808611611b505750611b7b565b818704821115611b6257611b62611d56565b80861615611b6f57918102915b9490941c938002611b41565b94509492505050565b60006116356000198484600082611b9d57506001611635565b81611baa57506000611635565b8160018114611bc05760028114611bca57611bf7565b6001915050611635565b60ff841115611bdb57611bdb611d56565b6001841b915084821115611bf157611bf1611d56565b50611635565b5060208310610133831016604e8410600b8410161715611c2a575081810a83811115611c2557611c25611d56565b611635565b611c378484846001611b3e565b808604821115611c4957611c49611d56565b02949350505050565b6000816000190483118215151615611c6c57611c6c611d56565b500290565b600060ff821660ff84168160ff0481118215151615611c9257611c92611d56565b029392505050565b600082821015611cac57611cac611d56565b500390565b600060ff821660ff841680821015611ccb57611ccb611d56565b90039392505050565b60005b83811015611cef578181015183820152602001611cd7565b838111156115915750506000910152565b600181811c90821680611d1457607f821691505b60208210811415611d3557634e487b7160e01b600052602260045260246000fd5b50919050565b6000600019821415611d4f57611d4f611d56565b5060010190565b634e487b7160e01b600052601160045260246000fd5b634e487b7160e01b600052601260045260246000fd5b634e487b7160e01b600052604160045260246000fdfea26469706673582212206c8692f5be6107dc98be11a4dd9e1f4ad0c6d8e7b332be7c86ba9d44ba8dc7c464736f6c6343000803003353544154455f41545f524553454c4c455200000000000000000000000000000074686520737461746520686173206e6f74206265656e2063726561746564207953544154455f41545f504841524d41435900000000000000000000000000000053544154455f494e5f5452414e5349545f52325000000000000000000000000053544154455f494e5f5452414e5349545f4d325200000000000000000000000053544154455f5041434b414745445f4c4142454c45440000000000000000000053544154455f494e5f5452414e5349545f52325200000000000000000000000053544154455f46554c4c46494c4c45445f544f5f50415449454e54000000000053656e646572206e65656473205550444154455f55494649454c44444546494e4954494f4e535f524f4c4553656e646572206e65656473204352454154455f53544154454d414348494e455f524f4c45a264697066735822122033735d93e62a8d7d6c6c0b8e827e28a6963540afe01a9dac6a7b702b5d43a21664736f6c63430008030033",
  "immutableReferences": {},
  "source": "/**\n * Copyright (C) SettleMint NV - All Rights Reserved\n *\n * Use of this file is strictly prohibited without an active license agreement.\n * Distribution of this file, via any medium, is strictly prohibited.\n *\n * For license inquiries, contact hello@settlemint.com\n *\n * SPDX-License-Identifier: UNLICENSED\n */\n\npragma solidity ^0.8.0;\n\nimport '../_library//provenance/statemachine/StateMachineFactory.sol';\nimport './DrugPackage.sol';\nimport './DrugPackageRegistry.sol';\n\n/**\n * @title Factory contract for drug package state machines\n */\ncontract DrugPackageFactory is StateMachineFactory {\n  constructor(GateKeeper gateKeeper, DrugPackageRegistry registry) StateMachineFactory(gateKeeper, registry) {}\n\n  /**\n   * @notice Create new drug package\n   * @dev Factory method to create a new drug package. Emits StateMachineCreated event.\n   * @param labellerCode identifying the package labeller\n   * @param productCode identifying the product inside the package\n   * @param packageCode identifying the package itself\n   * @param ipfsFieldContainerHash ipfs hash of drug package metadata\n   */\n  function create(\n    string memory labellerCode,\n    string memory productCode,\n    string memory packageCode,\n    string memory ipfsFieldContainerHash\n  ) public authWithCustomReason(CREATE_STATEMACHINE_ROLE, 'Sender needs CREATE_STATEMACHINE_ROLE') {\n    bytes memory memProof = bytes(labellerCode);\n    require(memProof.length > 0, 'A labellerCode is required');\n    memProof = bytes(productCode);\n    require(memProof.length > 0, 'A productCode is required');\n    memProof = bytes(packageCode);\n    require(memProof.length > 0, 'A packageCode is required');\n\n    DrugPackage drugPackage =\n      new DrugPackage(\n        address(gateKeeper),\n        labellerCode,\n        productCode,\n        packageCode,\n        ipfsFieldContainerHash,\n        _uiFieldDefinitionsHash\n      );\n\n    // Give every role registry a single permission on the newly created expense.\n    bytes32[] memory roles = drugPackage.getRoles();\n    for (uint256 i = 0; i < roles.length; i++) {\n      gateKeeper.createPermission(\n        gateKeeper.getRoleRegistryAddress(roles[i]),\n        address(drugPackage),\n        roles[i],\n        address(this)\n      );\n    }\n\n    _registry.insert(address(drugPackage));\n    emit StateMachineCreated(address(drugPackage));\n  }\n}\n",
  "sourcePath": "/home/coder/project/contracts/drugpackage/DrugPackageFactory.sol",
  "compiler": {
    "name": "solc",
    "version": "0.8.3+commit.8d00100c.Emscripten.clang"
  },
  "schemaVersion": "3.4.1",
  "updatedAt": "2021-08-01T16:33:49.161Z",
  "devdoc": {
    "kind": "dev",
    "methods": {
      "create(string,string,string,string)": {
        "details": "Factory method to create a new drug package. Emits StateMachineCreated event.",
        "params": {
          "ipfsFieldContainerHash": "ipfs hash of drug package metadata",
          "labellerCode": "identifying the package labeller",
          "packageCode": "identifying the package itself",
          "productCode": "identifying the product inside the package"
        }
      },
      "setUIFieldDefinitionsHash(string)": {
        "params": {
          "uiFieldDefinitionsHash": "value to assign to _uiFieldDefinitionsHash"
        }
      }
    },
    "title": "Factory contract for drug package state machines",
    "version": 1
  },
  "userdoc": {
    "kind": "user",
    "methods": {
      "create(string,string,string,string)": {
        "notice": "Create new drug package"
      },
      "getUIFieldDefinitionsHash()": {
        "notice": "Retrieves the value of `_uiFieldDefinitionsHash`"
      },
      "setUIFieldDefinitionsHash(string)": {
        "notice": "Sets the value of `_uiFieldDefinitionsHash`"
      }
    },
    "version": 1
  }
}