{
  "contractName": "ERC1410Token",
  "abi": [
    {
      "inputs": [
        {
          "internalType": "address",
          "name": "gateKeeper",
          "type": "address"
        },
        {
          "internalType": "uint256",
          "name": "granularity",
          "type": "uint256"
        }
      ],
      "stateMutability": "nonpayable",
      "type": "constructor"
    },
    {
      "anonymous": false,
      "inputs": [
        {
          "indexed": true,
          "internalType": "address",
          "name": "operator",
          "type": "address"
        },
        {
          "indexed": true,
          "internalType": "address",
          "name": "tokenHolder",
          "type": "address"
        }
      ],
      "name": "AuthorizedOperator",
      "type": "event"
    },
    {
      "anonymous": false,
      "inputs": [
        {
          "indexed": true,
          "internalType": "bytes32",
          "name": "tranche",
          "type": "bytes32"
        },
        {
          "indexed": true,
          "internalType": "address",
          "name": "operator",
          "type": "address"
        },
        {
          "indexed": true,
          "internalType": "address",
          "name": "tokenHolder",
          "type": "address"
        }
      ],
      "name": "AuthorizedOperatorByTranche",
      "type": "event"
    },
    {
      "anonymous": false,
      "inputs": [
        {
          "indexed": true,
          "internalType": "address",
          "name": "operator",
          "type": "address"
        },
        {
          "indexed": true,
          "internalType": "address",
          "name": "from",
          "type": "address"
        },
        {
          "indexed": false,
          "internalType": "uint256",
          "name": "amount",
          "type": "uint256"
        },
        {
          "indexed": false,
          "internalType": "bytes",
          "name": "userData",
          "type": "bytes"
        },
        {
          "indexed": false,
          "internalType": "bytes",
          "name": "operatorData",
          "type": "bytes"
        }
      ],
      "name": "Burned",
      "type": "event"
    },
    {
      "anonymous": false,
      "inputs": [
        {
          "indexed": true,
          "internalType": "bytes32",
          "name": "fromTranche",
          "type": "bytes32"
        },
        {
          "indexed": true,
          "internalType": "bytes32",
          "name": "toTranche",
          "type": "bytes32"
        },
        {
          "indexed": false,
          "internalType": "uint256",
          "name": "amount",
          "type": "uint256"
        }
      ],
      "name": "ChangedTranche",
      "type": "event"
    },
    {
      "anonymous": false,
      "inputs": [
        {
          "indexed": true,
          "internalType": "address",
          "name": "operator",
          "type": "address"
        },
        {
          "indexed": true,
          "internalType": "address",
          "name": "to",
          "type": "address"
        },
        {
          "indexed": false,
          "internalType": "uint256",
          "name": "amount",
          "type": "uint256"
        },
        {
          "indexed": false,
          "internalType": "bytes",
          "name": "operatorData",
          "type": "bytes"
        }
      ],
      "name": "Minted",
      "type": "event"
    },
    {
      "anonymous": false,
      "inputs": [
        {
          "indexed": true,
          "internalType": "address",
          "name": "previousOwner",
          "type": "address"
        },
        {
          "indexed": true,
          "internalType": "address",
          "name": "newOwner",
          "type": "address"
        }
      ],
      "name": "OwnershipTransferred",
      "type": "event"
    },
    {
      "anonymous": false,
      "inputs": [
        {
          "indexed": true,
          "internalType": "address",
          "name": "operator",
          "type": "address"
        },
        {
          "indexed": true,
          "internalType": "address",
          "name": "tokenHolder",
          "type": "address"
        }
      ],
      "name": "RevokedOperator",
      "type": "event"
    },
    {
      "anonymous": false,
      "inputs": [
        {
          "indexed": true,
          "internalType": "bytes32",
          "name": "tranche",
          "type": "bytes32"
        },
        {
          "indexed": true,
          "internalType": "address",
          "name": "operator",
          "type": "address"
        },
        {
          "indexed": true,
          "internalType": "address",
          "name": "tokenHolder",
          "type": "address"
        }
      ],
      "name": "RevokedOperatorByTranche",
      "type": "event"
    },
    {
      "anonymous": false,
      "inputs": [
        {
          "indexed": true,
          "internalType": "address",
          "name": "operator",
          "type": "address"
        },
        {
          "indexed": true,
          "internalType": "address",
          "name": "from",
          "type": "address"
        },
        {
          "indexed": true,
          "internalType": "address",
          "name": "to",
          "type": "address"
        },
        {
          "indexed": false,
          "internalType": "uint256",
          "name": "amount",
          "type": "uint256"
        },
        {
          "indexed": false,
          "internalType": "bytes",
          "name": "userData",
          "type": "bytes"
        },
        {
          "indexed": false,
          "internalType": "bytes",
          "name": "operatorData",
          "type": "bytes"
        }
      ],
      "name": "Sent",
      "type": "event"
    },
    {
      "anonymous": false,
      "inputs": [
        {
          "indexed": true,
          "internalType": "bytes32",
          "name": "fromTranche",
          "type": "bytes32"
        },
        {
          "indexed": false,
          "internalType": "address",
          "name": "operator",
          "type": "address"
        },
        {
          "indexed": true,
          "internalType": "address",
          "name": "from",
          "type": "address"
        },
        {
          "indexed": true,
          "internalType": "address",
          "name": "to",
          "type": "address"
        },
        {
          "indexed": false,
          "internalType": "uint256",
          "name": "amount",
          "type": "uint256"
        },
        {
          "indexed": false,
          "internalType": "bytes",
          "name": "data",
          "type": "bytes"
        },
        {
          "indexed": false,
          "internalType": "bytes",
          "name": "operatorData",
          "type": "bytes"
        }
      ],
      "name": "SentByTranche",
      "type": "event"
    },
    {
      "inputs": [],
      "name": "BURN_ROLE",
      "outputs": [
        {
          "internalType": "bytes32",
          "name": "",
          "type": "bytes32"
        }
      ],
      "stateMutability": "view",
      "type": "function"
    },
    {
      "inputs": [],
      "name": "MANAGE_OPERATOR_ROLE",
      "outputs": [
        {
          "internalType": "bytes32",
          "name": "",
          "type": "bytes32"
        }
      ],
      "stateMutability": "view",
      "type": "function"
    },
    {
      "inputs": [],
      "name": "MINT_ROLE",
      "outputs": [
        {
          "internalType": "bytes32",
          "name": "",
          "type": "bytes32"
        }
      ],
      "stateMutability": "view",
      "type": "function"
    },
    {
      "inputs": [],
      "name": "_granularity",
      "outputs": [
        {
          "internalType": "uint256",
          "name": "",
          "type": "uint256"
        }
      ],
      "stateMutability": "view",
      "type": "function"
    },
    {
      "inputs": [],
      "name": "gateKeeper",
      "outputs": [
        {
          "internalType": "contract GateKeeper",
          "name": "",
          "type": "address"
        }
      ],
      "stateMutability": "view",
      "type": "function"
    },
    {
      "inputs": [],
      "name": "owner",
      "outputs": [
        {
          "internalType": "address",
          "name": "",
          "type": "address"
        }
      ],
      "stateMutability": "view",
      "type": "function"
    },
    {
      "inputs": [],
      "name": "renounceOwnership",
      "outputs": [],
      "stateMutability": "nonpayable",
      "type": "function"
    },
    {
      "inputs": [
        {
          "internalType": "uint256",
          "name": "",
          "type": "uint256"
        }
      ],
      "name": "tokenHolders",
      "outputs": [
        {
          "internalType": "address",
          "name": "",
          "type": "address"
        }
      ],
      "stateMutability": "view",
      "type": "function"
    },
    {
      "inputs": [],
      "name": "totalSupply",
      "outputs": [
        {
          "internalType": "uint256",
          "name": "",
          "type": "uint256"
        }
      ],
      "stateMutability": "view",
      "type": "function"
    },
    {
      "inputs": [
        {
          "internalType": "address",
          "name": "newOwner",
          "type": "address"
        }
      ],
      "name": "transferOwnership",
      "outputs": [],
      "stateMutability": "nonpayable",
      "type": "function"
    },
    {
      "inputs": [
        {
          "internalType": "address",
          "name": "tokenHolder",
          "type": "address"
        }
      ],
      "name": "balanceOf",
      "outputs": [
        {
          "internalType": "uint256",
          "name": "",
          "type": "uint256"
        }
      ],
      "stateMutability": "view",
      "type": "function"
    },
    {
      "inputs": [
        {
          "internalType": "bytes32",
          "name": "tranche",
          "type": "bytes32"
        },
        {
          "internalType": "address",
          "name": "tokenHolder",
          "type": "address"
        }
      ],
      "name": "balanceOfByTranche",
      "outputs": [
        {
          "internalType": "uint256",
          "name": "",
          "type": "uint256"
        }
      ],
      "stateMutability": "view",
      "type": "function"
    },
    {
      "inputs": [
        {
          "internalType": "address",
          "name": "to",
          "type": "address"
        },
        {
          "internalType": "uint256",
          "name": "amount",
          "type": "uint256"
        }
      ],
      "name": "mint",
      "outputs": [],
      "stateMutability": "nonpayable",
      "type": "function"
    },
    {
      "inputs": [
        {
          "internalType": "bytes32",
          "name": "tranche",
          "type": "bytes32"
        },
        {
          "internalType": "address",
          "name": "to",
          "type": "address"
        },
        {
          "internalType": "uint256",
          "name": "amount",
          "type": "uint256"
        }
      ],
      "name": "mint",
      "outputs": [],
      "stateMutability": "nonpayable",
      "type": "function"
    },
    {
      "inputs": [
        {
          "internalType": "bytes32",
          "name": "tranche",
          "type": "bytes32"
        },
        {
          "internalType": "address",
          "name": "from",
          "type": "address"
        },
        {
          "internalType": "uint256",
          "name": "amount",
          "type": "uint256"
        }
      ],
      "name": "burn",
      "outputs": [],
      "stateMutability": "nonpayable",
      "type": "function"
    },
    {
      "inputs": [
        {
          "internalType": "address",
          "name": "from",
          "type": "address"
        },
        {
          "internalType": "uint256",
          "name": "amount",
          "type": "uint256"
        }
      ],
      "name": "burn",
      "outputs": [],
      "stateMutability": "nonpayable",
      "type": "function"
    },
    {
      "inputs": [
        {
          "internalType": "bytes32",
          "name": "tranche",
          "type": "bytes32"
        }
      ],
      "name": "defaultOperatorsByTranche",
      "outputs": [
        {
          "internalType": "address[]",
          "name": "",
          "type": "address[]"
        }
      ],
      "stateMutability": "view",
      "type": "function"
    },
    {
      "inputs": [
        {
          "internalType": "address",
          "name": "operator",
          "type": "address"
        },
        {
          "internalType": "address",
          "name": "tokenHolder",
          "type": "address"
        }
      ],
      "name": "authorizeOperator",
      "outputs": [],
      "stateMutability": "nonpayable",
      "type": "function"
    },
    {
      "inputs": [
        {
          "internalType": "address",
          "name": "operator",
          "type": "address"
        }
      ],
      "name": "authorizeOperator",
      "outputs": [],
      "stateMutability": "nonpayable",
      "type": "function"
    },
    {
      "inputs": [
        {
          "internalType": "bytes32",
          "name": "tranche",
          "type": "bytes32"
        },
        {
          "internalType": "address",
          "name": "operator",
          "type": "address"
        }
      ],
      "name": "authorizeOperatorByTranche",
      "outputs": [],
      "stateMutability": "nonpayable",
      "type": "function"
    },
    {
      "inputs": [
        {
          "internalType": "bytes32",
          "name": "tranche",
          "type": "bytes32"
        },
        {
          "internalType": "address",
          "name": "operator",
          "type": "address"
        },
        {
          "internalType": "address",
          "name": "tokenHolder",
          "type": "address"
        }
      ],
      "name": "authorizeOperatorByTranche",
      "outputs": [],
      "stateMutability": "nonpayable",
      "type": "function"
    },
    {
      "inputs": [
        {
          "internalType": "address",
          "name": "operator",
          "type": "address"
        },
        {
          "internalType": "address",
          "name": "tokenHolder",
          "type": "address"
        }
      ],
      "name": "revokeOperator",
      "outputs": [],
      "stateMutability": "nonpayable",
      "type": "function"
    },
    {
      "inputs": [
        {
          "internalType": "address",
          "name": "operator",
          "type": "address"
        }
      ],
      "name": "revokeOperator",
      "outputs": [],
      "stateMutability": "nonpayable",
      "type": "function"
    },
    {
      "inputs": [
        {
          "internalType": "bytes32",
          "name": "tranche",
          "type": "bytes32"
        },
        {
          "internalType": "address",
          "name": "operator",
          "type": "address"
        },
        {
          "internalType": "address",
          "name": "tokenHolder",
          "type": "address"
        }
      ],
      "name": "revokeOperatorByTranche",
      "outputs": [],
      "stateMutability": "nonpayable",
      "type": "function"
    },
    {
      "inputs": [
        {
          "internalType": "bytes32",
          "name": "tranche",
          "type": "bytes32"
        },
        {
          "internalType": "address",
          "name": "operator",
          "type": "address"
        }
      ],
      "name": "revokeOperatorByTranche",
      "outputs": [],
      "stateMutability": "nonpayable",
      "type": "function"
    },
    {
      "inputs": [
        {
          "internalType": "address",
          "name": "operator",
          "type": "address"
        },
        {
          "internalType": "address",
          "name": "tokenHolder",
          "type": "address"
        }
      ],
      "name": "isOperatorFor",
      "outputs": [
        {
          "internalType": "bool",
          "name": "",
          "type": "bool"
        }
      ],
      "stateMutability": "view",
      "type": "function"
    },
    {
      "inputs": [
        {
          "internalType": "bytes32",
          "name": "tranche",
          "type": "bytes32"
        },
        {
          "internalType": "address",
          "name": "operator",
          "type": "address"
        },
        {
          "internalType": "address",
          "name": "tokenHolder",
          "type": "address"
        }
      ],
      "name": "isOperatorForTranche",
      "outputs": [
        {
          "internalType": "bool",
          "name": "",
          "type": "bool"
        }
      ],
      "stateMutability": "view",
      "type": "function"
    },
    {
      "inputs": [
        {
          "internalType": "address",
          "name": "to",
          "type": "address"
        },
        {
          "internalType": "uint256",
          "name": "amount",
          "type": "uint256"
        },
        {
          "internalType": "bytes",
          "name": "userData",
          "type": "bytes"
        }
      ],
      "name": "send",
      "outputs": [],
      "stateMutability": "nonpayable",
      "type": "function"
    },
    {
      "inputs": [
        {
          "internalType": "address",
          "name": "to",
          "type": "address"
        },
        {
          "internalType": "uint256",
          "name": "amount",
          "type": "uint256"
        }
      ],
      "name": "send",
      "outputs": [],
      "stateMutability": "nonpayable",
      "type": "function"
    },
    {
      "inputs": [
        {
          "internalType": "address",
          "name": "from",
          "type": "address"
        },
        {
          "internalType": "address",
          "name": "to",
          "type": "address"
        },
        {
          "internalType": "uint256",
          "name": "amount",
          "type": "uint256"
        },
        {
          "internalType": "bytes",
          "name": "userData",
          "type": "bytes"
        },
        {
          "internalType": "bytes",
          "name": "operatorData",
          "type": "bytes"
        }
      ],
      "name": "operatorSend",
      "outputs": [],
      "stateMutability": "nonpayable",
      "type": "function"
    },
    {
      "inputs": [
        {
          "internalType": "bytes32",
          "name": "tranche",
          "type": "bytes32"
        },
        {
          "internalType": "address",
          "name": "to",
          "type": "address"
        },
        {
          "internalType": "uint256",
          "name": "amount",
          "type": "uint256"
        },
        {
          "internalType": "bytes",
          "name": "data",
          "type": "bytes"
        }
      ],
      "name": "sendByTranche",
      "outputs": [
        {
          "internalType": "bytes32",
          "name": "",
          "type": "bytes32"
        }
      ],
      "stateMutability": "nonpayable",
      "type": "function"
    },
    {
      "inputs": [
        {
          "internalType": "bytes32[]",
          "name": "tranches",
          "type": "bytes32[]"
        },
        {
          "internalType": "address",
          "name": "to",
          "type": "address"
        },
        {
          "internalType": "uint256[]",
          "name": "amounts",
          "type": "uint256[]"
        },
        {
          "internalType": "bytes",
          "name": "data",
          "type": "bytes"
        }
      ],
      "name": "sendByTranches",
      "outputs": [
        {
          "internalType": "bytes32[]",
          "name": "tr",
          "type": "bytes32[]"
        }
      ],
      "stateMutability": "nonpayable",
      "type": "function"
    },
    {
      "inputs": [
        {
          "internalType": "bytes32",
          "name": "tranche",
          "type": "bytes32"
        },
        {
          "internalType": "address",
          "name": "from",
          "type": "address"
        },
        {
          "internalType": "address",
          "name": "to",
          "type": "address"
        },
        {
          "internalType": "uint256",
          "name": "amount",
          "type": "uint256"
        },
        {
          "internalType": "bytes",
          "name": "data",
          "type": "bytes"
        },
        {
          "internalType": "bytes",
          "name": "operatorData",
          "type": "bytes"
        }
      ],
      "name": "operatorSendByTranche",
      "outputs": [
        {
          "internalType": "bytes32",
          "name": "tr",
          "type": "bytes32"
        }
      ],
      "stateMutability": "nonpayable",
      "type": "function"
    },
    {
      "inputs": [
        {
          "internalType": "bytes32[]",
          "name": "tranches",
          "type": "bytes32[]"
        },
        {
          "internalType": "address",
          "name": "from",
          "type": "address"
        },
        {
          "internalType": "address",
          "name": "to",
          "type": "address"
        },
        {
          "internalType": "uint256[]",
          "name": "amounts",
          "type": "uint256[]"
        },
        {
          "internalType": "bytes",
          "name": "data",
          "type": "bytes"
        },
        {
          "internalType": "bytes",
          "name": "operatorData",
          "type": "bytes"
        }
      ],
      "name": "operatorSendByTranches",
      "outputs": [
        {
          "internalType": "bytes32[]",
          "name": "tr",
          "type": "bytes32[]"
        }
      ],
      "stateMutability": "nonpayable",
      "type": "function"
    },
    {
      "inputs": [
        {
          "internalType": "address",
          "name": "tokenHolder",
          "type": "address"
        },
        {
          "internalType": "bytes32",
          "name": "tranche",
          "type": "bytes32"
        }
      ],
      "name": "hasTranche",
      "outputs": [
        {
          "internalType": "bool",
          "name": "",
          "type": "bool"
        }
      ],
      "stateMutability": "view",
      "type": "function"
    },
    {
      "inputs": [
        {
          "internalType": "address",
          "name": "tokenHolder",
          "type": "address"
        },
        {
          "internalType": "bytes32",
          "name": "tranche",
          "type": "bytes32"
        }
      ],
      "name": "addTranche",
      "outputs": [],
      "stateMutability": "nonpayable",
      "type": "function"
    },
    {
      "inputs": [
        {
          "internalType": "address",
          "name": "tokenHolder",
          "type": "address"
        }
      ],
      "name": "tranchesOf",
      "outputs": [
        {
          "internalType": "bytes32[]",
          "name": "tranches",
          "type": "bytes32[]"
        }
      ],
      "stateMutability": "view",
      "type": "function"
    },
    {
      "inputs": [
        {
          "internalType": "address",
          "name": "tokenHolder",
          "type": "address"
        }
      ],
      "name": "getDefaultTranches",
      "outputs": [
        {
          "internalType": "bytes32[]",
          "name": "tranches",
          "type": "bytes32[]"
        }
      ],
      "stateMutability": "view",
      "type": "function"
    },
    {
      "inputs": [
        {
          "internalType": "address",
          "name": "tokenHolder",
          "type": "address"
        }
      ],
      "name": "getDefaultTranche",
      "outputs": [
        {
          "internalType": "bytes32",
          "name": "tranche",
          "type": "bytes32"
        }
      ],
      "stateMutability": "view",
      "type": "function"
    },
    {
      "inputs": [
        {
          "internalType": "bytes32[]",
          "name": "tranches",
          "type": "bytes32[]"
        }
      ],
      "name": "setDefaultTranches",
      "outputs": [],
      "stateMutability": "nonpayable",
      "type": "function"
    }
  ],
  "bytecode": "0x60806040523480156200001157600080fd5b506040516200263338038062002633833981016040819052620000349162000156565b600080546001600160a01b0319166001600160a01b038416178155620000573390565b600180546001600160a01b0319166001600160a01b038316908117909155604051919250906000907f8be0079c531659141344cd1fd0a4f28419497f9722a3daafe3b4186f6b6457e0908290a3506001811015620001475760405162461bcd60e51b815260206004820152605660248201527f54686520736d616c6c657320756e697420666f7220696e746572616374696f6e60448201527f2077697468207468697320636f6e7472616374206d757374206265206772656160648201527f746572207468616e206f7220657175616c20746f203100000000000000000000608482015260a40160405180910390fd5b60025550600060035562000190565b6000806040838503121562000169578182fd5b82516001600160a01b038116811462000180578283fd5b6020939093015192949293505050565b61249380620001a06000396000f3fe608060405234801561001057600080fd5b50600436106102485760003560e01c80639bd9bbc61161013b578063dbe776b8116100b8578063ee60b2011161007c578063ee60b2011461052b578063f2fde38b1461053e578063f3be07eb14610551578063fad8b32a14610564578063fb913d141461057757610248565b8063dbe776b8146104c9578063e3da9f8f146104dc578063e9a9c850146104fc578063ea1ecff41461050f578063eaba86a61461052257610248565b8063c79eb9bd116100ff578063c79eb9bd1461046a578063cd9a7a561461047d578063d0679d3414610490578063d4c7cbee146104a3578063d95b6371146104b657610248565b80639bd9bbc61461040b5780639dc29fac1461041e578063ae4587c914610431578063b930908f14610444578063c2e12f211461045757610248565b80635c025e03116101c95780637da938a01161018d5780637da938a0146103a35780637ed9db59146103c15780638da5cb5b146103d4578063923108d9146103e5578063959b8c3f146103f857610248565b80635c025e031461034f57806362ad1b831461036257806370a0823114610375578063715018a6146103885780637783b0aa1461039057610248565b80633b8dbf6d116102105780633b8dbf6d146102d857806340c10f19146102eb57806345d61ded146102fe5780634b901b7214610329578063569d6ba21461033c57610248565b80630d707a4f1461024d578063163687ab1461026257806318160ddd1461028b578063346a9074146102a25780633781e576146102b5575b600080fd5b61026061025b366004611ff9565b61058a565b005b610275610270366004611fbd565b610672565b60405161028291906121b2565b60405180910390f35b61029460035481565b604051908152602001610282565b6102606102b0366004612097565b6106e8565b6102c86102c3366004611ff9565b610934565b6040519015158152602001610282565b6102946102e636600461203a565b6109fb565b6102606102f9366004611d87565b610aba565b600054610311906001600160a01b031681565b6040516001600160a01b039091168152602001610282565b610294610337366004611fd5565b610b83565b61026061034a366004611cbf565b610bae565b61026061035d366004611fd5565b610c04565b610260610370366004611cf7565b610cc6565b610294610383366004611c87565b610cea565b610260610d94565b6102c861039e366004611d87565b610e38565b610294734d414e4147455f4f50455241544f525f524f4c4560601b81565b6102606103cf366004612097565b610ece565b6001546001600160a01b0316610311565b6103116103f3366004611fbd565b611098565b610260610406366004611c87565b6110c2565b610260610419366004611db2565b6110dd565b61026061042c366004611d87565b6110fe565b61026061043f366004611d87565b611149565b610294684255524e5f524f4c4560b81b81565b610260610465366004611e09565b611184565b610260610478366004611cbf565b6111c5565b61026061048b366004611fd5565b61121b565b61026061049e366004611d87565b6112da565b6102606104b1366004611ff9565b6112f4565b6102c86104c4366004611cbf565b6113d4565b6102946104d7366004611c87565b6113ed565b6104ef6104ea366004611c87565b611435565b60405161028291906121ff565b610294684d494e545f524f4c4560b81b81565b6104ef61051d366004611f04565b6114a0565b61029460025481565b6104ef610539366004611e3c565b6114c8565b61026061054c366004611c87565b6118ab565b6104ef61055f366004611c87565b6119c6565b610260610572366004611c87565b611a30565b6102946105853660046120ce565b611a47565b734d414e4147455f4f50455241544f525f524f4c4560601b6105ac3382611a66565b6105d15760405162461bcd60e51b81526004016105c8906122e5565b60405180910390fd5b336000908152600a6020908152604080832087845282528083206001600160a01b0387811680865291909352818420805460ff1916905590519185169290917f50546e66e5f44d728365dc3908c63bc5cfeeab470722c1677e3073a6ac294aa19190a360405133906001600160a01b0385169086907f804e2f33965c2a16a0052522f6dd85a243ef6996517b1ed270e9ab2699dfc28590600090a450505050565b3360009081526009602090815260408083208484528252918290208054835181840281018401909452808452606093928301828280156106db57602002820191906000526020600020905b81546001600160a01b031681526001909101906020018083116106bd575b505050505090505b919050565b684255524e5f524f4c4560b81b6106ff3382611a66565b61071b5760405162461bcd60e51b81526004016105c8906122e5565b610726843385610934565b6107725760405162461bcd60e51b815260206004820152601e60248201527f4f6e6c79206f70657261746f72732063616e206275726e20746f6b656e73000060448201526064016105c8565b61077b82611b0b565b6107975760405162461bcd60e51b81526004016105c890612237565b600082116107e75760405162461bcd60e51b815260206004820152601e60248201527f416d6f756e742073686f756c6420626520626967676572207468616e2030000060448201526064016105c8565b6001600160a01b03831660009081526008602090815260408083208784529091529020548211156108665760405162461bcd60e51b8152602060048201526024808201527f4163636f756e742062616c616e63652073686f756c64206265207375666669636044820152631a595b9d60e21b60648201526084016105c8565b6001600160a01b03831660009081526008602090815260408083208784529091529020546108959083906123e7565b6001600160a01b03841660009081526008602090815260408083208884529091529020556003546108c79083906123e7565b6003556040516001600160a01b0384169033907fa78a9be3a7b862d26933ad85fb11d80ef66b8f972d7cbba06621d583943a40989061092690868152606060208201819052600090820181905260806040830181905282015260a00190565b60405180910390a350505050565b6000306001600160a01b0316638da5cb5b6040518163ffffffff1660e01b815260040160206040518083038186803b15801561096f57600080fd5b505afa158015610983573d6000803e3d6000fd5b505050506040513d601f19601f820116820180604052508101906109a79190611ca3565b6001600160a01b0316836001600160a01b031614806109f357506001600160a01b038083166000908152600a6020908152604080832088845282528083209387168352929052205460ff165b949350505050565b604080516001808252818301909252600091829190602080830190803683370190505090508781600081518110610a4257634e487b7160e01b600052603260045260246000fd5b60209081029190910101526040805160018082528183019092526000918160200160208202803683370190505090508581600081518110610a9357634e487b7160e01b600052603260045260246000fd5b602002602001018181525050610aad8289898489896114c8565b5050509695505050505050565b684d494e545f524f4c4560b81b610ad13382611a66565b610aed5760405162461bcd60e51b81526004016105c8906122e5565b6001600160a01b038316600090815260056020526040902054610b655760048054600181019091557f8a35acfbc15ff81a39ae7d344fd709f28e8600b4aa8c65c6b64bfe7fe36bd19b0180546001600160a01b0319166001600160a01b03851690811790915560009081526005602052604090204290555b6000610b70846113ed565b9050610b7d818585610ece565b50505050565b6001600160a01b03811660009081526008602090815260408083208584529091529020545b92915050565b734d414e4147455f4f50455241544f525f524f4c4560601b610bd03382611a66565b610bec5760405162461bcd60e51b81526004016105c8906122e5565b6000610bf7336113ed565b9050610b7d8185856112f4565b6001600160a01b038116331415610c2d5760405162461bcd60e51b81526004016105c890612295565b336000818152600a6020908152604080832086845282528083206001600160a01b0386168085529252808320805460ff191660011790555190917ff4caeb2d6ca8932a215a353d0703c326ec2d81fc68170f320eb2ab49e9df61f991a360405133906001600160a01b0383169084907f628e06b1c154b35dffa0dbd4644d1c3b7feab575598431611291aa65103d145690600090a45050565b6000610cd1866113ed565b9050610ce18187878787876109fb565b50505050505050565b600080805b6001600160a01b038416600090815260066020526040902054811015610d8d576001600160a01b038416600090815260086020908152604080832060069092528220805491929184908110610d5457634e487b7160e01b600052603260045260246000fd5b906000526020600020015481526020019081526020016000205482610d799190612390565b915080610d85816123fe565b915050610cef565b5092915050565b6001546001600160a01b03163314610dee5760405162461bcd60e51b815260206004820181905260248201527f4f776e61626c653a2063616c6c6572206973206e6f7420746865206f776e657260448201526064016105c8565b6001546040516000916001600160a01b0316907f8be0079c531659141344cd1fd0a4f28419497f9722a3daafe3b4186f6b6457e0908390a3600180546001600160a01b0319169055565b6000805b6001600160a01b038416600090815260066020526040902054811015610ec4576001600160a01b0384166000908152600660205260409020805484919083908110610e9757634e487b7160e01b600052603260045260246000fd5b90600052602060002001541415610eb2576001915050610ba8565b80610ebc816123fe565b915050610e3c565b5060009392505050565b684d494e545f524f4c4560b81b610ee53382611a66565b610f015760405162461bcd60e51b81526004016105c8906122e5565b610f0c843385610934565b610f585760405162461bcd60e51b815260206004820152601e60248201527f4f6e6c79206f70657261746f72732063616e206d696e7420746f6b656e73000060448201526064016105c8565b610f6182611b0b565b610f7d5760405162461bcd60e51b81526004016105c890612237565b6001600160a01b038316600090815260056020526040902054610ff55760048054600181019091557f8a35acfbc15ff81a39ae7d344fd709f28e8600b4aa8c65c6b64bfe7fe36bd19b0180546001600160a01b0319166001600160a01b03851690811790915560009081526005602052604090204290555b816003546110039190612390565b6003556001600160a01b0383166000908152600860209081526040808320878452909152902054611035908390612390565b6001600160a01b03841660008181526008602090815260408083208984528252808320949094558351868152908101849052928301529033907fbcd28e05e57d4bcd5bfcc92a4661d412893e6112c44a2e25d96cfdfc30d5f22e90606001610926565b600481815481106110a857600080fd5b6000918252602090912001546001600160a01b0316905081565b60006110cd336113ed565b90506110d98183610c04565b5050565b6110f93384848460405180602001604052806000815250610cc6565b505050565b684255524e5f524f4c4560b81b6111153382611a66565b6111315760405162461bcd60e51b81526004016105c8906122e5565b600061113c846113ed565b9050610b7d8185856106e8565b6111538282610e38565b6110d9576001600160a01b039190911660009081526006602090815260408220805460018101825590835291200155565b33600090815260076020908152604090912082516111a492840190611b2e565b5033600090815260066020908152604090912082516110d992840190611b2e565b734d414e4147455f4f50455241544f525f524f4c4560601b6111e73382611a66565b6112035760405162461bcd60e51b81526004016105c8906122e5565b600061120e336113ed565b9050610b7d81858561058a565b6001600160a01b0381163314156112445760405162461bcd60e51b81526004016105c890612295565b336000818152600a6020908152604080832086845282528083206001600160a01b0386168085529252808320805460ff191690555190917f50546e66e5f44d728365dc3908c63bc5cfeeab470722c1677e3073a6ac294aa191a360405133906001600160a01b0383169084907f804e2f33965c2a16a0052522f6dd85a243ef6996517b1ed270e9ab2699dfc28590600090a45050565b6110d98282604051806020016040528060008152506110dd565b734d414e4147455f4f50455241544f525f524f4c4560601b6113163382611a66565b6113325760405162461bcd60e51b81526004016105c8906122e5565b6001600160a01b038083166000818152600a60209081526040808320898452825280832094881680845294909152808220805460ff19166001179055519192917ff4caeb2d6ca8932a215a353d0703c326ec2d81fc68170f320eb2ab49e9df61f99190a360405133906001600160a01b0385169086907f628e06b1c154b35dffa0dbd4644d1c3b7feab575598431611291aa65103d145690600090a450505050565b6000806113e0836113ed565b90506109f3818585610934565b6001600160a01b03811660009081526007602052604081208054829061142357634e487b7160e01b600052603260045260246000fd5b90600052602060002001549050919050565b6001600160a01b0381166000908152600660209081526040918290208054835181840281018401909452808452606093928301828280156106db57602002820191906000526020600020905b8154815260200190600101908083116114815750505050509050919050565b60606114bf8533868686604051806020016040528060008152506114c8565b95945050505050565b6060835187511461152d5760405162461bcd60e51b815260206004820152602960248201527f4e6f20312d31206d61746368206265747765656e207472616e6368657320616e6044820152686420616d6f756e747360b81b60648201526084016105c8565b6001600160a01b0385166115835760405162461bcd60e51b815260206004820152601c60248201527f4f6e6c792073656e6420746f2076616c6964206164647265737365730000000060448201526064016105c8565b6001600160a01b0385166000908152600560205260409020546115fb5760048054600181019091557f8a35acfbc15ff81a39ae7d344fd709f28e8600b4aa8c65c6b64bfe7fe36bd19b0180546001600160a01b0319166001600160a01b03871690811790915560009081526005602052604090204290555b60005b87518110156118a057600088828151811061162957634e487b7160e01b600052603260045260246000fd5b60200260200101519050600086838151811061165557634e487b7160e01b600052603260045260246000fd5b6020026020010151905061166a82338b610934565b6116b65760405162461bcd60e51b815260206004820152601e60248201527f4f6e6c79206f70657261746f72732063616e2073656e6420746f6b656e73000060448201526064016105c8565b6116bf81611b0b565b6116db5760405162461bcd60e51b81526004016105c890612237565b6001600160a01b038916600090815260086020908152604080832085845290915290205481111561175a5760405162461bcd60e51b8152602060048201526024808201527f456e737572652073656e646572206861732073756666696369656e742062616c604482015263616e636560e01b60648201526084016105c8565b6001600160a01b03891660009081526008602090815260408083208584529091529020546117899082906123e7565b6001600160a01b03808b166000908152600860208181526040808420888552825280842095909555928c168252825282812085825290915220546117ce908290612390565b6001600160a01b03808a16600081815260086020908152604080832088845290915290819020939093559151908b169033907f06b541ddaa720db2b10a4d0cdac39b8d360425fc073085fac19bc82614677987906118319086908c908c9061232a565b60405180910390a4876001600160a01b0316896001600160a01b0316837f88526839001f1c34e85ed1140c9a503abf0c60aa89545551affcc4373dbfdc8c33858b8b604051611883949392919061216e565b60405180910390a450508080611898906123fe565b9150506115fe565b509695505050505050565b6001546001600160a01b031633146119055760405162461bcd60e51b815260206004820181905260248201527f4f776e61626c653a2063616c6c6572206973206e6f7420746865206f776e657260448201526064016105c8565b6001600160a01b03811661196a5760405162461bcd60e51b815260206004820152602660248201527f4f776e61626c653a206e6577206f776e657220697320746865207a65726f206160448201526564647265737360d01b60648201526084016105c8565b6001546040516001600160a01b038084169216907f8be0079c531659141344cd1fd0a4f28419497f9722a3daafe3b4186f6b6457e090600090a3600180546001600160a01b0319166001600160a01b0392909216919091179055565b6001600160a01b0381166000908152600760209081526040918290208054835181840281018401909452808452606093928301828280156106db57602002820191906000526020600020908154815260200190600101908083116114815750505050509050919050565b6000611a3b336113ed565b90506110d9818361121b565b60006114bf8533868686604051806020016040528060008152506109fb565b600080546001600160a01b03161580611b045750600054604051630dace25b60e31b81526001600160a01b0385811660048301523060248301526044820185905290911690636d6712d89060640160206040518083038186803b158015611acc57600080fd5b505afa158015611ae0573d6000803e3d6000fd5b505050506040513d601f19601f82011682018060405250810190611b049190611f9d565b9392505050565b6002546000908290611b1d81836123a8565b611b2791906123c8565b1492915050565b828054828255906000526020600020908101928215611b69579160200282015b82811115611b69578251825591602001919060010190611b4e565b50611b75929150611b79565b5090565b5b80821115611b755760008155600101611b7a565b80356106e381612445565b600082601f830112611ba9578081fd5b8135602067ffffffffffffffff821115611bc557611bc561242f565b8160051b611bd482820161235f565b838152828101908684018388018501891015611bee578687fd5b8693505b85841015611c10578035835260019390930192918401918401611bf2565b50979650505050505050565b600082601f830112611c2c578081fd5b813567ffffffffffffffff811115611c4657611c4661242f565b611c59601f8201601f191660200161235f565b818152846020838601011115611c6d578283fd5b816020850160208301379081016020019190915292915050565b600060208284031215611c98578081fd5b8135611b0481612445565b600060208284031215611cb4578081fd5b8151611b0481612445565b60008060408385031215611cd1578081fd5b8235611cdc81612445565b91506020830135611cec81612445565b809150509250929050565b600080600080600060a08688031215611d0e578081fd5b8535611d1981612445565b94506020860135611d2981612445565b935060408601359250606086013567ffffffffffffffff80821115611d4c578283fd5b611d5889838a01611c1c565b93506080880135915080821115611d6d578283fd5b50611d7a88828901611c1c565b9150509295509295909350565b60008060408385031215611d99578182fd5b8235611da481612445565b946020939093013593505050565b600080600060608486031215611dc6578283fd5b8335611dd181612445565b925060208401359150604084013567ffffffffffffffff811115611df3578182fd5b611dff86828701611c1c565b9150509250925092565b600060208284031215611e1a578081fd5b813567ffffffffffffffff811115611e30578182fd5b6109f384828501611b99565b60008060008060008060c08789031215611e54578081fd5b863567ffffffffffffffff80821115611e6b578283fd5b611e778a838b01611b99565b9750611e8560208a01611b8e565b9650611e9360408a01611b8e565b95506060890135915080821115611ea8578283fd5b611eb48a838b01611b99565b94506080890135915080821115611ec9578283fd5b611ed58a838b01611c1c565b935060a0890135915080821115611eea578283fd5b50611ef789828a01611c1c565b9150509295509295509295565b60008060008060808587031215611f19578182fd5b843567ffffffffffffffff80821115611f30578384fd5b611f3c88838901611b99565b955060208701359150611f4e82612445565b90935060408601359080821115611f63578384fd5b611f6f88838901611b99565b93506060870135915080821115611f84578283fd5b50611f9187828801611c1c565b91505092959194509250565b600060208284031215611fae578081fd5b81518015158114611b04578182fd5b600060208284031215611fce578081fd5b5035919050565b60008060408385031215611fe7578182fd5b823591506020830135611cec81612445565b60008060006060848603121561200d578081fd5b83359250602084013561201f81612445565b9150604084013561202f81612445565b809150509250925092565b60008060008060008060c08789031215612052578384fd5b86359550602087013561206481612445565b9450604087013561207481612445565b935060608701359250608087013567ffffffffffffffff80821115611ec9578384fd5b6000806000606084860312156120ab578081fd5b8335925060208401356120bd81612445565b929592945050506040919091013590565b600080600080608085870312156120e3578182fd5b8435935060208501356120f581612445565b925060408501359150606085013567ffffffffffffffff811115612117578182fd5b611f9187828801611c1c565b60008151808452815b818110156121485760208185018101518683018201520161212c565b818111156121595782602083870101525b50601f01601f19169290920160200192915050565b600060018060a01b0386168252846020830152608060408301526121956080830185612123565b82810360608401526121a78185612123565b979650505050505050565b6020808252825182820181905260009190848201906040850190845b818110156121f35783516001600160a01b0316835292840192918401916001016121ce565b50909695505050505050565b6020808252825182820181905260009190848201906040850190845b818110156121f35783518352928401929184019160010161221b565b602080825260409082018190527f4f6e6c7920616d6f756e7473207768696368206172652061206d756c7469706c908201527f65206f6620746865206772616e756c61726974792061726520616c6c6f776564606082015260800190565b60208082526030908201527f546865206f776e6572206f662074686520746f6b656e7320697320627920646560408201526f19985d5b1d08185d5d1a1bdc9a5e995960821b606082015260800190565b60208082526025908201527f53656e64657220646f6573206e6f7420686176652074686520636f727265637460408201526420726f6c6560d81b606082015260800190565b6000848252606060208301526123436060830185612123565b82810360408401526123558185612123565b9695505050505050565b604051601f8201601f1916810167ffffffffffffffff811182821017156123885761238861242f565b604052919050565b600082198211156123a3576123a3612419565b500190565b6000826123c357634e487b7160e01b81526012600452602481fd5b500490565b60008160001904831182151516156123e2576123e2612419565b500290565b6000828210156123f9576123f9612419565b500390565b600060001982141561241257612412612419565b5060010190565b634e487b7160e01b600052601160045260246000fd5b634e487b7160e01b600052604160045260246000fd5b6001600160a01b038116811461245a57600080fd5b5056fea2646970667358221220e7995a78cf102295bc28ee6f25235b1c5aba9c37de0ca53ee89df70aacd8d78664736f6c63430008030033",
  "immutableReferences": {},
  "source": "// SPDX-License-Identifier: UNLICENSED\npragma solidity ^0.8.0;\n\nimport '@openzeppelin/contracts/access/Ownable.sol';\nimport '../../authentication/Secured.sol';\nimport '../ERC777/IERC777Token.sol';\nimport '../ERC777/IERC777TokenRecipient.sol';\nimport '../ERC777/IERC777TokenSender.sol';\nimport './IERC1410Token.sol';\n\ncontract ERC1410Token is IERC777Token, IERC1410Token, Secured, Ownable {\n  uint256 public _granularity;\n  uint256 public totalSupply;\n  address[] public tokenHolders;\n\n  mapping(address => uint256) internal seen;\n  mapping(address => bytes32[]) internal _tranches;\n  mapping(address => bytes32[]) internal defaultTranches;\n  mapping(address => mapping(bytes32 => uint256)) internal balancesByTranche;\n  mapping(address => mapping(bytes32 => address[])) internal pDefaultOperatorsByTranche;\n  mapping(address => mapping(bytes32 => mapping(address => bool))) internal operatorsByTranche;\n\n  constructor(address gateKeeper, uint256 granularity) Secured(gateKeeper) {\n    require(granularity >= 1, 'The smalles unit for interaction with this contract must be greater than or equal to 1');\n    _granularity = granularity;\n    totalSupply = 0;\n  }\n\n  /**\n   * Get the balance for a given address\n   * @param tokenHolder token owner\n   */\n  function balanceOf(address tokenHolder) public view override(IERC1410Token, IERC777Token) returns (uint256) {\n    uint256 balance = 0;\n    for (uint256 i = 0; i < _tranches[tokenHolder].length; i++) {\n      balance = balance + (balancesByTranche[tokenHolder][_tranches[tokenHolder][i]]);\n    }\n    return balance;\n  }\n\n  /**\n   * Get balance for given token holder by tranche\n   */\n  function balanceOfByTranche(bytes32 tranche, address tokenHolder) public view override returns (uint256) {\n    return balancesByTranche[tokenHolder][tranche];\n  }\n\n  /**\n   * Mint a certain amount of tokens for a certain address\n   */\n  function mint(address to, uint256 amount) public auth(MINT_ROLE) {\n    if (seen[to] == 0) {\n      tokenHolders.push(to);\n      seen[to] = block.timestamp;\n    }\n\n    bytes32 tranche = getDefaultTranche(to);\n    mint(tranche, to, amount);\n  }\n\n  /**\n   * Mint a certain amount of tokens for a certain address into a tranche\n   */\n  function mint(\n    bytes32 tranche,\n    address to,\n    uint256 amount\n  ) public auth(MINT_ROLE) {\n    require(isOperatorForTranche(tranche, msg.sender, to), 'Only operators can mint tokens');\n    require(isGranular(uint256(amount)), 'Only amounts which are a multiple of the granularity are allowed');\n\n    if (seen[to] == 0) {\n      tokenHolders.push(to);\n      seen[to] = block.timestamp;\n    }\n\n    totalSupply = totalSupply + (amount);\n    balancesByTranche[to][tranche] = balancesByTranche[to][tranche] + (amount);\n\n    emit Minted(msg.sender, to, amount, '');\n  }\n\n  /**\n   * Burn a certain amount of tokens for a certain address\n   */\n  function burn(address from, uint256 amount) public auth(BURN_ROLE) {\n    bytes32 tranche = getDefaultTranche(from);\n    burn(tranche, from, amount);\n  }\n\n  /**\n   * Burn a certain amount of tokens for a certain address\n   */\n  function burn(\n    bytes32 tranche,\n    address from,\n    uint256 amount\n  ) public auth(BURN_ROLE) {\n    require(isOperatorForTranche(tranche, msg.sender, from), 'Only operators can burn tokens');\n    require(isGranular(amount), 'Only amounts which are a multiple of the granularity are allowed');\n    require(amount > 0, 'Amount should be bigger than 0');\n    require(amount <= balancesByTranche[from][tranche], 'Account balance should be sufficient');\n\n    balancesByTranche[from][tranche] = balancesByTranche[from][tranche] - (amount);\n    totalSupply = totalSupply - (amount);\n\n    emit Burned(msg.sender, from, amount, '', '');\n  }\n\n  /**\n   * Get default operators for given tranche\n   */\n  function defaultOperatorsByTranche(bytes32 tranche) public view override returns (address[] memory) {\n    return pDefaultOperatorsByTranche[msg.sender][tranche];\n  }\n\n  /**\n   * Authorize the given operator full control over the msg.sender's tokens\n   */\n  function authorizeOperator(address operator) public override {\n    bytes32 tranche = getDefaultTranche(msg.sender);\n    authorizeOperatorByTranche(tranche, operator);\n  }\n\n  /**\n   * Authorize the given operator full control over the tokenholder's tokens\n   */\n  function authorizeOperator(address operator, address tokenHolder) public auth(MANAGE_OPERATOR_ROLE) {\n    bytes32 tranche = getDefaultTranche(msg.sender);\n    authorizeOperatorByTranche(tranche, operator, tokenHolder);\n  }\n\n  /**\n   * Authorize the given operator full control over the msg.sender's tokens for a given tranche\n   */\n  function authorizeOperatorByTranche(bytes32 tranche, address operator) public override {\n    require(operator != msg.sender, 'The owner of the tokens is by default authorized');\n    operatorsByTranche[msg.sender][tranche][operator] = true;\n    emit AuthorizedOperator(operator, msg.sender);\n    emit AuthorizedOperatorByTranche(tranche, operator, msg.sender);\n  }\n\n  /**\n   * Authorize the given operator full control over the tokenholder's tokens for a given tranche\n   */\n  function authorizeOperatorByTranche(\n    bytes32 tranche,\n    address operator,\n    address tokenHolder\n  ) public auth(MANAGE_OPERATOR_ROLE) {\n    operatorsByTranche[tokenHolder][tranche][operator] = true;\n    emit AuthorizedOperator(operator, tokenHolder);\n    emit AuthorizedOperatorByTranche(tranche, operator, msg.sender);\n  }\n\n  /**\n   * Revoke the given operator's full control over the msg.sender's tokens\n   */\n  function revokeOperator(address operator) public override {\n    bytes32 tranche = getDefaultTranche(msg.sender);\n    revokeOperatorByTranche(tranche, operator);\n  }\n\n  /**\n   * Revoke the given operator's full control over tokenholder's tokens\n   */\n  function revokeOperator(address operator, address tokenHolder) public auth(MANAGE_OPERATOR_ROLE) {\n    bytes32 tranche = getDefaultTranche(msg.sender);\n    revokeOperatorByTranche(tranche, operator, tokenHolder);\n  }\n\n  /**\n   * Revoke the given operator's full control over tokenholder's tokens for a given tranche\n   */\n  function revokeOperatorByTranche(bytes32 tranche, address operator) public override {\n    require(operator != msg.sender, 'The owner of the tokens is by default authorized');\n    operatorsByTranche[msg.sender][tranche][operator] = false;\n    emit RevokedOperator(operator, msg.sender);\n    emit RevokedOperatorByTranche(tranche, operator, msg.sender);\n  }\n\n  /**\n   * Revoke the given operator's full control over tokenholder's tokens for a given tranche\n   */\n  function revokeOperatorByTranche(\n    bytes32 tranche,\n    address operator,\n    address tokenHolder\n  ) public auth(MANAGE_OPERATOR_ROLE) {\n    operatorsByTranche[msg.sender][tranche][operator] = false;\n    emit RevokedOperator(operator, tokenHolder);\n    emit RevokedOperatorByTranche(tranche, operator, msg.sender);\n  }\n\n  /**\n   * Get a boolean indicating if the given operator address is operator of the given tokenholder\n   */\n  function isOperatorFor(address operator, address tokenHolder) public view override returns (bool) {\n    bytes32 tranche = getDefaultTranche(tokenHolder);\n    return isOperatorForTranche(tranche, operator, tokenHolder);\n  }\n\n  /**\n   * Get a boolean indicating if the given operator address is operator of the given tokenholder, for a given tranche\n   */\n  function isOperatorForTranche(\n    bytes32 tranche,\n    address operator,\n    address tokenHolder\n  ) public view override returns (bool) {\n    return operator == this.owner() || operatorsByTranche[tokenHolder][tranche][operator];\n  }\n\n  /**\n   * Send a certain amount of tokens to a certain address\n   */\n  function send(address to, uint256 amount) public override {\n    return send(to, amount, '');\n  }\n\n  /**\n   * Send a certain amount of tokens to a certain address\n   */\n  function send(\n    address to,\n    uint256 amount,\n    bytes memory userData\n  ) public override {\n    return operatorSend(msg.sender, to, amount, userData, '');\n  }\n\n  /**\n   * Effectively sends the tokens and emits the proper events\n   */\n  function operatorSend(\n    address from,\n    address to,\n    uint256 amount,\n    bytes memory userData,\n    bytes memory operatorData\n  ) public override {\n    bytes32 tranche = getDefaultTranche(from);\n    operatorSendByTranche(tranche, from, to, amount, userData, operatorData);\n  }\n\n  function sendByTranche(\n    bytes32 tranche,\n    address to,\n    uint256 amount,\n    bytes memory data\n  ) public override returns (bytes32) {\n    return operatorSendByTranche(tranche, msg.sender, to, amount, data, '');\n  }\n\n  function sendByTranches(\n    bytes32[] memory tranches,\n    address to,\n    uint256[] memory amounts,\n    bytes memory data\n  ) public override returns (bytes32[] memory tr) {\n    return operatorSendByTranches(tranches, msg.sender, to, amounts, data, '');\n  }\n\n  function operatorSendByTranche(\n    bytes32 tranche,\n    address from,\n    address to,\n    uint256 amount,\n    bytes memory data,\n    bytes memory operatorData\n  ) public override returns (bytes32 tr) {\n    bytes32[] memory tranches = new bytes32[](1);\n    tranches[0] = tranche;\n\n    uint256[] memory amounts = new uint256[](1);\n    amounts[0] = amount;\n\n    operatorSendByTranches(tranches, from, to, amounts, data, operatorData);\n  }\n\n  function operatorSendByTranches(\n    bytes32[] memory tranches,\n    address from,\n    address to,\n    uint256[] memory amounts,\n    bytes memory data,\n    bytes memory operatorData\n  ) public override returns (bytes32[] memory tr) {\n    require(tranches.length == amounts.length, 'No 1-1 match between tranches and amounts');\n    require(to != address(0), 'Only send to valid addresses');\n\n    if (seen[to] == 0) {\n      tokenHolders.push(to);\n      seen[to] = block.timestamp;\n    }\n\n    for (uint256 i = 0; i < tranches.length; i++) {\n      bytes32 tranche = tranches[i];\n      uint256 amount = amounts[i];\n\n      require(isOperatorForTranche(tranche, msg.sender, from), 'Only operators can send tokens');\n      require(isGranular(amount), 'Only amounts which are a multiple of the granularity are allowed');\n      require(balancesByTranche[from][tranche] >= amount, 'Ensure sender has sufficient balance');\n\n      // IERC777TokenSender(_from).tokensToSend(\n      //   msg.sender,\n      //   _from,\n      //   _to,\n      //   amount,\n      //   _data,\n      //   _operatorData\n      // );\n\n      balancesByTranche[from][tranche] = balancesByTranche[from][tranche] - (amount);\n      balancesByTranche[to][tranche] = balancesByTranche[to][tranche] + (amount);\n\n      // IERC777TokenRecipient(_to).tokensReceived(\n      //   msg.sender,\n      //   _from,\n      //   _to,\n      //   amount,\n      //   _data,\n      //   _operatorData\n      // );\n\n      emit Sent(msg.sender, from, to, amount, data, operatorData);\n\n      emit SentByTranche(tranche, msg.sender, from, to, amount, data, operatorData);\n    }\n  }\n\n  /**\n   * Check if tokenholder has a tranche\n   */\n  function hasTranche(address tokenHolder, bytes32 tranche) public view override returns (bool) {\n    for (uint256 i = 0; i < _tranches[tokenHolder].length; i++) {\n      if (_tranches[tokenHolder][i] == tranche) {\n        return true;\n      }\n    }\n    return false;\n  }\n\n  /**\n   * Set default tranches for a certain tokenholder\n   */\n  function addTranche(address tokenHolder, bytes32 tranche) public override {\n    if (!hasTranche(tokenHolder, tranche)) {\n      _tranches[tokenHolder].push(tranche);\n    }\n  }\n\n  /**\n   * Get tranches for a certain tokenholder\n   */\n  function tranchesOf(address tokenHolder) public view override returns (bytes32[] memory tranches) {\n    return _tranches[tokenHolder];\n  }\n\n  /**\n   * Get default tranches for a certain tokenholder\n   */\n  function getDefaultTranches(address tokenHolder) public view override returns (bytes32[] memory tranches) {\n    return defaultTranches[tokenHolder];\n  }\n\n  /**\n   * Get default tranche for a certain tokenholder\n   */\n  function getDefaultTranche(address tokenHolder) public view returns (bytes32 tranche) {\n    return defaultTranches[tokenHolder][0];\n  }\n\n  /**\n   * Set default tranches for a certain tokenholder\n   */\n  function setDefaultTranches(bytes32[] memory tranches) public override {\n    defaultTranches[msg.sender] = tranches;\n    _tranches[msg.sender] = tranches;\n  }\n\n  /**\n   * Check if the given amount is a multiple of the contract's granularity.\n   */\n  function isGranular(uint256 amount) internal view returns (bool) {\n    return (amount / (_granularity)) * (_granularity) == amount;\n  }\n}\n",
  "sourcePath": "/home/coder/project/contracts/_library/tokens/ERC1410/ERC1410Token.sol",
  "compiler": {
    "name": "solc",
    "version": "0.8.3+commit.8d00100c.Emscripten.clang"
  },
  "schemaVersion": "3.4.1",
  "updatedAt": "2021-08-03T10:03:35.124Z",
  "devdoc": {
    "kind": "dev",
    "methods": {
      "balanceOf(address)": {
        "params": {
          "tokenHolder": "token owner"
        }
      },
      "owner()": {
        "details": "Returns the address of the current owner."
      },
      "renounceOwnership()": {
        "details": "Leaves the contract without owner. It will not be possible to call `onlyOwner` functions anymore. Can only be called by the current owner. NOTE: Renouncing ownership will leave the contract without an owner, thereby removing any functionality that is only available to the owner."
      },
      "transferOwnership(address)": {
        "details": "Transfers ownership of the contract to a new account (`newOwner`). Can only be called by the current owner."
      }
    },
    "version": 1
  },
  "userdoc": {
    "kind": "user",
    "methods": {
      "addTranche(address,bytes32)": {
        "notice": "Set default tranches for a certain tokenholder"
      },
      "authorizeOperator(address)": {
        "notice": "Authorize the given operator full control over the msg.sender's tokens"
      },
      "authorizeOperator(address,address)": {
        "notice": "Authorize the given operator full control over the tokenholder's tokens"
      },
      "authorizeOperatorByTranche(bytes32,address)": {
        "notice": "Authorize the given operator full control over the msg.sender's tokens for a given tranche"
      },
      "authorizeOperatorByTranche(bytes32,address,address)": {
        "notice": "Authorize the given operator full control over the tokenholder's tokens for a given tranche"
      },
      "balanceOf(address)": {
        "notice": "Get the balance for a given address"
      },
      "balanceOfByTranche(bytes32,address)": {
        "notice": "Get balance for given token holder by tranche"
      },
      "burn(address,uint256)": {
        "notice": "Burn a certain amount of tokens for a certain address"
      },
      "burn(bytes32,address,uint256)": {
        "notice": "Burn a certain amount of tokens for a certain address"
      },
      "defaultOperatorsByTranche(bytes32)": {
        "notice": "Get default operators for given tranche"
      },
      "getDefaultTranche(address)": {
        "notice": "Get default tranche for a certain tokenholder"
      },
      "getDefaultTranches(address)": {
        "notice": "Get default tranches for a certain tokenholder"
      },
      "hasTranche(address,bytes32)": {
        "notice": "Check if tokenholder has a tranche"
      },
      "isOperatorFor(address,address)": {
        "notice": "Get a boolean indicating if the given operator address is operator of the given tokenholder"
      },
      "isOperatorForTranche(bytes32,address,address)": {
        "notice": "Get a boolean indicating if the given operator address is operator of the given tokenholder, for a given tranche"
      },
      "mint(address,uint256)": {
        "notice": "Mint a certain amount of tokens for a certain address"
      },
      "mint(bytes32,address,uint256)": {
        "notice": "Mint a certain amount of tokens for a certain address into a tranche"
      },
      "operatorSend(address,address,uint256,bytes,bytes)": {
        "notice": "Effectively sends the tokens and emits the proper events"
      },
      "revokeOperator(address)": {
        "notice": "Revoke the given operator's full control over the msg.sender's tokens"
      },
      "revokeOperator(address,address)": {
        "notice": "Revoke the given operator's full control over tokenholder's tokens"
      },
      "revokeOperatorByTranche(bytes32,address)": {
        "notice": "Revoke the given operator's full control over tokenholder's tokens for a given tranche"
      },
      "revokeOperatorByTranche(bytes32,address,address)": {
        "notice": "Revoke the given operator's full control over tokenholder's tokens for a given tranche"
      },
      "send(address,uint256)": {
        "notice": "Send a certain amount of tokens to a certain address"
      },
      "send(address,uint256,bytes)": {
        "notice": "Send a certain amount of tokens to a certain address"
      },
      "setDefaultTranches(bytes32[])": {
        "notice": "Set default tranches for a certain tokenholder"
      },
      "tranchesOf(address)": {
        "notice": "Get tranches for a certain tokenholder"
      }
    },
    "version": 1
  }
}