{
  "contractName": "ERC20TokenConverter",
  "abi": [
    {
      "inputs": [
        {
          "internalType": "address",
          "name": "_roleRegistry",
          "type": "address"
        }
      ],
      "stateMutability": "nonpayable",
      "type": "constructor"
    },
    {
      "anonymous": false,
      "inputs": [
        {
          "indexed": true,
          "internalType": "address",
          "name": "_from",
          "type": "address"
        },
        {
          "indexed": false,
          "internalType": "address",
          "name": "_fromToken",
          "type": "address"
        },
        {
          "indexed": true,
          "internalType": "address",
          "name": "_to",
          "type": "address"
        },
        {
          "indexed": false,
          "internalType": "address",
          "name": "_toToken",
          "type": "address"
        },
        {
          "indexed": false,
          "internalType": "uint256",
          "name": "_amount",
          "type": "uint256"
        }
      ],
      "name": "ConvertingTransfer",
      "type": "event"
    },
    {
      "inputs": [
        {
          "internalType": "address",
          "name": "_from",
          "type": "address"
        },
        {
          "internalType": "address",
          "name": "_fromToken",
          "type": "address"
        },
        {
          "internalType": "address",
          "name": "_to",
          "type": "address"
        },
        {
          "internalType": "address",
          "name": "_toToken",
          "type": "address"
        },
        {
          "internalType": "uint256",
          "name": "_amount",
          "type": "uint256"
        }
      ],
      "name": "convert",
      "outputs": [],
      "stateMutability": "nonpayable",
      "type": "function"
    }
  ],
  "bytecode": "0x608060405234801561001057600080fd5b506040516104ca3803806104ca83398101604081905261002f91610054565b600080546001600160a01b0319166001600160a01b0392909216919091179055610082565b600060208284031215610065578081fd5b81516001600160a01b038116811461007b578182fd5b9392505050565b610439806100916000396000f3fe608060405234801561001057600080fd5b506004361061002b5760003560e01c80638a8ad2d714610030575b600080fd5b61004361003e366004610381565b610045565b005b600054604051633f784de560e11b81526001600160a01b03858116600483015290911690637ef09bca9060240160206040518083038186803b15801561008a57600080fd5b505afa15801561009e573d6000803e3d6000fd5b505050506040513d601f19601f820116820180604052508101906100c291906103dc565b61011f5760405162461bcd60e51b815260206004820152602360248201527f5f746f206e6565647320746f20626520616e20617574686f726973656420706160448201526272747960e81b60648201526084015b60405180910390fd5b6001600160a01b03841633146101775760405162461bcd60e51b815260206004820152601f60248201527f5f66726f6d546f6b656e2073686f756c64206265207468652073656e646572006044820152606401610116565b604051632770a7eb60e21b81526001600160a01b03868116600483015260248201839052859190821690639dc29fac90604401602060405180830381600087803b1580156101c457600080fd5b505af11580156101d8573d6000803e3d6000fd5b505050506040513d601f19601f820116820180604052508101906101fc91906103dc565b6102405760405162461bcd60e51b8152602060048201526015602482015274189d5c9b881dd85cc81d5b9cdd58d8d95cd99d5b1b605a1b6044820152606401610116565b6040516340c10f1960e01b81526001600160a01b038581166004830152602482018490528491908216906340c10f1990604401602060405180830381600087803b15801561028d57600080fd5b505af11580156102a1573d6000803e3d6000fd5b505050506040513d601f19601f820116820180604052508101906102c591906103dc565b6103095760405162461bcd60e51b81526020600482015260156024820152741b5a5b9d081dd85cc81d5b9cdd58d8d95cd99d5b1b605a1b6044820152606401610116565b604080516001600160a01b0388811682528681166020830152918101859052818716918916907fc5ad861cbabeba9a8e8656a5b778134b17bfa8f2ac4dd72d6f28fd14d4ef9ee89060600160405180910390a350505050505050565b80356001600160a01b038116811461037c57600080fd5b919050565b600080600080600060a08688031215610398578081fd5b6103a186610365565b94506103af60208701610365565b93506103bd60408701610365565b92506103cb60608701610365565b949793965091946080013592915050565b6000602082840312156103ed578081fd5b815180151581146103fc578182fd5b939250505056fea2646970667358221220d78caf6688cfbcb799b348d001fb89bc7643429f26a2afc2794b84ab2287631364736f6c63430008030033",
  "immutableReferences": {},
  "source": "// SPDX-License-Identifier: UNLICENSED\n/**\n * Copyright (C) SettleMint NV - All Rights Reserved\n *\n * Use of this file is strictly prohibited without an active license agreement.\n * Distribution of this file, via any medium, is strictly prohibited.\n *\n * For license inquiries, contact hello@settlemint.com\n */\n\npragma solidity ^0.8.0;\n\nimport '../../authentication/RoleRegistry.sol';\nimport './ERC20Token.sol';\n\ncontract ERC20TokenConverter {\n  // Needs the MINT_ROLE on the UnrestrictedCoin\n  // Needs the BURN_ROLE on the to be relayed coins\n\n  RoleRegistry roleRegistry;\n\n  event ConvertingTransfer(\n    address indexed _from,\n    address _fromToken,\n    address indexed _to,\n    address _toToken,\n    uint256 _amount\n  );\n\n  constructor(address _roleRegistry) {\n    roleRegistry = RoleRegistry(_roleRegistry);\n  }\n\n  function convert(\n    address _from,\n    address _fromToken,\n    address _to,\n    address _toToken,\n    uint256 _amount\n  ) public {\n    require(roleRegistry.hasRole(_to), '_to needs to be an authorised party');\n    require(_fromToken == msg.sender, '_fromToken should be the sender');\n    ERC20Token fromToken = ERC20Token(_fromToken);\n    require(fromToken.burn(_from, _amount), 'burn was unsuccesfull');\n    ERC20Token toToken = ERC20Token(_toToken);\n    require(toToken.mint(_to, _amount), 'mint was unsuccesfull');\n    emit ConvertingTransfer(_from, _fromToken, _to, _toToken, _amount);\n  }\n}\n",
  "sourcePath": "/home/coder/project/contracts/_library/tokens/ERC20/ERC20TokenConverter.sol",
  "compiler": {
    "name": "solc",
    "version": "0.8.3+commit.8d00100c.Emscripten.clang"
  },
  "schemaVersion": "3.4.1",
  "updatedAt": "2021-08-03T10:03:35.208Z",
  "devdoc": {
    "kind": "dev",
    "methods": {},
    "version": 1
  },
  "userdoc": {
    "kind": "user",
    "methods": {},
    "version": 1
  }
}