{
  "contractName": "EvidenceManagementSystem",
  "abi": [
    {
      "inputs": [
        {
          "internalType": "address",
          "name": "gateKeeper",
          "type": "address"
        },
        {
          "internalType": "string",
          "name": "Case_Number",
          "type": "string"
        },
        {
          "internalType": "string",
          "name": "ipfsFieldContainerHash",
          "type": "string"
        },
        {
          "internalType": "string",
          "name": "uiFieldDefinitionsHash",
          "type": "string"
        }
      ],
      "stateMutability": "nonpayable",
      "type": "constructor"
    },
    {
      "anonymous": false,
      "inputs": [
        {
          "indexed": false,
          "internalType": "address",
          "name": "sender",
          "type": "address"
        },
        {
          "indexed": false,
          "internalType": "bytes32",
          "name": "fromState",
          "type": "bytes32"
        },
        {
          "indexed": false,
          "internalType": "bytes32",
          "name": "toState",
          "type": "bytes32"
        }
      ],
      "name": "Transition",
      "type": "event"
    },
    {
      "inputs": [],
      "name": "ROLE_ADMIN",
      "outputs": [
        {
          "internalType": "bytes32",
          "name": "",
          "type": "bytes32"
        }
      ],
      "stateMutability": "view",
      "type": "function"
    },
    {
      "inputs": [],
      "name": "ROLE_JUDGE",
      "outputs": [
        {
          "internalType": "bytes32",
          "name": "",
          "type": "bytes32"
        }
      ],
      "stateMutability": "view",
      "type": "function"
    },
    {
      "inputs": [],
      "name": "ROLE_LABORATORY",
      "outputs": [
        {
          "internalType": "bytes32",
          "name": "",
          "type": "bytes32"
        }
      ],
      "stateMutability": "view",
      "type": "function"
    },
    {
      "inputs": [],
      "name": "ROLE_LAW_ENFORCEMENT",
      "outputs": [
        {
          "internalType": "bytes32",
          "name": "",
          "type": "bytes32"
        }
      ],
      "stateMutability": "view",
      "type": "function"
    },
    {
      "inputs": [],
      "name": "ROLE_TECHNICIAN",
      "outputs": [
        {
          "internalType": "bytes32",
          "name": "",
          "type": "bytes32"
        }
      ],
      "stateMutability": "view",
      "type": "function"
    },
    {
      "inputs": [],
      "name": "STATE_AT_COURT",
      "outputs": [
        {
          "internalType": "bytes32",
          "name": "",
          "type": "bytes32"
        }
      ],
      "stateMutability": "view",
      "type": "function"
    },
    {
      "inputs": [],
      "name": "STATE_AT_PROPERTY_ROOM",
      "outputs": [
        {
          "internalType": "bytes32",
          "name": "",
          "type": "bytes32"
        }
      ],
      "stateMutability": "view",
      "type": "function"
    },
    {
      "inputs": [],
      "name": "STATE_AT_SCIENCE_LAB",
      "outputs": [
        {
          "internalType": "bytes32",
          "name": "",
          "type": "bytes32"
        }
      ],
      "stateMutability": "view",
      "type": "function"
    },
    {
      "inputs": [],
      "name": "STATE_CASE_CREATED",
      "outputs": [
        {
          "internalType": "bytes32",
          "name": "",
          "type": "bytes32"
        }
      ],
      "stateMutability": "view",
      "type": "function"
    },
    {
      "inputs": [],
      "name": "STATE_CASE_DECLINED",
      "outputs": [
        {
          "internalType": "bytes32",
          "name": "",
          "type": "bytes32"
        }
      ],
      "stateMutability": "view",
      "type": "function"
    },
    {
      "inputs": [],
      "name": "STATE_CASE_ON_HOLD",
      "outputs": [
        {
          "internalType": "bytes32",
          "name": "",
          "type": "bytes32"
        }
      ],
      "stateMutability": "view",
      "type": "function"
    },
    {
      "inputs": [],
      "name": "STATE_FINALISED",
      "outputs": [
        {
          "internalType": "bytes32",
          "name": "",
          "type": "bytes32"
        }
      ],
      "stateMutability": "view",
      "type": "function"
    },
    {
      "inputs": [],
      "name": "STATE_IN_TRANSIT",
      "outputs": [
        {
          "internalType": "bytes32",
          "name": "",
          "type": "bytes32"
        }
      ],
      "stateMutability": "view",
      "type": "function"
    },
    {
      "inputs": [],
      "name": "STATE_LAW_EMFORCEMENT",
      "outputs": [
        {
          "internalType": "bytes32",
          "name": "",
          "type": "bytes32"
        }
      ],
      "stateMutability": "view",
      "type": "function"
    },
    {
      "inputs": [],
      "name": "STATE_REACHED_TRANSFER_POINT",
      "outputs": [
        {
          "internalType": "bytes32",
          "name": "",
          "type": "bytes32"
        }
      ],
      "stateMutability": "view",
      "type": "function"
    },
    {
      "inputs": [],
      "name": "UPDATE_IPFSCONTAINERHASH_ROLE",
      "outputs": [
        {
          "internalType": "bytes32",
          "name": "",
          "type": "bytes32"
        }
      ],
      "stateMutability": "view",
      "type": "function"
    },
    {
      "inputs": [],
      "name": "_Case_Number",
      "outputs": [
        {
          "internalType": "string",
          "name": "",
          "type": "string"
        }
      ],
      "stateMutability": "view",
      "type": "function"
    },
    {
      "inputs": [],
      "name": "_ipfsFieldContainerHash",
      "outputs": [
        {
          "internalType": "string",
          "name": "",
          "type": "string"
        }
      ],
      "stateMutability": "view",
      "type": "function"
    },
    {
      "inputs": [
        {
          "internalType": "uint256",
          "name": "",
          "type": "uint256"
        }
      ],
      "name": "_roles",
      "outputs": [
        {
          "internalType": "bytes32",
          "name": "",
          "type": "bytes32"
        }
      ],
      "stateMutability": "view",
      "type": "function"
    },
    {
      "inputs": [],
      "name": "_uiFieldDefinitionsHash",
      "outputs": [
        {
          "internalType": "string",
          "name": "",
          "type": "string"
        }
      ],
      "stateMutability": "view",
      "type": "function"
    },
    {
      "inputs": [],
      "name": "gateKeeper",
      "outputs": [
        {
          "internalType": "contract GateKeeper",
          "name": "",
          "type": "address"
        }
      ],
      "stateMutability": "view",
      "type": "function"
    },
    {
      "inputs": [],
      "name": "getAllStates",
      "outputs": [
        {
          "internalType": "bytes32[]",
          "name": "allStates",
          "type": "bytes32[]"
        }
      ],
      "stateMutability": "view",
      "type": "function"
    },
    {
      "inputs": [],
      "name": "getCurrentState",
      "outputs": [
        {
          "internalType": "bytes32",
          "name": "state",
          "type": "bytes32"
        }
      ],
      "stateMutability": "view",
      "type": "function"
    },
    {
      "inputs": [
        {
          "internalType": "uint256",
          "name": "index",
          "type": "uint256"
        }
      ],
      "name": "getHistory",
      "outputs": [
        {
          "internalType": "bytes32",
          "name": "fromState",
          "type": "bytes32"
        },
        {
          "internalType": "bytes32",
          "name": "toState",
          "type": "bytes32"
        },
        {
          "internalType": "address",
          "name": "actor",
          "type": "address"
        },
        {
          "internalType": "uint256",
          "name": "timestamp",
          "type": "uint256"
        }
      ],
      "stateMutability": "view",
      "type": "function"
    },
    {
      "inputs": [],
      "name": "getHistoryLength",
      "outputs": [
        {
          "internalType": "uint256",
          "name": "",
          "type": "uint256"
        }
      ],
      "stateMutability": "view",
      "type": "function"
    },
    {
      "inputs": [],
      "name": "getIpfsFieldContainerHash",
      "outputs": [
        {
          "internalType": "string",
          "name": "",
          "type": "string"
        }
      ],
      "stateMutability": "view",
      "type": "function"
    },
    {
      "inputs": [],
      "name": "getNextStates",
      "outputs": [
        {
          "internalType": "bytes32[]",
          "name": "nextStates",
          "type": "bytes32[]"
        }
      ],
      "stateMutability": "view",
      "type": "function"
    },
    {
      "inputs": [
        {
          "internalType": "bytes32",
          "name": "state",
          "type": "bytes32"
        }
      ],
      "name": "getState",
      "outputs": [
        {
          "internalType": "bytes32",
          "name": "name",
          "type": "bytes32"
        },
        {
          "internalType": "bytes32[]",
          "name": "nextStates",
          "type": "bytes32[]"
        },
        {
          "internalType": "bytes32[]",
          "name": "allowedRoles",
          "type": "bytes32[]"
        },
        {
          "internalType": "bytes4[]",
          "name": "allowedFunctions",
          "type": "bytes4[]"
        },
        {
          "internalType": "bytes4",
          "name": "preFunction",
          "type": "bytes4"
        }
      ],
      "stateMutability": "view",
      "type": "function"
    },
    {
      "inputs": [
        {
          "internalType": "uint256",
          "name": "",
          "type": "uint256"
        }
      ],
      "name": "history",
      "outputs": [
        {
          "internalType": "bytes32",
          "name": "fromState",
          "type": "bytes32"
        },
        {
          "internalType": "bytes32",
          "name": "toState",
          "type": "bytes32"
        },
        {
          "internalType": "address",
          "name": "actor",
          "type": "address"
        },
        {
          "internalType": "uint256",
          "name": "timestamp",
          "type": "uint256"
        }
      ],
      "stateMutability": "view",
      "type": "function"
    },
    {
      "inputs": [
        {
          "internalType": "bytes32",
          "name": "key",
          "type": "bytes32"
        },
        {
          "internalType": "string",
          "name": "file",
          "type": "string"
        }
      ],
      "name": "setContractFile",
      "outputs": [],
      "stateMutability": "nonpayable",
      "type": "function"
    },
    {
      "inputs": [
        {
          "internalType": "string",
          "name": "ipfsFieldContainerHash",
          "type": "string"
        }
      ],
      "name": "setIpfsFieldContainerHash",
      "outputs": [],
      "stateMutability": "nonpayable",
      "type": "function"
    },
    {
      "inputs": [
        {
          "internalType": "bytes32",
          "name": "toState",
          "type": "bytes32"
        }
      ],
      "name": "transitionState",
      "outputs": [],
      "stateMutability": "nonpayable",
      "type": "function"
    },
    {
      "inputs": [
        {
          "internalType": "string",
          "name": "Case_Number",
          "type": "string"
        },
        {
          "internalType": "string",
          "name": "ipfsFieldContainerHash",
          "type": "string"
        }
      ],
      "name": "edit",
      "outputs": [],
      "stateMutability": "nonpayable",
      "type": "function"
    },
    {
      "inputs": [],
      "name": "DID",
      "outputs": [
        {
          "internalType": "string",
          "name": "",
          "type": "string"
        }
      ],
      "stateMutability": "view",
      "type": "function"
    },
    {
      "inputs": [],
      "name": "getRoles",
      "outputs": [
        {
          "internalType": "bytes32[]",
          "name": "",
          "type": "bytes32[]"
        }
      ],
      "stateMutability": "view",
      "type": "function"
    }
  ],
  "bytecode": "0x610120604052692927a622afa0a226a4a760b11b60809081526e2927a622afaa22a1a42724a1a4a0a760891b60a0526e524f4c455f4c41424f5241544f525960881b60c0527f524f4c455f4c41575f454e464f5243454d454e5400000000000000000000000060e05269524f4c455f4a5544474560b01b610100526200008a90600b90600562000b25565b503480156200009857600080fd5b50604051620027b9380380620027b9833981016040819052620000bb9162000cbb565b600080546001600160a01b0319166001600160a01b0386161790558251620000eb90600d90602086019062000b75565b5081516200010190600790602085019062000b75565b5080516200011790600c90602084019062000b75565b50620001226200012c565b5050505062000dbb565b620001466b10d054d14810d4915055115160a21b620007e4565b620001626d10d054d14811925390531254d15160921b620007e4565b620001776613d3881213d31160ca1b620007e4565b6200018d67111150d31253915160c21b620007e4565b620001a760008051602062002779833981519152620007e4565b620001c56f41542050524f504552545920524f4f4d60801b620007e4565b620001e16d20aa1029a1a4a2a721a2902620a160911b620007e4565b620001fb60008051602062002799833981519152620007e4565b620002186e131055c811539193d490d153515395608a1b620007e4565b6200022e6710550810d3d5549560c21b620007e4565b6200025a6b10d054d14810d4915055115160a21b6d10d054d14811925390531254d15160921b620008a2565b620002816d10d054d14811925390531254d15160921b6613d3881213d31160ca1b620008a2565b620002a96d10d054d14811925390531254d15160921b67111150d31253915160c21b620008a2565b620002d56d10d054d14811925390531254d15160921b60008051602062002779833981519152620008a2565b62000303600080516020620027798339815191526f41542050524f504552545920524f4f4d60801b620008a2565b620003316f41542050524f504552545920524f4f4d60801b60008051602062002779833981519152620008a2565b6200035d600080516020620027798339815191526d20aa1029a1a4a2a721a2902620a160911b620008a2565b620003896d20aa1029a1a4a2a721a2902620a160911b60008051602062002799833981519152620008a2565b620003b6600080516020620027998339815191526e131055c811539193d490d153515395608a1b620008a2565b620003e36e131055c811539193d490d153515395608a1b60008051602062002779833981519152620008a2565b62000409600080516020620027798339815191526710550810d3d5549560c21b620008a2565b620004366b10d054d14810d4915055115160a21b6e2927a622afaa22a1a42724a1a4a0a760891b62000982565b620004656d10d054d14811925390531254d15160921b6e2927a622afaa22a1a42724a1a4a0a760891b62000982565b6200048e67111150d31253915160c21b6e2927a622afaa22a1a42724a1a4a0a760891b62000982565b620004bb600080516020620027798339815191526e2927a622afaa22a1a42724a1a4a0a760891b62000982565b620004ec6f41542050524f504552545920524f4f4d60801b6e2927a622afaa22a1a42724a1a4a0a760891b62000982565b6200051b6d20aa1029a1a4a2a721a2902620a160911b6e524f4c455f4c41424f5241544f525960881b62000982565b62000548600080516020620027998339815191526e524f4c455f4c41424f5241544f525960881b62000982565b620005866e131055c811539193d490d153515395608a1b7f524f4c455f4c41575f454e464f5243454d454e5400000000000000000000000062000982565b620005c1600080516020620027798339815191527f524f4c455f4c41575f454e464f5243454d454e5400000000000000000000000062000982565b620005e56710550810d3d5549560c21b69524f4c455f4a5544474560b01b62000982565b6200060d6000805160206200277983398151915269524f4c455f4a5544474560b01b62000982565b620006356b10d054d14810d4915055115160a21b692927a622afa0a226a4a760b11b62000982565b6200065f6d10d054d14811925390531254d15160921b692927a622afa0a226a4a760b11b62000982565b6200068367111150d31253915160c21b692927a622afa0a226a4a760b11b62000982565b620006ab60008051602062002779833981519152692927a622afa0a226a4a760b11b62000982565b620006d76f41542050524f504552545920524f4f4d60801b692927a622afa0a226a4a760b11b62000982565b620007016d20aa1029a1a4a2a721a2902620a160911b692927a622afa0a226a4a760b11b62000982565b6200072960008051602062002799833981519152692927a622afa0a226a4a760b11b62000982565b620007546e131055c811539193d490d153515395608a1b692927a622afa0a226a4a760b11b62000982565b6200077c60008051602062002779833981519152692927a622afa0a226a4a760b11b62000982565b620007a06710550810d3d5549560c21b692927a622afa0a226a4a760b11b62000982565b620007c860008051602062002779833981519152692927a622afa0a226a4a760b11b62000982565b620007e26b10d054d14810d4915055115160a21b62000a05565b565b60008181526002602052604090205460ff1615620008555760405162461bcd60e51b815260206004820152602360248201527f746869732073746174652068617320616c7265616479206265656e20637265616044820152621d195960ea1b60648201526084015b60405180910390fd5b6000818152600260205260408120805460ff191660019081179091556003805491820181559091527fc2575a0e9e593c00f959f8c92f12db2869c3395a3b0502d05e2516446f71f85b0155565b600082815260026020526040902054829060ff16620008fe5760405162461bcd60e51b8152602060048201526022602482015260008051602062002759833981519152604482015261195d60f21b60648201526084016200084c565b600082815260026020526040902054829060ff166200095a5760405162461bcd60e51b8152602060048201526022602482015260008051602062002759833981519152604482015261195d60f21b60648201526084016200084c565b5050600091825260026020908152604083206005018054600181018255908452922090910155565b600082815260026020526040902054829060ff16620009de5760405162461bcd60e51b8152602060048201526022602482015260008051602062002759833981519152604482015261195d60f21b60648201526084016200084c565b50600091825260026020818152604084209091018054600181018255908452922090910155565b60008181526002602052604090205460ff1662000a785760405162461bcd60e51b815260206004820152602a60248201527f74686520696e697469616c20737461746520686173206e6f74206265656e20636044820152691c99585d1959081e595d60b21b60648201526084016200084c565b6004541562000b205760405162461bcd60e51b815260206004820152606160248201527f7468652063757272656e742073746174652068617320616c726561647920626560448201527f656e207365742c20736f20796f752063616e6e6f7420636f6e6669677572652060648201527f74686520696e697469616c20737461746520616e64206f7665727269646520696084820152601d60fa1b60a482015260c4016200084c565b600455565b82805482825590600052602060002090810192821562000b63579160200282015b8281111562000b6357825182559160200191906001019062000b46565b5062000b7192915062000bf1565b5090565b82805462000b839062000d68565b90600052602060002090601f01602090048101928262000ba7576000855562000b63565b82601f1062000bc257805160ff191683800117855562000b63565b8280016001018555821562000b63579182018281111562000b6357825182559160200191906001019062000b46565b5b8082111562000b71576000815560010162000bf2565b600082601f83011262000c19578081fd5b81516001600160401b038082111562000c365762000c3662000da5565b604051601f8301601f19908116603f0116810190828211818310171562000c615762000c6162000da5565b8160405283815260209250868385880101111562000c7d578485fd5b8491505b8382101562000ca0578582018301518183018401529082019062000c81565b8382111562000cb157848385830101525b9695505050505050565b6000806000806080858703121562000cd1578384fd5b84516001600160a01b038116811462000ce8578485fd5b60208601519094506001600160401b038082111562000d05578485fd5b62000d138883890162000c08565b9450604087015191508082111562000d29578384fd5b62000d378883890162000c08565b9350606087015191508082111562000d4d578283fd5b5062000d5c8782880162000c08565b91505092959194509250565b600181811c9082168062000d7d57607f821691505b6020821081141562000d9f57634e487b7160e01b600052602260045260246000fd5b50919050565b634e487b7160e01b600052604160045260246000fd5b61198e8062000dcb6000396000f3fe608060405234801561001057600080fd5b50600436106102115760003560e01c8063694f110511610125578063c62fe966116100ad578063def1c2721161007c578063def1c272146104a9578063ebf46f52146104c1578063ef120a6e146104db578063f4a979a3146104e3578063fcbb5907146104f657610211565b8063c62fe9661461044b578063c8691b2a14610469578063d0d881f01461047c578063d391014b1461049557610211565b8063a4ddb071116100f4578063a4ddb071146103be578063a7a38f0b146103c6578063b627e97c14610408578063c2e7c12d1461041a578063c52daf031461043357610211565b8063694f11051461038057806371061398146103935780637b5810981461039b578063910fd10a146103b657610211565b80633e44694f116101a85780634de6740e116101775780634de6740e1461033a5780635478f4681461034257806356c57bd11461034a57806357ff6e591461035d5780635d7d9a0c1461036f57610211565b80633e44694f146102dc57806341a69635146102e457806345d61ded146102fa578063489f19eb1461032557610211565b80632e2bc0d5116101e45780632e2bc0d514610293578063304b1bd1146102a857806335d7bd26146102bb578063378aa701146102d457610211565b806309648a9d146102165780630afb55511461024357806311fddaf91461026557806328e2111f1461027a575b600080fd5b6102296102243660046115c4565b61051d565b60405161023a9594939291906117d3565b60405180910390f35b61025769524f4c455f4a5544474560b01b81565b60405190815260200161023a565b61026d610867565b60405161023a919061185e565b6102576e10d054d1481253881514905394d255608a1b81565b61029b6108f5565b60405161023a91906117c0565b6102576102b63660046115c4565b61095b565b6102576e524f4c455f4c41424f5241544f525960881b81565b61025761097c565b61026d6109fc565b6102576b10d054d14810d4915055115160a21b81565b60005461030d906001600160a01b031681565b6040516001600160a01b03909116815260200161023a565b61033861033336600461165c565b610a24565b005b61026d610a50565b600154610257565b610338610358366004611621565b610a5d565b6102576710550810d3d5549560c21b81565b6102576613d3881213d31160ca1b81565b61033861038e3660046115c4565b610a74565b61029b610cb3565b610257701055081514905394d19154881413d25395607a1b81565b61026d610d09565b61029b610d16565b6103d96103d43660046115c4565b610d6c565b60405161023a949392919093845260208401929092526001600160a01b03166040830152606082015260800190565b61025767111150d31253915160c21b81565b6102576e131055c811539193d490d153515395608a1b81565b6102576d10d054d14811925390531254d15160921b81565b610257731493d31157d31055d7d1539193d490d15351539560621b81565b6103d96104773660046115c4565b610daf565b6102576e2927a622afaa22a1a42724a1a4a0a760891b81565b610257692927a622afa0a226a4a760b11b81565b6102576d20aa1029a1a4a2a721a2902620a160911b81565b6102576f41542050524f504552545920524f4f4d60801b81565b61026d610ee9565b6103386104f13660046115dc565b610f72565b6102577f5550444154455f49504653434f4e5441494e4552484153485f524f4c4500000081565b60008181526002602052604081206005546060918291829185918290819067ffffffffffffffff81111561056157634e487b7160e01b600052604160045260246000fd5b60405190808252806020026020018201604052801561058a578160200160208202803683370190505b50905060005b6005548110156106b557600260008b81526020019081526020016000206001016000600583815481106105d357634e487b7160e01b600052603260045260246000fd5b6000918252602080832060088304015460079092166004026101000a90910460e01b6001600160e01b031916835282019290925260400190205460ff16156106a3576005818154811061063657634e487b7160e01b600052603260045260246000fd5b90600052602060002090600891828204019190066004029054906101000a900460e01b828460ff168151811061067c57634e487b7160e01b600052603260045260246000fd5b6001600160e01b0319909216602092830291909101909101526106a06001846118b1565b92505b806106ad81611911565b915050610590565b5060008260ff1667ffffffffffffffff8111156106e257634e487b7160e01b600052604160045260246000fd5b60405190808252806020026020018201604052801561070b578160200160208202803683370190505b50905060005b8360ff1681101561078f5782818151811061073c57634e487b7160e01b600052603260045260246000fd5b602002602001015182828151811061076457634e487b7160e01b600052603260045260246000fd5b6001600160e01b0319909216602092830291909101909101528061078781611911565b915050610711565b50898460050185600201838760060160009054906101000a900460e01b838054806020026020016040519081016040528092919081815260200182805480156107f757602002820191906000526020600020905b8154815260200190600101908083116107e3575b505050505093508280548060200260200160405190810160405280929190818152602001828054801561084957602002820191906000526020600020905b815481526020019060010190808311610835575b50505050509250985098509850985098505050505091939590929450565b600d8054610874906118d6565b80601f01602080910402602001604051908101604052809291908181526020018280546108a0906118d6565b80156108ed5780601f106108c2576101008083540402835291602001916108ed565b820191906000526020600020905b8154815290600101906020018083116108d057829003601f168201915b505050505081565b60045460009081526002602090815260409182902060050180548351818402810184019094528084526060939283018282801561095157602002820191906000526020600020905b81548152602001906001019080831161093d575b5050505050905090565b600b818154811061096b57600080fd5b600091825260209091200154905081565b60045460009081526002602052604081205460ff166109f55760405162461bcd60e51b815260206004820152602a60248201527f74686520696e697469616c20737461746520686173206e6f74206265656e20636044820152691c99585d1959081e595d60b21b60648201526084015b60405180910390fd5b5060045490565b6060600d604051602001610a1091906116ed565b604051602081830303815290604052905090565b8151610a3790600d90602085019061146e565b508051610a4b90600790602084019061146e565b505050565b600c8054610874906118d6565b8051610a7090600790602084019061146e565b5050565b600354610ad45760405162461bcd60e51b815260206004820152602860248201527f746869732073746174656d616368696e6520686173206e6f74206265656e2073604482015267195d1d5c081e595d60c21b60648201526084016109ec565b80610ae6610ae061097c565b82610ff2565b600480548382556000848152600260205260408120919291909101905b8154811015610b7c57610b6a8386848481548110610b3157634e487b7160e01b600052603260045260246000fd5b90600052602060002090600491828204019190066008029054906101000a900480156114f2021767ffffffffffffffff1663ffffffff16565b80610b7481611911565b915050610b03565b506040805160808101825283815260208082018781523383850181815242606080870191825260018054808201825560009190915296517fb10e2d527612073b26eecdfd717e6a320cf44b4afac2b0732d9fcbe2b7fa0cf660049889029081019190915594517fb10e2d527612073b26eecdfd717e6a320cf44b4afac2b0732d9fcbe2b7fa0cf786015591517fb10e2d527612073b26eecdfd717e6a320cf44b4afac2b0732d9fcbe2b7fa0cf8850180546001600160a01b0319166001600160a01b03909216919091179055517fb10e2d527612073b26eecdfd717e6a320cf44b4afac2b0732d9fcbe2b7fa0cf99093019290925592548451938452918301869052928201527f483a31c379a4b707332853662276a3424ec44f0ccbfc20d78fd9d143694f7669910160405180910390a150505050565b6060600b805480602002602001604051908101604052809291908181526020018280548015610951576020028201919060005260206000209081548152602001906001019080831161093d575050505050905090565b60078054610874906118d6565b60606003805480602002602001604051908101604052809291908181526020018280548015610951576020028201919060005260206000209081548152602001906001019080831161093d575050505050905090565b60018181548110610d7c57600080fd5b60009182526020909120600490910201805460018201546002830154600390930154919350916001600160a01b03169084565b60008080806001548510610dfb5760405162461bcd60e51b8152602060048201526013602482015272496e646578206f7574206f6620626f756e647360681b60448201526064016109ec565b60018581548110610e1c57634e487b7160e01b600052603260045260246000fd5b90600052602060002090600402016000015460018681548110610e4f57634e487b7160e01b600052603260045260246000fd5b90600052602060002090600402016001015460018781548110610e8257634e487b7160e01b600052603260045260246000fd5b906000526020600020906004020160020160009054906101000a90046001600160a01b031660018881548110610ec857634e487b7160e01b600052603260045260246000fd5b90600052602060002090600402016003015493509350935093509193509193565b606060078054610ef8906118d6565b80601f0160208091040260200160405190810160405280929190818152602001828054610f24906118d6565b80156109515780601f10610f4657610100808354040283529160200191610951565b820191906000526020600020905b815481529060010190602001808311610f5457509395945050505050565b60008281526009602052604090205460ff16610fd3576008805460018181019092557ff3f7a9fe364faab93b216da50a3214154f22a0a2b415b23a84c8169e8b636ee3018390556000838152600960205260409020805460ff191690911790555b6000828152600a602090815260409091208251610a4b9284019061146e565b60008281526002602052604090205460ff1661106e5760405162461bcd60e51b815260206004820152603560248201527f7468652066726f6d20737461746520686173206e6f74206265656e20636f6e666044820152741a59dd5c9959081a5b881d1a1a5cc81bd89a9958dd605a1b60648201526084016109ec565b60008181526002602052604090205460ff166110e85760405162461bcd60e51b815260206004820152603360248201527f74686520746f20737461746520686173206e6f74206265656e20636f6e6669676044820152721d5c9959081a5b881d1a1a5cc81bd89a9958dd606a1b60648201526084016109ec565b6110f28282611233565b6111765760405162461bcd60e51b815260206004820152604960248201527f74686520726571756573746564206e657874207374617465206973206e6f742060448201527f616e20616c6c6f776564206e65787420737461746520666f72207468697320746064820152683930b739b4ba34b7b760b91b608482015260a4016109ec565b61117f816112ed565b6112295760405162461bcd60e51b815260206004820152606960248201527f7468652073656e646572206f662074686973207472616e73616374696f6e206460448201527f6f6573206e6f742068617665206120726f6c65207468617420616c6c6f77732060648201527f7472616e736974696f6e206265747765656e207468652066726f6d20616e6420608482015268746f2073746174657360b81b60a482015260c4016109ec565b610a708282611370565b6000828152600260205260408120600501815b81548110156112e5576040805160208101869052016040516020818303038152906040528051906020012082828154811061129157634e487b7160e01b600052603260045260246000fd5b90600052602060002001546040516020016112ae91815260200190565b6040516020818303038152906040528051906020012014156112d357600192506112e5565b806112dd81611911565b915050611246565b505092915050565b6000818152600260208190526040822001805461130957600191505b60005b8154811015611369576113493383838154811061133957634e487b7160e01b600052603260045260246000fd5b90600052602060002001546113c9565b156113575760019250611369565b8061136181611911565b91505061130c565b5050919050565b6000818152600260205260408120600301905b81548110156113c3576113b18484848481548110610b3157634e487b7160e01b600052603260045260246000fd5b806113bb81611911565b915050611383565b50505050565b600080546001600160a01b031615806114675750600054604051630dace25b60e31b81526001600160a01b0385811660048301523060248301526044820185905290911690636d6712d89060640160206040518083038186803b15801561142f57600080fd5b505afa158015611443573d6000803e3d6000fd5b505050506040513d601f19601f8201168201806040525081019061146791906115a4565b9392505050565b82805461147a906118d6565b90600052602060002090601f01602090048101928261149c57600085556114e2565b82601f106114b557805160ff19168380011785556114e2565b828001600101855582156114e2579182015b828111156114e25782518255916020019190600101906114c7565b506114ee929150611508565b5090565b634e487b7160e01b600052605160045260246000fd5b5b808211156114ee5760008155600101611509565b600082601f83011261152d578081fd5b813567ffffffffffffffff8082111561154857611548611942565b604051601f8301601f19908116603f0116810190828211818310171561157057611570611942565b81604052838152866020858801011115611588578485fd5b8360208701602083013792830160200193909352509392505050565b6000602082840312156115b5578081fd5b81518015158114611467578182fd5b6000602082840312156115d5578081fd5b5035919050565b600080604083850312156115ee578081fd5b82359150602083013567ffffffffffffffff81111561160b578182fd5b6116178582860161151d565b9150509250929050565b600060208284031215611632578081fd5b813567ffffffffffffffff811115611648578182fd5b6116548482850161151d565b949350505050565b6000806040838503121561166e578182fd5b823567ffffffffffffffff80821115611685578384fd5b6116918683870161151d565b935060208501359150808211156116a6578283fd5b506116178582860161151d565b6000815180845260208085019450808401835b838110156116e2578151875295820195908201906001016116c6565b509495945050505050565b60007f6469643a64656d6f3a65766964656e63656d616e6167656d656e7473797374658252602061369d60f11b81840152602282855484600182811c91508083168061173a57607f831692505b86831081141561175857634e487b7160e01b88526004869052602488fd5b80801561176c5760018114611781576117b1565b60ff1985168a880152838a01870195506117b1565b60008b815260209020895b858110156117a75781548c82018a015290840190890161178c565b505086848b010195505b50939998505050505050505050565b60006020825261146760208301846116b3565b6000868252602060a0818401526117ed60a08401886116b3565b83810360408501526117ff81886116b3565b84810360608601528651808252838801925090830190845b8181101561183d5783516001600160e01b03191683529284019291840191600101611817565b505080935050505063ffffffff60e01b831660808301529695505050505050565b6000602080835283518082850152825b8181101561188a5785810183015185820160400152820161186e565b8181111561189b5783604083870101525b50601f01601f1916929092016040019392505050565b600060ff821660ff84168060ff038211156118ce576118ce61192c565b019392505050565b600181811c908216806118ea57607f821691505b6020821081141561190b57634e487b7160e01b600052602260045260246000fd5b50919050565b60006000198214156119255761192561192c565b5060010190565b634e487b7160e01b600052601160045260246000fd5b634e487b7160e01b600052604160045260246000fdfea2646970667358221220e134f685a9bd6fd3ea69f89d195b04edbafae3675664835818d35b6dd1e6296a64736f6c6343000803003374686520737461746520686173206e6f74206265656e206372656174656420794341534520494e205452414e53495400000000000000000000000000000000004154205452414e5346455220504f494e54000000000000000000000000000000",
  "immutableReferences": {},
  "source": "/**\n * Copyright (C) SettleMint NV - All Rights Reserved\n *\n * Use of this file is strictly prohibited without an active license agreement.\n * Distribution of this file, via any medium, is strictly prohibited.\n *\n * For license inquiries, contact hello@settlemint.com\n *\n * SPDX-License-Identifier: UNLICENSED\n */\n\npragma solidity ^0.8.0;\n\nimport '../_library//authentication/Secured.sol';\nimport '../_library//provenance/statemachine/StateMachine.sol';\nimport '../_library//utility/metadata/IpfsFieldContainer.sol';\nimport '../_library//utility/metadata/FileFieldContainer.sol';\nimport '../_library//utility/conversions/Converter.sol';\n\n/**\n * SupplyChain\n\n *\n * @title State machine for SupplyChain\n */\ncontract EvidenceManagementSystem is Converter, StateMachine, IpfsFieldContainer, FileFieldContainer {\n  bytes32 public constant STATE_CASE_CREATED = 'CASE CREATED';\n  bytes32 public constant STATE_FINALISED = 'CASE FINALISED';\n  bytes32 public constant STATE_CASE_ON_HOLD = 'ON HOLD';\n  bytes32 public constant STATE_CASE_DECLINED = 'DECLINED';\n  bytes32 public constant STATE_IN_TRANSIT = 'CASE IN TRANSIT';\n\n  bytes32 public constant STATE_AT_PROPERTY_ROOM = 'AT PROPERTY ROOM';\n  bytes32 public constant STATE_AT_SCIENCE_LAB = 'AT SCIENCE LAB';\n  bytes32 public constant STATE_REACHED_TRANSFER_POINT = 'AT TRANSFER POINT';\n\n  bytes32 public constant STATE_LAW_EMFORCEMENT = 'LAW ENFORCEMENT';\n  bytes32 public constant STATE_AT_COURT = 'AT COURT';\n\n  bytes32 public constant ROLE_ADMIN = 'ROLE_ADMIN';\n  bytes32 public constant ROLE_TECHNICIAN = 'ROLE_TECHNICIAN';\n  bytes32 public constant ROLE_LABORATORY = 'ROLE_LABORATORY';\n  bytes32 public constant ROLE_LAW_ENFORCEMENT = 'ROLE_LAW_ENFORCEMENT';\n  bytes32 public constant ROLE_JUDGE = 'ROLE_JUDGE';\n\n  bytes32[] public _roles = [ROLE_ADMIN, ROLE_TECHNICIAN, ROLE_LABORATORY, ROLE_LAW_ENFORCEMENT, ROLE_JUDGE];\n\n  string public _uiFieldDefinitionsHash;\n  string public _Case_Number;\n\n  constructor(\n    address gateKeeper,\n    string memory Case_Number,\n    string memory ipfsFieldContainerHash,\n    string memory uiFieldDefinitionsHash\n  ) Secured(gateKeeper) {\n    _Case_Number = Case_Number;\n    _ipfsFieldContainerHash = ipfsFieldContainerHash;\n    _uiFieldDefinitionsHash = uiFieldDefinitionsHash;\n    setupStateMachine();\n  }\n\n  /**\n   * @notice Updates expense properties\n   * @param Case_Number It is the order Identification Number\n   * @param ipfsFieldContainerHash ipfs hash of supplychainfinance metadata\n   */\n  function edit(string memory Case_Number, string memory ipfsFieldContainerHash) public {\n    _Case_Number = Case_Number;\n    _ipfsFieldContainerHash = ipfsFieldContainerHash;\n  }\n\n  /**\n   * @notice Returns a DID of the supplychainfinance\n   * @dev Returns a unique DID (Decentralized Identifier) for the supplychainfinance.\n   * @return string representing the DID of the supplychainfinance\n   */\n  function DID() public view returns (string memory) {\n    return string(abi.encodePacked('did:demo:evidencemanagementsystem:', _Case_Number));\n  }\n\n  /**\n   * @notice Returns all the roles for this contract\n   * @return bytes32[] array of raw bytes representing the roles\n   */\n  function getRoles() public view returns (bytes32[] memory) {\n    return _roles;\n  }\n\n  function setupStateMachine() internal override {\n    //create all states\n\n    createState(STATE_CASE_CREATED);\n    createState(STATE_FINALISED);\n    createState(STATE_CASE_ON_HOLD);\n    createState(STATE_CASE_DECLINED);\n    createState(STATE_IN_TRANSIT);\n    createState(STATE_AT_PROPERTY_ROOM);\n    createState(STATE_AT_SCIENCE_LAB);\n    createState(STATE_REACHED_TRANSFER_POINT);\n    createState(STATE_LAW_EMFORCEMENT);\n    createState(STATE_AT_COURT);\n\n\n    // add properties\n\n    addNextStateForState(STATE_CASE_CREATED, STATE_FINALISED);\n    addNextStateForState(STATE_FINALISED, STATE_CASE_ON_HOLD);\n    addNextStateForState(STATE_FINALISED, STATE_CASE_DECLINED);\n    addNextStateForState(STATE_FINALISED, STATE_IN_TRANSIT);\n    addNextStateForState(STATE_IN_TRANSIT, STATE_AT_PROPERTY_ROOM);\n    addNextStateForState(STATE_AT_PROPERTY_ROOM, STATE_IN_TRANSIT);\n    addNextStateForState(STATE_IN_TRANSIT, STATE_AT_SCIENCE_LAB);\n    addNextStateForState(STATE_AT_SCIENCE_LAB, STATE_REACHED_TRANSFER_POINT);\n    addNextStateForState(STATE_REACHED_TRANSFER_POINT, STATE_LAW_EMFORCEMENT);\n    addNextStateForState(STATE_LAW_EMFORCEMENT, STATE_IN_TRANSIT);\n    addNextStateForState(STATE_IN_TRANSIT, STATE_AT_COURT);\n\n    addRoleForState(STATE_CASE_CREATED, ROLE_TECHNICIAN);\n    addRoleForState(STATE_FINALISED, ROLE_TECHNICIAN);\n    addRoleForState(STATE_CASE_DECLINED, ROLE_TECHNICIAN);\n    addRoleForState(STATE_IN_TRANSIT, ROLE_TECHNICIAN);\n    addRoleForState(STATE_AT_PROPERTY_ROOM, ROLE_TECHNICIAN);\n    addRoleForState(STATE_AT_SCIENCE_LAB, ROLE_LABORATORY);\n    addRoleForState(STATE_REACHED_TRANSFER_POINT, ROLE_LABORATORY);\n    addRoleForState(STATE_LAW_EMFORCEMENT, ROLE_LAW_ENFORCEMENT);\n    addRoleForState(STATE_IN_TRANSIT, ROLE_LAW_ENFORCEMENT);\n    addRoleForState(STATE_AT_COURT, ROLE_JUDGE);\n    addRoleForState(STATE_IN_TRANSIT, ROLE_JUDGE);\n\n    addRoleForState(STATE_CASE_CREATED, ROLE_ADMIN);\n    addRoleForState(STATE_FINALISED, ROLE_ADMIN);\n    addRoleForState(STATE_CASE_DECLINED, ROLE_ADMIN);\n    addRoleForState(STATE_IN_TRANSIT, ROLE_ADMIN);\n    addRoleForState(STATE_AT_PROPERTY_ROOM, ROLE_ADMIN);\n    addRoleForState(STATE_AT_SCIENCE_LAB, ROLE_ADMIN);\n    addRoleForState(STATE_REACHED_TRANSFER_POINT, ROLE_ADMIN);\n    addRoleForState(STATE_LAW_EMFORCEMENT, ROLE_ADMIN);\n    addRoleForState(STATE_IN_TRANSIT, ROLE_ADMIN);\n    addRoleForState(STATE_AT_COURT, ROLE_ADMIN);\n    addRoleForState(STATE_IN_TRANSIT, ROLE_ADMIN);\n\n\n    setInitialState(STATE_CASE_CREATED);\n  }\n}\n",
  "sourcePath": "/home/coder/project/contracts/evidencemanagementsystem/EvidenceManagementSystem.sol",
  "compiler": {
    "name": "solc",
    "version": "0.8.3+commit.8d00100c.Emscripten.clang"
  },
  "schemaVersion": "3.4.3",
  "updatedAt": "2021-09-21T08:20:58.972Z",
  "devdoc": {
    "kind": "dev",
    "methods": {
      "DID()": {
        "details": "Returns a unique DID (Decentralized Identifier) for the supplychainfinance.",
        "returns": {
          "_0": "string representing the DID of the supplychainfinance"
        }
      },
      "edit(string,string)": {
        "params": {
          "Case_Number": "It is the order Identification Number",
          "ipfsFieldContainerHash": "ipfs hash of supplychainfinance metadata"
        }
      },
      "getCurrentState()": {
        "details": "Requires the current state to be configured before calling this function"
      },
      "getHistory(uint256)": {
        "details": "Requires the index to be within the bounds of the history array"
      },
      "getRoles()": {
        "returns": {
          "_0": "bytes32[] array of raw bytes representing the roles"
        }
      },
      "transitionState(bytes32)": {
        "details": "Emits a Transition event after a successful transition."
      }
    },
    "title": "State machine for SupplyChain",
    "version": 1
  },
  "userdoc": {
    "kind": "user",
    "methods": {
      "DID()": {
        "notice": "Returns a DID of the supplychainfinance"
      },
      "edit(string,string)": {
        "notice": "Updates expense properties"
      },
      "getAllStates()": {
        "notice": "Returns a list of all the possible states of this object."
      },
      "getCurrentState()": {
        "notice": "Returns the name of the current state of this object."
      },
      "getHistory(uint256)": {
        "notice": "Returns history as tuple for given index."
      },
      "getHistoryLength()": {
        "notice": "Returns the length of the history"
      },
      "getNextStates()": {
        "notice": "Returns a list of all the possible next states of the current state."
      },
      "getRoles()": {
        "notice": "Returns all the roles for this contract"
      },
      "getState(bytes32)": {
        "notice": "Returns state as tuple for give state."
      },
      "transitionState(bytes32)": {
        "notice": "Transitions the state and executes all callbacks."
      }
    },
    "notice": "SupplyChain",
    "version": 1
  }
}