{
  "contractName": "EvidenceManagementSystem",
  "abi": [
    {
      "inputs": [
        {
          "internalType": "address",
          "name": "gateKeeper",
          "type": "address"
        },
        {
          "internalType": "string",
          "name": "Case_ID",
          "type": "string"
        },
        {
          "internalType": "string",
          "name": "ipfsFieldContainerHash",
          "type": "string"
        },
        {
          "internalType": "string",
          "name": "uiFieldDefinitionsHash",
          "type": "string"
        }
      ],
      "stateMutability": "nonpayable",
      "type": "constructor"
    },
    {
      "anonymous": false,
      "inputs": [
        {
          "indexed": false,
          "internalType": "address",
          "name": "sender",
          "type": "address"
        },
        {
          "indexed": false,
          "internalType": "bytes32",
          "name": "fromState",
          "type": "bytes32"
        },
        {
          "indexed": false,
          "internalType": "bytes32",
          "name": "toState",
          "type": "bytes32"
        }
      ],
      "name": "Transition",
      "type": "event"
    },
    {
      "inputs": [],
      "name": "ROLE_ADMIN",
      "outputs": [
        {
          "internalType": "bytes32",
          "name": "",
          "type": "bytes32"
        }
      ],
      "stateMutability": "view",
      "type": "function"
    },
    {
      "inputs": [],
      "name": "ROLE_JUDGE",
      "outputs": [
        {
          "internalType": "bytes32",
          "name": "",
          "type": "bytes32"
        }
      ],
      "stateMutability": "view",
      "type": "function"
    },
    {
      "inputs": [],
      "name": "ROLE_POLICEMAN",
      "outputs": [
        {
          "internalType": "bytes32",
          "name": "",
          "type": "bytes32"
        }
      ],
      "stateMutability": "view",
      "type": "function"
    },
    {
      "inputs": [],
      "name": "ROLE_SCIENTIST",
      "outputs": [
        {
          "internalType": "bytes32",
          "name": "",
          "type": "bytes32"
        }
      ],
      "stateMutability": "view",
      "type": "function"
    },
    {
      "inputs": [],
      "name": "ROLE_TECHNICIAN",
      "outputs": [
        {
          "internalType": "bytes32",
          "name": "",
          "type": "bytes32"
        }
      ],
      "stateMutability": "view",
      "type": "function"
    },
    {
      "inputs": [],
      "name": "ROLE_TRANSPORTER",
      "outputs": [
        {
          "internalType": "bytes32",
          "name": "",
          "type": "bytes32"
        }
      ],
      "stateMutability": "view",
      "type": "function"
    },
    {
      "inputs": [],
      "name": "STATE_CASE_ID_ANALYIS",
      "outputs": [
        {
          "internalType": "bytes32",
          "name": "",
          "type": "bytes32"
        }
      ],
      "stateMutability": "view",
      "type": "function"
    },
    {
      "inputs": [],
      "name": "STATE_CASE_ID_BUILT",
      "outputs": [
        {
          "internalType": "bytes32",
          "name": "",
          "type": "bytes32"
        }
      ],
      "stateMutability": "view",
      "type": "function"
    },
    {
      "inputs": [],
      "name": "STATE_EVIDENCE_COLLECTED",
      "outputs": [
        {
          "internalType": "bytes32",
          "name": "",
          "type": "bytes32"
        }
      ],
      "stateMutability": "view",
      "type": "function"
    },
    {
      "inputs": [],
      "name": "STATE_IN_TRANSIT",
      "outputs": [
        {
          "internalType": "bytes32",
          "name": "",
          "type": "bytes32"
        }
      ],
      "stateMutability": "view",
      "type": "function"
    },
    {
      "inputs": [],
      "name": "STATE_PROSECUSSION_PROCESS",
      "outputs": [
        {
          "internalType": "bytes32",
          "name": "",
          "type": "bytes32"
        }
      ],
      "stateMutability": "view",
      "type": "function"
    },
    {
      "inputs": [],
      "name": "STATE_RECEIEVED_AT_PROPERTY_ROOM",
      "outputs": [
        {
          "internalType": "bytes32",
          "name": "",
          "type": "bytes32"
        }
      ],
      "stateMutability": "view",
      "type": "function"
    },
    {
      "inputs": [],
      "name": "STATE_RECEIVED_AT_LAB",
      "outputs": [
        {
          "internalType": "bytes32",
          "name": "",
          "type": "bytes32"
        }
      ],
      "stateMutability": "view",
      "type": "function"
    },
    {
      "inputs": [],
      "name": "STATE_RECEIVED_AT_LAW_ENFORCEMENT",
      "outputs": [
        {
          "internalType": "bytes32",
          "name": "",
          "type": "bytes32"
        }
      ],
      "stateMutability": "view",
      "type": "function"
    },
    {
      "inputs": [],
      "name": "STATE_STOCKED_AT_PROPERTY_ROOM",
      "outputs": [
        {
          "internalType": "bytes32",
          "name": "",
          "type": "bytes32"
        }
      ],
      "stateMutability": "view",
      "type": "function"
    },
    {
      "inputs": [],
      "name": "STATE_TRIAL_COURT",
      "outputs": [
        {
          "internalType": "bytes32",
          "name": "",
          "type": "bytes32"
        }
      ],
      "stateMutability": "view",
      "type": "function"
    },
    {
      "inputs": [],
      "name": "UPDATE_IPFSCONTAINERHASH_ROLE",
      "outputs": [
        {
          "internalType": "bytes32",
          "name": "",
          "type": "bytes32"
        }
      ],
      "stateMutability": "view",
      "type": "function"
    },
    {
      "inputs": [],
      "name": "_Case_ID",
      "outputs": [
        {
          "internalType": "string",
          "name": "",
          "type": "string"
        }
      ],
      "stateMutability": "view",
      "type": "function"
    },
    {
      "inputs": [],
      "name": "_ipfsFieldContainerHash",
      "outputs": [
        {
          "internalType": "string",
          "name": "",
          "type": "string"
        }
      ],
      "stateMutability": "view",
      "type": "function"
    },
    {
      "inputs": [
        {
          "internalType": "uint256",
          "name": "",
          "type": "uint256"
        }
      ],
      "name": "_roles",
      "outputs": [
        {
          "internalType": "bytes32",
          "name": "",
          "type": "bytes32"
        }
      ],
      "stateMutability": "view",
      "type": "function"
    },
    {
      "inputs": [],
      "name": "_uiFieldDefinitionsHash",
      "outputs": [
        {
          "internalType": "string",
          "name": "",
          "type": "string"
        }
      ],
      "stateMutability": "view",
      "type": "function"
    },
    {
      "inputs": [],
      "name": "gateKeeper",
      "outputs": [
        {
          "internalType": "contract GateKeeper",
          "name": "",
          "type": "address"
        }
      ],
      "stateMutability": "view",
      "type": "function"
    },
    {
      "inputs": [],
      "name": "getAllStates",
      "outputs": [
        {
          "internalType": "bytes32[]",
          "name": "allStates",
          "type": "bytes32[]"
        }
      ],
      "stateMutability": "view",
      "type": "function"
    },
    {
      "inputs": [],
      "name": "getCurrentState",
      "outputs": [
        {
          "internalType": "bytes32",
          "name": "state",
          "type": "bytes32"
        }
      ],
      "stateMutability": "view",
      "type": "function"
    },
    {
      "inputs": [
        {
          "internalType": "uint256",
          "name": "index",
          "type": "uint256"
        }
      ],
      "name": "getHistory",
      "outputs": [
        {
          "internalType": "bytes32",
          "name": "fromState",
          "type": "bytes32"
        },
        {
          "internalType": "bytes32",
          "name": "toState",
          "type": "bytes32"
        },
        {
          "internalType": "address",
          "name": "actor",
          "type": "address"
        },
        {
          "internalType": "uint256",
          "name": "timestamp",
          "type": "uint256"
        }
      ],
      "stateMutability": "view",
      "type": "function"
    },
    {
      "inputs": [],
      "name": "getHistoryLength",
      "outputs": [
        {
          "internalType": "uint256",
          "name": "",
          "type": "uint256"
        }
      ],
      "stateMutability": "view",
      "type": "function"
    },
    {
      "inputs": [],
      "name": "getIpfsFieldContainerHash",
      "outputs": [
        {
          "internalType": "string",
          "name": "",
          "type": "string"
        }
      ],
      "stateMutability": "view",
      "type": "function"
    },
    {
      "inputs": [],
      "name": "getNextStates",
      "outputs": [
        {
          "internalType": "bytes32[]",
          "name": "nextStates",
          "type": "bytes32[]"
        }
      ],
      "stateMutability": "view",
      "type": "function"
    },
    {
      "inputs": [
        {
          "internalType": "bytes32",
          "name": "state",
          "type": "bytes32"
        }
      ],
      "name": "getState",
      "outputs": [
        {
          "internalType": "bytes32",
          "name": "name",
          "type": "bytes32"
        },
        {
          "internalType": "bytes32[]",
          "name": "nextStates",
          "type": "bytes32[]"
        },
        {
          "internalType": "bytes32[]",
          "name": "allowedRoles",
          "type": "bytes32[]"
        },
        {
          "internalType": "bytes4[]",
          "name": "allowedFunctions",
          "type": "bytes4[]"
        },
        {
          "internalType": "bytes4",
          "name": "preFunction",
          "type": "bytes4"
        }
      ],
      "stateMutability": "view",
      "type": "function"
    },
    {
      "inputs": [
        {
          "internalType": "uint256",
          "name": "",
          "type": "uint256"
        }
      ],
      "name": "history",
      "outputs": [
        {
          "internalType": "bytes32",
          "name": "fromState",
          "type": "bytes32"
        },
        {
          "internalType": "bytes32",
          "name": "toState",
          "type": "bytes32"
        },
        {
          "internalType": "address",
          "name": "actor",
          "type": "address"
        },
        {
          "internalType": "uint256",
          "name": "timestamp",
          "type": "uint256"
        }
      ],
      "stateMutability": "view",
      "type": "function"
    },
    {
      "inputs": [
        {
          "internalType": "bytes32",
          "name": "key",
          "type": "bytes32"
        },
        {
          "internalType": "string",
          "name": "file",
          "type": "string"
        }
      ],
      "name": "setContractFile",
      "outputs": [],
      "stateMutability": "nonpayable",
      "type": "function"
    },
    {
      "inputs": [
        {
          "internalType": "string",
          "name": "ipfsFieldContainerHash",
          "type": "string"
        }
      ],
      "name": "setIpfsFieldContainerHash",
      "outputs": [],
      "stateMutability": "nonpayable",
      "type": "function"
    },
    {
      "inputs": [
        {
          "internalType": "bytes32",
          "name": "toState",
          "type": "bytes32"
        }
      ],
      "name": "transitionState",
      "outputs": [],
      "stateMutability": "nonpayable",
      "type": "function"
    },
    {
      "inputs": [
        {
          "internalType": "string",
          "name": "Case_ID",
          "type": "string"
        },
        {
          "internalType": "string",
          "name": "ipfsFieldContainerHash",
          "type": "string"
        }
      ],
      "name": "edit",
      "outputs": [],
      "stateMutability": "nonpayable",
      "type": "function"
    },
    {
      "inputs": [],
      "name": "DID",
      "outputs": [
        {
          "internalType": "string",
          "name": "",
          "type": "string"
        }
      ],
      "stateMutability": "view",
      "type": "function"
    },
    {
      "inputs": [],
      "name": "getRoles",
      "outputs": [
        {
          "internalType": "bytes32[]",
          "name": "",
          "type": "bytes32[]"
        }
      ],
      "stateMutability": "view",
      "type": "function"
    }
  ],
  "bytecode": "0x610140604052692927a622afa0a226a4a760b11b60809081526e2927a622afaa22a1a42724a1a4a0a760891b60a0526d1493d31157d4d0d25153951254d560921b60c0526f2927a622afaa2920a729a827a92a22a960811b60e0526d2927a622afa827a624a1a2a6a0a760911b6101005269524f4c455f4a5544474560b01b610120526200009290600b90600662000936565b50348015620000a057600080fd5b506040516200268d3803806200268d833981016040819052620000c39162000acc565b600080546001600160a01b0319166001600160a01b0386161790558251620000f390600d90602086019062000986565b5081516200010990600790602085019062000986565b5080516200011f90600c90602084019062000986565b506200012a62000134565b5050505062000bcc565b6200014e6000805160206200262d833981519152620005f5565b620001696c10d054d1481251081095525315609a1b620005f5565b62000181691253881514905394d25560b21b620005f5565b6200019b6000805160206200260d833981519152620005f5565b620001b56000805160206200266d833981519152620005f5565b620001d26e2922a1a4a2ab22a21020aa102620a160891b620005f5565b620001f06f4341534520494420414e414c5953495360801b620005f5565b6200020a6000805160206200264d833981519152620005f5565b62000224600080516020620025cd833981519152620005f5565b6200024f7f46524f4e54204f4620545249414c20434f555254000000000000000000000000620005f5565b6200027a6000805160206200262d8339815191526c10d054d1481251081095525315609a1b620006b3565b620002a36c10d054d1481251081095525315609a1b691253881514905394d25560b21b620006b3565b620002cb691253881514905394d25560b21b6000805160206200260d833981519152620006b3565b620002f56000805160206200260d8339815191526000805160206200266d833981519152620006b3565b6200031d6000805160206200266d833981519152691253881514905394d25560b21b620006b3565b62000348691253881514905394d25560b21b6e2922a1a4a2ab22a21020aa102620a160891b620006b3565b620003796e2922a1a4a2ab22a21020aa102620a160891b6f4341534520494420414e414c5953495360801b620006b3565b620003a56f4341534520494420414e414c5953495360801b691253881514905394d25560b21b620006b3565b620003cd691253881514905394d25560b21b6000805160206200264d833981519152620006b3565b620003f76000805160206200264d833981519152600080516020620025cd833981519152620006b3565b62000432600080516020620025cd8339815191527f46524f4e54204f4620545249414c20434f555254000000000000000000000000620006b3565b6200045a6000805160206200262d833981519152692927a622afa0a226a4a760b11b62000793565b620004836c10d054d1481251081095525315609a1b692927a622afa0a226a4a760b11b62000793565b620004a9691253881514905394d25560b21b692927a622afa0a226a4a760b11b62000793565b620004d16000805160206200260d833981519152692927a622afa0a226a4a760b11b62000793565b620004f96000805160206200266d833981519152692927a622afa0a226a4a760b11b62000793565b620005246e2922a1a4a2ab22a21020aa102620a160891b692927a622afa0a226a4a760b11b62000793565b620005506f4341534520494420414e414c5953495360801b692927a622afa0a226a4a760b11b62000793565b620005786000805160206200264d833981519152692927a622afa0a226a4a760b11b62000793565b620005a0600080516020620025cd833981519152692927a622afa0a226a4a760b11b62000793565b620005d97f46524f4e54204f4620545249414c20434f555254000000000000000000000000692927a622afa0a226a4a760b11b62000793565b620005f36000805160206200262d83398151915262000816565b565b60008181526002602052604090205460ff1615620006665760405162461bcd60e51b815260206004820152602360248201527f746869732073746174652068617320616c7265616479206265656e20637265616044820152621d195960ea1b60648201526084015b60405180910390fd5b6000818152600260205260408120805460ff191660019081179091556003805491820181559091527fc2575a0e9e593c00f959f8c92f12db2869c3395a3b0502d05e2516446f71f85b0155565b600082815260026020526040902054829060ff166200070f5760405162461bcd60e51b81526020600482015260226024820152600080516020620025ed833981519152604482015261195d60f21b60648201526084016200065d565b600082815260026020526040902054829060ff166200076b5760405162461bcd60e51b81526020600482015260226024820152600080516020620025ed833981519152604482015261195d60f21b60648201526084016200065d565b5050600091825260026020908152604083206005018054600181018255908452922090910155565b600082815260026020526040902054829060ff16620007ef5760405162461bcd60e51b81526020600482015260226024820152600080516020620025ed833981519152604482015261195d60f21b60648201526084016200065d565b50600091825260026020818152604084209091018054600181018255908452922090910155565b60008181526002602052604090205460ff16620008895760405162461bcd60e51b815260206004820152602a60248201527f74686520696e697469616c20737461746520686173206e6f74206265656e20636044820152691c99585d1959081e595d60b21b60648201526084016200065d565b60045415620009315760405162461bcd60e51b815260206004820152606160248201527f7468652063757272656e742073746174652068617320616c726561647920626560448201527f656e207365742c20736f20796f752063616e6e6f7420636f6e6669677572652060648201527f74686520696e697469616c20737461746520616e64206f7665727269646520696084820152601d60fa1b60a482015260c4016200065d565b600455565b82805482825590600052602060002090810192821562000974579160200282015b828111156200097457825182559160200191906001019062000957565b506200098292915062000a02565b5090565b828054620009949062000b79565b90600052602060002090601f016020900481019282620009b8576000855562000974565b82601f10620009d357805160ff191683800117855562000974565b828001600101855582156200097457918201828111156200097457825182559160200191906001019062000957565b5b8082111562000982576000815560010162000a03565b600082601f83011262000a2a578081fd5b81516001600160401b038082111562000a475762000a4762000bb6565b604051601f8301601f19908116603f0116810190828211818310171562000a725762000a7262000bb6565b8160405283815260209250868385880101111562000a8e578485fd5b8491505b8382101562000ab1578582018301518183018401529082019062000a92565b8382111562000ac257848385830101525b9695505050505050565b6000806000806080858703121562000ae2578384fd5b84516001600160a01b038116811462000af9578485fd5b60208601519094506001600160401b038082111562000b16578485fd5b62000b248883890162000a19565b9450604087015191508082111562000b3a578384fd5b62000b488883890162000a19565b9350606087015191508082111562000b5e578283fd5b5062000b6d8782880162000a19565b91505092959194509250565b600181811c9082168062000b8e57607f821691505b6020821081141562000bb057634e487b7160e01b600052602260045260246000fd5b50919050565b634e487b7160e01b600052604160045260246000fd5b6119f18062000bdc6000396000f3fe608060405234801561001057600080fd5b506004361061021c5760003560e01c80637106139811610125578063bf292a82116100ad578063d30c492e1161007c578063d30c492e1461050d578063d391014b14610534578063ef120a6e14610548578063f4a979a314610550578063fcbb5907146105635761021c565b8063bf292a82146104ab578063c345b829146104c9578063c8691b2a146104e1578063d0d881f0146104f45761021c565b8063a4ddb071116100f4578063a4ddb07114610403578063a786f5db1461040b578063a7a38f0b14610432578063ad2d85e514610474578063bc7b8b24146104915761021c565b806371061398146103b5578063805d8960146103bd5780638f31fa15146103e4578063910fd10a146103fb5761021c565b8063378aa701116101a8578063489f19eb11610177578063489f19eb1461036a5780634de6740e1461037f5780635478f4681461038757806356c57bd11461038f578063694f1105146103a25761021c565b8063378aa701146103165780633ad61af61461031e5780633e44694f1461033757806345d61ded1461033f5761021c565b806315e1014f116101ef57806315e1014f1461029957806322aab265146102c057806328e2111f146102da5780632e2bc0d5146102ee578063304b1bd1146103035761021c565b8063018875c71461022157806309648a9d1461024c5780630afb5551146102705780630ec05dcd14610284575b600080fd5b6102396d1493d31157d4d0d25153951254d560921b81565b6040519081526020015b60405180910390f35b61025f61025a366004611631565b61058a565b604051610243959493929190611836565b61023969524f4c455f4a5544474560b01b81565b61028c6108d4565b60405161024391906118c1565b6102397f50524f5345435554494f4e2050524f434553532053544152544544000000000081565b6102396f4341534520494420414e414c5953495360801b81565b610239691253881514905394d25560b21b81565b6102f6610962565b6040516102439190611823565b610239610311366004611631565b6109c8565b6102396109e9565b6102396e2922a1a4a2ab22a21020aa102620a160891b81565b61028c610a69565b600054610352906001600160a01b031681565b6040516001600160a01b039091168152602001610243565b61037d6103783660046116c9565b610a91565b005b61028c610abd565b600154610239565b61037d61039d36600461168e565b610aca565b61037d6103b0366004611631565b610ae1565b6102f6610d20565b6102397f52454349455645442041542050524f504552545920524f4f4d0000000000000081565b6102396c10d054d1481251081095525315609a1b81565b61028c610d76565b6102f6610d83565b6102397f53544f434b45442041542050524f504552545920524f4f4d000000000000000081565b610445610440366004611631565b610dd9565b604051610243949392919093845260208401929092526001600160a01b03166040830152606082015260800190565b6102397211559251115390d154c810d3d3131150d51151606a1b81565b6102396f2927a622afaa2920a729a827a92a22a960811b81565b61023973119493d3950813d18815149250530810d3d5549560621b81565b6102396d2927a622afa827a624a1a2a6a0a760911b81565b6104456104ef366004611631565b610e1c565b6102396e2927a622afaa22a1a42724a1a4a0a760891b81565b6102397f5245434549564544204154204c415720454e464f5243454d454e54000000000081565b610239692927a622afa0a226a4a760b11b81565b61028c610f56565b61037d61055e366004611649565b610fdf565b6102397f5550444154455f49504653434f4e5441494e4552484153485f524f4c4500000081565b60008181526002602052604081206005546060918291829185918290819067ffffffffffffffff8111156105ce57634e487b7160e01b600052604160045260246000fd5b6040519080825280602002602001820160405280156105f7578160200160208202803683370190505b50905060005b60055481101561072257600260008b815260200190815260200160002060010160006005838154811061064057634e487b7160e01b600052603260045260246000fd5b6000918252602080832060088304015460079092166004026101000a90910460e01b6001600160e01b031916835282019290925260400190205460ff161561071057600581815481106106a357634e487b7160e01b600052603260045260246000fd5b90600052602060002090600891828204019190066004029054906101000a900460e01b828460ff16815181106106e957634e487b7160e01b600052603260045260246000fd5b6001600160e01b03199092166020928302919091019091015261070d600184611914565b92505b8061071a81611974565b9150506105fd565b5060008260ff1667ffffffffffffffff81111561074f57634e487b7160e01b600052604160045260246000fd5b604051908082528060200260200182016040528015610778578160200160208202803683370190505b50905060005b8360ff168110156107fc578281815181106107a957634e487b7160e01b600052603260045260246000fd5b60200260200101518282815181106107d157634e487b7160e01b600052603260045260246000fd5b6001600160e01b031990921660209283029190910190910152806107f481611974565b91505061077e565b50898460050185600201838760060160009054906101000a900460e01b8380548060200260200160405190810160405280929190818152602001828054801561086457602002820191906000526020600020905b815481526020019060010190808311610850575b50505050509350828054806020026020016040519081016040528092919081815260200182805480156108b657602002820191906000526020600020905b8154815260200190600101908083116108a2575b50505050509250985098509850985098505050505091939590929450565b600d80546108e190611939565b80601f016020809104026020016040519081016040528092919081815260200182805461090d90611939565b801561095a5780601f1061092f5761010080835404028352916020019161095a565b820191906000526020600020905b81548152906001019060200180831161093d57829003601f168201915b505050505081565b6004546000908152600260209081526040918290206005018054835181840281018401909452808452606093928301828280156109be57602002820191906000526020600020905b8154815260200190600101908083116109aa575b5050505050905090565b600b81815481106109d857600080fd5b600091825260209091200154905081565b60045460009081526002602052604081205460ff16610a625760405162461bcd60e51b815260206004820152602a60248201527f74686520696e697469616c20737461746520686173206e6f74206265656e20636044820152691c99585d1959081e595d60b21b60648201526084015b60405180910390fd5b5060045490565b6060600d604051602001610a7d919061175a565b604051602081830303815290604052905090565b8151610aa490600d9060208501906114db565b508051610ab89060079060208401906114db565b505050565b600c80546108e190611939565b8051610add9060079060208401906114db565b5050565b600354610b415760405162461bcd60e51b815260206004820152602860248201527f746869732073746174656d616368696e6520686173206e6f74206265656e2073604482015267195d1d5c081e595d60c21b6064820152608401610a59565b80610b53610b4d6109e9565b8261105f565b600480548382556000848152600260205260408120919291909101905b8154811015610be957610bd78386848481548110610b9e57634e487b7160e01b600052603260045260246000fd5b90600052602060002090600491828204019190066008029054906101000a9004801561155f021767ffffffffffffffff1663ffffffff16565b80610be181611974565b915050610b70565b506040805160808101825283815260208082018781523383850181815242606080870191825260018054808201825560009190915296517fb10e2d527612073b26eecdfd717e6a320cf44b4afac2b0732d9fcbe2b7fa0cf660049889029081019190915594517fb10e2d527612073b26eecdfd717e6a320cf44b4afac2b0732d9fcbe2b7fa0cf786015591517fb10e2d527612073b26eecdfd717e6a320cf44b4afac2b0732d9fcbe2b7fa0cf8850180546001600160a01b0319166001600160a01b03909216919091179055517fb10e2d527612073b26eecdfd717e6a320cf44b4afac2b0732d9fcbe2b7fa0cf99093019290925592548451938452918301869052928201527f483a31c379a4b707332853662276a3424ec44f0ccbfc20d78fd9d143694f7669910160405180910390a150505050565b6060600b8054806020026020016040519081016040528092919081815260200182805480156109be57602002820191906000526020600020908154815260200190600101908083116109aa575050505050905090565b600780546108e190611939565b606060038054806020026020016040519081016040528092919081815260200182805480156109be57602002820191906000526020600020908154815260200190600101908083116109aa575050505050905090565b60018181548110610de957600080fd5b60009182526020909120600490910201805460018201546002830154600390930154919350916001600160a01b03169084565b60008080806001548510610e685760405162461bcd60e51b8152602060048201526013602482015272496e646578206f7574206f6620626f756e647360681b6044820152606401610a59565b60018581548110610e8957634e487b7160e01b600052603260045260246000fd5b90600052602060002090600402016000015460018681548110610ebc57634e487b7160e01b600052603260045260246000fd5b90600052602060002090600402016001015460018781548110610eef57634e487b7160e01b600052603260045260246000fd5b906000526020600020906004020160020160009054906101000a90046001600160a01b031660018881548110610f3557634e487b7160e01b600052603260045260246000fd5b90600052602060002090600402016003015493509350935093509193509193565b606060078054610f6590611939565b80601f0160208091040260200160405190810160405280929190818152602001828054610f9190611939565b80156109be5780601f10610fb3576101008083540402835291602001916109be565b820191906000526020600020905b815481529060010190602001808311610fc157509395945050505050565b60008281526009602052604090205460ff16611040576008805460018181019092557ff3f7a9fe364faab93b216da50a3214154f22a0a2b415b23a84c8169e8b636ee3018390556000838152600960205260409020805460ff191690911790555b6000828152600a602090815260409091208251610ab8928401906114db565b60008281526002602052604090205460ff166110db5760405162461bcd60e51b815260206004820152603560248201527f7468652066726f6d20737461746520686173206e6f74206265656e20636f6e666044820152741a59dd5c9959081a5b881d1a1a5cc81bd89a9958dd605a1b6064820152608401610a59565b60008181526002602052604090205460ff166111555760405162461bcd60e51b815260206004820152603360248201527f74686520746f20737461746520686173206e6f74206265656e20636f6e6669676044820152721d5c9959081a5b881d1a1a5cc81bd89a9958dd606a1b6064820152608401610a59565b61115f82826112a0565b6111e35760405162461bcd60e51b815260206004820152604960248201527f74686520726571756573746564206e657874207374617465206973206e6f742060448201527f616e20616c6c6f776564206e65787420737461746520666f72207468697320746064820152683930b739b4ba34b7b760b91b608482015260a401610a59565b6111ec8161135a565b6112965760405162461bcd60e51b815260206004820152606960248201527f7468652073656e646572206f662074686973207472616e73616374696f6e206460448201527f6f6573206e6f742068617665206120726f6c65207468617420616c6c6f77732060648201527f7472616e736974696f6e206265747765656e207468652066726f6d20616e6420608482015268746f2073746174657360b81b60a482015260c401610a59565b610add82826113dd565b6000828152600260205260408120600501815b815481101561135257604080516020810186905201604051602081830303815290604052805190602001208282815481106112fe57634e487b7160e01b600052603260045260246000fd5b906000526020600020015460405160200161131b91815260200190565b6040516020818303038152906040528051906020012014156113405760019250611352565b8061134a81611974565b9150506112b3565b505092915050565b6000818152600260208190526040822001805461137657600191505b60005b81548110156113d6576113b6338383815481106113a657634e487b7160e01b600052603260045260246000fd5b9060005260206000200154611436565b156113c457600192506113d6565b806113ce81611974565b915050611379565b5050919050565b6000818152600260205260408120600301905b81548110156114305761141e8484848481548110610b9e57634e487b7160e01b600052603260045260246000fd5b8061142881611974565b9150506113f0565b50505050565b600080546001600160a01b031615806114d45750600054604051630dace25b60e31b81526001600160a01b0385811660048301523060248301526044820185905290911690636d6712d89060640160206040518083038186803b15801561149c57600080fd5b505afa1580156114b0573d6000803e3d6000fd5b505050506040513d601f19601f820116820180604052508101906114d49190611611565b9392505050565b8280546114e790611939565b90600052602060002090601f016020900481019282611509576000855561154f565b82601f1061152257805160ff191683800117855561154f565b8280016001018555821561154f579182015b8281111561154f578251825591602001919060010190611534565b5061155b929150611575565b5090565b634e487b7160e01b600052605160045260246000fd5b5b8082111561155b5760008155600101611576565b600082601f83011261159a578081fd5b813567ffffffffffffffff808211156115b5576115b56119a5565b604051601f8301601f19908116603f011681019082821181831017156115dd576115dd6119a5565b816040528381528660208588010111156115f5578485fd5b8360208701602083013792830160200193909352509392505050565b600060208284031215611622578081fd5b815180151581146114d4578182fd5b600060208284031215611642578081fd5b5035919050565b6000806040838503121561165b578081fd5b82359150602083013567ffffffffffffffff811115611678578182fd5b6116848582860161158a565b9150509250929050565b60006020828403121561169f578081fd5b813567ffffffffffffffff8111156116b5578182fd5b6116c18482850161158a565b949350505050565b600080604083850312156116db578182fd5b823567ffffffffffffffff808211156116f2578384fd5b6116fe8683870161158a565b93506020850135915080821115611713578283fd5b506116848582860161158a565b6000815180845260208085019450808401835b8381101561174f57815187529582019590820190600101611733565b509495945050505050565b60007f6469643a64656d6f3a737570706c79636861696e66696e616e63653a000000008252601c81845483600182811c91508083168061179b57607f831692505b60208084108214156117bb57634e487b7160e01b88526022600452602488fd5b8180156117cf57600181146117e457611814565b60ff1986168a890152848a0188019650611814565b60008b815260209020895b8681101561180a5781548c82018b01529085019083016117ef565b505087858b010196505b50949998505050505050505050565b6000602082526114d46020830184611720565b6000868252602060a08184015261185060a0840188611720565b83810360408501526118628188611720565b84810360608601528651808252838801925090830190845b818110156118a05783516001600160e01b0319168352928401929184019160010161187a565b505080935050505063ffffffff60e01b831660808301529695505050505050565b6000602080835283518082850152825b818110156118ed578581018301518582016040015282016118d1565b818111156118fe5783604083870101525b50601f01601f1916929092016040019392505050565b600060ff821660ff84168060ff038211156119315761193161198f565b019392505050565b600181811c9082168061194d57607f821691505b6020821081141561196e57634e487b7160e01b600052602260045260246000fd5b50919050565b60006000198214156119885761198861198f565b5060010190565b634e487b7160e01b600052601160045260246000fd5b634e487b7160e01b600052604160045260246000fdfea2646970667358221220d72e5d9c8a6b66dab87a0c863425f2e060414c8d4798259f644abae6d8a3815264736f6c6343000803003350524f5345435554494f4e2050524f434553532053544152544544000000000074686520737461746520686173206e6f74206265656e2063726561746564207952454349455645442041542050524f504552545920524f4f4d0000000000000045564944454e43455320434f4c4c4543544544000000000000000000000000005245434549564544204154204c415720454e464f5243454d454e54000000000053544f434b45442041542050524f504552545920524f4f4d0000000000000000",
  "immutableReferences": {},
  "source": "/**\n * Copyright (C) SettleMint NV - All Rights Reserved\n *\n * Use of this file is strictly prohibited without an active license agreement.\n * Distribution of this file, via any medium, is strictly prohibited.\n *\n * For license inquiries, contact hello@settlemint.com\n *\n * SPDX-License-Identifier: UNLICENSED\n */\n\npragma solidity ^0.8.0;\n\nimport '../_library//authentication/Secured.sol';\nimport '../_library//provenance/statemachine/StateMachine.sol';\nimport '../_library//utility/metadata/IpfsFieldContainer.sol';\nimport '../_library//utility/metadata/FileFieldContainer.sol';\nimport '../_library//utility/conversions/Converter.sol';\n\n/**\n * SupplyChain\n\n *\n * @title State machine for SupplyChain\n */\ncontract EvidenceManagementSystem is Converter, StateMachine, IpfsFieldContainer, FileFieldContainer {\n  bytes32 public constant STATE_EVIDENCE_COLLECTED = 'EVIDENCES COLLECTED';\n  bytes32 public constant STATE_CASE_ID_BUILT = 'CASE ID BUILT';\n  \n  bytes32 public constant STATE_IN_TRANSIT = 'IN TRANSIT';\n  bytes32 public constant STATE_RECEIEVED_AT_PROPERTY_ROOM = 'RECIEVED AT PROPERTY ROOM';\n  bytes32 public constant STATE_STOCKED_AT_PROPERTY_ROOM = 'STOCKED AT PROPERTY ROOM';\n\n\n  bytes32 public constant STATE_RECEIVED_AT_LAB = 'RECIEVED AT LAB';\n  bytes32 public constant STATE_CASE_ID_ANALYIS = 'CASE ID ANALYSIS';\n\n  bytes32 public constant STATE_RECEIVED_AT_LAW_ENFORCEMENT = 'RECEIVED AT LAW ENFORCEMENT';\n  bytes32 public constant STATE_PROSECUSSION_PROCESS = 'PROSECUTION PROCESS STARTED';\n  bytes32 public constant STATE_TRIAL_COURT = 'FRONT OF TRIAL COURT';\n\n  bytes32 public constant ROLE_ADMIN = 'ROLE_ADMIN';\n  bytes32 public constant ROLE_TECHNICIAN = 'ROLE_TECHNICIAN';\n  bytes32 public constant ROLE_SCIENTIST = 'ROLE_SCIENTIST';\n  bytes32 public constant ROLE_TRANSPORTER = 'ROLE_TRANSPORTER';\n  bytes32 public constant ROLE_POLICEMAN = 'ROLE_POLICEMAN';\n  bytes32 public constant ROLE_JUDGE = 'ROLE_JUDGE';\n\n  bytes32[] public _roles = [ROLE_ADMIN, ROLE_TECHNICIAN, ROLE_SCIENTIST, ROLE_TRANSPORTER, ROLE_POLICEMAN, ROLE_JUDGE];\n\n  string public _uiFieldDefinitionsHash;\n  string public _Case_ID;\n\n  constructor(\n    address gateKeeper,\n    string memory Case_ID,\n    string memory ipfsFieldContainerHash,\n    string memory uiFieldDefinitionsHash\n  ) Secured(gateKeeper) {\n    _Case_ID = Case_ID;\n    _ipfsFieldContainerHash = ipfsFieldContainerHash;\n    _uiFieldDefinitionsHash = uiFieldDefinitionsHash;\n    setupStateMachine();\n  }\n\n  /**\n   * @notice Updates expense properties\n   * @param Case_ID It is the order Identification Number\n   * @param ipfsFieldContainerHash ipfs hash of supplychainfinance metadata\n   */\n  function edit(string memory Case_ID, string memory ipfsFieldContainerHash) public {\n    _Case_ID = Case_ID;\n    _ipfsFieldContainerHash = ipfsFieldContainerHash;\n  }\n\n  /**\n   * @notice Returns a DID of the supplychainfinance\n   * @dev Returns a unique DID (Decentralized Identifier) for the supplychainfinance.\n   * @return string representing the DID of the supplychainfinance\n   */\n  function DID() public view returns (string memory) {\n    return string(abi.encodePacked('did:demo:supplychainfinance:', _Case_ID));\n  }\n\n  /**\n   * @notice Returns all the roles for this contract\n   * @return bytes32[] array of raw bytes representing the roles\n   */\n  function getRoles() public view returns (bytes32[] memory) {\n    return _roles;\n  }\n\n  function setupStateMachine() internal override {\n    //create all states\n\n    createState(STATE_EVIDENCE_COLLECTED);\n    createState(STATE_CASE_ID_BUILT);\n    createState(STATE_IN_TRANSIT);\n    createState(STATE_RECEIEVED_AT_PROPERTY_ROOM);\n    createState(STATE_STOCKED_AT_PROPERTY_ROOM);\n    createState(STATE_RECEIVED_AT_LAB);\n    createState(STATE_CASE_ID_ANALYIS);\n    createState(STATE_RECEIVED_AT_LAW_ENFORCEMENT);\n    createState(STATE_PROSECUSSION_PROCESS);\n    createState(STATE_TRIAL_COURT);\n\n    // add properties\n\n    addNextStateForState(STATE_EVIDENCE_COLLECTED, STATE_CASE_ID_BUILT);\n    addNextStateForState(STATE_CASE_ID_BUILT, STATE_IN_TRANSIT);\n    addNextStateForState(STATE_IN_TRANSIT, STATE_RECEIEVED_AT_PROPERTY_ROOM);\n    addNextStateForState(STATE_RECEIEVED_AT_PROPERTY_ROOM, STATE_STOCKED_AT_PROPERTY_ROOM);\n    addNextStateForState(STATE_STOCKED_AT_PROPERTY_ROOM, STATE_IN_TRANSIT);\n    addNextStateForState(STATE_IN_TRANSIT, STATE_RECEIVED_AT_LAB);\n    addNextStateForState(STATE_RECEIVED_AT_LAB, STATE_CASE_ID_ANALYIS);\n    addNextStateForState(STATE_CASE_ID_ANALYIS, STATE_IN_TRANSIT);\n    addNextStateForState(STATE_IN_TRANSIT, STATE_RECEIVED_AT_LAW_ENFORCEMENT);\n    addNextStateForState(STATE_RECEIVED_AT_LAW_ENFORCEMENT, STATE_PROSECUSSION_PROCESS);\n    addNextStateForState(STATE_PROSECUSSION_PROCESS, STATE_TRIAL_COURT);\n\n    addRoleForState(STATE_EVIDENCE_COLLECTED, ROLE_ADMIN);\n    addRoleForState(STATE_CASE_ID_BUILT, ROLE_ADMIN);\n    addRoleForState(STATE_IN_TRANSIT, ROLE_ADMIN);\n    addRoleForState(STATE_RECEIEVED_AT_PROPERTY_ROOM, ROLE_ADMIN);\n    addRoleForState(STATE_STOCKED_AT_PROPERTY_ROOM, ROLE_ADMIN); \n    addRoleForState(STATE_RECEIVED_AT_LAB, ROLE_ADMIN);\n    addRoleForState(STATE_CASE_ID_ANALYIS, ROLE_ADMIN);\n    addRoleForState(STATE_RECEIVED_AT_LAW_ENFORCEMENT, ROLE_ADMIN);\n    addRoleForState(STATE_PROSECUSSION_PROCESS, ROLE_ADMIN);\n    addRoleForState(STATE_TRIAL_COURT, ROLE_ADMIN);\n\n    setInitialState(STATE_EVIDENCE_COLLECTED);\n  }\n}\n",
  "sourcePath": "/home/coder/project/contracts/evidencemanagementsystem/EvidenceManagementSystem.sol",
  "compiler": {
    "name": "solc",
    "version": "0.8.3+commit.8d00100c.Emscripten.clang"
  },
  "schemaVersion": "3.4.1",
  "updatedAt": "2021-08-03T10:03:35.537Z",
  "devdoc": {
    "kind": "dev",
    "methods": {
      "DID()": {
        "details": "Returns a unique DID (Decentralized Identifier) for the supplychainfinance.",
        "returns": {
          "_0": "string representing the DID of the supplychainfinance"
        }
      },
      "edit(string,string)": {
        "params": {
          "Case_ID": "It is the order Identification Number",
          "ipfsFieldContainerHash": "ipfs hash of supplychainfinance metadata"
        }
      },
      "getCurrentState()": {
        "details": "Requires the current state to be configured before calling this function"
      },
      "getHistory(uint256)": {
        "details": "Requires the index to be within the bounds of the history array"
      },
      "getRoles()": {
        "returns": {
          "_0": "bytes32[] array of raw bytes representing the roles"
        }
      },
      "transitionState(bytes32)": {
        "details": "Emits a Transition event after a successful transition."
      }
    },
    "title": "State machine for SupplyChain",
    "version": 1
  },
  "userdoc": {
    "kind": "user",
    "methods": {
      "DID()": {
        "notice": "Returns a DID of the supplychainfinance"
      },
      "edit(string,string)": {
        "notice": "Updates expense properties"
      },
      "getAllStates()": {
        "notice": "Returns a list of all the possible states of this object."
      },
      "getCurrentState()": {
        "notice": "Returns the name of the current state of this object."
      },
      "getHistory(uint256)": {
        "notice": "Returns history as tuple for given index."
      },
      "getHistoryLength()": {
        "notice": "Returns the length of the history"
      },
      "getNextStates()": {
        "notice": "Returns a list of all the possible next states of the current state."
      },
      "getRoles()": {
        "notice": "Returns all the roles for this contract"
      },
      "getState(bytes32)": {
        "notice": "Returns state as tuple for give state."
      },
      "transitionState(bytes32)": {
        "notice": "Transitions the state and executes all callbacks."
      }
    },
    "notice": "SupplyChain",
    "version": 1
  }
}