{
  "contractName": "EvidenceManagementSystemFactory",
  "abi": [
    {
      "inputs": [
        {
          "internalType": "contract GateKeeper",
          "name": "gateKeeper",
          "type": "address"
        },
        {
          "internalType": "contract EvidenceManagementSystemRegistry",
          "name": "registry",
          "type": "address"
        }
      ],
      "stateMutability": "nonpayable",
      "type": "constructor"
    },
    {
      "anonymous": false,
      "inputs": [
        {
          "indexed": false,
          "internalType": "address",
          "name": "statemachine",
          "type": "address"
        }
      ],
      "name": "StateMachineCreated",
      "type": "event"
    },
    {
      "inputs": [],
      "name": "CREATE_STATEMACHINE_ROLE",
      "outputs": [
        {
          "internalType": "bytes32",
          "name": "",
          "type": "bytes32"
        }
      ],
      "stateMutability": "view",
      "type": "function",
      "constant": true
    },
    {
      "inputs": [],
      "name": "UPDATE_UIFIELDDEFINITIONS_ROLE",
      "outputs": [
        {
          "internalType": "bytes32",
          "name": "",
          "type": "bytes32"
        }
      ],
      "stateMutability": "view",
      "type": "function",
      "constant": true
    },
    {
      "inputs": [],
      "name": "gateKeeper",
      "outputs": [
        {
          "internalType": "contract GateKeeper",
          "name": "",
          "type": "address"
        }
      ],
      "stateMutability": "view",
      "type": "function",
      "constant": true
    },
    {
      "inputs": [],
      "name": "getUIFieldDefinitionsHash",
      "outputs": [
        {
          "internalType": "string",
          "name": "",
          "type": "string"
        }
      ],
      "stateMutability": "view",
      "type": "function",
      "constant": true
    },
    {
      "inputs": [
        {
          "internalType": "string",
          "name": "uiFieldDefinitionsHash",
          "type": "string"
        }
      ],
      "name": "setUIFieldDefinitionsHash",
      "outputs": [],
      "stateMutability": "nonpayable",
      "type": "function"
    },
    {
      "inputs": [
        {
          "internalType": "string",
          "name": "Case_ID",
          "type": "string"
        },
        {
          "internalType": "string",
          "name": "ipfsFieldContainerHash",
          "type": "string"
        }
      ],
      "name": "create",
      "outputs": [],
      "stateMutability": "nonpayable",
      "type": "function"
    }
  ],
  "bytecode": "0x608060405234801561001057600080fd5b5060405161335738038061335783398101604081905261002f91610060565b600180546001600160a01b039384166001600160a01b031991821617909155600280549290931691161790556100b1565b60008060408385031215610072578182fd5b825161007d81610099565b602084015190925061008e81610099565b809150509250929050565b6001600160a01b03811681146100ae57600080fd5b50565b613297806100c06000396000f3fe60806040523480156200001157600080fd5b50600436106200006a5760003560e01c8063198e2b8a146200006f5780631f0f992a1462000088578063309c70cf14620000c3578063459b9af914620000e657806345d61ded14620000ff57806382f68683146200012c575b600080fd5b62000086620000803660046200091b565b62000143565b005b620000b07f5550444154455f55494649454c44444546494e4954494f4e535f524f4c45000081565b6040519081526020015b60405180910390f35b620000b0774352454154455f53544154454d414348494e455f524f4c4560401b81565b620000f0620004ed565b604051620000ba919062000ac0565b60015462000113906001600160a01b031681565b6040516001600160a01b039091168152602001620000ba565b620000866200013d366004620008dc565b62000587565b774352454154455f53544154454d414348494e455f524f4c4560401b6040518060600160405280602581526020016200323d602591396200018533836200060c565b8190620001b05760405162461bcd60e51b8152600401620001a7919062000ac0565b60405180910390fd5b5083518490620001fb5760405162461bcd60e51b8152602060048201526015602482015274104810d85cd957d251081a5cc81c995c5d5a5c9959605a1b6044820152606401620001a7565b6001546040516000916001600160a01b0316908790879084906200021f90620006b8565b6200022e9493929190620009d1565b604051809103906000f0801580156200024b573d6000803e3d6000fd5b5090506000816001600160a01b031663710613986040518163ffffffff1660e01b815260040160006040518083038186803b1580156200028a57600080fd5b505afa1580156200029f573d6000803e3d6000fd5b505050506040513d6000823e601f3d908101601f19168201604052620002c9919081019062000807565b905060005b8151811015620004455760015482516001600160a01b039091169063be038478908290630ef9ae39908690869081106200031857634e487b7160e01b600052603260045260246000fd5b60200260200101516040518263ffffffff1660e01b81526004016200033f91815260200190565b60206040518083038186803b1580156200035857600080fd5b505afa1580156200036d573d6000803e3d6000fd5b505050506040513d601f19601f82011682018060405250810190620003939190620007de565b85858581518110620003b557634e487b7160e01b600052603260045260246000fd5b60209081029190910101516040516001600160e01b031960e086901b1681526001600160a01b0393841660048201529290911660248301526044820152306064820152608401600060405180830381600087803b1580156200041657600080fd5b505af11580156200042b573d6000803e3d6000fd5b5050505080806200043c9062000b46565b915050620002ce565b50600254604051635e48156960e11b81526001600160a01b0384811660048301529091169063bc902ad290602401600060405180830381600087803b1580156200048e57600080fd5b505af1158015620004a3573d6000803e3d6000fd5b50506040516001600160a01b03851681527f9133c0c22004f4e0d1b425e3f564b710f3fda1af39a2e9565a1ce53eda52f7889250602001905060405180910390a150505050505050565b606060008054620004fe9062000b09565b80601f01602080910402602001604051908101604052809291908181526020018280546200052c9062000b09565b80156200057d5780601f1062000551576101008083540402835291602001916200057d565b820191906000526020600020905b8154815290600101906020018083116200055f57829003601f168201915b5050505050905090565b7f5550444154455f55494649454c44444546494e4954494f4e535f524f4c4500006040518060600160405280602b815260200162003212602b9139620005ce33836200060c565b8190620005f05760405162461bcd60e51b8152600401620001a7919062000ac0565b50825162000606906000906020860190620006c6565b50505050565b6001546000906001600160a01b03161580620006b15750600154604051630dace25b60e31b81526001600160a01b0385811660048301523060248301526044820185905290911690636d6712d89060640160206040518083038186803b1580156200067657600080fd5b505afa1580156200068b573d6000803e3d6000fd5b505050506040513d601f19601f82011682018060405250810190620006b19190620008ba565b9392505050565b61268d8062000b8583390190565b828054620006d49062000b09565b90600052602060002090601f016020900481019282620006f8576000855562000743565b82601f106200071357805160ff191683800117855562000743565b8280016001018555821562000743579182015b828111156200074357825182559160200191906001019062000726565b506200075192915062000755565b5090565b5b8082111562000751576000815560010162000756565b600082601f8301126200077d578081fd5b813567ffffffffffffffff8111156200079a576200079a62000b6e565b620007af601f8201601f191660200162000ad5565b818152846020838601011115620007c4578283fd5b816020850160208301379081016020019190915292915050565b600060208284031215620007f0578081fd5b81516001600160a01b0381168114620006b1578182fd5b600060208083850312156200081a578182fd5b825167ffffffffffffffff8082111562000832578384fd5b818501915085601f83011262000846578384fd5b8151818111156200085b576200085b62000b6e565b8060051b91506200086e84830162000ad5565b8181528481019084860184860187018a101562000889578788fd5b8795505b83861015620008ad5780518352600195909501949186019186016200088d565b5098975050505050505050565b600060208284031215620008cc578081fd5b81518015158114620006b1578182fd5b600060208284031215620008ee578081fd5b813567ffffffffffffffff81111562000905578182fd5b62000913848285016200076c565b949350505050565b600080604083850312156200092e578081fd5b823567ffffffffffffffff8082111562000946578283fd5b62000954868387016200076c565b935060208501359150808211156200096a578283fd5b5062000979858286016200076c565b9150509250929050565b60008151808452815b81811015620009aa576020818501810151868301820152016200098c565b81811115620009bc5782602083870101525b50601f01601f19169290920160200192915050565b6001600160a01b038516815260806020808301829052600091620009f89084018762000983565b838103604085015262000a0c818762000983565b9050838103606085015282855484600182811c91508083168062000a3157607f831692505b86831081141562000a5057634e487b7160e01b88526022600452602488fd5b82865260208601955080801562000a70576001811462000a825762000aae565b60ff1985168752878701955062000aae565b60008b815260209020895b8581101562000aa85781548982015290840190890162000a8d565b88019650505b50939c9b505050505050505050505050565b600060208252620006b1602083018462000983565b604051601f8201601f1916810167ffffffffffffffff8111828210171562000b015762000b0162000b6e565b604052919050565b600181811c9082168062000b1e57607f821691505b6020821081141562000b4057634e487b7160e01b600052602260045260246000fd5b50919050565b600060001982141562000b6757634e487b7160e01b81526011600452602481fd5b5060010190565b634e487b7160e01b600052604160045260246000fdfe610140604052692927a622afa0a226a4a760b11b60809081526e2927a622afaa22a1a42724a1a4a0a760891b60a0526d1493d31157d4d0d25153951254d560921b60c0526f2927a622afaa2920a729a827a92a22a960811b60e0526d2927a622afa827a624a1a2a6a0a760911b6101005269524f4c455f4a5544474560b01b610120526200009290600b90600662000936565b50348015620000a057600080fd5b506040516200268d3803806200268d833981016040819052620000c39162000acc565b600080546001600160a01b0319166001600160a01b0386161790558251620000f390600d90602086019062000986565b5081516200010990600790602085019062000986565b5080516200011f90600c90602084019062000986565b506200012a62000134565b5050505062000bcc565b6200014e6000805160206200262d833981519152620005f5565b620001696c10d054d1481251081095525315609a1b620005f5565b62000181691253881514905394d25560b21b620005f5565b6200019b6000805160206200260d833981519152620005f5565b620001b56000805160206200266d833981519152620005f5565b620001d26e2922a1a4a2ab22a21020aa102620a160891b620005f5565b620001f06f4341534520494420414e414c5953495360801b620005f5565b6200020a6000805160206200264d833981519152620005f5565b62000224600080516020620025cd833981519152620005f5565b6200024f7f46524f4e54204f4620545249414c20434f555254000000000000000000000000620005f5565b6200027a6000805160206200262d8339815191526c10d054d1481251081095525315609a1b620006b3565b620002a36c10d054d1481251081095525315609a1b691253881514905394d25560b21b620006b3565b620002cb691253881514905394d25560b21b6000805160206200260d833981519152620006b3565b620002f56000805160206200260d8339815191526000805160206200266d833981519152620006b3565b6200031d6000805160206200266d833981519152691253881514905394d25560b21b620006b3565b62000348691253881514905394d25560b21b6e2922a1a4a2ab22a21020aa102620a160891b620006b3565b620003796e2922a1a4a2ab22a21020aa102620a160891b6f4341534520494420414e414c5953495360801b620006b3565b620003a56f4341534520494420414e414c5953495360801b691253881514905394d25560b21b620006b3565b620003cd691253881514905394d25560b21b6000805160206200264d833981519152620006b3565b620003f76000805160206200264d833981519152600080516020620025cd833981519152620006b3565b62000432600080516020620025cd8339815191527f46524f4e54204f4620545249414c20434f555254000000000000000000000000620006b3565b6200045a6000805160206200262d833981519152692927a622afa0a226a4a760b11b62000793565b620004836c10d054d1481251081095525315609a1b692927a622afa0a226a4a760b11b62000793565b620004a9691253881514905394d25560b21b692927a622afa0a226a4a760b11b62000793565b620004d16000805160206200260d833981519152692927a622afa0a226a4a760b11b62000793565b620004f96000805160206200266d833981519152692927a622afa0a226a4a760b11b62000793565b620005246e2922a1a4a2ab22a21020aa102620a160891b692927a622afa0a226a4a760b11b62000793565b620005506f4341534520494420414e414c5953495360801b692927a622afa0a226a4a760b11b62000793565b620005786000805160206200264d833981519152692927a622afa0a226a4a760b11b62000793565b620005a0600080516020620025cd833981519152692927a622afa0a226a4a760b11b62000793565b620005d97f46524f4e54204f4620545249414c20434f555254000000000000000000000000692927a622afa0a226a4a760b11b62000793565b620005f36000805160206200262d83398151915262000816565b565b60008181526002602052604090205460ff1615620006665760405162461bcd60e51b815260206004820152602360248201527f746869732073746174652068617320616c7265616479206265656e20637265616044820152621d195960ea1b60648201526084015b60405180910390fd5b6000818152600260205260408120805460ff191660019081179091556003805491820181559091527fc2575a0e9e593c00f959f8c92f12db2869c3395a3b0502d05e2516446f71f85b0155565b600082815260026020526040902054829060ff166200070f5760405162461bcd60e51b81526020600482015260226024820152600080516020620025ed833981519152604482015261195d60f21b60648201526084016200065d565b600082815260026020526040902054829060ff166200076b5760405162461bcd60e51b81526020600482015260226024820152600080516020620025ed833981519152604482015261195d60f21b60648201526084016200065d565b5050600091825260026020908152604083206005018054600181018255908452922090910155565b600082815260026020526040902054829060ff16620007ef5760405162461bcd60e51b81526020600482015260226024820152600080516020620025ed833981519152604482015261195d60f21b60648201526084016200065d565b50600091825260026020818152604084209091018054600181018255908452922090910155565b60008181526002602052604090205460ff16620008895760405162461bcd60e51b815260206004820152602a60248201527f74686520696e697469616c20737461746520686173206e6f74206265656e20636044820152691c99585d1959081e595d60b21b60648201526084016200065d565b60045415620009315760405162461bcd60e51b815260206004820152606160248201527f7468652063757272656e742073746174652068617320616c726561647920626560448201527f656e207365742c20736f20796f752063616e6e6f7420636f6e6669677572652060648201527f74686520696e697469616c20737461746520616e64206f7665727269646520696084820152601d60fa1b60a482015260c4016200065d565b600455565b82805482825590600052602060002090810192821562000974579160200282015b828111156200097457825182559160200191906001019062000957565b506200098292915062000a02565b5090565b828054620009949062000b79565b90600052602060002090601f016020900481019282620009b8576000855562000974565b82601f10620009d357805160ff191683800117855562000974565b828001600101855582156200097457918201828111156200097457825182559160200191906001019062000957565b5b8082111562000982576000815560010162000a03565b600082601f83011262000a2a578081fd5b81516001600160401b038082111562000a475762000a4762000bb6565b604051601f8301601f19908116603f0116810190828211818310171562000a725762000a7262000bb6565b8160405283815260209250868385880101111562000a8e578485fd5b8491505b8382101562000ab1578582018301518183018401529082019062000a92565b8382111562000ac257848385830101525b9695505050505050565b6000806000806080858703121562000ae2578384fd5b84516001600160a01b038116811462000af9578485fd5b60208601519094506001600160401b038082111562000b16578485fd5b62000b248883890162000a19565b9450604087015191508082111562000b3a578384fd5b62000b488883890162000a19565b9350606087015191508082111562000b5e578283fd5b5062000b6d8782880162000a19565b91505092959194509250565b600181811c9082168062000b8e57607f821691505b6020821081141562000bb057634e487b7160e01b600052602260045260246000fd5b50919050565b634e487b7160e01b600052604160045260246000fd5b6119f18062000bdc6000396000f3fe608060405234801561001057600080fd5b506004361061021c5760003560e01c80637106139811610125578063bf292a82116100ad578063d30c492e1161007c578063d30c492e1461050d578063d391014b14610534578063ef120a6e14610548578063f4a979a314610550578063fcbb5907146105635761021c565b8063bf292a82146104ab578063c345b829146104c9578063c8691b2a146104e1578063d0d881f0146104f45761021c565b8063a4ddb071116100f4578063a4ddb07114610403578063a786f5db1461040b578063a7a38f0b14610432578063ad2d85e514610474578063bc7b8b24146104915761021c565b806371061398146103b5578063805d8960146103bd5780638f31fa15146103e4578063910fd10a146103fb5761021c565b8063378aa701116101a8578063489f19eb11610177578063489f19eb1461036a5780634de6740e1461037f5780635478f4681461038757806356c57bd11461038f578063694f1105146103a25761021c565b8063378aa701146103165780633ad61af61461031e5780633e44694f1461033757806345d61ded1461033f5761021c565b806315e1014f116101ef57806315e1014f1461029957806322aab265146102c057806328e2111f146102da5780632e2bc0d5146102ee578063304b1bd1146103035761021c565b8063018875c71461022157806309648a9d1461024c5780630afb5551146102705780630ec05dcd14610284575b600080fd5b6102396d1493d31157d4d0d25153951254d560921b81565b6040519081526020015b60405180910390f35b61025f61025a366004611631565b61058a565b604051610243959493929190611836565b61023969524f4c455f4a5544474560b01b81565b61028c6108d4565b60405161024391906118c1565b6102397f50524f5345435554494f4e2050524f434553532053544152544544000000000081565b6102396f4341534520494420414e414c5953495360801b81565b610239691253881514905394d25560b21b81565b6102f6610962565b6040516102439190611823565b610239610311366004611631565b6109c8565b6102396109e9565b6102396e2922a1a4a2ab22a21020aa102620a160891b81565b61028c610a69565b600054610352906001600160a01b031681565b6040516001600160a01b039091168152602001610243565b61037d6103783660046116c9565b610a91565b005b61028c610abd565b600154610239565b61037d61039d36600461168e565b610aca565b61037d6103b0366004611631565b610ae1565b6102f6610d20565b6102397f52454349455645442041542050524f504552545920524f4f4d0000000000000081565b6102396c10d054d1481251081095525315609a1b81565b61028c610d76565b6102f6610d83565b6102397f53544f434b45442041542050524f504552545920524f4f4d000000000000000081565b610445610440366004611631565b610dd9565b604051610243949392919093845260208401929092526001600160a01b03166040830152606082015260800190565b6102397211559251115390d154c810d3d3131150d51151606a1b81565b6102396f2927a622afaa2920a729a827a92a22a960811b81565b61023973119493d3950813d18815149250530810d3d5549560621b81565b6102396d2927a622afa827a624a1a2a6a0a760911b81565b6104456104ef366004611631565b610e1c565b6102396e2927a622afaa22a1a42724a1a4a0a760891b81565b6102397f5245434549564544204154204c415720454e464f5243454d454e54000000000081565b610239692927a622afa0a226a4a760b11b81565b61028c610f56565b61037d61055e366004611649565b610fdf565b6102397f5550444154455f49504653434f4e5441494e4552484153485f524f4c4500000081565b60008181526002602052604081206005546060918291829185918290819067ffffffffffffffff8111156105ce57634e487b7160e01b600052604160045260246000fd5b6040519080825280602002602001820160405280156105f7578160200160208202803683370190505b50905060005b60055481101561072257600260008b815260200190815260200160002060010160006005838154811061064057634e487b7160e01b600052603260045260246000fd5b6000918252602080832060088304015460079092166004026101000a90910460e01b6001600160e01b031916835282019290925260400190205460ff161561071057600581815481106106a357634e487b7160e01b600052603260045260246000fd5b90600052602060002090600891828204019190066004029054906101000a900460e01b828460ff16815181106106e957634e487b7160e01b600052603260045260246000fd5b6001600160e01b03199092166020928302919091019091015261070d600184611914565b92505b8061071a81611974565b9150506105fd565b5060008260ff1667ffffffffffffffff81111561074f57634e487b7160e01b600052604160045260246000fd5b604051908082528060200260200182016040528015610778578160200160208202803683370190505b50905060005b8360ff168110156107fc578281815181106107a957634e487b7160e01b600052603260045260246000fd5b60200260200101518282815181106107d157634e487b7160e01b600052603260045260246000fd5b6001600160e01b031990921660209283029190910190910152806107f481611974565b91505061077e565b50898460050185600201838760060160009054906101000a900460e01b8380548060200260200160405190810160405280929190818152602001828054801561086457602002820191906000526020600020905b815481526020019060010190808311610850575b50505050509350828054806020026020016040519081016040528092919081815260200182805480156108b657602002820191906000526020600020905b8154815260200190600101908083116108a2575b50505050509250985098509850985098505050505091939590929450565b600d80546108e190611939565b80601f016020809104026020016040519081016040528092919081815260200182805461090d90611939565b801561095a5780601f1061092f5761010080835404028352916020019161095a565b820191906000526020600020905b81548152906001019060200180831161093d57829003601f168201915b505050505081565b6004546000908152600260209081526040918290206005018054835181840281018401909452808452606093928301828280156109be57602002820191906000526020600020905b8154815260200190600101908083116109aa575b5050505050905090565b600b81815481106109d857600080fd5b600091825260209091200154905081565b60045460009081526002602052604081205460ff16610a625760405162461bcd60e51b815260206004820152602a60248201527f74686520696e697469616c20737461746520686173206e6f74206265656e20636044820152691c99585d1959081e595d60b21b60648201526084015b60405180910390fd5b5060045490565b6060600d604051602001610a7d919061175a565b604051602081830303815290604052905090565b8151610aa490600d9060208501906114db565b508051610ab89060079060208401906114db565b505050565b600c80546108e190611939565b8051610add9060079060208401906114db565b5050565b600354610b415760405162461bcd60e51b815260206004820152602860248201527f746869732073746174656d616368696e6520686173206e6f74206265656e2073604482015267195d1d5c081e595d60c21b6064820152608401610a59565b80610b53610b4d6109e9565b8261105f565b600480548382556000848152600260205260408120919291909101905b8154811015610be957610bd78386848481548110610b9e57634e487b7160e01b600052603260045260246000fd5b90600052602060002090600491828204019190066008029054906101000a9004801561155f021767ffffffffffffffff1663ffffffff16565b80610be181611974565b915050610b70565b506040805160808101825283815260208082018781523383850181815242606080870191825260018054808201825560009190915296517fb10e2d527612073b26eecdfd717e6a320cf44b4afac2b0732d9fcbe2b7fa0cf660049889029081019190915594517fb10e2d527612073b26eecdfd717e6a320cf44b4afac2b0732d9fcbe2b7fa0cf786015591517fb10e2d527612073b26eecdfd717e6a320cf44b4afac2b0732d9fcbe2b7fa0cf8850180546001600160a01b0319166001600160a01b03909216919091179055517fb10e2d527612073b26eecdfd717e6a320cf44b4afac2b0732d9fcbe2b7fa0cf99093019290925592548451938452918301869052928201527f483a31c379a4b707332853662276a3424ec44f0ccbfc20d78fd9d143694f7669910160405180910390a150505050565b6060600b8054806020026020016040519081016040528092919081815260200182805480156109be57602002820191906000526020600020908154815260200190600101908083116109aa575050505050905090565b600780546108e190611939565b606060038054806020026020016040519081016040528092919081815260200182805480156109be57602002820191906000526020600020908154815260200190600101908083116109aa575050505050905090565b60018181548110610de957600080fd5b60009182526020909120600490910201805460018201546002830154600390930154919350916001600160a01b03169084565b60008080806001548510610e685760405162461bcd60e51b8152602060048201526013602482015272496e646578206f7574206f6620626f756e647360681b6044820152606401610a59565b60018581548110610e8957634e487b7160e01b600052603260045260246000fd5b90600052602060002090600402016000015460018681548110610ebc57634e487b7160e01b600052603260045260246000fd5b90600052602060002090600402016001015460018781548110610eef57634e487b7160e01b600052603260045260246000fd5b906000526020600020906004020160020160009054906101000a90046001600160a01b031660018881548110610f3557634e487b7160e01b600052603260045260246000fd5b90600052602060002090600402016003015493509350935093509193509193565b606060078054610f6590611939565b80601f0160208091040260200160405190810160405280929190818152602001828054610f9190611939565b80156109be5780601f10610fb3576101008083540402835291602001916109be565b820191906000526020600020905b815481529060010190602001808311610fc157509395945050505050565b60008281526009602052604090205460ff16611040576008805460018181019092557ff3f7a9fe364faab93b216da50a3214154f22a0a2b415b23a84c8169e8b636ee3018390556000838152600960205260409020805460ff191690911790555b6000828152600a602090815260409091208251610ab8928401906114db565b60008281526002602052604090205460ff166110db5760405162461bcd60e51b815260206004820152603560248201527f7468652066726f6d20737461746520686173206e6f74206265656e20636f6e666044820152741a59dd5c9959081a5b881d1a1a5cc81bd89a9958dd605a1b6064820152608401610a59565b60008181526002602052604090205460ff166111555760405162461bcd60e51b815260206004820152603360248201527f74686520746f20737461746520686173206e6f74206265656e20636f6e6669676044820152721d5c9959081a5b881d1a1a5cc81bd89a9958dd606a1b6064820152608401610a59565b61115f82826112a0565b6111e35760405162461bcd60e51b815260206004820152604960248201527f74686520726571756573746564206e657874207374617465206973206e6f742060448201527f616e20616c6c6f776564206e65787420737461746520666f72207468697320746064820152683930b739b4ba34b7b760b91b608482015260a401610a59565b6111ec8161135a565b6112965760405162461bcd60e51b815260206004820152606960248201527f7468652073656e646572206f662074686973207472616e73616374696f6e206460448201527f6f6573206e6f742068617665206120726f6c65207468617420616c6c6f77732060648201527f7472616e736974696f6e206265747765656e207468652066726f6d20616e6420608482015268746f2073746174657360b81b60a482015260c401610a59565b610add82826113dd565b6000828152600260205260408120600501815b815481101561135257604080516020810186905201604051602081830303815290604052805190602001208282815481106112fe57634e487b7160e01b600052603260045260246000fd5b906000526020600020015460405160200161131b91815260200190565b6040516020818303038152906040528051906020012014156113405760019250611352565b8061134a81611974565b9150506112b3565b505092915050565b6000818152600260208190526040822001805461137657600191505b60005b81548110156113d6576113b6338383815481106113a657634e487b7160e01b600052603260045260246000fd5b9060005260206000200154611436565b156113c457600192506113d6565b806113ce81611974565b915050611379565b5050919050565b6000818152600260205260408120600301905b81548110156114305761141e8484848481548110610b9e57634e487b7160e01b600052603260045260246000fd5b8061142881611974565b9150506113f0565b50505050565b600080546001600160a01b031615806114d45750600054604051630dace25b60e31b81526001600160a01b0385811660048301523060248301526044820185905290911690636d6712d89060640160206040518083038186803b15801561149c57600080fd5b505afa1580156114b0573d6000803e3d6000fd5b505050506040513d601f19601f820116820180604052508101906114d49190611611565b9392505050565b8280546114e790611939565b90600052602060002090601f016020900481019282611509576000855561154f565b82601f1061152257805160ff191683800117855561154f565b8280016001018555821561154f579182015b8281111561154f578251825591602001919060010190611534565b5061155b929150611575565b5090565b634e487b7160e01b600052605160045260246000fd5b5b8082111561155b5760008155600101611576565b600082601f83011261159a578081fd5b813567ffffffffffffffff808211156115b5576115b56119a5565b604051601f8301601f19908116603f011681019082821181831017156115dd576115dd6119a5565b816040528381528660208588010111156115f5578485fd5b8360208701602083013792830160200193909352509392505050565b600060208284031215611622578081fd5b815180151581146114d4578182fd5b600060208284031215611642578081fd5b5035919050565b6000806040838503121561165b578081fd5b82359150602083013567ffffffffffffffff811115611678578182fd5b6116848582860161158a565b9150509250929050565b60006020828403121561169f578081fd5b813567ffffffffffffffff8111156116b5578182fd5b6116c18482850161158a565b949350505050565b600080604083850312156116db578182fd5b823567ffffffffffffffff808211156116f2578384fd5b6116fe8683870161158a565b93506020850135915080821115611713578283fd5b506116848582860161158a565b6000815180845260208085019450808401835b8381101561174f57815187529582019590820190600101611733565b509495945050505050565b60007f6469643a64656d6f3a737570706c79636861696e66696e616e63653a000000008252601c81845483600182811c91508083168061179b57607f831692505b60208084108214156117bb57634e487b7160e01b88526022600452602488fd5b8180156117cf57600181146117e457611814565b60ff1986168a890152848a0188019650611814565b60008b815260209020895b8681101561180a5781548c82018b01529085019083016117ef565b505087858b010196505b50949998505050505050505050565b6000602082526114d46020830184611720565b6000868252602060a08184015261185060a0840188611720565b83810360408501526118628188611720565b84810360608601528651808252838801925090830190845b818110156118a05783516001600160e01b0319168352928401929184019160010161187a565b505080935050505063ffffffff60e01b831660808301529695505050505050565b6000602080835283518082850152825b818110156118ed578581018301518582016040015282016118d1565b818111156118fe5783604083870101525b50601f01601f1916929092016040019392505050565b600060ff821660ff84168060ff038211156119315761193161198f565b019392505050565b600181811c9082168061194d57607f821691505b6020821081141561196e57634e487b7160e01b600052602260045260246000fd5b50919050565b60006000198214156119885761198861198f565b5060010190565b634e487b7160e01b600052601160045260246000fd5b634e487b7160e01b600052604160045260246000fdfea2646970667358221220d72e5d9c8a6b66dab87a0c863425f2e060414c8d4798259f644abae6d8a3815264736f6c6343000803003350524f5345435554494f4e2050524f434553532053544152544544000000000074686520737461746520686173206e6f74206265656e2063726561746564207952454349455645442041542050524f504552545920524f4f4d0000000000000045564944454e43455320434f4c4c4543544544000000000000000000000000005245434549564544204154204c415720454e464f5243454d454e54000000000053544f434b45442041542050524f504552545920524f4f4d000000000000000053656e646572206e65656473205550444154455f55494649454c44444546494e4954494f4e535f524f4c4553656e646572206e65656473204352454154455f53544154454d414348494e455f524f4c45a264697066735822122092de1b471655155c2f1062c93aecb6e7acc174e10b86a82b9b069dd39253a4bf64736f6c63430008030033",
  "immutableReferences": {},
  "source": "/**\n * Copyright (C) SettleMint NV - All Rights Reserved\n *\n * Use of this file is strictly prohibited without an active license agreement.\n * Distribution of this file, via any medium, is strictly prohibited.\n *\n * For license inquiries, contact hello@settlemint.com\n *\n * SPDX-License-Identifier: UNLICENSED\n */\n\npragma solidity ^0.8.0;\n\nimport '../_library//provenance/statemachine/StateMachineFactory.sol';\nimport './EvidenceManagementSystem.sol';\nimport './EvidenceManagementSystemRegistry.sol';\n\n/**\n * @title Factory contract for evidencemanagementsystem state machines\n */\ncontract EvidenceManagementSystemFactory is StateMachineFactory {\n  constructor(GateKeeper gateKeeper, EvidenceManagementSystemRegistry registry) StateMachineFactory(gateKeeper, registry) {}\n\n  /**\n   * @notice Create new evidencemanagementsystem\n   * @dev Factory method to create a new evidencemanagementsystem. Emits StateMachineCreated event.\n   * @param Case_ID Unique Identification Number\n\n   * @param ipfsFieldContainerHash ipfs hash of evidencemanagementsystem metadata\n   */\n  function create(string memory Case_ID, string memory ipfsFieldContainerHash)\n    public\n    authWithCustomReason(CREATE_STATEMACHINE_ROLE, 'Sender needs CREATE_STATEMACHINE_ROLE')\n  {\n    bytes memory memProof = bytes(Case_ID);\n    require(memProof.length > 0, 'A Case_ID is required');\n\n    EvidenceManagementSystem evidencemanagementsystem =\n      new EvidenceManagementSystem(address(gateKeeper), Case_ID, ipfsFieldContainerHash, _uiFieldDefinitionsHash);\n\n    // Give every role registry a single permission on the newly created expense.\n    bytes32[] memory roles = evidencemanagementsystem.getRoles();\n    for (uint256 i = 0; i < roles.length; i++) {\n      gateKeeper.createPermission(\n        gateKeeper.getRoleRegistryAddress(roles[i]),\n        address(evidencemanagementsystem),\n        roles[i],\n        address(this)\n      );\n    }\n\n    _registry.insert(address(evidencemanagementsystem));\n    emit StateMachineCreated(address(evidencemanagementsystem));\n  }\n}\n",
  "sourcePath": "/home/coder/project/contracts/evidencemanagementsystem/EvidenceManagementSystemFactory.sol",
  "compiler": {
    "name": "solc",
    "version": "0.8.3+commit.8d00100c.Emscripten.clang"
  },
  "schemaVersion": "3.4.1",
  "updatedAt": "2021-08-03T10:07:05.380Z",
  "networkType": "ethereum",
  "devdoc": {
    "kind": "dev",
    "methods": {
      "create(string,string)": {
        "details": "Factory method to create a new evidencemanagementsystem. Emits StateMachineCreated event.",
        "params": {
          "Case_ID": "Unique Identification Number",
          "ipfsFieldContainerHash": "ipfs hash of evidencemanagementsystem metadata"
        }
      },
      "setUIFieldDefinitionsHash(string)": {
        "params": {
          "uiFieldDefinitionsHash": "value to assign to _uiFieldDefinitionsHash"
        }
      }
    },
    "title": "Factory contract for evidencemanagementsystem state machines",
    "version": 1
  },
  "userdoc": {
    "kind": "user",
    "methods": {
      "create(string,string)": {
        "notice": "Create new evidencemanagementsystem"
      },
      "getUIFieldDefinitionsHash()": {
        "notice": "Retrieves the value of `_uiFieldDefinitionsHash`"
      },
      "setUIFieldDefinitionsHash(string)": {
        "notice": "Sets the value of `_uiFieldDefinitionsHash`"
      }
    },
    "version": 1
  }
}