{
  "contractName": "ExampleStorage",
  "abi": [
    {
      "inputs": [],
      "name": "_value",
      "outputs": [
        {
          "internalType": "uint256",
          "name": "",
          "type": "uint256"
        }
      ],
      "stateMutability": "view",
      "type": "function"
    },
    {
      "inputs": [],
      "name": "_value2",
      "outputs": [
        {
          "internalType": "uint256",
          "name": "",
          "type": "uint256"
        }
      ],
      "stateMutability": "view",
      "type": "function"
    }
  ],
  "bytecode": "0x6080604052348015600f57600080fd5b50608f8061001e6000396000f3fe6080604052348015600f57600080fd5b506004361060325760003560e01c8063a32d8881146037578063b895c74a146051575b600080fd5b603f60015481565b60405190815260200160405180910390f35b603f6000548156fea264697066735822122069c6bf95875dae362e0ea245b3d2cc73b7d4108294ce3e1345cb8067a119cff864736f6c63430008030033",
  "immutableReferences": {},
  "source": "// SPDX-License-Identifier: UNLICENSED\npragma solidity ^0.8.0;\n\n/* Example contracts storage scheme */\ncontract ExampleStorage {\n  uint256 public _value;\n  uint256 public _value2;\n}\n",
  "sourcePath": "/home/coder/project/contracts/_library/_test/utility/upgrading/ExampleStorage.sol",
  "compiler": {
    "name": "solc",
    "version": "0.8.3+commit.8d00100c.Emscripten.clang"
  },
  "schemaVersion": "3.4.1",
  "updatedAt": "2021-07-13T12:53:56.138Z",
  "devdoc": {
    "kind": "dev",
    "methods": {},
    "version": 1
  },
  "userdoc": {
    "kind": "user",
    "methods": {},
    "version": 1
  }
}