{
  "contractName": "ExampleV1",
  "abi": [
    {
      "inputs": [
        {
          "internalType": "address",
          "name": "_gateKeeper",
          "type": "address"
        }
      ],
      "stateMutability": "nonpayable",
      "type": "constructor"
    },
    {
      "anonymous": false,
      "inputs": [
        {
          "indexed": false,
          "internalType": "address",
          "name": "originalTarget",
          "type": "address"
        },
        {
          "indexed": false,
          "internalType": "address",
          "name": "newTarget",
          "type": "address"
        }
      ],
      "name": "TargetChanged",
      "type": "event"
    },
    {
      "inputs": [],
      "name": "UPGRADE_CONTRACT",
      "outputs": [
        {
          "internalType": "bytes32",
          "name": "",
          "type": "bytes32"
        }
      ],
      "stateMutability": "view",
      "type": "function"
    },
    {
      "inputs": [],
      "name": "_target",
      "outputs": [
        {
          "internalType": "address",
          "name": "",
          "type": "address"
        }
      ],
      "stateMutability": "view",
      "type": "function"
    },
    {
      "inputs": [],
      "name": "_value",
      "outputs": [
        {
          "internalType": "uint256",
          "name": "",
          "type": "uint256"
        }
      ],
      "stateMutability": "view",
      "type": "function"
    },
    {
      "inputs": [],
      "name": "_value2",
      "outputs": [
        {
          "internalType": "uint256",
          "name": "",
          "type": "uint256"
        }
      ],
      "stateMutability": "view",
      "type": "function"
    },
    {
      "inputs": [],
      "name": "gateKeeper",
      "outputs": [
        {
          "internalType": "contract GateKeeper",
          "name": "",
          "type": "address"
        }
      ],
      "stateMutability": "view",
      "type": "function"
    },
    {
      "inputs": [],
      "name": "getUint",
      "outputs": [
        {
          "internalType": "uint256",
          "name": "",
          "type": "uint256"
        }
      ],
      "stateMutability": "view",
      "type": "function"
    },
    {
      "inputs": [],
      "name": "getValues",
      "outputs": [
        {
          "internalType": "uint256",
          "name": "v1",
          "type": "uint256"
        },
        {
          "internalType": "uint256",
          "name": "v2",
          "type": "uint256"
        }
      ],
      "stateMutability": "view",
      "type": "function"
    },
    {
      "inputs": [
        {
          "internalType": "uint256",
          "name": "value",
          "type": "uint256"
        }
      ],
      "name": "setUint",
      "outputs": [],
      "stateMutability": "nonpayable",
      "type": "function"
    }
  ],
  "bytecode": "0x608060405234801561001057600080fd5b5060405161021838038061021883398101604081905261002f91610054565b600280546001600160a01b0319166001600160a01b0392909216919091179055610082565b600060208284031215610065578081fd5b81516001600160a01b038116811461007b578182fd5b9392505050565b610187806100916000396000f3fe608060405234801561001057600080fd5b50600436106100875760003560e01c806345d61ded1161005b57806345d61ded146100ff5780634ef65c3b14610112578063a32d888114610127578063b895c74a1461013057610087565b80620267a41461008c57806317f82139146100a357806319eb4a90146100bd5780632ac8bb15146100d4575b600080fd5b6000545b6040519081526020015b60405180910390f35b6100906f155411d490511157d0d3d395149050d560821b81565b60005460408051918252600260208301520161009a565b6003546100e7906001600160a01b031681565b6040516001600160a01b03909116815260200161009a565b6002546100e7906001600160a01b031681565b610125610120366004610139565b600055565b005b61009060015481565b61009060005481565b60006020828403121561014a578081fd5b503591905056fea26469706673582212207b8ff09f7f9cb1aae94a09a0da4f73d6fd1a6f5ea308ca153102668ec4f1271864736f6c63430008030033",
  "immutableReferences": {},
  "source": "// SPDX-License-Identifier: UNLICENSED\npragma solidity ^0.8.0;\n\nimport './ExampleStorage.sol';\nimport './IExample.sol';\nimport '../../../utility/upgrading/Upgradeable.sol';\n\n/* Base version of Example class */\ncontract ExampleV1 is ExampleStorage, IExample, Upgradeable {\n  constructor(address _gateKeeper) Upgradeable(_gateKeeper) {}\n\n  function getUint() public view override returns (uint256) {\n    return _value;\n  }\n\n  function getValues() public view override returns (uint256 v1, uint256 v2) {\n    v1 = _value;\n    v2 = 2;\n  }\n\n  function setUint(uint256 value) public override {\n    _value = value;\n  }\n}\n",
  "sourcePath": "/home/coder/project/contracts/_library/_test/utility/upgrading/ExampleV1.sol",
  "compiler": {
    "name": "solc",
    "version": "0.8.3+commit.8d00100c.Emscripten.clang"
  },
  "schemaVersion": "3.4.3",
  "updatedAt": "2021-09-21T08:20:57.879Z",
  "devdoc": {
    "kind": "dev",
    "methods": {},
    "version": 1
  },
  "userdoc": {
    "kind": "user",
    "methods": {},
    "version": 1
  }
}