{
  "contractName": "ExampleV2",
  "abi": [
    {
      "inputs": [
        {
          "internalType": "address",
          "name": "_gateKeeper",
          "type": "address"
        }
      ],
      "stateMutability": "nonpayable",
      "type": "constructor"
    },
    {
      "anonymous": false,
      "inputs": [
        {
          "indexed": false,
          "internalType": "address",
          "name": "originalTarget",
          "type": "address"
        },
        {
          "indexed": false,
          "internalType": "address",
          "name": "newTarget",
          "type": "address"
        }
      ],
      "name": "TargetChanged",
      "type": "event"
    },
    {
      "inputs": [],
      "name": "UPGRADE_CONTRACT",
      "outputs": [
        {
          "internalType": "bytes32",
          "name": "",
          "type": "bytes32"
        }
      ],
      "stateMutability": "view",
      "type": "function"
    },
    {
      "inputs": [],
      "name": "_target",
      "outputs": [
        {
          "internalType": "address",
          "name": "",
          "type": "address"
        }
      ],
      "stateMutability": "view",
      "type": "function"
    },
    {
      "inputs": [],
      "name": "_value",
      "outputs": [
        {
          "internalType": "uint256",
          "name": "",
          "type": "uint256"
        }
      ],
      "stateMutability": "view",
      "type": "function"
    },
    {
      "inputs": [],
      "name": "_value2",
      "outputs": [
        {
          "internalType": "uint256",
          "name": "",
          "type": "uint256"
        }
      ],
      "stateMutability": "view",
      "type": "function"
    },
    {
      "inputs": [],
      "name": "gateKeeper",
      "outputs": [
        {
          "internalType": "contract GateKeeper",
          "name": "",
          "type": "address"
        }
      ],
      "stateMutability": "view",
      "type": "function"
    },
    {
      "inputs": [],
      "name": "getUint",
      "outputs": [
        {
          "internalType": "uint256",
          "name": "",
          "type": "uint256"
        }
      ],
      "stateMutability": "view",
      "type": "function"
    },
    {
      "inputs": [],
      "name": "getValues",
      "outputs": [
        {
          "internalType": "uint256",
          "name": "v1",
          "type": "uint256"
        },
        {
          "internalType": "uint256",
          "name": "v2",
          "type": "uint256"
        }
      ],
      "stateMutability": "view",
      "type": "function"
    },
    {
      "inputs": [
        {
          "internalType": "uint256",
          "name": "value",
          "type": "uint256"
        }
      ],
      "name": "setUint",
      "outputs": [],
      "stateMutability": "nonpayable",
      "type": "function"
    }
  ],
  "bytecode": "0x608060405234801561001057600080fd5b5060405161025d38038061025d83398101604081905261002f91610054565b600280546001600160a01b0319166001600160a01b0392909216919091179055610082565b600060208284031215610065578081fd5b81516001600160a01b038116811461007b578182fd5b9392505050565b6101cc806100916000396000f3fe608060405234801561001057600080fd5b50600436106100875760003560e01c806345d61ded1161005b57806345d61ded1461010c5780634ef65c3b1461011f578063a32d888114610134578063b895c74a1461013d57610087565b80620267a41461008c57806317f82139146100a757806319eb4a90146100c15780632ac8bb15146100e1575b600080fd5b610094610146565b6040519081526020015b60405180910390f35b6100946f155411d490511157d0d3d395149050d560821b81565b6100cc600054606491565b6040805192835260208301919091520161009e565b6003546100f4906001600160a01b031681565b6040516001600160a01b03909116815260200161009e565b6002546100f4906001600160a01b031681565b61013261012d36600461015a565b600055565b005b61009460015481565b61009460005481565b6000805461015590600a610172565b905090565b60006020828403121561016b578081fd5b5035919050565b6000821982111561019157634e487b7160e01b81526011600452602481fd5b50019056fea2646970667358221220b40465815989f82ab14a0da73f30f79053640498295cbac38370ac2ef5aa026764736f6c63430008030033",
  "immutableReferences": {},
  "source": "// SPDX-License-Identifier: UNLICENSED\npragma solidity ^0.8.0;\n\nimport './ExampleStorage.sol';\nimport './IExample.sol';\nimport '../../../utility/upgrading/Upgradeable.sol';\n\n/* The 'upgraded' version of ExampleV1 which modifies getUint to return _value+10  */\ncontract ExampleV2 is ExampleStorage, IExample, Upgradeable {\n  constructor(address _gateKeeper) Upgradeable(_gateKeeper) {}\n\n  function getUint() public view override returns (uint256) {\n    return _value + 10;\n  }\n\n  function getValues() public view override returns (uint256 v1, uint256 v2) {\n    v1 = 100;\n    v2 = _value;\n  }\n\n  function setUint(uint256 value) public override {\n    _value = value;\n  }\n}\n",
  "sourcePath": "/home/coder/project/contracts/_library/_test/utility/upgrading/ExampleV2.sol",
  "compiler": {
    "name": "solc",
    "version": "0.8.3+commit.8d00100c.Emscripten.clang"
  },
  "schemaVersion": "3.4.1",
  "updatedAt": "2021-08-01T16:33:48.553Z",
  "devdoc": {
    "kind": "dev",
    "methods": {},
    "version": 1
  },
  "userdoc": {
    "kind": "user",
    "methods": {},
    "version": 1
  }
}