{
  "contractName": "Expense",
  "abi": [
    {
      "inputs": [
        {
          "internalType": "address",
          "name": "gateKeeper",
          "type": "address"
        },
        {
          "internalType": "address",
          "name": "registry",
          "type": "address"
        }
      ],
      "stateMutability": "nonpayable",
      "type": "constructor"
    },
    {
      "anonymous": false,
      "inputs": [
        {
          "indexed": false,
          "internalType": "address",
          "name": "sender",
          "type": "address"
        },
        {
          "indexed": false,
          "internalType": "uint256",
          "name": "fromAmount",
          "type": "uint256"
        },
        {
          "indexed": false,
          "internalType": "uint256",
          "name": "toAmount",
          "type": "uint256"
        }
      ],
      "name": "AmountChanged",
      "type": "event"
    },
    {
      "anonymous": false,
      "inputs": [
        {
          "indexed": false,
          "internalType": "address",
          "name": "owner",
          "type": "address"
        },
        {
          "indexed": false,
          "internalType": "address",
          "name": "expense",
          "type": "address"
        },
        {
          "indexed": false,
          "internalType": "uint256",
          "name": "amount",
          "type": "uint256"
        }
      ],
      "name": "ExpenseAccepted",
      "type": "event"
    },
    {
      "anonymous": false,
      "inputs": [
        {
          "indexed": false,
          "internalType": "uint256",
          "name": "fsmIndex",
          "type": "uint256"
        },
        {
          "indexed": false,
          "internalType": "address",
          "name": "owner",
          "type": "address"
        },
        {
          "indexed": false,
          "internalType": "address",
          "name": "registry",
          "type": "address"
        }
      ],
      "name": "ExpenseCreated",
      "type": "event"
    },
    {
      "anonymous": false,
      "inputs": [
        {
          "indexed": false,
          "internalType": "address",
          "name": "owner",
          "type": "address"
        },
        {
          "indexed": false,
          "internalType": "address",
          "name": "expense",
          "type": "address"
        },
        {
          "indexed": false,
          "internalType": "uint256",
          "name": "amount",
          "type": "uint256"
        },
        {
          "indexed": false,
          "internalType": "string",
          "name": "comment",
          "type": "string"
        }
      ],
      "name": "ExpenseForceApproved",
      "type": "event"
    },
    {
      "anonymous": false,
      "inputs": [
        {
          "indexed": false,
          "internalType": "address",
          "name": "owner",
          "type": "address"
        },
        {
          "indexed": false,
          "internalType": "address",
          "name": "expense",
          "type": "address"
        },
        {
          "indexed": false,
          "internalType": "uint256",
          "name": "amount",
          "type": "uint256"
        },
        {
          "indexed": false,
          "internalType": "string",
          "name": "comment",
          "type": "string"
        }
      ],
      "name": "ExpenseNeedsUpdate",
      "type": "event"
    },
    {
      "anonymous": false,
      "inputs": [
        {
          "indexed": false,
          "internalType": "address",
          "name": "owner",
          "type": "address"
        },
        {
          "indexed": false,
          "internalType": "address",
          "name": "expense",
          "type": "address"
        },
        {
          "indexed": false,
          "internalType": "uint256",
          "name": "amount",
          "type": "uint256"
        },
        {
          "indexed": false,
          "internalType": "string",
          "name": "comment",
          "type": "string"
        }
      ],
      "name": "ExpenseRejected",
      "type": "event"
    },
    {
      "anonymous": false,
      "inputs": [
        {
          "indexed": false,
          "internalType": "address",
          "name": "owner",
          "type": "address"
        },
        {
          "indexed": false,
          "internalType": "address",
          "name": "expense",
          "type": "address"
        },
        {
          "indexed": false,
          "internalType": "uint256",
          "name": "amount",
          "type": "uint256"
        }
      ],
      "name": "ExpenseReviewed",
      "type": "event"
    },
    {
      "anonymous": false,
      "inputs": [
        {
          "indexed": false,
          "internalType": "address",
          "name": "owner",
          "type": "address"
        },
        {
          "indexed": false,
          "internalType": "address",
          "name": "expense",
          "type": "address"
        },
        {
          "indexed": false,
          "internalType": "uint256",
          "name": "amount",
          "type": "uint256"
        }
      ],
      "name": "ExpenseSubmitted",
      "type": "event"
    },
    {
      "anonymous": false,
      "inputs": [
        {
          "indexed": false,
          "internalType": "address",
          "name": "owner",
          "type": "address"
        },
        {
          "indexed": false,
          "internalType": "address",
          "name": "expense",
          "type": "address"
        },
        {
          "indexed": false,
          "internalType": "uint256",
          "name": "amount",
          "type": "uint256"
        },
        {
          "indexed": false,
          "internalType": "string",
          "name": "comment",
          "type": "string"
        }
      ],
      "name": "ExpenseSubmittedWithException",
      "type": "event"
    },
    {
      "anonymous": false,
      "inputs": [
        {
          "indexed": false,
          "internalType": "address",
          "name": "sender",
          "type": "address"
        },
        {
          "indexed": false,
          "internalType": "string",
          "name": "fromProof",
          "type": "string"
        },
        {
          "indexed": false,
          "internalType": "string",
          "name": "toProof",
          "type": "string"
        }
      ],
      "name": "ProofChanged",
      "type": "event"
    },
    {
      "anonymous": false,
      "inputs": [
        {
          "indexed": false,
          "internalType": "uint256",
          "name": "index",
          "type": "uint256"
        },
        {
          "indexed": false,
          "internalType": "address",
          "name": "sender",
          "type": "address"
        },
        {
          "indexed": false,
          "internalType": "bytes32",
          "name": "fromState",
          "type": "bytes32"
        },
        {
          "indexed": false,
          "internalType": "bytes32",
          "name": "toState",
          "type": "bytes32"
        }
      ],
      "name": "StateTransition",
      "type": "event"
    },
    {
      "inputs": [],
      "name": "CREATE_STATEMACHINE_ROLE",
      "outputs": [
        {
          "internalType": "bytes32",
          "name": "",
          "type": "bytes32"
        }
      ],
      "stateMutability": "view",
      "type": "function"
    },
    {
      "inputs": [],
      "name": "FINITE_STATE_MACHINE",
      "outputs": [
        {
          "internalType": "bytes32",
          "name": "",
          "type": "bytes32"
        }
      ],
      "stateMutability": "view",
      "type": "function"
    },
    {
      "inputs": [],
      "name": "UPDATE_IPFSCONTAINERHASH_ROLE",
      "outputs": [
        {
          "internalType": "bytes32",
          "name": "",
          "type": "bytes32"
        }
      ],
      "stateMutability": "view",
      "type": "function"
    },
    {
      "inputs": [],
      "name": "UPDATE_UIFIELDDEFINITIONS_ROLE",
      "outputs": [
        {
          "internalType": "bytes32",
          "name": "",
          "type": "bytes32"
        }
      ],
      "stateMutability": "view",
      "type": "function"
    },
    {
      "inputs": [],
      "name": "UPGRADEABLE_REGISTRY_TARGET",
      "outputs": [
        {
          "internalType": "bytes32",
          "name": "",
          "type": "bytes32"
        }
      ],
      "stateMutability": "view",
      "type": "function"
    },
    {
      "inputs": [
        {
          "internalType": "uint256",
          "name": "",
          "type": "uint256"
        }
      ],
      "name": "_allRoles",
      "outputs": [
        {
          "internalType": "bytes32",
          "name": "",
          "type": "bytes32"
        }
      ],
      "stateMutability": "view",
      "type": "function"
    },
    {
      "inputs": [
        {
          "internalType": "uint256",
          "name": "",
          "type": "uint256"
        }
      ],
      "name": "_allStates",
      "outputs": [
        {
          "internalType": "bytes32",
          "name": "",
          "type": "bytes32"
        }
      ],
      "stateMutability": "view",
      "type": "function"
    },
    {
      "inputs": [],
      "name": "_ipfsFieldContainerHash",
      "outputs": [
        {
          "internalType": "string",
          "name": "",
          "type": "string"
        }
      ],
      "stateMutability": "view",
      "type": "function"
    },
    {
      "inputs": [],
      "name": "_upgradeableRegistry",
      "outputs": [
        {
          "internalType": "address",
          "name": "",
          "type": "address"
        }
      ],
      "stateMutability": "view",
      "type": "function"
    },
    {
      "inputs": [],
      "name": "gateKeeper",
      "outputs": [
        {
          "internalType": "contract GateKeeper",
          "name": "",
          "type": "address"
        }
      ],
      "stateMutability": "view",
      "type": "function"
    },
    {
      "inputs": [],
      "name": "getIndexLength",
      "outputs": [
        {
          "internalType": "uint256",
          "name": "length",
          "type": "uint256"
        }
      ],
      "stateMutability": "view",
      "type": "function"
    },
    {
      "inputs": [],
      "name": "getIpfsFieldContainerHash",
      "outputs": [
        {
          "internalType": "string",
          "name": "",
          "type": "string"
        }
      ],
      "stateMutability": "view",
      "type": "function"
    },
    {
      "inputs": [
        {
          "internalType": "bytes32",
          "name": "key",
          "type": "bytes32"
        },
        {
          "internalType": "string",
          "name": "file",
          "type": "string"
        }
      ],
      "name": "setContractFile",
      "outputs": [],
      "stateMutability": "nonpayable",
      "type": "function"
    },
    {
      "inputs": [
        {
          "internalType": "string",
          "name": "ipfsFieldContainerHash",
          "type": "string"
        }
      ],
      "name": "setIpfsFieldContainerHash",
      "outputs": [],
      "stateMutability": "nonpayable",
      "type": "function"
    },
    {
      "inputs": [
        {
          "internalType": "uint256",
          "name": "fsmIndex",
          "type": "uint256"
        },
        {
          "internalType": "bytes32",
          "name": "toState",
          "type": "bytes32"
        }
      ],
      "name": "transitionState",
      "outputs": [],
      "stateMutability": "nonpayable",
      "type": "function"
    },
    {
      "inputs": [],
      "name": "initialState",
      "outputs": [
        {
          "internalType": "bytes32",
          "name": "",
          "type": "bytes32"
        }
      ],
      "stateMutability": "pure",
      "type": "function"
    },
    {
      "inputs": [],
      "name": "allStates",
      "outputs": [
        {
          "internalType": "bytes32[]",
          "name": "",
          "type": "bytes32[]"
        }
      ],
      "stateMutability": "view",
      "type": "function"
    },
    {
      "inputs": [],
      "name": "allRoles",
      "outputs": [
        {
          "internalType": "bytes32[]",
          "name": "",
          "type": "bytes32[]"
        }
      ],
      "stateMutability": "view",
      "type": "function"
    },
    {
      "inputs": [
        {
          "internalType": "bytes32",
          "name": "state",
          "type": "bytes32"
        }
      ],
      "name": "getNextStatesForState",
      "outputs": [
        {
          "internalType": "bytes32[]",
          "name": "test",
          "type": "bytes32[]"
        }
      ],
      "stateMutability": "view",
      "type": "function"
    },
    {
      "inputs": [
        {
          "internalType": "bytes32",
          "name": "state",
          "type": "bytes32"
        }
      ],
      "name": "getAllowedRolesForState",
      "outputs": [
        {
          "internalType": "bytes32[]",
          "name": "",
          "type": "bytes32[]"
        }
      ],
      "stateMutability": "view",
      "type": "function"
    },
    {
      "inputs": [
        {
          "internalType": "bytes32",
          "name": "state",
          "type": "bytes32"
        }
      ],
      "name": "getAllowedFunctionsForState",
      "outputs": [
        {
          "internalType": "bytes4[]",
          "name": "",
          "type": "bytes4[]"
        }
      ],
      "stateMutability": "view",
      "type": "function"
    },
    {
      "inputs": [
        {
          "internalType": "bytes32",
          "name": "state",
          "type": "bytes32"
        }
      ],
      "name": "getPreconditionsForState",
      "outputs": [
        {
          "internalType": "bytes4[]",
          "name": "",
          "type": "bytes4[]"
        }
      ],
      "stateMutability": "view",
      "type": "function"
    },
    {
      "inputs": [
        {
          "internalType": "bytes32",
          "name": "state",
          "type": "bytes32"
        }
      ],
      "name": "getCallbacksForState",
      "outputs": [
        {
          "internalType": "bytes4[]",
          "name": "",
          "type": "bytes4[]"
        }
      ],
      "stateMutability": "view",
      "type": "function"
    },
    {
      "inputs": [
        {
          "internalType": "bytes32",
          "name": "state",
          "type": "bytes32"
        }
      ],
      "name": "getPreFunctionForState",
      "outputs": [
        {
          "internalType": "bytes4",
          "name": "",
          "type": "bytes4"
        }
      ],
      "stateMutability": "pure",
      "type": "function"
    },
    {
      "inputs": [
        {
          "internalType": "string",
          "name": "uiFieldDefinitionsHash",
          "type": "string"
        }
      ],
      "name": "setUIFieldDefinitionsHash",
      "outputs": [],
      "stateMutability": "nonpayable",
      "type": "function"
    },
    {
      "inputs": [],
      "name": "getUIFieldDefinitionsHash",
      "outputs": [
        {
          "internalType": "string",
          "name": "",
          "type": "string"
        }
      ],
      "stateMutability": "view",
      "type": "function"
    },
    {
      "inputs": [
        {
          "internalType": "uint256",
          "name": "amount",
          "type": "uint256"
        },
        {
          "internalType": "string",
          "name": "proof",
          "type": "string"
        },
        {
          "internalType": "string",
          "name": "settlement",
          "type": "string"
        },
        {
          "internalType": "string",
          "name": "ipfsFieldContainerHash",
          "type": "string"
        },
        {
          "internalType": "address",
          "name": "owner",
          "type": "address"
        }
      ],
      "name": "create",
      "outputs": [],
      "stateMutability": "nonpayable",
      "type": "function"
    },
    {
      "inputs": [
        {
          "internalType": "uint256",
          "name": "fsmIndex",
          "type": "uint256"
        },
        {
          "internalType": "uint256",
          "name": "amount",
          "type": "uint256"
        },
        {
          "internalType": "string",
          "name": "proof",
          "type": "string"
        },
        {
          "internalType": "string",
          "name": "settlement",
          "type": "string"
        },
        {
          "internalType": "string",
          "name": "callForTenders",
          "type": "string"
        },
        {
          "internalType": "string",
          "name": "ipfsFieldContainerHash",
          "type": "string"
        }
      ],
      "name": "edit",
      "outputs": [],
      "stateMutability": "nonpayable",
      "type": "function"
    },
    {
      "inputs": [],
      "name": "canEdit",
      "outputs": [
        {
          "internalType": "bytes32[]",
          "name": "",
          "type": "bytes32[]"
        }
      ],
      "stateMutability": "view",
      "type": "function"
    },
    {
      "inputs": [
        {
          "internalType": "uint256",
          "name": "fsmIndex",
          "type": "uint256"
        }
      ],
      "name": "getByIndex",
      "outputs": [
        {
          "components": [
            {
              "internalType": "uint256",
              "name": "index",
              "type": "uint256"
            },
            {
              "internalType": "bytes32",
              "name": "currentState",
              "type": "bytes32"
            },
            {
              "components": [
                {
                  "internalType": "bytes32",
                  "name": "fromState",
                  "type": "bytes32"
                },
                {
                  "internalType": "bytes32",
                  "name": "toState",
                  "type": "bytes32"
                },
                {
                  "internalType": "address",
                  "name": "actor",
                  "type": "address"
                },
                {
                  "internalType": "uint256",
                  "name": "timestamp",
                  "type": "uint256"
                }
              ],
              "internalType": "struct FiniteStateMachine.Transition[]",
              "name": "transitions",
              "type": "tuple[]"
            },
            {
              "internalType": "uint256",
              "name": "createdAt",
              "type": "uint256"
            }
          ],
          "internalType": "struct FiniteStateMachine.StateMachine",
          "name": "item",
          "type": "tuple"
        },
        {
          "components": [
            {
              "internalType": "string",
              "name": "DID",
              "type": "string"
            },
            {
              "internalType": "uint256",
              "name": "amount",
              "type": "uint256"
            },
            {
              "internalType": "string",
              "name": "proof",
              "type": "string"
            },
            {
              "internalType": "string",
              "name": "settlement",
              "type": "string"
            },
            {
              "internalType": "string",
              "name": "callForTenders",
              "type": "string"
            },
            {
              "internalType": "string[]",
              "name": "tenderResponses",
              "type": "string[]"
            },
            {
              "internalType": "string",
              "name": "tenderSelectionArgumentation",
              "type": "string"
            },
            {
              "internalType": "address",
              "name": "owner",
              "type": "address"
            },
            {
              "internalType": "string",
              "name": "reasonForRejection",
              "type": "string"
            },
            {
              "internalType": "string",
              "name": "revisorComment",
              "type": "string"
            },
            {
              "internalType": "string",
              "name": "ipfsFieldContainerHash",
              "type": "string"
            }
          ],
          "internalType": "struct Expense.StateMachineMeta",
          "name": "meta",
          "type": "tuple"
        }
      ],
      "stateMutability": "view",
      "type": "function"
    },
    {
      "inputs": [],
      "name": "getContents",
      "outputs": [
        {
          "components": [
            {
              "internalType": "uint256",
              "name": "index",
              "type": "uint256"
            },
            {
              "internalType": "bytes32",
              "name": "currentState",
              "type": "bytes32"
            },
            {
              "components": [
                {
                  "internalType": "bytes32",
                  "name": "fromState",
                  "type": "bytes32"
                },
                {
                  "internalType": "bytes32",
                  "name": "toState",
                  "type": "bytes32"
                },
                {
                  "internalType": "address",
                  "name": "actor",
                  "type": "address"
                },
                {
                  "internalType": "uint256",
                  "name": "timestamp",
                  "type": "uint256"
                }
              ],
              "internalType": "struct FiniteStateMachine.Transition[]",
              "name": "transitions",
              "type": "tuple[]"
            },
            {
              "internalType": "uint256",
              "name": "createdAt",
              "type": "uint256"
            }
          ],
          "internalType": "struct FiniteStateMachine.StateMachine[]",
          "name": "registry",
          "type": "tuple[]"
        },
        {
          "components": [
            {
              "internalType": "string",
              "name": "DID",
              "type": "string"
            },
            {
              "internalType": "uint256",
              "name": "amount",
              "type": "uint256"
            },
            {
              "internalType": "string",
              "name": "proof",
              "type": "string"
            },
            {
              "internalType": "string",
              "name": "settlement",
              "type": "string"
            },
            {
              "internalType": "string",
              "name": "callForTenders",
              "type": "string"
            },
            {
              "internalType": "string[]",
              "name": "tenderResponses",
              "type": "string[]"
            },
            {
              "internalType": "string",
              "name": "tenderSelectionArgumentation",
              "type": "string"
            },
            {
              "internalType": "address",
              "name": "owner",
              "type": "address"
            },
            {
              "internalType": "string",
              "name": "reasonForRejection",
              "type": "string"
            },
            {
              "internalType": "string",
              "name": "revisorComment",
              "type": "string"
            },
            {
              "internalType": "string",
              "name": "ipfsFieldContainerHash",
              "type": "string"
            }
          ],
          "internalType": "struct Expense.StateMachineMeta[]",
          "name": "meta",
          "type": "tuple[]"
        }
      ],
      "stateMutability": "view",
      "type": "function"
    },
    {
      "inputs": [],
      "name": "getIndex",
      "outputs": [
        {
          "internalType": "string[]",
          "name": "index",
          "type": "string[]"
        }
      ],
      "stateMutability": "view",
      "type": "function"
    },
    {
      "inputs": [
        {
          "internalType": "uint256",
          "name": "fsmIndex",
          "type": "uint256"
        },
        {
          "internalType": "string",
          "name": "rejectionReason",
          "type": "string"
        }
      ],
      "name": "setNeedsUpdateRejectionReason",
      "outputs": [],
      "stateMutability": "nonpayable",
      "type": "function"
    },
    {
      "inputs": [
        {
          "internalType": "uint256",
          "name": "fsmIndex",
          "type": "uint256"
        },
        {
          "internalType": "string",
          "name": "rejectionReason",
          "type": "string"
        }
      ],
      "name": "setRejectedRejectionReason",
      "outputs": [],
      "stateMutability": "nonpayable",
      "type": "function"
    },
    {
      "inputs": [
        {
          "internalType": "uint256",
          "name": "fsmIndex",
          "type": "uint256"
        },
        {
          "internalType": "string",
          "name": "callForTenders",
          "type": "string"
        }
      ],
      "name": "addCallForTendersDocumentation",
      "outputs": [],
      "stateMutability": "nonpayable",
      "type": "function"
    },
    {
      "inputs": [
        {
          "internalType": "uint256",
          "name": "fsmIndex",
          "type": "uint256"
        },
        {
          "internalType": "string",
          "name": "tenderResponse",
          "type": "string"
        }
      ],
      "name": "addTenderResponse",
      "outputs": [],
      "stateMutability": "nonpayable",
      "type": "function"
    },
    {
      "inputs": [
        {
          "internalType": "uint256",
          "name": "fsmIndex",
          "type": "uint256"
        },
        {
          "internalType": "string",
          "name": "tenderSelectionArgumentation",
          "type": "string"
        }
      ],
      "name": "addTenderSelectionArgumentation",
      "outputs": [],
      "stateMutability": "nonpayable",
      "type": "function"
    },
    {
      "inputs": [
        {
          "internalType": "uint256",
          "name": "fsmIndex",
          "type": "uint256"
        },
        {
          "internalType": "string",
          "name": "revisorComment",
          "type": "string"
        }
      ],
      "name": "recordRevisorComment",
      "outputs": [],
      "stateMutability": "nonpayable",
      "type": "function"
    },
    {
      "inputs": [
        {
          "internalType": "uint256",
          "name": "fsmIndex",
          "type": "uint256"
        },
        {
          "internalType": "bytes32",
          "name": "",
          "type": "bytes32"
        },
        {
          "internalType": "bytes32",
          "name": "toState",
          "type": "bytes32"
        }
      ],
      "name": "canBeSubmitted",
      "outputs": [],
      "stateMutability": "view",
      "type": "function"
    }
  ],
  "bytecode": "0x61018060405264111490519560da1b60809081526814d55093525515115160ba1b60a0527f5355424d49545445445f574954485f455843455054494f4e000000000000000060c05267149155925155d15160c21b60e0526b4e454544535f55504441544560a01b61010052671054141493d5915160c21b61012052671491529150d5115160c21b610140526d1193d490d157d054141493d5915160921b61016052620000b09060079060086200020e565b506040518060600160405280692927a622afa0a226a4a760b11b81526020016b2927a622afa922ab24a9a7a960a11b8152602001682927a622afaaa9a2a960b91b8152506008906003620001069291906200020e565b5060408051808201909152692927a622afa0a226a4a760b11b8152682927a622afaaa9a2a960b91b6020820152620001439060099060026200020e565b503480156200015157600080fd5b506040516200553838038062005538833981016040819052620001749162000292565b600080546001600160a01b0319166001600160a01b03848116919091179091558116620001e75760405162461bcd60e51b815260206004820152601860248201527f72656769737472792063616e206e6f74206265207a65726f0000000000000000604482015260640160405180910390fd5b600a80546001600160a01b0319166001600160a01b039290921691909117905550620002c9565b8280548282559060005260206000209081019282156200024c579160200282015b828111156200024c5782518255916020019190600101906200022f565b506200025a9291506200025e565b5090565b5b808211156200025a57600081556001016200025f565b80516001600160a01b03811681146200028d57600080fd5b919050565b60008060408385031215620002a5578182fd5b620002b08362000275565b9150620002c06020840162000275565b90509250929050565b61525f80620002d96000396000f3fe608060405234801561001057600080fd5b506004361061023d5760003560e01c806382f686831161013b578063d3d8f7f3116100b8578063ef120a6e1161007c578063ef120a6e14610545578063f4a979a31461054d578063fcbb590714610560578063fd95caa414610587578063fef9aeb31461059a5761023d565b8063d3d8f7f3146104f1578063dc834a7314610504578063e1ba7d0114610517578063e2f3e56c1461051f578063e95ccc8e146105325761023d565b8063a303dbce116100ff578063a303dbce14610473578063ae273ad11461049a578063bcfb07dd146104ad578063c4f10f3d146104c0578063d143d005146104d35761023d565b806382f686831461042a57806385fda2dc1461043d57806388f42a0a146104505780638baba52a14610463578063910fd10a1461046b5761023d565b80634c86a555116101c957806367b06eac1161018d57806367b06eac146103d1578063747f0642146103e55780637dcbe4351461040557806381045ead1461040d57806381beeb64146104225761023d565b80634c86a5551461036a5780634c9be9331461037d5780634cb0bf3a1461039d57806356c57bd1146103b0578063590fa6f8146103c35761023d565b80632d883a73116102105780632d883a73146102ba578063309c70cf146102db578063412db2ad146102fd578063459b9af91461032a57806345d61ded1461033f5761023d565b806307eeaef8146102425780631f0f992a1461025757806323677ae214610291578063245fadf3146102a7575b600080fd5b610255610250366004614720565b6105ad565b005b61027e7f5550444154455f55494649454c44444546494e4954494f4e535f524f4c45000081565b6040519081526020015b60405180910390f35b610299610700565b604051610288929190614cea565b6102556102b5366004614720565b610dee565b6102cd6102c836600461463c565b610f2c565b604051610288929190614e7b565b61027e774352454154455f53544154454d414348494e455f524f4c4560401b81565b61031161030b36600461463c565b50600090565b6040516001600160e01b03199091168152602001610288565b610332611670565b6040516102889190614da0565b600054610352906001600160a01b031681565b6040516001600160a01b039091168152602001610288565b61027e61037836600461463c565b611702565b61039061038b36600461463c565b611723565b6040516102889190614c95565b6102556103ab366004614720565b611ad6565b6102556103be366004614699565b611cd3565b64111490519560da1b61027e565b6103906103df36600461463c565b50606090565b6103f86103f336600461463c565b611cea565b6040516102889190614c51565b6103f861201f565b610415612076565b6040516102889190614cd7565b6103f861214f565b610255610438366004614699565b6121a5565b61039061044b36600461463c565b612222565b61025561045e366004614720565b6122c8565b6103f86124a1565b6103326124f7565b61027e7f5550475241444541424c455f52454749535452595f544152474554000000000081565b6102556104a8366004614732565b612585565b6102556104bb366004614720565b6127f0565b6103f86104ce36600461463c565b6129c9565b61027e7346494e4954455f53544154455f4d414348494e4560601b81565b6102556104ff3660046146f5565b612d4a565b61027e61051236600461463c565b61320e565b60015461027e565b600a54610352906001600160a01b031681565b6102556105403660046147e0565b61321e565b610332613821565b61025561055b366004614654565b613830565b61027e7f5550444154455f49504653434f4e5441494e4552484153485f524f4c4500000081565b6102556105953660046146d4565b6138b5565b6102556105a8366004614720565b613b56565b816000600182815481106105d157634e487b7160e01b600052603260045260246000fd5b906000526020600020906004020160030154116106095760405162461bcd60e51b815260040161060090614db3565b60405180910390fd5b6001838154811061062a57634e487b7160e01b600052603260045260246000fd5b906000526020600020906004020160010154600061064782611723565b90506000805b82518110156106c0576000356001600160e01b0319166001600160e01b03191683828151811061068d57634e487b7160e01b600052603260045260246000fd5b60200260200101516001600160e01b03191614156106ae57600191506106c0565b806106b881615119565b91505061064d565b50806106de5760405162461bcd60e51b815260040161060090614dea565b6106f886866b4e454544535f55504441544560a01b613d2e565b505050505050565b6060806001805480602002602001604051908101604052809291908181526020016000905b828210156107ff5783829060005260206000209060040201604051806080016040529081600082015481526020016001820154815260200160028201805480602002602001604051908101604052809291908181526020016000905b828210156107de5760008481526020908190206040805160808101825260048602909201805483526001808201548486015260028201546001600160a01b0316928401929092526003015460608301529083529092019101610781565b50505050815260200160038201548152505081526020019060010190610725565b505050509150600b805480602002602001604051908101604052809291908181526020016000905b82821015610de457838290600052602060002090600b02016040518061016001604052908160008201805461085b906150de565b80601f0160208091040260200160405190810160405280929190818152602001828054610887906150de565b80156108d45780601f106108a9576101008083540402835291602001916108d4565b820191906000526020600020905b8154815290600101906020018083116108b757829003601f168201915b50505050508152602001600182015481526020016002820180546108f7906150de565b80601f0160208091040260200160405190810160405280929190818152602001828054610923906150de565b80156109705780601f1061094557610100808354040283529160200191610970565b820191906000526020600020905b81548152906001019060200180831161095357829003601f168201915b50505050508152602001600382018054610989906150de565b80601f01602080910402602001604051908101604052809291908181526020018280546109b5906150de565b8015610a025780601f106109d757610100808354040283529160200191610a02565b820191906000526020600020905b8154815290600101906020018083116109e557829003601f168201915b50505050508152602001600482018054610a1b906150de565b80601f0160208091040260200160405190810160405280929190818152602001828054610a47906150de565b8015610a945780601f10610a6957610100808354040283529160200191610a94565b820191906000526020600020905b815481529060010190602001808311610a7757829003601f168201915b5050505050815260200160058201805480602002602001604051908101604052809291908181526020016000905b82821015610b6e578382906000526020600020018054610ae1906150de565b80601f0160208091040260200160405190810160405280929190818152602001828054610b0d906150de565b8015610b5a5780601f10610b2f57610100808354040283529160200191610b5a565b820191906000526020600020905b815481529060010190602001808311610b3d57829003601f168201915b505050505081526020019060010190610ac2565b505050508152602001600682018054610b86906150de565b80601f0160208091040260200160405190810160405280929190818152602001828054610bb2906150de565b8015610bff5780601f10610bd457610100808354040283529160200191610bff565b820191906000526020600020905b815481529060010190602001808311610be257829003601f168201915b505050918352505060078201546001600160a01b03166020820152600882018054604090920191610c2f906150de565b80601f0160208091040260200160405190810160405280929190818152602001828054610c5b906150de565b8015610ca85780601f10610c7d57610100808354040283529160200191610ca8565b820191906000526020600020905b815481529060010190602001808311610c8b57829003601f168201915b50505050508152602001600982018054610cc1906150de565b80601f0160208091040260200160405190810160405280929190818152602001828054610ced906150de565b8015610d3a5780601f10610d0f57610100808354040283529160200191610d3a565b820191906000526020600020905b815481529060010190602001808311610d1d57829003601f168201915b50505050508152602001600a82018054610d53906150de565b80601f0160208091040260200160405190810160405280929190818152602001828054610d7f906150de565b8015610dcc5780601f10610da157610100808354040283529160200191610dcc565b820191906000526020600020905b815481529060010190602001808311610daf57829003601f168201915b50505050508152505081526020019060010190610827565b5050505090509091565b81600060018281548110610e1257634e487b7160e01b600052603260045260246000fd5b90600052602060002090600402016003015411610e415760405162461bcd60e51b815260040161060090614db3565b60018381548110610e6257634e487b7160e01b600052603260045260246000fd5b9060005260206000209060040201600101546000610e7f82611723565b90506000805b8251811015610ef8576000356001600160e01b0319166001600160e01b031916838281518110610ec557634e487b7160e01b600052603260045260246000fd5b60200260200101516001600160e01b0319161415610ee65760019150610ef8565b80610ef081615119565b915050610e85565b5080610f165760405162461bcd60e51b815260040161060090614dea565b6106f88686671491529150d5115160c21b613d2e565b610f5a6040518060800160405280600081526020016000801916815260200160608152602001600081525090565b610fc06040518061016001604052806060815260200160008152602001606081526020016060815260200160608152602001606081526020016060815260200160006001600160a01b031681526020016060815260200160608152602001606081525090565b60018381548110610fe157634e487b7160e01b600052603260045260246000fd5b9060005260206000209060040201604051806080016040529081600082015481526020016001820154815260200160028201805480602002602001604051908101604052809291908181526020016000905b828210156110905760008481526020908190206040805160808101825260048602909201805483526001808201548486015260028201546001600160a01b0316928401929092526003015460608301529083529092019101611033565b5050505081526020016003820154815250509150600b83815481106110c557634e487b7160e01b600052603260045260246000fd5b90600052602060002090600b0201604051806101600160405290816000820180546110ef906150de565b80601f016020809104026020016040519081016040528092919081815260200182805461111b906150de565b80156111685780601f1061113d57610100808354040283529160200191611168565b820191906000526020600020905b81548152906001019060200180831161114b57829003601f168201915b505050505081526020016001820154815260200160028201805461118b906150de565b80601f01602080910402602001604051908101604052809291908181526020018280546111b7906150de565b80156112045780601f106111d957610100808354040283529160200191611204565b820191906000526020600020905b8154815290600101906020018083116111e757829003601f168201915b5050505050815260200160038201805461121d906150de565b80601f0160208091040260200160405190810160405280929190818152602001828054611249906150de565b80156112965780601f1061126b57610100808354040283529160200191611296565b820191906000526020600020905b81548152906001019060200180831161127957829003601f168201915b505050505081526020016004820180546112af906150de565b80601f01602080910402602001604051908101604052809291908181526020018280546112db906150de565b80156113285780601f106112fd57610100808354040283529160200191611328565b820191906000526020600020905b81548152906001019060200180831161130b57829003601f168201915b5050505050815260200160058201805480602002602001604051908101604052809291908181526020016000905b82821015611402578382906000526020600020018054611375906150de565b80601f01602080910402602001604051908101604052809291908181526020018280546113a1906150de565b80156113ee5780601f106113c3576101008083540402835291602001916113ee565b820191906000526020600020905b8154815290600101906020018083116113d157829003601f168201915b505050505081526020019060010190611356565b50505050815260200160068201805461141a906150de565b80601f0160208091040260200160405190810160405280929190818152602001828054611446906150de565b80156114935780601f1061146857610100808354040283529160200191611493565b820191906000526020600020905b81548152906001019060200180831161147657829003601f168201915b505050918352505060078201546001600160a01b031660208201526008820180546040909201916114c3906150de565b80601f01602080910402602001604051908101604052809291908181526020018280546114ef906150de565b801561153c5780601f106115115761010080835404028352916020019161153c565b820191906000526020600020905b81548152906001019060200180831161151f57829003601f168201915b50505050508152602001600982018054611555906150de565b80601f0160208091040260200160405190810160405280929190818152602001828054611581906150de565b80156115ce5780601f106115a3576101008083540402835291602001916115ce565b820191906000526020600020905b8154815290600101906020018083116115b157829003601f168201915b50505050508152602001600a820180546115e7906150de565b80601f0160208091040260200160405190810160405280929190818152602001828054611613906150de565b80156116605780601f1061163557610100808354040283529160200191611660565b820191906000526020600020905b81548152906001019060200180831161164357829003601f168201915b5050505050815250509050915091565b60606006805461167f906150de565b80601f01602080910402602001604051908101604052809291908181526020018280546116ab906150de565b80156116f85780601f106116cd576101008083540402835291602001916116f8565b820191906000526020600020905b8154815290600101906020018083116116db57829003601f168201915b5050505050905090565b6007818154811061171257600080fd5b600091825260209091200154905081565b60608064111490519560da1b8314156118695760408051600480825260a0820190925290602082016080803683370190505090506388f42a0a60e01b8160008151811061178057634e487b7160e01b600052603260045260246000fd5b6001600160e01b03199092166020928302919091019091015280516326585f9d60e11b90829060019081106117c557634e487b7160e01b600052603260045260246000fd5b6001600160e01b031990921660209283029190910190910152805163bcfb07dd60e01b908290600290811061180a57634e487b7160e01b600052603260045260246000fd5b6001600160e01b03199092166020928302919091019091015280516374ae664760e11b908290600390811061184f57634e487b7160e01b600052603260045260246000fd5b6001600160e01b0319909216602092830291909101909101525b6814d55093525515115160ba1b83148061189057506000805160206151e583398151915283145b1561193d5760408051600280825260608201835290916020830190803683370190505090506307eeaef860e01b816000815181106118de57634e487b7160e01b600052603260045260246000fd5b6001600160e01b03199092166020928302919091019091015280516374ae664760e11b908290600190811061192357634e487b7160e01b600052603260045260246000fd5b6001600160e01b0319909216602092830291909101909101525b67149155925155d15160c21b8314156119f857604080516002808252606082018352909160208301908036833701905050905063245fadf360e01b8160008151811061199957634e487b7160e01b600052603260045260246000fd5b6001600160e01b03199092166020928302919091019091015280516374ae664760e11b90829060019081106119de57634e487b7160e01b600052603260045260246000fd5b6001600160e01b0319909216602092830291909101909101525b671054141493d5915160c21b831480611a2157506d1193d490d157d054141493d5915160921b83145b15611ace57604080516002808252606082018352909160208301908036833701905050905063245fadf360e01b81600081518110611a6f57634e487b7160e01b600052603260045260246000fd5b6001600160e01b031990921660209283029190910190910152805163fef9aeb360e01b9082906001908110611ab457634e487b7160e01b600052603260045260246000fd5b6001600160e01b0319909216602092830291909101909101525b90505b919050565b81600060018281548110611afa57634e487b7160e01b600052603260045260246000fd5b90600052602060002090600402016003015411611b295760405162461bcd60e51b815260040161060090614db3565b60018381548110611b4a57634e487b7160e01b600052603260045260246000fd5b9060005260206000209060040201600101546000611b6782611723565b90506000805b8251811015611be0576000356001600160e01b0319166001600160e01b031916838281518110611bad57634e487b7160e01b600052603260045260246000fd5b60200260200101516001600160e01b0319161415611bce5760019150611be0565b80611bd881615119565b915050611b6d565b5080611bfe5760405162461bcd60e51b815260040161060090614dea565b84518590611c6d5760405162461bcd60e51b815260206004820152603660248201527f596f75206e65656420746f20656e74657220612063616c6c20666f722074656e60448201527519195c9cc81c995cdc1bdb9cd948191bd8dd5b595b9d60521b6064820152608401610600565b6000600b8881548110611c9057634e487b7160e01b600052603260045260246000fd5b600091825260208083206005600b909302019182018054600181018255908452928190208a51929450611cc8930191908a019061446b565b505050505050505050565b8051611ce690600290602084019061446b565b5050565b60608064111490519560da1b831480611d1157506b4e454544535f55504441544560a01b83145b15611dad5760408051600280825260608201835290916020830190803683370190505090506814d55093525515115160ba1b81600081518110611d6457634e487b7160e01b600052603260045260246000fd5b6020026020010181815250506000805160206151e583398151915281600181518110611da057634e487b7160e01b600052603260045260246000fd5b6020026020010181815250505b6814d55093525515115160ba1b831480611dd457506000805160206151e583398151915283145b15611e7057604080516002808252606082018352909160208301908036833701905050905067149155925155d15160c21b81600081518110611e2657634e487b7160e01b600052603260045260246000fd5b6020026020010181815250506b4e454544535f55504441544560a01b81600181518110611e6357634e487b7160e01b600052603260045260246000fd5b6020026020010181815250505b67149155925155d15160c21b831415611f935760408051600480825260a082019092529060208201608080368337019050509050671491529150d5115160c21b81600081518110611ed157634e487b7160e01b600052603260045260246000fd5b602002602001018181525050671054141493d5915160c21b81600181518110611f0a57634e487b7160e01b600052603260045260246000fd5b6020026020010181815250506d1193d490d157d054141493d5915160921b81600281518110611f4957634e487b7160e01b600052603260045260246000fd5b6020026020010181815250506b4e454544535f55504441544560a01b81600381518110611f8657634e487b7160e01b600052603260045260246000fd5b6020026020010181815250505b671054141493d5915160c21b831480611fbc57506d1193d490d157d054141493d5915160921b83145b15611ace576040805160018082528183019092529060208083019080368337019050509050671491529150d5115160c21b8160008151811061200e57634e487b7160e01b600052603260045260246000fd5b602090810291909101015292915050565b606060088054806020026020016040519081016040528092919081815260200182805480156116f857602002820191906000526020600020905b815481526020019060010190808311612059575050505050905090565b6060600c805480602002602001604051908101604052809291908181526020016000905b828210156121465783829060005260206000200180546120b9906150de565b80601f01602080910402602001604051908101604052809291908181526020018280546120e5906150de565b80156121325780601f1061210757610100808354040283529160200191612132565b820191906000526020600020905b81548152906001019060200180831161211557829003601f168201915b50505050508152602001906001019061209a565b50505050905090565b606060098054806020026020016040519081016040528092919081815260200182805480156116f85760200282019190600052602060002090815481526020019060010190808311612059575050505050905090565b7f5550444154455f55494649454c44444546494e4954494f4e535f524f4c4500006040518060600160405280602b81526020016151ba602b91396121e93383613e2a565b81906122085760405162461bcd60e51b81526004016106009190614da0565b50825161221c90600690602086019061446b565b50505050565b6060806814d55093525515115160ba1b83148061224c57506000805160206151e583398151915283145b8061226557506b4e454544535f55504441544560a01b83145b8061227a5750671491529150d5115160c21b83145b15611ace57604080516001808252818301909252906020808301908036833701905050905063d3d8f7f360e01b81600081518110611ab457634e487b7160e01b600052603260045260246000fd5b816000600182815481106122ec57634e487b7160e01b600052603260045260246000fd5b9060005260206000209060040201600301541161231b5760405162461bcd60e51b815260040161060090614db3565b6001838154811061233c57634e487b7160e01b600052603260045260246000fd5b906000526020600020906004020160010154600061235982611723565b90506000805b82518110156123d2576000356001600160e01b0319166001600160e01b03191683828151811061239f57634e487b7160e01b600052603260045260246000fd5b60200260200101516001600160e01b03191614156123c057600191506123d2565b806123ca81615119565b91505061235f565b50806123f05760405162461bcd60e51b815260040161060090614dea565b845185906124565760405162461bcd60e51b815260206004820152602d60248201527f596f75206e65656420746f20656e74657220612063616c6c20666f722074656e60448201526c19195c9cc8191bd8dd5b595b9d609a1b6064820152608401610600565b6000600b888154811061247957634e487b7160e01b600052603260045260246000fd5b90600052602060002090600b0201905086816004019080519060200190611cc892919061446b565b606060078054806020026020016040519081016040528092919081815260200182805480156116f85760200282019190600052602060002090815481526020019060010190808311612059575050505050905090565b60028054612504906150de565b80601f0160208091040260200160405190810160405280929190818152602001828054612530906150de565b801561257d5780601f106125525761010080835404028352916020019161257d565b820191906000526020600020905b81548152906001019060200180831161256057829003601f168201915b505050505081565b774352454154455f53544154454d414348494e455f524f4c4560401b604051806060016040528060258152602001615205602591396125c43383613e2a565b81906125e35760405162461bcd60e51b81526004016106009190614da0565b50600180548101808255600082815291906125ff908290615078565b8154811061261d57634e487b7160e01b600052603260045260246000fd5b9060005260206000209060040201905061263c64111490519560da1b90565b60018083019190915542600383015580546126579190615078565b8155600b805460019081018083556000838152929161267591615078565b8154811061269357634e487b7160e01b600052603260045260246000fd5b90600052602060002090600b02019050888160010181905550878160020190805190602001906126c492919061446b565b5086516126da90600383019060208a019061446b565b5085516126f090600a830190602089019061446b565b506007810180546001600160a01b0319166001600160a01b038716179055600b546127269061272190600190615078565b613ecf565b805161273991839160209091019061446b565b50600c80546001908101808355600083905283929161275791615078565b8154811061277557634e487b7160e01b600052603260045260246000fd5b9060005260206000200190805461278b906150de565b6127969291906144ef565b508154600a54604080519283526001600160a01b03888116602085015290911682820152517f5fce6dc34a0afd31a9c1922610516979f084197be2ab543455fa67ae2a7e2cd09181900360600190a1505050505050505050565b8160006001828154811061281457634e487b7160e01b600052603260045260246000fd5b906000526020600020906004020160030154116128435760405162461bcd60e51b815260040161060090614db3565b6001838154811061286457634e487b7160e01b600052603260045260246000fd5b906000526020600020906004020160010154600061288182611723565b90506000805b82518110156128fa576000356001600160e01b0319166001600160e01b0319168382815181106128c757634e487b7160e01b600052603260045260246000fd5b60200260200101516001600160e01b03191614156128e857600191506128fa565b806128f281615119565b915050612887565b50806129185760405162461bcd60e51b815260040161060090614dea565b8451859061297e5760405162461bcd60e51b815260206004820152602d60248201527f596f75206e65656420746f20656e74657220612074656e6465722073656c656360448201526c1d1a5bdb88191bd8dd5b595b9d609a1b6064820152608401610600565b6000600b88815481106129a157634e487b7160e01b600052603260045260246000fd5b90600052602060002090600b0201905086816006019080519060200190611cc892919061446b565b6060806814d55093525515115160ba1b8314806129f357506000805160206151e583398151915283145b15612a8e576040805160028082526060820183529091602083019080368337019050509050692927a622afa0a226a4a760b11b81600081518110612a4757634e487b7160e01b600052603260045260246000fd5b602002602001018181525050682927a622afaaa9a2a960b91b81600181518110612a8157634e487b7160e01b600052603260045260246000fd5b6020026020010181815250505b6b4e454544535f55504441544560a01b831415612b3b576040805160028082526060820183529091602083019080368337019050509050692927a622afa0a226a4a760b11b81600081518110612af457634e487b7160e01b600052603260045260246000fd5b602002602001018181525050682927a622afaaa9a2a960b91b81600181518110612b2e57634e487b7160e01b600052603260045260246000fd5b6020026020010181815250505b67149155925155d15160c21b831415612be4576040805160028082526060820183529091602083019080368337019050509050692927a622afa0a226a4a760b11b81600081518110612b9d57634e487b7160e01b600052603260045260246000fd5b602002602001018181525050682927a622afaaa9a2a960b91b81600181518110612bd757634e487b7160e01b600052603260045260246000fd5b6020026020010181815250505b671054141493d5915160c21b831480612c0d57506d1193d490d157d054141493d5915160921b83145b15612cab576040805160028082526060820183529091602083019080368337019050509050692927a622afa0a226a4a760b11b81600081518110612c6157634e487b7160e01b600052603260045260246000fd5b6020026020010181815250506b2927a622afa922ab24a9a7a960a11b81600181518110612c9e57634e487b7160e01b600052603260045260246000fd5b6020026020010181815250505b671491529150d5115160c21b831415611ace576040805160028082526060820183529091602083019080368337019050509050692927a622afa0a226a4a760b11b81600081518110612d0d57634e487b7160e01b600052603260045260246000fd5b6020026020010181815250506b2927a622afa922ab24a9a7a960a11b8160018151811061200e57634e487b7160e01b600052603260045260246000fd5b82600060018281548110612d6e57634e487b7160e01b600052603260045260246000fd5b90600052602060002090600402016003015411612d9d5760405162461bcd60e51b815260040161060090614db3565b6000600b8581548110612dc057634e487b7160e01b600052603260045260246000fd5b90600052602060002090600b020190506814d55093525515115160ba1b831415613207576000816001015411612e085760405162461bcd60e51b815260040161060090614e34565b620cf85081600101541115613136576000816004018054612e28906150de565b80601f0160208091040260200160405190810160405280929190818152602001828054612e54906150de565b8015612ea15780601f10612e7657610100808354040283529160200191612ea1565b820191906000526020600020905b815481529060010190602001808311612e8457829003601f168201915b505050505090506000815111612f455760405162461bcd60e51b815260206004820152605860248201527f53696e63652074686520616d6f756e74206f662074686520657870656e73652060448201527f6973206f7665722038353030206575726f2c20796f75206e65656420746f207560648201527f706c6f616420612063616c6c20666f722074656e646572730000000000000000608482015260a401610600565b6000826006018054612f56906150de565b80601f0160208091040260200160405190810160405280929190818152602001828054612f82906150de565b8015612fcf5780601f10612fa457610100808354040283529160200191612fcf565b820191906000526020600020905b815481529060010190602001808311612fb257829003601f168201915b5050505050905060008151116130845760405162461bcd60e51b815260206004820152606860248201527f53696e63652074686520616d6f756e74206f662074686520657870656e73652060448201527f6973206f7665722038353030206575726f2c20796f75206e65656420746f207560648201527f706c6f61642074686520726561736f6e7320666f722073656c656374696e672060848201526730903a32b73232b960c11b60a482015260c401610600565b6005830154600311156131335760405162461bcd60e51b815260206004820152606560248201527f53696e63652074686520616d6f756e74206f662074686520657870656e73652060448201527f6973206f7665722038353030206575726f2c20796f75206e65656420746f207560648201527f706c6f6164206174206c656173742074687265652074656e64657220726573706084820152646f6e73657360d81b60a482015260c401610600565b50505b60405163086c2e6d60e31b602082015260240160408051601f198184030181529082905280516020918201209161317291600385019101614ae4565b6040516020818303038152906040528051906020012060001c141561320757620493e0816001015411156132075760405162461bcd60e51b815260206004820152603660248201527f4361736820657870656e736573206e65656420746f206265206c657373206f7260448201527501032b8bab0b6103a3430b710199818181032bab937960551b6064820152608401610600565b5050505050565b6008818154811061171257600080fd5b600980548060200260200160405190810160405280929190818152602001828054801561326a57602002820191906000526020600020905b815481526020019060010190808311613256575b5050505050604051806080016040528060438152602001615177604391396000805b83518110156132e6576132c6338583815181106132b957634e487b7160e01b600052603260045260246000fd5b6020026020010151613e2a565b156132d457600191506132e6565b806132de81615119565b91505061328c565b508160018215151461330b5760405162461bcd60e51b81526004016106009190614da0565b508860006001828154811061333057634e487b7160e01b600052603260045260246000fd5b9060005260206000209060040201600301541161335f5760405162461bcd60e51b815260040161060090614db3565b60018a8154811061338057634e487b7160e01b600052603260045260246000fd5b906000526020600020906004020160010154600061339d82611723565b90506000805b8251811015613416576000356001600160e01b0319166001600160e01b0319168382815181106133e357634e487b7160e01b600052603260045260246000fd5b60200260200101516001600160e01b03191614156134045760019150613416565b8061340e81615119565b9150506133a3565b50806134345760405162461bcd60e51b815260040161060090614dea565b60008c116134545760405162461bcd60e51b815260040161060090614e34565b60008b51116134b75760405162461bcd60e51b815260206004820152602960248201527f412070726f6f662066696c6520697320726571756972656420666f7220616c6c60448201526820657870656e73657360b81b6064820152608401610600565b6135008d60018f815481106134dc57634e487b7160e01b600052603260045260246000fd5b9060005260206000209060040201600101546814d55093525515115160ba1b612d4a565b600b8d8154811061352157634e487b7160e01b600052603260045260246000fd5b90600052602060002090600b0201600101548c146135b7577f0cf6bba85b21bad480f1f5fbce0487630b8a2a2470ed912b8a0d796966a26abe33600b8f8154811061357c57634e487b7160e01b600052603260045260246000fd5b60009182526020918290206001600b909202010154604080516001600160a01b0390941684529183015281018e905260600160405180910390a15b600b8d815481106135d857634e487b7160e01b600052603260045260246000fd5b90600052602060002090600b02016002016040516020016135f99190614ae4565b60408051601f198184030181529082905280516020918201209161361f918e9101614ac8565b6040516020818303038152906040528051906020012060001c146136aa577fedc0a72882c8db6421644354524ad34de77e6ccb346ef801508ff51ac3fc558f33600b8f8154811061368057634e487b7160e01b600052603260045260246000fd5b90600052602060002090600b02016002018d6040516136a193929190614bad565b60405180910390a15b8b600b8e815481106136cc57634e487b7160e01b600052603260045260246000fd5b90600052602060002090600b0201600101819055508a600b8e8154811061370357634e487b7160e01b600052603260045260246000fd5b90600052602060002090600b0201600201908051906020019061372792919061446b565b5089600b8e8154811061374a57634e487b7160e01b600052603260045260246000fd5b90600052602060002090600b0201600301908051906020019061376e92919061446b565b5088600b8e8154811061379157634e487b7160e01b600052603260045260246000fd5b90600052602060002090600b020160040190805190602001906137b592919061446b565b5087600b8e815481106137d857634e487b7160e01b600052603260045260246000fd5b90600052602060002090600b0201600a0190805190602001906137fc92919061446b565b506138128d67149155925155d15160c21b6138b5565b50505050505050505050505050565b60606002805461167f906150de565b60008281526004602052604090205460ff16613891576003805460018181019092557fc2575a0e9e593c00f959f8c92f12db2869c3395a3b0502d05e2516446f71f85b018390556000838152600460205260409020805460ff191690911790555b600082815260056020908152604090912082516138b09284019061446b565b505050565b81816138f3600183815481106138db57634e487b7160e01b600052603260045260246000fd5b90600052602060002090600402016001015482613f0a565b6139325760405162461bcd60e51b815260206004820152601060248201526f696e76616c696420746f20737461746560801b6044820152606401610600565b61393b81613fc3565b6139875760405162461bcd60e51b815260206004820152601f60248201527f7472616e736974696f6e20746f207374617465206e6f7420616c6c6f776564006044820152606401610600565b6139c482600184815481106139ac57634e487b7160e01b600052603260045260246000fd5b9060005260206000209060040201600101548361403b565b6000600185815481106139e757634e487b7160e01b600052603260045260246000fd5b6000918252602082206004919091020160018101805490879055909250906060905b8151811015613a5a57613a48888489858581518110613a3857634e487b7160e01b600052603260045260246000fd5b602002602001015163ffffffff16565b80613a5281615119565b915050613a09565b5060018781548110613a7c57634e487b7160e01b600052603260045260246000fd5b6000918252602080832060408051608080820183528882528185018d81523383850181815242606080870191825260049a8b029098016002908101805460018082018355918e529c8b902097519c909b029096019a8b559251988a0198909855965192880180546001600160a01b0319166001600160a01b0390941693909317909255905160039096019590955580518c8152928301939093529181018590529081018890527fda0ea013b184628ef221c26d3ecdde1c5bbade441ed06a851b724a7ace03c274910160405180910390a150505050505050565b81600060018281548110613b7a57634e487b7160e01b600052603260045260246000fd5b90600052602060002090600402016003015411613ba95760405162461bcd60e51b815260040161060090614db3565b60018381548110613bca57634e487b7160e01b600052603260045260246000fd5b9060005260206000209060040201600101546000613be782611723565b90506000805b8251811015613c60576000356001600160e01b0319166001600160e01b031916838281518110613c2d57634e487b7160e01b600052603260045260246000fd5b60200260200101516001600160e01b0319161415613c4e5760019150613c60565b80613c5881615119565b915050613bed565b5080613c7e5760405162461bcd60e51b815260040161060090614dea565b84518590613ce35760405162461bcd60e51b815260206004820152602c60248201527f596f75206e65656420746f20656e74657220612072657669736f7220636f6d6d60448201526b195b9d08191bd8dd5b595b9d60a21b6064820152608401610600565b6000600b8881548110613d0657634e487b7160e01b600052603260045260246000fd5b90600052602060002090600b0201905086816009019080519060200190611cc892919061446b565b82600060018281548110613d5257634e487b7160e01b600052603260045260246000fd5b90600052602060002090600402016003015411613d815760405162461bcd60e51b815260040161060090614db3565b6000600b8581548110613da457634e487b7160e01b600052603260045260246000fd5b90600052602060002090600b0201905060008490506000815111613e0a5760405162461bcd60e51b815260206004820181905260248201527f5468652072656a656374696f6e20726561736f6e2069732072657175697265646044820152606401610600565b8451613e1f906008840190602088019061446b565b506106f886856138b5565b600080546001600160a01b03161580613ec85750600054604051630dace25b60e31b81526001600160a01b0385811660048301523060248301526044820185905290911690636d6712d89060640160206040518083038186803b158015613e9057600080fd5b505afa158015613ea4573d6000803e3d6000fd5b505050506040513d601f19601f82011682018060405250810190613ec8919061461c565b9392505050565b6060613eda3061408c565b613ee3836141ef565b604051602001613ef4929190614b53565b6040516020818303038152906040529050919050565b600080613f1684611cea565b90506000915060005b8151811015613fbb5760408051602081018690520160405160208183030381529060405280519060200120828281518110613f6a57634e487b7160e01b600052603260045260246000fd5b6020026020010151604051602001613f8491815260200190565b604051602081830303815290604052805190602001201415613fa95760019250613fbb565b80613fb381615119565b915050613f1f565b505092915050565b600080613fcf836129c9565b905060009150805160001415613fe457600191505b60005b815181101561403457614014338383815181106132b957634e487b7160e01b600052603260045260246000fd5b156140225760019250614034565b8061402c81615119565b915050613fe7565b5050919050565b6000614046826142ec565b905060005b81518110156132075761407a858585858581518110613a3857634e487b7160e01b600052603260045260246000fd5b8061408481615119565b91505061404b565b60408051602880825260608281019093526000919060208201818036833701905050905060005b60148110156141e85760006140c9826013615078565b6140d4906008615030565b6140df906002614f62565b6140f2906001600160a01b038716614ee6565b60f81b9050600060108260f81c6141099190614efa565b60f81b905060008160f81c6010614120919061504f565b8360f81c61412e919061508f565b60f81b905061413c8261442b565b85614148866002615030565b8151811061416657634e487b7160e01b600052603260045260246000fd5b60200101906001600160f81b031916908160001a9053506141868161442b565b85614192866002615030565b61419d906001614ea9565b815181106141bb57634e487b7160e01b600052603260045260246000fd5b60200101906001600160f81b031916908160001a90535050505080806141e090615119565b9150506140b3565b5092915050565b60608161421457506040805180820190915260018152600360fc1b6020820152611ad1565b8160005b811561422c57600101600a82049150614218565b8360008267ffffffffffffffff81111561425657634e487b7160e01b600052604160045260246000fd5b6040519080825280601f01601f191660200182016040528015614280576020820181803683370190505b50905060001983015b82156142e257600a830660300160f81b828280600190039350815181106142c057634e487b7160e01b600052603260045260246000fd5b60200101906001600160f81b031916908160001a905350600a83049250614289565b5095945050505050565b6060806814d55093525515115160ba1b83148061431657506000805160206151e583398151915283145b1561438f5760408051600180825281830190925290816020015b61456a815260200190600190039081614330579050509050612d4a8160008151811061436c57634e487b7160e01b600052603260045260246000fd5b602002602001019067ffffffffffffffff16908167ffffffffffffffff16815250505b6b4e454544535f55504441544560a01b8314806143b65750671491529150d5115160c21b83145b15611ace5760408051600180825281830190925290816020015b61456a8152602001906001900390816143d0579050509050612d4a8160008151811061440c57634e487b7160e01b600052603260045260246000fd5b67ffffffffffffffff9092166020928302919091019091015292915050565b6000600a60f883901c10156144535761444960f883901c6030614ec1565b60f81b9050611ad1565b61446260f883901c6057614ec1565b60f81b92915050565b828054614477906150de565b90600052602060002090601f01602090048101928261449957600085556144df565b82601f106144b257805160ff19168380011785556144df565b828001600101855582156144df579182015b828111156144df5782518255916020019190600101906144c4565b506144eb929150614580565b5090565b8280546144fb906150de565b90600052602060002090601f01602090048101928261451d57600085556144df565b82601f1061452e57805485556144df565b828001600101855582156144df57600052602060002091601f016020900482015b828111156144df57825482559160010191906001019061454f565b634e487b7160e01b600052605160045260246000fd5b5b808211156144eb5760008155600101614581565b600082601f8301126145a5578081fd5b813567ffffffffffffffff808211156145c0576145c0615160565b604051601f8301601f19908116603f011681019082821181831017156145e8576145e8615160565b81604052838152866020858801011115614600578485fd5b8360208701602083013792830160200193909352509392505050565b60006020828403121561462d578081fd5b81518015158114613ec8578182fd5b60006020828403121561464d578081fd5b5035919050565b60008060408385031215614666578081fd5b82359150602083013567ffffffffffffffff811115614683578182fd5b61468f85828601614595565b9150509250929050565b6000602082840312156146aa578081fd5b813567ffffffffffffffff8111156146c0578182fd5b6146cc84828501614595565b949350505050565b600080604083850312156146e6578182fd5b50508035926020909101359150565b600080600060608486031215614709578081fd5b505081359360208301359350604090920135919050565b60008060408385031215614666578182fd5b600080600080600060a08688031215614749578081fd5b85359450602086013567ffffffffffffffff80821115614767578283fd5b61477389838a01614595565b95506040880135915080821115614788578283fd5b61479489838a01614595565b945060608801359150808211156147a9578283fd5b506147b688828901614595565b92505060808601356001600160a01b03811681146147d2578182fd5b809150509295509295909350565b60008060008060008060c087890312156147f8578081fd5b8635955060208701359450604087013567ffffffffffffffff8082111561481d578283fd5b6148298a838b01614595565b9550606089013591508082111561483e578283fd5b61484a8a838b01614595565b9450608089013591508082111561485f578283fd5b61486b8a838b01614595565b935060a0890135915080821115614880578283fd5b5061488d89828a01614595565b9150509295509295509295565b600081518084526020808501808196508360051b81019150828601855b858110156148e15782840389526148cf8483516148ee565b988501989350908401906001016148b7565b5091979650505050505050565b600081518084526149068160208601602086016150b2565b601f01601f19169290920160200192915050565b60006101608251818552614930828601826148ee565b915050602083015160208501526040830151848203604086015261495482826148ee565b9150506060830151848203606086015261496e82826148ee565b9150506080830151848203608086015261498882826148ee565b91505060a083015184820360a08601526149a2828261489a565b91505060c083015184820360c08601526149bc82826148ee565b91505060e08301516149d960e08601826001600160a01b03169052565b5061010080840151858303828701526149f283826148ee565b925050506101208084015185830382870152614a0e83826148ee565b925050506101408084015185830382870152614a2a83826148ee565b9695505050505050565b600060808084018351855260208085015181870152604080860151848289015283815180865260a08a01915084830195508792505b80831015614aae578551805183528581015186840152848101516001600160a01b03168584015260609081015190830152948401946001929092019190860190614a69565b50606088015160608a015280965050505050505092915050565b60008251614ada8184602087016150b2565b9190910192915050565b6000808354614af2816150de565b60018281168015614b0a5760018114614b1b57614b47565b60ff19841687528287019450614b47565b8786526020808720875b85811015614b3e5781548a820152908401908201614b25565b50505082870194505b50929695505050505050565b6000710c8d2c874ecc8c474caf0e0cadce6ca7460f60731b82528351614b808160128501602088016150b2565b601d60f91b6012918401918201528351614ba18160138401602088016150b2565b01601301949350505050565b600060018060a01b03851682526020606081840152818554614bce816150de565b8060608701526080600180841660008114614bf05760018114614c0457614c2f565b60ff1985168984015260a089019550614c2f565b8a8852868820885b85811015614c275781548b8201860152908301908801614c0c565b8a0184019650505b50505050508381036040850152614c4681866148ee565b979650505050505050565b6020808252825182820181905260009190848201906040850190845b81811015614c8957835183529284019291840191600101614c6d565b50909695505050505050565b6020808252825182820181905260009190848201906040850190845b81811015614c895783516001600160e01b03191683529284019291840191600101614cb1565b600060208252613ec8602083018461489a565b6000604082016040835280855180835260608501915060608160051b86010192506020808801855b83811015614d4057605f19888703018552614d2e868351614a34565b95509382019390820190600101614d12565b505085840381870152865180855281850193509150600582901b84018101878201865b84811015614d9157601f19878403018652614d7f83835161491a565b95840195925090830190600101614d63565b50909998505050505050505050565b600060208252613ec860208301846148ee565b6020808252601c908201527f7374617465206d616368696e6520646f6573206e6f7420657869737400000000604082015260600190565b6020808252602a908201527f746869732066756e6374696f6e206973206e6f7420616c6c6f77656420696e206040820152697468697320737461746560b01b606082015260800190565b60208082526027908201527f54686520616d6f756e74206f6620616e20657870656e73652063616e6e6f74206040820152666265207a65726f60c81b606082015260800190565b600060408252614e8e6040830185614a34565b8281036020840152614ea0818561491a565b95945050505050565b60008219821115614ebc57614ebc615134565b500190565b600060ff821660ff84168060ff03821115614ede57614ede615134565b019392505050565b600082614ef557614ef561514a565b500490565b600060ff831680614f0d57614f0d61514a565b8060ff84160491505092915050565b80825b6001808611614f2e5750614f59565b818704821115614f4057614f40615134565b80861615614f4d57918102915b9490941c938002614f1f565b94509492505050565b6000613ec86000198484600082614f7b57506001613ec8565b81614f8857506000613ec8565b8160018114614f9e5760028114614fa857614fd5565b6001915050613ec8565b60ff841115614fb957614fb9615134565b6001841b915084821115614fcf57614fcf615134565b50613ec8565b5060208310610133831016604e8410600b8410161715615008575081810a8381111561500357615003615134565b613ec8565b6150158484846001614f1c565b80860482111561502757615027615134565b02949350505050565b600081600019048311821515161561504a5761504a615134565b500290565b600060ff821660ff84168160ff048111821515161561507057615070615134565b029392505050565b60008282101561508a5761508a615134565b500390565b600060ff821660ff8416808210156150a9576150a9615134565b90039392505050565b60005b838110156150cd5781810151838201526020016150b5565b8381111561221c5750506000910152565b600181811c908216806150f257607f821691505b6020821081141561511357634e487b7160e01b600052602260045260246000fd5b50919050565b600060001982141561512d5761512d615134565b5060010190565b634e487b7160e01b600052601160045260246000fd5b634e487b7160e01b600052601260045260246000fd5b634e487b7160e01b600052604160045260246000fdfe45646974207265717569726573206f6e65206f6620726f6c65733a20524f4c455f41444d494e2c20524f4c455f4346502c20524f4c455f4f422c20524f4c455f56444253656e646572206e65656473205550444154455f55494649454c44444546494e4954494f4e535f524f4c455355424d49545445445f574954485f455843455054494f4e000000000000000053656e646572206e65656473204352454154455f53544154454d414348494e455f524f4c45a264697066735822122021e75670d29249909534dbc9bb4b98a5ff3bc4f29ab0eae5345745b7d6b023a164736f6c63430008030033",
  "immutableReferences": {},
  "source": "/**\n * Copyright (C) SettleMint NV - All Rights Reserved\n *\n * Use of this file is strictly prohibited without an active license agreement.\n * Distribution of this file, via any medium, is strictly prohibited.\n *\n * For license inquiries, contact hello@settlemint.com\n *\n * SPDX-License-Identifier: UNLICENSED\n */\n\npragma solidity ^0.8.0;\n\nimport '../_library//provenance/statemachine/FiniteStateMachine.sol';\nimport '../_library//authentication/Secured.sol';\nimport '../_library//utility/metadata/IpfsFieldContainer.sol';\nimport '../_library//utility/metadata/FileFieldContainer.sol';\nimport '../_library//utility/ui/UIFieldDefinitions.sol';\nimport '../_library//utility/conversions/Converter.sol';\n\n/**\n * @title Expense Contract\n */\ncontract Expense is FiniteStateMachine, IpfsFieldContainer, FileFieldContainer, UIFieldDefinitions {\n  bytes32 public constant UPGRADEABLE_REGISTRY_TARGET = 'UPGRADEABLE_REGISTRY_TARGET';\n  bytes32 public constant CREATE_STATEMACHINE_ROLE = 'CREATE_STATEMACHINE_ROLE';\n\n  /**\n   * Expense Events\n   */\n  event ExpenseCreated(uint256 fsmIndex, address owner, address registry);\n  event ExpenseSubmitted(address owner, address expense, uint256 amount);\n  event ExpenseSubmittedWithException(address owner, address expense, uint256 amount, string comment);\n  event ExpenseReviewed(address owner, address expense, uint256 amount);\n  event ExpenseNeedsUpdate(address owner, address expense, uint256 amount, string comment);\n  event ExpenseAccepted(address owner, address expense, uint256 amount);\n  event ExpenseRejected(address owner, address expense, uint256 amount, string comment);\n  event ExpenseForceApproved(address owner, address expense, uint256 amount, string comment);\n  event AmountChanged(address sender, uint256 fromAmount, uint256 toAmount);\n  event ProofChanged(address sender, string fromProof, string toProof);\n\n  /**\n   * @dev State Constants\n   *\n   * DRAFT = the expense is added, possibly with missing info\n   * SUBMITTED = submitted to the OB for review, all precoditions are met\n   * SUBMITTED_WITH_EXCEPTION = submitted expense does not meet all preconditions\n   * REVIEWED = the OB has reviewed the invoice\n   * NEEDS_UPDATE = the OB has sent the invoice back to the CFP for modification\n   * APPROVED = VDB approves the invoice out of REVIEWED\n   * REJECTED = VDB (or DGD) rejects the invoice out of reviewed (a comment is required)\n   * FORCE_APPROVED = VDB approves the invoice out of REVIEWED even of it is not ok\n   */\n  bytes32 private constant STATE_DRAFT = 'DRAFT';\n  bytes32 private constant STATE_SUBMITTED = 'SUBMITTED';\n  bytes32 private constant STATE_SUBMITTED_WITH_EXCEPTION = 'SUBMITTED_WITH_EXCEPTION';\n  bytes32 private constant STATE_REVIEWED = 'REVIEWED';\n  bytes32 private constant STATE_NEEDS_UPDATE = 'NEEDS_UPDATE';\n  bytes32 private constant STATE_APPROVED = 'APPROVED';\n  bytes32 private constant STATE_REJECTED = 'REJECTED';\n  bytes32 private constant STATE_FORCE_APPROVED = 'FORCE_APPROVED';\n\n  /**\n   * @dev Role Constants\n   */\n  bytes32 private constant ROLE_ADMIN = 'ROLE_ADMIN';\n  bytes32 private constant ROLE_REVISOR = 'ROLE_REVISOR';\n  bytes32 private constant ROLE_USER = 'ROLE_USER';\n\n  /**\n   * Expense states\n   */\n  bytes32[] public _allStates = [\n    STATE_DRAFT,\n    STATE_SUBMITTED,\n    STATE_SUBMITTED_WITH_EXCEPTION,\n    STATE_REVIEWED,\n    STATE_NEEDS_UPDATE,\n    STATE_APPROVED,\n    STATE_REJECTED,\n    STATE_FORCE_APPROVED\n  ];\n\n  /**\n   * @dev Expense roles\n   */\n  bytes32[] public _allRoles = [ROLE_ADMIN, ROLE_REVISOR, ROLE_USER];\n\n  /**\n   * @dev Expense helper role collection\n   * specifies anyone who can edit an exponse\n   */\n  bytes32[] private _canEdit = [ROLE_ADMIN, ROLE_USER];\n\n  /**\n   * @dev The address of the upgradeable registry this contract belongs to.\n   * Note that both this property together with the UPGRADEABLE_REGISTRY_TARGET const define a contract\n   * that is part of an upgradeable registry and provides the link to the registry if required.\n   */\n  address public _upgradeableRegistry;\n\n  /**\n   * @dev StateMachineMeta contains meta data for every StateMachine - seeing as struct are not composable\n   * and the base StateMachine struct is defined in the FiniteStateMachine abstract there's no other\n   * way to compose structs than having two separte arrays where the indices match.\n   *\n   * @dev Mint is aware of the above and will zip these two into a single struct so statemachines\n   * from the outside will look as a composition of both StateMachine and StateMachineMeta structs.\n   */\n  StateMachineMeta[] internal _meta;\n\n  /**\n   * @dev The index is a collection of DIDs for every state machine in the registry\n   * Usually the getIndex call returns a list of contract addresses however as FSMs are\n   * uniquely identified by their DID we return those instead\n   */\n  string[] internal _index;\n\n  /**\n   * @dev Struct defining an Expense\n   * @notice Gets decorated together with the StateMachine structs and forms the Expense FSM\n   */\n  struct StateMachineMeta {\n    string DID;\n    uint256 amount;\n    string proof;\n    string settlement;\n    string callForTenders;\n    string[] tenderResponses;\n    string tenderSelectionArgumentation;\n    address owner;\n    string reasonForRejection;\n    string revisorComment;\n    string ipfsFieldContainerHash;\n  }\n\n  constructor(address gateKeeper, address registry) Secured(gateKeeper) {\n    require(registry != address(0x0), 'registry can not be zero');\n    _upgradeableRegistry = registry;\n  }\n\n  //////\n  // FSM Definition Functions\n  //////\n\n  /**\n   * @notice Returns initial state\n   */\n  function initialState() public pure override returns (bytes32) {\n    return STATE_DRAFT;\n  }\n\n  /**\n   * @notice Returns all possible states\n   */\n  function allStates() public view override returns (bytes32[] memory) {\n    return _allStates;\n  }\n\n  /**\n   * @notice Returns all possible roles\n   */\n  function allRoles() public view override returns (bytes32[] memory) {\n    return _allRoles;\n  }\n\n  /**\n   * @notice Retrieve all possible next states for a certain state\n   * @param state state\n   */\n  function getNextStatesForState(bytes32 state) public view override returns (bytes32[] memory test) {\n    bytes32[] memory states;\n\n    if (state == STATE_DRAFT || state == STATE_NEEDS_UPDATE) {\n      states = new bytes32[](2);\n      states[0] = STATE_SUBMITTED;\n      states[1] = STATE_SUBMITTED_WITH_EXCEPTION;\n    }\n\n    if (state == STATE_SUBMITTED || state == STATE_SUBMITTED_WITH_EXCEPTION) {\n      states = new bytes32[](2);\n      states[0] = STATE_REVIEWED;\n      states[1] = STATE_NEEDS_UPDATE;\n    }\n\n    if (state == STATE_REVIEWED) {\n      states = new bytes32[](4);\n      states[0] = STATE_REJECTED;\n      states[1] = STATE_APPROVED;\n      states[2] = STATE_FORCE_APPROVED;\n      states[3] = STATE_NEEDS_UPDATE;\n    }\n\n    if (state == STATE_APPROVED || state == STATE_FORCE_APPROVED) {\n      states = new bytes32[](1);\n      states[0] = STATE_REJECTED;\n    }\n\n    return states;\n  }\n\n  /**\n   * @notice Retrieve all roles that are allowed to move it to the given state\n   * @param state state\n   */\n  function getAllowedRolesForState(bytes32 state) public view override returns (bytes32[] memory) {\n    bytes32[] memory roles;\n\n    if (state == STATE_SUBMITTED || state == STATE_SUBMITTED_WITH_EXCEPTION) {\n      roles = new bytes32[](2);\n      roles[0] = ROLE_ADMIN;\n      roles[1] = ROLE_USER;\n    }\n\n    if (state == STATE_NEEDS_UPDATE) {\n      roles = new bytes32[](2);\n      roles[0] = ROLE_ADMIN;\n      roles[1] = ROLE_USER;\n    }\n\n    if (state == STATE_REVIEWED) {\n      roles = new bytes32[](2);\n      roles[0] = ROLE_ADMIN;\n      roles[1] = ROLE_USER;\n    }\n\n    if (state == STATE_APPROVED || state == STATE_FORCE_APPROVED) {\n      roles = new bytes32[](2);\n      roles[0] = ROLE_ADMIN;\n      roles[1] = ROLE_REVISOR;\n    }\n\n    if (state == STATE_REJECTED) {\n      roles = new bytes32[](2);\n      roles[0] = ROLE_ADMIN;\n      roles[1] = ROLE_REVISOR;\n    }\n\n    return roles;\n  }\n\n  /**\n   * @notice Returns method signatures for functions which are allowed to execute in the given state\n   * @param state state\n   */\n  function getAllowedFunctionsForState(bytes32 state) public view override returns (bytes4[] memory) {\n    bytes4[] memory functions;\n\n    if (state == STATE_DRAFT) {\n      functions = new bytes4[](4);\n      functions[0] = this.addCallForTendersDocumentation.selector;\n      functions[1] = this.addTenderResponse.selector;\n      functions[2] = this.addTenderSelectionArgumentation.selector;\n      functions[3] = this.edit.selector;\n    }\n\n    if (state == STATE_SUBMITTED || state == STATE_SUBMITTED_WITH_EXCEPTION) {\n      functions = new bytes4[](2);\n      functions[0] = this.setNeedsUpdateRejectionReason.selector;\n      functions[1] = this.edit.selector;\n    }\n\n    if (state == STATE_REVIEWED) {\n      functions = new bytes4[](2);\n      functions[0] = this.setRejectedRejectionReason.selector;\n      functions[1] = this.edit.selector;\n    }\n\n    if (state == STATE_APPROVED || state == STATE_FORCE_APPROVED) {\n      functions = new bytes4[](2);\n      functions[0] = this.setRejectedRejectionReason.selector;\n      functions[1] = this.recordRevisorComment.selector;\n    }\n\n    return functions;\n  }\n\n  /**\n   * @notice Returns method signatures for functions that act as preconditions that must be met in order to transition to the given state\n   * @param state state\n   */\n  function getPreconditionsForState(bytes32 state) public view override returns (bytes4[] memory) {\n    bytes4[] memory preConditions;\n\n    if (\n      state == STATE_SUBMITTED ||\n      state == STATE_SUBMITTED_WITH_EXCEPTION ||\n      state == STATE_NEEDS_UPDATE ||\n      state == STATE_REJECTED\n    ) {\n      preConditions = new bytes4[](1);\n      preConditions[0] = this.canBeSubmitted.selector;\n    }\n\n    return preConditions;\n  }\n\n  /**\n   * @notice Returns method signatures for functions that will get called after transitioning to the given state\n   * @param state state\n   */\n  function getCallbacksForState(bytes32 state) public view override returns (bytes4[] memory) {}\n\n  /**\n   * @notice Returns method signatures for functions that need to be called before transitioning to the given state\n   * @param state state\n   */\n  function getPreFunctionForState(bytes32 state) public pure override returns (bytes4) {}\n\n  //////\n  // UI Field Definition Functions\n  //////\n\n  /**\n   * @notice Set the UI field definition hash\n   * @param uiFieldDefinitionsHash IPFS hash containing the UI field definitions JSON\n   */\n  function setUIFieldDefinitionsHash(string memory uiFieldDefinitionsHash)\n    public\n    override\n    authWithCustomReason(UPDATE_UIFIELDDEFINITIONS_ROLE, 'Sender needs UPDATE_UIFIELDDEFINITIONS_ROLE')\n  {\n    _uiFieldDefinitionsHash = uiFieldDefinitionsHash;\n  }\n\n  /**\n   * @notice Returns the UI field definition hash\n   */\n  function getUIFieldDefinitionsHash() public view override returns (string memory) {\n    return _uiFieldDefinitionsHash;\n  }\n\n  //////\n  // Factory Functions\n  //////\n\n  /**\n   * @notice Create a new statemachine\n   * @param amount expense amount\n   * @param proof IPFS hash of the proof\n   * @param settlement settlement method (Bank or Cash)\n   * @param ipfsFieldContainerHash IPFS hash of the metadata fields\n   * @param owner expense owner\n   */\n  function create(\n    uint256 amount,\n    string memory proof,\n    string memory settlement,\n    string memory ipfsFieldContainerHash,\n    address owner\n  ) public authWithCustomReason(CREATE_STATEMACHINE_ROLE, 'Sender needs CREATE_STATEMACHINE_ROLE') {\n    _registry.push();\n    StateMachine storage sm = _registry[_registry.length - 1];\n    sm.currentState = initialState();\n    sm.createdAt = block.timestamp;\n    sm.index = _registry.length - 1;\n\n    _meta.push();\n    StateMachineMeta storage meta = _meta[_meta.length - 1];\n    meta.amount = amount;\n    meta.proof = proof;\n    meta.settlement = settlement;\n    meta.ipfsFieldContainerHash = ipfsFieldContainerHash;\n    meta.owner = owner;\n    meta.DID = generateDID(_meta.length - 1);\n\n    _index.push();\n    _index[_index.length - 1] = meta.DID;\n\n    emit ExpenseCreated(sm.index, owner, _upgradeableRegistry);\n  }\n\n  /**\n   * @notice Edit an existing statemachine\n   * @param fsmIndex registry index of the statemachine struct\n   * @param amount expense amount\n   * @param proof IPFS hash of the proof\n   * @param settlement settlement method (Bank or Cash)\n   * @param callForTenders IPFS hash of the call for tenders document\n   * @param ipfsFieldContainerHash IPFS hash of the metadata fields\n   */\n  function edit(\n    uint256 fsmIndex,\n    uint256 amount,\n    string memory proof,\n    string memory settlement,\n    string memory callForTenders,\n    string memory ipfsFieldContainerHash\n  )\n    public\n    authManyWithCustomReason(_canEdit, 'Edit requires one of roles: ROLE_ADMIN, ROLE_CFP, ROLE_OB, ROLE_VDB')\n    doesStateMachineExists(fsmIndex)\n    checkAllowedFunction(_registry[fsmIndex].currentState)\n  {\n    // Verify input (copy paste of validations  we perform in the factory)\n    require(amount > 0, 'The amount of an expense cannot be zero');\n    require(bytes(proof).length > 0, 'A proof file is required for all expenses');\n\n    // Verify input (trigger verifications that were done from REVIEWED -> SUBMITTED)\n    canBeSubmitted(fsmIndex, _registry[fsmIndex].currentState, STATE_SUBMITTED);\n\n    if (amount != _meta[fsmIndex].amount) {\n      emit AmountChanged(msg.sender, _meta[fsmIndex].amount, amount);\n    }\n\n    if (uint256(keccak256(abi.encodePacked(proof))) != uint256(keccak256(abi.encodePacked(_meta[fsmIndex].proof)))) {\n      emit ProofChanged(msg.sender, _meta[fsmIndex].proof, proof);\n    }\n\n    _meta[fsmIndex].amount = amount;\n    _meta[fsmIndex].proof = proof;\n    _meta[fsmIndex].settlement = settlement;\n    _meta[fsmIndex].callForTenders = callForTenders;\n    _meta[fsmIndex].ipfsFieldContainerHash = ipfsFieldContainerHash;\n\n    transitionState(fsmIndex, STATE_REVIEWED);\n  }\n\n  function canEdit() public view returns (bytes32[] memory) {\n    return _canEdit;\n  }\n\n  //////\n  // Syncable Functions\n  //////\n\n  /**\n   * @notice Returns the structs composing a statemachine for given index\n   * @param fsmIndex state machine index\n   */\n  function getByIndex(uint256 fsmIndex) public view returns (StateMachine memory item, StateMachineMeta memory meta) {\n    item = _registry[fsmIndex];\n    meta = _meta[fsmIndex];\n  }\n\n  /**\n   * @notice Returns all state machines structs in a single fetch\n   */\n  function getContents() public view returns (StateMachine[] memory registry, StateMachineMeta[] memory meta) {\n    registry = _registry;\n    meta = _meta;\n  }\n\n  /**\n   * @notice Returns the (DID) index\n   */\n  function getIndex() public view returns (string[] memory index) {\n    return _index;\n  }\n\n  //////\n  // Expense Functions\n  //////\n\n  /**\n   * @notice Set rejection reason for STATE_NEEDS_UPDATE\n   * @param fsmIndex state machine index\n   * @param rejectionReason reason for rejection\n   */\n  function setNeedsUpdateRejectionReason(uint256 fsmIndex, string memory rejectionReason)\n    public\n    doesStateMachineExists(fsmIndex)\n    checkAllowedFunction(_registry[fsmIndex].currentState)\n  {\n    setRejectionReason(fsmIndex, rejectionReason, STATE_NEEDS_UPDATE);\n  }\n\n  /**\n   * @notice Set rejection reason for STATE_REJECTED\n   * @param fsmIndex state machine index\n   * @param rejectionReason reason for rejection\n   */\n  function setRejectedRejectionReason(uint256 fsmIndex, string memory rejectionReason)\n    public\n    doesStateMachineExists(fsmIndex)\n    checkAllowedFunction(_registry[fsmIndex].currentState)\n  {\n    setRejectionReason(fsmIndex, rejectionReason, STATE_REJECTED);\n  }\n\n  /**\n   * @notice Set a rejection reason document IPFS hash and transition to the given next state\n   * @param fsmIndex state machine index\n   * @param rejectionReason IPFS hash of the rejection reason document\n   * @param nextState next state to transition to\n   */\n  function setRejectionReason(\n    uint256 fsmIndex,\n    string memory rejectionReason,\n    bytes32 nextState\n  ) private doesStateMachineExists(fsmIndex) {\n    StateMachineMeta storage meta = _meta[fsmIndex];\n    bytes memory bytesRejectionReason = bytes(rejectionReason);\n    require(bytesRejectionReason.length > 0, 'The rejection reason is required');\n    meta.reasonForRejection = rejectionReason;\n    transitionState(fsmIndex, nextState);\n  }\n\n  /**\n   * @notice Add call for tenders IPFS hash\n   * @param fsmIndex state machine index\n   * @param callForTenders IPFS hash of the call for tenders document\n   */\n  function addCallForTendersDocumentation(uint256 fsmIndex, string memory callForTenders)\n    public\n    doesStateMachineExists(fsmIndex)\n    checkAllowedFunction(_registry[fsmIndex].currentState)\n  {\n    bytes memory bytesCallForTenders = bytes(callForTenders);\n    require(bytesCallForTenders.length > 0, 'You need to enter a call for tenders document');\n\n    StateMachineMeta storage meta = _meta[fsmIndex];\n    meta.callForTenders = callForTenders;\n  }\n\n  /**\n   * @notice Add tender response document IPFS hash\n   * @param fsmIndex state machine index\n   * @param tenderResponse IPFS hash of the tender response document\n   */\n  function addTenderResponse(uint256 fsmIndex, string memory tenderResponse)\n    public\n    doesStateMachineExists(fsmIndex)\n    checkAllowedFunction(_registry[fsmIndex].currentState)\n  {\n    bytes memory bytesTenderResponse = bytes(tenderResponse);\n    require(bytesTenderResponse.length > 0, 'You need to enter a call for tenders response document');\n\n    StateMachineMeta storage meta = _meta[fsmIndex];\n    meta.tenderResponses.push(tenderResponse);\n  }\n\n  /**\n   * @notice Add tender selection document IPFS hash\n   * @param fsmIndex state machine index\n   * @param tenderSelectionArgumentation IPFS hash of the tender selection document\n   */\n  function addTenderSelectionArgumentation(uint256 fsmIndex, string memory tenderSelectionArgumentation)\n    public\n    doesStateMachineExists(fsmIndex)\n    checkAllowedFunction(_registry[fsmIndex].currentState)\n  {\n    bytes memory bytesTenderSelectionArgumentation = bytes(tenderSelectionArgumentation);\n    require(bytesTenderSelectionArgumentation.length > 0, 'You need to enter a tender selection document');\n\n    StateMachineMeta storage meta = _meta[fsmIndex];\n    meta.tenderSelectionArgumentation = tenderSelectionArgumentation;\n  }\n\n  /**\n   * @notice Add revisor comment document IPFS hash\n   * @param fsmIndex state machine index\n   * @param revisorComment IPFS hash of the revisor comment document\n   */\n  function recordRevisorComment(uint256 fsmIndex, string memory revisorComment)\n    public\n    doesStateMachineExists(fsmIndex)\n    checkAllowedFunction(_registry[fsmIndex].currentState)\n  {\n    bytes memory bytesRevisorComment = bytes(revisorComment);\n    require(bytesRevisorComment.length > 0, 'You need to enter a revisor comment document');\n\n    StateMachineMeta storage meta = _meta[fsmIndex];\n    meta.revisorComment = revisorComment;\n  }\n\n  /**\n   * @notice Returns whether an expense can be submitted or not\n   * @param fsmIndex state machine index\n   * @param toState state where we are transitioning to\n   * @dev This is a precondition function\n   */\n  function canBeSubmitted(\n    uint256 fsmIndex,\n    bytes32, /* fromState */\n    bytes32 toState\n  ) public view doesStateMachineExists(fsmIndex) {\n    StateMachineMeta storage meta = _meta[fsmIndex];\n\n    if (toState == STATE_SUBMITTED) {\n      require(meta.amount > 0, 'The amount of an expense cannot be zero');\n      if (meta.amount > 850000) {\n        bytes memory callForTenders = bytes(meta.callForTenders);\n        require(\n          callForTenders.length > 0,\n          'Since the amount of the expense is over 8500 euro, you need to upload a call for tenders'\n        );\n        bytes memory tenderSelectionArgumentation = bytes(meta.tenderSelectionArgumentation);\n        require(\n          tenderSelectionArgumentation.length > 0,\n          'Since the amount of the expense is over 8500 euro, you need to upload the reasons for selecting a tender'\n        );\n        require(\n          meta.tenderResponses.length >= 3,\n          'Since the amount of the expense is over 8500 euro, you need to upload at least three tender responses'\n        );\n      }\n\n      if (uint256(keccak256(abi.encodePacked(meta.settlement))) == uint256(keccak256(abi.encodePacked('Cash')))) {\n        require(meta.amount <= 300000, 'Cash expenses need to be less or equal than 3000 euro ');\n      }\n    }\n  }\n\n  /**\n   * @notice Returns whether an expense has a rejection reason set\n   * @param fsmIndex state machine index\n   * @dev This is a precondition function\n   */\n  function hasRejectionReason(\n    uint256 fsmIndex,\n    bytes32, /* fromState */\n    bytes32 /*toState*/\n  ) internal view doesStateMachineExists(fsmIndex) {\n    StateMachineMeta storage meta = _meta[fsmIndex];\n    bytes memory reasonForRejection = bytes(meta.reasonForRejection);\n    require(reasonForRejection.length > 0, 'A reason for a rejection is required');\n  }\n\n  /**\n   * @notice Returns the preconditions for given state\n   * @param state state\n   * @dev Internal helper function that returns actual function pointers so a method can\n   * loop those and effectively call the precondition function\n   */\n  function getPreconditionFunctionsForState(bytes32 state)\n    internal\n    view\n    override\n    returns (function(uint256, bytes32, bytes32) view[] memory)\n  {\n    function(uint256, bytes32, bytes32) internal view[] memory preConditions;\n\n    if (state == STATE_SUBMITTED || state == STATE_SUBMITTED_WITH_EXCEPTION) {\n      preConditions = new function(uint256, bytes32, bytes32) internal view[](1);\n      preConditions[0] = canBeSubmitted;\n    }\n\n    if (state == STATE_NEEDS_UPDATE || state == STATE_REJECTED) {\n      preConditions = new function(uint256, bytes32, bytes32) internal view[](1);\n      preConditions[0] = canBeSubmitted;\n    }\n\n    return preConditions;\n  }\n\n  /**\n   * @notice Returns the callbacks for given state\n   * @param state state\n   * @dev Internal helper function that returns actual function pointers so a method can\n   * loop those and effectively call the callback function\n   */\n  function getCallbackFunctionsForState(bytes32 state)\n    internal\n    override\n    returns (function(uint256, bytes32, bytes32) internal[] memory)\n  {}\n\n  //////\n  // Helper Functions\n  //////\n\n  /**\n   * @notice Generate state machine DID\n   * @param fsmIndex state machine index\n   */\n  function generateDID(uint256 fsmIndex) internal view returns (string memory) {\n    return string(abi.encodePacked('did:vdb:expense:0x', addressToString(address(this)), ':', uintToString(fsmIndex)));\n  }\n}\n",
  "sourcePath": "/home/coder/project/contracts/expense/Expense.sol",
  "compiler": {
    "name": "solc",
    "version": "0.8.3+commit.8d00100c.Emscripten.clang"
  },
  "schemaVersion": "3.4.3",
  "updatedAt": "2021-09-21T08:24:03.749Z",
  "networkType": "ethereum",
  "devdoc": {
    "kind": "dev",
    "methods": {
      "addCallForTendersDocumentation(uint256,string)": {
        "params": {
          "callForTenders": "IPFS hash of the call for tenders document",
          "fsmIndex": "state machine index"
        }
      },
      "addTenderResponse(uint256,string)": {
        "params": {
          "fsmIndex": "state machine index",
          "tenderResponse": "IPFS hash of the tender response document"
        }
      },
      "addTenderSelectionArgumentation(uint256,string)": {
        "params": {
          "fsmIndex": "state machine index",
          "tenderSelectionArgumentation": "IPFS hash of the tender selection document"
        }
      },
      "canBeSubmitted(uint256,bytes32,bytes32)": {
        "details": "This is a precondition function",
        "params": {
          "fsmIndex": "state machine index",
          "toState": "state where we are transitioning to"
        }
      },
      "create(uint256,string,string,string,address)": {
        "params": {
          "amount": "expense amount",
          "ipfsFieldContainerHash": "IPFS hash of the metadata fields",
          "owner": "expense owner",
          "proof": "IPFS hash of the proof",
          "settlement": "settlement method (Bank or Cash)"
        }
      },
      "edit(uint256,uint256,string,string,string,string)": {
        "params": {
          "amount": "expense amount",
          "callForTenders": "IPFS hash of the call for tenders document",
          "fsmIndex": "registry index of the statemachine struct",
          "ipfsFieldContainerHash": "IPFS hash of the metadata fields",
          "proof": "IPFS hash of the proof",
          "settlement": "settlement method (Bank or Cash)"
        }
      },
      "getAllowedFunctionsForState(bytes32)": {
        "params": {
          "state": "state"
        }
      },
      "getAllowedRolesForState(bytes32)": {
        "params": {
          "state": "state"
        }
      },
      "getByIndex(uint256)": {
        "params": {
          "fsmIndex": "state machine index"
        }
      },
      "getCallbacksForState(bytes32)": {
        "params": {
          "state": "state"
        }
      },
      "getIndexLength()": {
        "details": "Returns the length of the state machine registry",
        "returns": {
          "length": "the number of state machines in the registry"
        }
      },
      "getNextStatesForState(bytes32)": {
        "params": {
          "state": "state"
        }
      },
      "getPreFunctionForState(bytes32)": {
        "params": {
          "state": "state"
        }
      },
      "getPreconditionsForState(bytes32)": {
        "params": {
          "state": "state"
        }
      },
      "recordRevisorComment(uint256,string)": {
        "params": {
          "fsmIndex": "state machine index",
          "revisorComment": "IPFS hash of the revisor comment document"
        }
      },
      "setNeedsUpdateRejectionReason(uint256,string)": {
        "params": {
          "fsmIndex": "state machine index",
          "rejectionReason": "reason for rejection"
        }
      },
      "setRejectedRejectionReason(uint256,string)": {
        "params": {
          "fsmIndex": "state machine index",
          "rejectionReason": "reason for rejection"
        }
      },
      "setUIFieldDefinitionsHash(string)": {
        "params": {
          "uiFieldDefinitionsHash": "IPFS hash containing the UI field definitions JSON"
        }
      },
      "transitionState(uint256,bytes32)": {
        "details": "Ensures predefined transition criteria are met before transitioning to a new state. Executes callbacks. Emits a Transition event after a successful transition.",
        "params": {
          "fsmIndex": "registry index of the transitioning state machine",
          "toState": "identifier of the state to transition to"
        }
      }
    },
    "stateVariables": {
      "ROLE_ADMIN": {
        "details": "Role Constants"
      },
      "STATE_DRAFT": {
        "details": "State Constants DRAFT = the expense is added, possibly with missing info SUBMITTED = submitted to the OB for review, all precoditions are met SUBMITTED_WITH_EXCEPTION = submitted expense does not meet all preconditions REVIEWED = the OB has reviewed the invoice NEEDS_UPDATE = the OB has sent the invoice back to the CFP for modification APPROVED = VDB approves the invoice out of REVIEWED REJECTED = VDB (or DGD) rejects the invoice out of reviewed (a comment is required) FORCE_APPROVED = VDB approves the invoice out of REVIEWED even of it is not ok"
      },
      "_allRoles": {
        "details": "Expense roles"
      },
      "_canEdit": {
        "details": "Expense helper role collection specifies anyone who can edit an exponse"
      },
      "_index": {
        "details": "The index is a collection of DIDs for every state machine in the registry Usually the getIndex call returns a list of contract addresses however as FSMs are uniquely identified by their DID we return those instead"
      },
      "_meta": {
        "details": "StateMachineMeta contains meta data for every StateMachine - seeing as struct are not composable and the base StateMachine struct is defined in the FiniteStateMachine abstract there's no other way to compose structs than having two separte arrays where the indices match.Mint is aware of the above and will zip these two into a single struct so statemachines from the outside will look as a composition of both StateMachine and StateMachineMeta structs."
      },
      "_upgradeableRegistry": {
        "details": "The address of the upgradeable registry this contract belongs to. Note that both this property together with the UPGRADEABLE_REGISTRY_TARGET const define a contract that is part of an upgradeable registry and provides the link to the registry if required."
      }
    },
    "title": "Expense Contract",
    "version": 1
  },
  "userdoc": {
    "events": {
      "ExpenseCreated(uint256,address,address)": {
        "notice": "Expense Events"
      }
    },
    "kind": "user",
    "methods": {
      "_allStates(uint256)": {
        "notice": "Expense states"
      },
      "addCallForTendersDocumentation(uint256,string)": {
        "notice": "Add call for tenders IPFS hash"
      },
      "addTenderResponse(uint256,string)": {
        "notice": "Add tender response document IPFS hash"
      },
      "addTenderSelectionArgumentation(uint256,string)": {
        "notice": "Add tender selection document IPFS hash"
      },
      "allRoles()": {
        "notice": "Returns all possible roles"
      },
      "allStates()": {
        "notice": "Returns all possible states"
      },
      "canBeSubmitted(uint256,bytes32,bytes32)": {
        "notice": "Returns whether an expense can be submitted or not"
      },
      "create(uint256,string,string,string,address)": {
        "notice": "Create a new statemachine"
      },
      "edit(uint256,uint256,string,string,string,string)": {
        "notice": "Edit an existing statemachine"
      },
      "getAllowedFunctionsForState(bytes32)": {
        "notice": "Returns method signatures for functions which are allowed to execute in the given state"
      },
      "getAllowedRolesForState(bytes32)": {
        "notice": "Retrieve all roles that are allowed to move it to the given state"
      },
      "getByIndex(uint256)": {
        "notice": "Returns the structs composing a statemachine for given index"
      },
      "getCallbacksForState(bytes32)": {
        "notice": "Returns method signatures for functions that will get called after transitioning to the given state"
      },
      "getContents()": {
        "notice": "Returns all state machines structs in a single fetch"
      },
      "getIndex()": {
        "notice": "Returns the (DID) index"
      },
      "getIndexLength()": {
        "notice": "Returns the length of the state machine registry"
      },
      "getNextStatesForState(bytes32)": {
        "notice": "Retrieve all possible next states for a certain state"
      },
      "getPreFunctionForState(bytes32)": {
        "notice": "Returns method signatures for functions that need to be called before transitioning to the given state"
      },
      "getPreconditionsForState(bytes32)": {
        "notice": "Returns method signatures for functions that act as preconditions that must be met in order to transition to the given state"
      },
      "getUIFieldDefinitionsHash()": {
        "notice": "Returns the UI field definition hash"
      },
      "initialState()": {
        "notice": "Returns initial state"
      },
      "recordRevisorComment(uint256,string)": {
        "notice": "Add revisor comment document IPFS hash"
      },
      "setNeedsUpdateRejectionReason(uint256,string)": {
        "notice": "Set rejection reason for STATE_NEEDS_UPDATE"
      },
      "setRejectedRejectionReason(uint256,string)": {
        "notice": "Set rejection reason for STATE_REJECTED"
      },
      "setUIFieldDefinitionsHash(string)": {
        "notice": "Set the UI field definition hash"
      },
      "transitionState(uint256,bytes32)": {
        "notice": "Transitions a state machine to a new state"
      }
    },
    "version": 1
  }
}