{
  "contractName": "FileFieldContainer",
  "abi": [
    {
      "inputs": [
        {
          "internalType": "bytes32",
          "name": "key",
          "type": "bytes32"
        },
        {
          "internalType": "string",
          "name": "file",
          "type": "string"
        }
      ],
      "name": "setContractFile",
      "outputs": [],
      "stateMutability": "nonpayable",
      "type": "function"
    }
  ],
  "bytecode": "0x608060405234801561001057600080fd5b506102a0806100206000396000f3fe608060405234801561001057600080fd5b506004361061002b5760003560e01c8063f4a979a314610030575b600080fd5b61004361003e366004610163565b610045565b005b60008281526001602052604090205460ff166100a65760008054600181810183557f290decd9548b62a8d60345a988386fc84ba6bc95484008f6362f93160ef3e56390910184905583825260208190526040909120805460ff191690911790555b600082815260026020908152604090912082516100c5928401906100ca565b505050565b8280546100d690610219565b90600052602060002090601f0160209004810192826100f8576000855561013e565b82601f1061011157805160ff191683800117855561013e565b8280016001018555821561013e579182015b8281111561013e578251825591602001919060010190610123565b5061014a92915061014e565b5090565b5b8082111561014a576000815560010161014f565b60008060408385031215610175578182fd5b82359150602083013567ffffffffffffffff80821115610193578283fd5b818501915085601f8301126101a6578283fd5b8135818111156101b8576101b8610254565b604051601f8201601f19908116603f011681019083821181831017156101e0576101e0610254565b816040528281528860208487010111156101f8578586fd5b82602086016020830137856020848301015280955050505050509250929050565b600181811c9082168061022d57607f821691505b6020821081141561024e57634e487b7160e01b600052602260045260246000fd5b50919050565b634e487b7160e01b600052604160045260246000fdfea2646970667358221220cc43ec64135259006ee54d9800faf9f09b5a8d0401f61c211e3031919398935064736f6c63430008030033",
  "immutableReferences": {},
  "source": "// SPDX-License-Identifier: UNLICENSED\n/**\n * Copyright (C) SettleMint NV - All Rights Reserved\n *\n * Use of this file is strictly prohibited without an active license agreement.\n * Distribution of this file, via any medium, is strictly prohibited.\n *\n * For license inquiries, contact hello@settlemint.com\n */\n\npragma solidity ^0.8.0;\n\ncontract FileFieldContainer {\n  bytes32[] internal _fileKeys;\n  mapping(bytes32 => bool) internal _knownFileKeys;\n  mapping(bytes32 => string) internal _fileFieldsMap;\n\n  function setContractFile(bytes32 key, string memory file) public {\n    if (!_knownFileKeys[key]) {\n      _fileKeys.push(key);\n      _knownFileKeys[key] = true;\n    }\n\n    _fileFieldsMap[key] = file;\n  }\n}\n",
  "sourcePath": "/home/coder/project/contracts/_library/utility/metadata/FileFieldContainer.sol",
  "compiler": {
    "name": "solc",
    "version": "0.8.3+commit.8d00100c.Emscripten.clang"
  },
  "schemaVersion": "3.4.1",
  "updatedAt": "2021-08-03T10:03:35.235Z",
  "devdoc": {
    "kind": "dev",
    "methods": {},
    "version": 1
  },
  "userdoc": {
    "kind": "user",
    "methods": {},
    "version": 1
  }
}