{
  "contractName": "FiniteStateMachineImpl",
  "abi": [
    {
      "inputs": [
        {
          "internalType": "address",
          "name": "gateKeeper",
          "type": "address"
        }
      ],
      "stateMutability": "nonpayable",
      "type": "constructor"
    },
    {
      "anonymous": false,
      "inputs": [
        {
          "indexed": false,
          "internalType": "uint256",
          "name": "index",
          "type": "uint256"
        },
        {
          "indexed": false,
          "internalType": "address",
          "name": "sender",
          "type": "address"
        },
        {
          "indexed": false,
          "internalType": "bytes32",
          "name": "fromState",
          "type": "bytes32"
        },
        {
          "indexed": false,
          "internalType": "bytes32",
          "name": "toState",
          "type": "bytes32"
        }
      ],
      "name": "StateTransition",
      "type": "event"
    },
    {
      "inputs": [],
      "name": "FINITE_STATE_MACHINE",
      "outputs": [
        {
          "internalType": "bytes32",
          "name": "",
          "type": "bytes32"
        }
      ],
      "stateMutability": "view",
      "type": "function"
    },
    {
      "inputs": [],
      "name": "STATE_CREATED",
      "outputs": [
        {
          "internalType": "bytes32",
          "name": "",
          "type": "bytes32"
        }
      ],
      "stateMutability": "view",
      "type": "function"
    },
    {
      "inputs": [
        {
          "internalType": "uint256",
          "name": "",
          "type": "uint256"
        }
      ],
      "name": "_allRoles",
      "outputs": [
        {
          "internalType": "bytes32",
          "name": "",
          "type": "bytes32"
        }
      ],
      "stateMutability": "view",
      "type": "function"
    },
    {
      "inputs": [
        {
          "internalType": "uint256",
          "name": "",
          "type": "uint256"
        }
      ],
      "name": "_allStates",
      "outputs": [
        {
          "internalType": "bytes32",
          "name": "",
          "type": "bytes32"
        }
      ],
      "stateMutability": "view",
      "type": "function"
    },
    {
      "inputs": [],
      "name": "gateKeeper",
      "outputs": [
        {
          "internalType": "contract GateKeeper",
          "name": "",
          "type": "address"
        }
      ],
      "stateMutability": "view",
      "type": "function"
    },
    {
      "inputs": [],
      "name": "getIndexLength",
      "outputs": [
        {
          "internalType": "uint256",
          "name": "length",
          "type": "uint256"
        }
      ],
      "stateMutability": "view",
      "type": "function"
    },
    {
      "inputs": [
        {
          "internalType": "uint256",
          "name": "fsmIndex",
          "type": "uint256"
        },
        {
          "internalType": "bytes32",
          "name": "toState",
          "type": "bytes32"
        }
      ],
      "name": "transitionState",
      "outputs": [],
      "stateMutability": "nonpayable",
      "type": "function"
    },
    {
      "inputs": [],
      "name": "initialState",
      "outputs": [
        {
          "internalType": "bytes32",
          "name": "",
          "type": "bytes32"
        }
      ],
      "stateMutability": "pure",
      "type": "function"
    },
    {
      "inputs": [],
      "name": "allStates",
      "outputs": [
        {
          "internalType": "bytes32[]",
          "name": "",
          "type": "bytes32[]"
        }
      ],
      "stateMutability": "view",
      "type": "function"
    },
    {
      "inputs": [],
      "name": "allRoles",
      "outputs": [
        {
          "internalType": "bytes32[]",
          "name": "",
          "type": "bytes32[]"
        }
      ],
      "stateMutability": "view",
      "type": "function"
    },
    {
      "inputs": [
        {
          "internalType": "bytes32",
          "name": "state",
          "type": "bytes32"
        }
      ],
      "name": "getNextStatesForState",
      "outputs": [
        {
          "internalType": "bytes32[]",
          "name": "",
          "type": "bytes32[]"
        }
      ],
      "stateMutability": "view",
      "type": "function"
    },
    {
      "inputs": [
        {
          "internalType": "bytes32",
          "name": "state",
          "type": "bytes32"
        }
      ],
      "name": "getAllowedRolesForState",
      "outputs": [
        {
          "internalType": "bytes32[]",
          "name": "",
          "type": "bytes32[]"
        }
      ],
      "stateMutability": "view",
      "type": "function"
    },
    {
      "inputs": [
        {
          "internalType": "bytes32",
          "name": "state",
          "type": "bytes32"
        }
      ],
      "name": "getAllowedFunctionsForState",
      "outputs": [
        {
          "internalType": "bytes4[]",
          "name": "",
          "type": "bytes4[]"
        }
      ],
      "stateMutability": "view",
      "type": "function"
    },
    {
      "inputs": [
        {
          "internalType": "bytes32",
          "name": "state",
          "type": "bytes32"
        }
      ],
      "name": "getPreconditionsForState",
      "outputs": [
        {
          "internalType": "bytes4[]",
          "name": "",
          "type": "bytes4[]"
        }
      ],
      "stateMutability": "view",
      "type": "function"
    },
    {
      "inputs": [
        {
          "internalType": "bytes32",
          "name": "state",
          "type": "bytes32"
        }
      ],
      "name": "getCallbacksForState",
      "outputs": [
        {
          "internalType": "bytes4[]",
          "name": "",
          "type": "bytes4[]"
        }
      ],
      "stateMutability": "view",
      "type": "function"
    },
    {
      "inputs": [
        {
          "internalType": "bytes32",
          "name": "state",
          "type": "bytes32"
        }
      ],
      "name": "getPreFunctionForState",
      "outputs": [
        {
          "internalType": "bytes4",
          "name": "",
          "type": "bytes4"
        }
      ],
      "stateMutability": "pure",
      "type": "function"
    },
    {
      "inputs": [
        {
          "internalType": "uint256",
          "name": "amount",
          "type": "uint256"
        },
        {
          "internalType": "string",
          "name": "proof",
          "type": "string"
        },
        {
          "internalType": "string",
          "name": "ipfsFieldContainerHash",
          "type": "string"
        }
      ],
      "name": "create",
      "outputs": [],
      "stateMutability": "nonpayable",
      "type": "function"
    },
    {
      "inputs": [
        {
          "internalType": "uint256",
          "name": "index",
          "type": "uint256"
        }
      ],
      "name": "getByIndex",
      "outputs": [
        {
          "components": [
            {
              "internalType": "uint256",
              "name": "index",
              "type": "uint256"
            },
            {
              "internalType": "bytes32",
              "name": "currentState",
              "type": "bytes32"
            },
            {
              "components": [
                {
                  "internalType": "bytes32",
                  "name": "fromState",
                  "type": "bytes32"
                },
                {
                  "internalType": "bytes32",
                  "name": "toState",
                  "type": "bytes32"
                },
                {
                  "internalType": "address",
                  "name": "actor",
                  "type": "address"
                },
                {
                  "internalType": "uint256",
                  "name": "timestamp",
                  "type": "uint256"
                }
              ],
              "internalType": "struct FiniteStateMachine.Transition[]",
              "name": "transitions",
              "type": "tuple[]"
            },
            {
              "internalType": "uint256",
              "name": "createdAt",
              "type": "uint256"
            }
          ],
          "internalType": "struct FiniteStateMachine.StateMachine",
          "name": "item",
          "type": "tuple"
        },
        {
          "components": [
            {
              "internalType": "uint256",
              "name": "index",
              "type": "uint256"
            },
            {
              "internalType": "uint256",
              "name": "amount",
              "type": "uint256"
            },
            {
              "internalType": "string",
              "name": "proof",
              "type": "string"
            },
            {
              "internalType": "string",
              "name": "ipfsFieldContainerHash",
              "type": "string"
            }
          ],
          "internalType": "struct FiniteStateMachineImpl.StateMachineMeta",
          "name": "meta",
          "type": "tuple"
        }
      ],
      "stateMutability": "view",
      "type": "function"
    },
    {
      "inputs": [],
      "name": "getContents",
      "outputs": [
        {
          "components": [
            {
              "internalType": "uint256",
              "name": "index",
              "type": "uint256"
            },
            {
              "internalType": "bytes32",
              "name": "currentState",
              "type": "bytes32"
            },
            {
              "components": [
                {
                  "internalType": "bytes32",
                  "name": "fromState",
                  "type": "bytes32"
                },
                {
                  "internalType": "bytes32",
                  "name": "toState",
                  "type": "bytes32"
                },
                {
                  "internalType": "address",
                  "name": "actor",
                  "type": "address"
                },
                {
                  "internalType": "uint256",
                  "name": "timestamp",
                  "type": "uint256"
                }
              ],
              "internalType": "struct FiniteStateMachine.Transition[]",
              "name": "transitions",
              "type": "tuple[]"
            },
            {
              "internalType": "uint256",
              "name": "createdAt",
              "type": "uint256"
            }
          ],
          "internalType": "struct FiniteStateMachine.StateMachine[]",
          "name": "registry",
          "type": "tuple[]"
        },
        {
          "components": [
            {
              "internalType": "uint256",
              "name": "index",
              "type": "uint256"
            },
            {
              "internalType": "uint256",
              "name": "amount",
              "type": "uint256"
            },
            {
              "internalType": "string",
              "name": "proof",
              "type": "string"
            },
            {
              "internalType": "string",
              "name": "ipfsFieldContainerHash",
              "type": "string"
            }
          ],
          "internalType": "struct FiniteStateMachineImpl.StateMachineMeta[]",
          "name": "meta",
          "type": "tuple[]"
        }
      ],
      "stateMutability": "view",
      "type": "function"
    }
  ],
  "bytecode": "0x60a06040526c14d510551157d0d49150551151609a1b60809081526200002a90600290600162000081565b503480156200003857600080fd5b506040516200151b3803806200151b8339810160408190526200005b91620000e8565b600080546001600160a01b0319166001600160a01b039290921691909117905562000118565b828054828255906000526020600020908101928215620000bf579160200282015b82811115620000bf578251825591602001919060010190620000a2565b50620000cd929150620000d1565b5090565b5b80821115620000cd5760008155600101620000d2565b600060208284031215620000fa578081fd5b81516001600160a01b038116811462000111578182fd5b9392505050565b6113f380620001286000396000f3fe608060405234801561001057600080fd5b50600436106101215760003560e01c8063747f0642116100ad578063c4f10f3d11610071578063c4f10f3d1461022b578063d143d0051461026d578063dc834a731461028b578063e1ba7d011461029e578063fd95caa4146102a657610121565b8063747f06421461022b5780637dcbe4351461024657806385fda2dc146101df5780638baba52a1461024e578063a8257e7a1461025657610121565b80634c86a555116100f45780634c86a555146101be5780634c9be933146101df578063590fa6f8146102005780635a4463a81461021657806367b06eac146101df57610121565b806323677ae2146101265780632d883a7314610145578063412db2ad1461016657806345d61ded14610193575b600080fd5b61012e6102b9565b60405161013c929190611249565b60405180910390f35b610158610153366004610ff6565b610554565b60405161013c9291906112ff565b61017a610174366004610ff6565b50600090565b6040516001600160e01b0319909116815260200161013c565b6000546101a6906001600160a01b031681565b6040516001600160a01b03909116815260200161013c565b6101d16101cc366004610ff6565b61080a565b60405190815260200161013c565b6101f36101ed366004610ff6565b50606090565b60405161013c9190611207565b6c14d510551157d0d49150551151609a1b6101d1565b61022961022436600461102f565b61082b565b005b6102396101ed366004610ff6565b60405161013c91906111c3565b610239610941565b610239610999565b6101d16c14d510551157d0d49150551151609a1b81565b6101d17346494e4954455f53544154455f4d414348494e4560601b81565b6101d1610299366004610ff6565b6109ef565b6001546101d1565b6102296102b436600461100e565b6109ff565b6060806001805480602002602001604051908101604052809291908181526020016000905b828210156103b85783829060005260206000209060040201604051806080016040529081600082015481526020016001820154815260200160028201805480602002602001604051908101604052809291908181526020016000905b828210156103975760008481526020908190206040805160808101825260048602909201805483526001808201548486015260028201546001600160a01b031692840192909252600301546060830152908352909201910161033a565b505050508152602001600382015481525050815260200190600101906102de565b5050505091506004805480602002602001604051908101604052809291908181526020016000905b8282101561054a578382906000526020600020906004020160405180608001604052908160008201548152602001600182015481526020016002820180546104279061133b565b80601f01602080910402602001604051908101604052809291908181526020018280546104539061133b565b80156104a05780601f10610475576101008083540402835291602001916104a0565b820191906000526020600020905b81548152906001019060200180831161048357829003601f168201915b505050505081526020016003820180546104b99061133b565b80601f01602080910402602001604051908101604052809291908181526020018280546104e59061133b565b80156105325780601f1061050757610100808354040283529160200191610532565b820191906000526020600020905b81548152906001019060200180831161051557829003601f168201915b505050505081525050815260200190600101906103e0565b5050505090509091565b6105826040518060800160405280600081526020016000801916815260200160608152602001600081525090565b6105ad6040518060800160405280600081526020016000815260200160608152602001606081525090565b600183815481106105ce57634e487b7160e01b600052603260045260246000fd5b9060005260206000209060040201604051806080016040529081600082015481526020016001820154815260200160028201805480602002602001604051908101604052809291908181526020016000905b8282101561067d5760008481526020908190206040805160808101825260048602909201805483526001808201548486015260028201546001600160a01b0316928401929092526003015460608301529083529092019101610620565b5050505081526020016003820154815250509150600483815481106106b257634e487b7160e01b600052603260045260246000fd5b906000526020600020906004020160405180608001604052908160008201548152602001600182015481526020016002820180546106ef9061133b565b80601f016020809104026020016040519081016040528092919081815260200182805461071b9061133b565b80156107685780601f1061073d57610100808354040283529160200191610768565b820191906000526020600020905b81548152906001019060200180831161074b57829003601f168201915b505050505081526020016003820180546107819061133b565b80601f01602080910402602001604051908101604052809291908181526020018280546107ad9061133b565b80156107fa5780601f106107cf576101008083540402835291602001916107fa565b820191906000526020600020905b8154815290600101906020018083116107dd57829003601f168201915b5050505050815250509050915091565b6002818154811061081a57600080fd5b600091825260209091200154905081565b60018054810180825560008281529190610846908290611324565b8154811061086457634e487b7160e01b600052603260045260246000fd5b9060005260206000209060040201905061088b6c14d510551157d0d49150551151609a1b90565b60018083019190915542600383015580546108a69190611324565b8155600480546001908101808355600083815292916108c491611324565b815481106108e257634e487b7160e01b600052603260045260246000fd5b9060005260206000209060040201905084816001018190555083816002019080519060200190610913929190610eb6565b5082516109299060038301906020860190610eb6565b5060045461093990600190611324565b905550505050565b6060600380548060200260200160405190810160405280929190818152602001828054801561098f57602002820191906000526020600020905b81548152602001906001019080831161097b575b5050505050905090565b6060600280548060200260200160405190810160405280929190818152602001828054801561098f576020028201919060005260206000209081548152602001906001019080831161097b575050505050905090565b6003818154811061081a57600080fd5b8181610a3d60018381548110610a2557634e487b7160e01b600052603260045260246000fd5b90600052602060002090600402016001015482610ca5565b610a815760405162461bcd60e51b815260206004820152601060248201526f696e76616c696420746f20737461746560801b60448201526064015b60405180910390fd5b610a8a81610d4f565b610ad65760405162461bcd60e51b815260206004820152601f60248201527f7472616e736974696f6e20746f207374617465206e6f7420616c6c6f776564006044820152606401610a78565b610b138260018481548110610afb57634e487b7160e01b600052603260045260246000fd5b90600052602060002090600402016001015483610dc4565b600060018581548110610b3657634e487b7160e01b600052603260045260246000fd5b6000918252602082206004919091020160018101805490879055909250906060905b8151811015610ba957610b97888489858581518110610b8757634e487b7160e01b600052603260045260246000fd5b602002602001015163ffffffff16565b80610ba181611376565b915050610b58565b5060018781548110610bcb57634e487b7160e01b600052603260045260246000fd5b6000918252602080832060408051608080820183528882528185018d81523383850181815242606080870191825260049a8b029098016002908101805460018082018355918e529c8b902097519c909b029096019a8b559251988a0198909855965192880180546001600160a01b0319166001600160a01b0390941693909317909255905160039096019590955580518c8152928301939093529181018590529081018890527fda0ea013b184628ef221c26d3ecdde1c5bbade441ed06a851b724a7ace03c274910160405180910390a150505050505050565b60006060815b8151811015610d475760408051602081018690520160405160208183030381529060405280519060200120828281518110610cf657634e487b7160e01b600052603260045260246000fd5b6020026020010151604051602001610d1091815260200190565b604051602081830303815290604052805190602001201415610d355760019250610d47565b80610d3f81611376565b915050610cab565b505092915050565b6060805160009190610d6057600191505b60005b8151811015610dbd57610d9d33838381518110610d9057634e487b7160e01b600052603260045260246000fd5b6020026020010151610e11565b15610dab5760019250610dbd565b80610db581611376565b915050610d63565b5050919050565b606060005b8151811015610e0a57610df8858585858581518110610b8757634e487b7160e01b600052603260045260246000fd5b80610e0281611376565b915050610dc9565b5050505050565b600080546001600160a01b03161580610eaf5750600054604051630dace25b60e31b81526001600160a01b0385811660048301523060248301526044820185905290911690636d6712d89060640160206040518083038186803b158015610e7757600080fd5b505afa158015610e8b573d6000803e3d6000fd5b505050506040513d601f19601f82011682018060405250810190610eaf9190610fd6565b9392505050565b828054610ec29061133b565b90600052602060002090601f016020900481019282610ee45760008555610f2a565b82601f10610efd57805160ff1916838001178555610f2a565b82800160010185558215610f2a579182015b82811115610f2a578251825591602001919060010190610f0f565b50610f36929150610f3a565b5090565b5b80821115610f365760008155600101610f3b565b600082601f830112610f5f578081fd5b813567ffffffffffffffff80821115610f7a57610f7a6113a7565b604051601f8301601f19908116603f01168101908282118183101715610fa257610fa26113a7565b81604052838152866020858801011115610fba578485fd5b8360208701602083013792830160200193909352509392505050565b600060208284031215610fe7578081fd5b81518015158114610eaf578182fd5b600060208284031215611007578081fd5b5035919050565b60008060408385031215611020578081fd5b50508035926020909101359150565b600080600060608486031215611043578081fd5b83359250602084013567ffffffffffffffff80821115611061578283fd5b61106d87838801610f4f565b93506040860135915080821115611082578283fd5b5061108f86828701610f4f565b9150509250925092565b60008151808452815b818110156110be576020818501810151868301820152016110a2565b818111156110cf5782602083870101525b50601f01601f19169290920160200192915050565b6000815183526020820151602084015260408201516080604085015261110d6080850182611099565b9050606083015184820360608601526111268282611099565b95945050505050565b600060808084018351855260208085015181870152604080860151848289015283815180865260a08a01915084830195508792505b808310156111a9578551805183528581015186840152848101516001600160a01b03168584015260609081015190830152948401946001929092019190860190611164565b50606088015160608a015280965050505050505092915050565b6020808252825182820181905260009190848201906040850190845b818110156111fb578351835292840192918401916001016111df565b50909695505050505050565b6020808252825182820181905260009190848201906040850190845b818110156111fb5783516001600160e01b03191683529284019291840191600101611223565b6000604082016040835280855180835260608501915060608160051b86010192506020808801855b8381101561129f57605f1988870301855261128d86835161112f565b95509382019390820190600101611271565b505085840381870152865180855281850193509150600582901b84018101878201865b848110156112f057601f198784030186526112de8383516110e4565b958401959250908301906001016112c2565b50909998505050505050505050565b600060408252611312604083018561112f565b828103602084015261112681856110e4565b60008282101561133657611336611391565b500390565b600181811c9082168061134f57607f821691505b6020821081141561137057634e487b7160e01b600052602260045260246000fd5b50919050565b600060001982141561138a5761138a611391565b5060010190565b634e487b7160e01b600052601160045260246000fd5b634e487b7160e01b600052604160045260246000fdfea264697066735822122045c4a6f632da4565302fb2e22e8bed16ae1142b07b84157cbcd85ac14cae278f64736f6c63430008030033",
  "immutableReferences": {},
  "source": "// SPDX-License-Identifier: UNLICENSED\npragma solidity ^0.8.0;\n\nimport '../../../provenance/statemachine/FiniteStateMachine.sol';\n\ncontract FiniteStateMachineImpl is FiniteStateMachine {\n  bytes32 public constant STATE_CREATED = 'STATE_CREATED';\n\n  bytes32[] public _allStates = [STATE_CREATED];\n  bytes32[] public _allRoles;\n\n  StateMachineMeta[] internal _meta;\n\n  struct StateMachineMeta {\n    uint256 index;\n    uint256 amount;\n    string proof;\n    string ipfsFieldContainerHash;\n  }\n\n  constructor(address gateKeeper) Secured(gateKeeper) {}\n\n  function initialState() public pure override returns (bytes32) {\n    return STATE_CREATED;\n  }\n\n  function allStates() public view override returns (bytes32[] memory) {\n    return _allStates;\n  }\n\n  function allRoles() public view override returns (bytes32[] memory) {\n    return _allRoles;\n  }\n\n  function getNextStatesForState(bytes32 state) public view override returns (bytes32[] memory) {}\n\n  function getAllowedRolesForState(bytes32 state) public view override returns (bytes32[] memory) {}\n\n  function getAllowedFunctionsForState(bytes32 state) public view override returns (bytes4[] memory) {}\n\n  function getPreconditionsForState(bytes32 state) public view override returns (bytes4[] memory) {}\n\n  function getCallbacksForState(bytes32 state) public view override returns (bytes4[] memory) {}\n\n  function getCallbackFunctionsForState(bytes32 state)\n    internal\n    override\n    returns (function(uint256, bytes32, bytes32) internal[] memory)\n  {}\n\n  function getPreFunctionForState(bytes32 state) public pure override returns (bytes4) {}\n\n  function getPreconditionFunctionsForState(bytes32 state)\n    internal\n    view\n    override\n    returns (function(uint256, bytes32, bytes32) internal view[] memory)\n  {}\n\n  function preconditionsForState(bytes32 state)\n    internal\n    view\n    returns (function(uint256, bytes32, bytes32) internal view[] memory)\n  {}\n\n  function callbacksForState(bytes32 state) internal returns (function(uint256, bytes32, bytes32) internal[] memory) {}\n\n  function create(\n    uint256 amount,\n    string memory proof,\n    string memory ipfsFieldContainerHash\n  ) public {\n    _registry.push();\n    StateMachine storage sm = _registry[_registry.length - 1];\n    sm.currentState = initialState();\n    sm.createdAt = block.timestamp;\n    sm.index = _registry.length - 1;\n\n    _meta.push();\n    StateMachineMeta storage meta = _meta[_meta.length - 1];\n    meta.amount = amount;\n    meta.proof = proof;\n    meta.ipfsFieldContainerHash = ipfsFieldContainerHash;\n    meta.index = _meta.length - 1;\n  }\n\n  function getByIndex(uint256 index) public view returns (StateMachine memory item, StateMachineMeta memory meta) {\n    item = _registry[index];\n    meta = _meta[index];\n  }\n\n  function getContents() public view returns (StateMachine[] memory registry, StateMachineMeta[] memory meta) {\n    registry = _registry;\n    meta = _meta;\n  }\n}\n",
  "sourcePath": "/home/coder/project/contracts/_library/_test/provenance/statemachine/FiniteStateMachineImpl.sol",
  "compiler": {
    "name": "solc",
    "version": "0.8.3+commit.8d00100c.Emscripten.clang"
  },
  "schemaVersion": "3.4.3",
  "updatedAt": "2021-09-21T08:20:57.787Z",
  "devdoc": {
    "kind": "dev",
    "methods": {
      "getIndexLength()": {
        "details": "Returns the length of the state machine registry",
        "returns": {
          "length": "the number of state machines in the registry"
        }
      },
      "transitionState(uint256,bytes32)": {
        "details": "Ensures predefined transition criteria are met before transitioning to a new state. Executes callbacks. Emits a Transition event after a successful transition.",
        "params": {
          "fsmIndex": "registry index of the transitioning state machine",
          "toState": "identifier of the state to transition to"
        }
      }
    },
    "version": 1
  },
  "userdoc": {
    "kind": "user",
    "methods": {
      "getIndexLength()": {
        "notice": "Returns the length of the state machine registry"
      },
      "transitionState(uint256,bytes32)": {
        "notice": "Transitions a state machine to a new state"
      }
    },
    "version": 1
  }
}