{
  "contractName": "GateKeeper",
  "abi": [
    {
      "inputs": [],
      "stateMutability": "nonpayable",
      "type": "constructor"
    },
    {
      "anonymous": false,
      "inputs": [
        {
          "indexed": true,
          "internalType": "address",
          "name": "contractAddress",
          "type": "address"
        },
        {
          "indexed": true,
          "internalType": "bytes32",
          "name": "role",
          "type": "bytes32"
        },
        {
          "indexed": true,
          "internalType": "address",
          "name": "manager",
          "type": "address"
        }
      ],
      "name": "ChangePermissionManager",
      "type": "event"
    },
    {
      "anonymous": false,
      "inputs": [
        {
          "indexed": true,
          "internalType": "address",
          "name": "entity",
          "type": "address"
        },
        {
          "indexed": true,
          "internalType": "address",
          "name": "contractAddress",
          "type": "address"
        },
        {
          "indexed": true,
          "internalType": "bytes32",
          "name": "role",
          "type": "bytes32"
        },
        {
          "indexed": false,
          "internalType": "bool",
          "name": "allowed",
          "type": "bool"
        }
      ],
      "name": "SetPermission",
      "type": "event"
    },
    {
      "inputs": [],
      "name": "ADD_KNOWNROLE_ROLE",
      "outputs": [
        {
          "internalType": "bytes32",
          "name": "",
          "type": "bytes32"
        }
      ],
      "stateMutability": "view",
      "type": "function",
      "constant": true
    },
    {
      "inputs": [],
      "name": "ADD_ROLEREGISTRY_ROLE",
      "outputs": [
        {
          "internalType": "bytes32",
          "name": "",
          "type": "bytes32"
        }
      ],
      "stateMutability": "view",
      "type": "function",
      "constant": true
    },
    {
      "inputs": [],
      "name": "CREATE_PERMISSIONS_ROLE",
      "outputs": [
        {
          "internalType": "bytes32",
          "name": "",
          "type": "bytes32"
        }
      ],
      "stateMutability": "view",
      "type": "function",
      "constant": true
    },
    {
      "inputs": [
        {
          "internalType": "uint256",
          "name": "",
          "type": "uint256"
        }
      ],
      "name": "knownRoles",
      "outputs": [
        {
          "internalType": "bytes32",
          "name": "",
          "type": "bytes32"
        }
      ],
      "stateMutability": "view",
      "type": "function",
      "constant": true
    },
    {
      "inputs": [
        {
          "internalType": "address",
          "name": "roleRegistry",
          "type": "address"
        }
      ],
      "name": "addRoleRegistry",
      "outputs": [],
      "stateMutability": "nonpayable",
      "type": "function"
    },
    {
      "inputs": [
        {
          "internalType": "address",
          "name": "_entity",
          "type": "address"
        },
        {
          "internalType": "address",
          "name": "_contract",
          "type": "address"
        },
        {
          "internalType": "bytes32",
          "name": "_role",
          "type": "bytes32"
        },
        {
          "internalType": "address",
          "name": "_manager",
          "type": "address"
        }
      ],
      "name": "createPermission",
      "outputs": [],
      "stateMutability": "nonpayable",
      "type": "function"
    },
    {
      "inputs": [
        {
          "internalType": "address",
          "name": "_entity",
          "type": "address"
        },
        {
          "internalType": "address",
          "name": "_contract",
          "type": "address"
        },
        {
          "internalType": "bytes32",
          "name": "_role",
          "type": "bytes32"
        }
      ],
      "name": "grantPermission",
      "outputs": [],
      "stateMutability": "nonpayable",
      "type": "function"
    },
    {
      "inputs": [
        {
          "internalType": "address",
          "name": "_entity",
          "type": "address"
        },
        {
          "internalType": "address",
          "name": "_contract",
          "type": "address"
        },
        {
          "internalType": "bytes32",
          "name": "_role",
          "type": "bytes32"
        }
      ],
      "name": "revokePermission",
      "outputs": [],
      "stateMutability": "nonpayable",
      "type": "function"
    },
    {
      "inputs": [
        {
          "internalType": "address",
          "name": "_newManager",
          "type": "address"
        },
        {
          "internalType": "address",
          "name": "_contract",
          "type": "address"
        },
        {
          "internalType": "bytes32",
          "name": "_role",
          "type": "bytes32"
        }
      ],
      "name": "setPermissionManager",
      "outputs": [],
      "stateMutability": "nonpayable",
      "type": "function"
    },
    {
      "inputs": [
        {
          "internalType": "address",
          "name": "_contract",
          "type": "address"
        },
        {
          "internalType": "bytes32",
          "name": "_role",
          "type": "bytes32"
        }
      ],
      "name": "getPermissionManager",
      "outputs": [
        {
          "internalType": "address",
          "name": "",
          "type": "address"
        }
      ],
      "stateMutability": "view",
      "type": "function",
      "constant": true
    },
    {
      "inputs": [
        {
          "internalType": "address",
          "name": "_entity",
          "type": "address"
        },
        {
          "internalType": "address",
          "name": "_contract",
          "type": "address"
        }
      ],
      "name": "permissionsOf",
      "outputs": [
        {
          "internalType": "bytes32[]",
          "name": "",
          "type": "bytes32[]"
        }
      ],
      "stateMutability": "view",
      "type": "function",
      "constant": true
    },
    {
      "inputs": [
        {
          "internalType": "address",
          "name": "_entity",
          "type": "address"
        },
        {
          "internalType": "address",
          "name": "_contract",
          "type": "address"
        },
        {
          "internalType": "bytes32",
          "name": "_role",
          "type": "bytes32"
        }
      ],
      "name": "hasPermission",
      "outputs": [
        {
          "internalType": "bool",
          "name": "",
          "type": "bool"
        }
      ],
      "stateMutability": "view",
      "type": "function",
      "constant": true
    },
    {
      "inputs": [
        {
          "internalType": "bytes32",
          "name": "_role",
          "type": "bytes32"
        }
      ],
      "name": "getRoleRegistryAddress",
      "outputs": [
        {
          "internalType": "address",
          "name": "",
          "type": "address"
        }
      ],
      "stateMutability": "view",
      "type": "function",
      "constant": true
    },
    {
      "inputs": [
        {
          "internalType": "bytes32",
          "name": "_role",
          "type": "bytes32"
        },
        {
          "internalType": "address",
          "name": "_address",
          "type": "address"
        }
      ],
      "name": "setRoleRegistryAddress",
      "outputs": [],
      "stateMutability": "nonpayable",
      "type": "function"
    }
  ],
  "bytecode": "0x608060405234801561001057600080fd5b5061003d33307f4352454154455f5045524d495353494f4e535f524f4c450000000000000000008261006e565b61006933307f4144445f524f4c4552454749535452595f524f4c4500000000000000000000008261006e565b61028f565b6001600160a01b03838116600090815260016020908152604080832086845290915290205416156101325760405162461bcd60e51b815260206004820152605360248201527f6f6e6c7920616c6c6f77207065726d697373696f6e206372656174696f6e207760448201527f68656e20697420686173206e6f206d616e616765722028686173206e6f74206260648201527f65656e2063726561746564206265666f72652900000000000000000000000000608482015260a4015b60405180910390fd5b61013f8484846001610150565b61014a8184846101c8565b50505050565b6001600160a01b03848116600081815260208181526040808320948816808452948252808320878452825291829020805460ff19168615159081179091559151918252859392917f759b9a74d5354b5801710a0c1b283cc9f0d32b607ac8ced10c83ac8e75c77d52910160405180910390a450505050565b6001600160a01b03831661022a5760405162461bcd60e51b8152602060048201526024808201527f5f6e65774d616e616765722073686f756c642062652061207265616c206164646044820152637265737360e01b6064820152608401610129565b6001600160a01b03828116600081815260016020908152604080832086845290915280822080546001600160a01b0319169488169485179055518492917ff3addc8b8e25ee11528a61b0e65092cae0666ef0ec0c64cb303993c88d689b4d91a4505050565b610eb18061029e6000396000f3fe608060405234801561001057600080fd5b50600436106100ea5760003560e01c8063afd925df1161008c578063be03847811610066578063be03847814610201578063d658ecba14610214578063e70907b614610233578063ee33721b14610253576100ea565b8063afd925df146101bf578063b1905727146101d2578063b9562866146101e5576100ea565b80633d6ab68f116100c85780633d6ab68f1461015557806344be8765146101765780636d6712d8146101895780639d0effdb146101ac576100ea565b80630a8ed3db146100ef5780630ef9ae39146101045780632be5c6c014610134575b600080fd5b6101026100fd366004610bd2565b610266565b005b610117610112366004610ca2565b6102bf565b6040516001600160a01b0390911681526020015b60405180910390f35b610147610142366004610ca2565b6102dd565b60405190815260200161012b565b610147764352454154455f5045524d495353494f4e535f524f4c4560481b81565b610102610184366004610b86565b6102fe565b61019c610197366004610bd2565b610391565b604051901515815260200161012b565b6101026101ba366004610bd2565b610520565b6101026101cd366004610bd2565b610569565b6101176101e0366004610c59565b6105b0565b610147714144445f4b4e4f574e524f4c455f524f4c4560701b81565b61010261020f366004610c0d565b6105d8565b610147744144445f524f4c4552454749535452595f524f4c4560581b81565b610246610241366004610ba0565b610687565b60405161012b9190610cdc565b610102610261366004610cba565b61087c565b818161027282826105b0565b6001600160a01b0316336001600160a01b0316146102ab5760405162461bcd60e51b81526004016102a290610dbf565b60405180910390fd5b6102b88585856001610963565b5050505050565b6000818152600260205260409020546001600160a01b03165b919050565b600481815481106102ed57600080fd5b600091825260209091200154905081565b744144445f524f4c4552454749535452595f524f4c4560581b610322333083610391565b61033e5760405162461bcd60e51b81526004016102a290610d73565b50600380546001810182556000919091527fc2575a0e9e593c00f959f8c92f12db2869c3395a3b0502d05e2516446f71f85b0180546001600160a01b0319166001600160a01b0392909216919091179055565b6001600160a01b03808416600090815260208181526040808320938616835292815282822084835290529081205460ff1680156103cf579050610519565b60005b600354811015610512576000600382815481106103ff57634e487b7160e01b600052603260045260246000fd5b60009182526020808320909101546001600160a01b039081168084528383526040808520928b1685529183528184208985529092529091205490915060ff1680156104fd576003838154811061046557634e487b7160e01b600052603260045260246000fd5b600091825260209091200154604051633f784de560e11b81526001600160a01b038a8116600483015290911690637ef09bca9060240160206040518083038186803b1580156104b357600080fd5b505afa1580156104c7573d6000803e3d6000fd5b505050506040513d601f19601f820116820180604052508101906104eb9190610c82565b156104fd576001945050505050610519565b5050808061050a90610e28565b9150506103d2565b5060009150505b9392505050565b818161052c82826105b0565b6001600160a01b0316336001600160a01b03161461055c5760405162461bcd60e51b81526004016102a290610dbf565b6102b88585856000610963565b818161057582826105b0565b6001600160a01b0316336001600160a01b0316146105a55760405162461bcd60e51b81526004016102a290610dbf565b6102b88585856109db565b6001600160a01b03918216600090815260016020908152604080832093835292905220541690565b764352454154455f5045524d495353494f4e535f524f4c4560481b6105fe333083610391565b61061a5760405162461bcd60e51b81526004016102a290610d73565b60008381526005602052604090205460ff1661067b576004805460018181019092557f8a35acfbc15ff81a39ae7d344fd709f28e8600b4aa8c65c6b64bfe7fe36bd19b018490556000848152600560205260409020805460ff191690911790555b6102b885858585610aa2565b606060008060048054905067ffffffffffffffff8111156106b857634e487b7160e01b600052604160045260246000fd5b6040519080825280602002602001820160405280156106e1578160200160208202803683370190505b50905060005b6004548110156107a65761072786866004848154811061071757634e487b7160e01b600052603260045260246000fd5b9060005260206000200154610391565b15610794576004818154811061074d57634e487b7160e01b600052603260045260246000fd5b9060005260206000200154828460ff168151811061077b57634e487b7160e01b600052603260045260246000fd5b6020908102919091010152610791600184610e03565b92505b8061079e81610e28565b9150506106e7565b5060008260ff1667ffffffffffffffff8111156107d357634e487b7160e01b600052604160045260246000fd5b6040519080825280602002602001820160405280156107fc578160200160208202803683370190505b50905060005b8360ff168110156108725782818151811061082d57634e487b7160e01b600052603260045260246000fd5b602002602001015182828151811061085557634e487b7160e01b600052603260045260246000fd5b60209081029190910101528061086a81610e28565b915050610802565b5095945050505050565b744144445f524f4c4552454749535452595f524f4c4560581b604051806060016040528060228152602001610e5a602291396108b9333084610391565b81906108d85760405162461bcd60e51b81526004016102a29190610d20565b50600084815260026020908152604080832080546001600160a01b0319166001600160a01b038816179055600590915290205460ff1661095d576004805460018181019092557f8a35acfbc15ff81a39ae7d344fd709f28e8600b4aa8c65c6b64bfe7fe36bd19b018590556000858152600560205260409020805460ff191690911790555b50505050565b6001600160a01b03848116600081815260208181526040808320948816808452948252808320878452825291829020805460ff19168615159081179091559151918252859392917f759b9a74d5354b5801710a0c1b283cc9f0d32b607ac8ced10c83ac8e75c77d52910160405180910390a450505050565b6001600160a01b038316610a3d5760405162461bcd60e51b8152602060048201526024808201527f5f6e65774d616e616765722073686f756c642062652061207265616c206164646044820152637265737360e01b60648201526084016102a2565b6001600160a01b03828116600081815260016020908152604080832086845290915280822080546001600160a01b0319169488169485179055518492917ff3addc8b8e25ee11528a61b0e65092cae0666ef0ec0c64cb303993c88d689b4d91a4505050565b6001600160a01b0383811660009081526001602090815260408083208684529091529020541615610b575760405162461bcd60e51b815260206004820152605360248201527f6f6e6c7920616c6c6f77207065726d697373696f6e206372656174696f6e207760448201527f68656e20697420686173206e6f206d616e616765722028686173206e6f74206260648201527265656e2063726561746564206265666f72652960681b608482015260a4016102a2565b610b648484846001610963565b61095d8184846109db565b80356001600160a01b03811681146102d857600080fd5b600060208284031215610b97578081fd5b61051982610b6f565b60008060408385031215610bb2578081fd5b610bbb83610b6f565b9150610bc960208401610b6f565b90509250929050565b600080600060608486031215610be6578081fd5b610bef84610b6f565b9250610bfd60208501610b6f565b9150604084013590509250925092565b60008060008060808587031215610c22578081fd5b610c2b85610b6f565b9350610c3960208601610b6f565b925060408501359150610c4e60608601610b6f565b905092959194509250565b60008060408385031215610c6b578182fd5b610c7483610b6f565b946020939093013593505050565b600060208284031215610c93578081fd5b81518015158114610519578182fd5b600060208284031215610cb3578081fd5b5035919050565b60008060408385031215610ccc578182fd5b82359150610bc960208401610b6f565b6020808252825182820181905260009190848201906040850190845b81811015610d1457835183529284019291840191600101610cf8565b50909695505050505050565b6000602080835283518082850152825b81811015610d4c57858101830151858201604001528201610d30565b81811115610d5d5783604083870101525b50601f01601f1916929092016040019392505050565b6020808252602c908201527f53656e64657220646f6573206e6f7420686176652074686520636f727265637460408201526b207065726d697373696f6e7360a01b606082015260800190565b60208082526024908201527f53656e646572206973206e6f7420746865207065726d697373696f6e206d616e60408201526330b3b2b960e11b606082015260800190565b600060ff821660ff84168060ff03821115610e2057610e20610e43565b019392505050565b6000600019821415610e3c57610e3c610e43565b5060010190565b634e487b7160e01b600052601160045260246000fdfe53656e646572206e65656473204144445f524f4c4552454749535452595f524f4c45a264697066735822122020e7d34332c4e6b34c2654dd08d5966537bf0fae874772c3d64f7ae0becb5f3664736f6c63430008030033",
  "immutableReferences": {},
  "source": "// SPDX-License-Identifier: UNLICENSED\n/**\n * Copyright (C) SettleMint NV - All Rights Reserved\n *\n * Use of this file is strictly prohibited without an active license agreement.\n * Distribution of this file, via any medium, is strictly prohibited.\n *\n * For license inquiries, contact hello@settlemint.com\n */\n\npragma solidity ^0.8.0;\n\nimport './interfaces/IRoleRegistry.sol';\n\n/**\n * @title Manages contract permissions\n */\ncontract GateKeeper {\n  bytes32 public constant CREATE_PERMISSIONS_ROLE = bytes32('CREATE_PERMISSIONS_ROLE');\n  bytes32 public constant ADD_ROLEREGISTRY_ROLE = bytes32('ADD_ROLEREGISTRY_ROLE');\n  bytes32 public constant ADD_KNOWNROLE_ROLE = bytes32('ADD_KNOWNROLE_ROLE');\n\n  event SetPermission(address indexed entity, address indexed contractAddress, bytes32 indexed role, bool allowed);\n  event ChangePermissionManager(address indexed contractAddress, bytes32 indexed role, address indexed manager);\n\n  // whether a certain entity has a permission\n  mapping(address => mapping(address => mapping(bytes32 => bool))) permissions;\n  // who is the manager of a permission\n  mapping(address => mapping(bytes32 => address)) permissionManager;\n  // a mapping of roles to the address of their correspending role registry\n  mapping(bytes32 => address) roleToRoleRegistry;\n\n  // a list of all RoleRegistries\n  IRoleRegistry[] roleRegistries;\n\n  bytes32[] public knownRoles;\n  mapping(bytes32 => bool) private knownRole;\n\n  modifier onlyPermissionManager(address _contract, bytes32 role) {\n    require(msg.sender == getPermissionManager(_contract, role), 'Sender is not the permission manager');\n    _;\n  }\n\n  modifier auth(bytes32 _role) {\n    require(hasPermission(msg.sender, address(this), _role), 'Sender does not have the correct permissions');\n    _;\n  }\n\n  modifier authMany(bytes32[] memory _roles) {\n    bool hasRole = false;\n    for (uint256 i = 0; i < _roles.length; i++) {\n      if (hasPermission(msg.sender, address(this), _roles[i])) {\n        hasRole = true;\n        break;\n      }\n    }\n    require(hasRole == true, 'Sender does not have the correct permissions');\n    _;\n  }\n\n  modifier authWithCustomReason(bytes32 _role, string memory reason) {\n    require(hasPermission(msg.sender, address(this), _role), reason);\n    _;\n  }\n\n  modifier authManyWithCustomReason(bytes32[] memory _roles, string memory reason) {\n    bool hasRole = false;\n    for (uint256 i = 0; i < _roles.length; i++) {\n      if (hasPermission(msg.sender, address(this), _roles[i])) {\n        hasRole = true;\n        break;\n      }\n    }\n    require(hasRole == true, reason);\n    _;\n  }\n\n  constructor() {\n    _createPermission(msg.sender, address(this), CREATE_PERMISSIONS_ROLE, msg.sender);\n    _createPermission(msg.sender, address(this), ADD_ROLEREGISTRY_ROLE, msg.sender);\n  }\n\n  /**\n   * @notice Adds an existing role registry to an internal collection.\n   * @dev Adds an existing role registry to an internal collection. Access is limited by the ACL.\n   * @param roleRegistry Address of the role registry to be included\n   */\n  function addRoleRegistry(address roleRegistry) external auth(ADD_ROLEREGISTRY_ROLE) {\n    roleRegistries.push(IRoleRegistry(roleRegistry));\n  }\n\n  /**\n   * @notice Creates a permission that wasn't previously set.\n   * @dev Create a new permission granting `_entity` the ability to perform actions of role `_role` on `_contract` (setting `_manager` as parent).\n   * If a created permission is removed it is possible to reset it with createPermission. Access is limited by the ACL.\n   * @param _entity Address of the whitelisted entity that will be able to perform the role, this can be a user or a role registry\n   * @param _contract Address of the app in which the role will be allowed (requires app to depend on kernel for ACL)\n   * @param _role Identifier for the group of actions allowed to perform\n   * @param _manager Entity address that will be able to grant and revoke the permission further.\n   */\n  function createPermission(\n    address _entity,\n    address _contract,\n    bytes32 _role,\n    address _manager\n  ) public auth(CREATE_PERMISSIONS_ROLE) {\n    if (!knownRole[_role]) {\n      knownRoles.push(_role);\n      knownRole[_role] = true;\n    }\n\n    _createPermission(_entity, _contract, _role, _manager);\n  }\n\n  /**\n   * @notice Grants a permission if allowed.\n   * @dev Grants `_entity` the ability to perform actions of role `_role` on `_contract`.\n   * This requires `msg.sender` to be the permission manager.\n   * @param _entity Address of the whitelisted entity that will be able to perform the role\n   * @param _contract Address of the app in which the role will be allowed (requires app to depend on kernel for ACL)\n   * @param _role Identifier for the group of actions allowed to perform\n   */\n  function grantPermission(\n    address _entity,\n    address _contract,\n    bytes32 _role\n  ) public onlyPermissionManager(_contract, _role) {\n    _setPermission(_entity, _contract, _role, true);\n  }\n\n  /**\n   * @notice Revokes permission if allowed.\n   * @dev Revokes `_entity` the ability to perform actions of role `_role` on `_contract`.\n   * This requires `msg.sender` to be the parent of the permission\n   * @param _entity Address of the whitelisted entity that will be revoked access\n   * @param _contract Address of the app in which the role is revoked\n   * @param _role Identifier for the group of actions allowed to perform\n   */\n  function revokePermission(\n    address _entity,\n    address _contract,\n    bytes32 _role\n  ) public onlyPermissionManager(_contract, _role) {\n    _setPermission(_entity, _contract, _role, false);\n  }\n\n  /**\n   * @notice Sets the manager address of a permission on a contract\n   * @dev Sets `_newManager` as the manager of the permission `_role` on `_contract`\n   * This requires `msg.sender` to be the parent of the permission\n   * @param _newManager Address for the new manager\n   * @param _contract Address of the app in which the permission management is being transferred\n   * @param _role Identifier for the group of actions allowed to perform\n   */\n  function setPermissionManager(\n    address _newManager,\n    address _contract,\n    bytes32 _role\n  ) public onlyPermissionManager(_contract, _role) {\n    _setPermissionManager(_newManager, _contract, _role);\n  }\n\n  /**\n   * @notice Get manager address for a permission on a contract\n   * @dev Get manager address for the permission `_role` on `_contract`\n   * @param _contract Contract address\n   * @param _role Role identifier\n   * @return Address of the manager for the permission\n   */\n  function getPermissionManager(address _contract, bytes32 _role) public view returns (address) {\n    return permissionManager[_contract][_role];\n  }\n\n  /**\n   * @notice Lists all the permissions of an entity on a contract address\n   * @dev Lists all permissions for `_entity` on `_contract`\n   * @param _entity Entity address\n   * @param _contract Contract address\n   * @return bytes32[] List of permissions\n   */\n  function permissionsOf(address _entity, address _contract) public view returns (bytes32[] memory) {\n    uint8 counter = 0;\n    bytes32[] memory tmp = new bytes32[](knownRoles.length);\n    for (uint256 i = 0; i < knownRoles.length; i++) {\n      if (hasPermission(_entity, _contract, knownRoles[i])) {\n        tmp[counter] = knownRoles[i];\n        counter += 1;\n      }\n    }\n\n    bytes32[] memory permissionsList = new bytes32[](counter);\n    for (uint256 j = 0; j < counter; j++) {\n      permissionsList[j] = tmp[j];\n    }\n\n    return permissionsList;\n  }\n\n  /**\n   * @notice Checks ACL on kernel or permission status\n   * @dev Checks if `_entity` has permission `_role` on `_contract`\n   * @param _entity Entity address\n   * @param _contract Contract address\n   * @param _role Role identifier\n   * @return Boolean indicating whether the ACL allows the role or not\n   */\n  function hasPermission(\n    address _entity,\n    address _contract,\n    bytes32 _role\n  ) public view returns (bool) {\n    // the address passed in has the permissions themselves\n    bool personalPermission = permissions[_entity][_contract][_role];\n    if (personalPermission) {\n      return personalPermission;\n    }\n    // or we will check if any of the role registries have the permission\n    for (uint256 counter = 0; counter < roleRegistries.length; counter++) {\n      address registry = address(roleRegistries[counter]);\n      bool registryPermission = permissions[registry][_contract][_role];\n      if (registryPermission) {\n        if (roleRegistries[counter].hasRole(_entity)) {\n          return true;\n        }\n      }\n    }\n    // if, not, deny!\n    return false;\n  }\n\n  /**\n   * @notice Retrieves the role registry address for a given role\n   * @dev Retrieves the role registry for the role `_role`\n   * @param _role Identifier for the role mapped to a role registry\n   * @return address of the role registry that corresponds to the role\n   */\n  function getRoleRegistryAddress(bytes32 _role) public view returns (address) {\n    return roleToRoleRegistry[_role];\n  }\n\n  /**\n   * @notice Sets the role registry address for a given role\n   * @dev Sets the role registry for the role `_role` to `_address`. Access is limited by the ACL.\n   * @param _role Identifier for the role mapped to a role registry\n   * @param _address address of the role registry to put into the store\n   */\n  function setRoleRegistryAddress(bytes32 _role, address _address)\n    public\n    authWithCustomReason(ADD_ROLEREGISTRY_ROLE, 'Sender needs ADD_ROLEREGISTRY_ROLE')\n  {\n    roleToRoleRegistry[_role] = _address;\n\n    if (!knownRole[_role]) {\n      knownRoles.push(_role);\n      knownRole[_role] = true;\n    }\n  }\n\n  /**\n   * @dev Internal createPermission for access inside the gatekeeper (on instantiation)\n   */\n  function _createPermission(\n    address _entity,\n    address _contract,\n    bytes32 _role,\n    address _manager\n  ) internal {\n    require(\n      permissionManager[_contract][_role] == address(0x0),\n      'only allow permission creation when it has no manager (has not been created before)'\n    );\n    _setPermission(_entity, _contract, _role, true);\n    _setPermissionManager(_manager, _contract, _role);\n  }\n\n  /**\n   * @dev Internal function called to actually save the permission\n   */\n  function _setPermission(\n    address _entity,\n    address _contract,\n    bytes32 _role,\n    bool _allowed\n  ) internal {\n    permissions[_entity][_contract][_role] = _allowed;\n    emit SetPermission(_entity, _contract, _role, _allowed);\n  }\n\n  /**\n   * @dev Internal function that sets management\n   */\n  function _setPermissionManager(\n    address _newManager,\n    address _contract,\n    bytes32 _role\n  ) internal {\n    require(_newManager > address(0x0), '_newManager should be a real address');\n\n    permissionManager[_contract][_role] = _newManager;\n    emit ChangePermissionManager(_contract, _role, _newManager);\n  }\n}\n",
  "sourcePath": "/home/coder/project/contracts/_library/authentication/GateKeeper.sol",
  "compiler": {
    "name": "solc",
    "version": "0.8.3+commit.8d00100c.Emscripten.clang"
  },
  "schemaVersion": "3.4.1",
  "updatedAt": "2021-07-01T15:08:15.198Z",
  "networkType": "ethereum",
  "devdoc": {
    "kind": "dev",
    "methods": {
      "addRoleRegistry(address)": {
        "details": "Adds an existing role registry to an internal collection. Access is limited by the ACL.",
        "params": {
          "roleRegistry": "Address of the role registry to be included"
        }
      },
      "createPermission(address,address,bytes32,address)": {
        "details": "Create a new permission granting `_entity` the ability to perform actions of role `_role` on `_contract` (setting `_manager` as parent). If a created permission is removed it is possible to reset it with createPermission. Access is limited by the ACL.",
        "params": {
          "_contract": "Address of the app in which the role will be allowed (requires app to depend on kernel for ACL)",
          "_entity": "Address of the whitelisted entity that will be able to perform the role, this can be a user or a role registry",
          "_manager": "Entity address that will be able to grant and revoke the permission further.",
          "_role": "Identifier for the group of actions allowed to perform"
        }
      },
      "getPermissionManager(address,bytes32)": {
        "details": "Get manager address for the permission `_role` on `_contract`",
        "params": {
          "_contract": "Contract address",
          "_role": "Role identifier"
        },
        "returns": {
          "_0": "Address of the manager for the permission"
        }
      },
      "getRoleRegistryAddress(bytes32)": {
        "details": "Retrieves the role registry for the role `_role`",
        "params": {
          "_role": "Identifier for the role mapped to a role registry"
        },
        "returns": {
          "_0": "address of the role registry that corresponds to the role"
        }
      },
      "grantPermission(address,address,bytes32)": {
        "details": "Grants `_entity` the ability to perform actions of role `_role` on `_contract`. This requires `msg.sender` to be the permission manager.",
        "params": {
          "_contract": "Address of the app in which the role will be allowed (requires app to depend on kernel for ACL)",
          "_entity": "Address of the whitelisted entity that will be able to perform the role",
          "_role": "Identifier for the group of actions allowed to perform"
        }
      },
      "hasPermission(address,address,bytes32)": {
        "details": "Checks if `_entity` has permission `_role` on `_contract`",
        "params": {
          "_contract": "Contract address",
          "_entity": "Entity address",
          "_role": "Role identifier"
        },
        "returns": {
          "_0": "Boolean indicating whether the ACL allows the role or not"
        }
      },
      "permissionsOf(address,address)": {
        "details": "Lists all permissions for `_entity` on `_contract`",
        "params": {
          "_contract": "Contract address",
          "_entity": "Entity address"
        },
        "returns": {
          "_0": "bytes32[] List of permissions"
        }
      },
      "revokePermission(address,address,bytes32)": {
        "details": "Revokes `_entity` the ability to perform actions of role `_role` on `_contract`. This requires `msg.sender` to be the parent of the permission",
        "params": {
          "_contract": "Address of the app in which the role is revoked",
          "_entity": "Address of the whitelisted entity that will be revoked access",
          "_role": "Identifier for the group of actions allowed to perform"
        }
      },
      "setPermissionManager(address,address,bytes32)": {
        "details": "Sets `_newManager` as the manager of the permission `_role` on `_contract` This requires `msg.sender` to be the parent of the permission",
        "params": {
          "_contract": "Address of the app in which the permission management is being transferred",
          "_newManager": "Address for the new manager",
          "_role": "Identifier for the group of actions allowed to perform"
        }
      },
      "setRoleRegistryAddress(bytes32,address)": {
        "details": "Sets the role registry for the role `_role` to `_address`. Access is limited by the ACL.",
        "params": {
          "_address": "address of the role registry to put into the store",
          "_role": "Identifier for the role mapped to a role registry"
        }
      }
    },
    "title": "Manages contract permissions",
    "version": 1
  },
  "userdoc": {
    "kind": "user",
    "methods": {
      "addRoleRegistry(address)": {
        "notice": "Adds an existing role registry to an internal collection."
      },
      "createPermission(address,address,bytes32,address)": {
        "notice": "Creates a permission that wasn't previously set."
      },
      "getPermissionManager(address,bytes32)": {
        "notice": "Get manager address for a permission on a contract"
      },
      "getRoleRegistryAddress(bytes32)": {
        "notice": "Retrieves the role registry address for a given role"
      },
      "grantPermission(address,address,bytes32)": {
        "notice": "Grants a permission if allowed."
      },
      "hasPermission(address,address,bytes32)": {
        "notice": "Checks ACL on kernel or permission status"
      },
      "permissionsOf(address,address)": {
        "notice": "Lists all the permissions of an entity on a contract address"
      },
      "revokePermission(address,address,bytes32)": {
        "notice": "Revokes permission if allowed."
      },
      "setPermissionManager(address,address,bytes32)": {
        "notice": "Sets the manager address of a permission on a contract"
      },
      "setRoleRegistryAddress(bytes32,address)": {
        "notice": "Sets the role registry address for a given role"
      }
    },
    "version": 1
  }
}