{
  "contractName": "Generic",
  "abi": [
    {
      "inputs": [
        {
          "internalType": "address",
          "name": "gateKeeper",
          "type": "address"
        },
        {
          "internalType": "string",
          "name": "param1",
          "type": "string"
        },
        {
          "internalType": "address",
          "name": "param2",
          "type": "address"
        },
        {
          "internalType": "uint256",
          "name": "param3",
          "type": "uint256"
        },
        {
          "internalType": "string",
          "name": "ipfsFieldContainerHash",
          "type": "string"
        },
        {
          "internalType": "string",
          "name": "uiFieldDefinitionsHash",
          "type": "string"
        }
      ],
      "stateMutability": "nonpayable",
      "type": "constructor"
    },
    {
      "anonymous": false,
      "inputs": [
        {
          "indexed": false,
          "internalType": "address",
          "name": "sender",
          "type": "address"
        },
        {
          "indexed": false,
          "internalType": "bytes32",
          "name": "fromState",
          "type": "bytes32"
        },
        {
          "indexed": false,
          "internalType": "bytes32",
          "name": "toState",
          "type": "bytes32"
        }
      ],
      "name": "Transition",
      "type": "event"
    },
    {
      "inputs": [],
      "name": "ROLE_ADMIN",
      "outputs": [
        {
          "internalType": "bytes32",
          "name": "",
          "type": "bytes32"
        }
      ],
      "stateMutability": "view",
      "type": "function"
    },
    {
      "inputs": [],
      "name": "ROLE_FOUR",
      "outputs": [
        {
          "internalType": "bytes32",
          "name": "",
          "type": "bytes32"
        }
      ],
      "stateMutability": "view",
      "type": "function"
    },
    {
      "inputs": [],
      "name": "ROLE_ONE",
      "outputs": [
        {
          "internalType": "bytes32",
          "name": "",
          "type": "bytes32"
        }
      ],
      "stateMutability": "view",
      "type": "function"
    },
    {
      "inputs": [],
      "name": "ROLE_THREE",
      "outputs": [
        {
          "internalType": "bytes32",
          "name": "",
          "type": "bytes32"
        }
      ],
      "stateMutability": "view",
      "type": "function"
    },
    {
      "inputs": [],
      "name": "ROLE_TWO",
      "outputs": [
        {
          "internalType": "bytes32",
          "name": "",
          "type": "bytes32"
        }
      ],
      "stateMutability": "view",
      "type": "function"
    },
    {
      "inputs": [],
      "name": "STATE_FIVE",
      "outputs": [
        {
          "internalType": "bytes32",
          "name": "",
          "type": "bytes32"
        }
      ],
      "stateMutability": "view",
      "type": "function"
    },
    {
      "inputs": [],
      "name": "STATE_FOUR",
      "outputs": [
        {
          "internalType": "bytes32",
          "name": "",
          "type": "bytes32"
        }
      ],
      "stateMutability": "view",
      "type": "function"
    },
    {
      "inputs": [],
      "name": "STATE_ONE",
      "outputs": [
        {
          "internalType": "bytes32",
          "name": "",
          "type": "bytes32"
        }
      ],
      "stateMutability": "view",
      "type": "function"
    },
    {
      "inputs": [],
      "name": "STATE_THREE",
      "outputs": [
        {
          "internalType": "bytes32",
          "name": "",
          "type": "bytes32"
        }
      ],
      "stateMutability": "view",
      "type": "function"
    },
    {
      "inputs": [],
      "name": "STATE_TWO",
      "outputs": [
        {
          "internalType": "bytes32",
          "name": "",
          "type": "bytes32"
        }
      ],
      "stateMutability": "view",
      "type": "function"
    },
    {
      "inputs": [],
      "name": "UPDATE_IPFSCONTAINERHASH_ROLE",
      "outputs": [
        {
          "internalType": "bytes32",
          "name": "",
          "type": "bytes32"
        }
      ],
      "stateMutability": "view",
      "type": "function"
    },
    {
      "inputs": [],
      "name": "_ipfsFieldContainerHash",
      "outputs": [
        {
          "internalType": "string",
          "name": "",
          "type": "string"
        }
      ],
      "stateMutability": "view",
      "type": "function"
    },
    {
      "inputs": [
        {
          "internalType": "uint256",
          "name": "",
          "type": "uint256"
        }
      ],
      "name": "_roles",
      "outputs": [
        {
          "internalType": "bytes32",
          "name": "",
          "type": "bytes32"
        }
      ],
      "stateMutability": "view",
      "type": "function"
    },
    {
      "inputs": [],
      "name": "_uiFieldDefinitionsHash",
      "outputs": [
        {
          "internalType": "string",
          "name": "",
          "type": "string"
        }
      ],
      "stateMutability": "view",
      "type": "function"
    },
    {
      "inputs": [],
      "name": "gateKeeper",
      "outputs": [
        {
          "internalType": "contract GateKeeper",
          "name": "",
          "type": "address"
        }
      ],
      "stateMutability": "view",
      "type": "function"
    },
    {
      "inputs": [],
      "name": "getAllStates",
      "outputs": [
        {
          "internalType": "bytes32[]",
          "name": "allStates",
          "type": "bytes32[]"
        }
      ],
      "stateMutability": "view",
      "type": "function"
    },
    {
      "inputs": [],
      "name": "getCurrentState",
      "outputs": [
        {
          "internalType": "bytes32",
          "name": "state",
          "type": "bytes32"
        }
      ],
      "stateMutability": "view",
      "type": "function"
    },
    {
      "inputs": [
        {
          "internalType": "uint256",
          "name": "index",
          "type": "uint256"
        }
      ],
      "name": "getHistory",
      "outputs": [
        {
          "internalType": "bytes32",
          "name": "fromState",
          "type": "bytes32"
        },
        {
          "internalType": "bytes32",
          "name": "toState",
          "type": "bytes32"
        },
        {
          "internalType": "address",
          "name": "actor",
          "type": "address"
        },
        {
          "internalType": "uint256",
          "name": "timestamp",
          "type": "uint256"
        }
      ],
      "stateMutability": "view",
      "type": "function"
    },
    {
      "inputs": [],
      "name": "getHistoryLength",
      "outputs": [
        {
          "internalType": "uint256",
          "name": "",
          "type": "uint256"
        }
      ],
      "stateMutability": "view",
      "type": "function"
    },
    {
      "inputs": [],
      "name": "getIpfsFieldContainerHash",
      "outputs": [
        {
          "internalType": "string",
          "name": "",
          "type": "string"
        }
      ],
      "stateMutability": "view",
      "type": "function"
    },
    {
      "inputs": [],
      "name": "getNextStates",
      "outputs": [
        {
          "internalType": "bytes32[]",
          "name": "nextStates",
          "type": "bytes32[]"
        }
      ],
      "stateMutability": "view",
      "type": "function"
    },
    {
      "inputs": [
        {
          "internalType": "bytes32",
          "name": "state",
          "type": "bytes32"
        }
      ],
      "name": "getState",
      "outputs": [
        {
          "internalType": "bytes32",
          "name": "name",
          "type": "bytes32"
        },
        {
          "internalType": "bytes32[]",
          "name": "nextStates",
          "type": "bytes32[]"
        },
        {
          "internalType": "bytes32[]",
          "name": "allowedRoles",
          "type": "bytes32[]"
        },
        {
          "internalType": "bytes4[]",
          "name": "allowedFunctions",
          "type": "bytes4[]"
        },
        {
          "internalType": "bytes4",
          "name": "preFunction",
          "type": "bytes4"
        }
      ],
      "stateMutability": "view",
      "type": "function"
    },
    {
      "inputs": [
        {
          "internalType": "uint256",
          "name": "",
          "type": "uint256"
        }
      ],
      "name": "history",
      "outputs": [
        {
          "internalType": "bytes32",
          "name": "fromState",
          "type": "bytes32"
        },
        {
          "internalType": "bytes32",
          "name": "toState",
          "type": "bytes32"
        },
        {
          "internalType": "address",
          "name": "actor",
          "type": "address"
        },
        {
          "internalType": "uint256",
          "name": "timestamp",
          "type": "uint256"
        }
      ],
      "stateMutability": "view",
      "type": "function"
    },
    {
      "inputs": [
        {
          "internalType": "bytes32",
          "name": "key",
          "type": "bytes32"
        },
        {
          "internalType": "string",
          "name": "file",
          "type": "string"
        }
      ],
      "name": "setContractFile",
      "outputs": [],
      "stateMutability": "nonpayable",
      "type": "function"
    },
    {
      "inputs": [
        {
          "internalType": "string",
          "name": "ipfsFieldContainerHash",
          "type": "string"
        }
      ],
      "name": "setIpfsFieldContainerHash",
      "outputs": [],
      "stateMutability": "nonpayable",
      "type": "function"
    },
    {
      "inputs": [
        {
          "internalType": "bytes32",
          "name": "toState",
          "type": "bytes32"
        }
      ],
      "name": "transitionState",
      "outputs": [],
      "stateMutability": "nonpayable",
      "type": "function"
    },
    {
      "inputs": [
        {
          "internalType": "string",
          "name": "param1",
          "type": "string"
        },
        {
          "internalType": "address",
          "name": "param2",
          "type": "address"
        },
        {
          "internalType": "uint256",
          "name": "param3",
          "type": "uint256"
        },
        {
          "internalType": "string",
          "name": "ipfsFieldContainerHash",
          "type": "string"
        }
      ],
      "name": "edit",
      "outputs": [],
      "stateMutability": "nonpayable",
      "type": "function"
    },
    {
      "inputs": [],
      "name": "getRoles",
      "outputs": [
        {
          "internalType": "bytes32[]",
          "name": "",
          "type": "bytes32[]"
        }
      ],
      "stateMutability": "view",
      "type": "function"
    }
  ],
  "bytecode": "0x60a0604052692927a622afa0a226a4a760b11b60809081526200002790600b906001620006fe565b503480156200003557600080fd5b50604051620022ed380380620022ed8339810160408190526200005891620008b1565b600080546001600160a01b0319166001600160a01b03881617905584516200008890600d9060208801906200074e565b50600e80546001600160a01b0319166001600160a01b038616179055600f8390558151620000be9060079060208501906200074e565b508051620000d490600c9060208401906200074e565b50620000df620000eb565b505050505050620009c0565b62000105600080516020620022cd833981519152620003bd565b6200011f600080516020620022ad833981519152620003bd565b620001396000805160206200224d833981519152620003bd565b620001536000805160206200226d833981519152620003bd565b6200016d6000805160206200228d833981519152620003bd565b62000197600080516020620022cd833981519152600080516020620022ad8339815191526200047b565b620001bf600080516020620022cd833981519152692927a622afa0a226a4a760b11b6200055b565b620001e9600080516020620022ad8339815191526000805160206200224d8339815191526200047b565b62000211600080516020620022ad833981519152692927a622afa0a226a4a760b11b6200055b565b6200024c600080516020620022ad8339815191527f4348414e47455f484552455f524f4c455f4f4e450000000000000000000000006200055b565b620002766000805160206200224d8339815191526000805160206200226d8339815191526200047b565b6200029e6000805160206200224d833981519152692927a622afa0a226a4a760b11b6200055b565b620002d96000805160206200224d8339815191527f4348414e47455f484552455f524f4c455f54574f0000000000000000000000006200055b565b620003036000805160206200226d8339815191526000805160206200228d8339815191526200047b565b6200032b6000805160206200226d833981519152692927a622afa0a226a4a760b11b6200055b565b620003666000805160206200226d8339815191527f4348414e47455f484552455f524f4c455f5448524545000000000000000000006200055b565b620003a16000805160206200228d8339815191527f4348414e47455f484552455f524f4c455f464f555200000000000000000000006200055b565b620003bb600080516020620022cd833981519152620005de565b565b60008181526002602052604090205460ff16156200042e5760405162461bcd60e51b815260206004820152602360248201527f746869732073746174652068617320616c7265616479206265656e20637265616044820152621d195960ea1b60648201526084015b60405180910390fd5b6000818152600260205260408120805460ff191660019081179091556003805491820181559091527fc2575a0e9e593c00f959f8c92f12db2869c3395a3b0502d05e2516446f71f85b0155565b600082815260026020526040902054829060ff16620004d75760405162461bcd60e51b815260206004820152602260248201526000805160206200222d833981519152604482015261195d60f21b606482015260840162000425565b600082815260026020526040902054829060ff16620005335760405162461bcd60e51b815260206004820152602260248201526000805160206200222d833981519152604482015261195d60f21b606482015260840162000425565b5050600091825260026020908152604083206005018054600181018255908452922090910155565b600082815260026020526040902054829060ff16620005b75760405162461bcd60e51b815260206004820152602260248201526000805160206200222d833981519152604482015261195d60f21b606482015260840162000425565b50600091825260026020818152604084209091018054600181018255908452922090910155565b60008181526002602052604090205460ff16620006515760405162461bcd60e51b815260206004820152602a60248201527f74686520696e697469616c20737461746520686173206e6f74206265656e20636044820152691c99585d1959081e595d60b21b606482015260840162000425565b60045415620006f95760405162461bcd60e51b815260206004820152606160248201527f7468652063757272656e742073746174652068617320616c726561647920626560448201527f656e207365742c20736f20796f752063616e6e6f7420636f6e6669677572652060648201527f74686520696e697469616c20737461746520616e64206f7665727269646520696084820152601d60fa1b60a482015260c40162000425565b600455565b8280548282559060005260206000209081019282156200073c579160200282015b828111156200073c5782518255916020019190600101906200071f565b506200074a929150620007ca565b5090565b8280546200075c906200096d565b90600052602060002090601f0160209004810192826200078057600085556200073c565b82601f106200079b57805160ff19168380011785556200073c565b828001600101855582156200073c57918201828111156200073c5782518255916020019190600101906200071f565b5b808211156200074a5760008155600101620007cb565b80516001600160a01b0381168114620007f957600080fd5b919050565b600082601f8301126200080f578081fd5b81516001600160401b03808211156200082c576200082c620009aa565b604051601f8301601f19908116603f01168101908282118183101715620008575762000857620009aa565b8160405283815260209250868385880101111562000873578485fd5b8491505b8382101562000896578582018301518183018401529082019062000877565b83821115620008a757848385830101525b9695505050505050565b60008060008060008060c08789031215620008ca578182fd5b620008d587620007e1565b60208801519096506001600160401b0380821115620008f2578384fd5b620009008a838b01620007fe565b96506200091060408a01620007e1565b95506060890151945060808901519150808211156200092d578384fd5b6200093b8a838b01620007fe565b935060a089015191508082111562000951578283fd5b506200096089828a01620007fe565b9150509295509295509295565b600181811c908216806200098257607f821691505b60208210811415620009a457634e487b7160e01b600052602260045260246000fd5b50919050565b634e487b7160e01b600052604160045260246000fd5b61185d80620009d06000396000f3fe608060405234801561001057600080fd5b50600436106101c45760003560e01c806371061398116100f9578063c6ef8f2f11610097578063ed96b08d11610071578063ed96b08d14610438578063ef120a6e14610458578063f4a979a314610460578063fcbb590714610473576101c4565b8063c6ef8f2f146103ea578063c8691b2a14610411578063d391014b14610424576101c4565b8063a2f50784116100d3578063a2f5078414610361578063a4ddb07114610381578063a7a38f0b14610389578063ac65527f146103cb576101c4565b8063710613981461033e578063910fd10a1461034657806395d5d4881461034e576101c4565b80633bb9ef91116101665780635415555d116101405780635415555d146102f05780635478f4681461030e57806356c57bd114610316578063694f11051461032b576101c4565b80633bb9ef911461029157806345d61ded146102b05780634de6740e146102db576101c4565b80632e2bc0d5116101a25780632e2bc0d514610243578063304b1bd114610258578063378aa7011461026b578063390cf61314610273576101c4565b806309648a9d146101c95780630cc24f5e146101f6578063226c895214610224575b600080fd5b6101dc6101d7366004611533565b61049a565b6040516101ed9594939291906116a2565b60405180910390f35b610216754348414e47455f484552455f524f4c455f544852454560501b81565b6040519081526020016101ed565b610216744348414e47455f484552455f53544154455f54574f60581b81565b61024b6107e4565b6040516101ed919061168f565b610216610266366004611533565b61084a565b61021661086b565b610216734348414e47455f484552455f524f4c455f54574f60601b81565b6102167421a420a723a2afa422a922afa927a622afa327aaa960591b81565b6000546102c3906001600160a01b031681565b6040516001600160a01b0390911681526020016101ed565b6102e36108eb565b6040516101ed919061172d565b610216734348414e47455f484552455f524f4c455f4f4e4560601b81565b600154610216565b610329610324366004611590565b610979565b005b610329610339366004611533565b610990565b61024b610bcf565b6102e3610c25565b61032961035c3660046115cb565b610c32565b610216754348414e47455f484552455f53544154455f4649564560501b81565b61024b610c80565b61039c610397366004611533565b610cd6565b6040516101ed949392919093845260208401929092526001600160a01b03166040830152606082015260800190565b610216744348414e47455f484552455f53544154455f4f4e4560581b81565b6102167f4348414e47455f484552455f53544154455f544852454500000000000000000081565b61039c61041f366004611533565b610d19565b610216692927a622afa0a226a4a760b11b81565b6102167521a420a723a2afa422a922afa9aa20aa22afa327aaa960511b81565b6102e3610e53565b61032961046e36600461154b565b610edc565b6102167f5550444154455f49504653434f4e5441494e4552484153485f524f4c4500000081565b60008181526002602052604081206005546060918291829185918290819067ffffffffffffffff8111156104de57634e487b7160e01b600052604160045260246000fd5b604051908082528060200260200182016040528015610507578160200160208202803683370190505b50905060005b60055481101561063257600260008b815260200190815260200160002060010160006005838154811061055057634e487b7160e01b600052603260045260246000fd5b6000918252602080832060088304015460079092166004026101000a90910460e01b6001600160e01b031916835282019290925260400190205460ff161561062057600581815481106105b357634e487b7160e01b600052603260045260246000fd5b90600052602060002090600891828204019190066004029054906101000a900460e01b828460ff16815181106105f957634e487b7160e01b600052603260045260246000fd5b6001600160e01b03199092166020928302919091019091015261061d600184611780565b92505b8061062a816117e0565b91505061050d565b5060008260ff1667ffffffffffffffff81111561065f57634e487b7160e01b600052604160045260246000fd5b604051908082528060200260200182016040528015610688578160200160208202803683370190505b50905060005b8360ff1681101561070c578281815181106106b957634e487b7160e01b600052603260045260246000fd5b60200260200101518282815181106106e157634e487b7160e01b600052603260045260246000fd5b6001600160e01b03199092166020928302919091019091015280610704816117e0565b91505061068e565b50898460050185600201838760060160009054906101000a900460e01b8380548060200260200160405190810160405280929190818152602001828054801561077457602002820191906000526020600020905b815481526020019060010190808311610760575b50505050509350828054806020026020016040519081016040528092919081815260200182805480156107c657602002820191906000526020600020905b8154815260200190600101908083116107b2575b50505050509250985098509850985098505050505091939590929450565b60045460009081526002602090815260409182902060050180548351818402810184019094528084526060939283018282801561084057602002820191906000526020600020905b81548152602001906001019080831161082c575b5050505050905090565b600b818154811061085a57600080fd5b600091825260209091200154905081565b60045460009081526002602052604081205460ff166108e45760405162461bcd60e51b815260206004820152602a60248201527f74686520696e697469616c20737461746520686173206e6f74206265656e20636044820152691c99585d1959081e595d60b21b60648201526084015b60405180910390fd5b5060045490565b600c80546108f8906117a5565b80601f0160208091040260200160405190810160405280929190818152602001828054610924906117a5565b80156109715780601f1061094657610100808354040283529160200191610971565b820191906000526020600020905b81548152906001019060200180831161095457829003601f168201915b505050505081565b805161098c9060079060208401906113dd565b5050565b6003546109f05760405162461bcd60e51b815260206004820152602860248201527f746869732073746174656d616368696e6520686173206e6f74206265656e2073604482015267195d1d5c081e595d60c21b60648201526084016108db565b80610a026109fc61086b565b82610f61565b600480548382556000848152600260205260408120919291909101905b8154811015610a9857610a868386848481548110610a4d57634e487b7160e01b600052603260045260246000fd5b90600052602060002090600491828204019190066008029054906101000a90048015611461021767ffffffffffffffff1663ffffffff16565b80610a90816117e0565b915050610a1f565b506040805160808101825283815260208082018781523383850181815242606080870191825260018054808201825560009190915296517fb10e2d527612073b26eecdfd717e6a320cf44b4afac2b0732d9fcbe2b7fa0cf660049889029081019190915594517fb10e2d527612073b26eecdfd717e6a320cf44b4afac2b0732d9fcbe2b7fa0cf786015591517fb10e2d527612073b26eecdfd717e6a320cf44b4afac2b0732d9fcbe2b7fa0cf8850180546001600160a01b0319166001600160a01b03909216919091179055517fb10e2d527612073b26eecdfd717e6a320cf44b4afac2b0732d9fcbe2b7fa0cf99093019290925592548451938452918301869052928201527f483a31c379a4b707332853662276a3424ec44f0ccbfc20d78fd9d143694f7669910160405180910390a150505050565b6060600b805480602002602001604051908101604052809291908181526020018280548015610840576020028201919060005260206000209081548152602001906001019080831161082c575050505050905090565b600780546108f8906117a5565b8351610c4590600d9060208701906113dd565b50600e80546001600160a01b0319166001600160a01b038516179055600f8290558051610c799060079060208401906113dd565b5050505050565b60606003805480602002602001604051908101604052809291908181526020018280548015610840576020028201919060005260206000209081548152602001906001019080831161082c575050505050905090565b60018181548110610ce657600080fd5b60009182526020909120600490910201805460018201546002830154600390930154919350916001600160a01b03169084565b60008080806001548510610d655760405162461bcd60e51b8152602060048201526013602482015272496e646578206f7574206f6620626f756e647360681b60448201526064016108db565b60018581548110610d8657634e487b7160e01b600052603260045260246000fd5b90600052602060002090600402016000015460018681548110610db957634e487b7160e01b600052603260045260246000fd5b90600052602060002090600402016001015460018781548110610dec57634e487b7160e01b600052603260045260246000fd5b906000526020600020906004020160020160009054906101000a90046001600160a01b031660018881548110610e3257634e487b7160e01b600052603260045260246000fd5b90600052602060002090600402016003015493509350935093509193509193565b606060078054610e62906117a5565b80601f0160208091040260200160405190810160405280929190818152602001828054610e8e906117a5565b80156108405780601f10610eb057610100808354040283529160200191610840565b820191906000526020600020905b815481529060010190602001808311610ebe57509395945050505050565b60008281526009602052604090205460ff16610f3d576008805460018181019092557ff3f7a9fe364faab93b216da50a3214154f22a0a2b415b23a84c8169e8b636ee3018390556000838152600960205260409020805460ff191690911790555b6000828152600a602090815260409091208251610f5c928401906113dd565b505050565b60008281526002602052604090205460ff16610fdd5760405162461bcd60e51b815260206004820152603560248201527f7468652066726f6d20737461746520686173206e6f74206265656e20636f6e666044820152741a59dd5c9959081a5b881d1a1a5cc81bd89a9958dd605a1b60648201526084016108db565b60008181526002602052604090205460ff166110575760405162461bcd60e51b815260206004820152603360248201527f74686520746f20737461746520686173206e6f74206265656e20636f6e6669676044820152721d5c9959081a5b881d1a1a5cc81bd89a9958dd606a1b60648201526084016108db565b61106182826111a2565b6110e55760405162461bcd60e51b815260206004820152604960248201527f74686520726571756573746564206e657874207374617465206973206e6f742060448201527f616e20616c6c6f776564206e65787420737461746520666f72207468697320746064820152683930b739b4ba34b7b760b91b608482015260a4016108db565b6110ee8161125c565b6111985760405162461bcd60e51b815260206004820152606960248201527f7468652073656e646572206f662074686973207472616e73616374696f6e206460448201527f6f6573206e6f742068617665206120726f6c65207468617420616c6c6f77732060648201527f7472616e736974696f6e206265747765656e207468652066726f6d20616e6420608482015268746f2073746174657360b81b60a482015260c4016108db565b61098c82826112df565b6000828152600260205260408120600501815b8154811015611254576040805160208101869052016040516020818303038152906040528051906020012082828154811061120057634e487b7160e01b600052603260045260246000fd5b906000526020600020015460405160200161121d91815260200190565b6040516020818303038152906040528051906020012014156112425760019250611254565b8061124c816117e0565b9150506111b5565b505092915050565b6000818152600260208190526040822001805461127857600191505b60005b81548110156112d8576112b8338383815481106112a857634e487b7160e01b600052603260045260246000fd5b9060005260206000200154611338565b156112c657600192506112d8565b806112d0816117e0565b91505061127b565b5050919050565b6000818152600260205260408120600301905b8154811015611332576113208484848481548110610a4d57634e487b7160e01b600052603260045260246000fd5b8061132a816117e0565b9150506112f2565b50505050565b600080546001600160a01b031615806113d65750600054604051630dace25b60e31b81526001600160a01b0385811660048301523060248301526044820185905290911690636d6712d89060640160206040518083038186803b15801561139e57600080fd5b505afa1580156113b2573d6000803e3d6000fd5b505050506040513d601f19601f820116820180604052508101906113d69190611513565b9392505050565b8280546113e9906117a5565b90600052602060002090601f01602090048101928261140b5760008555611451565b82601f1061142457805160ff1916838001178555611451565b82800160010185558215611451579182015b82811115611451578251825591602001919060010190611436565b5061145d929150611477565b5090565b634e487b7160e01b600052605160045260246000fd5b5b8082111561145d5760008155600101611478565b600082601f83011261149c578081fd5b813567ffffffffffffffff808211156114b7576114b7611811565b604051601f8301601f19908116603f011681019082821181831017156114df576114df611811565b816040528381528660208588010111156114f7578485fd5b8360208701602083013792830160200193909352509392505050565b600060208284031215611524578081fd5b815180151581146113d6578182fd5b600060208284031215611544578081fd5b5035919050565b6000806040838503121561155d578081fd5b82359150602083013567ffffffffffffffff81111561157a578182fd5b6115868582860161148c565b9150509250929050565b6000602082840312156115a1578081fd5b813567ffffffffffffffff8111156115b7578182fd5b6115c38482850161148c565b949350505050565b600080600080608085870312156115e0578182fd5b843567ffffffffffffffff808211156115f7578384fd5b6116038883890161148c565b9550602087013591506001600160a01b0382168214611620578384fd5b909350604086013592506060860135908082111561163c578283fd5b506116498782880161148c565b91505092959194509250565b6000815180845260208085019450808401835b8381101561168457815187529582019590820190600101611668565b509495945050505050565b6000602082526113d66020830184611655565b6000868252602060a0818401526116bc60a0840188611655565b83810360408501526116ce8188611655565b84810360608601528651808252838801925090830190845b8181101561170c5783516001600160e01b031916835292840192918401916001016116e6565b505080935050505063ffffffff60e01b831660808301529695505050505050565b6000602080835283518082850152825b818110156117595785810183015185820160400152820161173d565b8181111561176a5783604083870101525b50601f01601f1916929092016040019392505050565b600060ff821660ff84168060ff0382111561179d5761179d6117fb565b019392505050565b600181811c908216806117b957607f821691505b602082108114156117da57634e487b7160e01b600052602260045260246000fd5b50919050565b60006000198214156117f4576117f46117fb565b5060010190565b634e487b7160e01b600052601160045260246000fd5b634e487b7160e01b600052604160045260246000fdfea2646970667358221220559291720abb26a189bd48fc9d1ffa6c33eb472c5a465ee509500371d38dfda764736f6c6343000803003374686520737461746520686173206e6f74206265656e206372656174656420794348414e47455f484552455f53544154455f54485245450000000000000000004348414e47455f484552455f53544154455f464f5552000000000000000000004348414e47455f484552455f53544154455f46495645000000000000000000004348414e47455f484552455f53544154455f54574f00000000000000000000004348414e47455f484552455f53544154455f4f4e450000000000000000000000",
  "immutableReferences": {},
  "source": "/**\n * Copyright (C) SettleMint NV - All Rights Reserved\n *\n * Use of this file is strictly prohibited without an active license agreement.\n * Distribution of this file, via any medium, is strictly prohibited.\n *\n * For license inquiries, contact hello@settlemint.com\n *\n * SPDX-License-Identifier: UNLICENSED\n */\n\npragma solidity ^0.8.0;\n\nimport '../_library//authentication/Secured.sol';\nimport '../_library//provenance/statemachine/StateMachine.sol';\nimport '../_library//utility/metadata/IpfsFieldContainer.sol';\nimport '../_library//utility/metadata/FileFieldContainer.sol';\nimport '../_library//utility/conversions/Converter.sol';\n\n/**\n * Generic\n *\n * A generic package exists of\n *  - a description of the generic state machine\n *\n * @title Generic State machine implementation\n */\ncontract Generic is Converter, StateMachine, IpfsFieldContainer, FileFieldContainer {\n  bytes32 public constant STATE_ONE = 'CHANGE_HERE_STATE_ONE';\n  bytes32 public constant STATE_TWO = 'CHANGE_HERE_STATE_TWO';\n  bytes32 public constant STATE_THREE = 'CHANGE_HERE_STATE_THREE';\n  bytes32 public constant STATE_FOUR = 'CHANGE_HERE_STATE_FOUR';\n  bytes32 public constant STATE_FIVE = 'CHANGE_HERE_STATE_FIVE';\n\n  bytes32 public constant ROLE_ADMIN = 'ROLE_ADMIN';\n  bytes32 public constant ROLE_ONE = 'CHANGE_HERE_ROLE_ONE';\n  bytes32 public constant ROLE_TWO = 'CHANGE_HERE_ROLE_TWO';\n  bytes32 public constant ROLE_THREE = 'CHANGE_HERE_ROLE_THREE';\n  bytes32 public constant ROLE_FOUR = 'CHANGE_HERE_ROLE_FOUR';\n\n  bytes32[] public _roles = [ROLE_ADMIN];\n\n  string public _uiFieldDefinitionsHash;\n  string private _param1;\n  address _param2;\n  uint256 private _param3;\n\n  constructor(\n    address gateKeeper,\n    string memory param1,\n    address param2,\n    uint256 param3,\n    string memory ipfsFieldContainerHash,\n    string memory uiFieldDefinitionsHash\n  ) Secured(gateKeeper) {\n    _param1 = param1;\n    _param2 = param2;\n    _param3 = param3;\n    _ipfsFieldContainerHash = ipfsFieldContainerHash;\n    _uiFieldDefinitionsHash = uiFieldDefinitionsHash;\n    setupStateMachine();\n  }\n\n  /**\n   * @notice Updates state machine properties\n   * @param param1 the first parameter of the state machine\n   * @param param2 the second parameter of the state machine\n   * @param param3 the third parameter of the state machine\n   * @param ipfsFieldContainerHash ipfs hash of vehicle metadata\n   */\n  function edit(\n    string memory param1,\n    address param2,\n    uint256 param3,\n    string memory ipfsFieldContainerHash\n  ) public {\n    _param1 = param1;\n    _param2 = param2;\n    _param3 = param3;\n    _ipfsFieldContainerHash = ipfsFieldContainerHash;\n  }\n\n  /**\n   * @notice Returns all the roles for this contract\n   * @return bytes32[] array of raw bytes representing the roles\n   */\n  function getRoles() public view returns (bytes32[] memory) {\n    return _roles;\n  }\n\n  function setupStateMachine() internal override {\n    //create all states\n    createState(STATE_ONE);\n    createState(STATE_TWO);\n    createState(STATE_THREE);\n    createState(STATE_FOUR);\n    createState(STATE_FIVE);\n\n    // add properties\n    // STATE_ONE\n    addNextStateForState(STATE_ONE, STATE_TWO);\n    addRoleForState(STATE_ONE, ROLE_ADMIN);\n\n    // STATE_TWO\n    addNextStateForState(STATE_TWO, STATE_THREE);\n    addRoleForState(STATE_TWO, ROLE_ADMIN);\n    addRoleForState(STATE_TWO, ROLE_ONE);\n\n    // STATE_THREE\n    addNextStateForState(STATE_THREE, STATE_FOUR);\n    addRoleForState(STATE_THREE, ROLE_ADMIN);\n    addRoleForState(STATE_THREE, ROLE_TWO);\n\n    // STATE_FOUR\n    addNextStateForState(STATE_FOUR, STATE_FIVE);\n    addRoleForState(STATE_FOUR, ROLE_ADMIN);\n    addRoleForState(STATE_FOUR, ROLE_THREE);\n\n    // STATE_FIVE\n    addRoleForState(STATE_FIVE, ROLE_FOUR);\n\n    setInitialState(STATE_ONE);\n  }\n}\n",
  "sourcePath": "/home/coder/project/contracts/genericstatemachine/Generic.sol",
  "compiler": {
    "name": "solc",
    "version": "0.8.3+commit.8d00100c.Emscripten.clang"
  },
  "schemaVersion": "3.4.3",
  "updatedAt": "2021-09-21T08:20:59.157Z",
  "devdoc": {
    "kind": "dev",
    "methods": {
      "edit(string,address,uint256,string)": {
        "params": {
          "ipfsFieldContainerHash": "ipfs hash of vehicle metadata",
          "param1": "the first parameter of the state machine",
          "param2": "the second parameter of the state machine",
          "param3": "the third parameter of the state machine"
        }
      },
      "getCurrentState()": {
        "details": "Requires the current state to be configured before calling this function"
      },
      "getHistory(uint256)": {
        "details": "Requires the index to be within the bounds of the history array"
      },
      "getRoles()": {
        "returns": {
          "_0": "bytes32[] array of raw bytes representing the roles"
        }
      },
      "transitionState(bytes32)": {
        "details": "Emits a Transition event after a successful transition."
      }
    },
    "title": "Generic State machine implementation",
    "version": 1
  },
  "userdoc": {
    "kind": "user",
    "methods": {
      "edit(string,address,uint256,string)": {
        "notice": "Updates state machine properties"
      },
      "getAllStates()": {
        "notice": "Returns a list of all the possible states of this object."
      },
      "getCurrentState()": {
        "notice": "Returns the name of the current state of this object."
      },
      "getHistory(uint256)": {
        "notice": "Returns history as tuple for given index."
      },
      "getHistoryLength()": {
        "notice": "Returns the length of the history"
      },
      "getNextStates()": {
        "notice": "Returns a list of all the possible next states of the current state."
      },
      "getRoles()": {
        "notice": "Returns all the roles for this contract"
      },
      "getState(bytes32)": {
        "notice": "Returns state as tuple for give state."
      },
      "transitionState(bytes32)": {
        "notice": "Transitions the state and executes all callbacks."
      }
    },
    "notice": "Generic A generic package exists of  - a description of the generic state machine",
    "version": 1
  }
}