{
  "contractName": "Identity",
  "abi": [
    {
      "inputs": [
        {
          "internalType": "address",
          "name": "gatekeeper",
          "type": "address"
        }
      ],
      "stateMutability": "nonpayable",
      "type": "constructor"
    },
    {
      "anonymous": false,
      "inputs": [
        {
          "indexed": false,
          "internalType": "string",
          "name": "DID",
          "type": "string"
        },
        {
          "indexed": false,
          "internalType": "address",
          "name": "identity",
          "type": "address"
        }
      ],
      "name": "ClaimAsserted",
      "type": "event"
    },
    {
      "anonymous": false,
      "inputs": [
        {
          "indexed": false,
          "internalType": "string",
          "name": "DID",
          "type": "string"
        },
        {
          "indexed": false,
          "internalType": "bytes32",
          "name": "kind",
          "type": "bytes32"
        },
        {
          "indexed": false,
          "internalType": "string",
          "name": "identifier",
          "type": "string"
        }
      ],
      "name": "ClaimWithIdentifierCreated",
      "type": "event"
    },
    {
      "anonymous": false,
      "inputs": [
        {
          "indexed": false,
          "internalType": "string",
          "name": "DID",
          "type": "string"
        },
        {
          "indexed": false,
          "internalType": "string",
          "name": "identifier",
          "type": "string"
        }
      ],
      "name": "ClaimWithIdentifierUpdated",
      "type": "event"
    },
    {
      "inputs": [],
      "name": "DIGITAL_TWIN",
      "outputs": [
        {
          "internalType": "bytes32",
          "name": "",
          "type": "bytes32"
        }
      ],
      "stateMutability": "view",
      "type": "function"
    },
    {
      "inputs": [],
      "name": "MANAGE_DIGITALTWIN_ROLE",
      "outputs": [
        {
          "internalType": "bytes32",
          "name": "",
          "type": "bytes32"
        }
      ],
      "stateMutability": "view",
      "type": "function"
    },
    {
      "inputs": [],
      "name": "UPDATE_UIFIELDDEFINITIONS_ROLE",
      "outputs": [
        {
          "internalType": "bytes32",
          "name": "",
          "type": "bytes32"
        }
      ],
      "stateMutability": "view",
      "type": "function"
    },
    {
      "inputs": [],
      "name": "UPGRADEABLE_REGISTRY_TARGET",
      "outputs": [
        {
          "internalType": "bytes32",
          "name": "",
          "type": "bytes32"
        }
      ],
      "stateMutability": "view",
      "type": "function"
    },
    {
      "inputs": [],
      "name": "_uiFieldDefinitionsHash",
      "outputs": [
        {
          "internalType": "string",
          "name": "",
          "type": "string"
        }
      ],
      "stateMutability": "view",
      "type": "function"
    },
    {
      "inputs": [
        {
          "internalType": "string",
          "name": "DID",
          "type": "string"
        }
      ],
      "name": "claimExists",
      "outputs": [
        {
          "internalType": "bool",
          "name": "",
          "type": "bool"
        }
      ],
      "stateMutability": "view",
      "type": "function"
    },
    {
      "inputs": [],
      "name": "gateKeeper",
      "outputs": [
        {
          "internalType": "contract GateKeeper",
          "name": "",
          "type": "address"
        }
      ],
      "stateMutability": "view",
      "type": "function"
    },
    {
      "inputs": [
        {
          "internalType": "string",
          "name": "DID",
          "type": "string"
        }
      ],
      "name": "getClaimWithIdentifier",
      "outputs": [
        {
          "internalType": "string",
          "name": "identifier",
          "type": "string"
        }
      ],
      "stateMutability": "view",
      "type": "function"
    },
    {
      "inputs": [
        {
          "internalType": "bytes32",
          "name": "idNumber",
          "type": "bytes32"
        },
        {
          "internalType": "bytes32",
          "name": "kind",
          "type": "bytes32"
        },
        {
          "internalType": "string",
          "name": "ipfsHash",
          "type": "string"
        }
      ],
      "name": "create",
      "outputs": [],
      "stateMutability": "nonpayable",
      "type": "function"
    },
    {
      "inputs": [
        {
          "internalType": "bytes32",
          "name": "idNumber",
          "type": "bytes32"
        },
        {
          "internalType": "string",
          "name": "ipfsHash",
          "type": "string"
        }
      ],
      "name": "edit",
      "outputs": [],
      "stateMutability": "nonpayable",
      "type": "function"
    },
    {
      "inputs": [
        {
          "internalType": "bytes32",
          "name": "idNumber",
          "type": "bytes32"
        }
      ],
      "name": "get",
      "outputs": [
        {
          "internalType": "string",
          "name": "ipfsHash",
          "type": "string"
        },
        {
          "internalType": "bytes32",
          "name": "Nomor_Identitas",
          "type": "bytes32"
        }
      ],
      "stateMutability": "view",
      "type": "function"
    },
    {
      "inputs": [],
      "name": "getIndexLength",
      "outputs": [
        {
          "internalType": "uint256",
          "name": "length",
          "type": "uint256"
        }
      ],
      "stateMutability": "view",
      "type": "function"
    },
    {
      "inputs": [
        {
          "internalType": "uint256",
          "name": "index",
          "type": "uint256"
        }
      ],
      "name": "getByIndex",
      "outputs": [
        {
          "components": [
            {
              "internalType": "string",
              "name": "DID",
              "type": "string"
            },
            {
              "internalType": "address",
              "name": "owner",
              "type": "address"
            },
            {
              "internalType": "bytes32",
              "name": "kind",
              "type": "bytes32"
            },
            {
              "internalType": "address[]",
              "name": "assertions",
              "type": "address[]"
            },
            {
              "internalType": "uint256",
              "name": "createdAt",
              "type": "uint256"
            },
            {
              "internalType": "string",
              "name": "identifier",
              "type": "string"
            }
          ],
          "internalType": "struct DigitalTwin.Claim",
          "name": "item",
          "type": "tuple"
        }
      ],
      "stateMutability": "view",
      "type": "function"
    },
    {
      "inputs": [
        {
          "internalType": "string",
          "name": "DID",
          "type": "string"
        }
      ],
      "name": "getByKey",
      "outputs": [
        {
          "components": [
            {
              "internalType": "string",
              "name": "DID",
              "type": "string"
            },
            {
              "internalType": "address",
              "name": "owner",
              "type": "address"
            },
            {
              "internalType": "bytes32",
              "name": "kind",
              "type": "bytes32"
            },
            {
              "internalType": "address[]",
              "name": "assertions",
              "type": "address[]"
            },
            {
              "internalType": "uint256",
              "name": "createdAt",
              "type": "uint256"
            },
            {
              "internalType": "string",
              "name": "identifier",
              "type": "string"
            }
          ],
          "internalType": "struct DigitalTwin.Claim",
          "name": "item",
          "type": "tuple"
        }
      ],
      "stateMutability": "view",
      "type": "function"
    },
    {
      "inputs": [],
      "name": "getContents",
      "outputs": [
        {
          "components": [
            {
              "internalType": "string",
              "name": "DID",
              "type": "string"
            },
            {
              "internalType": "address",
              "name": "owner",
              "type": "address"
            },
            {
              "internalType": "bytes32",
              "name": "kind",
              "type": "bytes32"
            },
            {
              "internalType": "address[]",
              "name": "assertions",
              "type": "address[]"
            },
            {
              "internalType": "uint256",
              "name": "createdAt",
              "type": "uint256"
            },
            {
              "internalType": "string",
              "name": "identifier",
              "type": "string"
            }
          ],
          "internalType": "struct DigitalTwin.Claim[]",
          "name": "items",
          "type": "tuple[]"
        }
      ],
      "stateMutability": "view",
      "type": "function"
    },
    {
      "inputs": [
        {
          "internalType": "string",
          "name": "uiFieldDefinitionsHash",
          "type": "string"
        }
      ],
      "name": "setUIFieldDefinitionsHash",
      "outputs": [],
      "stateMutability": "nonpayable",
      "type": "function"
    },
    {
      "inputs": [],
      "name": "getUIFieldDefinitionsHash",
      "outputs": [
        {
          "internalType": "string",
          "name": "",
          "type": "string"
        }
      ],
      "stateMutability": "view",
      "type": "function"
    }
  ],
  "bytecode": "0x608060405234801561001057600080fd5b50604051611d4b380380611d4b83398101604081905261002f91610054565b600280546001600160a01b0319166001600160a01b0392909216919091179055610082565b600060208284031215610065578081fd5b81516001600160a01b038116811461007b578182fd5b9392505050565b611cba806100916000396000f3fe608060405234801561001057600080fd5b506004361061010b5760003560e01c80634de6740e116100a25780638eaa6ac0116100715780638eaa6ac01461024b578063a303dbce1461026c578063afdfbd9314610293578063e1ba7d01146102b4578063e5771d1e146102bc5761010b565b80634de6740e146101fa578063555093861461020257806373e2567f1461021557806382f68683146102385761010b565b806332bb534f116100de57806332bb534f14610192578063459b9af9146101b257806345d61ded146101ba5780634bcb3cba146101e55761010b565b80631f0f992a1461011057806323677ae21461014a5780632aac40391461015f5780632d883a731461017f575b600080fd5b6101377f5550444154455f55494649454c44444546494e4954494f4e535f524f4c45000081565b6040519081526020015b60405180910390f35b6101526102d2565b6040516101419190611a3b565b61017261016d366004611871565b6104fa565b6040516101419190611b5e565b61017261018d3660046117c6565b610742565b6101a56101a0366004611871565b610954565b6040516101419190611a9c565b6101a5610ab1565b6002546101cd906001600160a01b031681565b6040516001600160a01b039091168152602001610141565b6101f86101f336600461182c565b610b43565b005b6101a5610c0c565b6101f86102103660046117de565b610c9a565b610228610223366004611871565b610d21565b6040519015158152602001610141565b6101f8610246366004611871565b610d4b565b61025e6102593660046117c6565b610dc8565b604051610141929190611ad9565b6101377f5550475241444541424c455f52454749535452595f544152474554000000000081565b610137764d414e4147455f4449474954414c5457494e5f524f4c4560481b81565b600054610137565b6101376b2224a3a4aa20a62faa2ba4a760a11b81565b60606000805480602002602001604051908101604052809291908181526020016000905b828210156104f157838290600052602060002090600602016040518060c001604052908160008201805461032990611bb4565b80601f016020809104026020016040519081016040528092919081815260200182805461035590611bb4565b80156103a25780601f10610377576101008083540402835291602001916103a2565b820191906000526020600020905b81548152906001019060200180831161038557829003601f168201915b505050505081526020016001820160009054906101000a90046001600160a01b03166001600160a01b03166001600160a01b03168152602001600282015481526020016003820180548060200260200160405190810160405280929190818152602001828054801561043d57602002820191906000526020600020905b81546001600160a01b0316815260019091019060200180831161041f575b505050505081526020016004820154815260200160058201805461046090611bb4565b80601f016020809104026020016040519081016040528092919081815260200182805461048c90611bb4565b80156104d95780601f106104ae576101008083540402835291602001916104d9565b820191906000526020600020905b8154815290600101906020018083116104bc57829003601f168201915b505050505081525050815260200190600101906102f6565b50505050905090565b610502611644565b60006001836040516105149190611a1f565b908152604051908190036020019020549050801561073c576000610539600183611b71565b8154811061055757634e487b7160e01b600052603260045260246000fd5b90600052602060002090600602016040518060c001604052908160008201805461058090611bb4565b80601f01602080910402602001604051908101604052809291908181526020018280546105ac90611bb4565b80156105f95780601f106105ce576101008083540402835291602001916105f9565b820191906000526020600020905b8154815290600101906020018083116105dc57829003601f168201915b505050505081526020016001820160009054906101000a90046001600160a01b03166001600160a01b03166001600160a01b03168152602001600282015481526020016003820180548060200260200160405190810160405280929190818152602001828054801561069457602002820191906000526020600020905b81546001600160a01b03168152600190910190602001808311610676575b50505050508152602001600482015481526020016005820180546106b790611bb4565b80601f01602080910402602001604051908101604052809291908181526020018280546106e390611bb4565b80156107305780601f1061070557610100808354040283529160200191610730565b820191906000526020600020905b81548152906001019060200180831161071357829003601f168201915b50505050508152505091505b50919050565b61074a611644565b6000828154811061076b57634e487b7160e01b600052603260045260246000fd5b90600052602060002090600602016040518060c001604052908160008201805461079490611bb4565b80601f01602080910402602001604051908101604052809291908181526020018280546107c090611bb4565b801561080d5780601f106107e25761010080835404028352916020019161080d565b820191906000526020600020905b8154815290600101906020018083116107f057829003601f168201915b505050505081526020016001820160009054906101000a90046001600160a01b03166001600160a01b03166001600160a01b0316815260200160028201548152602001600382018054806020026020016040519081016040528092919081815260200182805480156108a857602002820191906000526020600020905b81546001600160a01b0316815260019091019060200180831161088a575b50505050508152602001600482015481526020016005820180546108cb90611bb4565b80601f01602080910402602001604051908101604052809291908181526020018280546108f790611bb4565b80156109445780601f1061091957610100808354040283529160200191610944565b820191906000526020600020905b81548152906001019060200180831161092757829003601f168201915b5050505050815250509050919050565b60606001826040516109669190611a1f565b908152602001604051809103902054600014156109bb5760405162461bcd60e51b815260206004820152600e60248201526d556e6b6e6f776e206669656c642160901b60448201526064015b60405180910390fd5b60006001836040516109cd9190611a1f565b9081526040519081900360200190205490506000806109ed600184611b71565b81548110610a0b57634e487b7160e01b600052603260045260246000fd5b90600052602060002090600602019050806005018054610a2a90611bb4565b80601f0160208091040260200160405190810160405280929190818152602001828054610a5690611bb4565b8015610aa35780601f10610a7857610100808354040283529160200191610aa3565b820191906000526020600020905b815481529060010190602001808311610a8657829003601f168201915b505050505092505050919050565b606060038054610ac090611bb4565b80601f0160208091040260200160405190810160405280929190818152602001828054610aec90611bb4565b8015610b395780601f10610b0e57610100808354040283529160200191610b39565b820191906000526020600020905b815481529060010190602001808311610b1c57829003601f168201915b5050505050905090565b764d414e4147455f4449474954414c5457494e5f524f4c4560481b604051806060016040528060298152602001611c5c60299139610b813383610e96565b8190610ba05760405162461bcd60e51b81526004016109b29190611a9c565b506000610bac85610f3d565b9050610bb781610d21565b610bfb5760405162461bcd60e51b8152602060048201526015602482015274436c61696d20646f6573206e6f742065786973747360581b60448201526064016109b2565b610c058185610f77565b5050505050565b60038054610c1990611bb4565b80601f0160208091040260200160405190810160405280929190818152602001828054610c4590611bb4565b8015610c925780601f10610c6757610100808354040283529160200191610c92565b820191906000526020600020905b815481529060010190602001808311610c7557829003601f168201915b505050505081565b764d414e4147455f4449474954414c5457494e5f524f4c4560481b604051806060016040528060298152602001611c5c60299139610cd83383610e96565b8190610cf75760405162461bcd60e51b81526004016109b29190611a9c565b506000610d0386610f3d565b9050610d10818686611092565b610d19816111a4565b505050505050565b600080600183604051610d349190611a1f565b908152602001604051809103902054119050919050565b7f5550444154455f55494649454c44444546494e4954494f4e535f524f4c4500006040518060600160405280602b8152602001611c31602b9139610d8f3383610e96565b8190610dae5760405162461bcd60e51b81526004016109b29190611a9c565b508251610dc2906003906020860190611686565b50505050565b60606000764d414e4147455f4449474954414c5457494e5f524f4c4560481b604051806060016040528060298152602001611c5c60299139610e0a3383610e96565b8190610e295760405162461bcd60e51b81526004016109b29190611a9c565b506000610e3586610f3d565b9050610e4081610d21565b610e845760405162461bcd60e51b8152602060048201526015602482015274436c61696d20646f6573206e6f742065786973747360581b60448201526064016109b2565b610e8d81610954565b96945050505050565b6002546000906001600160a01b03161580610f365750600254604051630dace25b60e31b81526001600160a01b0385811660048301523060248301526044820185905290911690636d6712d89060640160206040518083038186803b158015610efe57600080fd5b505afa158015610f12573d6000803e3d6000fd5b505050506040513d601f19601f82011682018060405250810190610f3691906117a6565b9392505050565b60408051713234b21d36b4b73a1d34b232b73a34ba3c9d60711b602082015260328082019390935281518082039093018352605201905290565b600182604051610f879190611a1f565b90815260200160405180910390205460001415610fd65760405162461bcd60e51b815260206004820152600d60248201526c155b9adb9bdddb88199a595b19609a1b60448201526064016109b2565b6000600183604051610fe89190611a1f565b908152604051908190036020019020549050600080611008600184611b71565b8154811061102657634e487b7160e01b600052603260045260246000fd5b906000526020600020906006020190508281600501908051906020019061104e929190611686565b506040517f0d39cc1c3667b7fe1ef4d61bbe18f620f60a5422b54582bd8841bec37ea4a062906110849083906005820190611b30565b60405180910390a150505050565b604080516001808252818301909252600091816020015b60608152602001906001900390816110a957905050905083816000815181106110e257634e487b7160e01b600052603260045260246000fd5b6020908102919091010152604080516001808252818301909252600091816020016020820280368337019050509050838160008151811061113357634e487b7160e01b600052603260045260246000fd5b6020908102919091010152604080516001808252818301909252600091816020015b6060815260200190600190039081611155579050509050838160008151811061118e57634e487b7160e01b600052603260045260246000fd5b6020026020010181905250610d198383836112cb565b6001816040516111b49190611a1f565b908152602001604051809103902054600014156112035760405162461bcd60e51b815260206004820152600d60248201526c155b9adb9bdddb88199a595b19609a1b60448201526064016109b2565b60006001826040516112159190611a1f565b908152604051908190036020019020549050600080611235600184611b71565b8154811061125357634e487b7160e01b600052603260045260246000fd5b6000918252602080832060036006909302019182018054600181018255908452922090910180546001600160a01b031916339081179091556040519192507fc2f8e63d5a1dc50a65c21701f4fef8539c3817bb8e594d018f5b28ee4feea946916112be918691611aaf565b60405180910390a1505050565b815183511461131c5760405162461bcd60e51b815260206004820152601a60248201527f496e76616c6964206172726179206c656e67746820696e70757400000000000060448201526064016109b2565b805182511461136d5760405162461bcd60e51b815260206004820152601a60248201527f496e76616c6964206172726179206c656e67746820696e70757400000000000060448201526064016109b2565b60008351116113b55760405162461bcd60e51b815260206004820152601460248201527322b6b83a3c9030b933bab6b2b73a1032b93937b960611b60448201526064016109b2565b60005b8351811015610dc25760008482815181106113e357634e487b7160e01b600052603260045260246000fd5b6020026020010151905060008460008151811061141057634e487b7160e01b600052603260045260246000fd5b6020026020010151905060008460008151811061143d57634e487b7160e01b600052603260045260246000fd5b6020908102919091010151905060008351116114895760405162461bcd60e51b815260206004820152600b60248201526a125b9d985b1a590811125160aa1b60448201526064016109b2565b60008151116114cf5760405162461bcd60e51b815260206004820152601260248201527124b73b30b634b21034b232b73a34b334b2b960711b60448201526064016109b2565b6001836040516114df9190611a1f565b9081526020016040518091039020546000146115345760405162461bcd60e51b8152602060048201526014602482015273436c61696d20616c72656164792065786973747360601b60448201526064016109b2565b600080546001908101808355828052919081906115519084611b71565b8154811061156f57634e487b7160e01b600052603260045260246000fd5b60009182526020918290208751600690920201925061159391839190880190611686565b5082516115a99060058301906020860190611686565b5060028101849055426004820155600180820180546001600160a01b031916331790556040518391906115dd908890611a1f565b908152604051908190036020018120919091557f4342c4003765604518b88fd0bf07744867878015d9b7a72336bb25229ba0cc779061162490839087906005830190611afb565b60405180910390a15050505050808061163c90611be9565b9150506113b8565b6040518060c001604052806060815260200160006001600160a01b03168152602001600080191681526020016060815260200160008152602001606081525090565b82805461169290611bb4565b90600052602060002090601f0160209004810192826116b457600085556116fa565b82601f106116cd57805160ff19168380011785556116fa565b828001600101855582156116fa579182015b828111156116fa5782518255916020019190600101906116df565b5061170692915061170a565b5090565b5b80821115611706576000815560010161170b565b600082601f83011261172f578081fd5b813567ffffffffffffffff8082111561174a5761174a611c1a565b604051601f8301601f19908116603f0116810190828211818310171561177257611772611c1a565b8160405283815286602085880101111561178a578485fd5b8360208701602083013792830160200193909352509392505050565b6000602082840312156117b7578081fd5b81518015158114610f36578182fd5b6000602082840312156117d7578081fd5b5035919050565b6000806000606084860312156117f2578182fd5b8335925060208401359150604084013567ffffffffffffffff811115611816578182fd5b6118228682870161171f565b9150509250925092565b6000806040838503121561183e578182fd5b82359150602083013567ffffffffffffffff81111561185b578182fd5b6118678582860161171f565b9150509250929050565b600060208284031215611882578081fd5b813567ffffffffffffffff811115611898578182fd5b6118a48482850161171f565b949350505050565b600081518084526118c4816020860160208601611b88565b601f01601f19169290920160200192915050565b8054600090600181811c90808316806118f257607f831692505b602080841082141561191257634e487b7160e01b86526022600452602486fd5b8388526020880182801561192d576001811461193e57611969565b60ff19871682528282019750611969565b60008981526020902060005b878110156119635781548482015290860190840161194a565b83019850505b5050505050505092915050565b6000815160c0845261198b60c08501826118ac565b6020848101516001600160a01b039081168783015260408087015190880152606080870151888503918901919091528051808552908301945091928592908401905b808410156119ef578551831682529484019460019390930192908401906119cd565b506080870151608089015260a0870151945087810360a0890152611a1381866118ac565b98975050505050505050565b60008251611a31818460208701611b88565b9190910192915050565b6000602080830181845280855180835260408601915060408160051b8701019250838701855b82811015611a8f57603f19888603018452611a7d858351611976565b94509285019290850190600101611a61565b5092979650505050505050565b600060208252610f3660208301846118ac565b600060408252611ac260408301856118ac565b905060018060a01b03831660208301529392505050565b600060408252611aec60408301856118ac565b90508260208301529392505050565b600060608252611b0e60608301866118d8565b8460208401528281036040840152611b2681856118d8565b9695505050505050565b600060408252611b4360408301856118d8565b8281036020840152611b5581856118d8565b95945050505050565b600060208252610f366020830184611976565b600082821015611b8357611b83611c04565b500390565b60005b83811015611ba3578181015183820152602001611b8b565b83811115610dc25750506000910152565b600181811c90821680611bc857607f821691505b6020821081141561073c57634e487b7160e01b600052602260045260246000fd5b6000600019821415611bfd57611bfd611c04565b5060010190565b634e487b7160e01b600052601160045260246000fd5b634e487b7160e01b600052604160045260246000fdfe53656e646572206e65656473205550444154455f55494649454c44444546494e4954494f4e535f524f4c4553656e646572206e65656473204d414e4147455f4449474954414c5457494e5f524f4c4520526f6c65a2646970667358221220bf970eeda1960dbf7685e5f5d1e6b09db0793a519e2851d166fd4714079ec87b64736f6c63430008030033",
  "immutableReferences": {},
  "source": "/**\n * Copyright (C) SettleMint NV - All Rights Reserved\n *\n * Use of this file is strictly prohibited without an active license agreement.\n * Distribution of this file, via any medium, is strictly prohibited.\n *\n * For license inquiries, contact hello@settlemint.com\n *\n * SPDX-License-Identifier: UNLICENSED\n */\n\npragma solidity ^0.8.0;\n\nimport '../_library//provenance/digitaltwin/DigitalTwin.sol';\nimport '../_library//authentication/Secured.sol';\n\ncontract Identity is DigitalTwin, Secured {\n  bytes32 public constant MANAGE_DIGITALTWIN_ROLE = 'MANAGE_DIGITALTWIN_ROLE';\n  bytes32 public constant UPDATE_UIFIELDDEFINITIONS_ROLE = 'UPDATE_UIFIELDDEFINITIONS_ROLE';\n\n  constructor(address gatekeeper) Secured(gatekeeper) {}\n\n  function create(\n    bytes32 idNumber,\n    bytes32 kind,\n    string memory ipfsHash\n  ) public authWithCustomReason(MANAGE_DIGITALTWIN_ROLE, 'Sender needs MANAGE_DIGITALTWIN_ROLE Role') {\n    string memory DID = generateDID(idNumber);\n\n    addClaimWithIdentifier(DID, kind, ipfsHash);\n    assertClaim(DID);\n  }\n\n  function generateDID(bytes32 idNumber) internal pure returns (string memory) {\n    return string(abi.encodePacked('did:mint:identity:', idNumber));\n  }\n\n  function edit(bytes32 idNumber, string memory ipfsHash)\n    public\n    authWithCustomReason(MANAGE_DIGITALTWIN_ROLE, 'Sender needs MANAGE_DIGITALTWIN_ROLE Role')\n  {\n    string memory DID = generateDID(idNumber);\n    require(claimExists(DID), 'Claim does not exists');\n\n    editClaimWithIdentifier(DID, ipfsHash);\n  }\n\n  function get(bytes32 idNumber)\n    public\n    view\n    authWithCustomReason(MANAGE_DIGITALTWIN_ROLE, 'Sender needs MANAGE_DIGITALTWIN_ROLE Role')\n    returns (string memory ipfsHash, bytes32 Nomor_Identitas)\n  {\n    string memory DID = generateDID(idNumber);\n    require(claimExists(DID), 'Claim does not exists');\n\n    return (getClaimWithIdentifier(DID), idNumber);\n  }\n\n  /**\n   * @notice returns the number of claims\n   */\n  function getIndexLength() public view returns (uint256 length) {\n    length = _claimRegistry.length;\n  }\n\n  /**\n   * @notice returns claim at index\n   * @param index index of the claim to be retrieved\n   */\n  function getByIndex(uint256 index) public view returns (Claim memory item) {\n    item = _claimRegistry[index];\n  }\n\n  /**\n   * @notice returns claim for given DID\n   * @param DID DID of the claim to be retrieved\n   */\n  function getByKey(string memory DID) public view returns (Claim memory item) {\n    uint256 claimIndex1B = _claimIndex[DID];\n    if (claimIndex1B > 0) {\n      item = _claimRegistry[claimIndex1B - 1];\n    }\n  }\n\n  /**\n   * @notice returns all claims\n   */\n  function getContents() public view returns (Claim[] memory items) {\n    items = _claimRegistry;\n  }\n\n  //////\n  // UI Field Definition Functions\n  //////\n  string public _uiFieldDefinitionsHash;\n\n  /**\n   * @notice Set the UI field definition hash\n   * @param uiFieldDefinitionsHash IPFS hash containing the UI field definitions JSON\n   */\n  function setUIFieldDefinitionsHash(string memory uiFieldDefinitionsHash)\n    public\n    authWithCustomReason(UPDATE_UIFIELDDEFINITIONS_ROLE, 'Sender needs UPDATE_UIFIELDDEFINITIONS_ROLE')\n  {\n    _uiFieldDefinitionsHash = uiFieldDefinitionsHash;\n  }\n\n  /**\n   * @notice Returns the UI field definition hash\n   */\n  function getUIFieldDefinitionsHash() public view returns (string memory) {\n    return _uiFieldDefinitionsHash;\n  }\n}\n",
  "sourcePath": "/home/coder/project/contracts/identity/Identity.sol",
  "compiler": {
    "name": "solc",
    "version": "0.8.3+commit.8d00100c.Emscripten.clang"
  },
  "schemaVersion": "3.4.3",
  "updatedAt": "2021-09-21T08:26:12.158Z",
  "networkType": "ethereum",
  "devdoc": {
    "kind": "dev",
    "methods": {
      "getByIndex(uint256)": {
        "params": {
          "index": "index of the claim to be retrieved"
        }
      },
      "getByKey(string)": {
        "params": {
          "DID": "DID of the claim to be retrieved"
        }
      },
      "setUIFieldDefinitionsHash(string)": {
        "params": {
          "uiFieldDefinitionsHash": "IPFS hash containing the UI field definitions JSON"
        }
      }
    },
    "version": 1
  },
  "userdoc": {
    "events": {
      "ClaimWithIdentifierCreated(string,bytes32,string)": {
        "notice": "Events"
      }
    },
    "kind": "user",
    "methods": {
      "getByIndex(uint256)": {
        "notice": "returns claim at index"
      },
      "getByKey(string)": {
        "notice": "returns claim for given DID"
      },
      "getContents()": {
        "notice": "returns all claims"
      },
      "getIndexLength()": {
        "notice": "returns the number of claims"
      },
      "getUIFieldDefinitionsHash()": {
        "notice": "Returns the UI field definition hash"
      },
      "setUIFieldDefinitionsHash(string)": {
        "notice": "Set the UI field definition hash"
      }
    },
    "version": 1
  }
}