{
  "contractName": "IERC20TokenFactory",
  "abi": [
    {
      "inputs": [
        {
          "internalType": "address",
          "name": "tokenRegistry",
          "type": "address"
        },
        {
          "internalType": "address",
          "name": "gateKeeper",
          "type": "address"
        }
      ],
      "stateMutability": "nonpayable",
      "type": "constructor"
    },
    {
      "anonymous": false,
      "inputs": [
        {
          "indexed": false,
          "internalType": "address",
          "name": "_address",
          "type": "address"
        },
        {
          "indexed": false,
          "internalType": "string",
          "name": "_name",
          "type": "string"
        }
      ],
      "name": "TokenCreated",
      "type": "event"
    },
    {
      "inputs": [],
      "name": "CREATE_TOKEN_ROLE",
      "outputs": [
        {
          "internalType": "bytes32",
          "name": "",
          "type": "bytes32"
        }
      ],
      "stateMutability": "view",
      "type": "function"
    },
    {
      "inputs": [],
      "name": "gateKeeper",
      "outputs": [
        {
          "internalType": "contract GateKeeper",
          "name": "",
          "type": "address"
        }
      ],
      "stateMutability": "view",
      "type": "function"
    }
  ],
  "bytecode": "0x608060405234801561001057600080fd5b5060405161018238038061018283398101604081905261002f9161007f565b600080546001600160a01b039283166001600160a01b031991821617909155600180549390921692169190911790556100b1565b80516001600160a01b038116811461007a57600080fd5b919050565b60008060408385031215610091578182fd5b61009a83610063565b91506100a860208401610063565b90509250929050565b60c3806100bf6000396000f3fe6080604052348015600f57600080fd5b506004361060325760003560e01c806345d61ded146037578063b4d8c2a4146066575b600080fd5b6000546049906001600160a01b031681565b6040516001600160a01b0390911681526020015b60405180910390f35b6080704352454154455f544f4b454e5f524f4c4560781b81565b604051908152602001605d56fea2646970667358221220608eb592f1596a5b905e3609e598512ff49a44095c7a263b60883aa328737ccd64736f6c63430008030033",
  "immutableReferences": {},
  "source": "// SPDX-License-Identifier: UNLICENSED\n/**\n * Copyright (C) SettleMint NV - All Rights Reserved\n *\n * Use of this file is strictly prohibited without an active license agreement.\n * Distribution of this file, via any medium, is strictly prohibited.\n *\n * For license inquiries, contact hello@settlemint.com\n */\n\npragma solidity ^0.8.0;\n\nimport '../../authentication/Secured.sol';\nimport './IERC20Token.sol';\nimport './IERC20TokenRegistry.sol';\n\ncontract IERC20TokenFactory is Secured {\n  bytes32 public constant CREATE_TOKEN_ROLE = 'CREATE_TOKEN_ROLE';\n  IERC20TokenRegistry internal _tokenRegistry;\n\n  event TokenCreated(address _address, string _name);\n\n  constructor(address tokenRegistry, address gateKeeper) Secured(gateKeeper) {\n    _tokenRegistry = IERC20TokenRegistry(tokenRegistry);\n  }\n}\n",
  "sourcePath": "/home/coder/project/contracts/_library/tokens/ERC20/IERC20TokenFactory.sol",
  "compiler": {
    "name": "solc",
    "version": "0.8.3+commit.8d00100c.Emscripten.clang"
  },
  "schemaVersion": "3.4.1",
  "updatedAt": "2021-08-01T16:33:48.848Z",
  "devdoc": {
    "kind": "dev",
    "methods": {},
    "version": 1
  },
  "userdoc": {
    "kind": "user",
    "methods": {},
    "version": 1
  }
}