{
  "contractName": "IListing",
  "abi": [
    {
      "inputs": [
        {
          "internalType": "address",
          "name": "_owner",
          "type": "address"
        },
        {
          "internalType": "uint256",
          "name": "_price",
          "type": "uint256"
        },
        {
          "internalType": "uint256",
          "name": "_stakeAmount",
          "type": "uint256"
        },
        {
          "internalType": "address",
          "name": "_gateKeeper",
          "type": "address"
        }
      ],
      "stateMutability": "nonpayable",
      "type": "constructor"
    },
    {
      "anonymous": false,
      "inputs": [
        {
          "indexed": false,
          "internalType": "address",
          "name": "listing",
          "type": "address"
        }
      ],
      "name": "Blacklisted",
      "type": "event"
    },
    {
      "anonymous": false,
      "inputs": [
        {
          "indexed": false,
          "internalType": "address",
          "name": "listing",
          "type": "address"
        },
        {
          "indexed": false,
          "internalType": "uint256",
          "name": "challengeID",
          "type": "uint256"
        }
      ],
      "name": "ChallengeIDSet",
      "type": "event"
    },
    {
      "anonymous": false,
      "inputs": [
        {
          "indexed": false,
          "internalType": "address",
          "name": "listing",
          "type": "address"
        },
        {
          "indexed": false,
          "internalType": "address",
          "name": "challenge",
          "type": "address"
        }
      ],
      "name": "ChallengeSet",
      "type": "event"
    },
    {
      "anonymous": false,
      "inputs": [
        {
          "indexed": false,
          "internalType": "address",
          "name": "listing",
          "type": "address"
        },
        {
          "indexed": false,
          "internalType": "uint256",
          "name": "stake",
          "type": "uint256"
        }
      ],
      "name": "ChallengesStakeSet",
      "type": "event"
    },
    {
      "anonymous": false,
      "inputs": [
        {
          "indexed": false,
          "internalType": "address",
          "name": "listing",
          "type": "address"
        },
        {
          "indexed": false,
          "internalType": "uint256",
          "name": "numberOfChallenges",
          "type": "uint256"
        }
      ],
      "name": "NumberOfChallengesSet",
      "type": "event"
    },
    {
      "anonymous": false,
      "inputs": [
        {
          "indexed": false,
          "internalType": "address",
          "name": "listing",
          "type": "address"
        },
        {
          "indexed": false,
          "internalType": "uint256",
          "name": "price",
          "type": "uint256"
        }
      ],
      "name": "PriceSet",
      "type": "event"
    },
    {
      "anonymous": false,
      "inputs": [
        {
          "indexed": false,
          "internalType": "address",
          "name": "listing",
          "type": "address"
        },
        {
          "indexed": false,
          "internalType": "uint256",
          "name": "stake",
          "type": "uint256"
        }
      ],
      "name": "StakeSet",
      "type": "event"
    },
    {
      "anonymous": false,
      "inputs": [
        {
          "indexed": false,
          "internalType": "address",
          "name": "listing",
          "type": "address"
        },
        {
          "indexed": false,
          "internalType": "bool",
          "name": "whitelisted",
          "type": "bool"
        }
      ],
      "name": "WhitelistedSet",
      "type": "event"
    },
    {
      "inputs": [],
      "name": "BLACKLIST_ROLE",
      "outputs": [
        {
          "internalType": "bytes32",
          "name": "",
          "type": "bytes32"
        }
      ],
      "stateMutability": "view",
      "type": "function"
    },
    {
      "inputs": [],
      "name": "UPDATE_IPFSCONTAINERHASH_ROLE",
      "outputs": [
        {
          "internalType": "bytes32",
          "name": "",
          "type": "bytes32"
        }
      ],
      "stateMutability": "view",
      "type": "function"
    },
    {
      "inputs": [],
      "name": "_ipfsFieldContainerHash",
      "outputs": [
        {
          "internalType": "string",
          "name": "",
          "type": "string"
        }
      ],
      "stateMutability": "view",
      "type": "function"
    },
    {
      "inputs": [
        {
          "internalType": "uint256",
          "name": "",
          "type": "uint256"
        }
      ],
      "name": "challenges",
      "outputs": [
        {
          "internalType": "address",
          "name": "",
          "type": "address"
        }
      ],
      "stateMutability": "view",
      "type": "function"
    },
    {
      "inputs": [],
      "name": "challengesStake",
      "outputs": [
        {
          "internalType": "uint256",
          "name": "",
          "type": "uint256"
        }
      ],
      "stateMutability": "view",
      "type": "function"
    },
    {
      "inputs": [],
      "name": "gateKeeper",
      "outputs": [
        {
          "internalType": "contract GateKeeper",
          "name": "",
          "type": "address"
        }
      ],
      "stateMutability": "view",
      "type": "function"
    },
    {
      "inputs": [],
      "name": "getIpfsFieldContainerHash",
      "outputs": [
        {
          "internalType": "string",
          "name": "",
          "type": "string"
        }
      ],
      "stateMutability": "view",
      "type": "function"
    },
    {
      "inputs": [],
      "name": "numberOfChallenges",
      "outputs": [
        {
          "internalType": "uint256",
          "name": "",
          "type": "uint256"
        }
      ],
      "stateMutability": "view",
      "type": "function"
    },
    {
      "inputs": [],
      "name": "owner",
      "outputs": [
        {
          "internalType": "address",
          "name": "",
          "type": "address"
        }
      ],
      "stateMutability": "view",
      "type": "function"
    },
    {
      "inputs": [],
      "name": "price",
      "outputs": [
        {
          "internalType": "uint256",
          "name": "",
          "type": "uint256"
        }
      ],
      "stateMutability": "view",
      "type": "function"
    },
    {
      "inputs": [
        {
          "internalType": "string",
          "name": "ipfsFieldContainerHash",
          "type": "string"
        }
      ],
      "name": "setIpfsFieldContainerHash",
      "outputs": [],
      "stateMutability": "nonpayable",
      "type": "function"
    },
    {
      "inputs": [],
      "name": "stake",
      "outputs": [
        {
          "internalType": "uint256",
          "name": "",
          "type": "uint256"
        }
      ],
      "stateMutability": "view",
      "type": "function"
    },
    {
      "inputs": [],
      "name": "whitelisted",
      "outputs": [
        {
          "internalType": "bool",
          "name": "",
          "type": "bool"
        }
      ],
      "stateMutability": "view",
      "type": "function"
    },
    {
      "inputs": [],
      "name": "blacklist",
      "outputs": [],
      "stateMutability": "nonpayable",
      "type": "function"
    },
    {
      "inputs": [
        {
          "internalType": "uint256",
          "name": "_stake",
          "type": "uint256"
        }
      ],
      "name": "setStake",
      "outputs": [],
      "stateMutability": "nonpayable",
      "type": "function"
    },
    {
      "inputs": [
        {
          "internalType": "uint256",
          "name": "_challengesStake",
          "type": "uint256"
        }
      ],
      "name": "setChallengesStake",
      "outputs": [],
      "stateMutability": "nonpayable",
      "type": "function"
    },
    {
      "inputs": [
        {
          "internalType": "uint256",
          "name": "_numberOfChallenges",
          "type": "uint256"
        }
      ],
      "name": "setNumberOfChallenges",
      "outputs": [],
      "stateMutability": "nonpayable",
      "type": "function"
    },
    {
      "inputs": [
        {
          "internalType": "bool",
          "name": "_whitelisted",
          "type": "bool"
        }
      ],
      "name": "setWhitelisted",
      "outputs": [],
      "stateMutability": "nonpayable",
      "type": "function"
    },
    {
      "inputs": [
        {
          "internalType": "uint256",
          "name": "_price",
          "type": "uint256"
        }
      ],
      "name": "setPrice",
      "outputs": [],
      "stateMutability": "nonpayable",
      "type": "function"
    },
    {
      "inputs": [
        {
          "internalType": "address",
          "name": "_challenge",
          "type": "address"
        }
      ],
      "name": "setChallenge",
      "outputs": [],
      "stateMutability": "nonpayable",
      "type": "function"
    },
    {
      "inputs": [],
      "name": "getChallengesLength",
      "outputs": [
        {
          "internalType": "uint256",
          "name": "length",
          "type": "uint256"
        }
      ],
      "stateMutability": "view",
      "type": "function"
    },
    {
      "inputs": [
        {
          "internalType": "uint256",
          "name": "_index",
          "type": "uint256"
        }
      ],
      "name": "getChallengeAtIndex",
      "outputs": [
        {
          "internalType": "address",
          "name": "challenge",
          "type": "address"
        }
      ],
      "stateMutability": "view",
      "type": "function"
    }
  ],
  "bytecode": "0x608060405260006002819055600381905560048190556005556007805460ff1916600117905534801561003157600080fd5b50604051610b21380380610b21833981016040819052610050916100b1565b600080546001600160a01b0319166001600160a01b0392831617905560078054610100600160a81b0319166101009590921694909402179092556002556003556100f6565b80516001600160a01b03811681146100ac57600080fd5b919050565b600080600080608085870312156100c6578384fd5b6100cf85610095565b935060208501519250604085015191506100eb60608601610095565b905092959194509250565b610a1c806101056000396000f3fe608060405234801561001057600080fd5b50600436106101425760003560e01c80638f1d3776116100b8578063a4b5fa561161007c578063a4b5fa56146102e9578063ae110875146102f1578063b263b26e146102fa578063cfd6d7321461030d578063ef120a6e14610315578063fcbb59071461031d57610142565b80638f1d377614610292578063910fd10a146102a557806391b7f5ed146102ba578063a035b1fe146102cd578063a2de8368146102d657610142565b806356c57bd11161010a57806356c57bd1146101d8578063605cba82146101eb5780636de149f5146101f45780637b789204146102075780637daa30df1461021a5780638da5cb5b1461027a57610142565b806319afe4631461014757806335d9db53146101725780633a4b66f1146101875780633d9287fa1461019057806345d61ded146101ad575b600080fd5b61015f6d424c41434b4c4953545f524f4c4560901b81565b6040519081526020015b60405180910390f35b610185610180366004610919565b610344565b005b61015f60035481565b60075461019d9060ff1681565b6040519015158152602001610169565b6000546101c0906001600160a01b031681565b6040516001600160a01b039091168152602001610169565b6101856101e636600461086f565b610386565b61015f60045481565b610185610202366004610919565b61039d565b610185610215366004610837565b6103d8565b610185610228366004610810565b600680546001810182556000919091527ff652222313e28459528d920b65115c16c04f3efc82aaedc97be59f3f377c0d3f0180546001600160a01b0319166001600160a01b0392909216919091179055565b6007546101c09061010090046001600160a01b031681565b6101c06102a0366004610919565b610420565b6102ad61044a565b6040516101699190610931565b6101856102c8366004610919565b6104d8565b61015f60025481565b6101856102e4366004610919565b610513565b61018561054e565b61015f60055481565b6101c0610308366004610919565b610602565b60065461015f565b6102ad610640565b61015f7f5550444154455f49504653434f4e5441494e4552484153485f524f4c4500000081565b600381905560408051308152602081018390527f91ea5c7d3e6075f2586305ea460cca898d81cf65d0222fe1164ada2afbc4d4d191015b60405180910390a150565b8051610399906001906020840190610777565b5050565b600481905560408051308152602081018390527f20676180e1da70fdf5891a3c30f993ab862a69f30e0b86c6f978bbbdefe4f2bb910161037b565b6007805460ff19168215159081179091556040805130815260208101929092527f707f3c5101172c4122bef76a7247663a6c9347fd005fc5eff73c858572d9f589910161037b565b6006818154811061043057600080fd5b6000918252602090912001546001600160a01b0316905081565b6001805461045790610984565b80601f016020809104026020016040519081016040528092919081815260200182805461048390610984565b80156104d05780601f106104a5576101008083540402835291602001916104d0565b820191906000526020600020905b8154815290600101906020018083116104b357829003601f168201915b505050505081565b600281905560408051308152602081018390527ff9a09e2869a1f88523f00504328d7965866201bafe501573db2e114e3375a086910161037b565b600581905560408051308152602081018390527f79a6cc998c9294fe1b2f03a63599378a8c641800e387a89b604bd01209b4e493910161037b565b6d424c41434b4c4953545f524f4c4560901b61056a33826106d2565b6105c85760405162461bcd60e51b815260206004820152602560248201527f53656e64657220646f6573206e6f7420686176652074686520636f727265637460448201526420726f6c6560d81b606482015260840160405180910390fd5b6007805460ff191690556040513081527fffa4e6181777692565cf28528fc88fd1516ea86b56da075235fa575af6a4b8559060200161037b565b60006006828154811061062557634e487b7160e01b600052603260045260246000fd5b6000918252602090912001546001600160a01b031692915050565b60606001805461064f90610984565b80601f016020809104026020016040519081016040528092919081815260200182805461067b90610984565b80156106c85780601f1061069d576101008083540402835291602001916106c8565b820191906000526020600020905b8154815290600101906020018083116106ab57829003601f168201915b5050505050905090565b600080546001600160a01b031615806107705750600054604051630dace25b60e31b81526001600160a01b0385811660048301523060248301526044820185905290911690636d6712d89060640160206040518083038186803b15801561073857600080fd5b505afa15801561074c573d6000803e3d6000fd5b505050506040513d601f19601f820116820180604052508101906107709190610853565b9392505050565b82805461078390610984565b90600052602060002090601f0160209004810192826107a557600085556107eb565b82601f106107be57805160ff19168380011785556107eb565b828001600101855582156107eb579182015b828111156107eb5782518255916020019190600101906107d0565b506107f79291506107fb565b5090565b5b808211156107f757600081556001016107fc565b600060208284031215610821578081fd5b81356001600160a01b0381168114610770578182fd5b600060208284031215610848578081fd5b8135610770816109d5565b600060208284031215610864578081fd5b8151610770816109d5565b600060208284031215610880578081fd5b813567ffffffffffffffff80821115610897578283fd5b818401915084601f8301126108aa578283fd5b8135818111156108bc576108bc6109bf565b604051601f8201601f19908116603f011681019083821181831017156108e4576108e46109bf565b816040528281528760208487010111156108fc578586fd5b826020860160208301379182016020019490945295945050505050565b60006020828403121561092a578081fd5b5035919050565b6000602080835283518082850152825b8181101561095d57858101830151858201604001528201610941565b8181111561096e5783604083870101525b50601f01601f1916929092016040019392505050565b600181811c9082168061099857607f821691505b602082108114156109b957634e487b7160e01b600052602260045260246000fd5b50919050565b634e487b7160e01b600052604160045260246000fd5b80151581146109e357600080fd5b5056fea2646970667358221220edb07e58f98ab5efeec766b22384299f9d704e27739f7b7bbd0850f74326faa964736f6c63430008030033",
  "immutableReferences": {},
  "source": "// SPDX-License-Identifier: UNLICENSED\n/**\n * Copyright (C) SettleMint NV - All Rights Reserved\n *\n * Use of this file is strictly prohibited without an active license agreement.\n * Distribution of this file, via any medium, is strictly prohibited.\n *\n * For license inquiries, contact hello@settlemint.com\n */\n\npragma solidity ^0.8.0;\n\nimport '../tokens/ERC20/IERC20Token.sol';\nimport '../authentication/Secured.sol';\nimport '../utility/metadata/IpfsFieldContainer.sol';\nimport './Challenge.sol';\n\ncontract IListing is Secured, IpfsFieldContainer {\n  bytes32 public constant BLACKLIST_ROLE = 'BLACKLIST_ROLE';\n\n  event Blacklisted(address listing);\n  event StakeSet(address listing, uint256 stake);\n  event ChallengesStakeSet(address listing, uint256 stake);\n  event ChallengeSet(address listing, address challenge);\n  event WhitelistedSet(address listing, bool whitelisted);\n  event PriceSet(address listing, uint256 price);\n  event ChallengeIDSet(address listing, uint256 challengeID);\n  event NumberOfChallengesSet(address listing, uint256 numberOfChallenges);\n\n  uint256 public price = 0;\n  uint256 public stake = 0;\n  uint256 public challengesStake = 0; // Total stake locked up in challenges on this listing\n  uint256 public numberOfChallenges = 0; // Total number of unresolved challenges\n  address[] public challenges; // Array of addresses of the challenges, needed to get them from within the TCR,\n  // using the getByIndex method on the challengeRegistry\n\n  bool public whitelisted = true; // Should the data appear on the listing or not\n  address public owner;\n\n  /**\n  @dev Contructor\n  @notice                Sets the address for token\n  @param _owner          Address of the owner\n  @param _price          Price for the listing\n  @param _stakeAmount    Amount staked for the listing\n  @param _gateKeeper     Address of the gatekeeper\n  */\n  constructor(\n    address _owner,\n    uint256 _price,\n    uint256 _stakeAmount,\n    address _gateKeeper\n  ) Secured(_gateKeeper) {\n    owner = _owner;\n    price = _price;\n    stake = _stakeAmount;\n  }\n\n  /**\n  @notice         Sets whitelisted to false: the listing should not appear anymore\n  */\n  function blacklist() public auth(BLACKLIST_ROLE) {\n    whitelisted = false;\n    emit Blacklisted(address(this));\n  }\n\n  /**\n  @notice         Sets the stake\n  @param _stake   Stake\n  */\n  function setStake(uint256 _stake) public {\n    stake = _stake;\n    emit StakeSet(address(this), _stake);\n  }\n\n  /**\n  @notice                   Sets the amount staked for all challenged\n  @param _challengesStake   Amount staked for all challenges\n  */\n  function setChallengesStake(uint256 _challengesStake) public {\n    challengesStake = _challengesStake;\n    emit ChallengesStakeSet(address(this), _challengesStake);\n  }\n\n  /**\n  @notice                      Sets the muber of challenges\n  @param _numberOfChallenges   Number of challenges added to this listing\n  */\n  function setNumberOfChallenges(uint256 _numberOfChallenges) public {\n    numberOfChallenges = _numberOfChallenges;\n    emit NumberOfChallengesSet(address(this), _numberOfChallenges);\n  }\n\n  /**\n  @notice               Sets whether or not the listing is whitelisted\n  @param _whitelisted   Whitelisted\n  */\n  function setWhitelisted(bool _whitelisted) public {\n    whitelisted = _whitelisted;\n    emit WhitelistedSet(address(this), _whitelisted);\n  }\n\n  /**\n  @notice         Sets the price\n  @param _price   Price\n  */\n  function setPrice(uint256 _price) public {\n    price = _price;\n    emit PriceSet(address(this), _price);\n  }\n\n  /**\n  @notice             Adds a challenge to the challenges array\n  @param _challenge   Address of challenge\n  */\n  function setChallenge(address _challenge) public {\n    challenges.push(_challenge);\n  }\n\n  /**\n  @notice        Gets length of the challenges array, with addresses of all challenges to this listing\n  */\n  function getChallengesLength() public view returns (uint256 length) {\n    length = challenges.length;\n  }\n\n  /**\n  @notice        Gets a challenge in the challenges array at a certain index\n  @param _index  Index of the challenge\n  */\n  function getChallengeAtIndex(uint256 _index) public view returns (address challenge) {\n    challenge = address(challenges[_index]);\n  }\n}\n",
  "sourcePath": "/home/coder/project/contracts/_library/tokencuratedregistry/IListing.sol",
  "compiler": {
    "name": "solc",
    "version": "0.8.3+commit.8d00100c.Emscripten.clang"
  },
  "schemaVersion": "3.4.1",
  "updatedAt": "2021-07-13T12:53:56.257Z",
  "devdoc": {
    "kind": "dev",
    "methods": {
      "constructor": {
        "details": "Contructor",
        "params": {
          "_gateKeeper": "Address of the gatekeeper",
          "_owner": "Address of the owner",
          "_price": "Price for the listing",
          "_stakeAmount": "Amount staked for the listing"
        }
      },
      "getChallengeAtIndex(uint256)": {
        "params": {
          "_index": "Index of the challenge"
        }
      },
      "setChallenge(address)": {
        "params": {
          "_challenge": "Address of challenge"
        }
      },
      "setChallengesStake(uint256)": {
        "params": {
          "_challengesStake": "Amount staked for all challenges"
        }
      },
      "setNumberOfChallenges(uint256)": {
        "params": {
          "_numberOfChallenges": "Number of challenges added to this listing"
        }
      },
      "setPrice(uint256)": {
        "params": {
          "_price": "Price"
        }
      },
      "setStake(uint256)": {
        "params": {
          "_stake": "Stake"
        }
      },
      "setWhitelisted(bool)": {
        "params": {
          "_whitelisted": "Whitelisted"
        }
      }
    },
    "version": 1
  },
  "userdoc": {
    "kind": "user",
    "methods": {
      "blacklist()": {
        "notice": "Sets whitelisted to false: the listing should not appear anymore"
      },
      "constructor": {
        "notice": "Sets the address for token"
      },
      "getChallengeAtIndex(uint256)": {
        "notice": "Gets a challenge in the challenges array at a certain index"
      },
      "getChallengesLength()": {
        "notice": "Gets length of the challenges array, with addresses of all challenges to this listing"
      },
      "setChallenge(address)": {
        "notice": "Adds a challenge to the challenges array"
      },
      "setChallengesStake(uint256)": {
        "notice": "Sets the amount staked for all challenged"
      },
      "setNumberOfChallenges(uint256)": {
        "notice": "Sets the muber of challenges"
      },
      "setPrice(uint256)": {
        "notice": "Sets the price"
      },
      "setStake(uint256)": {
        "notice": "Sets the stake"
      },
      "setWhitelisted(bool)": {
        "notice": "Sets whether or not the listing is whitelisted"
      }
    },
    "version": 1
  }
}