{
  "contractName": "IpfsFieldContainer",
  "abi": [
    {
      "inputs": [],
      "name": "UPDATE_IPFSCONTAINERHASH_ROLE",
      "outputs": [
        {
          "internalType": "bytes32",
          "name": "",
          "type": "bytes32"
        }
      ],
      "stateMutability": "view",
      "type": "function"
    },
    {
      "inputs": [],
      "name": "_ipfsFieldContainerHash",
      "outputs": [
        {
          "internalType": "string",
          "name": "",
          "type": "string"
        }
      ],
      "stateMutability": "view",
      "type": "function"
    },
    {
      "inputs": [],
      "name": "getIpfsFieldContainerHash",
      "outputs": [
        {
          "internalType": "string",
          "name": "",
          "type": "string"
        }
      ],
      "stateMutability": "view",
      "type": "function"
    },
    {
      "inputs": [
        {
          "internalType": "string",
          "name": "ipfsFieldContainerHash",
          "type": "string"
        }
      ],
      "name": "setIpfsFieldContainerHash",
      "outputs": [],
      "stateMutability": "nonpayable",
      "type": "function"
    }
  ],
  "bytecode": "0x608060405234801561001057600080fd5b50610415806100206000396000f3fe608060405234801561001057600080fd5b506004361061004c5760003560e01c806356c57bd114610051578063910fd10a14610066578063ef120a6e14610084578063fcbb59071461008c575b600080fd5b61006461005f366004610291565b6100c1565b005b61006e6100d8565b60405161007b919061033b565b60405180910390f35b61006e610166565b6100b37f5550444154455f49504653434f4e5441494e4552484153485f524f4c4500000081565b60405190815260200161007b565b80516100d49060009060208401906101f8565b5050565b600080546100e59061038e565b80601f01602080910402602001604051908101604052809291908181526020018280546101119061038e565b801561015e5780601f106101335761010080835404028352916020019161015e565b820191906000526020600020905b81548152906001019060200180831161014157829003601f168201915b505050505081565b6060600080546101759061038e565b80601f01602080910402602001604051908101604052809291908181526020018280546101a19061038e565b80156101ee5780601f106101c3576101008083540402835291602001916101ee565b820191906000526020600020905b8154815290600101906020018083116101d157829003601f168201915b5050505050905090565b8280546102049061038e565b90600052602060002090601f016020900481019282610226576000855561026c565b82601f1061023f57805160ff191683800117855561026c565b8280016001018555821561026c579182015b8281111561026c578251825591602001919060010190610251565b5061027892915061027c565b5090565b5b80821115610278576000815560010161027d565b6000602082840312156102a2578081fd5b813567ffffffffffffffff808211156102b9578283fd5b818401915084601f8301126102cc578283fd5b8135818111156102de576102de6103c9565b604051601f8201601f19908116603f01168101908382118183101715610306576103066103c9565b8160405282815287602084870101111561031e578586fd5b826020860160208301379182016020019490945295945050505050565b6000602080835283518082850152825b818110156103675785810183015185820160400152820161034b565b818111156103785783604083870101525b50601f01601f1916929092016040019392505050565b600181811c908216806103a257607f821691505b602082108114156103c357634e487b7160e01b600052602260045260246000fd5b50919050565b634e487b7160e01b600052604160045260246000fdfea26469706673582212209aa6c9ea97296311369436d52ddefbe0f1fb56e09aa2e8925431f38effbabad464736f6c63430008030033",
  "immutableReferences": {},
  "source": "// SPDX-License-Identifier: UNLICENSED\n/**\n * Copyright (C) SettleMint NV - All Rights Reserved\n *\n * Use of this file is strictly prohibited without an active license agreement.\n * Distribution of this file, via any medium, is strictly prohibited.\n *\n * For license inquiries, contact hello@settlemint.com\n */\n\npragma solidity ^0.8.0;\n\ncontract IpfsFieldContainer {\n  bytes32 public constant UPDATE_IPFSCONTAINERHASH_ROLE = 'UPDATE_IPFSCONTAINERHASH_ROLE';\n  string public _ipfsFieldContainerHash;\n\n  function getIpfsFieldContainerHash() public view virtual returns (string memory) {\n    return _ipfsFieldContainerHash;\n  }\n\n  function setIpfsFieldContainerHash(string memory ipfsFieldContainerHash) public virtual {\n    _ipfsFieldContainerHash = ipfsFieldContainerHash;\n  }\n}\n",
  "sourcePath": "/home/coder/project/contracts/_library/utility/metadata/IpfsFieldContainer.sol",
  "compiler": {
    "name": "solc",
    "version": "0.8.3+commit.8d00100c.Emscripten.clang"
  },
  "schemaVersion": "3.4.1",
  "updatedAt": "2021-08-01T16:33:48.864Z",
  "devdoc": {
    "kind": "dev",
    "methods": {},
    "version": 1
  },
  "userdoc": {
    "kind": "user",
    "methods": {},
    "version": 1
  }
}