{
  "contractName": "KnowYourBusiness",
  "abi": [
    {
      "inputs": [
        {
          "internalType": "address",
          "name": "gateKeeper",
          "type": "address"
        },
        {
          "internalType": "string",
          "name": "Name",
          "type": "string"
        },
        {
          "internalType": "string",
          "name": "ipfsFieldContainerHash",
          "type": "string"
        },
        {
          "internalType": "string",
          "name": "uiFieldDefinitionsHash",
          "type": "string"
        }
      ],
      "stateMutability": "nonpayable",
      "type": "constructor"
    },
    {
      "anonymous": false,
      "inputs": [
        {
          "indexed": false,
          "internalType": "address",
          "name": "sender",
          "type": "address"
        },
        {
          "indexed": false,
          "internalType": "bytes32",
          "name": "fromState",
          "type": "bytes32"
        },
        {
          "indexed": false,
          "internalType": "bytes32",
          "name": "toState",
          "type": "bytes32"
        }
      ],
      "name": "Transition",
      "type": "event"
    },
    {
      "inputs": [],
      "name": "ROLE_ADMIN",
      "outputs": [
        {
          "internalType": "bytes32",
          "name": "",
          "type": "bytes32"
        }
      ],
      "stateMutability": "view",
      "type": "function"
    },
    {
      "inputs": [],
      "name": "ROLE_APPROVER",
      "outputs": [
        {
          "internalType": "bytes32",
          "name": "",
          "type": "bytes32"
        }
      ],
      "stateMutability": "view",
      "type": "function"
    },
    {
      "inputs": [],
      "name": "ROLE_REQUESTER",
      "outputs": [
        {
          "internalType": "bytes32",
          "name": "",
          "type": "bytes32"
        }
      ],
      "stateMutability": "view",
      "type": "function"
    },
    {
      "inputs": [],
      "name": "STATE_KYB_APPROVED",
      "outputs": [
        {
          "internalType": "bytes32",
          "name": "",
          "type": "bytes32"
        }
      ],
      "stateMutability": "view",
      "type": "function"
    },
    {
      "inputs": [],
      "name": "STATE_KYB_REQUESTED",
      "outputs": [
        {
          "internalType": "bytes32",
          "name": "",
          "type": "bytes32"
        }
      ],
      "stateMutability": "view",
      "type": "function"
    },
    {
      "inputs": [],
      "name": "UPDATE_IPFSCONTAINERHASH_ROLE",
      "outputs": [
        {
          "internalType": "bytes32",
          "name": "",
          "type": "bytes32"
        }
      ],
      "stateMutability": "view",
      "type": "function"
    },
    {
      "inputs": [],
      "name": "_Name",
      "outputs": [
        {
          "internalType": "string",
          "name": "",
          "type": "string"
        }
      ],
      "stateMutability": "view",
      "type": "function"
    },
    {
      "inputs": [],
      "name": "_ipfsFieldContainerHash",
      "outputs": [
        {
          "internalType": "string",
          "name": "",
          "type": "string"
        }
      ],
      "stateMutability": "view",
      "type": "function"
    },
    {
      "inputs": [
        {
          "internalType": "uint256",
          "name": "",
          "type": "uint256"
        }
      ],
      "name": "_roles",
      "outputs": [
        {
          "internalType": "bytes32",
          "name": "",
          "type": "bytes32"
        }
      ],
      "stateMutability": "view",
      "type": "function"
    },
    {
      "inputs": [],
      "name": "_uiFieldDefinitionsHash",
      "outputs": [
        {
          "internalType": "string",
          "name": "",
          "type": "string"
        }
      ],
      "stateMutability": "view",
      "type": "function"
    },
    {
      "inputs": [],
      "name": "gateKeeper",
      "outputs": [
        {
          "internalType": "contract GateKeeper",
          "name": "",
          "type": "address"
        }
      ],
      "stateMutability": "view",
      "type": "function"
    },
    {
      "inputs": [],
      "name": "getAllStates",
      "outputs": [
        {
          "internalType": "bytes32[]",
          "name": "allStates",
          "type": "bytes32[]"
        }
      ],
      "stateMutability": "view",
      "type": "function"
    },
    {
      "inputs": [],
      "name": "getCurrentState",
      "outputs": [
        {
          "internalType": "bytes32",
          "name": "state",
          "type": "bytes32"
        }
      ],
      "stateMutability": "view",
      "type": "function"
    },
    {
      "inputs": [
        {
          "internalType": "uint256",
          "name": "index",
          "type": "uint256"
        }
      ],
      "name": "getHistory",
      "outputs": [
        {
          "internalType": "bytes32",
          "name": "fromState",
          "type": "bytes32"
        },
        {
          "internalType": "bytes32",
          "name": "toState",
          "type": "bytes32"
        },
        {
          "internalType": "address",
          "name": "actor",
          "type": "address"
        },
        {
          "internalType": "uint256",
          "name": "timestamp",
          "type": "uint256"
        }
      ],
      "stateMutability": "view",
      "type": "function"
    },
    {
      "inputs": [],
      "name": "getHistoryLength",
      "outputs": [
        {
          "internalType": "uint256",
          "name": "",
          "type": "uint256"
        }
      ],
      "stateMutability": "view",
      "type": "function"
    },
    {
      "inputs": [],
      "name": "getIpfsFieldContainerHash",
      "outputs": [
        {
          "internalType": "string",
          "name": "",
          "type": "string"
        }
      ],
      "stateMutability": "view",
      "type": "function"
    },
    {
      "inputs": [],
      "name": "getNextStates",
      "outputs": [
        {
          "internalType": "bytes32[]",
          "name": "nextStates",
          "type": "bytes32[]"
        }
      ],
      "stateMutability": "view",
      "type": "function"
    },
    {
      "inputs": [
        {
          "internalType": "bytes32",
          "name": "state",
          "type": "bytes32"
        }
      ],
      "name": "getState",
      "outputs": [
        {
          "internalType": "bytes32",
          "name": "name",
          "type": "bytes32"
        },
        {
          "internalType": "bytes32[]",
          "name": "nextStates",
          "type": "bytes32[]"
        },
        {
          "internalType": "bytes32[]",
          "name": "allowedRoles",
          "type": "bytes32[]"
        },
        {
          "internalType": "bytes4[]",
          "name": "allowedFunctions",
          "type": "bytes4[]"
        },
        {
          "internalType": "bytes4",
          "name": "preFunction",
          "type": "bytes4"
        }
      ],
      "stateMutability": "view",
      "type": "function"
    },
    {
      "inputs": [
        {
          "internalType": "uint256",
          "name": "",
          "type": "uint256"
        }
      ],
      "name": "history",
      "outputs": [
        {
          "internalType": "bytes32",
          "name": "fromState",
          "type": "bytes32"
        },
        {
          "internalType": "bytes32",
          "name": "toState",
          "type": "bytes32"
        },
        {
          "internalType": "address",
          "name": "actor",
          "type": "address"
        },
        {
          "internalType": "uint256",
          "name": "timestamp",
          "type": "uint256"
        }
      ],
      "stateMutability": "view",
      "type": "function"
    },
    {
      "inputs": [
        {
          "internalType": "bytes32",
          "name": "key",
          "type": "bytes32"
        },
        {
          "internalType": "string",
          "name": "file",
          "type": "string"
        }
      ],
      "name": "setContractFile",
      "outputs": [],
      "stateMutability": "nonpayable",
      "type": "function"
    },
    {
      "inputs": [
        {
          "internalType": "string",
          "name": "ipfsFieldContainerHash",
          "type": "string"
        }
      ],
      "name": "setIpfsFieldContainerHash",
      "outputs": [],
      "stateMutability": "nonpayable",
      "type": "function"
    },
    {
      "inputs": [
        {
          "internalType": "bytes32",
          "name": "toState",
          "type": "bytes32"
        }
      ],
      "name": "transitionState",
      "outputs": [],
      "stateMutability": "nonpayable",
      "type": "function"
    },
    {
      "inputs": [
        {
          "internalType": "string",
          "name": "Name",
          "type": "string"
        },
        {
          "internalType": "string",
          "name": "ipfsFieldContainerHash",
          "type": "string"
        }
      ],
      "name": "edit",
      "outputs": [],
      "stateMutability": "nonpayable",
      "type": "function"
    },
    {
      "inputs": [],
      "name": "DID",
      "outputs": [
        {
          "internalType": "string",
          "name": "",
          "type": "string"
        }
      ],
      "stateMutability": "view",
      "type": "function"
    },
    {
      "inputs": [],
      "name": "getRoles",
      "outputs": [
        {
          "internalType": "bytes32[]",
          "name": "",
          "type": "bytes32[]"
        }
      ],
      "stateMutability": "view",
      "type": "function"
    }
  ],
  "bytecode": "0x60e0604052692927a622afa0a226a4a760b11b60809081526d2927a622afa922a8aaa2a9aa22a960911b60a0526c2927a622afa0a8282927ab22a960991b60c0526200005090600b90600362000535565b503480156200005e57600080fd5b5060405162001fef38038062001fef8339810160408190526200008191620006cb565b600080546001600160a01b0319166001600160a01b0386161790558251620000b190600d90602086019062000585565b508151620000c790600790602085019062000585565b508051620000dd90600c90602084019062000585565b50620000e8620000f2565b50505050620007cb565b620001096814d55093525515115160ba1b620001f4565b6200011f671054141493d5915160c21b620001f4565b620001426814d55093525515115160ba1b671054141493d5915160c21b620002b2565b6200016b6814d55093525515115160ba1b6d2927a622afa922a8aaa2a9aa22a960911b62000392565b62000192671054141493d5915160c21b6c2927a622afa0a8282927ab22a960991b62000392565b620001b76814d55093525515115160ba1b692927a622afa0a226a4a760b11b62000392565b620001db671054141493d5915160c21b692927a622afa0a226a4a760b11b62000392565b620001f26814d55093525515115160ba1b62000415565b565b60008181526002602052604090205460ff1615620002655760405162461bcd60e51b815260206004820152602360248201527f746869732073746174652068617320616c7265616479206265656e20637265616044820152621d195960ea1b60648201526084015b60405180910390fd5b6000818152600260205260408120805460ff191660019081179091556003805491820181559091527fc2575a0e9e593c00f959f8c92f12db2869c3395a3b0502d05e2516446f71f85b0155565b600082815260026020526040902054829060ff166200030e5760405162461bcd60e51b8152602060048201526022602482015260008051602062001fcf833981519152604482015261195d60f21b60648201526084016200025c565b600082815260026020526040902054829060ff166200036a5760405162461bcd60e51b8152602060048201526022602482015260008051602062001fcf833981519152604482015261195d60f21b60648201526084016200025c565b5050600091825260026020908152604083206005018054600181018255908452922090910155565b600082815260026020526040902054829060ff16620003ee5760405162461bcd60e51b8152602060048201526022602482015260008051602062001fcf833981519152604482015261195d60f21b60648201526084016200025c565b50600091825260026020818152604084209091018054600181018255908452922090910155565b60008181526002602052604090205460ff16620004885760405162461bcd60e51b815260206004820152602a60248201527f74686520696e697469616c20737461746520686173206e6f74206265656e20636044820152691c99585d1959081e595d60b21b60648201526084016200025c565b60045415620005305760405162461bcd60e51b815260206004820152606160248201527f7468652063757272656e742073746174652068617320616c726561647920626560448201527f656e207365742c20736f20796f752063616e6e6f7420636f6e6669677572652060648201527f74686520696e697469616c20737461746520616e64206f7665727269646520696084820152601d60fa1b60a482015260c4016200025c565b600455565b82805482825590600052602060002090810192821562000573579160200282015b828111156200057357825182559160200191906001019062000556565b506200058192915062000601565b5090565b828054620005939062000778565b90600052602060002090601f016020900481019282620005b7576000855562000573565b82601f10620005d257805160ff191683800117855562000573565b828001600101855582156200057357918201828111156200057357825182559160200191906001019062000556565b5b8082111562000581576000815560010162000602565b600082601f83011262000629578081fd5b81516001600160401b0380821115620006465762000646620007b5565b604051601f8301601f19908116603f01168101908282118183101715620006715762000671620007b5565b816040528381526020925086838588010111156200068d578485fd5b8491505b83821015620006b0578582018301518183018401529082019062000691565b83821115620006c157848385830101525b9695505050505050565b60008060008060808587031215620006e1578384fd5b84516001600160a01b0381168114620006f8578485fd5b60208601519094506001600160401b038082111562000715578485fd5b620007238883890162000618565b9450604087015191508082111562000739578384fd5b620007478883890162000618565b935060608701519150808211156200075d578283fd5b506200076c8782880162000618565b91505092959194509250565b600181811c908216806200078d57607f821691505b60208210811415620007af57634e487b7160e01b600052602260045260246000fd5b50919050565b634e487b7160e01b600052604160045260246000fd5b6117f480620007db6000396000f3fe608060405234801561001057600080fd5b50600436106101735760003560e01c8063694f1105116100de578063c8691b2a11610097578063ea0b08c011610071578063ea0b08c014610338578063ef120a6e1461034b578063f4a979a314610353578063fcbb59071461036657610173565b8063c8691b2a146102ff578063d330b0a714610312578063d391014b1461032457610173565b8063694f11051461028a578063710613981461029d57806376d150dd146102a5578063910fd10a146102ad578063a4ddb071146102b5578063a7a38f0b146102bd57610173565b806345d61ded1161013057806345d61ded1461020f578063489f19eb1461023a5780634de6740e1461024f5780635478f4681461025757806356c57bd11461025f578063608b85241461027257610173565b806309648a9d14610178578063280a1931146101a55780632e2bc0d5146101ca578063304b1bd1146101df578063378aa701146101f25780633e44694f146101fa575b600080fd5b61018b610186366004611434565b61038d565b60405161019c959493929190611639565b60405180910390f35b6101bc6c2927a622afa0a8282927ab22a960991b81565b60405190815260200161019c565b6101d26106d7565b60405161019c9190611626565b6101bc6101ed366004611434565b61073d565b6101bc61075e565b6102026107de565b60405161019c91906116c4565b600054610222906001600160a01b031681565b6040516001600160a01b03909116815260200161019c565b61024d6102483660046114cc565b610806565b005b610202610832565b6001546101bc565b61024d61026d366004611491565b6108c0565b6101bc6d2927a622afa922a8aaa2a9aa22a960911b81565b61024d610298366004611434565b6108d7565b6101d2610b16565b610202610b6c565b610202610b79565b6101d2610b86565b6102d06102cb366004611434565b610bdc565b60405161019c949392919093845260208401929092526001600160a01b03166040830152606082015260800190565b6102d061030d366004611434565b610c1f565b6101bc671054141493d5915160c21b81565b6101bc692927a622afa0a226a4a760b11b81565b6101bc6814d55093525515115160ba1b81565b610202610d59565b61024d61036136600461144c565b610de2565b6101bc7f5550444154455f49504653434f4e5441494e4552484153485f524f4c4500000081565b60008181526002602052604081206005546060918291829185918290819067ffffffffffffffff8111156103d157634e487b7160e01b600052604160045260246000fd5b6040519080825280602002602001820160405280156103fa578160200160208202803683370190505b50905060005b60055481101561052557600260008b815260200190815260200160002060010160006005838154811061044357634e487b7160e01b600052603260045260246000fd5b6000918252602080832060088304015460079092166004026101000a90910460e01b6001600160e01b031916835282019290925260400190205460ff161561051357600581815481106104a657634e487b7160e01b600052603260045260246000fd5b90600052602060002090600891828204019190066004029054906101000a900460e01b828460ff16815181106104ec57634e487b7160e01b600052603260045260246000fd5b6001600160e01b031990921660209283029190910190910152610510600184611717565b92505b8061051d81611777565b915050610400565b5060008260ff1667ffffffffffffffff81111561055257634e487b7160e01b600052604160045260246000fd5b60405190808252806020026020018201604052801561057b578160200160208202803683370190505b50905060005b8360ff168110156105ff578281815181106105ac57634e487b7160e01b600052603260045260246000fd5b60200260200101518282815181106105d457634e487b7160e01b600052603260045260246000fd5b6001600160e01b031990921660209283029190910190910152806105f781611777565b915050610581565b50898460050185600201838760060160009054906101000a900460e01b8380548060200260200160405190810160405280929190818152602001828054801561066757602002820191906000526020600020905b815481526020019060010190808311610653575b50505050509350828054806020026020016040519081016040528092919081815260200182805480156106b957602002820191906000526020600020905b8154815260200190600101908083116106a5575b50505050509250985098509850985098505050505091939590929450565b60045460009081526002602090815260409182902060050180548351818402810184019094528084526060939283018282801561073357602002820191906000526020600020905b81548152602001906001019080831161071f575b5050505050905090565b600b818154811061074d57600080fd5b600091825260209091200154905081565b60045460009081526002602052604081205460ff166107d75760405162461bcd60e51b815260206004820152602a60248201527f74686520696e697469616c20737461746520686173206e6f74206265656e20636044820152691c99585d1959081e595d60b21b60648201526084015b60405180910390fd5b5060045490565b6060600d6040516020016107f2919061155d565b604051602081830303815290604052905090565b815161081990600d9060208501906112de565b50805161082d9060079060208401906112de565b505050565b600c805461083f9061173c565b80601f016020809104026020016040519081016040528092919081815260200182805461086b9061173c565b80156108b85780601f1061088d576101008083540402835291602001916108b8565b820191906000526020600020905b81548152906001019060200180831161089b57829003601f168201915b505050505081565b80516108d39060079060208401906112de565b5050565b6003546109375760405162461bcd60e51b815260206004820152602860248201527f746869732073746174656d616368696e6520686173206e6f74206265656e2073604482015267195d1d5c081e595d60c21b60648201526084016107ce565b8061094961094361075e565b82610e62565b600480548382556000848152600260205260408120919291909101905b81548110156109df576109cd838684848154811061099457634e487b7160e01b600052603260045260246000fd5b90600052602060002090600491828204019190066008029054906101000a90048015611362021767ffffffffffffffff1663ffffffff16565b806109d781611777565b915050610966565b506040805160808101825283815260208082018781523383850181815242606080870191825260018054808201825560009190915296517fb10e2d527612073b26eecdfd717e6a320cf44b4afac2b0732d9fcbe2b7fa0cf660049889029081019190915594517fb10e2d527612073b26eecdfd717e6a320cf44b4afac2b0732d9fcbe2b7fa0cf786015591517fb10e2d527612073b26eecdfd717e6a320cf44b4afac2b0732d9fcbe2b7fa0cf8850180546001600160a01b0319166001600160a01b03909216919091179055517fb10e2d527612073b26eecdfd717e6a320cf44b4afac2b0732d9fcbe2b7fa0cf99093019290925592548451938452918301869052928201527f483a31c379a4b707332853662276a3424ec44f0ccbfc20d78fd9d143694f7669910160405180910390a150505050565b6060600b805480602002602001604051908101604052809291908181526020018280548015610733576020028201919060005260206000209081548152602001906001019080831161071f575050505050905090565b600d805461083f9061173c565b6007805461083f9061173c565b60606003805480602002602001604051908101604052809291908181526020018280548015610733576020028201919060005260206000209081548152602001906001019080831161071f575050505050905090565b60018181548110610bec57600080fd5b60009182526020909120600490910201805460018201546002830154600390930154919350916001600160a01b03169084565b60008080806001548510610c6b5760405162461bcd60e51b8152602060048201526013602482015272496e646578206f7574206f6620626f756e647360681b60448201526064016107ce565b60018581548110610c8c57634e487b7160e01b600052603260045260246000fd5b90600052602060002090600402016000015460018681548110610cbf57634e487b7160e01b600052603260045260246000fd5b90600052602060002090600402016001015460018781548110610cf257634e487b7160e01b600052603260045260246000fd5b906000526020600020906004020160020160009054906101000a90046001600160a01b031660018881548110610d3857634e487b7160e01b600052603260045260246000fd5b90600052602060002090600402016003015493509350935093509193509193565b606060078054610d689061173c565b80601f0160208091040260200160405190810160405280929190818152602001828054610d949061173c565b80156107335780601f10610db657610100808354040283529160200191610733565b820191906000526020600020905b815481529060010190602001808311610dc457509395945050505050565b60008281526009602052604090205460ff16610e43576008805460018181019092557ff3f7a9fe364faab93b216da50a3214154f22a0a2b415b23a84c8169e8b636ee3018390556000838152600960205260409020805460ff191690911790555b6000828152600a60209081526040909120825161082d928401906112de565b60008281526002602052604090205460ff16610ede5760405162461bcd60e51b815260206004820152603560248201527f7468652066726f6d20737461746520686173206e6f74206265656e20636f6e666044820152741a59dd5c9959081a5b881d1a1a5cc81bd89a9958dd605a1b60648201526084016107ce565b60008181526002602052604090205460ff16610f585760405162461bcd60e51b815260206004820152603360248201527f74686520746f20737461746520686173206e6f74206265656e20636f6e6669676044820152721d5c9959081a5b881d1a1a5cc81bd89a9958dd606a1b60648201526084016107ce565b610f6282826110a3565b610fe65760405162461bcd60e51b815260206004820152604960248201527f74686520726571756573746564206e657874207374617465206973206e6f742060448201527f616e20616c6c6f776564206e65787420737461746520666f72207468697320746064820152683930b739b4ba34b7b760b91b608482015260a4016107ce565b610fef8161115d565b6110995760405162461bcd60e51b815260206004820152606960248201527f7468652073656e646572206f662074686973207472616e73616374696f6e206460448201527f6f6573206e6f742068617665206120726f6c65207468617420616c6c6f77732060648201527f7472616e736974696f6e206265747765656e207468652066726f6d20616e6420608482015268746f2073746174657360b81b60a482015260c4016107ce565b6108d382826111e0565b6000828152600260205260408120600501815b8154811015611155576040805160208101869052016040516020818303038152906040528051906020012082828154811061110157634e487b7160e01b600052603260045260246000fd5b906000526020600020015460405160200161111e91815260200190565b6040516020818303038152906040528051906020012014156111435760019250611155565b8061114d81611777565b9150506110b6565b505092915050565b6000818152600260208190526040822001805461117957600191505b60005b81548110156111d9576111b9338383815481106111a957634e487b7160e01b600052603260045260246000fd5b9060005260206000200154611239565b156111c757600192506111d9565b806111d181611777565b91505061117c565b5050919050565b6000818152600260205260408120600301905b815481101561123357611221848484848154811061099457634e487b7160e01b600052603260045260246000fd5b8061122b81611777565b9150506111f3565b50505050565b600080546001600160a01b031615806112d75750600054604051630dace25b60e31b81526001600160a01b0385811660048301523060248301526044820185905290911690636d6712d89060640160206040518083038186803b15801561129f57600080fd5b505afa1580156112b3573d6000803e3d6000fd5b505050506040513d601f19601f820116820180604052508101906112d79190611414565b9392505050565b8280546112ea9061173c565b90600052602060002090601f01602090048101928261130c5760008555611352565b82601f1061132557805160ff1916838001178555611352565b82800160010185558215611352579182015b82811115611352578251825591602001919060010190611337565b5061135e929150611378565b5090565b634e487b7160e01b600052605160045260246000fd5b5b8082111561135e5760008155600101611379565b600082601f83011261139d578081fd5b813567ffffffffffffffff808211156113b8576113b86117a8565b604051601f8301601f19908116603f011681019082821181831017156113e0576113e06117a8565b816040528381528660208588010111156113f8578485fd5b8360208701602083013792830160200193909352509392505050565b600060208284031215611425578081fd5b815180151581146112d7578182fd5b600060208284031215611445578081fd5b5035919050565b6000806040838503121561145e578081fd5b82359150602083013567ffffffffffffffff81111561147b578182fd5b6114878582860161138d565b9150509250929050565b6000602082840312156114a2578081fd5b813567ffffffffffffffff8111156114b8578182fd5b6114c48482850161138d565b949350505050565b600080604083850312156114de578182fd5b823567ffffffffffffffff808211156114f5578384fd5b6115018683870161138d565b93506020850135915080821115611516578283fd5b506114878582860161138d565b6000815180845260208085019450808401835b8381101561155257815187529582019590820190600101611536565b509495945050505050565b60007f6469643a64656d6f3a737570706c79636861696e66696e616e63653a000000008252601c81845483600182811c91508083168061159e57607f831692505b60208084108214156115be57634e487b7160e01b88526022600452602488fd5b8180156115d257600181146115e757611617565b60ff1986168a890152848a0188019650611617565b60008b815260209020895b8681101561160d5781548c82018b01529085019083016115f2565b505087858b010196505b50949998505050505050505050565b6000602082526112d76020830184611523565b6000868252602060a08184015261165360a0840188611523565b83810360408501526116658188611523565b84810360608601528651808252838801925090830190845b818110156116a35783516001600160e01b0319168352928401929184019160010161167d565b505080935050505063ffffffff60e01b831660808301529695505050505050565b6000602080835283518082850152825b818110156116f0578581018301518582016040015282016116d4565b818111156117015783604083870101525b50601f01601f1916929092016040019392505050565b600060ff821660ff84168060ff0382111561173457611734611792565b019392505050565b600181811c9082168061175057607f821691505b6020821081141561177157634e487b7160e01b600052602260045260246000fd5b50919050565b600060001982141561178b5761178b611792565b5060010190565b634e487b7160e01b600052601160045260246000fd5b634e487b7160e01b600052604160045260246000fdfea2646970667358221220c5a4979fc383360738a27daccf57d02159a3717162f5ad828e83d7b8265081f264736f6c6343000803003374686520737461746520686173206e6f74206265656e20637265617465642079",
  "immutableReferences": {},
  "source": "/**\n * Copyright (C) SettleMint NV - All Rights Reserved\n *\n * Use of this file is strictly prohibited without an active license agreement.\n * Distribution of this file, via any medium, is strictly prohibited.\n *\n * For license inquiries, contact hello@settlemint.com\n *\n * SPDX-License-Identifier: UNLICENSED\n */\n\npragma solidity ^0.8.0;\n\nimport '../_library//authentication/Secured.sol';\nimport '../_library//provenance/statemachine/StateMachine.sol';\nimport '../_library//utility/metadata/IpfsFieldContainer.sol';\nimport '../_library//utility/metadata/FileFieldContainer.sol';\nimport '../_library//utility/conversions/Converter.sol';\n\n/**\n * KnowYourBusiness\n\n *\n * @title State machine for KnowYourBusiness\n */\ncontract KnowYourBusiness is Converter, StateMachine, IpfsFieldContainer, FileFieldContainer {\n  bytes32 public constant STATE_KYB_REQUESTED = 'SUBMITTED';\n  bytes32 public constant STATE_KYB_APPROVED = 'APPROVED';\n\n  bytes32 public constant ROLE_ADMIN = 'ROLE_ADMIN';\n  bytes32 public constant ROLE_REQUESTER = 'ROLE_REQUESTER';\n  bytes32 public constant ROLE_APPROVER = 'ROLE_APPROVER';\n\n  bytes32[] public _roles = [ROLE_ADMIN, ROLE_REQUESTER, ROLE_APPROVER];\n\n  string public _uiFieldDefinitionsHash;\n  string public _Name;\n\n  constructor(\n    address gateKeeper,\n    string memory Name,\n    string memory ipfsFieldContainerHash,\n    string memory uiFieldDefinitionsHash\n  ) Secured(gateKeeper) {\n    _Name = Name;\n    _ipfsFieldContainerHash = ipfsFieldContainerHash;\n    _uiFieldDefinitionsHash = uiFieldDefinitionsHash;\n    setupStateMachine();\n  }\n\n  /**\n   * @notice Updates expense properties\n   * @param Name It is the order Identification Number\n   * @param ipfsFieldContainerHash ipfs hash of supplychainfinance metadata\n   */\n  function edit(string memory Name, string memory ipfsFieldContainerHash) public {\n    _Name = Name;\n    _ipfsFieldContainerHash = ipfsFieldContainerHash;\n  }\n\n  /**\n   * @notice Returns a DID of the supplychainfinance\n   * @dev Returns a unique DID (Decentralized Identifier) for the supplychainfinance.\n   * @return string representing the DID of the supplychainfinance\n   */\n  function DID() public view returns (string memory) {\n    return string(abi.encodePacked('did:demo:supplychainfinance:', _Name));\n  }\n\n  /**\n   * @notice Returns all the roles for this contract\n   * @return bytes32[] array of raw bytes representing the roles\n   */\n  function getRoles() public view returns (bytes32[] memory) {\n    return _roles;\n  }\n\n  function setupStateMachine() internal override {\n    //create all states\n\n    createState(STATE_KYB_REQUESTED);\n    createState(STATE_KYB_APPROVED);\n\n    // add properties\n\n    addNextStateForState(STATE_KYB_REQUESTED, STATE_KYB_APPROVED);\n    addRoleForState(STATE_KYB_REQUESTED, ROLE_REQUESTER);\n    addRoleForState(STATE_KYB_APPROVED, ROLE_APPROVER);\n    addRoleForState(STATE_KYB_REQUESTED, ROLE_ADMIN);\n    addRoleForState(STATE_KYB_APPROVED, ROLE_ADMIN);\n\n    setInitialState(STATE_KYB_REQUESTED);\n  }\n}\n",
  "sourcePath": "/home/coder/project/contracts/knowyourbusiness/KnowYourBusiness.sol",
  "compiler": {
    "name": "solc",
    "version": "0.8.3+commit.8d00100c.Emscripten.clang"
  },
  "schemaVersion": "3.4.3",
  "updatedAt": "2021-09-21T08:20:59.251Z",
  "devdoc": {
    "kind": "dev",
    "methods": {
      "DID()": {
        "details": "Returns a unique DID (Decentralized Identifier) for the supplychainfinance.",
        "returns": {
          "_0": "string representing the DID of the supplychainfinance"
        }
      },
      "edit(string,string)": {
        "params": {
          "Name": "It is the order Identification Number",
          "ipfsFieldContainerHash": "ipfs hash of supplychainfinance metadata"
        }
      },
      "getCurrentState()": {
        "details": "Requires the current state to be configured before calling this function"
      },
      "getHistory(uint256)": {
        "details": "Requires the index to be within the bounds of the history array"
      },
      "getRoles()": {
        "returns": {
          "_0": "bytes32[] array of raw bytes representing the roles"
        }
      },
      "transitionState(bytes32)": {
        "details": "Emits a Transition event after a successful transition."
      }
    },
    "title": "State machine for KnowYourBusiness",
    "version": 1
  },
  "userdoc": {
    "kind": "user",
    "methods": {
      "DID()": {
        "notice": "Returns a DID of the supplychainfinance"
      },
      "edit(string,string)": {
        "notice": "Updates expense properties"
      },
      "getAllStates()": {
        "notice": "Returns a list of all the possible states of this object."
      },
      "getCurrentState()": {
        "notice": "Returns the name of the current state of this object."
      },
      "getHistory(uint256)": {
        "notice": "Returns history as tuple for given index."
      },
      "getHistoryLength()": {
        "notice": "Returns the length of the history"
      },
      "getNextStates()": {
        "notice": "Returns a list of all the possible next states of the current state."
      },
      "getRoles()": {
        "notice": "Returns all the roles for this contract"
      },
      "getState(bytes32)": {
        "notice": "Returns state as tuple for give state."
      },
      "transitionState(bytes32)": {
        "notice": "Transitions the state and executes all callbacks."
      }
    },
    "notice": "KnowYourBusiness",
    "version": 1
  }
}