{
  "contractName": "KnowYourCustomerFactory",
  "abi": [
    {
      "inputs": [
        {
          "internalType": "contract GateKeeper",
          "name": "gateKeeper",
          "type": "address"
        },
        {
          "internalType": "contract KnowYourCustomerRegistry",
          "name": "registry",
          "type": "address"
        }
      ],
      "stateMutability": "nonpayable",
      "type": "constructor"
    },
    {
      "anonymous": false,
      "inputs": [
        {
          "indexed": false,
          "internalType": "address",
          "name": "statemachine",
          "type": "address"
        }
      ],
      "name": "StateMachineCreated",
      "type": "event"
    },
    {
      "inputs": [],
      "name": "CREATE_STATEMACHINE_ROLE",
      "outputs": [
        {
          "internalType": "bytes32",
          "name": "",
          "type": "bytes32"
        }
      ],
      "stateMutability": "view",
      "type": "function"
    },
    {
      "inputs": [],
      "name": "UPDATE_UIFIELDDEFINITIONS_ROLE",
      "outputs": [
        {
          "internalType": "bytes32",
          "name": "",
          "type": "bytes32"
        }
      ],
      "stateMutability": "view",
      "type": "function"
    },
    {
      "inputs": [],
      "name": "gateKeeper",
      "outputs": [
        {
          "internalType": "contract GateKeeper",
          "name": "",
          "type": "address"
        }
      ],
      "stateMutability": "view",
      "type": "function"
    },
    {
      "inputs": [],
      "name": "getUIFieldDefinitionsHash",
      "outputs": [
        {
          "internalType": "string",
          "name": "",
          "type": "string"
        }
      ],
      "stateMutability": "view",
      "type": "function"
    },
    {
      "inputs": [
        {
          "internalType": "string",
          "name": "uiFieldDefinitionsHash",
          "type": "string"
        }
      ],
      "name": "setUIFieldDefinitionsHash",
      "outputs": [],
      "stateMutability": "nonpayable",
      "type": "function"
    },
    {
      "inputs": [
        {
          "internalType": "string",
          "name": "name",
          "type": "string"
        },
        {
          "internalType": "string",
          "name": "ipfsFieldContainerHash",
          "type": "string"
        }
      ],
      "name": "create",
      "outputs": [],
      "stateMutability": "nonpayable",
      "type": "function"
    }
  ],
  "bytecode": "0x608060405234801561001057600080fd5b5060405161300938038061300983398101604081905261002f91610060565b600180546001600160a01b039384166001600160a01b031991821617909155600280549290931691161790556100b1565b60008060408385031215610072578182fd5b825161007d81610099565b602084015190925061008e81610099565b809150509250929050565b6001600160a01b03811681146100ae57600080fd5b50565b612f49806100c06000396000f3fe60806040523480156200001157600080fd5b50600436106200006a5760003560e01c8063198e2b8a146200006f5780631f0f992a1462000088578063309c70cf14620000c3578063459b9af914620000e657806345d61ded14620000ff57806382f68683146200012c575b600080fd5b620000866200008036600462000918565b62000143565b005b620000b07f5550444154455f55494649454c44444546494e4954494f4e535f524f4c45000081565b6040519081526020015b60405180910390f35b620000b0774352454154455f53544154454d414348494e455f524f4c4560401b81565b620000f0620004ea565b604051620000ba919062000abd565b60015462000113906001600160a01b031681565b6040516001600160a01b039091168152602001620000ba565b620000866200013d366004620008d9565b62000584565b774352454154455f53544154454d414348494e455f524f4c4560401b60405180606001604052806025815260200162002eef6025913962000185338362000609565b8190620001b05760405162461bcd60e51b8152600401620001a7919062000abd565b60405180910390fd5b5083518490620001f85760405162461bcd60e51b8152602060048201526012602482015271104813985b59481a5cc81c995c5d5a5c995960721b6044820152606401620001a7565b6001546040516000916001600160a01b0316908790879084906200021c90620006b5565b6200022b9493929190620009ce565b604051809103906000f08015801562000248573d6000803e3d6000fd5b5090506000816001600160a01b031663710613986040518163ffffffff1660e01b815260040160006040518083038186803b1580156200028757600080fd5b505afa1580156200029c573d6000803e3d6000fd5b505050506040513d6000823e601f3d908101601f19168201604052620002c6919081019062000804565b905060005b8151811015620004425760015482516001600160a01b039091169063be038478908290630ef9ae39908690869081106200031557634e487b7160e01b600052603260045260246000fd5b60200260200101516040518263ffffffff1660e01b81526004016200033c91815260200190565b60206040518083038186803b1580156200035557600080fd5b505afa1580156200036a573d6000803e3d6000fd5b505050506040513d601f19601f82011682018060405250810190620003909190620007db565b85858581518110620003b257634e487b7160e01b600052603260045260246000fd5b60209081029190910101516040516001600160e01b031960e086901b1681526001600160a01b0393841660048201529290911660248301526044820152306064820152608401600060405180830381600087803b1580156200041357600080fd5b505af115801562000428573d6000803e3d6000fd5b505050508080620004399062000b43565b915050620002cb565b50600254604051635e48156960e11b81526001600160a01b0384811660048301529091169063bc902ad290602401600060405180830381600087803b1580156200048b57600080fd5b505af1158015620004a0573d6000803e3d6000fd5b50506040516001600160a01b03851681527f9133c0c22004f4e0d1b425e3f564b710f3fda1af39a2e9565a1ce53eda52f7889250602001905060405180910390a150505050505050565b606060008054620004fb9062000b06565b80601f0160208091040260200160405190810160405280929190818152602001828054620005299062000b06565b80156200057a5780601f106200054e576101008083540402835291602001916200057a565b820191906000526020600020905b8154815290600101906020018083116200055c57829003601f168201915b5050505050905090565b7f5550444154455f55494649454c44444546494e4954494f4e535f524f4c4500006040518060600160405280602b815260200162002ec4602b9139620005cb338362000609565b8190620005ed5760405162461bcd60e51b8152600401620001a7919062000abd565b50825162000603906000906020860190620006c3565b50505050565b6001546000906001600160a01b03161580620006ae5750600154604051630dace25b60e31b81526001600160a01b0385811660048301523060248301526044820185905290911690636d6712d89060640160206040518083038186803b1580156200067357600080fd5b505afa15801562000688573d6000803e3d6000fd5b505050506040513d601f19601f82011682018060405250810190620006ae9190620008b7565b9392505050565b6123428062000b8283390190565b828054620006d19062000b06565b90600052602060002090601f016020900481019282620006f5576000855562000740565b82601f106200071057805160ff191683800117855562000740565b8280016001018555821562000740579182015b828111156200074057825182559160200191906001019062000723565b506200074e92915062000752565b5090565b5b808211156200074e576000815560010162000753565b600082601f8301126200077a578081fd5b813567ffffffffffffffff81111562000797576200079762000b6b565b620007ac601f8201601f191660200162000ad2565b818152846020838601011115620007c1578283fd5b816020850160208301379081016020019190915292915050565b600060208284031215620007ed578081fd5b81516001600160a01b0381168114620006ae578182fd5b6000602080838503121562000817578182fd5b825167ffffffffffffffff808211156200082f578384fd5b818501915085601f83011262000843578384fd5b81518181111562000858576200085862000b6b565b8060051b91506200086b84830162000ad2565b8181528481019084860184860187018a101562000886578788fd5b8795505b83861015620008aa5780518352600195909501949186019186016200088a565b5098975050505050505050565b600060208284031215620008c9578081fd5b81518015158114620006ae578182fd5b600060208284031215620008eb578081fd5b813567ffffffffffffffff81111562000902578182fd5b620009108482850162000769565b949350505050565b600080604083850312156200092b578081fd5b823567ffffffffffffffff8082111562000943578283fd5b620009518683870162000769565b9350602085013591508082111562000967578283fd5b50620009768582860162000769565b9150509250929050565b60008151808452815b81811015620009a75760208185018101518683018201520162000989565b81811115620009b95782602083870101525b50601f01601f19169290920160200192915050565b6001600160a01b038516815260806020808301829052600091620009f59084018762000980565b838103604085015262000a09818762000980565b9050838103606085015282855484600182811c91508083168062000a2e57607f831692505b86831081141562000a4d57634e487b7160e01b88526022600452602488fd5b82865260208601955080801562000a6d576001811462000a7f5762000aab565b60ff1985168752878701955062000aab565b60008b815260209020895b8581101562000aa55781548982015290840190890162000a8a565b88019650505b50939c9b505050505050505050505050565b600060208252620006ae602083018462000980565b604051601f8201601f1916810167ffffffffffffffff8111828210171562000afe5762000afe62000b6b565b604052919050565b600181811c9082168062000b1b57607f821691505b6020821081141562000b3d57634e487b7160e01b600052602260045260246000fd5b50919050565b600060001982141562000b6457634e487b7160e01b81526011600452602481fd5b5060010190565b634e487b7160e01b600052604160045260246000fdfe60e0604052692927a622afa0a226a4a760b11b60809081526d2927a622afa922a8aaa2a9aa22a960911b60a0526c2927a622afa0a8282927ab22a960991b60c0526200005090600b90600362000811565b5060408051808201909152692927a622afa0a226a4a760b11b81526d2927a622afa922a8aaa2a9aa22a960911b60208201526200009290600c90600262000811565b50348015620000a057600080fd5b506040516200234238038062002342833981016040819052620000c391620009a7565b600080546001600160a01b0319166001600160a01b0386161790558251620000f390600e90602086019062000861565b5081516200010990600790602085019062000861565b5080516200011f90600d90602084019062000861565b506200012a62000134565b5050505062000aa7565b620001496610d4915055115160ca1b62000398565b6200016068494e5f52455649455760b81b62000398565b6200017869494e434f4d504c45544560b01b62000398565b6200019770115610d154151253d397d1d49053951151607a1b62000398565b620001ad671054141493d5915160c21b62000398565b620001cf6610d4915055115160ca1b68494e5f52455649455760b81b62000456565b620001ec6610d4915055115160ca1b63489f19eb60e01b62000536565b6200021168494e5f52455649455760b81b69494e434f4d504c45544560b01b62000456565b6200023468494e5f52455649455760b81b671054141493d5915160c21b62000456565b6200025969494e434f4d504c45544560b01b68494e5f52455649455760b81b62000456565b6200028669494e434f4d504c45544560b01b70115610d154151253d397d1d49053951151607a1b62000456565b620002b170115610d154151253d397d1d49053951151607a1b671054141493d5915160c21b62000456565b620002d86610d4915055115160ca1b6d2927a622afa922a8aaa2a9aa22a960911b6200066e565b6200030168494e5f52455649455760b81b6d2927a622afa922a8aaa2a9aa22a960911b6200066e565b6200032a69494e434f4d504c45544560b01b6c2927a622afa0a8282927ab22a960991b6200066e565b6200035a70115610d154151253d397d1d49053951151607a1b6c2927a622afa0a8282927ab22a960991b6200066e565b62000381671054141493d5915160c21b6c2927a622afa0a8282927ab22a960991b6200066e565b620003966610d4915055115160ca1b620006f1565b565b60008181526002602052604090205460ff1615620004095760405162461bcd60e51b815260206004820152602360248201527f746869732073746174652068617320616c7265616479206265656e20637265616044820152621d195960ea1b60648201526084015b60405180910390fd5b6000818152600260205260408120805460ff191660019081179091556003805491820181559091527fc2575a0e9e593c00f959f8c92f12db2869c3395a3b0502d05e2516446f71f85b0155565b600082815260026020526040902054829060ff16620004b25760405162461bcd60e51b8152602060048201526022602482015260008051602062002322833981519152604482015261195d60f21b606482015260840162000400565b600082815260026020526040902054829060ff166200050e5760405162461bcd60e51b8152602060048201526022602482015260008051602062002322833981519152604482015261195d60f21b606482015260840162000400565b5050600091825260026020908152604083206005018054600181018255908452922090910155565b600082815260026020526040902054829060ff16620005925760405162461bcd60e51b8152602060048201526022602482015260008051602062002322833981519152604482015261195d60f21b606482015260840162000400565b6001600160e01b0319821660009081526006602052604090205460ff1662000636576001600160e01b0319821660009081526006602052604081208054600160ff1990911681179091556005805491820181559091527f036b6384b5eca791c62761152d0c79bb0604c104a5fb6f4eb0703f3154bb3db06008820401805463ffffffff60079093166004026101000a928302191660e085901c929092029190911790555b5060009182526002602090815260408084206001600160e01b031990931684526001928301909152909120805460ff19169091179055565b600082815260026020526040902054829060ff16620006ca5760405162461bcd60e51b8152602060048201526022602482015260008051602062002322833981519152604482015261195d60f21b606482015260840162000400565b50600091825260026020818152604084209091018054600181018255908452922090910155565b60008181526002602052604090205460ff16620007645760405162461bcd60e51b815260206004820152602a60248201527f74686520696e697469616c20737461746520686173206e6f74206265656e20636044820152691c99585d1959081e595d60b21b606482015260840162000400565b600454156200080c5760405162461bcd60e51b815260206004820152606160248201527f7468652063757272656e742073746174652068617320616c726561647920626560448201527f656e207365742c20736f20796f752063616e6e6f7420636f6e6669677572652060648201527f74686520696e697469616c20737461746520616e64206f7665727269646520696084820152601d60fa1b60a482015260c40162000400565b600455565b8280548282559060005260206000209081019282156200084f579160200282015b828111156200084f57825182559160200191906001019062000832565b506200085d929150620008dd565b5090565b8280546200086f9062000a54565b90600052602060002090601f0160209004810192826200089357600085556200084f565b82601f10620008ae57805160ff19168380011785556200084f565b828001600101855582156200084f57918201828111156200084f57825182559160200191906001019062000832565b5b808211156200085d5760008155600101620008de565b600082601f83011262000905578081fd5b81516001600160401b038082111562000922576200092262000a91565b604051601f8301601f19908116603f011681019082821181831017156200094d576200094d62000a91565b8160405283815260209250868385880101111562000969578485fd5b8491505b838210156200098c57858201830151818301840152908201906200096d565b838211156200099d57848385830101525b9695505050505050565b60008060008060808587031215620009bd578384fd5b84516001600160a01b0381168114620009d4578485fd5b60208601519094506001600160401b0380821115620009f1578485fd5b620009ff88838901620008f4565b9450604087015191508082111562000a15578384fd5b62000a2388838901620008f4565b9350606087015191508082111562000a39578283fd5b5062000a4887828801620008f4565b91505092959194509250565b600181811c9082168062000a6957607f821691505b6020821081141562000a8b57634e487b7160e01b600052602260045260246000fd5b50919050565b634e487b7160e01b600052604160045260246000fd5b61186b8062000ab76000396000f3fe608060405234801561001057600080fd5b506004361061018e5760003560e01c806371061398116100de578063a8257e7a11610097578063d391014b11610071578063d391014b14610358578063ef120a6e1461036c578063f4a979a314610374578063fcbb5907146103875761018e565b8063a8257e7a14610322578063ba2a283f14610333578063c8691b2a146103455761018e565b806371061398146102b857806376d150dd146102c057806381beeb64146102c8578063910fd10a146102d0578063a4ddb071146102d8578063a7a38f0b146102e05761018e565b806345d61ded1161014b5780635478f468116101255780635478f4681461027257806356c57bd11461027a578063608b85241461028d578063694f1105146102a55761018e565b806345d61ded1461022a578063489f19eb146102555780634de6740e1461026a5761018e565b806309648a9d14610193578063280a1931146101c05780632e2bc0d5146101e5578063304b1bd1146101fa578063378aa7011461020d5780633e44694f14610215575b600080fd5b6101a66101a13660046114ab565b6103ae565b6040516101b79594939291906116b0565b60405180910390f35b6101d76c2927a622afa0a8282927ab22a960991b81565b6040519081526020016101b7565b6101ed6106f8565b6040516101b7919061169d565b6101d76102083660046114ab565b61075e565b6101d761077f565b61021d6107ff565b6040516101b7919061173b565b60005461023d906001600160a01b031681565b6040516001600160a01b0390911681526020016101b7565b610268610263366004611543565b610827565b005b61021d610853565b6001546101d7565b610268610288366004611508565b6108e1565b6101d76d2927a622afa922a8aaa2a9aa22a960911b81565b6102686102b33660046114ab565b6108f8565b6101ed610b37565b61021d610b8d565b6101ed610b9a565b61021d610bf0565b6101ed610bfd565b6102f36102ee3660046114ab565b610c53565b6040516101b7949392919093845260208401929092526001600160a01b03166040830152606082015260800190565b6101d76610d4915055115160ca1b81565b6101d7671054141493d5915160c21b81565b6102f36103533660046114ab565b610c96565b6101d7692927a622afa0a226a4a760b11b81565b61021d610dd0565b6102686103823660046114c3565b610e59565b6101d77f5550444154455f49504653434f4e5441494e4552484153485f524f4c4500000081565b60008181526002602052604081206005546060918291829185918290819067ffffffffffffffff8111156103f257634e487b7160e01b600052604160045260246000fd5b60405190808252806020026020018201604052801561041b578160200160208202803683370190505b50905060005b60055481101561054657600260008b815260200190815260200160002060010160006005838154811061046457634e487b7160e01b600052603260045260246000fd5b6000918252602080832060088304015460079092166004026101000a90910460e01b6001600160e01b031916835282019290925260400190205460ff161561053457600581815481106104c757634e487b7160e01b600052603260045260246000fd5b90600052602060002090600891828204019190066004029054906101000a900460e01b828460ff168151811061050d57634e487b7160e01b600052603260045260246000fd5b6001600160e01b03199092166020928302919091019091015261053160018461178e565b92505b8061053e816117ee565b915050610421565b5060008260ff1667ffffffffffffffff81111561057357634e487b7160e01b600052604160045260246000fd5b60405190808252806020026020018201604052801561059c578160200160208202803683370190505b50905060005b8360ff16811015610620578281815181106105cd57634e487b7160e01b600052603260045260246000fd5b60200260200101518282815181106105f557634e487b7160e01b600052603260045260246000fd5b6001600160e01b03199092166020928302919091019091015280610618816117ee565b9150506105a2565b50898460050185600201838760060160009054906101000a900460e01b8380548060200260200160405190810160405280929190818152602001828054801561068857602002820191906000526020600020905b815481526020019060010190808311610674575b50505050509350828054806020026020016040519081016040528092919081815260200182805480156106da57602002820191906000526020600020905b8154815260200190600101908083116106c6575b50505050509250985098509850985098505050505091939590929450565b60045460009081526002602090815260409182902060050180548351818402810184019094528084526060939283018282801561075457602002820191906000526020600020905b815481526020019060010190808311610740575b5050505050905090565b600b818154811061076e57600080fd5b600091825260209091200154905081565b60045460009081526002602052604081205460ff166107f85760405162461bcd60e51b815260206004820152602a60248201527f74686520696e697469616c20737461746520686173206e6f74206265656e20636044820152691c99585d1959081e595d60b21b60648201526084015b60405180910390fd5b5060045490565b6060600e60405160200161081391906115d4565b604051602081830303815290604052905090565b815161083a90600e906020850190611355565b50805161084e906007906020840190611355565b505050565b600d8054610860906117b3565b80601f016020809104026020016040519081016040528092919081815260200182805461088c906117b3565b80156108d95780601f106108ae576101008083540402835291602001916108d9565b820191906000526020600020905b8154815290600101906020018083116108bc57829003601f168201915b505050505081565b80516108f4906007906020840190611355565b5050565b6003546109585760405162461bcd60e51b815260206004820152602860248201527f746869732073746174656d616368696e6520686173206e6f74206265656e2073604482015267195d1d5c081e595d60c21b60648201526084016107ef565b8061096a61096461077f565b82610ed9565b600480548382556000848152600260205260408120919291909101905b8154811015610a00576109ee83868484815481106109b557634e487b7160e01b600052603260045260246000fd5b90600052602060002090600491828204019190066008029054906101000a900480156113d9021767ffffffffffffffff1663ffffffff16565b806109f8816117ee565b915050610987565b506040805160808101825283815260208082018781523383850181815242606080870191825260018054808201825560009190915296517fb10e2d527612073b26eecdfd717e6a320cf44b4afac2b0732d9fcbe2b7fa0cf660049889029081019190915594517fb10e2d527612073b26eecdfd717e6a320cf44b4afac2b0732d9fcbe2b7fa0cf786015591517fb10e2d527612073b26eecdfd717e6a320cf44b4afac2b0732d9fcbe2b7fa0cf8850180546001600160a01b0319166001600160a01b03909216919091179055517fb10e2d527612073b26eecdfd717e6a320cf44b4afac2b0732d9fcbe2b7fa0cf99093019290925592548451938452918301869052928201527f483a31c379a4b707332853662276a3424ec44f0ccbfc20d78fd9d143694f7669910160405180910390a150505050565b6060600b8054806020026020016040519081016040528092919081815260200182805480156107545760200282019190600052602060002090815481526020019060010190808311610740575050505050905090565b600e8054610860906117b3565b6060600c8054806020026020016040519081016040528092919081815260200182805480156107545760200282019190600052602060002090815481526020019060010190808311610740575050505050905090565b60078054610860906117b3565b606060038054806020026020016040519081016040528092919081815260200182805480156107545760200282019190600052602060002090815481526020019060010190808311610740575050505050905090565b60018181548110610c6357600080fd5b60009182526020909120600490910201805460018201546002830154600390930154919350916001600160a01b03169084565b60008080806001548510610ce25760405162461bcd60e51b8152602060048201526013602482015272496e646578206f7574206f6620626f756e647360681b60448201526064016107ef565b60018581548110610d0357634e487b7160e01b600052603260045260246000fd5b90600052602060002090600402016000015460018681548110610d3657634e487b7160e01b600052603260045260246000fd5b90600052602060002090600402016001015460018781548110610d6957634e487b7160e01b600052603260045260246000fd5b906000526020600020906004020160020160009054906101000a90046001600160a01b031660018881548110610daf57634e487b7160e01b600052603260045260246000fd5b90600052602060002090600402016003015493509350935093509193509193565b606060078054610ddf906117b3565b80601f0160208091040260200160405190810160405280929190818152602001828054610e0b906117b3565b80156107545780601f10610e2d57610100808354040283529160200191610754565b820191906000526020600020905b815481529060010190602001808311610e3b57509395945050505050565b60008281526009602052604090205460ff16610eba576008805460018181019092557ff3f7a9fe364faab93b216da50a3214154f22a0a2b415b23a84c8169e8b636ee3018390556000838152600960205260409020805460ff191690911790555b6000828152600a60209081526040909120825161084e92840190611355565b60008281526002602052604090205460ff16610f555760405162461bcd60e51b815260206004820152603560248201527f7468652066726f6d20737461746520686173206e6f74206265656e20636f6e666044820152741a59dd5c9959081a5b881d1a1a5cc81bd89a9958dd605a1b60648201526084016107ef565b60008181526002602052604090205460ff16610fcf5760405162461bcd60e51b815260206004820152603360248201527f74686520746f20737461746520686173206e6f74206265656e20636f6e6669676044820152721d5c9959081a5b881d1a1a5cc81bd89a9958dd606a1b60648201526084016107ef565b610fd9828261111a565b61105d5760405162461bcd60e51b815260206004820152604960248201527f74686520726571756573746564206e657874207374617465206973206e6f742060448201527f616e20616c6c6f776564206e65787420737461746520666f72207468697320746064820152683930b739b4ba34b7b760b91b608482015260a4016107ef565b611066816111d4565b6111105760405162461bcd60e51b815260206004820152606960248201527f7468652073656e646572206f662074686973207472616e73616374696f6e206460448201527f6f6573206e6f742068617665206120726f6c65207468617420616c6c6f77732060648201527f7472616e736974696f6e206265747765656e207468652066726f6d20616e6420608482015268746f2073746174657360b81b60a482015260c4016107ef565b6108f48282611257565b6000828152600260205260408120600501815b81548110156111cc576040805160208101869052016040516020818303038152906040528051906020012082828154811061117857634e487b7160e01b600052603260045260246000fd5b906000526020600020015460405160200161119591815260200190565b6040516020818303038152906040528051906020012014156111ba57600192506111cc565b806111c4816117ee565b91505061112d565b505092915050565b600081815260026020819052604082200180546111f057600191505b60005b8154811015611250576112303383838154811061122057634e487b7160e01b600052603260045260246000fd5b90600052602060002001546112b0565b1561123e5760019250611250565b80611248816117ee565b9150506111f3565b5050919050565b6000818152600260205260408120600301905b81548110156112aa5761129884848484815481106109b557634e487b7160e01b600052603260045260246000fd5b806112a2816117ee565b91505061126a565b50505050565b600080546001600160a01b0316158061134e5750600054604051630dace25b60e31b81526001600160a01b0385811660048301523060248301526044820185905290911690636d6712d89060640160206040518083038186803b15801561131657600080fd5b505afa15801561132a573d6000803e3d6000fd5b505050506040513d601f19601f8201168201806040525081019061134e919061148b565b9392505050565b828054611361906117b3565b90600052602060002090601f01602090048101928261138357600085556113c9565b82601f1061139c57805160ff19168380011785556113c9565b828001600101855582156113c9579182015b828111156113c95782518255916020019190600101906113ae565b506113d59291506113ef565b5090565b634e487b7160e01b600052605160045260246000fd5b5b808211156113d557600081556001016113f0565b600082601f830112611414578081fd5b813567ffffffffffffffff8082111561142f5761142f61181f565b604051601f8301601f19908116603f011681019082821181831017156114575761145761181f565b8160405283815286602085880101111561146f578485fd5b8360208701602083013792830160200193909352509392505050565b60006020828403121561149c578081fd5b8151801515811461134e578182fd5b6000602082840312156114bc578081fd5b5035919050565b600080604083850312156114d5578081fd5b82359150602083013567ffffffffffffffff8111156114f2578182fd5b6114fe85828601611404565b9150509250929050565b600060208284031215611519578081fd5b813567ffffffffffffffff81111561152f578182fd5b61153b84828501611404565b949350505050565b60008060408385031215611555578182fd5b823567ffffffffffffffff8082111561156c578384fd5b61157886838701611404565b9350602085013591508082111561158d578283fd5b506114fe85828601611404565b6000815180845260208085019450808401835b838110156115c9578151875295820195908201906001016115ad565b509495945050505050565b60007f6469643a64656d6f3a6b6e6f77796f7572637573746f6d65723a0000000000008252601a81845483600182811c91508083168061161557607f831692505b602080841082141561163557634e487b7160e01b88526022600452602488fd5b818015611649576001811461165e5761168e565b60ff1986168a890152848a018801965061168e565b60008b815260209020895b868110156116845781548c82018b0152908501908301611669565b505087858b010196505b50949998505050505050505050565b60006020825261134e602083018461159a565b6000868252602060a0818401526116ca60a084018861159a565b83810360408501526116dc818861159a565b84810360608601528651808252838801925090830190845b8181101561171a5783516001600160e01b031916835292840192918401916001016116f4565b505080935050505063ffffffff60e01b831660808301529695505050505050565b6000602080835283518082850152825b818110156117675785810183015185820160400152820161174b565b818111156117785783604083870101525b50601f01601f1916929092016040019392505050565b600060ff821660ff84168060ff038211156117ab576117ab611809565b019392505050565b600181811c908216806117c757607f821691505b602082108114156117e857634e487b7160e01b600052602260045260246000fd5b50919050565b600060001982141561180257611802611809565b5060010190565b634e487b7160e01b600052601160045260246000fd5b634e487b7160e01b600052604160045260246000fdfea2646970667358221220680cd3922c324a046af07133cc460041de9e832651e7137d65b466056590d1da64736f6c6343000803003374686520737461746520686173206e6f74206265656e2063726561746564207953656e646572206e65656473205550444154455f55494649454c44444546494e4954494f4e535f524f4c4553656e646572206e65656473204352454154455f53544154454d414348494e455f524f4c45a264697066735822122076d6106a2f5539602579593a2065f9058dace04abdb9f4d477e851b9a102c1ea64736f6c63430008030033",
  "immutableReferences": {},
  "source": "/**\n * Copyright (C) SettleMint NV - All Rights Reserved\n *\n * Use of this file is strictly prohibited without an active license agreement.\n * Distribution of this file, via any medium, is strictly prohibited.\n *\n * For license inquiries, contact hello@settlemint.com\n *\n * SPDX-License-Identifier: UNLICENSED\n */\n\npragma solidity ^0.8.0;\n\nimport '../_library//provenance/statemachine/StateMachineFactory.sol';\nimport './KnowYourCustomer.sol';\nimport './KnowYourCustomerRegistry.sol';\n\n/**\n * @title Factory contract for knowyourcustomer state machines\n */\ncontract KnowYourCustomerFactory is StateMachineFactory {\n  constructor(GateKeeper gateKeeper, KnowYourCustomerRegistry registry) StateMachineFactory(gateKeeper, registry) {}\n\n  /**\n   * @notice Create new knowyourcustomer\n   * @dev Factory method to create a new knowyourcustomer. Emits StateMachineCreated event.\n   * @param name Customer Name\n\n   * @param ipfsFieldContainerHash ipfs hash of knowyourcustomer metadata\n   */\n  function create(string memory name, string memory ipfsFieldContainerHash)\n    public\n    authWithCustomReason(CREATE_STATEMACHINE_ROLE, 'Sender needs CREATE_STATEMACHINE_ROLE')\n  {\n    bytes memory memProof = bytes(name);\n    require(memProof.length > 0, 'A Name is required');\n\n    KnowYourCustomer knowyourcustomer =\n      new KnowYourCustomer(address(gateKeeper), name, ipfsFieldContainerHash, _uiFieldDefinitionsHash);\n\n    // Give every role registry a single permission on the newly created expense.\n    bytes32[] memory roles = knowyourcustomer.getRoles();\n    for (uint256 i = 0; i < roles.length; i++) {\n      gateKeeper.createPermission(\n        gateKeeper.getRoleRegistryAddress(roles[i]),\n        address(knowyourcustomer),\n        roles[i],\n        address(this)\n      );\n    }\n\n    _registry.insert(address(knowyourcustomer));\n    emit StateMachineCreated(address(knowyourcustomer));\n  }\n}\n",
  "sourcePath": "/home/coder/project/contracts/knowyourcustomer/KnowYourCustomerFactory.sol",
  "compiler": {
    "name": "solc",
    "version": "0.8.3+commit.8d00100c.Emscripten.clang"
  },
  "schemaVersion": "3.4.1",
  "updatedAt": "2021-07-13T12:53:57.046Z",
  "devdoc": {
    "kind": "dev",
    "methods": {
      "create(string,string)": {
        "details": "Factory method to create a new knowyourcustomer. Emits StateMachineCreated event.",
        "params": {
          "ipfsFieldContainerHash": "ipfs hash of knowyourcustomer metadata",
          "name": "Customer Name"
        }
      },
      "setUIFieldDefinitionsHash(string)": {
        "params": {
          "uiFieldDefinitionsHash": "value to assign to _uiFieldDefinitionsHash"
        }
      }
    },
    "title": "Factory contract for knowyourcustomer state machines",
    "version": 1
  },
  "userdoc": {
    "kind": "user",
    "methods": {
      "create(string,string)": {
        "notice": "Create new knowyourcustomer"
      },
      "getUIFieldDefinitionsHash()": {
        "notice": "Retrieves the value of `_uiFieldDefinitionsHash`"
      },
      "setUIFieldDefinitionsHash(string)": {
        "notice": "Sets the value of `_uiFieldDefinitionsHash`"
      }
    },
    "version": 1
  }
}