{
  "contractName": "KnowYourCustomer",
  "abi": [
    {
      "inputs": [
        {
          "internalType": "address",
          "name": "gateKeeper",
          "type": "address"
        },
        {
          "internalType": "string",
          "name": "Name",
          "type": "string"
        },
        {
          "internalType": "string",
          "name": "ipfsFieldContainerHash",
          "type": "string"
        },
        {
          "internalType": "string",
          "name": "uiFieldDefinitionsHash",
          "type": "string"
        }
      ],
      "stateMutability": "nonpayable",
      "type": "constructor"
    },
    {
      "anonymous": false,
      "inputs": [
        {
          "indexed": false,
          "internalType": "address",
          "name": "sender",
          "type": "address"
        },
        {
          "indexed": false,
          "internalType": "bytes32",
          "name": "fromState",
          "type": "bytes32"
        },
        {
          "indexed": false,
          "internalType": "bytes32",
          "name": "toState",
          "type": "bytes32"
        }
      ],
      "name": "Transition",
      "type": "event"
    },
    {
      "inputs": [],
      "name": "ROLE_ADMIN",
      "outputs": [
        {
          "internalType": "bytes32",
          "name": "",
          "type": "bytes32"
        }
      ],
      "stateMutability": "view",
      "type": "function"
    },
    {
      "inputs": [],
      "name": "ROLE_APPROVER",
      "outputs": [
        {
          "internalType": "bytes32",
          "name": "",
          "type": "bytes32"
        }
      ],
      "stateMutability": "view",
      "type": "function"
    },
    {
      "inputs": [],
      "name": "ROLE_REQUESTER",
      "outputs": [
        {
          "internalType": "bytes32",
          "name": "",
          "type": "bytes32"
        }
      ],
      "stateMutability": "view",
      "type": "function"
    },
    {
      "inputs": [],
      "name": "STATE_APPROVED",
      "outputs": [
        {
          "internalType": "bytes32",
          "name": "",
          "type": "bytes32"
        }
      ],
      "stateMutability": "view",
      "type": "function"
    },
    {
      "inputs": [],
      "name": "STATE_CREATED",
      "outputs": [
        {
          "internalType": "bytes32",
          "name": "",
          "type": "bytes32"
        }
      ],
      "stateMutability": "view",
      "type": "function"
    },
    {
      "inputs": [],
      "name": "UPDATE_IPFSCONTAINERHASH_ROLE",
      "outputs": [
        {
          "internalType": "bytes32",
          "name": "",
          "type": "bytes32"
        }
      ],
      "stateMutability": "view",
      "type": "function"
    },
    {
      "inputs": [],
      "name": "_Name",
      "outputs": [
        {
          "internalType": "string",
          "name": "",
          "type": "string"
        }
      ],
      "stateMutability": "view",
      "type": "function"
    },
    {
      "inputs": [],
      "name": "_ipfsFieldContainerHash",
      "outputs": [
        {
          "internalType": "string",
          "name": "",
          "type": "string"
        }
      ],
      "stateMutability": "view",
      "type": "function"
    },
    {
      "inputs": [
        {
          "internalType": "uint256",
          "name": "",
          "type": "uint256"
        }
      ],
      "name": "_roles",
      "outputs": [
        {
          "internalType": "bytes32",
          "name": "",
          "type": "bytes32"
        }
      ],
      "stateMutability": "view",
      "type": "function"
    },
    {
      "inputs": [],
      "name": "_uiFieldDefinitionsHash",
      "outputs": [
        {
          "internalType": "string",
          "name": "",
          "type": "string"
        }
      ],
      "stateMutability": "view",
      "type": "function"
    },
    {
      "inputs": [],
      "name": "gateKeeper",
      "outputs": [
        {
          "internalType": "contract GateKeeper",
          "name": "",
          "type": "address"
        }
      ],
      "stateMutability": "view",
      "type": "function"
    },
    {
      "inputs": [],
      "name": "getAllStates",
      "outputs": [
        {
          "internalType": "bytes32[]",
          "name": "allStates",
          "type": "bytes32[]"
        }
      ],
      "stateMutability": "view",
      "type": "function"
    },
    {
      "inputs": [],
      "name": "getCurrentState",
      "outputs": [
        {
          "internalType": "bytes32",
          "name": "state",
          "type": "bytes32"
        }
      ],
      "stateMutability": "view",
      "type": "function"
    },
    {
      "inputs": [
        {
          "internalType": "uint256",
          "name": "index",
          "type": "uint256"
        }
      ],
      "name": "getHistory",
      "outputs": [
        {
          "internalType": "bytes32",
          "name": "fromState",
          "type": "bytes32"
        },
        {
          "internalType": "bytes32",
          "name": "toState",
          "type": "bytes32"
        },
        {
          "internalType": "address",
          "name": "actor",
          "type": "address"
        },
        {
          "internalType": "uint256",
          "name": "timestamp",
          "type": "uint256"
        }
      ],
      "stateMutability": "view",
      "type": "function"
    },
    {
      "inputs": [],
      "name": "getHistoryLength",
      "outputs": [
        {
          "internalType": "uint256",
          "name": "",
          "type": "uint256"
        }
      ],
      "stateMutability": "view",
      "type": "function"
    },
    {
      "inputs": [],
      "name": "getIpfsFieldContainerHash",
      "outputs": [
        {
          "internalType": "string",
          "name": "",
          "type": "string"
        }
      ],
      "stateMutability": "view",
      "type": "function"
    },
    {
      "inputs": [],
      "name": "getNextStates",
      "outputs": [
        {
          "internalType": "bytes32[]",
          "name": "nextStates",
          "type": "bytes32[]"
        }
      ],
      "stateMutability": "view",
      "type": "function"
    },
    {
      "inputs": [
        {
          "internalType": "bytes32",
          "name": "state",
          "type": "bytes32"
        }
      ],
      "name": "getState",
      "outputs": [
        {
          "internalType": "bytes32",
          "name": "name",
          "type": "bytes32"
        },
        {
          "internalType": "bytes32[]",
          "name": "nextStates",
          "type": "bytes32[]"
        },
        {
          "internalType": "bytes32[]",
          "name": "allowedRoles",
          "type": "bytes32[]"
        },
        {
          "internalType": "bytes4[]",
          "name": "allowedFunctions",
          "type": "bytes4[]"
        },
        {
          "internalType": "bytes4",
          "name": "preFunction",
          "type": "bytes4"
        }
      ],
      "stateMutability": "view",
      "type": "function"
    },
    {
      "inputs": [
        {
          "internalType": "uint256",
          "name": "",
          "type": "uint256"
        }
      ],
      "name": "history",
      "outputs": [
        {
          "internalType": "bytes32",
          "name": "fromState",
          "type": "bytes32"
        },
        {
          "internalType": "bytes32",
          "name": "toState",
          "type": "bytes32"
        },
        {
          "internalType": "address",
          "name": "actor",
          "type": "address"
        },
        {
          "internalType": "uint256",
          "name": "timestamp",
          "type": "uint256"
        }
      ],
      "stateMutability": "view",
      "type": "function"
    },
    {
      "inputs": [
        {
          "internalType": "bytes32",
          "name": "key",
          "type": "bytes32"
        },
        {
          "internalType": "string",
          "name": "file",
          "type": "string"
        }
      ],
      "name": "setContractFile",
      "outputs": [],
      "stateMutability": "nonpayable",
      "type": "function"
    },
    {
      "inputs": [
        {
          "internalType": "string",
          "name": "ipfsFieldContainerHash",
          "type": "string"
        }
      ],
      "name": "setIpfsFieldContainerHash",
      "outputs": [],
      "stateMutability": "nonpayable",
      "type": "function"
    },
    {
      "inputs": [
        {
          "internalType": "bytes32",
          "name": "toState",
          "type": "bytes32"
        }
      ],
      "name": "transitionState",
      "outputs": [],
      "stateMutability": "nonpayable",
      "type": "function"
    },
    {
      "inputs": [],
      "name": "canEdit",
      "outputs": [
        {
          "internalType": "bytes32[]",
          "name": "",
          "type": "bytes32[]"
        }
      ],
      "stateMutability": "view",
      "type": "function"
    },
    {
      "inputs": [
        {
          "internalType": "string",
          "name": "Name",
          "type": "string"
        },
        {
          "internalType": "string",
          "name": "ipfsFieldContainerHash",
          "type": "string"
        }
      ],
      "name": "edit",
      "outputs": [],
      "stateMutability": "nonpayable",
      "type": "function"
    },
    {
      "inputs": [],
      "name": "DID",
      "outputs": [
        {
          "internalType": "string",
          "name": "",
          "type": "string"
        }
      ],
      "stateMutability": "view",
      "type": "function"
    },
    {
      "inputs": [],
      "name": "getRoles",
      "outputs": [
        {
          "internalType": "bytes32[]",
          "name": "",
          "type": "bytes32[]"
        }
      ],
      "stateMutability": "view",
      "type": "function"
    }
  ],
  "bytecode": "0x60e0604052692927a622afa0a226a4a760b11b60809081526d2927a622afa922a8aaa2a9aa22a960911b60a0526c2927a622afa0a8282927ab22a960991b60c0526200005090600b90600362000811565b5060408051808201909152692927a622afa0a226a4a760b11b81526d2927a622afa922a8aaa2a9aa22a960911b60208201526200009290600c90600262000811565b50348015620000a057600080fd5b506040516200234238038062002342833981016040819052620000c391620009a7565b600080546001600160a01b0319166001600160a01b0386161790558251620000f390600e90602086019062000861565b5081516200010990600790602085019062000861565b5080516200011f90600d90602084019062000861565b506200012a62000134565b5050505062000aa7565b620001496610d4915055115160ca1b62000398565b6200016068494e5f52455649455760b81b62000398565b6200017869494e434f4d504c45544560b01b62000398565b6200019770115610d154151253d397d1d49053951151607a1b62000398565b620001ad671054141493d5915160c21b62000398565b620001cf6610d4915055115160ca1b68494e5f52455649455760b81b62000456565b620001ec6610d4915055115160ca1b63489f19eb60e01b62000536565b6200021168494e5f52455649455760b81b69494e434f4d504c45544560b01b62000456565b6200023468494e5f52455649455760b81b671054141493d5915160c21b62000456565b6200025969494e434f4d504c45544560b01b68494e5f52455649455760b81b62000456565b6200028669494e434f4d504c45544560b01b70115610d154151253d397d1d49053951151607a1b62000456565b620002b170115610d154151253d397d1d49053951151607a1b671054141493d5915160c21b62000456565b620002d86610d4915055115160ca1b6d2927a622afa922a8aaa2a9aa22a960911b6200066e565b6200030168494e5f52455649455760b81b6d2927a622afa922a8aaa2a9aa22a960911b6200066e565b6200032a69494e434f4d504c45544560b01b6c2927a622afa0a8282927ab22a960991b6200066e565b6200035a70115610d154151253d397d1d49053951151607a1b6c2927a622afa0a8282927ab22a960991b6200066e565b62000381671054141493d5915160c21b6c2927a622afa0a8282927ab22a960991b6200066e565b620003966610d4915055115160ca1b620006f1565b565b60008181526002602052604090205460ff1615620004095760405162461bcd60e51b815260206004820152602360248201527f746869732073746174652068617320616c7265616479206265656e20637265616044820152621d195960ea1b60648201526084015b60405180910390fd5b6000818152600260205260408120805460ff191660019081179091556003805491820181559091527fc2575a0e9e593c00f959f8c92f12db2869c3395a3b0502d05e2516446f71f85b0155565b600082815260026020526040902054829060ff16620004b25760405162461bcd60e51b8152602060048201526022602482015260008051602062002322833981519152604482015261195d60f21b606482015260840162000400565b600082815260026020526040902054829060ff166200050e5760405162461bcd60e51b8152602060048201526022602482015260008051602062002322833981519152604482015261195d60f21b606482015260840162000400565b5050600091825260026020908152604083206005018054600181018255908452922090910155565b600082815260026020526040902054829060ff16620005925760405162461bcd60e51b8152602060048201526022602482015260008051602062002322833981519152604482015261195d60f21b606482015260840162000400565b6001600160e01b0319821660009081526006602052604090205460ff1662000636576001600160e01b0319821660009081526006602052604081208054600160ff1990911681179091556005805491820181559091527f036b6384b5eca791c62761152d0c79bb0604c104a5fb6f4eb0703f3154bb3db06008820401805463ffffffff60079093166004026101000a928302191660e085901c929092029190911790555b5060009182526002602090815260408084206001600160e01b031990931684526001928301909152909120805460ff19169091179055565b600082815260026020526040902054829060ff16620006ca5760405162461bcd60e51b8152602060048201526022602482015260008051602062002322833981519152604482015261195d60f21b606482015260840162000400565b50600091825260026020818152604084209091018054600181018255908452922090910155565b60008181526002602052604090205460ff16620007645760405162461bcd60e51b815260206004820152602a60248201527f74686520696e697469616c20737461746520686173206e6f74206265656e20636044820152691c99585d1959081e595d60b21b606482015260840162000400565b600454156200080c5760405162461bcd60e51b815260206004820152606160248201527f7468652063757272656e742073746174652068617320616c726561647920626560448201527f656e207365742c20736f20796f752063616e6e6f7420636f6e6669677572652060648201527f74686520696e697469616c20737461746520616e64206f7665727269646520696084820152601d60fa1b60a482015260c40162000400565b600455565b8280548282559060005260206000209081019282156200084f579160200282015b828111156200084f57825182559160200191906001019062000832565b506200085d929150620008dd565b5090565b8280546200086f9062000a54565b90600052602060002090601f0160209004810192826200089357600085556200084f565b82601f10620008ae57805160ff19168380011785556200084f565b828001600101855582156200084f57918201828111156200084f57825182559160200191906001019062000832565b5b808211156200085d5760008155600101620008de565b600082601f83011262000905578081fd5b81516001600160401b038082111562000922576200092262000a91565b604051601f8301601f19908116603f011681019082821181831017156200094d576200094d62000a91565b8160405283815260209250868385880101111562000969578485fd5b8491505b838210156200098c57858201830151818301840152908201906200096d565b838211156200099d57848385830101525b9695505050505050565b60008060008060808587031215620009bd578384fd5b84516001600160a01b0381168114620009d4578485fd5b60208601519094506001600160401b0380821115620009f1578485fd5b620009ff88838901620008f4565b9450604087015191508082111562000a15578384fd5b62000a2388838901620008f4565b9350606087015191508082111562000a39578283fd5b5062000a4887828801620008f4565b91505092959194509250565b600181811c9082168062000a6957607f821691505b6020821081141562000a8b57634e487b7160e01b600052602260045260246000fd5b50919050565b634e487b7160e01b600052604160045260246000fd5b61186b8062000ab76000396000f3fe608060405234801561001057600080fd5b506004361061018e5760003560e01c806371061398116100de578063a8257e7a11610097578063d391014b11610071578063d391014b14610358578063ef120a6e1461036c578063f4a979a314610374578063fcbb5907146103875761018e565b8063a8257e7a14610322578063ba2a283f14610333578063c8691b2a146103455761018e565b806371061398146102b857806376d150dd146102c057806381beeb64146102c8578063910fd10a146102d0578063a4ddb071146102d8578063a7a38f0b146102e05761018e565b806345d61ded1161014b5780635478f468116101255780635478f4681461027257806356c57bd11461027a578063608b85241461028d578063694f1105146102a55761018e565b806345d61ded1461022a578063489f19eb146102555780634de6740e1461026a5761018e565b806309648a9d14610193578063280a1931146101c05780632e2bc0d5146101e5578063304b1bd1146101fa578063378aa7011461020d5780633e44694f14610215575b600080fd5b6101a66101a13660046114ab565b6103ae565b6040516101b79594939291906116b0565b60405180910390f35b6101d76c2927a622afa0a8282927ab22a960991b81565b6040519081526020016101b7565b6101ed6106f8565b6040516101b7919061169d565b6101d76102083660046114ab565b61075e565b6101d761077f565b61021d6107ff565b6040516101b7919061173b565b60005461023d906001600160a01b031681565b6040516001600160a01b0390911681526020016101b7565b610268610263366004611543565b610827565b005b61021d610853565b6001546101d7565b610268610288366004611508565b6108e1565b6101d76d2927a622afa922a8aaa2a9aa22a960911b81565b6102686102b33660046114ab565b6108f8565b6101ed610b37565b61021d610b8d565b6101ed610b9a565b61021d610bf0565b6101ed610bfd565b6102f36102ee3660046114ab565b610c53565b6040516101b7949392919093845260208401929092526001600160a01b03166040830152606082015260800190565b6101d76610d4915055115160ca1b81565b6101d7671054141493d5915160c21b81565b6102f36103533660046114ab565b610c96565b6101d7692927a622afa0a226a4a760b11b81565b61021d610dd0565b6102686103823660046114c3565b610e59565b6101d77f5550444154455f49504653434f4e5441494e4552484153485f524f4c4500000081565b60008181526002602052604081206005546060918291829185918290819067ffffffffffffffff8111156103f257634e487b7160e01b600052604160045260246000fd5b60405190808252806020026020018201604052801561041b578160200160208202803683370190505b50905060005b60055481101561054657600260008b815260200190815260200160002060010160006005838154811061046457634e487b7160e01b600052603260045260246000fd5b6000918252602080832060088304015460079092166004026101000a90910460e01b6001600160e01b031916835282019290925260400190205460ff161561053457600581815481106104c757634e487b7160e01b600052603260045260246000fd5b90600052602060002090600891828204019190066004029054906101000a900460e01b828460ff168151811061050d57634e487b7160e01b600052603260045260246000fd5b6001600160e01b03199092166020928302919091019091015261053160018461178e565b92505b8061053e816117ee565b915050610421565b5060008260ff1667ffffffffffffffff81111561057357634e487b7160e01b600052604160045260246000fd5b60405190808252806020026020018201604052801561059c578160200160208202803683370190505b50905060005b8360ff16811015610620578281815181106105cd57634e487b7160e01b600052603260045260246000fd5b60200260200101518282815181106105f557634e487b7160e01b600052603260045260246000fd5b6001600160e01b03199092166020928302919091019091015280610618816117ee565b9150506105a2565b50898460050185600201838760060160009054906101000a900460e01b8380548060200260200160405190810160405280929190818152602001828054801561068857602002820191906000526020600020905b815481526020019060010190808311610674575b50505050509350828054806020026020016040519081016040528092919081815260200182805480156106da57602002820191906000526020600020905b8154815260200190600101908083116106c6575b50505050509250985098509850985098505050505091939590929450565b60045460009081526002602090815260409182902060050180548351818402810184019094528084526060939283018282801561075457602002820191906000526020600020905b815481526020019060010190808311610740575b5050505050905090565b600b818154811061076e57600080fd5b600091825260209091200154905081565b60045460009081526002602052604081205460ff166107f85760405162461bcd60e51b815260206004820152602a60248201527f74686520696e697469616c20737461746520686173206e6f74206265656e20636044820152691c99585d1959081e595d60b21b60648201526084015b60405180910390fd5b5060045490565b6060600e60405160200161081391906115d4565b604051602081830303815290604052905090565b815161083a90600e906020850190611355565b50805161084e906007906020840190611355565b505050565b600d8054610860906117b3565b80601f016020809104026020016040519081016040528092919081815260200182805461088c906117b3565b80156108d95780601f106108ae576101008083540402835291602001916108d9565b820191906000526020600020905b8154815290600101906020018083116108bc57829003601f168201915b505050505081565b80516108f4906007906020840190611355565b5050565b6003546109585760405162461bcd60e51b815260206004820152602860248201527f746869732073746174656d616368696e6520686173206e6f74206265656e2073604482015267195d1d5c081e595d60c21b60648201526084016107ef565b8061096a61096461077f565b82610ed9565b600480548382556000848152600260205260408120919291909101905b8154811015610a00576109ee83868484815481106109b557634e487b7160e01b600052603260045260246000fd5b90600052602060002090600491828204019190066008029054906101000a900480156113d9021767ffffffffffffffff1663ffffffff16565b806109f8816117ee565b915050610987565b506040805160808101825283815260208082018781523383850181815242606080870191825260018054808201825560009190915296517fb10e2d527612073b26eecdfd717e6a320cf44b4afac2b0732d9fcbe2b7fa0cf660049889029081019190915594517fb10e2d527612073b26eecdfd717e6a320cf44b4afac2b0732d9fcbe2b7fa0cf786015591517fb10e2d527612073b26eecdfd717e6a320cf44b4afac2b0732d9fcbe2b7fa0cf8850180546001600160a01b0319166001600160a01b03909216919091179055517fb10e2d527612073b26eecdfd717e6a320cf44b4afac2b0732d9fcbe2b7fa0cf99093019290925592548451938452918301869052928201527f483a31c379a4b707332853662276a3424ec44f0ccbfc20d78fd9d143694f7669910160405180910390a150505050565b6060600b8054806020026020016040519081016040528092919081815260200182805480156107545760200282019190600052602060002090815481526020019060010190808311610740575050505050905090565b600e8054610860906117b3565b6060600c8054806020026020016040519081016040528092919081815260200182805480156107545760200282019190600052602060002090815481526020019060010190808311610740575050505050905090565b60078054610860906117b3565b606060038054806020026020016040519081016040528092919081815260200182805480156107545760200282019190600052602060002090815481526020019060010190808311610740575050505050905090565b60018181548110610c6357600080fd5b60009182526020909120600490910201805460018201546002830154600390930154919350916001600160a01b03169084565b60008080806001548510610ce25760405162461bcd60e51b8152602060048201526013602482015272496e646578206f7574206f6620626f756e647360681b60448201526064016107ef565b60018581548110610d0357634e487b7160e01b600052603260045260246000fd5b90600052602060002090600402016000015460018681548110610d3657634e487b7160e01b600052603260045260246000fd5b90600052602060002090600402016001015460018781548110610d6957634e487b7160e01b600052603260045260246000fd5b906000526020600020906004020160020160009054906101000a90046001600160a01b031660018881548110610daf57634e487b7160e01b600052603260045260246000fd5b90600052602060002090600402016003015493509350935093509193509193565b606060078054610ddf906117b3565b80601f0160208091040260200160405190810160405280929190818152602001828054610e0b906117b3565b80156107545780601f10610e2d57610100808354040283529160200191610754565b820191906000526020600020905b815481529060010190602001808311610e3b57509395945050505050565b60008281526009602052604090205460ff16610eba576008805460018181019092557ff3f7a9fe364faab93b216da50a3214154f22a0a2b415b23a84c8169e8b636ee3018390556000838152600960205260409020805460ff191690911790555b6000828152600a60209081526040909120825161084e92840190611355565b60008281526002602052604090205460ff16610f555760405162461bcd60e51b815260206004820152603560248201527f7468652066726f6d20737461746520686173206e6f74206265656e20636f6e666044820152741a59dd5c9959081a5b881d1a1a5cc81bd89a9958dd605a1b60648201526084016107ef565b60008181526002602052604090205460ff16610fcf5760405162461bcd60e51b815260206004820152603360248201527f74686520746f20737461746520686173206e6f74206265656e20636f6e6669676044820152721d5c9959081a5b881d1a1a5cc81bd89a9958dd606a1b60648201526084016107ef565b610fd9828261111a565b61105d5760405162461bcd60e51b815260206004820152604960248201527f74686520726571756573746564206e657874207374617465206973206e6f742060448201527f616e20616c6c6f776564206e65787420737461746520666f72207468697320746064820152683930b739b4ba34b7b760b91b608482015260a4016107ef565b611066816111d4565b6111105760405162461bcd60e51b815260206004820152606960248201527f7468652073656e646572206f662074686973207472616e73616374696f6e206460448201527f6f6573206e6f742068617665206120726f6c65207468617420616c6c6f77732060648201527f7472616e736974696f6e206265747765656e207468652066726f6d20616e6420608482015268746f2073746174657360b81b60a482015260c4016107ef565b6108f48282611257565b6000828152600260205260408120600501815b81548110156111cc576040805160208101869052016040516020818303038152906040528051906020012082828154811061117857634e487b7160e01b600052603260045260246000fd5b906000526020600020015460405160200161119591815260200190565b6040516020818303038152906040528051906020012014156111ba57600192506111cc565b806111c4816117ee565b91505061112d565b505092915050565b600081815260026020819052604082200180546111f057600191505b60005b8154811015611250576112303383838154811061122057634e487b7160e01b600052603260045260246000fd5b90600052602060002001546112b0565b1561123e5760019250611250565b80611248816117ee565b9150506111f3565b5050919050565b6000818152600260205260408120600301905b81548110156112aa5761129884848484815481106109b557634e487b7160e01b600052603260045260246000fd5b806112a2816117ee565b91505061126a565b50505050565b600080546001600160a01b0316158061134e5750600054604051630dace25b60e31b81526001600160a01b0385811660048301523060248301526044820185905290911690636d6712d89060640160206040518083038186803b15801561131657600080fd5b505afa15801561132a573d6000803e3d6000fd5b505050506040513d601f19601f8201168201806040525081019061134e919061148b565b9392505050565b828054611361906117b3565b90600052602060002090601f01602090048101928261138357600085556113c9565b82601f1061139c57805160ff19168380011785556113c9565b828001600101855582156113c9579182015b828111156113c95782518255916020019190600101906113ae565b506113d59291506113ef565b5090565b634e487b7160e01b600052605160045260246000fd5b5b808211156113d557600081556001016113f0565b600082601f830112611414578081fd5b813567ffffffffffffffff8082111561142f5761142f61181f565b604051601f8301601f19908116603f011681019082821181831017156114575761145761181f565b8160405283815286602085880101111561146f578485fd5b8360208701602083013792830160200193909352509392505050565b60006020828403121561149c578081fd5b8151801515811461134e578182fd5b6000602082840312156114bc578081fd5b5035919050565b600080604083850312156114d5578081fd5b82359150602083013567ffffffffffffffff8111156114f2578182fd5b6114fe85828601611404565b9150509250929050565b600060208284031215611519578081fd5b813567ffffffffffffffff81111561152f578182fd5b61153b84828501611404565b949350505050565b60008060408385031215611555578182fd5b823567ffffffffffffffff8082111561156c578384fd5b61157886838701611404565b9350602085013591508082111561158d578283fd5b506114fe85828601611404565b6000815180845260208085019450808401835b838110156115c9578151875295820195908201906001016115ad565b509495945050505050565b60007f6469643a64656d6f3a6b6e6f77796f7572637573746f6d65723a0000000000008252601a81845483600182811c91508083168061161557607f831692505b602080841082141561163557634e487b7160e01b88526022600452602488fd5b818015611649576001811461165e5761168e565b60ff1986168a890152848a018801965061168e565b60008b815260209020895b868110156116845781548c82018b0152908501908301611669565b505087858b010196505b50949998505050505050505050565b60006020825261134e602083018461159a565b6000868252602060a0818401526116ca60a084018861159a565b83810360408501526116dc818861159a565b84810360608601528651808252838801925090830190845b8181101561171a5783516001600160e01b031916835292840192918401916001016116f4565b505080935050505063ffffffff60e01b831660808301529695505050505050565b6000602080835283518082850152825b818110156117675785810183015185820160400152820161174b565b818111156117785783604083870101525b50601f01601f1916929092016040019392505050565b600060ff821660ff84168060ff038211156117ab576117ab611809565b019392505050565b600181811c908216806117c757607f821691505b602082108114156117e857634e487b7160e01b600052602260045260246000fd5b50919050565b600060001982141561180257611802611809565b5060010190565b634e487b7160e01b600052601160045260246000fd5b634e487b7160e01b600052604160045260246000fdfea2646970667358221220680cd3922c324a046af07133cc460041de9e832651e7137d65b466056590d1da64736f6c6343000803003374686520737461746520686173206e6f74206265656e20637265617465642079",
  "immutableReferences": {},
  "source": "/**\n * Copyright (C) SettleMint NV - All Rights Reserved\n *\n * Use of this file is strictly prohibited without an active license agreement.\n * Distribution of this file, via any medium, is strictly prohibited.\n *\n * For license inquiries, contact hello@settlemint.com\n *\n * SPDX-License-Identifier: UNLICENSED\n */\n\npragma solidity ^0.8.0;\n\nimport '../_library//authentication/Secured.sol';\nimport '../_library//provenance/statemachine/StateMachine.sol';\nimport '../_library//utility/metadata/IpfsFieldContainer.sol';\nimport '../_library//utility/metadata/FileFieldContainer.sol';\nimport '../_library//utility/conversions/Converter.sol';\n\n/**\n * KnowYourCustomer\n\n *\n * @title State machine for KnowYourCustomer\n */\ncontract KnowYourCustomer is Converter, StateMachine, IpfsFieldContainer, FileFieldContainer {\n  bytes32 public constant STATE_CREATED = 'CREATED';\n  bytes32 private constant STATE_IN_REVIEW = 'IN_REVIEW';\n  bytes32 private constant STATE_INCOMPLETE = 'INCOMPLETE';\n  bytes32 private constant STATE_EXCEPTION_GRANTED = 'EXCEPTION_GRANTED';\n  bytes32 public constant STATE_APPROVED = 'APPROVED';\n  bytes32 public constant ROLE_ADMIN = 'ROLE_ADMIN';\n  bytes32 public constant ROLE_REQUESTER = 'ROLE_REQUESTER';\n  bytes32 public constant ROLE_APPROVER = 'ROLE_APPROVER';\n\n  bytes32[] public _roles = [ROLE_ADMIN, ROLE_REQUESTER, ROLE_APPROVER];\n  bytes32[] private _canEdit = [ROLE_ADMIN, ROLE_REQUESTER];\n\n  string public _uiFieldDefinitionsHash;\n  string public _Name;\n\n  constructor(\n    address gateKeeper,\n    string memory Name,\n    string memory ipfsFieldContainerHash,\n    string memory uiFieldDefinitionsHash\n  ) Secured(gateKeeper) {\n    _Name = Name;\n    _ipfsFieldContainerHash = ipfsFieldContainerHash;\n    _uiFieldDefinitionsHash = uiFieldDefinitionsHash;\n    setupStateMachine();\n  }\n\n  function canEdit() public view returns (bytes32[] memory) {\n    return _canEdit;\n  }\n\n  /**\n   * @notice Updates expense properties\n   * @param Name It is the order Identification Number\n   * @param ipfsFieldContainerHash ipfs hash of knowyourcustomer metadata\n   */\n  function edit(string memory Name, string memory ipfsFieldContainerHash) public {\n    _Name = Name;\n    _ipfsFieldContainerHash = ipfsFieldContainerHash;\n  }\n\n  /**\n   * @notice Returns a DID of the knowyourcustomer\n   * @dev Returns a unique DID (Decentralized Identifier) for the knowyourcustomer.\n   * @return string representing the DID of the knowyourcustomer\n   */\n  function DID() public view returns (string memory) {\n    return string(abi.encodePacked('did:demo:knowyourcustomer:', _Name));\n  }\n\n  /**\n   * @notice Returns all the roles for this contract\n   * @return bytes32[] array of raw bytes representing the roles\n   */\n  function getRoles() public view returns (bytes32[] memory) {\n    return _roles;\n  }\n\n  function setupStateMachine() internal override {\n    //create all states\n    createState(STATE_CREATED);\n    createState(STATE_IN_REVIEW);\n    createState(STATE_INCOMPLETE);\n    createState(STATE_EXCEPTION_GRANTED);\n    createState(STATE_APPROVED);\n\n    // add properties\n\n    addNextStateForState(STATE_CREATED, STATE_IN_REVIEW);\n    addAllowedFunctionForState(STATE_CREATED, this.edit.selector);\n\n    addNextStateForState(STATE_IN_REVIEW, STATE_INCOMPLETE);\n    addNextStateForState(STATE_IN_REVIEW, STATE_APPROVED);\n    addNextStateForState(STATE_INCOMPLETE, STATE_IN_REVIEW);\n    addNextStateForState(STATE_INCOMPLETE, STATE_EXCEPTION_GRANTED);\n\n    addNextStateForState(STATE_EXCEPTION_GRANTED, STATE_APPROVED);\n\n    addRoleForState(STATE_CREATED, ROLE_REQUESTER);\n    addRoleForState(STATE_IN_REVIEW, ROLE_REQUESTER);\n\n    addRoleForState(STATE_INCOMPLETE, ROLE_APPROVER);\n    addRoleForState(STATE_EXCEPTION_GRANTED, ROLE_APPROVER);\n    addRoleForState(STATE_APPROVED, ROLE_APPROVER);\n\n    //addRoleForState(STATE_CREATED,ROLE_ADMIN);\n    //addRoleForState(STATE_IN_REVIEW,ROLE_ADMIN);\n    //addRoleForState(STATE_INCOMPLETE,ROLE_ADMIN);\n    //addRoleForState(STATE_EXCEPTION_GRANTED,ROLE_ADMIN);\n    //addRoleForState(STATE_APPROVED,ROLE_ADMIN);\n    setInitialState(STATE_CREATED);\n  }\n}\n",
  "sourcePath": "/home/coder/project/contracts/knowyourcustomer/KnowYourCustomer.sol",
  "compiler": {
    "name": "solc",
    "version": "0.8.3+commit.8d00100c.Emscripten.clang"
  },
  "schemaVersion": "3.4.1",
  "updatedAt": "2021-07-13T12:53:57.038Z",
  "devdoc": {
    "kind": "dev",
    "methods": {
      "DID()": {
        "details": "Returns a unique DID (Decentralized Identifier) for the knowyourcustomer.",
        "returns": {
          "_0": "string representing the DID of the knowyourcustomer"
        }
      },
      "edit(string,string)": {
        "params": {
          "Name": "It is the order Identification Number",
          "ipfsFieldContainerHash": "ipfs hash of knowyourcustomer metadata"
        }
      },
      "getCurrentState()": {
        "details": "Requires the current state to be configured before calling this function"
      },
      "getHistory(uint256)": {
        "details": "Requires the index to be within the bounds of the history array"
      },
      "getRoles()": {
        "returns": {
          "_0": "bytes32[] array of raw bytes representing the roles"
        }
      },
      "transitionState(bytes32)": {
        "details": "Emits a Transition event after a successful transition."
      }
    },
    "title": "State machine for KnowYourCustomer",
    "version": 1
  },
  "userdoc": {
    "kind": "user",
    "methods": {
      "DID()": {
        "notice": "Returns a DID of the knowyourcustomer"
      },
      "edit(string,string)": {
        "notice": "Updates expense properties"
      },
      "getAllStates()": {
        "notice": "Returns a list of all the possible states of this object."
      },
      "getCurrentState()": {
        "notice": "Returns the name of the current state of this object."
      },
      "getHistory(uint256)": {
        "notice": "Returns history as tuple for given index."
      },
      "getHistoryLength()": {
        "notice": "Returns the length of the history"
      },
      "getNextStates()": {
        "notice": "Returns a list of all the possible next states of the current state."
      },
      "getRoles()": {
        "notice": "Returns all the roles for this contract"
      },
      "getState(bytes32)": {
        "notice": "Returns state as tuple for give state."
      },
      "transitionState(bytes32)": {
        "notice": "Transitions the state and executes all callbacks."
      }
    },
    "notice": "KnowYourCustomer",
    "version": 1
  }
}