{
  "contractName": "Loan",
  "abi": [
    {
      "inputs": [
        {
          "internalType": "string",
          "name": "name",
          "type": "string"
        },
        {
          "internalType": "uint8",
          "name": "decimals",
          "type": "uint8"
        },
        {
          "internalType": "address",
          "name": "gateKeeper",
          "type": "address"
        },
        {
          "internalType": "string",
          "name": "uiFieldDefinitionsHash",
          "type": "string"
        }
      ],
      "stateMutability": "nonpayable",
      "type": "constructor"
    },
    {
      "anonymous": false,
      "inputs": [
        {
          "indexed": true,
          "internalType": "address",
          "name": "owner",
          "type": "address"
        },
        {
          "indexed": true,
          "internalType": "address",
          "name": "spender",
          "type": "address"
        },
        {
          "indexed": false,
          "internalType": "uint256",
          "name": "value",
          "type": "uint256"
        }
      ],
      "name": "Approval",
      "type": "event"
    },
    {
      "anonymous": false,
      "inputs": [
        {
          "indexed": true,
          "internalType": "address",
          "name": "from",
          "type": "address"
        },
        {
          "indexed": false,
          "internalType": "uint256",
          "name": "amount",
          "type": "uint256"
        }
      ],
      "name": "Burn",
      "type": "event"
    },
    {
      "anonymous": false,
      "inputs": [
        {
          "indexed": true,
          "internalType": "address",
          "name": "to",
          "type": "address"
        },
        {
          "indexed": false,
          "internalType": "uint256",
          "name": "amount",
          "type": "uint256"
        }
      ],
      "name": "Mint",
      "type": "event"
    },
    {
      "anonymous": false,
      "inputs": [
        {
          "indexed": false,
          "internalType": "address",
          "name": "from",
          "type": "address"
        },
        {
          "indexed": false,
          "internalType": "uint256",
          "name": "value",
          "type": "uint256"
        }
      ],
      "name": "Repayment",
      "type": "event"
    },
    {
      "anonymous": false,
      "inputs": [
        {
          "indexed": true,
          "internalType": "address",
          "name": "from",
          "type": "address"
        },
        {
          "indexed": true,
          "internalType": "address",
          "name": "to",
          "type": "address"
        },
        {
          "indexed": false,
          "internalType": "uint256",
          "name": "value",
          "type": "uint256"
        }
      ],
      "name": "Transfer",
      "type": "event"
    },
    {
      "anonymous": false,
      "inputs": [
        {
          "indexed": true,
          "internalType": "address",
          "name": "from",
          "type": "address"
        },
        {
          "indexed": true,
          "internalType": "address",
          "name": "to",
          "type": "address"
        },
        {
          "indexed": false,
          "internalType": "bytes",
          "name": "data",
          "type": "bytes"
        }
      ],
      "name": "TransferData",
      "type": "event"
    },
    {
      "inputs": [],
      "name": "BURN_ROLE",
      "outputs": [
        {
          "internalType": "bytes32",
          "name": "",
          "type": "bytes32"
        }
      ],
      "stateMutability": "view",
      "type": "function"
    },
    {
      "inputs": [],
      "name": "EDIT_ROLE",
      "outputs": [
        {
          "internalType": "bytes32",
          "name": "",
          "type": "bytes32"
        }
      ],
      "stateMutability": "view",
      "type": "function"
    },
    {
      "inputs": [],
      "name": "MINT_ROLE",
      "outputs": [
        {
          "internalType": "bytes32",
          "name": "",
          "type": "bytes32"
        }
      ],
      "stateMutability": "view",
      "type": "function"
    },
    {
      "inputs": [],
      "name": "REPAY_ROLE",
      "outputs": [
        {
          "internalType": "bytes32",
          "name": "",
          "type": "bytes32"
        }
      ],
      "stateMutability": "view",
      "type": "function"
    },
    {
      "inputs": [],
      "name": "UPDATE_IPFSCONTAINERHASH_ROLE",
      "outputs": [
        {
          "internalType": "bytes32",
          "name": "",
          "type": "bytes32"
        }
      ],
      "stateMutability": "view",
      "type": "function"
    },
    {
      "inputs": [],
      "name": "_decimals",
      "outputs": [
        {
          "internalType": "uint8",
          "name": "",
          "type": "uint8"
        }
      ],
      "stateMutability": "view",
      "type": "function"
    },
    {
      "inputs": [],
      "name": "_ipfsFieldContainerHash",
      "outputs": [
        {
          "internalType": "string",
          "name": "",
          "type": "string"
        }
      ],
      "stateMutability": "view",
      "type": "function"
    },
    {
      "inputs": [],
      "name": "_name",
      "outputs": [
        {
          "internalType": "string",
          "name": "",
          "type": "string"
        }
      ],
      "stateMutability": "view",
      "type": "function"
    },
    {
      "inputs": [],
      "name": "_uiFieldDefinitionsHash",
      "outputs": [
        {
          "internalType": "string",
          "name": "",
          "type": "string"
        }
      ],
      "stateMutability": "view",
      "type": "function"
    },
    {
      "inputs": [
        {
          "internalType": "address",
          "name": "owner",
          "type": "address"
        },
        {
          "internalType": "address",
          "name": "spender",
          "type": "address"
        }
      ],
      "name": "allowance",
      "outputs": [
        {
          "internalType": "uint256",
          "name": "remaining",
          "type": "uint256"
        }
      ],
      "stateMutability": "view",
      "type": "function"
    },
    {
      "inputs": [
        {
          "internalType": "address",
          "name": "spender",
          "type": "address"
        },
        {
          "internalType": "uint256",
          "name": "value",
          "type": "uint256"
        }
      ],
      "name": "approve",
      "outputs": [
        {
          "internalType": "bool",
          "name": "",
          "type": "bool"
        }
      ],
      "stateMutability": "nonpayable",
      "type": "function"
    },
    {
      "inputs": [
        {
          "internalType": "address",
          "name": "spender",
          "type": "address"
        },
        {
          "internalType": "uint256",
          "name": "value",
          "type": "uint256"
        },
        {
          "internalType": "bytes",
          "name": "data",
          "type": "bytes"
        }
      ],
      "name": "approveAndCall",
      "outputs": [
        {
          "internalType": "bool",
          "name": "success",
          "type": "bool"
        }
      ],
      "stateMutability": "nonpayable",
      "type": "function"
    },
    {
      "inputs": [
        {
          "internalType": "address",
          "name": "owner",
          "type": "address"
        }
      ],
      "name": "balanceOf",
      "outputs": [
        {
          "internalType": "uint256",
          "name": "balance",
          "type": "uint256"
        }
      ],
      "stateMutability": "view",
      "type": "function"
    },
    {
      "inputs": [
        {
          "internalType": "address",
          "name": "from",
          "type": "address"
        },
        {
          "internalType": "uint256",
          "name": "amount",
          "type": "uint256"
        }
      ],
      "name": "burn",
      "outputs": [
        {
          "internalType": "bool",
          "name": "success",
          "type": "bool"
        }
      ],
      "stateMutability": "nonpayable",
      "type": "function"
    },
    {
      "inputs": [
        {
          "internalType": "address",
          "name": "roleRegistryAddress",
          "type": "address"
        },
        {
          "internalType": "uint256",
          "name": "amount",
          "type": "uint256"
        }
      ],
      "name": "burnFromRoleRegistry",
      "outputs": [
        {
          "internalType": "bool",
          "name": "success",
          "type": "bool"
        }
      ],
      "stateMutability": "nonpayable",
      "type": "function"
    },
    {
      "inputs": [
        {
          "internalType": "address",
          "name": "spender",
          "type": "address"
        },
        {
          "internalType": "uint256",
          "name": "subtractedValue",
          "type": "uint256"
        }
      ],
      "name": "decreaseApproval",
      "outputs": [
        {
          "internalType": "bool",
          "name": "success",
          "type": "bool"
        }
      ],
      "stateMutability": "nonpayable",
      "type": "function"
    },
    {
      "inputs": [],
      "name": "gateKeeper",
      "outputs": [
        {
          "internalType": "contract GateKeeper",
          "name": "",
          "type": "address"
        }
      ],
      "stateMutability": "view",
      "type": "function"
    },
    {
      "inputs": [],
      "name": "getIpfsFieldContainerHash",
      "outputs": [
        {
          "internalType": "string",
          "name": "",
          "type": "string"
        }
      ],
      "stateMutability": "view",
      "type": "function"
    },
    {
      "inputs": [
        {
          "internalType": "address",
          "name": "spender",
          "type": "address"
        },
        {
          "internalType": "uint256",
          "name": "addedValue",
          "type": "uint256"
        }
      ],
      "name": "increaseApproval",
      "outputs": [
        {
          "internalType": "bool",
          "name": "success",
          "type": "bool"
        }
      ],
      "stateMutability": "nonpayable",
      "type": "function"
    },
    {
      "inputs": [
        {
          "internalType": "address",
          "name": "",
          "type": "address"
        }
      ],
      "name": "loans",
      "outputs": [
        {
          "internalType": "uint256",
          "name": "loaned",
          "type": "uint256"
        },
        {
          "internalType": "uint256",
          "name": "repayed",
          "type": "uint256"
        }
      ],
      "stateMutability": "view",
      "type": "function"
    },
    {
      "inputs": [
        {
          "internalType": "address",
          "name": "roleRegistryAddress",
          "type": "address"
        },
        {
          "internalType": "uint256",
          "name": "amount",
          "type": "uint256"
        }
      ],
      "name": "mintToRoleRegistry",
      "outputs": [
        {
          "internalType": "bool",
          "name": "success",
          "type": "bool"
        }
      ],
      "stateMutability": "nonpayable",
      "type": "function"
    },
    {
      "inputs": [
        {
          "internalType": "string",
          "name": "ipfsHash",
          "type": "string"
        }
      ],
      "name": "setIpfsFieldContainerHash",
      "outputs": [],
      "stateMutability": "nonpayable",
      "type": "function"
    },
    {
      "inputs": [],
      "name": "totalSupply",
      "outputs": [
        {
          "internalType": "uint256",
          "name": "",
          "type": "uint256"
        }
      ],
      "stateMutability": "view",
      "type": "function"
    },
    {
      "inputs": [
        {
          "internalType": "address",
          "name": "to",
          "type": "address"
        },
        {
          "internalType": "uint256",
          "name": "value",
          "type": "uint256"
        }
      ],
      "name": "transfer",
      "outputs": [
        {
          "internalType": "bool",
          "name": "success",
          "type": "bool"
        }
      ],
      "stateMutability": "nonpayable",
      "type": "function"
    },
    {
      "inputs": [
        {
          "internalType": "address",
          "name": "from",
          "type": "address"
        },
        {
          "internalType": "address",
          "name": "to",
          "type": "address"
        },
        {
          "internalType": "uint256",
          "name": "value",
          "type": "uint256"
        }
      ],
      "name": "transferFrom",
      "outputs": [
        {
          "internalType": "bool",
          "name": "success",
          "type": "bool"
        }
      ],
      "stateMutability": "nonpayable",
      "type": "function"
    },
    {
      "inputs": [
        {
          "internalType": "address",
          "name": "from",
          "type": "address"
        },
        {
          "internalType": "address",
          "name": "to",
          "type": "address"
        },
        {
          "internalType": "uint256",
          "name": "value",
          "type": "uint256"
        },
        {
          "internalType": "bytes",
          "name": "data",
          "type": "bytes"
        }
      ],
      "name": "transferFromWithData",
      "outputs": [
        {
          "internalType": "bool",
          "name": "success",
          "type": "bool"
        }
      ],
      "stateMutability": "nonpayable",
      "type": "function"
    },
    {
      "inputs": [
        {
          "internalType": "address",
          "name": "to",
          "type": "address"
        },
        {
          "internalType": "uint256",
          "name": "value",
          "type": "uint256"
        },
        {
          "internalType": "bytes",
          "name": "data",
          "type": "bytes"
        }
      ],
      "name": "transferWithData",
      "outputs": [
        {
          "internalType": "bool",
          "name": "success",
          "type": "bool"
        }
      ],
      "stateMutability": "nonpayable",
      "type": "function"
    },
    {
      "inputs": [
        {
          "internalType": "bytes",
          "name": "",
          "type": "bytes"
        }
      ],
      "name": "getDecimalsFor",
      "outputs": [
        {
          "internalType": "uint256",
          "name": "",
          "type": "uint256"
        }
      ],
      "stateMutability": "view",
      "type": "function"
    },
    {
      "inputs": [
        {
          "internalType": "string",
          "name": "name",
          "type": "string"
        },
        {
          "internalType": "uint8",
          "name": "decimals",
          "type": "uint8"
        }
      ],
      "name": "edit",
      "outputs": [],
      "stateMutability": "nonpayable",
      "type": "function"
    },
    {
      "inputs": [
        {
          "internalType": "address",
          "name": "to",
          "type": "address"
        },
        {
          "internalType": "uint256",
          "name": "amount",
          "type": "uint256"
        }
      ],
      "name": "mint",
      "outputs": [
        {
          "internalType": "bool",
          "name": "success",
          "type": "bool"
        }
      ],
      "stateMutability": "nonpayable",
      "type": "function"
    },
    {
      "inputs": [
        {
          "internalType": "address",
          "name": "from",
          "type": "address"
        },
        {
          "internalType": "uint256",
          "name": "amount",
          "type": "uint256"
        }
      ],
      "name": "repay",
      "outputs": [
        {
          "internalType": "bool",
          "name": "success",
          "type": "bool"
        }
      ],
      "stateMutability": "nonpayable",
      "type": "function"
    },
    {
      "inputs": [
        {
          "internalType": "address",
          "name": "owner",
          "type": "address"
        }
      ],
      "name": "outstandingOf",
      "outputs": [
        {
          "internalType": "int256",
          "name": "outstanding",
          "type": "int256"
        }
      ],
      "stateMutability": "view",
      "type": "function"
    },
    {
      "inputs": [],
      "name": "getIndexLength",
      "outputs": [
        {
          "internalType": "uint256",
          "name": "length",
          "type": "uint256"
        }
      ],
      "stateMutability": "view",
      "type": "function"
    },
    {
      "inputs": [
        {
          "internalType": "uint256",
          "name": "index",
          "type": "uint256"
        }
      ],
      "name": "getByIndex",
      "outputs": [
        {
          "internalType": "address",
          "name": "holder",
          "type": "address"
        },
        {
          "internalType": "uint256",
          "name": "balance",
          "type": "uint256"
        },
        {
          "internalType": "uint256",
          "name": "loaned",
          "type": "uint256"
        },
        {
          "internalType": "uint256",
          "name": "repayed",
          "type": "uint256"
        }
      ],
      "stateMutability": "view",
      "type": "function"
    },
    {
      "inputs": [
        {
          "internalType": "address",
          "name": "key",
          "type": "address"
        }
      ],
      "name": "getByKey",
      "outputs": [
        {
          "internalType": "address",
          "name": "holder",
          "type": "address"
        },
        {
          "internalType": "uint256",
          "name": "balance",
          "type": "uint256"
        },
        {
          "internalType": "uint256",
          "name": "loaned",
          "type": "uint256"
        },
        {
          "internalType": "uint256",
          "name": "repayed",
          "type": "uint256"
        }
      ],
      "stateMutability": "view",
      "type": "function"
    }
  ],
  "bytecode": "0x60806040523480156200001157600080fd5b50604051620022a6380380620022a6833981016040819052620000349162000206565b600080546001600160a01b0319166001600160a01b0384161790558351849084908490849084908490849062000072906002906020860190620000ad565b50506003805460ff191660ff929092169190911790555080516200009e906008906020840190620000ad565b505050505050505050620002f9565b828054620000bb90620002a6565b90600052602060002090601f016020900481019282620000df57600085556200012a565b82601f10620000fa57805160ff19168380011785556200012a565b828001600101855582156200012a579182015b828111156200012a5782518255916020019190600101906200010d565b50620001389291506200013c565b5090565b5b808211156200013857600081556001016200013d565b600082601f83011262000164578081fd5b81516001600160401b0380821115620001815762000181620002e3565b604051601f8301601f19908116603f01168101908282118183101715620001ac57620001ac620002e3565b81604052838152602092508683858801011115620001c8578485fd5b8491505b83821015620001eb5785820183015181830184015290820190620001cc565b83821115620001fc57848385830101525b9695505050505050565b600080600080608085870312156200021c578384fd5b84516001600160401b038082111562000233578586fd5b620002418883890162000153565b95506020870151915060ff8216821462000259578485fd5b60408701519194506001600160a01b038216821462000276578384fd5b6060870151919350808211156200028b578283fd5b506200029a8782880162000153565b91505092959194509250565b600181811c90821680620002bb57607f821691505b60208210811415620002dd57634e487b7160e01b600052602260045260246000fd5b50919050565b634e487b7160e01b600052604160045260246000fd5b611f9d80620003096000396000f3fe608060405234801561001057600080fd5b50600436106102115760003560e01c806373b4086b11610125578063d28d8852116100ad578063e1ba7d011161007c578063e1ba7d011461053a578063e9a9c85014610542578063ee532f3114610555578063ef120a6e14610568578063fcbb59071461057057610211565b8063d28d8852146104d3578063d73dd623146104db578063dcb82f81146104ee578063dd62ed3e1461050157610211565b80639dc29fac116100f45780639dc29fac14610474578063a9059cbb14610487578063b5cf89d71461049a578063b930908f146104ad578063cae9ca51146104c057610211565b806373b4086b1461040a57806377a1875a14610446578063910fd10a14610459578063999399541461046157610211565b806340c10f19116101a8578063498770381161017757806349877038146103625780634de6740e146103a457806356c57bd1146103b957806366188463146103ce57806370a08231146103e157610211565b806340c10f19146102fd578063428227561461031057806345d61ded1461032357806348f352e71461034e57610211565b806323b872dd116101e457806323b872dd1461027b5780632535f7621461028e5780632d883a73146102a157806332424aa3146102de57610211565b8063095ea7b31461021657806318160ddd1461023e5780631bd42f3e1461025557806322867d7814610268575b600080fd5b610229610224366004611bea565b610597565b60405190151581526020015b60405180910390f35b61024760075481565b604051908152602001610235565b610229610263366004611bea565b610603565b610229610276366004611bea565b6107b6565b610229610289366004611b0c565b610876565b61022961029c366004611c15565b610ad5565b6102b46102af366004611d03565b610b62565b604080516001600160a01b0390951685526020850193909352918301526060820152608001610235565b6003546102eb9060ff1681565b60405160ff9091168152602001610235565b61022961030b366004611bea565b610c97565b61024761031e366004611c86565b610d1b565b600054610336906001600160a01b031681565b6040516001600160a01b039091168152602001610235565b6102476952455041595f524f4c4560b01b81565b6102b4610370366004611ab8565b6001600160a01b03811660009081526004602090815260408083205460099092529091208054600190910154929391929091565b6103ac610d27565b6040516102359190611dbb565b6103cc6103c7366004611c86565b610db5565b005b6102296103dc366004611bea565b610e27565b6102476103ef366004611ab8565b6001600160a01b031660009081526004602052604090205490565b610431610418366004611ab8565b6009602052600090815260409020805460019091015482565b60408051928352602083019190915201610235565b610247610454366004611ab8565b610f0f565b6103ac610f3e565b61024768454449545f524f4c4560b81b81565b610229610482366004611bea565b610f4b565b610229610495366004611bea565b61113c565b6103cc6104a8366004611cb9565b6112b3565b610247684255524e5f524f4c4560b81b81565b6102296104ce366004611c15565b611312565b6103ac6113d6565b6102296104e9366004611bea565b6113e3565b6102296104fc366004611bea565b611474565b61024761050f366004611ad4565b6001600160a01b03918216600090815260066020908152604080832093909416825291909152205490565b600554610247565b610247684d494e545f524f4c4560b81b81565b610229610563366004611b4c565b611610565b6103ac61169e565b6102477f5550444154455f49504653434f4e5441494e4552484153485f524f4c4500000081565b3360008181526006602090815260408083206001600160a01b038716808552925280832085905551919290917f8c5be1e5ebec7d5bd14f71427d1e84f3dd0314c0f7b2291e5b200ac8c7c3b925906105f29086815260200190565b60405180910390a350600192915050565b6000684255524e5f524f4c4560b81b6040518060400160405280601a81526020017f53656e646572206e6565647320746865204255524e5f524f4c450000000000008152506106523383611730565b819061067a5760405162461bcd60e51b81526004016106719190611dbb565b60405180910390fd5b5060008590506000816001600160a01b031663e1ba7d016040518163ffffffff1660e01b815260040160206040518083038186803b1580156106bb57600080fd5b505afa1580156106cf573d6000803e3d6000fd5b505050506040513d601f19601f820116820180604052508101906106f39190611d1b565b905060005b818110156107a857604051632d883a7360e01b81526004810182905260009081906001600160a01b03861690632d883a7390602401604080518083038186803b15801561074457600080fd5b505afa158015610758573d6000803e3d6000fd5b505050506040513d601f19601f8201168201806040525081019061077c9190611bb6565b9092509050801561079357610791828a610f4b565b505b505080806107a090611ebe565b9150506106f8565b506001979650505050505050565b60006952455041595f524f4c4560b01b6107d03382611730565b6107ec5760405162461bcd60e51b815260040161067190611e0f565b6001600160a01b038416600090815260096020526040902060010154610813908490611e54565b6001600160a01b0385166000818152600960209081526040918290206001019390935580519182529181018590527fbb284f7f8cb8b1b8c98ee9a7d765413efc44bbb17352a0302ada1d737cdaef1b910160405180910390a15060019392505050565b60006001600160a01b0383166108c65760405162461bcd60e51b81526020600482015260156024820152741d1bc81cda1bdd5b19081b9bdd081899481b9d5b1b605a1b6044820152606401610671565b6001600160a01b0384166000908152600460205260409020548211156108fe5760405162461bcd60e51b815260040161067190611dce565b6001600160a01b038416600090815260066020908152604080832033845290915290205482111561097d5760405162461bcd60e51b815260206004820152602360248201527f76616c75652073686f756c64206265206c657373207468616e20616c6c6f77616044820152626e636560e81b6064820152608401610671565b6001600160a01b0383166000908152600460205260409020600101546109fc576001600160a01b0383166000818152600460205260408120426001918201556005805491820181559091527f036b6384b5eca791c62761152d0c79bb0604c104a5fb6f4eb0703f3154bb3db00180546001600160a01b03191690911790555b6001600160a01b03841660009081526004602052604081208054849290610a24908490611e6c565b90915550506001600160a01b03831660009081526004602052604081208054849290610a51908490611e54565b90915550506001600160a01b038416600090815260066020908152604080832033845290915281208054849290610a89908490611e6c565b92505081905550826001600160a01b0316846001600160a01b0316600080516020611f4883398151915284604051610ac391815260200190565b60405180910390a35060019392505050565b6000610ae1848461113c565b610b1f5760405162461bcd60e51b815260206004820152600f60248201526e1d1c985b9cd9995c8819985a5b1959608a1b6044820152606401610671565b836001600160a01b0316336001600160a01b03167f69cf42fddae119b7568ebaa1f70aac657fd6abd62d00c2ab4fcf81ff87935ab384604051610ac39190611dbb565b60008060008060058581548110610b8957634e487b7160e01b600052603260045260246000fd5b6000918252602082200154600580546001600160a01b0390921696506004929188908110610bc757634e487b7160e01b600052603260045260246000fd5b60009182526020808320909101546001600160a01b03168352820192909252604001812054600580549195506009929188908110610c1557634e487b7160e01b600052603260045260246000fd5b60009182526020808320909101546001600160a01b03168352820192909252604001812054600580549194506009929188908110610c6357634e487b7160e01b600052603260045260246000fd5b60009182526020808320909101546001600160a01b0316835282019290925260400190206001015493959294509092919050565b6000684d494e545f524f4c4560b81b610cb03382611730565b610ccc5760405162461bcd60e51b815260040161067190611e0f565b6001600160a01b038416600090815260096020526040902054610cf0908490611e54565b6001600160a01b038516600090815260096020526040902055610d1384846117d5565b949350505050565b60035460ff165b919050565b60088054610d3490611e83565b80601f0160208091040260200160405190810160405280929190818152602001828054610d6090611e83565b8015610dad5780601f10610d8257610100808354040283529160200191610dad565b820191906000526020600020905b815481529060010190602001808311610d9057829003601f168201915b505050505081565b7f5550444154455f49504653434f4e5441494e4552484153485f524f4c450000006040518060600160405280602a8152602001611f1e602a9139610df93383611730565b8190610e185760405162461bcd60e51b81526004016106719190611dbb565b50610e2283611971565b505050565b3360009081526006602090815260408083206001600160a01b038616845290915281205480831115610e7c573360009081526006602090815260408083206001600160a01b0388168452909152812055610eab565b610e868382611e6c565b3360009081526006602090815260408083206001600160a01b03891684529091529020555b3360008181526006602090815260408083206001600160a01b038916808552908352928190205490519081529192917f8c5be1e5ebec7d5bd14f71427d1e84f3dd0314c0f7b2291e5b200ac8c7c3b925910160405180910390a35060019392505050565b6001600160a01b038116600090815260096020526040812060018101549054610f389190611e6c565b92915050565b60018054610d3490611e83565b6000684255524e5f524f4c4560b81b6040518060400160405280601a81526020017f53656e646572206e6565647320746865204255524e5f524f4c45000000000000815250610f9a3383611730565b8190610fb95760405162461bcd60e51b81526004016106719190611dbb565b506000841161100a5760405162461bcd60e51b815260206004820152601e60248201527f616d6f756e742073686f756c6420626520626967676572207468616e203000006044820152606401610671565b6001600160a01b03851660009081526004602052604090205484111561107d5760405162461bcd60e51b815260206004820152602260248201527f616d6f756e742073686f756c64206265206c657373207468616e2062616c616e604482015261636560f01b6064820152608401610671565b6001600160a01b038516600090815260046020526040812080548692906110a5908490611e6c565b9250508190555083600760008282546110be9190611e6c565b90915550506040518481526001600160a01b038616907fcc16f5dbb4873280815c1ee09dbd06736cffcc184412cf7a71a0fdb75d397ca59060200160405180910390a26040518481526000906001600160a01b03871690600080516020611f48833981519152906020015b60405180910390a3506001949350505050565b60006001600160a01b0383166111895760405162461bcd60e51b81526020600482015260126024820152710746f2073686f756c64206e6f7420626520360741b6044820152606401610671565b336000908152600460205260409020548211156111b85760405162461bcd60e51b815260040161067190611dce565b6001600160a01b038316600090815260046020526040902060010154611237576001600160a01b0383166000818152600460205260408120426001918201556005805491820181559091527f036b6384b5eca791c62761152d0c79bb0604c104a5fb6f4eb0703f3154bb3db00180546001600160a01b03191690911790555b3360009081526004602052604081208054849290611256908490611e6c565b90915550506001600160a01b03831660009081526004602052604081208054849290611283908490611e54565b90915550506040518281526001600160a01b038416903390600080516020611f48833981519152906020016105f2565b68454449545f524f4c4560b81b6112ca3382611730565b6112e65760405162461bcd60e51b815260040161067190611e0f565b82516112f9906002906020860190611988565b50506003805460ff191660ff9290921691909117905550565b600061131e8484610597565b6113765760405162461bcd60e51b8152602060048201526024808201527f436f756c64206e6f7420617070726f766520616d6f756e7420666f7220737065604482015263373232b960e11b6064820152608401610671565b604051638f4ffcb160e01b81526001600160a01b03851690638f4ffcb1906113a8903390879030908890600401611d7e565b600060405180830381600087803b1580156113c257600080fd5b505af11580156107a8573d6000803e3d6000fd5b60028054610d3490611e83565b3360009081526006602090815260408083206001600160a01b0386168452909152812080548391908390611418908490611e54565b90915550503360008181526006602090815260408083206001600160a01b038816808552908352928190205490519081529192917f8c5be1e5ebec7d5bd14f71427d1e84f3dd0314c0f7b2291e5b200ac8c7c3b92591016105f2565b6000684d494e545f524f4c4560b81b6040518060400160405280601b81526020017f53656e646572206e6565647320746865204d494e545f5f524f4c4500000000008152506114c33383611730565b81906114e25760405162461bcd60e51b81526004016106719190611dbb565b5060008590506000816001600160a01b031663e1ba7d016040518163ffffffff1660e01b815260040160206040518083038186803b15801561152357600080fd5b505afa158015611537573d6000803e3d6000fd5b505050506040513d601f19601f8201168201806040525081019061155b9190611d1b565b905060005b818110156107a857604051632d883a7360e01b81526004810182905260009081906001600160a01b03861690632d883a7390602401604080518083038186803b1580156115ac57600080fd5b505afa1580156115c0573d6000803e3d6000fd5b505050506040513d601f19601f820116820180604052508101906115e49190611bb6565b909250905080156115fb576115f9828a610c97565b505b5050808061160890611ebe565b915050611560565b600061161d858585610876565b61165b5760405162461bcd60e51b815260206004820152600f60248201526e1d1c985b9cd9995c8819985a5b1959608a1b6044820152606401610671565b836001600160a01b0316856001600160a01b03167f69cf42fddae119b7568ebaa1f70aac657fd6abd62d00c2ab4fcf81ff87935ab3846040516111299190611dbb565b6060600180546116ad90611e83565b80601f01602080910402602001604051908101604052809291908181526020018280546116d990611e83565b80156117265780601f106116fb57610100808354040283529160200191611726565b820191906000526020600020905b81548152906001019060200180831161170957829003601f168201915b5050505050905090565b600080546001600160a01b031615806117ce5750600054604051630dace25b60e31b81526001600160a01b0385811660048301523060248301526044820185905290911690636d6712d89060640160206040518083038186803b15801561179657600080fd5b505afa1580156117aa573d6000803e3d6000fd5b505050506040513d601f19601f820116820180604052508101906117ce9190611c6c565b9392505050565b6000684d494e545f524f4c4560b81b6040518060400160405280601b81526020017f53656e646572206e6565647320746865204d494e545f5f524f4c4500000000008152506118243383611730565b81906118435760405162461bcd60e51b81526004016106719190611dbb565b506001600160a01b0385166000908152600460205260409020600101546118c3576001600160a01b0385166000818152600460205260408120426001918201556005805491820181559091527f036b6384b5eca791c62761152d0c79bb0604c104a5fb6f4eb0703f3154bb3db00180546001600160a01b03191690911790555b83600760008282546118d59190611e54565b90915550506001600160a01b03851660009081526004602052604081208054869290611902908490611e54565b90915550506040518481526001600160a01b038616907f0f6798a560793a54c3bcfe86a93cde1e73087d944c0ea20544137d41213968859060200160405180910390a26040518481526001600160a01b03861690600090600080516020611f4883398151915290602001611129565b8051611984906001906020840190611988565b5050565b82805461199490611e83565b90600052602060002090601f0160209004810192826119b657600085556119fc565b82601f106119cf57805160ff19168380011785556119fc565b828001600101855582156119fc579182015b828111156119fc5782518255916020019190600101906119e1565b50611a08929150611a0c565b5090565b5b80821115611a085760008155600101611a0d565b80518015158114610d2257600080fd5b600082601f830112611a41578081fd5b813567ffffffffffffffff80821115611a5c57611a5c611eef565b604051601f8301601f19908116603f01168101908282118183101715611a8457611a84611eef565b81604052838152866020858801011115611a9c578485fd5b8360208701602083013792830160200193909352509392505050565b600060208284031215611ac9578081fd5b81356117ce81611f05565b60008060408385031215611ae6578081fd5b8235611af181611f05565b91506020830135611b0181611f05565b809150509250929050565b600080600060608486031215611b20578081fd5b8335611b2b81611f05565b92506020840135611b3b81611f05565b929592945050506040919091013590565b60008060008060808587031215611b61578081fd5b8435611b6c81611f05565b93506020850135611b7c81611f05565b925060408501359150606085013567ffffffffffffffff811115611b9e578182fd5b611baa87828801611a31565b91505092959194509250565b60008060408385031215611bc8578182fd5b8251611bd381611f05565b9150611be160208401611a21565b90509250929050565b60008060408385031215611bfc578182fd5b8235611c0781611f05565b946020939093013593505050565b600080600060608486031215611c29578283fd5b8335611c3481611f05565b925060208401359150604084013567ffffffffffffffff811115611c56578182fd5b611c6286828701611a31565b9150509250925092565b600060208284031215611c7d578081fd5b6117ce82611a21565b600060208284031215611c97578081fd5b813567ffffffffffffffff811115611cad578182fd5b610d1384828501611a31565b60008060408385031215611ccb578182fd5b823567ffffffffffffffff811115611ce1578283fd5b611ced85828601611a31565b925050602083013560ff81168114611b01578182fd5b600060208284031215611d14578081fd5b5035919050565b600060208284031215611d2c578081fd5b5051919050565b60008151808452815b81811015611d5857602081850181015186830182015201611d3c565b81811115611d695782602083870101525b50601f01601f19169290920160200192915050565b6001600160a01b0385811682526020820185905283166040820152608060608201819052600090611db190830184611d33565b9695505050505050565b6000602082526117ce6020830184611d33565b60208082526021908201527f76616c75652073686f756c64206265206c657373207468616e2062616c616e636040820152606560f81b606082015260800190565b60208082526025908201527f53656e64657220646f6573206e6f7420686176652074686520636f727265637460408201526420726f6c6560d81b606082015260800190565b60008219821115611e6757611e67611ed9565b500190565b600082821015611e7e57611e7e611ed9565b500390565b600181811c90821680611e9757607f821691505b60208210811415611eb857634e487b7160e01b600052602260045260246000fd5b50919050565b6000600019821415611ed257611ed2611ed9565b5060010190565b634e487b7160e01b600052601160045260246000fd5b634e487b7160e01b600052604160045260246000fd5b6001600160a01b0381168114611f1a57600080fd5b5056fe53656e646572206e65656473205550444154455f49504653434f4e5441494e4552484153485f524f4c45ddf252ad1be2c89b69c2b068fc378daa952ba7f163c4a11628f55a4df523b3efa2646970667358221220943fd25dfe9c59c408cde1e758317365b37f908a55211a034360e2a3ba1dd21764736f6c63430008030033",
  "immutableReferences": {},
  "source": "/**\n * Copyright (C) SettleMint NV - All Rights Reserved\n *\n * Use of this file is strictly prohibited without an active license agreement.\n * Distribution of this file, via any medium, is strictly prohibited.\n *\n * For license inquiries, contact hello@settlemint.com\n *\n * SPDX-License-Identifier: UNLICENSED\n */\n\npragma solidity ^0.8.0;\n\nimport '../_library//tokens/ERC20/ERC20Token.sol';\n\n/**\n * @title Fungible token that records repayments.\n */\ncontract Loan is ERC20Token {\n  constructor(\n    string memory name,\n    uint8 decimals,\n    address gateKeeper,\n    string memory uiFieldDefinitionsHash\n  ) ERC20Token(name, decimals, gateKeeper, uiFieldDefinitionsHash) {}\n\n  struct LoanMetrics {\n    uint256 loaned;\n    uint256 repayed;\n  }\n\n  mapping(address => LoanMetrics) public loans;\n\n  bytes32 public constant REPAY_ROLE = 'REPAY_ROLE';\n  bytes32 public constant EDIT_ROLE = 'EDIT_ROLE';\n\n  event Repayment(address from, uint256 value);\n\n  function getDecimalsFor(\n    bytes memory /*fieldName*/\n  ) public view override returns (uint256) {\n    return _decimals;\n  }\n\n  /**\n   * @notice Updates the token's name and number of decimals\n   * @dev Restricted to user with the \"EDIT_ROLE\" permission\n   * @param name the token's new name\n   * @param decimals the token's new number of decimals\n   */\n  function edit(string memory name, uint8 decimals) public auth(EDIT_ROLE) {\n    _name = name;\n    _decimals = decimals;\n  }\n\n  /**\n   * @notice Increases the amount borrowed for an address\n   * @param to the address of the borrower\n   * @param amount the amount borrowed\n   * @return success a boolean value indicating success or failure\n   */\n  function mint(address to, uint256 amount) public override auth(MINT_ROLE) returns (bool success) {\n    loans[to].loaned = loans[to].loaned + amount;\n    return super.mint(to, amount);\n  }\n\n  /**\n   * @notice Increases the amount repayed for an address\n   * @param from the address of the borrower\n   * @param amount the amount repayed\n   * @return success a boolean value indicating success or failure\n   */\n  function repay(address from, uint256 amount) public auth(REPAY_ROLE) returns (bool success) {\n    loans[from].repayed = loans[from].repayed + amount;\n    emit Repayment(from, amount);\n    return true;\n  }\n\n  /**\n   * @notice Returns the outstanding amount borrowed for an address\n   * @param owner the address of the borrower\n   * @return outstanding the outstanding amount borrowed\n   */\n  function outstandingOf(address owner) public view returns (int256 outstanding) {\n    return int256(loans[owner].loaned - loans[owner].repayed);\n  }\n\n  /**\n   * @notice Returns the amount of tokenholders recorded in this contract\n   * @dev Gets the amount of token holders, used by the middleware to build a cache you can query. You should not need this function in general since iteration this way clientside is very slow.\n   * @return length An uint256 representing the amount of tokenholders recorded in this contract.\n   */\n  function getIndexLength() public view override returns (uint256 length) {\n    length = tokenHolders.length;\n  }\n\n  /**\n   * @notice Returns the address and balance of the tokenholder by index\n   * @param index used to access the tokenHolders array\n   * @return holder holder's address, balance, amount loaned and amount repayed\n   */\n  function getByIndex(uint256 index)\n    public\n    view\n    returns (\n      address holder,\n      uint256 balance,\n      uint256 loaned,\n      uint256 repayed\n    )\n  {\n    holder = tokenHolders[index];\n    balance = balances[tokenHolders[index]].balance;\n    loaned = loans[tokenHolders[index]].loaned;\n    repayed = loans[tokenHolders[index]].repayed;\n  }\n\n  /**\n   * @notice Returns the address and balance of the tokenholder by address\n   * @param key used to access the token's balances and loans properties\n   * @return holder holder's address, balance, amount loaned and amount repayed\n   */\n  function getByKey(address key)\n    public\n    view\n    returns (\n      address holder,\n      uint256 balance,\n      uint256 loaned,\n      uint256 repayed\n    )\n  {\n    holder = key;\n    balance = balances[key].balance;\n    loaned = loans[key].loaned;\n    repayed = loans[key].repayed;\n  }\n}\n",
  "sourcePath": "/home/coder/project/contracts/loan/Loan.sol",
  "compiler": {
    "name": "solc",
    "version": "0.8.3+commit.8d00100c.Emscripten.clang"
  },
  "schemaVersion": "3.4.1",
  "updatedAt": "2021-08-03T10:05:10.149Z",
  "networkType": "ethereum",
  "devdoc": {
    "kind": "dev",
    "methods": {
      "allowance(address,address)": {
        "details": "Function to check the amount of tokens that an owner allowed to a spender.",
        "params": {
          "owner": "The address which owns the funds.",
          "spender": "The address which will spend the funds."
        },
        "returns": {
          "remaining": "A uint256 specifying the amount of tokens still available for the spender."
        }
      },
      "approve(address,uint256)": {
        "details": "Approve the passed address to spend the specified amount of tokens on behalf of msg.sender. Beware that changing an allowance with this method brings the risk that someone may use both the old and the new allowance by unfortunate transaction ordering. One possible solution to mitigate this race condition is to first reduce the spender's allowance to 0 and set the desired value afterwards: https://github.com/ethereum/EIPs/issues/20#issuecomment-263524729",
        "params": {
          "spender": "The address which will spend the funds.",
          "value": "The amount of tokens to be spent."
        }
      },
      "approveAndCall(address,uint256,bytes)": {
        "details": "ApproveAndCall the passed address to spend the specified amount of tokens on behalf of msg.sender and call the receiveApproval function on that contract. This allows users to use their tokens to interact with contracts in one function call instead of two. Beware that changing an allowance with this method brings the risk that someone may use both the old and the new allowance by unfortunate transaction ordering. One possible solution to mitigate this race condition is to first reduce the spender's allowance to 0 and set the desired value afterwards: https://github.com/ethereum/EIPs/issues/20#issuecomment-263524729",
        "params": {
          "data": "Extra data to be sent along the call.",
          "spender": "The address which will spend the funds.",
          "value": "The amount of tokens to be spent."
        }
      },
      "balanceOf(address)": {
        "details": "Gets the balance of the specified address.",
        "params": {
          "owner": "The address to query the the balance of."
        },
        "returns": {
          "balance": "An uint256 representing the amount owned by the passed address."
        }
      },
      "edit(string,uint8)": {
        "details": "Restricted to user with the \"EDIT_ROLE\" permission",
        "params": {
          "decimals": "the token's new number of decimals",
          "name": "the token's new name"
        }
      },
      "getByIndex(uint256)": {
        "params": {
          "index": "used to access the tokenHolders array"
        },
        "returns": {
          "holder": "holder's address, balance, amount loaned and amount repayed"
        }
      },
      "getByKey(address)": {
        "params": {
          "key": "used to access the token's balances and loans properties"
        },
        "returns": {
          "holder": "holder's address, balance, amount loaned and amount repayed"
        }
      },
      "getIndexLength()": {
        "details": "Gets the amount of token holders, used by the middleware to build a cache you can query. You should not need this function in general since iteration this way clientside is very slow.",
        "returns": {
          "length": "An uint256 representing the amount of tokenholders recorded in this contract."
        }
      },
      "increaseApproval(address,uint256)": {
        "details": "approve should be called when allowed[spender] == 0. To increment allowed value it's better to use this function to avoid 2 calls (and wait until the first transaction is mined). From MonolithDAO ERC20Token.sol"
      },
      "mint(address,uint256)": {
        "params": {
          "amount": "the amount borrowed",
          "to": "the address of the borrower"
        },
        "returns": {
          "success": "a boolean value indicating success or failure"
        }
      },
      "outstandingOf(address)": {
        "params": {
          "owner": "the address of the borrower"
        },
        "returns": {
          "outstanding": "the outstanding amount borrowed"
        }
      },
      "repay(address,uint256)": {
        "params": {
          "amount": "the amount repayed",
          "from": "the address of the borrower"
        },
        "returns": {
          "success": "a boolean value indicating success or failure"
        }
      }
    },
    "title": "Fungible token that records repayments.",
    "version": 1
  },
  "userdoc": {
    "kind": "user",
    "methods": {
      "edit(string,uint8)": {
        "notice": "Updates the token's name and number of decimals"
      },
      "getByIndex(uint256)": {
        "notice": "Returns the address and balance of the tokenholder by index"
      },
      "getByKey(address)": {
        "notice": "Returns the address and balance of the tokenholder by address"
      },
      "getIndexLength()": {
        "notice": "Returns the amount of tokenholders recorded in this contract"
      },
      "mint(address,uint256)": {
        "notice": "Increases the amount borrowed for an address"
      },
      "outstandingOf(address)": {
        "notice": "Returns the outstanding amount borrowed for an address"
      },
      "repay(address,uint256)": {
        "notice": "Increases the amount repayed for an address"
      }
    },
    "version": 1
  }
}