{
  "contractName": "LoyaltyPointFactory",
  "abi": [
    {
      "inputs": [
        {
          "internalType": "address",
          "name": "registry",
          "type": "address"
        },
        {
          "internalType": "address",
          "name": "gk",
          "type": "address"
        }
      ],
      "stateMutability": "nonpayable",
      "type": "constructor"
    },
    {
      "anonymous": false,
      "inputs": [
        {
          "indexed": false,
          "internalType": "address",
          "name": "_address",
          "type": "address"
        },
        {
          "indexed": false,
          "internalType": "string",
          "name": "_name",
          "type": "string"
        }
      ],
      "name": "TokenCreated",
      "type": "event"
    },
    {
      "inputs": [],
      "name": "CREATE_TOKEN_ROLE",
      "outputs": [
        {
          "internalType": "bytes32",
          "name": "",
          "type": "bytes32"
        }
      ],
      "stateMutability": "view",
      "type": "function"
    },
    {
      "inputs": [],
      "name": "UPDATE_UIFIELDDEFINITIONS_ROLE",
      "outputs": [
        {
          "internalType": "bytes32",
          "name": "",
          "type": "bytes32"
        }
      ],
      "stateMutability": "view",
      "type": "function"
    },
    {
      "inputs": [],
      "name": "gateKeeper",
      "outputs": [
        {
          "internalType": "contract GateKeeper",
          "name": "",
          "type": "address"
        }
      ],
      "stateMutability": "view",
      "type": "function"
    },
    {
      "inputs": [],
      "name": "getUIFieldDefinitionsHash",
      "outputs": [
        {
          "internalType": "string",
          "name": "",
          "type": "string"
        }
      ],
      "stateMutability": "view",
      "type": "function"
    },
    {
      "inputs": [
        {
          "internalType": "string",
          "name": "uiFieldDefinitionsHash",
          "type": "string"
        }
      ],
      "name": "setUIFieldDefinitionsHash",
      "outputs": [],
      "stateMutability": "nonpayable",
      "type": "function"
    },
    {
      "inputs": [
        {
          "internalType": "string",
          "name": "name",
          "type": "string"
        },
        {
          "internalType": "uint8",
          "name": "decimals",
          "type": "uint8"
        }
      ],
      "name": "createToken",
      "outputs": [],
      "stateMutability": "nonpayable",
      "type": "function"
    }
  ],
  "bytecode": "0x608060405234801561001057600080fd5b50604051612b6c380380612b6c83398101604081905261002f9161007c565b600180546001600160a01b039283166001600160a01b031991821617909155600280549290931691161790556100ae565b80516001600160a01b038116811461007757600080fd5b919050565b6000806040838503121561008e578182fd5b61009783610060565b91506100a560208401610060565b90509250929050565b612aaf806100bd6000396000f3fe60806040523480156200001157600080fd5b50600436106200006a5760003560e01c80631f0f992a146200006f578063459b9af914620000aa57806345d61ded14620000c3578063781c95da14620000f057806382f686831462000109578063b4d8c2a41462000120575b600080fd5b620000977f5550444154455f55494649454c44444546494e4954494f4e535f524f4c45000081565b6040519081526020015b60405180910390f35b620000b46200013c565b604051620000a191906200090e565b600154620000d7906001600160a01b031681565b6040516001600160a01b039091168152602001620000a1565b620001076200010136600462000815565b620001d6565b005b620001076200011a366004620007d6565b62000540565b62000097704352454154455f544f4b454e5f524f4c4560781b81565b6060600080546200014d9062000a31565b80601f01602080910402602001604051908101604052809291908181526020018280546200017b9062000a31565b8015620001cc5780601f10620001a057610100808354040283529160200191620001cc565b820191906000526020600020905b815481529060010190602001808311620001ae57829003601f168201915b5050505050905090565b704352454154455f544f4b454e5f524f4c4560781b6040518060400160405280601e81526020017f53656e646572206e65656473204352454154455f544f4b454e5f524f4c4500008152506200022d3383620005c5565b8190620002585760405162461bcd60e51b81526004016200024f91906200090e565b60405180910390fd5b50600154604051600091869186916001600160a01b03169084906200027d9062000671565b6200028c94939291906200094f565b604051809103906000f080158015620002a9573d6000803e3d6000fd5b50600254604051632c2c8b0b60e21b81529192506001600160a01b03169063b0b22c2c90620002df908890859060040162000923565b600060405180830381600087803b158015620002fa57600080fd5b505af11580156200030f573d6000803e3d6000fd5b505050507f7c56d5eff73d004b4d80f35d05a7e9a2429df1bb9544be59c859d049e2f449fb818660405162000346929190620008e8565b60405180910390a16001546040516317c0708f60e31b81526001600160a01b039091169063be03847890620003929033908590684d494e545f524f4c4560b81b908390600401620008bd565b600060405180830381600087803b158015620003ad57600080fd5b505af1158015620003c2573d6000803e3d6000fd5b50506001546040516317c0708f60e31b81526001600160a01b03909116925063be03847891506200040a9033908590684255524e5f524f4c4560b81b908390600401620008bd565b600060405180830381600087803b1580156200042557600080fd5b505af11580156200043a573d6000803e3d6000fd5b50506001546040516317c0708f60e31b81526001600160a01b03909116925063be03847891506200048d9033908590735550444154455f4d455441444154415f524f4c4560601b908390600401620008bd565b600060405180830381600087803b158015620004a857600080fd5b505af1158015620004bd573d6000803e3d6000fd5b50506001546040516317c0708f60e31b81526001600160a01b03909116925063be038478915062000505903390859068454449545f524f4c4560b81b908390600401620008bd565b600060405180830381600087803b1580156200052057600080fd5b505af115801562000535573d6000803e3d6000fd5b505050505050505050565b7f5550444154455f55494649454c44444546494e4954494f4e535f524f4c4500006040518060600160405280602b815260200162002a4f602b9139620005873383620005c5565b8190620005a95760405162461bcd60e51b81526004016200024f91906200090e565b508251620005bf9060009060208601906200067f565b50505050565b6001546000906001600160a01b031615806200066a5750600154604051630dace25b60e31b81526001600160a01b0385811660048301523060248301526044820185905290911690636d6712d89060640160206040518083038186803b1580156200062f57600080fd5b505afa15801562000644573d6000803e3d6000fd5b505050506040513d601f19601f820116820180604052508101906200066a9190620007b4565b9392505050565b611fca8062000a8583390190565b8280546200068d9062000a31565b90600052602060002090601f016020900481019282620006b15760008555620006fc565b82601f10620006cc57805160ff1916838001178555620006fc565b82800160010185558215620006fc579182015b82811115620006fc578251825591602001919060010190620006df565b506200070a9291506200070e565b5090565b5b808211156200070a57600081556001016200070f565b600082601f83011262000736578081fd5b813567ffffffffffffffff8082111562000754576200075462000a6e565b604051601f8301601f19908116603f011681019082821181831017156200077f576200077f62000a6e565b8160405283815286602085880101111562000798578485fd5b8360208701602083013792830160200193909352509392505050565b600060208284031215620007c6578081fd5b815180151581146200066a578182fd5b600060208284031215620007e8578081fd5b813567ffffffffffffffff811115620007ff578182fd5b6200080d8482850162000725565b949350505050565b6000806040838503121562000828578081fd5b823567ffffffffffffffff8111156200083f578182fd5b6200084d8582860162000725565b925050602083013560ff8116811462000864578182fd5b809150509250929050565b60008151808452815b81811015620008965760208185018101518683018201520162000878565b81811115620008a85782602083870101525b50601f01601f19169290920160200192915050565b6001600160a01b03948516815292841660208401526040830191909152909116606082015260800190565b6001600160a01b03831681526040602082018190526000906200080d908301846200086f565b6000602082526200066a60208301846200086f565b6000604082526200093860408301856200086f565b905060018060a01b03831660208301529392505050565b6000608082526200096460808301876200086f565b60ff86166020848101919091526001600160a01b0386166040850152838203606085015284548390600181811c9082811680620009a257607f831692505b858310811415620009c157634e487b7160e01b88526022600452602488fd5b828752602087019650808015620009e15760018114620009f35762000a1f565b60ff1985168852868801955062000a1f565b60008b815260209020895b8581101562000a195781548a820152908401908801620009fe565b89019650505b50939c9b505050505050505050505050565b600181811c9082168062000a4657607f821691505b6020821081141562000a6857634e487b7160e01b600052602260045260246000fd5b50919050565b634e487b7160e01b600052604160045260246000fdfe60806040523480156200001157600080fd5b5060405162001fca38038062001fca833981016040819052620000349162000206565b600080546001600160a01b0319166001600160a01b0384161790558351849084908490849084908490849062000072906002906020860190620000ad565b50506003805460ff191660ff929092169190911790555080516200009e906008906020840190620000ad565b505050505050505050620002f9565b828054620000bb90620002a6565b90600052602060002090601f016020900481019282620000df57600085556200012a565b82601f10620000fa57805160ff19168380011785556200012a565b828001600101855582156200012a579182015b828111156200012a5782518255916020019190600101906200010d565b50620001389291506200013c565b5090565b5b808211156200013857600081556001016200013d565b600082601f83011262000164578081fd5b81516001600160401b0380821115620001815762000181620002e3565b604051601f8301601f19908116603f01168101908282118183101715620001ac57620001ac620002e3565b81604052838152602092508683858801011115620001c8578485fd5b8491505b83821015620001eb5785820183015181830184015290820190620001cc565b83821115620001fc57848385830101525b9695505050505050565b600080600080608085870312156200021c578384fd5b84516001600160401b038082111562000233578586fd5b620002418883890162000153565b95506020870151915060ff8216821462000259578485fd5b60408701519194506001600160a01b038216821462000276578384fd5b6060870151919350808211156200028b578283fd5b506200029a8782880162000153565b91505092959194509250565b600181811c90821680620002bb57607f821691505b60208210811415620002dd57634e487b7160e01b600052602260045260246000fd5b50919050565b634e487b7160e01b600052604160045260246000fd5b611cc180620003096000396000f3fe608060405234801561001057600080fd5b50600436106101e55760003560e01c8063910fd10a1161010f578063d73dd623116100a2578063e9a9c85011610071578063e9a9c8501461047e578063ee532f3114610491578063ef120a6e146104a4578063fcbb5907146104ac576101e5565b8063d73dd62314610417578063dcb82f811461042a578063dd62ed3e1461043d578063e1ba7d0114610476576101e5565b8063b5cf89d7116100de578063b5cf89d7146103d6578063b930908f146103e9578063cae9ca51146103fc578063d28d88521461040f576101e5565b8063910fd10a14610395578063999399541461039d5780639dc29fac146103b0578063a9059cbb146103c3576101e5565b806340c10f19116101875780634de6740e116101565780634de6740e1461032f57806356c57bd114610344578063661884631461035957806370a082311461036c576101e5565b806340c10f19146102b357806342822756146102c657806345d61ded146102d95780634987703814610304576101e5565b806323b872dd116101c357806323b872dd1461023c5780632535f7621461024f5780632d883a731461026257806332424aa314610294576101e5565b8063095ea7b3146101ea57806318160ddd146102125780631bd42f3e14610229575b600080fd5b6101fd6101f836600461194b565b6104d3565b60405190151581526020015b60405180910390f35b61021b60075481565b604051908152602001610209565b6101fd61023736600461194b565b61053f565b6101fd61024a36600461186d565b6106f2565b6101fd61025d366004611976565b610951565b610275610270366004611a6c565b6109de565b604080516001600160a01b039093168352602083019190915201610209565b6003546102a19060ff1681565b60405160ff9091168152602001610209565b6101fd6102c136600461194b565b610a6d565b61021b6102d43660046119e7565b610c18565b6000546102ec906001600160a01b031681565b6040516001600160a01b039091168152602001610209565b610275610312366004611819565b6001600160a01b0381166000908152600460205260409020549091565b610337610c24565b6040516102099190611b24565b6103576103523660046119e7565b610cb2565b005b6101fd61036736600461194b565b610d24565b61021b61037a366004611819565b6001600160a01b031660009081526004602052604090205490565b610337610e0c565b61021b68454449545f524f4c4560b81b81565b6101fd6103be36600461194b565b610e19565b6101fd6103d136600461194b565b610ffb565b6103576103e4366004611a22565b611172565b61021b684255524e5f524f4c4560b81b81565b6101fd61040a366004611976565b61120f565b6103376112d3565b6101fd61042536600461194b565b6112e0565b6101fd61043836600461194b565b611371565b61021b61044b366004611835565b6001600160a01b03918216600090815260066020908152604080832093909416825291909152205490565b60055461021b565b61021b684d494e545f524f4c4560b81b81565b6101fd61049f3660046118ad565b61150d565b61033761159b565b61021b7f5550444154455f49504653434f4e5441494e4552484153485f524f4c4500000081565b3360008181526006602090815260408083206001600160a01b038716808552925280832085905551919290917f8c5be1e5ebec7d5bd14f71427d1e84f3dd0314c0f7b2291e5b200ac8c7c3b9259061052e9086815260200190565b60405180910390a350600192915050565b6000684255524e5f524f4c4560b81b6040518060400160405280601a81526020017f53656e646572206e6565647320746865204255524e5f524f4c4500000000000081525061058e338361162d565b81906105b65760405162461bcd60e51b81526004016105ad9190611b24565b60405180910390fd5b5060008590506000816001600160a01b031663e1ba7d016040518163ffffffff1660e01b815260040160206040518083038186803b1580156105f757600080fd5b505afa15801561060b573d6000803e3d6000fd5b505050506040513d601f19601f8201168201806040525081019061062f9190611a84565b905060005b818110156106e457604051632d883a7360e01b81526004810182905260009081906001600160a01b03861690632d883a7390602401604080518083038186803b15801561068057600080fd5b505afa158015610694573d6000803e3d6000fd5b505050506040513d601f19601f820116820180604052508101906106b89190611917565b909250905080156106cf576106cd828a610e19565b505b505080806106dc90611be2565b915050610634565b506001979650505050505050565b60006001600160a01b0383166107425760405162461bcd60e51b81526020600482015260156024820152741d1bc81cda1bdd5b19081b9bdd081899481b9d5b1b605a1b60448201526064016105ad565b6001600160a01b03841660009081526004602052604090205482111561077a5760405162461bcd60e51b81526004016105ad90611b37565b6001600160a01b03841660009081526006602090815260408083203384529091529020548211156107f95760405162461bcd60e51b815260206004820152602360248201527f76616c75652073686f756c64206265206c657373207468616e20616c6c6f77616044820152626e636560e81b60648201526084016105ad565b6001600160a01b038316600090815260046020526040902060010154610878576001600160a01b0383166000818152600460205260408120426001918201556005805491820181559091527f036b6384b5eca791c62761152d0c79bb0604c104a5fb6f4eb0703f3154bb3db00180546001600160a01b03191690911790555b6001600160a01b038416600090815260046020526040812080548492906108a0908490611b90565b90915550506001600160a01b038316600090815260046020526040812080548492906108cd908490611b78565b90915550506001600160a01b038416600090815260066020908152604080832033845290915281208054849290610905908490611b90565b92505081905550826001600160a01b0316846001600160a01b0316600080516020611c6c8339815191528460405161093f91815260200190565b60405180910390a35060019392505050565b600061095d8484610ffb565b61099b5760405162461bcd60e51b815260206004820152600f60248201526e1d1c985b9cd9995c8819985a5b1959608a1b60448201526064016105ad565b836001600160a01b0316336001600160a01b03167f69cf42fddae119b7568ebaa1f70aac657fd6abd62d00c2ab4fcf81ff87935ab38460405161093f9190611b24565b60008060058381548110610a0257634e487b7160e01b600052603260045260246000fd5b6000918252602082200154600580546001600160a01b0390921694506004929186908110610a4057634e487b7160e01b600052603260045260246000fd5b60009182526020808320909101546001600160a01b03168352820192909252604001902054919391925050565b6000684d494e545f524f4c4560b81b6040518060400160405280601b81526020017f53656e646572206e6565647320746865204d494e545f5f524f4c450000000000815250610abc338361162d565b8190610adb5760405162461bcd60e51b81526004016105ad9190611b24565b506001600160a01b038516600090815260046020526040902060010154610b5b576001600160a01b0385166000818152600460205260408120426001918201556005805491820181559091527f036b6384b5eca791c62761152d0c79bb0604c104a5fb6f4eb0703f3154bb3db00180546001600160a01b03191690911790555b8360076000828254610b6d9190611b78565b90915550506001600160a01b03851660009081526004602052604081208054869290610b9a908490611b78565b90915550506040518481526001600160a01b038616907f0f6798a560793a54c3bcfe86a93cde1e73087d944c0ea20544137d41213968859060200160405180910390a26040518481526001600160a01b03861690600090600080516020611c6c833981519152906020015b60405180910390a3506001949350505050565b60035460ff165b919050565b60088054610c3190611ba7565b80601f0160208091040260200160405190810160405280929190818152602001828054610c5d90611ba7565b8015610caa5780601f10610c7f57610100808354040283529160200191610caa565b820191906000526020600020905b815481529060010190602001808311610c8d57829003601f168201915b505050505081565b7f5550444154455f49504653434f4e5441494e4552484153485f524f4c450000006040518060600160405280602a8152602001611c42602a9139610cf6338361162d565b8190610d155760405162461bcd60e51b81526004016105ad9190611b24565b50610d1f836116d2565b505050565b3360009081526006602090815260408083206001600160a01b038616845290915281205480831115610d79573360009081526006602090815260408083206001600160a01b0388168452909152812055610da8565b610d838382611b90565b3360009081526006602090815260408083206001600160a01b03891684529091529020555b3360008181526006602090815260408083206001600160a01b038916808552908352928190205490519081529192917f8c5be1e5ebec7d5bd14f71427d1e84f3dd0314c0f7b2291e5b200ac8c7c3b925910160405180910390a35060019392505050565b60018054610c3190611ba7565b6000684255524e5f524f4c4560b81b6040518060400160405280601a81526020017f53656e646572206e6565647320746865204255524e5f524f4c45000000000000815250610e68338361162d565b8190610e875760405162461bcd60e51b81526004016105ad9190611b24565b5060008411610ed85760405162461bcd60e51b815260206004820152601e60248201527f616d6f756e742073686f756c6420626520626967676572207468616e2030000060448201526064016105ad565b6001600160a01b038516600090815260046020526040902054841115610f4b5760405162461bcd60e51b815260206004820152602260248201527f616d6f756e742073686f756c64206265206c657373207468616e2062616c616e604482015261636560f01b60648201526084016105ad565b6001600160a01b03851660009081526004602052604081208054869290610f73908490611b90565b925050819055508360076000828254610f8c9190611b90565b90915550506040518481526001600160a01b038616907fcc16f5dbb4873280815c1ee09dbd06736cffcc184412cf7a71a0fdb75d397ca59060200160405180910390a26040518481526000906001600160a01b03871690600080516020611c6c83398151915290602001610c05565b60006001600160a01b0383166110485760405162461bcd60e51b81526020600482015260126024820152710746f2073686f756c64206e6f7420626520360741b60448201526064016105ad565b336000908152600460205260409020548211156110775760405162461bcd60e51b81526004016105ad90611b37565b6001600160a01b0383166000908152600460205260409020600101546110f6576001600160a01b0383166000818152600460205260408120426001918201556005805491820181559091527f036b6384b5eca791c62761152d0c79bb0604c104a5fb6f4eb0703f3154bb3db00180546001600160a01b03191690911790555b3360009081526004602052604081208054849290611115908490611b90565b90915550506001600160a01b03831660009081526004602052604081208054849290611142908490611b78565b90915550506040518281526001600160a01b038416903390600080516020611c6c8339815191529060200161052e565b68454449545f524f4c4560b81b611189338261162d565b6111e35760405162461bcd60e51b815260206004820152602560248201527f53656e64657220646f6573206e6f7420686176652074686520636f727265637460448201526420726f6c6560d81b60648201526084016105ad565b82516111f69060029060208601906116e9565b50506003805460ff191660ff9290921691909117905550565b600061121b84846104d3565b6112735760405162461bcd60e51b8152602060048201526024808201527f436f756c64206e6f7420617070726f766520616d6f756e7420666f7220737065604482015263373232b960e11b60648201526084016105ad565b604051638f4ffcb160e01b81526001600160a01b03851690638f4ffcb1906112a5903390879030908890600401611ae7565b600060405180830381600087803b1580156112bf57600080fd5b505af11580156106e4573d6000803e3d6000fd5b60028054610c3190611ba7565b3360009081526006602090815260408083206001600160a01b0386168452909152812080548391908390611315908490611b78565b90915550503360008181526006602090815260408083206001600160a01b038816808552908352928190205490519081529192917f8c5be1e5ebec7d5bd14f71427d1e84f3dd0314c0f7b2291e5b200ac8c7c3b925910161052e565b6000684d494e545f524f4c4560b81b6040518060400160405280601b81526020017f53656e646572206e6565647320746865204d494e545f5f524f4c4500000000008152506113c0338361162d565b81906113df5760405162461bcd60e51b81526004016105ad9190611b24565b5060008590506000816001600160a01b031663e1ba7d016040518163ffffffff1660e01b815260040160206040518083038186803b15801561142057600080fd5b505afa158015611434573d6000803e3d6000fd5b505050506040513d601f19601f820116820180604052508101906114589190611a84565b905060005b818110156106e457604051632d883a7360e01b81526004810182905260009081906001600160a01b03861690632d883a7390602401604080518083038186803b1580156114a957600080fd5b505afa1580156114bd573d6000803e3d6000fd5b505050506040513d601f19601f820116820180604052508101906114e19190611917565b909250905080156114f8576114f6828a610a6d565b505b5050808061150590611be2565b91505061145d565b600061151a8585856106f2565b6115585760405162461bcd60e51b815260206004820152600f60248201526e1d1c985b9cd9995c8819985a5b1959608a1b60448201526064016105ad565b836001600160a01b0316856001600160a01b03167f69cf42fddae119b7568ebaa1f70aac657fd6abd62d00c2ab4fcf81ff87935ab384604051610c059190611b24565b6060600180546115aa90611ba7565b80601f01602080910402602001604051908101604052809291908181526020018280546115d690611ba7565b80156116235780601f106115f857610100808354040283529160200191611623565b820191906000526020600020905b81548152906001019060200180831161160657829003601f168201915b5050505050905090565b600080546001600160a01b031615806116cb5750600054604051630dace25b60e31b81526001600160a01b0385811660048301523060248301526044820185905290911690636d6712d89060640160206040518083038186803b15801561169357600080fd5b505afa1580156116a7573d6000803e3d6000fd5b505050506040513d601f19601f820116820180604052508101906116cb91906119cd565b9392505050565b80516116e59060019060208401906116e9565b5050565b8280546116f590611ba7565b90600052602060002090601f016020900481019282611717576000855561175d565b82601f1061173057805160ff191683800117855561175d565b8280016001018555821561175d579182015b8281111561175d578251825591602001919060010190611742565b5061176992915061176d565b5090565b5b80821115611769576000815560010161176e565b80518015158114610c1f57600080fd5b600082601f8301126117a2578081fd5b813567ffffffffffffffff808211156117bd576117bd611c13565b604051601f8301601f19908116603f011681019082821181831017156117e5576117e5611c13565b816040528381528660208588010111156117fd578485fd5b8360208701602083013792830160200193909352509392505050565b60006020828403121561182a578081fd5b81356116cb81611c29565b60008060408385031215611847578081fd5b823561185281611c29565b9150602083013561186281611c29565b809150509250929050565b600080600060608486031215611881578081fd5b833561188c81611c29565b9250602084013561189c81611c29565b929592945050506040919091013590565b600080600080608085870312156118c2578081fd5b84356118cd81611c29565b935060208501356118dd81611c29565b925060408501359150606085013567ffffffffffffffff8111156118ff578182fd5b61190b87828801611792565b91505092959194509250565b60008060408385031215611929578182fd5b825161193481611c29565b915061194260208401611782565b90509250929050565b6000806040838503121561195d578182fd5b823561196881611c29565b946020939093013593505050565b60008060006060848603121561198a578283fd5b833561199581611c29565b925060208401359150604084013567ffffffffffffffff8111156119b7578182fd5b6119c386828701611792565b9150509250925092565b6000602082840312156119de578081fd5b6116cb82611782565b6000602082840312156119f8578081fd5b813567ffffffffffffffff811115611a0e578182fd5b611a1a84828501611792565b949350505050565b60008060408385031215611a34578182fd5b823567ffffffffffffffff811115611a4a578283fd5b611a5685828601611792565b925050602083013560ff81168114611862578182fd5b600060208284031215611a7d578081fd5b5035919050565b600060208284031215611a95578081fd5b5051919050565b60008151808452815b81811015611ac157602081850181015186830182015201611aa5565b81811115611ad25782602083870101525b50601f01601f19169290920160200192915050565b6001600160a01b0385811682526020820185905283166040820152608060608201819052600090611b1a90830184611a9c565b9695505050505050565b6000602082526116cb6020830184611a9c565b60208082526021908201527f76616c75652073686f756c64206265206c657373207468616e2062616c616e636040820152606560f81b606082015260800190565b60008219821115611b8b57611b8b611bfd565b500190565b600082821015611ba257611ba2611bfd565b500390565b600181811c90821680611bbb57607f821691505b60208210811415611bdc57634e487b7160e01b600052602260045260246000fd5b50919050565b6000600019821415611bf657611bf6611bfd565b5060010190565b634e487b7160e01b600052601160045260246000fd5b634e487b7160e01b600052604160045260246000fd5b6001600160a01b0381168114611c3e57600080fd5b5056fe53656e646572206e65656473205550444154455f49504653434f4e5441494e4552484153485f524f4c45ddf252ad1be2c89b69c2b068fc378daa952ba7f163c4a11628f55a4df523b3efa2646970667358221220a986808c4ce92b5a9e11352d383b6360f7c0dbf6b15931cf9583c292d91c552064736f6c6343000803003353656e646572206e65656473205550444154455f55494649454c44444546494e4954494f4e535f524f4c45a26469706673582212200a10ce39b1b792d7127f6ab5f4e8528f141b2a4b42ffbb7c2995327d070eff5364736f6c63430008030033",
  "immutableReferences": {},
  "source": "/**\n * Copyright (C) SettleMint NV - All Rights Reserved\n *\n * Use of this file is strictly prohibited without an active license agreement.\n * Distribution of this file, via any medium, is strictly prohibited.\n *\n * For license inquiries, contact hello@settlemint.com\n *\n * SPDX-License-Identifier: UNLICENSED\n */\n\npragma solidity ^0.8.0;\n\nimport '../_library//tokens/ERC20/ERC20TokenFactory.sol';\nimport './LoyaltyPoint.sol';\n\n/**\n * @title Factory contract for ERC20-based LoyaltyPoint token\n */\ncontract LoyaltyPointFactory is ERC20TokenFactory {\n  constructor(address registry, address gk) ERC20TokenFactory(registry, gk) {}\n\n  /**\n   * @notice Factory method to create new LoyaltyPoint token.\n   * @dev Restricted to user with the \"CREATE_TOKEN_ROLE\" permission.\n   * @param name the token's name\n   * @param decimals the token's number of decimals\n   */\n  function createToken(string memory name, uint8 decimals)\n    public\n    authWithCustomReason(CREATE_TOKEN_ROLE, 'Sender needs CREATE_TOKEN_ROLE')\n  {\n    LoyaltyPoint newToken = new LoyaltyPoint(name, decimals, address(gateKeeper), _uiFieldDefinitionsHash);\n    _tokenRegistry.addToken(name, address(newToken));\n    emit TokenCreated(address(newToken), name);\n    gateKeeper.createPermission(msg.sender, address(newToken), bytes32('MINT_ROLE'), msg.sender);\n    gateKeeper.createPermission(msg.sender, address(newToken), bytes32('BURN_ROLE'), msg.sender);\n    gateKeeper.createPermission(msg.sender, address(newToken), bytes32('UPDATE_METADATA_ROLE'), msg.sender);\n    gateKeeper.createPermission(msg.sender, address(newToken), bytes32('EDIT_ROLE'), msg.sender);\n  }\n}\n",
  "sourcePath": "/home/coder/project/contracts/loyaltypoint/LoyaltyPointFactory.sol",
  "compiler": {
    "name": "solc",
    "version": "0.8.3+commit.8d00100c.Emscripten.clang"
  },
  "schemaVersion": "3.4.3",
  "updatedAt": "2021-09-21T08:25:29.247Z",
  "networkType": "ethereum",
  "devdoc": {
    "kind": "dev",
    "methods": {
      "createToken(string,uint8)": {
        "details": "Restricted to user with the \"CREATE_TOKEN_ROLE\" permission.",
        "params": {
          "decimals": "the token's number of decimals",
          "name": "the token's name"
        }
      }
    },
    "title": "Factory contract for ERC20-based LoyaltyPoint token",
    "version": 1
  },
  "userdoc": {
    "kind": "user",
    "methods": {
      "createToken(string,uint8)": {
        "notice": "Factory method to create new LoyaltyPoint token."
      }
    },
    "version": 1
  }
}