{
  "contractName": "OmnibusToken",
  "abi": [
    {
      "inputs": [
        {
          "internalType": "string",
          "name": "name",
          "type": "string"
        },
        {
          "internalType": "string",
          "name": "symbol",
          "type": "string"
        },
        {
          "internalType": "uint8",
          "name": "decimals",
          "type": "uint8"
        },
        {
          "internalType": "address",
          "name": "gateKeeper",
          "type": "address"
        }
      ],
      "stateMutability": "nonpayable",
      "type": "constructor"
    },
    {
      "anonymous": false,
      "inputs": [
        {
          "indexed": true,
          "internalType": "string",
          "name": "account",
          "type": "string"
        },
        {
          "indexed": false,
          "internalType": "uint256",
          "name": "amount",
          "type": "uint256"
        }
      ],
      "name": "Burn",
      "type": "event"
    },
    {
      "anonymous": false,
      "inputs": [
        {
          "indexed": true,
          "internalType": "string",
          "name": "account",
          "type": "string"
        },
        {
          "indexed": false,
          "internalType": "uint256",
          "name": "amount",
          "type": "uint256"
        }
      ],
      "name": "Mint",
      "type": "event"
    },
    {
      "anonymous": false,
      "inputs": [
        {
          "indexed": false,
          "internalType": "string",
          "name": "sender",
          "type": "string"
        },
        {
          "indexed": false,
          "internalType": "string",
          "name": "recipient",
          "type": "string"
        },
        {
          "indexed": false,
          "internalType": "uint256",
          "name": "amount",
          "type": "uint256"
        }
      ],
      "name": "Transfer",
      "type": "event"
    },
    {
      "inputs": [],
      "name": "UPDATE_IPFSCONTAINERHASH_ROLE",
      "outputs": [
        {
          "internalType": "bytes32",
          "name": "",
          "type": "bytes32"
        }
      ],
      "stateMutability": "view",
      "type": "function"
    },
    {
      "inputs": [],
      "name": "_ipfsFieldContainerHash",
      "outputs": [
        {
          "internalType": "string",
          "name": "",
          "type": "string"
        }
      ],
      "stateMutability": "view",
      "type": "function"
    },
    {
      "inputs": [
        {
          "internalType": "string",
          "name": "",
          "type": "string"
        }
      ],
      "name": "balances",
      "outputs": [
        {
          "internalType": "uint256",
          "name": "balance",
          "type": "uint256"
        },
        {
          "internalType": "uint256",
          "name": "firstTransaction",
          "type": "uint256"
        }
      ],
      "stateMutability": "view",
      "type": "function"
    },
    {
      "inputs": [],
      "name": "gateKeeper",
      "outputs": [
        {
          "internalType": "contract GateKeeper",
          "name": "",
          "type": "address"
        }
      ],
      "stateMutability": "view",
      "type": "function"
    },
    {
      "inputs": [],
      "name": "getIpfsFieldContainerHash",
      "outputs": [
        {
          "internalType": "string",
          "name": "",
          "type": "string"
        }
      ],
      "stateMutability": "view",
      "type": "function"
    },
    {
      "inputs": [
        {
          "internalType": "string",
          "name": "ipfsFieldContainerHash",
          "type": "string"
        }
      ],
      "name": "setIpfsFieldContainerHash",
      "outputs": [],
      "stateMutability": "nonpayable",
      "type": "function"
    },
    {
      "inputs": [
        {
          "internalType": "uint256",
          "name": "",
          "type": "uint256"
        }
      ],
      "name": "tokenHolders",
      "outputs": [
        {
          "internalType": "string",
          "name": "",
          "type": "string"
        }
      ],
      "stateMutability": "view",
      "type": "function"
    },
    {
      "inputs": [
        {
          "internalType": "uint256",
          "name": "",
          "type": "uint256"
        }
      ],
      "name": "transactionHistory",
      "outputs": [
        {
          "internalType": "string",
          "name": "recipient",
          "type": "string"
        },
        {
          "internalType": "string",
          "name": "sender",
          "type": "string"
        },
        {
          "internalType": "bytes32",
          "name": "transactionType",
          "type": "bytes32"
        },
        {
          "internalType": "uint256",
          "name": "amount",
          "type": "uint256"
        },
        {
          "internalType": "uint256",
          "name": "price",
          "type": "uint256"
        },
        {
          "internalType": "string",
          "name": "comment",
          "type": "string"
        }
      ],
      "stateMutability": "view",
      "type": "function"
    },
    {
      "inputs": [],
      "name": "name",
      "outputs": [
        {
          "internalType": "string",
          "name": "",
          "type": "string"
        }
      ],
      "stateMutability": "view",
      "type": "function"
    },
    {
      "inputs": [],
      "name": "symbol",
      "outputs": [
        {
          "internalType": "string",
          "name": "",
          "type": "string"
        }
      ],
      "stateMutability": "view",
      "type": "function"
    },
    {
      "inputs": [],
      "name": "decimals",
      "outputs": [
        {
          "internalType": "uint8",
          "name": "",
          "type": "uint8"
        }
      ],
      "stateMutability": "view",
      "type": "function"
    },
    {
      "inputs": [],
      "name": "totalSupply",
      "outputs": [
        {
          "internalType": "uint256",
          "name": "",
          "type": "uint256"
        }
      ],
      "stateMutability": "view",
      "type": "function"
    },
    {
      "inputs": [
        {
          "internalType": "string",
          "name": "account",
          "type": "string"
        }
      ],
      "name": "balanceOf",
      "outputs": [
        {
          "internalType": "uint256",
          "name": "",
          "type": "uint256"
        }
      ],
      "stateMutability": "view",
      "type": "function"
    },
    {
      "inputs": [
        {
          "internalType": "string",
          "name": "sender",
          "type": "string"
        },
        {
          "internalType": "string",
          "name": "recipient",
          "type": "string"
        },
        {
          "internalType": "uint256",
          "name": "amount",
          "type": "uint256"
        },
        {
          "internalType": "uint256",
          "name": "price",
          "type": "uint256"
        }
      ],
      "name": "transfer",
      "outputs": [
        {
          "internalType": "bool",
          "name": "success",
          "type": "bool"
        }
      ],
      "stateMutability": "nonpayable",
      "type": "function"
    },
    {
      "inputs": [
        {
          "internalType": "string",
          "name": "account",
          "type": "string"
        },
        {
          "internalType": "uint256",
          "name": "amount",
          "type": "uint256"
        },
        {
          "internalType": "uint256",
          "name": "price",
          "type": "uint256"
        }
      ],
      "name": "mint",
      "outputs": [
        {
          "internalType": "bool",
          "name": "success",
          "type": "bool"
        }
      ],
      "stateMutability": "nonpayable",
      "type": "function"
    },
    {
      "inputs": [
        {
          "internalType": "string",
          "name": "account",
          "type": "string"
        },
        {
          "internalType": "uint256",
          "name": "amount",
          "type": "uint256"
        },
        {
          "internalType": "uint256",
          "name": "price",
          "type": "uint256"
        }
      ],
      "name": "burn",
      "outputs": [
        {
          "internalType": "bool",
          "name": "success",
          "type": "bool"
        }
      ],
      "stateMutability": "nonpayable",
      "type": "function"
    }
  ],
  "bytecode": "0x60806040523480156200001157600080fd5b5060405162001582380380620015828339810160408190526200003491620001f2565b600080546001600160a01b0319166001600160a01b03831617905583516200006490600490602087019062000099565b5082516200007a90600590602086019062000099565b50506006805460ff191660ff9290921691909117905550620002e49050565b828054620000a79062000291565b90600052602060002090601f016020900481019282620000cb576000855562000116565b82601f10620000e657805160ff191683800117855562000116565b8280016001018555821562000116579182015b8281111562000116578251825591602001919060010190620000f9565b506200012492915062000128565b5090565b5b8082111562000124576000815560010162000129565b600082601f83011262000150578081fd5b81516001600160401b03808211156200016d576200016d620002ce565b604051601f8301601f19908116603f01168101908282118183101715620001985762000198620002ce565b81604052838152602092508683858801011115620001b4578485fd5b8491505b83821015620001d75785820183015181830184015290820190620001b8565b83821115620001e857848385830101525b9695505050505050565b6000806000806080858703121562000208578384fd5b84516001600160401b03808211156200021f578586fd5b6200022d888389016200013f565b9550602087015191508082111562000243578485fd5b5062000252878288016200013f565b935050604085015160ff8116811462000269578283fd5b60608601519092506001600160a01b038116811462000286578182fd5b939692955090935050565b600181811c90821680620002a657607f821691505b60208210811415620002c857634e487b7160e01b600052602260045260246000fd5b50919050565b634e487b7160e01b600052604160045260246000fd5b61128e80620002f46000396000f3fe608060405234801561001057600080fd5b50600436106101005760003560e01c806345d61ded1161009757806395d89b411161006657806395d89b4114610256578063e30f75be1461025e578063ef120a6e14610271578063fcbb59071461027957610100565b806345d61ded146101fb57806356c57bd114610226578063910fd10a1461023b578063923108d91461024357610100565b8063243e7a87116100d3578063243e7a87146101675780632afd97a41461018c578063313ce567146101d357806335ee5f87146101e857610100565b806302c7bd961461010557806306fdde031461012d57806318160ddd146101425780631c635ded14610154575b600080fd5b610118610113366004611045565b6102a0565b60405190151581526020015b60405180910390f35b61013561045f565b60405161012491906110f1565b6007545b604051908152602001610124565b610118610162366004611045565b6104f1565b61017a610175366004611091565b61072f565b60405161012496959493929190611104565b6101be61019a366004610f99565b80516020818301810180516002825292820191909301209152805460019091015482565b60408051928352602083019190915201610124565b60065460405160ff9091168152602001610124565b6101466101f6366004610f99565b610913565b60005461020e906001600160a01b031681565b6040516001600160a01b039091168152602001610124565b610239610234366004610f99565b61093c565b005b610135610953565b610135610251366004611091565b6109e1565b610135610a0c565b61011861026c366004610fd4565b610a1b565b610135610ce9565b6101467f5550444154455f49504653434f4e5441494e4552484153485f524f4c4500000081565b6000684255524e5f524f4c4560b81b6040518060400160405280601681526020017543616c6c6572206e65656473204255524e5f524f4c4560501b8152506102e83383610cf8565b81906103105760405162461bcd60e51b815260040161030791906110f1565b60405180910390fd5b5060008651116103735760405162461bcd60e51b815260206004820152602860248201527f4f6d6e69627573546f6b656e3a206275726e2066726f6d20616e20656d707479604482015267081858d8dbdd5b9d60c21b6064820152608401610307565b600060028760405161038591906110d5565b908152602001604051809103902090508581600001546103a591906111aa565b81556007546103b59087906111aa565b600781905550610408876040518060400160405280601181526020017015d150531512081350539051d153515395607a1b815250888863212aa92760e11b60405180602001604052806000815250610d9d565b600193508660405161041a91906110d5565b604051908190038120878252907fa0237080cf48d9e1fbb9ef1f82e33b11170d047b2b540a73b457d0916d53ee99906020015b60405180910390a25050509392505050565b60606004805461046e906111f1565b80601f016020809104026020016040519081016040528092919081815260200182805461049a906111f1565b80156104e75780601f106104bc576101008083540402835291602001916104e7565b820191906000526020600020905b8154815290600101906020018083116104ca57829003601f168201915b5050505050905090565b6000684d494e545f524f4c4560b81b6040518060400160405280601681526020017543616c6c6572206e65656473204d494e545f524f4c4560501b8152506105393383610cf8565b81906105585760405162461bcd60e51b815260040161030791906110f1565b5060008651116105b95760405162461bcd60e51b815260206004820152602660248201527f4f6d6e69627573546f6b656e3a206d696e7420746f20616e20656d707479206160448201526518d8dbdd5b9d60d21b6064820152608401610307565b6002866040516105c991906110d5565b9081526020016040518091039020600101546000141561064c57426002876040516105f491906110d5565b90815260405160209181900382019020600190810192909255600380549283018155600052875161064a927fc2575a0e9e593c00f959f8c92f12db2869c3395a3b0502d05e2516446f71f85b0191890190610e59565b505b8460075461065a9190611192565b6007556040516000906002906106719089906110d5565b908152602001604051809103902090508581600001546106919190611192565b81600001819055506106e6876040518060400160405280601181526020017015d150531512081350539051d153515395607a1b8152508888631352539560e21b60405180602001604052806000815250610d9d565b60019350866040516106f891906110d5565b604051908190038120878252907f0a4e1e5035320483d096cf114513007c4eda3853a4dca806da2d9faec60470a69060200161044d565b6008818154811061073f57600080fd5b9060005260206000209060060201600091509050806000018054610762906111f1565b80601f016020809104026020016040519081016040528092919081815260200182805461078e906111f1565b80156107db5780601f106107b0576101008083540402835291602001916107db565b820191906000526020600020905b8154815290600101906020018083116107be57829003601f168201915b5050505050908060010180546107f0906111f1565b80601f016020809104026020016040519081016040528092919081815260200182805461081c906111f1565b80156108695780601f1061083e57610100808354040283529160200191610869565b820191906000526020600020905b81548152906001019060200180831161084c57829003601f168201915b505050505090806002015490806003015490806004015490806005018054610890906111f1565b80601f01602080910402602001604051908101604052809291908181526020018280546108bc906111f1565b80156109095780601f106108de57610100808354040283529160200191610909565b820191906000526020600020905b8154815290600101906020018083116108ec57829003601f168201915b5050505050905086565b600060028260405161092591906110d5565b908152604051908190036020019020549050919050565b805161094f906001906020840190610e59565b5050565b60018054610960906111f1565b80601f016020809104026020016040519081016040528092919081815260200182805461098c906111f1565b80156109d95780601f106109ae576101008083540402835291602001916109d9565b820191906000526020600020905b8154815290600101906020018083116109bc57829003601f168201915b505050505081565b600381815481106109f157600080fd5b906000526020600020016000915090508054610960906111f1565b60606005805461046e906111f1565b600080855111610a825760405162461bcd60e51b815260206004820152602c60248201527f4f6d6e69627573546f6b656e3a207472616e736665722066726f6d20616e206560448201526b1b5c1d1e481858d8dbdd5b9d60a21b6064820152608401610307565b6000845111610ae75760405162461bcd60e51b815260206004820152602b60248201527f4f6d6e69627573546f6b656e3a207472616e7366657220746f2020616e20656d60448201526a1c1d1e481858d8dbdd5b9d60aa1b6064820152608401610307565b600285604051610af791906110d5565b90815260200160405180910390206001015460001415610b7a5742600286604051610b2291906110d5565b908152604051602091819003820190206001908101929092556003805492830181556000528651610b78927fc2575a0e9e593c00f959f8c92f12db2869c3395a3b0502d05e2516446f71f85b0191880190610e59565b505b600284604051610b8a91906110d5565b90815260200160405180910390206001015460001415610c0d5742600285604051610bb591906110d5565b908152604051602091819003820190206001908101929092556003805492830181556000528551610c0b927fc2575a0e9e593c00f959f8c92f12db2869c3395a3b0502d05e2516446f71f85b0191870190610e59565b505b6000600286604051610c1f91906110d5565b908152602001604051809103902090506000600286604051610c4191906110d5565b90815260200160405180910390209050848260000154610c6191906111aa565b82558054610c70908690611192565b8160000181905550610ca086888787672a2920a729a322a960c11b60405180602001604052806000815250610d9d565b600192507f5358be4df107be4d9b023fc323f41d7109610225c6ef211b9d375b9fbd7ccc4f878787604051610cd79392919061115c565b60405180910390a15050949350505050565b60606001805461046e906111f1565b600080546001600160a01b03161580610d965750600054604051630dace25b60e31b81526001600160a01b0385811660048301523060248301526044820185905290911690636d6712d89060640160206040518083038186803b158015610d5e57600080fd5b505afa158015610d72573d6000803e3d6000fd5b505050506040513d601f19601f82011682018060405250810190610d969190610f79565b9392505050565b600880546001908101808355600083815290929091610dbc90846111aa565b81548110610dda57634e487b7160e01b600052603260045260246000fd5b60009182526020918290208a516006909202019250610dfe918391908b0190610e59565b508651610e1490600183019060208a0190610e59565b506002810184905560038101869055600481018590558251610e3f9060058301906020860190610e59565b5084600954610e4e9190611192565b505050505050505050565b828054610e65906111f1565b90600052602060002090601f016020900481019282610e875760008555610ecd565b82601f10610ea057805160ff1916838001178555610ecd565b82800160010185558215610ecd579182015b82811115610ecd578251825591602001919060010190610eb2565b50610ed9929150610edd565b5090565b5b80821115610ed95760008155600101610ede565b600082601f830112610f02578081fd5b813567ffffffffffffffff80821115610f1d57610f1d611242565b604051601f8301601f19908116603f01168101908282118183101715610f4557610f45611242565b81604052838152866020858801011115610f5d578485fd5b8360208701602083013792830160200193909352509392505050565b600060208284031215610f8a578081fd5b81518015158114610d96578182fd5b600060208284031215610faa578081fd5b813567ffffffffffffffff811115610fc0578182fd5b610fcc84828501610ef2565b949350505050565b60008060008060808587031215610fe9578283fd5b843567ffffffffffffffff80821115611000578485fd5b61100c88838901610ef2565b95506020870135915080821115611021578485fd5b5061102e87828801610ef2565b949794965050505060408301359260600135919050565b600080600060608486031215611059578283fd5b833567ffffffffffffffff81111561106f578384fd5b61107b86828701610ef2565b9660208601359650604090950135949350505050565b6000602082840312156110a2578081fd5b5035919050565b600081518084526110c18160208601602086016111c1565b601f01601f19169290920160200192915050565b600082516110e78184602087016111c1565b9190910192915050565b600060208252610d9660208301846110a9565b600060c0825261111760c08301896110a9565b828103602084015261112981896110a9565b905086604084015285606084015284608084015282810360a084015261114f81856110a9565b9998505050505050505050565b60006060825261116f60608301866110a9565b828103602084015261118181866110a9565b915050826040830152949350505050565b600082198211156111a5576111a561122c565b500190565b6000828210156111bc576111bc61122c565b500390565b60005b838110156111dc5781810151838201526020016111c4565b838111156111eb576000848401525b50505050565b600181811c9082168061120557607f821691505b6020821081141561122657634e487b7160e01b600052602260045260246000fd5b50919050565b634e487b7160e01b600052601160045260246000fd5b634e487b7160e01b600052604160045260246000fdfea2646970667358221220c561a176d2682e19f240123f63139786448a8f7525e4b41c16ee9129f94a95f364736f6c63430008030033",
  "immutableReferences": {},
  "source": "/**\n * Copyright (C) SettleMint NV - All Rights Reserved\n *\n * Use of this file is strictly prohibited without an active license agreement.\n * Distribution of this file, via any medium, is strictly prohibited.\n *\n * For license inquiries, contact hello@settlemint.com\n *\n * SPDX-License-Identifier: UNLICENSED\n */\n\npragma solidity ^0.8.0;\n\nimport '../_library//authentication/Secured.sol';\nimport '../_library//utility/metadata/IpfsFieldContainer.sol';\n\ncontract OmnibusToken is Secured, IpfsFieldContainer {\n  struct TokenAccount {\n    uint256 balance;\n    uint256 firstTransaction;\n  }\n\n  bytes32 internal constant MINT_ROLE = 'MINT_ROLE';\n  bytes32 internal constant BURN_ROLE = 'BURN_ROLE';\n\n  mapping(string => TokenAccount) public balances;\n  string[] public tokenHolders;\n  string internal _name;\n  string internal _symbol;\n  uint8 internal _decimals;\n  uint256 internal _tSupply;\n\n  constructor(\n    string memory name,\n    string memory symbol,\n    uint8 decimals,\n    address gateKeeper\n  ) Secured(gateKeeper) {\n    _name = name;\n    _symbol = symbol;\n    _decimals = decimals;\n  }\n\n  struct TransactionDetail {\n    string recipient;\n    string sender;\n    bytes32 transactionType;\n    uint256 amount;\n    uint256 price;\n    string comment;\n  }\n\n  TransactionDetail[] public transactionHistory;\n  uint256 internal totalFunds;\n\n  function recordTransaction(\n    string memory recipient,\n    string memory sender,\n    uint256 amount,\n    uint256 price,\n    bytes32 transactionType,\n    string memory comment\n  ) internal {\n    transactionHistory.push();\n    uint256 index = transactionHistory.length;\n    TransactionDetail storage t = transactionHistory[index - 1];\n    t.recipient = recipient;\n    t.sender = sender;\n    t.transactionType = transactionType;\n    t.amount = amount;\n    t.price = price;\n    t.comment = comment;\n\n    totalFunds + price;\n  }\n\n  event Transfer(string sender, string recipient, uint256 amount);\n  event Burn(string indexed account, uint256 amount);\n  event Mint(string indexed account, uint256 amount);\n\n  /**\n   * @dev Returns the name of the token.\n   */\n  function name() public view returns (string memory) {\n    return _name;\n  }\n\n  /**\n   * @dev Returns the symbol of the token, usually a shorter version of the\n   * name or an ISIN.\n   */\n  function symbol() public view returns (string memory) {\n    return _symbol;\n  }\n\n  /**\n   * @dev Returns the number of decimals used to get its user representation.\n   * For example, if `decimals` equals `2`, a balance of `505` tokens should\n   * be displayed to a user as `5,05` (`505 / 10 ** 2`).\n   *\n   * Tokens usually opt for a value of 18, imitating the relationship between\n   * Ether and Wei.\n   *\n   * NOTE: This information is only used for _display_ purposes: it in\n   * no way affects any of the arithmetic of the contract, including\n   * balanceOf and transfer.\n   */\n  function decimals() public view returns (uint8) {\n    return _decimals;\n  }\n\n  /**\n   * @dev Returns the amount of tokens in existence.\n   */\n  function totalSupply() public view returns (uint256) {\n    return _tSupply;\n  }\n\n  /**\n   * @dev Returns the amount of tokens owned by `account`.\n   */\n  function balanceOf(string memory account) public view returns (uint256) {\n    return balances[account].balance;\n  }\n\n  /**\n   * @dev Moves `amount` tokens from `sender` to `recipient`.\n   *\n   * Returns a boolean value indicating whether the operation succeeded.\n   *\n   * Emits a {Transfer} event.\n   *\n   * Requirements:\n   *\n   * - `sender` and `recipient` cannot be empty.\n   * - `sender` must have a balance of at least `amount`.\n   */\n  function transfer(\n    string memory sender,\n    string memory recipient,\n    uint256 amount,\n    uint256 price\n  ) public virtual returns (bool success) {\n    require(bytes(sender).length > 0, 'OmnibusToken: transfer from an empty account');\n    require(bytes(recipient).length > 0, 'OmnibusToken: transfer to  an empty account');\n    if (balances[sender].firstTransaction == 0) {\n      balances[sender].firstTransaction = block.timestamp;\n      tokenHolders.push(sender);\n    }\n    if (balances[recipient].firstTransaction == 0) {\n      balances[recipient].firstTransaction = block.timestamp;\n      tokenHolders.push(recipient);\n    }\n    TokenAccount storage senderBalance = balances[sender];\n    TokenAccount storage recipientBalance = balances[recipient];\n    senderBalance.balance = senderBalance.balance - amount;\n    recipientBalance.balance = recipientBalance.balance + amount;\n    recordTransaction(recipient, sender, amount, price, bytes32('TRANSFER'), '');\n    success = true;\n\n    emit Transfer(sender, recipient, amount);\n  }\n\n  /** @dev Creates `amount` te total supply.\n   *\n   * Emits a {Mint} event\n   *\n   * Requirements\n   *\n   * - minted tokens must not cause the total supply to go over the cap.\n   */\n  function mint(\n    string memory account,\n    uint256 amount,\n    uint256 price\n  ) public virtual authWithCustomReason(MINT_ROLE, 'Caller needs MINT_ROLE') returns (bool success) {\n    require(bytes(account).length > 0, 'OmnibusToken: mint to an empty account');\n    if (balances[account].firstTransaction == 0) {\n      balances[account].firstTransaction = block.timestamp;\n      tokenHolders.push(account);\n    }\n    _tSupply = _tSupply + amount;\n    TokenAccount storage accountBalance = balances[account];\n    accountBalance.balance = accountBalance.balance + amount;\n    recordTransaction(account, 'WEALTH MANAGEMENT', amount, price, bytes32('MINT'), '');\n    success = true;\n    emit Mint(account, amount);\n  }\n\n  /**\n   * @dev Destroys `amount` tokens from `account`, reducing the\n   * total supply.\n   *\n   * Emits a {Burn} event.\n   *\n   * Requirements\n   *\n   * - `account` cannot be empty.\n   * - `account` must have at least `amount` tokens.\n   */\n  function burn(\n    string memory account,\n    uint256 amount,\n    uint256 price\n  ) public virtual authWithCustomReason(BURN_ROLE, 'Caller needs BURN_ROLE') returns (bool success) {\n    require(bytes(account).length > 0, 'OmnibusToken: burn from an empty account');\n    TokenAccount storage accountBalance = balances[account];\n    accountBalance.balance = accountBalance.balance - amount;\n    _tSupply = _tSupply - amount;\n    recordTransaction(account, 'WEALTH MANAGEMENT', amount, price, bytes32('BURN'), '');\n    success = true;\n    emit Burn(account, amount);\n  }\n}\n",
  "sourcePath": "/home/coder/project/contracts/omnibustoken/OmnibusToken.sol",
  "compiler": {
    "name": "solc",
    "version": "0.8.3+commit.8d00100c.Emscripten.clang"
  },
  "schemaVersion": "3.4.3",
  "updatedAt": "2021-09-21T08:20:59.449Z",
  "devdoc": {
    "kind": "dev",
    "methods": {
      "balanceOf(string)": {
        "details": "Returns the amount of tokens owned by `account`."
      },
      "burn(string,uint256,uint256)": {
        "details": "Destroys `amount` tokens from `account`, reducing the total supply. Emits a {Burn} event. Requirements - `account` cannot be empty. - `account` must have at least `amount` tokens."
      },
      "decimals()": {
        "details": "Returns the number of decimals used to get its user representation. For example, if `decimals` equals `2`, a balance of `505` tokens should be displayed to a user as `5,05` (`505 / 10 ** 2`). Tokens usually opt for a value of 18, imitating the relationship between Ether and Wei. NOTE: This information is only used for _display_ purposes: it in no way affects any of the arithmetic of the contract, including balanceOf and transfer."
      },
      "mint(string,uint256,uint256)": {
        "details": "Creates `amount` te total supply. Emits a {Mint} event Requirements - minted tokens must not cause the total supply to go over the cap."
      },
      "name()": {
        "details": "Returns the name of the token."
      },
      "symbol()": {
        "details": "Returns the symbol of the token, usually a shorter version of the name or an ISIN."
      },
      "totalSupply()": {
        "details": "Returns the amount of tokens in existence."
      },
      "transfer(string,string,uint256,uint256)": {
        "details": "Moves `amount` tokens from `sender` to `recipient`. Returns a boolean value indicating whether the operation succeeded. Emits a {Transfer} event. Requirements: - `sender` and `recipient` cannot be empty. - `sender` must have a balance of at least `amount`."
      }
    },
    "version": 1
  },
  "userdoc": {
    "kind": "user",
    "methods": {},
    "version": 1
  }
}