{
  "contractName": "Orders",
  "abi": [
    {
      "inputs": [
        {
          "internalType": "address",
          "name": "gateKeeper",
          "type": "address"
        },
        {
          "internalType": "address",
          "name": "registry",
          "type": "address"
        }
      ],
      "stateMutability": "nonpayable",
      "type": "constructor"
    },
    {
      "anonymous": false,
      "inputs": [
        {
          "indexed": false,
          "internalType": "uint256",
          "name": "fsmIndex",
          "type": "uint256"
        },
        {
          "indexed": false,
          "internalType": "address",
          "name": "owner",
          "type": "address"
        },
        {
          "indexed": false,
          "internalType": "address",
          "name": "registry",
          "type": "address"
        }
      ],
      "name": "OrderCreated",
      "type": "event"
    },
    {
      "anonymous": false,
      "inputs": [
        {
          "indexed": false,
          "internalType": "uint256",
          "name": "index",
          "type": "uint256"
        },
        {
          "indexed": false,
          "internalType": "address",
          "name": "sender",
          "type": "address"
        },
        {
          "indexed": false,
          "internalType": "bytes32",
          "name": "fromState",
          "type": "bytes32"
        },
        {
          "indexed": false,
          "internalType": "bytes32",
          "name": "toState",
          "type": "bytes32"
        }
      ],
      "name": "StateTransition",
      "type": "event"
    },
    {
      "inputs": [],
      "name": "CREATE_STATEMACHINE_ROLE",
      "outputs": [
        {
          "internalType": "bytes32",
          "name": "",
          "type": "bytes32"
        }
      ],
      "stateMutability": "view",
      "type": "function"
    },
    {
      "inputs": [],
      "name": "FINITE_STATE_MACHINE",
      "outputs": [
        {
          "internalType": "bytes32",
          "name": "",
          "type": "bytes32"
        }
      ],
      "stateMutability": "view",
      "type": "function"
    },
    {
      "inputs": [],
      "name": "UPDATE_IPFSCONTAINERHASH_ROLE",
      "outputs": [
        {
          "internalType": "bytes32",
          "name": "",
          "type": "bytes32"
        }
      ],
      "stateMutability": "view",
      "type": "function"
    },
    {
      "inputs": [],
      "name": "UPDATE_UIFIELDDEFINITIONS_ROLE",
      "outputs": [
        {
          "internalType": "bytes32",
          "name": "",
          "type": "bytes32"
        }
      ],
      "stateMutability": "view",
      "type": "function"
    },
    {
      "inputs": [
        {
          "internalType": "uint256",
          "name": "",
          "type": "uint256"
        }
      ],
      "name": "_allRoles",
      "outputs": [
        {
          "internalType": "bytes32",
          "name": "",
          "type": "bytes32"
        }
      ],
      "stateMutability": "view",
      "type": "function"
    },
    {
      "inputs": [
        {
          "internalType": "uint256",
          "name": "",
          "type": "uint256"
        }
      ],
      "name": "_allStates",
      "outputs": [
        {
          "internalType": "bytes32",
          "name": "",
          "type": "bytes32"
        }
      ],
      "stateMutability": "view",
      "type": "function"
    },
    {
      "inputs": [],
      "name": "_ipfsFieldContainerHash",
      "outputs": [
        {
          "internalType": "string",
          "name": "",
          "type": "string"
        }
      ],
      "stateMutability": "view",
      "type": "function"
    },
    {
      "inputs": [],
      "name": "_upgradeableRegistry",
      "outputs": [
        {
          "internalType": "address",
          "name": "",
          "type": "address"
        }
      ],
      "stateMutability": "view",
      "type": "function"
    },
    {
      "inputs": [],
      "name": "gateKeeper",
      "outputs": [
        {
          "internalType": "contract GateKeeper",
          "name": "",
          "type": "address"
        }
      ],
      "stateMutability": "view",
      "type": "function"
    },
    {
      "inputs": [],
      "name": "getIndexLength",
      "outputs": [
        {
          "internalType": "uint256",
          "name": "length",
          "type": "uint256"
        }
      ],
      "stateMutability": "view",
      "type": "function"
    },
    {
      "inputs": [],
      "name": "getIpfsFieldContainerHash",
      "outputs": [
        {
          "internalType": "string",
          "name": "",
          "type": "string"
        }
      ],
      "stateMutability": "view",
      "type": "function"
    },
    {
      "inputs": [
        {
          "internalType": "string",
          "name": "",
          "type": "string"
        }
      ],
      "name": "prices",
      "outputs": [
        {
          "internalType": "uint256",
          "name": "",
          "type": "uint256"
        }
      ],
      "stateMutability": "view",
      "type": "function"
    },
    {
      "inputs": [
        {
          "internalType": "bytes32",
          "name": "key",
          "type": "bytes32"
        },
        {
          "internalType": "string",
          "name": "file",
          "type": "string"
        }
      ],
      "name": "setContractFile",
      "outputs": [],
      "stateMutability": "nonpayable",
      "type": "function"
    },
    {
      "inputs": [
        {
          "internalType": "string",
          "name": "ipfsFieldContainerHash",
          "type": "string"
        }
      ],
      "name": "setIpfsFieldContainerHash",
      "outputs": [],
      "stateMutability": "nonpayable",
      "type": "function"
    },
    {
      "inputs": [
        {
          "internalType": "uint256",
          "name": "fsmIndex",
          "type": "uint256"
        },
        {
          "internalType": "bytes32",
          "name": "toState",
          "type": "bytes32"
        }
      ],
      "name": "transitionState",
      "outputs": [],
      "stateMutability": "nonpayable",
      "type": "function"
    },
    {
      "inputs": [],
      "name": "initialState",
      "outputs": [
        {
          "internalType": "bytes32",
          "name": "",
          "type": "bytes32"
        }
      ],
      "stateMutability": "pure",
      "type": "function"
    },
    {
      "inputs": [],
      "name": "allStates",
      "outputs": [
        {
          "internalType": "bytes32[]",
          "name": "",
          "type": "bytes32[]"
        }
      ],
      "stateMutability": "view",
      "type": "function"
    },
    {
      "inputs": [],
      "name": "allRoles",
      "outputs": [
        {
          "internalType": "bytes32[]",
          "name": "",
          "type": "bytes32[]"
        }
      ],
      "stateMutability": "view",
      "type": "function"
    },
    {
      "inputs": [
        {
          "internalType": "bytes32",
          "name": "state",
          "type": "bytes32"
        }
      ],
      "name": "getNextStatesForState",
      "outputs": [
        {
          "internalType": "bytes32[]",
          "name": "test",
          "type": "bytes32[]"
        }
      ],
      "stateMutability": "pure",
      "type": "function"
    },
    {
      "inputs": [
        {
          "internalType": "bytes32",
          "name": "state",
          "type": "bytes32"
        }
      ],
      "name": "getAllowedRolesForState",
      "outputs": [
        {
          "internalType": "bytes32[]",
          "name": "",
          "type": "bytes32[]"
        }
      ],
      "stateMutability": "pure",
      "type": "function"
    },
    {
      "inputs": [
        {
          "internalType": "bytes32",
          "name": "state",
          "type": "bytes32"
        }
      ],
      "name": "getAllowedFunctionsForState",
      "outputs": [
        {
          "internalType": "bytes4[]",
          "name": "",
          "type": "bytes4[]"
        }
      ],
      "stateMutability": "view",
      "type": "function"
    },
    {
      "inputs": [
        {
          "internalType": "bytes32",
          "name": "state",
          "type": "bytes32"
        }
      ],
      "name": "getPreconditionsForState",
      "outputs": [
        {
          "internalType": "bytes4[]",
          "name": "",
          "type": "bytes4[]"
        }
      ],
      "stateMutability": "view",
      "type": "function"
    },
    {
      "inputs": [
        {
          "internalType": "bytes32",
          "name": "state",
          "type": "bytes32"
        }
      ],
      "name": "getCallbacksForState",
      "outputs": [
        {
          "internalType": "bytes4[]",
          "name": "",
          "type": "bytes4[]"
        }
      ],
      "stateMutability": "view",
      "type": "function"
    },
    {
      "inputs": [
        {
          "internalType": "bytes32",
          "name": "state",
          "type": "bytes32"
        }
      ],
      "name": "getPreFunctionForState",
      "outputs": [
        {
          "internalType": "bytes4",
          "name": "",
          "type": "bytes4"
        }
      ],
      "stateMutability": "pure",
      "type": "function"
    },
    {
      "inputs": [
        {
          "internalType": "address",
          "name": "businessUnit",
          "type": "address"
        },
        {
          "internalType": "uint256",
          "name": "InBoneChickenPerKg",
          "type": "uint256"
        },
        {
          "internalType": "uint256",
          "name": "WokForTwoPerPackage",
          "type": "uint256"
        },
        {
          "internalType": "uint256",
          "name": "FreeRangeChickenPerChicken",
          "type": "uint256"
        },
        {
          "internalType": "uint256",
          "name": "PastaSaladPerPackage",
          "type": "uint256"
        },
        {
          "internalType": "string",
          "name": "ipfsFieldContainerHash",
          "type": "string"
        }
      ],
      "name": "create",
      "outputs": [],
      "stateMutability": "nonpayable",
      "type": "function"
    },
    {
      "inputs": [
        {
          "internalType": "uint256",
          "name": "fsmIndex",
          "type": "uint256"
        },
        {
          "internalType": "address",
          "name": "businessUnit",
          "type": "address"
        },
        {
          "internalType": "uint256",
          "name": "InBoneChickenPerKg",
          "type": "uint256"
        },
        {
          "internalType": "uint256",
          "name": "WokForTwoPerPackage",
          "type": "uint256"
        },
        {
          "internalType": "uint256",
          "name": "FreeRangeChickenPerChicken",
          "type": "uint256"
        },
        {
          "internalType": "uint256",
          "name": "PastaSaladPerPackage",
          "type": "uint256"
        },
        {
          "internalType": "string",
          "name": "ipfsFieldContainerHash",
          "type": "string"
        }
      ],
      "name": "edit",
      "outputs": [],
      "stateMutability": "nonpayable",
      "type": "function"
    },
    {
      "inputs": [],
      "name": "canEdit",
      "outputs": [
        {
          "internalType": "bytes32[]",
          "name": "",
          "type": "bytes32[]"
        }
      ],
      "stateMutability": "view",
      "type": "function"
    },
    {
      "inputs": [
        {
          "internalType": "uint256",
          "name": "fsmIndex",
          "type": "uint256"
        }
      ],
      "name": "getByIndex",
      "outputs": [
        {
          "components": [
            {
              "internalType": "uint256",
              "name": "index",
              "type": "uint256"
            },
            {
              "internalType": "bytes32",
              "name": "currentState",
              "type": "bytes32"
            },
            {
              "components": [
                {
                  "internalType": "bytes32",
                  "name": "fromState",
                  "type": "bytes32"
                },
                {
                  "internalType": "bytes32",
                  "name": "toState",
                  "type": "bytes32"
                },
                {
                  "internalType": "address",
                  "name": "actor",
                  "type": "address"
                },
                {
                  "internalType": "uint256",
                  "name": "timestamp",
                  "type": "uint256"
                }
              ],
              "internalType": "struct FiniteStateMachine.Transition[]",
              "name": "transitions",
              "type": "tuple[]"
            },
            {
              "internalType": "uint256",
              "name": "createdAt",
              "type": "uint256"
            }
          ],
          "internalType": "struct FiniteStateMachine.StateMachine",
          "name": "item",
          "type": "tuple"
        },
        {
          "components": [
            {
              "internalType": "string",
              "name": "DID",
              "type": "string"
            },
            {
              "internalType": "address",
              "name": "businessUnit",
              "type": "address"
            },
            {
              "internalType": "uint256",
              "name": "InBoneChickenPerKg",
              "type": "uint256"
            },
            {
              "internalType": "uint256",
              "name": "InBoneChickenTotal",
              "type": "uint256"
            },
            {
              "internalType": "uint256",
              "name": "WokForTwoPerPackage",
              "type": "uint256"
            },
            {
              "internalType": "uint256",
              "name": "WokForTwoTotal",
              "type": "uint256"
            },
            {
              "internalType": "uint256",
              "name": "FreeRangeChickenPerChicken",
              "type": "uint256"
            },
            {
              "internalType": "uint256",
              "name": "FreeRangeChickenTotal",
              "type": "uint256"
            },
            {
              "internalType": "uint256",
              "name": "PastaSaladPerPackage",
              "type": "uint256"
            },
            {
              "internalType": "uint256",
              "name": "PastaSaladTotal",
              "type": "uint256"
            },
            {
              "internalType": "uint256",
              "name": "orderTotal",
              "type": "uint256"
            },
            {
              "internalType": "string",
              "name": "ipfsFieldContainerHash",
              "type": "string"
            }
          ],
          "internalType": "struct Orders.StateMachineMeta",
          "name": "meta",
          "type": "tuple"
        }
      ],
      "stateMutability": "view",
      "type": "function"
    },
    {
      "inputs": [],
      "name": "getContents",
      "outputs": [
        {
          "components": [
            {
              "internalType": "uint256",
              "name": "index",
              "type": "uint256"
            },
            {
              "internalType": "bytes32",
              "name": "currentState",
              "type": "bytes32"
            },
            {
              "components": [
                {
                  "internalType": "bytes32",
                  "name": "fromState",
                  "type": "bytes32"
                },
                {
                  "internalType": "bytes32",
                  "name": "toState",
                  "type": "bytes32"
                },
                {
                  "internalType": "address",
                  "name": "actor",
                  "type": "address"
                },
                {
                  "internalType": "uint256",
                  "name": "timestamp",
                  "type": "uint256"
                }
              ],
              "internalType": "struct FiniteStateMachine.Transition[]",
              "name": "transitions",
              "type": "tuple[]"
            },
            {
              "internalType": "uint256",
              "name": "createdAt",
              "type": "uint256"
            }
          ],
          "internalType": "struct FiniteStateMachine.StateMachine[]",
          "name": "registry",
          "type": "tuple[]"
        },
        {
          "components": [
            {
              "internalType": "string",
              "name": "DID",
              "type": "string"
            },
            {
              "internalType": "address",
              "name": "businessUnit",
              "type": "address"
            },
            {
              "internalType": "uint256",
              "name": "InBoneChickenPerKg",
              "type": "uint256"
            },
            {
              "internalType": "uint256",
              "name": "InBoneChickenTotal",
              "type": "uint256"
            },
            {
              "internalType": "uint256",
              "name": "WokForTwoPerPackage",
              "type": "uint256"
            },
            {
              "internalType": "uint256",
              "name": "WokForTwoTotal",
              "type": "uint256"
            },
            {
              "internalType": "uint256",
              "name": "FreeRangeChickenPerChicken",
              "type": "uint256"
            },
            {
              "internalType": "uint256",
              "name": "FreeRangeChickenTotal",
              "type": "uint256"
            },
            {
              "internalType": "uint256",
              "name": "PastaSaladPerPackage",
              "type": "uint256"
            },
            {
              "internalType": "uint256",
              "name": "PastaSaladTotal",
              "type": "uint256"
            },
            {
              "internalType": "uint256",
              "name": "orderTotal",
              "type": "uint256"
            },
            {
              "internalType": "string",
              "name": "ipfsFieldContainerHash",
              "type": "string"
            }
          ],
          "internalType": "struct Orders.StateMachineMeta[]",
          "name": "meta",
          "type": "tuple[]"
        }
      ],
      "stateMutability": "view",
      "type": "function"
    },
    {
      "inputs": [],
      "name": "getIndex",
      "outputs": [
        {
          "internalType": "string[]",
          "name": "index",
          "type": "string[]"
        }
      ],
      "stateMutability": "view",
      "type": "function"
    },
    {
      "inputs": [
        {
          "internalType": "string",
          "name": "uiFieldDefinitionsHash",
          "type": "string"
        }
      ],
      "name": "setUIFieldDefinitionsHash",
      "outputs": [],
      "stateMutability": "nonpayable",
      "type": "function"
    },
    {
      "inputs": [],
      "name": "getUIFieldDefinitionsHash",
      "outputs": [
        {
          "internalType": "string",
          "name": "",
          "type": "string"
        }
      ],
      "stateMutability": "view",
      "type": "function"
    }
  ],
  "bytecode": "0x6102406040526b13d491115497d4131050d15160a21b60809081526d13d491115497d050d0d15415115160921b60a0526b13d491115497d1115392515160a21b60c0526c13d491115497d4d21254141151609a1b60e0527014d212541351539517d49150d152559151607a1b610100527014d212541351539517d050d0d154151151607a1b610120526e14d212541351539517d11153925151608a1b61014052681092531317d4d1539560ba1b610160526c1092531317d49150d152559151609a1b610180526c1092531317d050d0d154151151609a1b6101a0526a1092531317d1115392515160aa1b6101c0527f42494c4c45445f544f5f425553494e4553535f554e49540000000000000000006101e0526d1410565351539517d254d4d5515160921b610200527f53544154455f5041594d454e545f524543454956454400000000000000000000610220526200015d90600790600e620003bb565b506040518060800160405280692927a622afa0a226a4a760b11b81526020016c2927a622afa9aaa8282624a2a960991b815260200167524f4c455f53534360c01b815260200166524f4c455f425560c81b8152506008906004620001c3929190620003bb565b5060408051808201909152692927a622afa0a226a4a760b11b815267524f4c455f53534360c01b6020820152620001ff906009906002620003bb565b503480156200020d57600080fd5b5060405162003da038038062003da083398101604081905262000230916200043f565b600080546001600160a01b0319166001600160a01b03848116919091179091558116620002a35760405162461bcd60e51b815260206004820152601860248201527f72656769737472792063616e206e6f74206265207a65726f0000000000000000604482015260640160405180910390fd5b600a80546001600160a01b0319166001600160a01b03831617905560405171496e426f6e65436869636b656e5065724b6760701b815260c790600d90601201908152604051908190036020018120919091557f576f6b466f7254776f5065725061636b61676500000000000000000000000000815261015d90600d90601301908152604051908190036020018120919091557f4672656552616e6765436869636b656e506572436869636b656e00000000000081526101f390600d90601a01908152604051908190036020018120919091557f506173746153616c61645065725061636b616765000000000000000000000000815261012b90600d906014019081526040519081900360200190205550620004769050565b828054828255906000526020600020908101928215620003f9579160200282015b82811115620003f9578251825591602001919060010190620003dc565b50620004079291506200040b565b5090565b5b808211156200040757600081556001016200040c565b80516001600160a01b03811681146200043a57600080fd5b919050565b6000806040838503121562000452578182fd5b6200045d8362000422565b91506200046d6020840162000422565b90509250929050565b61391a80620004866000396000f3fe608060405234801561001057600080fd5b50600436106101f05760003560e01c8063829c5c251161010f578063d143d005116100a2578063ef120a6e11610071578063ef120a6e1461046b578063f4a979a314610473578063fcbb590714610486578063fd95caa4146104ad576101f0565b8063d143d0051461041f578063dc834a731461043d578063e1ba7d0114610450578063e2f3e56c14610458576101f0565b80638baba52a116100de5780638baba52a146103d1578063910fd10a146103d9578063c3825f4b146103e1578063c4f10f3d1461040c576101f0565b8063829c5c251461039857806382f68683146103ab57806384267546146103be57806385fda2dc14610308576101f0565b80634c9be93311610187578063747f064211610156578063747f0642146103535780637dcbe4351461037357806381045ead1461037b57806381beeb6414610390576101f0565b80634c9be9331461030857806356c57bd114610329578063590fa6f81461033e57806367b06eac14610308576101f0565b8063412db2ad116101c3578063412db2ad14610288578063459b9af9146102b557806345d61ded146102ca5780634c86a555146102f5576101f0565b80631f0f992a146101f557806323677ae21461022f5780632d883a7314610245578063309c70cf14610266575b600080fd5b61021c7f5550444154455f55494649454c44444546494e4954494f4e535f524f4c45000081565b6040519081526020015b60405180910390f35b6102376104c0565b6040516102269291906134aa565b6102586102533660046130bd565b6107bd565b604051610226929190613573565b61021c774352454154455f53544154454d414348494e455f524f4c4560401b81565b61029c6102963660046130bd565b50600090565b6040516001600160e01b03199091168152602001610226565b6102bd610b17565b6040516102269190613560565b6000546102dd906001600160a01b031681565b6040516001600160a01b039091168152602001610226565b61021c6103033660046130bd565b610ba9565b61031c6103163660046130bd565b50606090565b6040516102269190613407565b61033c61033736600461311a565b610bca565b005b6b13d491115497d4131050d15160a21b61021c565b6103666103613660046130bd565b610be1565b60405161022691906133c3565b610366611173565b6103836111ca565b6040516102269190613449565b6103666112a3565b61033c6103a636600461302c565b6112f9565b61033c6103b936600461311a565b611698565b61033c6103cc366004613155565b611715565b610366611bbb565b6102bd611c11565b61021c6103ef36600461311a565b8051602081830181018051600d8252928201919093012091525481565b61036661041a3660046130bd565b611c9f565b61021c7346494e4954455f53544154455f4d414348494e4560601b81565b61021c61044b3660046130bd565b612637565b60015461021c565b600a546102dd906001600160a01b031681565b6102bd612647565b61033c6104813660046130d5565b612656565b61021c7f5550444154455f49504653434f4e5441494e4552484153485f524f4c4500000081565b61033c6104bb3660046131d1565b6126db565b6060806001805480602002602001604051908101604052809291908181526020016000905b828210156105bf5783829060005260206000209060040201604051806080016040529081600082015481526020016001820154815260200160028201805480602002602001604051908101604052809291908181526020016000905b8282101561059e5760008481526020908190206040805160808101825260048602909201805483526001808201548486015260028201546001600160a01b0316928401929092526003015460608301529083529092019101610541565b505050508152602001600382015481525050815260200190600101906104e5565b505050509150600b805480602002602001604051908101604052809291908181526020016000905b828210156107b357838290600052602060002090600c02016040518061018001604052908160008201805461061b906137d6565b80601f0160208091040260200160405190810160405280929190818152602001828054610647906137d6565b80156106945780601f1061066957610100808354040283529160200191610694565b820191906000526020600020905b81548152906001019060200180831161067757829003601f168201915b505050918352505060018201546001600160a01b03166020820152600282015460408201526003820154606082015260048201546080820152600582015460a0820152600682015460c0820152600782015460e082015260088201546101008201526009820154610120820152600a820154610140820152600b8201805461016090920191610722906137d6565b80601f016020809104026020016040519081016040528092919081815260200182805461074e906137d6565b801561079b5780601f106107705761010080835404028352916020019161079b565b820191906000526020600020905b81548152906001019060200180831161077e57829003601f168201915b505050505081525050815260200190600101906105e7565b5050505090509091565b6107eb6040518060800160405280600081526020016000801916815260200160608152602001600081525090565b6108586040518061018001604052806060815260200160006001600160a01b03168152602001600081526020016000815260200160008152602001600081526020016000815260200160008152602001600081526020016000815260200160008152602001606081525090565b6001838154811061087957634e487b7160e01b600052603260045260246000fd5b9060005260206000209060040201604051806080016040529081600082015481526020016001820154815260200160028201805480602002602001604051908101604052809291908181526020016000905b828210156109285760008481526020908190206040805160808101825260048602909201805483526001808201548486015260028201546001600160a01b03169284019290925260030154606083015290835290920191016108cb565b5050505081526020016003820154815250509150600b838154811061095d57634e487b7160e01b600052603260045260246000fd5b90600052602060002090600c020160405180610180016040529081600082018054610987906137d6565b80601f01602080910402602001604051908101604052809291908181526020018280546109b3906137d6565b8015610a005780601f106109d557610100808354040283529160200191610a00565b820191906000526020600020905b8154815290600101906020018083116109e357829003601f168201915b505050918352505060018201546001600160a01b03166020820152600282015460408201526003820154606082015260048201546080820152600582015460a0820152600682015460c0820152600782015460e082015260088201546101008201526009820154610120820152600a820154610140820152600b8201805461016090920191610a8e906137d6565b80601f0160208091040260200160405190810160405280929190818152602001828054610aba906137d6565b8015610b075780601f10610adc57610100808354040283529160200191610b07565b820191906000526020600020905b815481529060010190602001808311610aea57829003601f168201915b5050505050815250509050915091565b606060068054610b26906137d6565b80601f0160208091040260200160405190810160405280929190818152602001828054610b52906137d6565b8015610b9f5780601f10610b7457610100808354040283529160200191610b9f565b820191906000526020600020905b815481529060010190602001808311610b8257829003601f168201915b5050505050905090565b60078181548110610bb957600080fd5b600091825260209091200154905081565b8051610bdd906002906020840190612e7a565b5050565b6060806b13d491115497d4131050d15160a21b831415610c985760408051600280825260608201835290916020830190803683370190505090506d13d491115497d050d0d15415115160921b81600081518110610c4e57634e487b7160e01b600052603260045260246000fd5b6020026020010181815250506b13d491115497d1115392515160a21b81600181518110610c8b57634e487b7160e01b600052603260045260246000fd5b6020026020010181815250505b6d13d491115497d050d0d15415115160921b831415610d105760408051600180825281830190925290602080830190803683370190505090506c13d491115497d4d21254141151609a1b81600081518110610d0357634e487b7160e01b600052603260045260246000fd5b6020026020010181815250505b6c13d491115497d4d21254141151609a1b831415610d8b5760408051600180825281830190925290602080830190803683370190505090507014d212541351539517d49150d152559151607a1b81600081518110610d7e57634e487b7160e01b600052603260045260246000fd5b6020026020010181815250505b7014d212541351539517d49150d152559151607a1b831415610e4a5760408051600280825260608201835290916020830190803683370190505090507014d212541351539517d050d0d154151151607a1b81600081518110610dfd57634e487b7160e01b600052603260045260246000fd5b6020026020010181815250506e14d212541351539517d11153925151608a1b81600181518110610e3d57634e487b7160e01b600052603260045260246000fd5b6020026020010181815250505b7014d212541351539517d050d0d154151151607a1b831415610ec1576040805160018082528183019092529060208083019080368337019050509050681092531317d4d1539560ba1b81600081518110610eb457634e487b7160e01b600052603260045260246000fd5b6020026020010181815250505b681092531317d4d1539560ba1b831415610f345760408051600180825281830190925290602080830190803683370190505090506c1092531317d49150d152559151609a1b81600081518110610f2757634e487b7160e01b600052603260045260246000fd5b6020026020010181815250505b6c1092531317d49150d152559151609a1b831415610fe75760408051600280825260608201835290916020830190803683370190505090506c1092531317d050d0d154151151609a1b81600081518110610f9e57634e487b7160e01b600052603260045260246000fd5b6020026020010181815250506a1092531317d1115392515160aa1b81600181518110610fda57634e487b7160e01b600052603260045260246000fd5b6020026020010181815250505b6c1092531317d050d0d154151151609a1b8314156110685760408051600180825281830190925290602080830190803683370190505090507610925313115117d513d7d09554d2539154d4d7d5539255604a1b8160008151811061105b57634e487b7160e01b600052603260045260246000fd5b6020026020010181815250505b7610925313115117d513d7d09554d2539154d4d7d5539255604a1b8314156110ea5760408051600180825281830190925290602080830190803683370190505090506d1410565351539517d254d4d5515160921b816000815181106110dd57634e487b7160e01b600052603260045260246000fd5b6020026020010181815250505b6d1410565351539517d254d4d5515160921b83141561116b5760408051600180825281830190925290602080830190803683370190505090507514d510551157d410565351539517d49150d15255915160521b8160008151811061115e57634e487b7160e01b600052603260045260246000fd5b6020026020010181815250505b90505b919050565b60606008805480602002602001604051908101604052809291908181526020018280548015610b9f57602002820191906000526020600020905b8154815260200190600101908083116111ad575050505050905090565b6060600c805480602002602001604051908101604052809291908181526020016000905b8282101561129a57838290600052602060002001805461120d906137d6565b80601f0160208091040260200160405190810160405280929190818152602001828054611239906137d6565b80156112865780601f1061125b57610100808354040283529160200191611286565b820191906000526020600020905b81548152906001019060200180831161126957829003601f168201915b5050505050815260200190600101906111ee565b50505050905090565b60606009805480602002602001604051908101604052809291908181526020018280548015610b9f57602002820191906000526020600020908154815260200190600101908083116111ad575050505050905090565b774352454154455f53544154454d414348494e455f524f4c4560401b6040518060600160405280602581526020016138c060259139611338338361297c565b81906113605760405162461bcd60e51b81526004016113579190613560565b60405180910390fd5b506001805481018082556000828152919061137c908290613770565b8154811061139a57634e487b7160e01b600052603260045260246000fd5b906000526020600020906004020190506113c06b13d491115497d4131050d15160a21b90565b60018083019190915542600383015580546113db9190613770565b8155600b80546001908101808355600083815292916113f991613770565b8154811061141757634e487b7160e01b600052603260045260246000fd5b6000918252602091829020600c91909102016001810180546001600160a01b0319166001600160a01b038e16179055865190925061145d91600b84019190880190612e7a565b50600281018990556040805171496e426f6e65436869636b656e5065724b6760701b8152600d601282015290519081900360320190205461149e908a613728565b6003820155600481018890556040805172576f6b466f7254776f5065725061636b61676560681b8152600d60138201529051908190036033019020546114e49089613728565b600582015560068101879055604080517f4672656552616e6765436869636b656e506572436869636b656e0000000000008152600d601a820152905190819003603a019020546115349088613728565b6007820155600881018690556040805173506173746153616c61645065725061636b61676560601b8152600d601482015290519081900360340190205461157b9087613728565b6009820155600b546115989061159390600190613770565b612a21565b80516115ab918391602090910190612e7a565b5080600901548160070154826005015483600301546115ca91906135a1565b6115d491906135a1565b6115de91906135a1565b600a820155600c80546001908101808355600083905283929161160091613770565b8154811061161e57634e487b7160e01b600052603260045260246000fd5b90600052602060002001908054611634906137d6565b61163f929190612efe565b508154600a54604080519283523360208401526001600160a01b0390911682820152517fd4e0aaf5be9b8773c644dfebba8b63f878965712ad8589d85ca4bc9d1b671e2c9181900360600190a150505050505050505050565b7f5550444154455f55494649454c44444546494e4954494f4e535f524f4c4500006040518060600160405280602b815260200161386f602b91396116dc338361297c565b81906116fb5760405162461bcd60e51b81526004016113579190613560565b50825161170f906006906020860190612e7a565b50505050565b600980548060200260200160405190810160405280929190818152602001828054801561176157602002820191906000526020600020905b81548152602001906001019080831161174d575b505050505060405180606001604052806026815260200161389a602691396000805b83518110156117dd576117bd338583815181106117b057634e487b7160e01b600052603260045260246000fd5b602002602001015161297c565b156117cb57600191506117dd565b806117d581613811565b915050611783565b50816001821515146118025760405162461bcd60e51b81526004016113579190613560565b508960006001828154811061182757634e487b7160e01b600052603260045260246000fd5b906000526020600020906004020160030154116118865760405162461bcd60e51b815260206004820152601c60248201527f7374617465206d616368696e6520646f6573206e6f74206578697374000000006044820152606401611357565b60018b815481106118a757634e487b7160e01b600052603260045260246000fd5b90600052602060002090600402016001015460006118c3606090565b90506000805b825181101561193c576000356001600160e01b0319166001600160e01b03191683828151811061190957634e487b7160e01b600052603260045260246000fd5b60200260200101516001600160e01b031916141561192a576001915061193c565b8061193481613811565b9150506118c9565b508061199d5760405162461bcd60e51b815260206004820152602a60248201527f746869732066756e6374696f6e206973206e6f7420616c6c6f77656420696e206044820152697468697320737461746560b01b6064820152608401611357565b6000600b8f815481106119c057634e487b7160e01b600052603260045260246000fd5b90600052602060002090600c020190508d8160010160006101000a8154816001600160a01b0302191690836001600160a01b031602179055508881600b019080519060200190611a11929190612e7a565b508d8160010160006101000a8154816001600160a01b0302191690836001600160a01b031602179055508881600b019080519060200190611a53929190612e7a565b50600281018d90556040805171496e426f6e65436869636b656e5065724b6760701b8152600d6012820152905190819003603201902054611a94908e613728565b6003820155600481018c90556040805172576f6b466f7254776f5065725061636b61676560681b8152600d6013820152905190819003603301902054611ada908d613728565b6005820155600681018b9055604080517f4672656552616e6765436869636b656e506572436869636b656e0000000000008152600d601a820152905190819003603a01902054611b2a908c613728565b6007820155600881018a90556040805173506173746153616c61645065725061636b61676560601b8152600d6014820152905190819003603401902054611b71908b613728565b60098201819055600782015460058301546003840154611b9191906135a1565b611b9b91906135a1565b611ba591906135a1565b600a909101555050505050505050505050505050565b60606007805480602002602001604051908101604052809291908181526020018280548015610b9f57602002820191906000526020600020908154815260200190600101908083116111ad575050505050905090565b60028054611c1e906137d6565b80601f0160208091040260200160405190810160405280929190818152602001828054611c4a906137d6565b8015611c975780601f10611c6c57610100808354040283529160200191611c97565b820191906000526020600020905b815481529060010190602001808311611c7a57829003601f168201915b505050505081565b6060806b13d491115497d4131050d15160a21b831415611d4d576040805160028082526060820183529091602083019080368337019050509050692927a622afa0a226a4a760b11b81600081518110611d0857634e487b7160e01b600052603260045260246000fd5b60200260200101818152505066524f4c455f425560c81b81600181518110611d4057634e487b7160e01b600052603260045260246000fd5b6020026020010181815250505b6d13d491115497d050d0d15415115160921b831415611e00576040805160028082526060820183529091602083019080368337019050509050692927a622afa0a226a4a760b11b81600081518110611db557634e487b7160e01b600052603260045260246000fd5b6020026020010181815250506c2927a622afa9aaa8282624a2a960991b81600181518110611df357634e487b7160e01b600052603260045260246000fd5b6020026020010181815250505b6b13d491115497d1115392515160a21b831415611eb1576040805160028082526060820183529091602083019080368337019050509050692927a622afa0a226a4a760b11b81600081518110611e6657634e487b7160e01b600052603260045260246000fd5b6020026020010181815250506c2927a622afa9aaa8282624a2a960991b81600181518110611ea457634e487b7160e01b600052603260045260246000fd5b6020026020010181815250505b6c13d491115497d4d21254141151609a1b831415611f63576040805160028082526060820183529091602083019080368337019050509050692927a622afa0a226a4a760b11b81600081518110611f1857634e487b7160e01b600052603260045260246000fd5b6020026020010181815250506c2927a622afa9aaa8282624a2a960991b81600181518110611f5657634e487b7160e01b600052603260045260246000fd5b6020026020010181815250505b7014d212541351539517d49150d152559151607a1b831415612013576040805160028082526060820183529091602083019080368337019050509050692927a622afa0a226a4a760b11b81600081518110611fce57634e487b7160e01b600052603260045260246000fd5b60200260200101818152505066524f4c455f425560c81b8160018151811061200657634e487b7160e01b600052603260045260246000fd5b6020026020010181815250505b7014d212541351539517d050d0d154151151607a1b8314156120c3576040805160028082526060820183529091602083019080368337019050509050692927a622afa0a226a4a760b11b8160008151811061207e57634e487b7160e01b600052603260045260246000fd5b60200260200101818152505066524f4c455f425560c81b816001815181106120b657634e487b7160e01b600052603260045260246000fd5b6020026020010181815250505b6e14d212541351539517d11153925151608a1b831415612171576040805160028082526060820183529091602083019080368337019050509050692927a622afa0a226a4a760b11b8160008151811061212c57634e487b7160e01b600052603260045260246000fd5b60200260200101818152505066524f4c455f425560c81b8160018151811061216457634e487b7160e01b600052603260045260246000fd5b6020026020010181815250505b681092531317d4d1539560ba1b83141561221f576040805160028082526060820183529091602083019080368337019050509050692927a622afa0a226a4a760b11b816000815181106121d457634e487b7160e01b600052603260045260246000fd5b6020026020010181815250506c2927a622afa9aaa8282624a2a960991b8160018151811061221257634e487b7160e01b600052603260045260246000fd5b6020026020010181815250505b6c1092531317d49150d152559151609a1b8314156122cc576040805160028082526060820183529091602083019080368337019050509050692927a622afa0a226a4a760b11b8160008151811061228657634e487b7160e01b600052603260045260246000fd5b60200260200101818152505067524f4c455f53534360c01b816001815181106122bf57634e487b7160e01b600052603260045260246000fd5b6020026020010181815250505b6c1092531317d050d0d154151151609a1b831415612379576040805160028082526060820183529091602083019080368337019050509050692927a622afa0a226a4a760b11b8160008151811061233357634e487b7160e01b600052603260045260246000fd5b60200260200101818152505067524f4c455f53534360c01b8160018151811061236c57634e487b7160e01b600052603260045260246000fd5b6020026020010181815250505b6a1092531317d1115392515160aa1b831415612424576040805160028082526060820183529091602083019080368337019050509050692927a622afa0a226a4a760b11b816000815181106123de57634e487b7160e01b600052603260045260246000fd5b60200260200101818152505067524f4c455f53534360c01b8160018151811061241757634e487b7160e01b600052603260045260246000fd5b6020026020010181815250505b7610925313115117d513d7d09554d2539154d4d7d5539255604a1b8314156124db576040805160028082526060820183529091602083019080368337019050509050692927a622afa0a226a4a760b11b8160008151811061249557634e487b7160e01b600052603260045260246000fd5b60200260200101818152505067524f4c455f53534360c01b816001815181106124ce57634e487b7160e01b600052603260045260246000fd5b6020026020010181815250505b6d1410565351539517d254d4d5515160921b831415612589576040805160028082526060820183529091602083019080368337019050509050692927a622afa0a226a4a760b11b8160008151811061254357634e487b7160e01b600052603260045260246000fd5b60200260200101818152505067524f4c455f53534360c01b8160018151811061257c57634e487b7160e01b600052603260045260246000fd5b6020026020010181815250505b7514d510551157d410565351539517d49150d15255915160521b83141561116b576040805160028082526060820183529091602083019080368337019050509050692927a622afa0a226a4a760b11b816000815181106125f957634e487b7160e01b600052603260045260246000fd5b6020026020010181815250506c2927a622afa9aaa8282624a2a960991b8160018151811061115e57634e487b7160e01b600052603260045260246000fd5b60088181548110610bb957600080fd5b606060028054610b26906137d6565b60008281526004602052604090205460ff166126b7576003805460018181019092557fc2575a0e9e593c00f959f8c92f12db2869c3395a3b0502d05e2516446f71f85b018390556000838152600460205260409020805460ff191690911790555b600082815260056020908152604090912082516126d692840190612e7a565b505050565b81816127196001838154811061270157634e487b7160e01b600052603260045260246000fd5b90600052602060002090600402016001015482612a5c565b6127585760405162461bcd60e51b815260206004820152601060248201526f696e76616c696420746f20737461746560801b6044820152606401611357565b61276181612b15565b6127ad5760405162461bcd60e51b815260206004820152601f60248201527f7472616e736974696f6e20746f207374617465206e6f7420616c6c6f776564006044820152606401611357565b6127ea82600184815481106127d257634e487b7160e01b600052603260045260246000fd5b90600052602060002090600402016001015483612b8d565b60006001858154811061280d57634e487b7160e01b600052603260045260246000fd5b6000918252602082206004919091020160018101805490879055909250906060905b81518110156128805761286e88848985858151811061285e57634e487b7160e01b600052603260045260246000fd5b602002602001015163ffffffff16565b8061287881613811565b91505061282f565b50600187815481106128a257634e487b7160e01b600052603260045260246000fd5b6000918252602080832060408051608080820183528882528185018d81523383850181815242606080870191825260049a8b029098016002908101805460018082018355918e529c8b902097519c909b029096019a8b559251988a0198909855965192880180546001600160a01b0319166001600160a01b0390941693909317909255905160039096019590955580518c8152928301939093529181018590529081018890527fda0ea013b184628ef221c26d3ecdde1c5bbade441ed06a851b724a7ace03c274910160405180910390a150505050505050565b600080546001600160a01b03161580612a1a5750600054604051630dace25b60e31b81526001600160a01b0385811660048301523060248301526044820185905290911690636d6712d89060640160206040518083038186803b1580156129e257600080fd5b505afa1580156129f6573d6000803e3d6000fd5b505050506040513d601f19601f82011682018060405250810190612a1a919061309d565b9392505050565b6060612a2c30612bda565b612a3583612d3d565b604051602001612a46929190613368565b6040516020818303038152906040529050919050565b600080612a6884610be1565b90506000915060005b8151811015612b0d5760408051602081018690520160405160208183030381529060405280519060200120828281518110612abc57634e487b7160e01b600052603260045260246000fd5b6020026020010151604051602001612ad691815260200190565b604051602081830303815290604052805190602001201415612afb5760019250612b0d565b80612b0581613811565b915050612a71565b505092915050565b600080612b2183611c9f565b905060009150805160001415612b3657600191505b60005b8151811015612b8657612b66338383815181106117b057634e487b7160e01b600052603260045260246000fd5b15612b745760019250612b86565b80612b7e81613811565b915050612b39565b5050919050565b606060005b8151811015612bd357612bc185858585858151811061285e57634e487b7160e01b600052603260045260246000fd5b80612bcb81613811565b915050612b92565b5050505050565b60408051602880825260608281019093526000919060208201818036833701905050905060005b6014811015612d36576000612c17826013613770565b612c22906008613728565b612c2d90600261365a565b612c40906001600160a01b0387166135de565b60f81b9050600060108260f81c612c5791906135f2565b60f81b905060008160f81c6010612c6e9190613747565b8360f81c612c7c9190613787565b60f81b9050612c8a82612e3a565b85612c96866002613728565b81518110612cb457634e487b7160e01b600052603260045260246000fd5b60200101906001600160f81b031916908160001a905350612cd481612e3a565b85612ce0866002613728565b612ceb9060016135a1565b81518110612d0957634e487b7160e01b600052603260045260246000fd5b60200101906001600160f81b031916908160001a9053505050508080612d2e90613811565b915050612c01565b5092915050565b606081612d6257506040805180820190915260018152600360fc1b602082015261116e565b8160005b8115612d7a57600101600a82049150612d66565b8360008267ffffffffffffffff811115612da457634e487b7160e01b600052604160045260246000fd5b6040519080825280601f01601f191660200182016040528015612dce576020820181803683370190505b50905060001983015b8215612e3057600a830660300160f81b82828060019003935081518110612e0e57634e487b7160e01b600052603260045260246000fd5b60200101906001600160f81b031916908160001a905350600a83049250612dd7565b5095945050505050565b6000600a60f883901c1015612e6257612e5860f883901c60306135b9565b60f81b905061116e565b612e7160f883901c60576135b9565b60f81b92915050565b828054612e86906137d6565b90600052602060002090601f016020900481019282612ea85760008555612eee565b82601f10612ec157805160ff1916838001178555612eee565b82800160010185558215612eee579182015b82811115612eee578251825591602001919060010190612ed3565b50612efa929150612f79565b5090565b828054612f0a906137d6565b90600052602060002090601f016020900481019282612f2c5760008555612eee565b82601f10612f3d5780548555612eee565b82800160010185558215612eee57600052602060002091601f016020900482015b82811115612eee578254825591600101919060010190612f5e565b5b80821115612efa5760008155600101612f7a565b80356001600160a01b038116811461116e57600080fd5b600082601f830112612fb5578081fd5b813567ffffffffffffffff80821115612fd057612fd0613858565b604051601f8301601f19908116603f01168101908282118183101715612ff857612ff8613858565b81604052838152866020858801011115613010578485fd5b8360208701602083013792830160200193909352509392505050565b60008060008060008060c08789031215613044578182fd5b61304d87612f8e565b95506020870135945060408701359350606087013592506080870135915060a087013567ffffffffffffffff811115613084578182fd5b61309089828a01612fa5565b9150509295509295509295565b6000602082840312156130ae578081fd5b81518015158114612a1a578182fd5b6000602082840312156130ce578081fd5b5035919050565b600080604083850312156130e7578182fd5b82359150602083013567ffffffffffffffff811115613104578182fd5b61311085828601612fa5565b9150509250929050565b60006020828403121561312b578081fd5b813567ffffffffffffffff811115613141578182fd5b61314d84828501612fa5565b949350505050565b600080600080600080600060e0888a03121561316f578081fd5b8735965061317f60208901612f8e565b955060408801359450606088013593506080880135925060a0880135915060c088013567ffffffffffffffff8111156131b6578182fd5b6131c28a828b01612fa5565b91505092959891949750929550565b600080604083850312156131e3578182fd5b50508035926020909101359150565b6000815180845261320a8160208601602086016137aa565b601f01601f19169290920160200192915050565b60006101808251818552613234828601826131f2565b915050602083015161325160208601826001600160a01b03169052565b5060408301516040850152606083015160608501526080830151608085015260a083015160a085015260c083015160c085015260e083015160e085015261010080840151818601525061012080840151818601525061014080840151818601525061016080840151858303828701526132ca83826131f2565b9695505050505050565b600060808084018351855260208085015181870152604080860151848289015283815180865260a08a01915084830195508792505b8083101561334e578551805183528581015186840152848101516001600160a01b03168584015260609081015190830152948401946001929092019190860190613309565b50606088015160608a015280965050505050505092915050565b6000720c8d2c874dee4c8cae474dee4c8cae4e67460f606b1b825283516133968160138501602088016137aa565b601d60f91b60139184019182015283516133b78160148401602088016137aa565b01601401949350505050565b6020808252825182820181905260009190848201906040850190845b818110156133fb578351835292840192918401916001016133df565b50909695505050505050565b6020808252825182820181905260009190848201906040850190845b818110156133fb5783516001600160e01b03191683529284019291840191600101613423565b6000602080830181845280855180835260408601915060408160051b8701019250838701855b8281101561349d57603f1988860301845261348b8583516131f2565b9450928501929085019060010161346f565b5092979650505050505050565b6000604082016040835280855180835260608501915060608160051b86010192506020808801855b8381101561350057605f198887030185526134ee8683516132d4565b955093820193908201906001016134d2565b505085840381870152865180855281850193509150600582901b84018101878201865b8481101561355157601f1987840301865261353f83835161321e565b95840195925090830190600101613523565b50909998505050505050505050565b600060208252612a1a60208301846131f2565b60006040825261358660408301856132d4565b8281036020840152613598818561321e565b95945050505050565b600082198211156135b4576135b461382c565b500190565b600060ff821660ff84168060ff038211156135d6576135d661382c565b019392505050565b6000826135ed576135ed613842565b500490565b600060ff83168061360557613605613842565b8060ff84160491505092915050565b80825b60018086116136265750613651565b8187048211156136385761363861382c565b8086161561364557918102915b9490941c938002613617565b94509492505050565b6000612a1a600019848460008261367357506001612a1a565b8161368057506000612a1a565b816001811461369657600281146136a0576136cd565b6001915050612a1a565b60ff8411156136b1576136b161382c565b6001841b9150848211156136c7576136c761382c565b50612a1a565b5060208310610133831016604e8410600b8410161715613700575081810a838111156136fb576136fb61382c565b612a1a565b61370d8484846001613614565b80860482111561371f5761371f61382c565b02949350505050565b60008160001904831182151516156137425761374261382c565b500290565b600060ff821660ff84168160ff04811182151516156137685761376861382c565b029392505050565b6000828210156137825761378261382c565b500390565b600060ff821660ff8416808210156137a1576137a161382c565b90039392505050565b60005b838110156137c55781810151838201526020016137ad565b8381111561170f5750506000910152565b600181811c908216806137ea57607f821691505b6020821081141561380b57634e487b7160e01b600052602260045260246000fd5b50919050565b60006000198214156138255761382561382c565b5060010190565b634e487b7160e01b600052601160045260246000fd5b634e487b7160e01b600052601260045260246000fd5b634e487b7160e01b600052604160045260246000fdfe53656e646572206e65656473205550444154455f55494649454c44444546494e4954494f4e535f524f4c4545646974207265717569726573206f6e65206f6620726f6c65733a20524f4c455f41444d494e53656e646572206e65656473204352454154455f53544154454d414348494e455f524f4c45a26469706673582212208b24cc01c6a9eb1640ded4bc6f462c18d038d20340acb626033a99e6c914c7b864736f6c63430008030033",
  "immutableReferences": {},
  "source": "/**\n * Copyright (C) SettleMint NV - All Rights Reserved\n *\n * Use of this file is strictly prohibited without an active license agreement.\n * Distribution of this file, via any medium, is strictly prohibited.\n *\n * For license inquiries, contact hello@settlemint.com\n *\n * SPDX-License-Identifier: UNLICENSED\n */\n\npragma solidity ^0.8.0;\n\nimport '../_library//provenance/statemachine/FiniteStateMachine.sol';\nimport '../_library//authentication/Secured.sol';\nimport '../_library//utility/metadata/IpfsFieldContainer.sol';\nimport '../_library//utility/metadata/FileFieldContainer.sol';\nimport '../_library//utility/ui/UIFieldDefinitions.sol';\nimport '../_library//utility/conversions/Converter.sol';\n\n/**\n * @title BillOfLading Contract\n */\ncontract Orders is FiniteStateMachine, IpfsFieldContainer, FileFieldContainer, UIFieldDefinitions {\n  bytes32 public constant CREATE_STATEMACHINE_ROLE = 'CREATE_STATEMACHINE_ROLE';\n\n  /**\n   * SupplierContract Events\n   */\n  event OrderCreated(uint256 fsmIndex, address owner, address registry);\n  // event BillOfLadingSubmitted(address owner, address expense, uint256 amount);\n  // event BillOfLadingSubmittedWithException(address owner, address expense, uint256 amount, string comment);\n  // event BillOfLadingReviewed(address owner, address expense, uint256 amount);\n  // event BillOfLadingNeedsUpdate(address owner, address expense, uint256 amount, string comment);\n  // event BillOfLadingAccepted(address owner, address expense, uint256 amount);\n  // event BillOfLadingRejected(address owner, address expense, uint256 amount, string comment);\n  // event BillOfLadingForceApproved(address owner, address expense, uint256 amount, string comment);\n  // event AmountChanged(address sender, uint256 fromAmount, uint256 toAmount);\n  // event ProofChanged(address sender, string fromProof, string toProof);\n\n  /**\n   * @dev State Constants\n   */\n  bytes32 private constant STATE_ORDER_PLACED = 'ORDER_PLACED';\n  bytes32 private constant STATE_ORDER_ACCEPTED = 'ORDER_ACCEPTED';\n  bytes32 private constant STATE_ORDER_DENIED = 'ORDER_DENIED';\n  bytes32 private constant STATE_ORDER_SHIPPED = 'ORDER_SHIPPED';\n  bytes32 private constant STATE_SHIPMENT_RECEIVED = 'SHIPMENT_RECEIVED';\n  bytes32 private constant STATE_SHIPMENT_ACCEPTED = 'SHIPMENT_ACCEPTED';\n  bytes32 private constant STATE_SHIPMENT_DENIED = 'SHIPMENT_DENIED';\n  bytes32 private constant STATE_BILL_SENT = 'BILL_SENT';\n  bytes32 private constant STATE_BILL_RECEIVED = 'BILL_RECEIVED';\n  bytes32 private constant STATE_BILL_ACCEPTED = 'BILL_ACCEPTED';\n  bytes32 private constant STATE_BILL_DENIED = 'BILL_DENIED';\n  bytes32 private constant STATE_BILLED_TO_BUSINESS_UNIT = 'BILLED_TO_BUSINESS_UNIT';\n  bytes32 private constant STATE_PAYMENT_ISSUED = 'PAYMENT_ISSUED';\n  bytes32 private constant STATE_PAYMENT_RECEIVED = 'STATE_PAYMENT_RECEIVED';\n\n  /**\n   * @dev Role Constants\n   */\n  bytes32 private constant ROLE_ADMIN = 'ROLE_ADMIN';\n  bytes32 private constant ROLE_SUPPLIER = 'ROLE_SUPPLIER';\n  bytes32 private constant ROLE_SSC = 'ROLE_SSC';\n  bytes32 private constant ROLE_BU = 'ROLE_BU';\n\n  /**\n   * @dev BillOfLading states\n   */\n  bytes32[] public _allStates = [\n    STATE_ORDER_PLACED,\n    STATE_ORDER_ACCEPTED,\n    STATE_ORDER_DENIED,\n    STATE_ORDER_SHIPPED,\n    STATE_SHIPMENT_RECEIVED,\n    STATE_SHIPMENT_ACCEPTED,\n    STATE_SHIPMENT_DENIED,\n    STATE_BILL_SENT,\n    STATE_BILL_RECEIVED,\n    STATE_BILL_ACCEPTED,\n    STATE_BILL_DENIED,\n    STATE_BILLED_TO_BUSINESS_UNIT,\n    STATE_PAYMENT_ISSUED,\n    STATE_PAYMENT_RECEIVED\n  ];\n\n  /**\n   * @dev BillOfLading roles\n   */\n  bytes32[] public _allRoles = [ROLE_ADMIN, ROLE_SUPPLIER, ROLE_SSC, ROLE_BU];\n\n  /**\n   * @dev BillOfLading helper role collection\n   * specifies anyone who can edit an exponse\n   */\n  bytes32[] private _canEdit = [ROLE_ADMIN, ROLE_SSC];\n\n  /**\n   * The address of the upgradeable registry this contract belongs to.\n   * Note that both this property together with the UPGRADEABLE_REGISTRY_TARGET const define a contract\n   * that is part of an upgradeable registry and provides the link to the registry if required.\n   */\n  address public _upgradeableRegistry;\n\n  /**\n   * @dev StateMachineMeta contains meta data for every StateMachine - seeing as struct are not composable\n   * and the base StateMachine struct is defined in the FiniteStateMachine abstract there's no other\n   * way to compose structs than having two separte arrays where the indices match.\n   *\n   * @dev Mint is aware of the above and will zip these two into a single struct so statemachines\n   * from the outside will look as a composition of both StateMachine and StateMachineMeta structs.\n   */\n  StateMachineMeta[] internal _meta;\n\n  /**\n   * @dev The index is a collection of DIDs for every state machine in the registry\n   * Usually the getIndex call returns a list of contract addresses however as FSMs are\n   * uniquely identified by their DID we return those instead\n   */\n  string[] internal _index;\n\n  /**\n   * @dev Struct defining an BillOfLading\n   * @notice Gets decorated together with the StateMachine structs and forms the BillOfLading FSM\n   */\n  struct StateMachineMeta {\n    string DID;\n    address businessUnit;\n    uint256 InBoneChickenPerKg;\n    uint256 InBoneChickenTotal;\n    uint256 WokForTwoPerPackage;\n    uint256 WokForTwoTotal;\n    uint256 FreeRangeChickenPerChicken;\n    uint256 FreeRangeChickenTotal;\n    uint256 PastaSaladPerPackage;\n    uint256 PastaSaladTotal;\n    uint256 orderTotal;\n    string ipfsFieldContainerHash;\n  }\n\n  mapping(string => uint256) public prices;\n\n  constructor(address gateKeeper, address registry) Secured(gateKeeper) {\n    require(registry != address(0x0), 'registry can not be zero');\n    _upgradeableRegistry = registry;\n\n    prices['InBoneChickenPerKg'] = 199;\n    prices['WokForTwoPerPackage'] = 349;\n    prices['FreeRangeChickenPerChicken'] = 499;\n    prices['PastaSaladPerPackage'] = 299;\n  }\n\n  //////\n  // FSM Definition Functions\n  //////\n\n  /**\n   * @notice Returns initial state\n   */\n  function initialState() public pure override returns (bytes32) {\n    return STATE_ORDER_PLACED;\n  }\n\n  /**\n   * @notice Returns all possible states\n   */\n  function allStates() public view override returns (bytes32[] memory) {\n    return _allStates;\n  }\n\n  /**\n   * @notice Returns all possible roles\n   */\n  function allRoles() public view override returns (bytes32[] memory) {\n    return _allRoles;\n  }\n\n  /**\n   * @notice Retrieve all possible next states for a certain state\n   * @param state state\n   */\n  function getNextStatesForState(bytes32 state) public pure override returns (bytes32[] memory test) {\n    bytes32[] memory states;\n\n    if (state == STATE_ORDER_PLACED) {\n      states = new bytes32[](2);\n      states[0] = STATE_ORDER_ACCEPTED;\n      states[1] = STATE_ORDER_DENIED;\n    }\n    if (state == STATE_ORDER_ACCEPTED) {\n      states = new bytes32[](1);\n      states[0] = STATE_ORDER_SHIPPED;\n    }\n    if (state == STATE_ORDER_SHIPPED) {\n      states = new bytes32[](1);\n      states[0] = STATE_SHIPMENT_RECEIVED;\n    }\n    if (state == STATE_SHIPMENT_RECEIVED) {\n      states = new bytes32[](2);\n      states[0] = STATE_SHIPMENT_ACCEPTED;\n      states[1] = STATE_SHIPMENT_DENIED;\n    }\n    if (state == STATE_SHIPMENT_ACCEPTED) {\n      states = new bytes32[](1);\n      states[0] = STATE_BILL_SENT;\n    }\n    if (state == STATE_BILL_SENT) {\n      states = new bytes32[](1);\n      states[0] = STATE_BILL_RECEIVED;\n    }\n    if (state == STATE_BILL_RECEIVED) {\n      states = new bytes32[](2);\n      states[0] = STATE_BILL_ACCEPTED;\n      states[1] = STATE_BILL_DENIED;\n    }\n    if (state == STATE_BILL_ACCEPTED) {\n      states = new bytes32[](1);\n      states[0] = STATE_BILLED_TO_BUSINESS_UNIT;\n    }\n    if (state == STATE_BILLED_TO_BUSINESS_UNIT) {\n      states = new bytes32[](1);\n      states[0] = STATE_PAYMENT_ISSUED;\n    }\n    if (state == STATE_PAYMENT_ISSUED) {\n      states = new bytes32[](1);\n      states[0] = STATE_PAYMENT_RECEIVED;\n    }\n\n    return states;\n  }\n\n  /**\n   * @notice Retrieve all roles that are allowed to move it to the given state\n   * @param state state\n   */\n  function getAllowedRolesForState(bytes32 state) public pure override returns (bytes32[] memory) {\n    bytes32[] memory roles;\n\n    if (state == STATE_ORDER_PLACED) {\n      roles = new bytes32[](2);\n      roles[0] = ROLE_ADMIN;\n      roles[1] = ROLE_BU;\n    }\n    if (state == STATE_ORDER_ACCEPTED) {\n      roles = new bytes32[](2);\n      roles[0] = ROLE_ADMIN;\n      roles[1] = ROLE_SUPPLIER;\n    }\n    if (state == STATE_ORDER_DENIED) {\n      roles = new bytes32[](2);\n      roles[0] = ROLE_ADMIN;\n      roles[1] = ROLE_SUPPLIER;\n    }\n    if (state == STATE_ORDER_SHIPPED) {\n      roles = new bytes32[](2);\n      roles[0] = ROLE_ADMIN;\n      roles[1] = ROLE_SUPPLIER;\n    }\n    if (state == STATE_SHIPMENT_RECEIVED) {\n      roles = new bytes32[](2);\n      roles[0] = ROLE_ADMIN;\n      roles[1] = ROLE_BU;\n    }\n    if (state == STATE_SHIPMENT_ACCEPTED) {\n      roles = new bytes32[](2);\n      roles[0] = ROLE_ADMIN;\n      roles[1] = ROLE_BU;\n    }\n    if (state == STATE_SHIPMENT_DENIED) {\n      roles = new bytes32[](2);\n      roles[0] = ROLE_ADMIN;\n      roles[1] = ROLE_BU;\n    }\n    if (state == STATE_BILL_SENT) {\n      roles = new bytes32[](2);\n      roles[0] = ROLE_ADMIN;\n      roles[1] = ROLE_SUPPLIER;\n    }\n    if (state == STATE_BILL_RECEIVED) {\n      roles = new bytes32[](2);\n      roles[0] = ROLE_ADMIN;\n      roles[1] = ROLE_SSC;\n    }\n    if (state == STATE_BILL_ACCEPTED) {\n      roles = new bytes32[](2);\n      roles[0] = ROLE_ADMIN;\n      roles[1] = ROLE_SSC;\n    }\n    if (state == STATE_BILL_DENIED) {\n      roles = new bytes32[](2);\n      roles[0] = ROLE_ADMIN;\n      roles[1] = ROLE_SSC;\n    }\n    if (state == STATE_BILLED_TO_BUSINESS_UNIT) {\n      roles = new bytes32[](2);\n      roles[0] = ROLE_ADMIN;\n      roles[1] = ROLE_SSC;\n    }\n    if (state == STATE_PAYMENT_ISSUED) {\n      roles = new bytes32[](2);\n      roles[0] = ROLE_ADMIN;\n      roles[1] = ROLE_SSC;\n    }\n    if (state == STATE_PAYMENT_RECEIVED) {\n      roles = new bytes32[](2);\n      roles[0] = ROLE_ADMIN;\n      roles[1] = ROLE_SUPPLIER;\n    }\n\n    return roles;\n  }\n\n  /**\n   * @notice Returns method signatures for functions which are allowed to execute in the given state\n   * @param state state\n   */\n  function getAllowedFunctionsForState(bytes32 state) public view override returns (bytes4[] memory) {}\n\n  /**\n   * @notice Returns method signatures for functions that act as preconditions that must be met in order to transition to the given state\n   * @param state state\n   */\n  function getPreconditionsForState(bytes32 state) public view override returns (bytes4[] memory) {}\n\n  /**\n   * @notice Returns method signatures for functions that will get called after transitioning to the given state\n   * @param state state\n   */\n  function getCallbacksForState(bytes32 state) public view override returns (bytes4[] memory) {}\n\n  /**\n   * @notice Returns method signatures for functions that need to be called before transitioning to the given state\n   * @param state state\n   */\n  function getPreFunctionForState(bytes32 state) public pure override returns (bytes4) {}\n\n  //////\n  // Factory Functions\n  //////\n\n  /**\n   * @notice Create a new statemachine\n   * @param ipfsFieldContainerHash IPFS hash of the metadata fields\n   */\n  function create(\n    address businessUnit,\n    uint256 InBoneChickenPerKg,\n    uint256 WokForTwoPerPackage,\n    uint256 FreeRangeChickenPerChicken,\n    uint256 PastaSaladPerPackage,\n    string memory ipfsFieldContainerHash\n  ) public authWithCustomReason(CREATE_STATEMACHINE_ROLE, 'Sender needs CREATE_STATEMACHINE_ROLE') {\n    _registry.push();\n    StateMachine storage sm = _registry[_registry.length - 1];\n    sm.currentState = initialState();\n    sm.createdAt = block.timestamp;\n    sm.index = _registry.length - 1;\n\n    _meta.push();\n    StateMachineMeta storage meta = _meta[_meta.length - 1];\n    meta.businessUnit = businessUnit;\n    meta.ipfsFieldContainerHash = ipfsFieldContainerHash;\n    meta.InBoneChickenPerKg = InBoneChickenPerKg;\n    meta.InBoneChickenTotal = InBoneChickenPerKg * prices['InBoneChickenPerKg'];\n    meta.WokForTwoPerPackage = WokForTwoPerPackage;\n    meta.WokForTwoTotal = WokForTwoPerPackage * prices['WokForTwoPerPackage'];\n    meta.FreeRangeChickenPerChicken = FreeRangeChickenPerChicken;\n    meta.FreeRangeChickenTotal = FreeRangeChickenPerChicken * prices['FreeRangeChickenPerChicken'];\n    meta.PastaSaladPerPackage = PastaSaladPerPackage;\n    meta.PastaSaladTotal = PastaSaladPerPackage * prices['PastaSaladPerPackage'];\n    meta.DID = generateDID(_meta.length - 1);\n    meta.orderTotal = meta.InBoneChickenTotal + meta.WokForTwoTotal + meta.FreeRangeChickenTotal + meta.PastaSaladTotal;\n\n    _index.push();\n    _index[_index.length - 1] = meta.DID;\n\n    emit OrderCreated(sm.index, msg.sender, _upgradeableRegistry);\n  }\n\n  /**\n   * @notice Edit an existing statemachine\n   * @param fsmIndex registry index of the statemachine struct\n   * @param ipfsFieldContainerHash IPFS hash of the metadata fields\n   */\n  function edit(\n    uint256 fsmIndex,\n    address businessUnit,\n    uint256 InBoneChickenPerKg,\n    uint256 WokForTwoPerPackage,\n    uint256 FreeRangeChickenPerChicken,\n    uint256 PastaSaladPerPackage,\n    string memory ipfsFieldContainerHash\n  )\n    public\n    authManyWithCustomReason(_canEdit, 'Edit requires one of roles: ROLE_ADMIN')\n    doesStateMachineExists(fsmIndex)\n    checkAllowedFunction(_registry[fsmIndex].currentState)\n  {\n    StateMachineMeta storage meta = _meta[fsmIndex];\n    meta.businessUnit = businessUnit;\n    meta.ipfsFieldContainerHash = ipfsFieldContainerHash;\n    meta.businessUnit = businessUnit;\n    meta.ipfsFieldContainerHash = ipfsFieldContainerHash;\n    meta.InBoneChickenPerKg = InBoneChickenPerKg;\n    meta.InBoneChickenTotal = InBoneChickenPerKg * prices['InBoneChickenPerKg'];\n    meta.WokForTwoPerPackage = WokForTwoPerPackage;\n    meta.WokForTwoTotal = WokForTwoPerPackage * prices['WokForTwoPerPackage'];\n    meta.FreeRangeChickenPerChicken = FreeRangeChickenPerChicken;\n    meta.FreeRangeChickenTotal = FreeRangeChickenPerChicken * prices['FreeRangeChickenPerChicken'];\n    meta.PastaSaladPerPackage = PastaSaladPerPackage;\n    meta.PastaSaladTotal = PastaSaladPerPackage * prices['PastaSaladPerPackage'];\n    meta.orderTotal = meta.InBoneChickenTotal + meta.WokForTwoTotal + meta.FreeRangeChickenTotal + meta.PastaSaladTotal;\n  }\n\n  function canEdit() public view returns (bytes32[] memory) {\n    return _canEdit;\n  }\n\n  //////\n  // Syncable Functions\n  //////\n\n  /**\n   * @notice Returns the structs composing a statemachine for given index\n   * @param fsmIndex state machine index\n   */\n  function getByIndex(uint256 fsmIndex) public view returns (StateMachine memory item, StateMachineMeta memory meta) {\n    item = _registry[fsmIndex];\n    meta = _meta[fsmIndex];\n  }\n\n  /**\n   * @notice Returns all state machines structs in a single fetch\n   */\n  function getContents() public view returns (StateMachine[] memory registry, StateMachineMeta[] memory meta) {\n    registry = _registry;\n    meta = _meta;\n  }\n\n  /**\n   * @notice Returns the (DID) index\n   */\n  function getIndex() public view returns (string[] memory index) {\n    return _index;\n  }\n\n  //////\n  // BillOfLading Functions\n  //////\n\n  /**\n   * @notice Returns the preconditions for given state\n   * @param state state\n   * @dev Internal helper function that returns actual function pointers so a method can\n   * loop those and effectively call the precondition function\n   */\n  function getPreconditionFunctionsForState(bytes32 state)\n    internal\n    view\n    override\n    returns (function(uint256, bytes32, bytes32) view[] memory)\n  {}\n\n  /**\n   * @notice Returns the callbacks for given state\n   * @param state state\n   * @dev Internal helper function that returns actual function pointers so a method can\n   * loop those and effectively call the callback function\n   */\n  function getCallbackFunctionsForState(bytes32 state)\n    internal\n    override\n    returns (function(uint256, bytes32, bytes32) internal[] memory)\n  {}\n\n  //////\n  // UI Field Definition Functions\n  //////\n\n  /**\n   * @notice Set the UI field definition hash\n   * @param uiFieldDefinitionsHash IPFS hash containing the UI field definitions JSON\n   */\n  function setUIFieldDefinitionsHash(string memory uiFieldDefinitionsHash)\n    public\n    override\n    authWithCustomReason(UPDATE_UIFIELDDEFINITIONS_ROLE, 'Sender needs UPDATE_UIFIELDDEFINITIONS_ROLE')\n  {\n    _uiFieldDefinitionsHash = uiFieldDefinitionsHash;\n  }\n\n  /**\n   * @notice Returns the UI field definition hash\n   */\n  function getUIFieldDefinitionsHash() public view override returns (string memory) {\n    return _uiFieldDefinitionsHash;\n  }\n\n  //////\n  // Helper Functions\n  //////\n\n  /**\n   * @notice Generate state machine DID\n   * @param fsmIndex state machine index\n   */\n  function generateDID(uint256 fsmIndex) internal view returns (string memory) {\n    return string(abi.encodePacked('did:order:orders:0x', addressToString(address(this)), ':', uintToString(fsmIndex)));\n  }\n}\n",
  "sourcePath": "/home/coder/project/contracts/orders/Orders.sol",
  "compiler": {
    "name": "solc",
    "version": "0.8.3+commit.8d00100c.Emscripten.clang"
  },
  "schemaVersion": "3.4.3",
  "updatedAt": "2021-09-21T08:26:55.554Z",
  "networkType": "ethereum",
  "devdoc": {
    "kind": "dev",
    "methods": {
      "create(address,uint256,uint256,uint256,uint256,string)": {
        "params": {
          "ipfsFieldContainerHash": "IPFS hash of the metadata fields"
        }
      },
      "edit(uint256,address,uint256,uint256,uint256,uint256,string)": {
        "params": {
          "fsmIndex": "registry index of the statemachine struct",
          "ipfsFieldContainerHash": "IPFS hash of the metadata fields"
        }
      },
      "getAllowedFunctionsForState(bytes32)": {
        "params": {
          "state": "state"
        }
      },
      "getAllowedRolesForState(bytes32)": {
        "params": {
          "state": "state"
        }
      },
      "getByIndex(uint256)": {
        "params": {
          "fsmIndex": "state machine index"
        }
      },
      "getCallbacksForState(bytes32)": {
        "params": {
          "state": "state"
        }
      },
      "getIndexLength()": {
        "details": "Returns the length of the state machine registry",
        "returns": {
          "length": "the number of state machines in the registry"
        }
      },
      "getNextStatesForState(bytes32)": {
        "params": {
          "state": "state"
        }
      },
      "getPreFunctionForState(bytes32)": {
        "params": {
          "state": "state"
        }
      },
      "getPreconditionsForState(bytes32)": {
        "params": {
          "state": "state"
        }
      },
      "setUIFieldDefinitionsHash(string)": {
        "params": {
          "uiFieldDefinitionsHash": "IPFS hash containing the UI field definitions JSON"
        }
      },
      "transitionState(uint256,bytes32)": {
        "details": "Ensures predefined transition criteria are met before transitioning to a new state. Executes callbacks. Emits a Transition event after a successful transition.",
        "params": {
          "fsmIndex": "registry index of the transitioning state machine",
          "toState": "identifier of the state to transition to"
        }
      }
    },
    "stateVariables": {
      "ROLE_ADMIN": {
        "details": "Role Constants"
      },
      "STATE_ORDER_PLACED": {
        "details": "State Constants"
      },
      "_allRoles": {
        "details": "BillOfLading roles"
      },
      "_allStates": {
        "details": "BillOfLading states"
      },
      "_canEdit": {
        "details": "BillOfLading helper role collection specifies anyone who can edit an exponse"
      },
      "_index": {
        "details": "The index is a collection of DIDs for every state machine in the registry Usually the getIndex call returns a list of contract addresses however as FSMs are uniquely identified by their DID we return those instead"
      },
      "_meta": {
        "details": "StateMachineMeta contains meta data for every StateMachine - seeing as struct are not composable and the base StateMachine struct is defined in the FiniteStateMachine abstract there's no other way to compose structs than having two separte arrays where the indices match.Mint is aware of the above and will zip these two into a single struct so statemachines from the outside will look as a composition of both StateMachine and StateMachineMeta structs."
      }
    },
    "title": "BillOfLading Contract",
    "version": 1
  },
  "userdoc": {
    "events": {
      "OrderCreated(uint256,address,address)": {
        "notice": "SupplierContract Events"
      }
    },
    "kind": "user",
    "methods": {
      "_upgradeableRegistry()": {
        "notice": "The address of the upgradeable registry this contract belongs to. Note that both this property together with the UPGRADEABLE_REGISTRY_TARGET const define a contract that is part of an upgradeable registry and provides the link to the registry if required."
      },
      "allRoles()": {
        "notice": "Returns all possible roles"
      },
      "allStates()": {
        "notice": "Returns all possible states"
      },
      "create(address,uint256,uint256,uint256,uint256,string)": {
        "notice": "Create a new statemachine"
      },
      "edit(uint256,address,uint256,uint256,uint256,uint256,string)": {
        "notice": "Edit an existing statemachine"
      },
      "getAllowedFunctionsForState(bytes32)": {
        "notice": "Returns method signatures for functions which are allowed to execute in the given state"
      },
      "getAllowedRolesForState(bytes32)": {
        "notice": "Retrieve all roles that are allowed to move it to the given state"
      },
      "getByIndex(uint256)": {
        "notice": "Returns the structs composing a statemachine for given index"
      },
      "getCallbacksForState(bytes32)": {
        "notice": "Returns method signatures for functions that will get called after transitioning to the given state"
      },
      "getContents()": {
        "notice": "Returns all state machines structs in a single fetch"
      },
      "getIndex()": {
        "notice": "Returns the (DID) index"
      },
      "getIndexLength()": {
        "notice": "Returns the length of the state machine registry"
      },
      "getNextStatesForState(bytes32)": {
        "notice": "Retrieve all possible next states for a certain state"
      },
      "getPreFunctionForState(bytes32)": {
        "notice": "Returns method signatures for functions that need to be called before transitioning to the given state"
      },
      "getPreconditionsForState(bytes32)": {
        "notice": "Returns method signatures for functions that act as preconditions that must be met in order to transition to the given state"
      },
      "getUIFieldDefinitionsHash()": {
        "notice": "Returns the UI field definition hash"
      },
      "initialState()": {
        "notice": "Returns initial state"
      },
      "setUIFieldDefinitionsHash(string)": {
        "notice": "Set the UI field definition hash"
      },
      "transitionState(uint256,bytes32)": {
        "notice": "Transitions a state machine to a new state"
      }
    },
    "version": 1
  }
}