{
  "contractName": "OrdersRegistry",
  "abi": [
    {
      "inputs": [
        {
          "internalType": "address",
          "name": "gatekeeper",
          "type": "address"
        }
      ],
      "stateMutability": "nonpayable",
      "type": "constructor"
    },
    {
      "anonymous": false,
      "inputs": [
        {
          "indexed": false,
          "internalType": "address",
          "name": "originalTarget",
          "type": "address"
        },
        {
          "indexed": false,
          "internalType": "address",
          "name": "newTarget",
          "type": "address"
        }
      ],
      "name": "TargetChanged",
      "type": "event"
    },
    {
      "inputs": [],
      "name": "UPGRADEABLE_REGISTRY",
      "outputs": [
        {
          "internalType": "bytes32",
          "name": "",
          "type": "bytes32"
        }
      ],
      "stateMutability": "view",
      "type": "function"
    },
    {
      "inputs": [],
      "name": "UPGRADE_CONTRACT",
      "outputs": [
        {
          "internalType": "bytes32",
          "name": "",
          "type": "bytes32"
        }
      ],
      "stateMutability": "view",
      "type": "function"
    },
    {
      "inputs": [],
      "name": "_target",
      "outputs": [
        {
          "internalType": "address",
          "name": "",
          "type": "address"
        }
      ],
      "stateMutability": "view",
      "type": "function"
    },
    {
      "inputs": [],
      "name": "allRegistries",
      "outputs": [
        {
          "internalType": "address[]",
          "name": "",
          "type": "address[]"
        }
      ],
      "stateMutability": "view",
      "type": "function"
    },
    {
      "inputs": [
        {
          "internalType": "address",
          "name": "registry",
          "type": "address"
        }
      ],
      "name": "blacklist",
      "outputs": [],
      "stateMutability": "nonpayable",
      "type": "function"
    },
    {
      "inputs": [],
      "name": "current",
      "outputs": [
        {
          "internalType": "address",
          "name": "",
          "type": "address"
        }
      ],
      "stateMutability": "view",
      "type": "function"
    },
    {
      "inputs": [],
      "name": "gateKeeper",
      "outputs": [
        {
          "internalType": "contract GateKeeper",
          "name": "",
          "type": "address"
        }
      ],
      "stateMutability": "view",
      "type": "function"
    },
    {
      "inputs": [],
      "name": "registries",
      "outputs": [
        {
          "internalType": "address[]",
          "name": "",
          "type": "address[]"
        }
      ],
      "stateMutability": "view",
      "type": "function"
    },
    {
      "inputs": [
        {
          "internalType": "address",
          "name": "registry",
          "type": "address"
        }
      ],
      "name": "upgrade",
      "outputs": [],
      "stateMutability": "nonpayable",
      "type": "function"
    },
    {
      "inputs": [
        {
          "internalType": "address",
          "name": "registry",
          "type": "address"
        }
      ],
      "name": "whitelist",
      "outputs": [],
      "stateMutability": "nonpayable",
      "type": "function"
    }
  ],
  "bytecode": "0x608060405234801561001057600080fd5b50604051610a88380380610a8883398101604081905261002f91610054565b600080546001600160a01b0319166001600160a01b0392909216919091179055610082565b600060208284031215610065578081fd5b81516001600160a01b038116811461007b578182fd5b9392505050565b6109f7806100916000396000f3fe608060405234801561001057600080fd5b506004361061009e5760003560e01c806346de45071161006657806346de45071461013857806374e7c9df146101405780639b19251a1461015e5780639fa6a6e314610171578063f9f92be4146101825761009e565b80630900f010146100a357806317f82139146100b8578063206eba5d146100e55780632ac8bb15146100fa57806345d61ded14610125575b600080fd5b6100b66100b1366004610897565b610195565b005b6100d26f155411d490511157d0d3d395149050d560821b81565b6040519081526020015b60405180910390f35b6100ed6102cb565b6040516100dc91906108de565b60015461010d906001600160a01b031681565b6040516001600160a01b0390911681526020016100dc565b60005461010d906001600160a01b031681565b6100ed610501565b6100d2735550475241444541424c455f524547495354525960601b81565b6100b661016c366004610897565b610563565b6001546001600160a01b031661010d565b6100b6610190366004610897565b61062c565b6001600160a01b03811660009081526003602052604090205460ff161561021f5760405162461bcd60e51b815260206004820152603360248201527f43616e206e6f74207570677261646520746f20612070726576696f75736c7920604482015272626c61636b6c6973746564206164647265737360681b60648201526084015b60405180910390fd5b6001546001600160a01b03828116911614156102745760405162461bcd60e51b8152602060048201526014602482015273149959da5cdd1c9e48185b1c9958591e481cd95d60621b6044820152606401610216565b600280546001810182556000919091527f405787fa12a823e0f2b7631cc41b3ba8828b3321ca811111fa75cd3aa3bb5ace0180546001600160a01b0319166001600160a01b0383161790556102c88161074e565b50565b606060008060028054905067ffffffffffffffff8111156102fc57634e487b7160e01b600052604160045260246000fd5b604051908082528060200260200182016040528015610325578160200160208202803683370190505b50905060005b60025481101561042057600360006002838154811061035a57634e487b7160e01b600052603260045260246000fd5b60009182526020808320909101546001600160a01b0316835282019290925260400190205460ff1661040e57600281815481106103a757634e487b7160e01b600052603260045260246000fd5b9060005260206000200160009054906101000a90046001600160a01b0316828460ff16815181106103e857634e487b7160e01b600052603260045260246000fd5b6001600160a01b03909216602092830291909101909101528261040a8161098b565b9350505b8061041881610970565b91505061032b565b5060008260ff1667ffffffffffffffff81111561044d57634e487b7160e01b600052604160045260246000fd5b604051908082528060200260200182016040528015610476578160200160208202803683370190505b50905060005b8360ff168110156104f9578281815181106104a757634e487b7160e01b600052603260045260246000fd5b60200260200101518282815181106104cf57634e487b7160e01b600052603260045260246000fd5b6001600160a01b0390921660209283029190910190910152806104f181610970565b91505061047c565b509250505090565b6060600280548060200260200160405190810160405280929190818152602001828054801561055957602002820191906000526020600020905b81546001600160a01b0316815260019091019060200180831161053b575b5050505050905090565b6f155411d490511157d0d3d395149050d560821b61058133826107f2565b61059d5760405162461bcd60e51b81526004016102169061092b565b6001600160a01b03821660009081526003602052604090205460ff16151560011461060a5760405162461bcd60e51b815260206004820152601860248201527f5265676973747279206e6f7420626c61636b6c697374656400000000000000006044820152606401610216565b506001600160a01b03166000908152600360205260409020805460ff19169055565b6f155411d490511157d0d3d395149050d560821b61064a33826107f2565b6106665760405162461bcd60e51b81526004016102169061092b565b6000805b6002548110156106d557836001600160a01b03166002828154811061069f57634e487b7160e01b600052603260045260246000fd5b6000918252602090912001546001600160a01b031614156106c357600191506106d5565b806106cd81610970565b91505061066a565b506001811515146107285760405162461bcd60e51b815260206004820152601860248201527f556e6b6e6f776e207265676973747279206164647265737300000000000000006044820152606401610216565b50506001600160a01b03166000908152600360205260409020805460ff19166001179055565b6f155411d490511157d0d3d395149050d560821b61076c33826107f2565b6107885760405162461bcd60e51b81526004016102169061092b565b600154604080516001600160a01b03928316815291841660208301527f4d11d6210a5e807da812a693b5d341a870571b5fc31158172207a3d99c911ccd910160405180910390a150600180546001600160a01b0319166001600160a01b0392909216919091179055565b600080546001600160a01b031615806108905750600054604051630dace25b60e31b81526001600160a01b0385811660048301523060248301526044820185905290911690636d6712d89060640160206040518083038186803b15801561085857600080fd5b505afa15801561086c573d6000803e3d6000fd5b505050506040513d601f19601f8201168201806040525081019061089091906108be565b9392505050565b6000602082840312156108a8578081fd5b81356001600160a01b0381168114610890578182fd5b6000602082840312156108cf578081fd5b81518015158114610890578182fd5b6020808252825182820181905260009190848201906040850190845b8181101561091f5783516001600160a01b0316835292840192918401916001016108fa565b50909695505050505050565b60208082526025908201527f53656e64657220646f6573206e6f7420686176652074686520636f727265637460408201526420726f6c6560d81b606082015260800190565b6000600019821415610984576109846109ab565b5060010190565b600060ff821660ff8114156109a2576109a26109ab565b60010192915050565b634e487b7160e01b600052601160045260246000fdfea26469706673582212209054b7dee5f0ee8800ca116fea3c88901397df0eee393074ac4e384c4fb3b73064736f6c63430008030033",
  "immutableReferences": {},
  "source": "/**\n * Copyright (C) SettleMint NV - All Rights Reserved\n *\n * Use of this file is strictly prohibited without an active license agreement.\n * Distribution of this file, via any medium, is strictly prohibited.\n *\n * For license inquiries, contact hello@settlemint.com\n *\n * SPDX-License-Identifier: UNLICENSED\n */\n\npragma solidity ^0.8.0;\n\nimport '../_library//utility/upgrading/UpgradeableRegistry.sol';\n\n/**\n * @title Registry contract for bill of lading state machines\n */\ncontract OrdersRegistry is UpgradeableRegistry {\n  constructor(address gatekeeper) UpgradeableRegistry(gatekeeper) {}\n}\n",
  "sourcePath": "/home/coder/project/contracts/orders/OrdersRegistry.sol",
  "compiler": {
    "name": "solc",
    "version": "0.8.3+commit.8d00100c.Emscripten.clang"
  },
  "schemaVersion": "3.4.1",
  "updatedAt": "2021-08-01T16:33:49.669Z",
  "devdoc": {
    "kind": "dev",
    "methods": {},
    "title": "Registry contract for bill of lading state machines",
    "version": 1
  },
  "userdoc": {
    "kind": "user",
    "methods": {
      "allRegistries()": {
        "notice": "Returns all addresses (including the blacklisted addresses)"
      },
      "blacklist(address)": {
        "notice": "Blacklist a registry address"
      },
      "current()": {
        "notice": "Returns the current registry address"
      },
      "registries()": {
        "notice": "Returns all non blacklisted registry addresses"
      },
      "upgrade(address)": {
        "notice": "Upgrade the current target"
      },
      "whitelist(address)": {
        "notice": "Whitelist a registry address"
      }
    },
    "version": 1
  }
}