{
  "contractName": "Package",
  "abi": [
    {
      "inputs": [
        {
          "internalType": "address",
          "name": "gateKeeper",
          "type": "address"
        },
        {
          "internalType": "address",
          "name": "registry",
          "type": "address"
        }
      ],
      "stateMutability": "nonpayable",
      "type": "constructor"
    },
    {
      "anonymous": false,
      "inputs": [
        {
          "indexed": false,
          "internalType": "uint256",
          "name": "fsmIndex",
          "type": "uint256"
        },
        {
          "components": [
            {
              "internalType": "string",
              "name": "name",
              "type": "string"
            },
            {
              "internalType": "string",
              "name": "carrier",
              "type": "string"
            },
            {
              "internalType": "uint256",
              "name": "time",
              "type": "uint256"
            },
            {
              "internalType": "string",
              "name": "lat",
              "type": "string"
            },
            {
              "internalType": "string",
              "name": "long",
              "type": "string"
            },
            {
              "internalType": "uint256",
              "name": "temp",
              "type": "uint256"
            }
          ],
          "indexed": false,
          "internalType": "struct Package.eventInfo",
          "name": "info",
          "type": "tuple"
        }
      ],
      "name": "ArrivedToEndUserEvent",
      "type": "event"
    },
    {
      "anonymous": false,
      "inputs": [
        {
          "indexed": false,
          "internalType": "uint256",
          "name": "fsmIndex",
          "type": "uint256"
        },
        {
          "components": [
            {
              "internalType": "string",
              "name": "name",
              "type": "string"
            },
            {
              "internalType": "string",
              "name": "carrier",
              "type": "string"
            },
            {
              "internalType": "uint256",
              "name": "time",
              "type": "uint256"
            },
            {
              "internalType": "string",
              "name": "lat",
              "type": "string"
            },
            {
              "internalType": "string",
              "name": "long",
              "type": "string"
            },
            {
              "internalType": "uint256",
              "name": "temp",
              "type": "uint256"
            }
          ],
          "indexed": false,
          "internalType": "struct Package.eventInfo",
          "name": "info",
          "type": "tuple"
        }
      ],
      "name": "ArrivedToWareHouseEvent",
      "type": "event"
    },
    {
      "anonymous": false,
      "inputs": [
        {
          "indexed": false,
          "internalType": "uint256",
          "name": "fsmIndex",
          "type": "uint256"
        },
        {
          "components": [
            {
              "internalType": "string",
              "name": "name",
              "type": "string"
            },
            {
              "internalType": "string",
              "name": "carrier",
              "type": "string"
            },
            {
              "internalType": "uint256",
              "name": "time",
              "type": "uint256"
            },
            {
              "internalType": "string",
              "name": "lat",
              "type": "string"
            },
            {
              "internalType": "string",
              "name": "long",
              "type": "string"
            },
            {
              "internalType": "uint256",
              "name": "temp",
              "type": "uint256"
            }
          ],
          "indexed": false,
          "internalType": "struct Package.eventInfo",
          "name": "info",
          "type": "tuple"
        },
        {
          "components": [
            {
              "internalType": "enum Package.IssueType",
              "name": "issue",
              "type": "uint8"
            },
            {
              "internalType": "uint256",
              "name": "timestamp",
              "type": "uint256"
            }
          ],
          "indexed": false,
          "internalType": "struct Package.packageIssue[]",
          "name": "issues",
          "type": "tuple[]"
        }
      ],
      "name": "CheckSmartContractEvent",
      "type": "event"
    },
    {
      "anonymous": false,
      "inputs": [
        {
          "indexed": false,
          "internalType": "uint256",
          "name": "fsmIndex",
          "type": "uint256"
        },
        {
          "components": [
            {
              "internalType": "string",
              "name": "name",
              "type": "string"
            },
            {
              "internalType": "string",
              "name": "carrier",
              "type": "string"
            },
            {
              "internalType": "uint256",
              "name": "time",
              "type": "uint256"
            },
            {
              "internalType": "string",
              "name": "lat",
              "type": "string"
            },
            {
              "internalType": "string",
              "name": "long",
              "type": "string"
            },
            {
              "internalType": "uint256",
              "name": "temp",
              "type": "uint256"
            }
          ],
          "indexed": false,
          "internalType": "struct Package.eventInfo",
          "name": "info",
          "type": "tuple"
        }
      ],
      "name": "CoolingMalfunctionEvent",
      "type": "event"
    },
    {
      "anonymous": false,
      "inputs": [
        {
          "indexed": false,
          "internalType": "uint256",
          "name": "fsmIndex",
          "type": "uint256"
        },
        {
          "components": [
            {
              "internalType": "string",
              "name": "name",
              "type": "string"
            },
            {
              "internalType": "string",
              "name": "carrier",
              "type": "string"
            },
            {
              "internalType": "uint256",
              "name": "time",
              "type": "uint256"
            },
            {
              "internalType": "string",
              "name": "lat",
              "type": "string"
            },
            {
              "internalType": "string",
              "name": "long",
              "type": "string"
            },
            {
              "internalType": "uint256",
              "name": "temp",
              "type": "uint256"
            }
          ],
          "indexed": false,
          "internalType": "struct Package.eventInfo",
          "name": "info",
          "type": "tuple"
        }
      ],
      "name": "FinishChangedCarrier",
      "type": "event"
    },
    {
      "anonymous": false,
      "inputs": [
        {
          "indexed": false,
          "internalType": "uint256",
          "name": "fsmIndex",
          "type": "uint256"
        },
        {
          "components": [
            {
              "internalType": "string",
              "name": "name",
              "type": "string"
            },
            {
              "internalType": "string",
              "name": "carrier",
              "type": "string"
            },
            {
              "internalType": "uint256",
              "name": "time",
              "type": "uint256"
            },
            {
              "internalType": "string",
              "name": "lat",
              "type": "string"
            },
            {
              "internalType": "string",
              "name": "long",
              "type": "string"
            },
            {
              "internalType": "uint256",
              "name": "temp",
              "type": "uint256"
            }
          ],
          "indexed": false,
          "internalType": "struct Package.eventInfo",
          "name": "info",
          "type": "tuple"
        }
      ],
      "name": "FinishLoadingEvent",
      "type": "event"
    },
    {
      "anonymous": false,
      "inputs": [
        {
          "indexed": false,
          "internalType": "uint256",
          "name": "fsmIndex",
          "type": "uint256"
        },
        {
          "components": [
            {
              "internalType": "string",
              "name": "name",
              "type": "string"
            },
            {
              "internalType": "string",
              "name": "carrier",
              "type": "string"
            },
            {
              "internalType": "uint256",
              "name": "time",
              "type": "uint256"
            },
            {
              "internalType": "string",
              "name": "lat",
              "type": "string"
            },
            {
              "internalType": "string",
              "name": "long",
              "type": "string"
            },
            {
              "internalType": "uint256",
              "name": "temp",
              "type": "uint256"
            }
          ],
          "indexed": false,
          "internalType": "struct Package.eventInfo",
          "name": "info",
          "type": "tuple"
        }
      ],
      "name": "ItMalfunctionEvent",
      "type": "event"
    },
    {
      "anonymous": false,
      "inputs": [
        {
          "indexed": false,
          "internalType": "uint256",
          "name": "fsmIndex",
          "type": "uint256"
        },
        {
          "components": [
            {
              "internalType": "string",
              "name": "name",
              "type": "string"
            },
            {
              "internalType": "string",
              "name": "carrier",
              "type": "string"
            },
            {
              "internalType": "uint256",
              "name": "time",
              "type": "uint256"
            },
            {
              "internalType": "string",
              "name": "lat",
              "type": "string"
            },
            {
              "internalType": "string",
              "name": "long",
              "type": "string"
            },
            {
              "internalType": "uint256",
              "name": "temp",
              "type": "uint256"
            }
          ],
          "indexed": false,
          "internalType": "struct Package.eventInfo",
          "name": "info",
          "type": "tuple"
        }
      ],
      "name": "PackageTiltingEvent",
      "type": "event"
    },
    {
      "anonymous": false,
      "inputs": [
        {
          "indexed": false,
          "internalType": "uint256",
          "name": "fsmIndex",
          "type": "uint256"
        },
        {
          "components": [
            {
              "internalType": "string",
              "name": "name",
              "type": "string"
            },
            {
              "internalType": "string",
              "name": "carrier",
              "type": "string"
            },
            {
              "internalType": "uint256",
              "name": "time",
              "type": "uint256"
            },
            {
              "internalType": "string",
              "name": "lat",
              "type": "string"
            },
            {
              "internalType": "string",
              "name": "long",
              "type": "string"
            },
            {
              "internalType": "uint256",
              "name": "temp",
              "type": "uint256"
            }
          ],
          "indexed": false,
          "internalType": "struct Package.eventInfo",
          "name": "info",
          "type": "tuple"
        }
      ],
      "name": "SentData",
      "type": "event"
    },
    {
      "anonymous": false,
      "inputs": [
        {
          "indexed": false,
          "internalType": "uint256",
          "name": "fsmIndex",
          "type": "uint256"
        },
        {
          "components": [
            {
              "internalType": "string",
              "name": "name",
              "type": "string"
            },
            {
              "internalType": "string",
              "name": "carrier",
              "type": "string"
            },
            {
              "internalType": "uint256",
              "name": "time",
              "type": "uint256"
            },
            {
              "internalType": "string",
              "name": "lat",
              "type": "string"
            },
            {
              "internalType": "string",
              "name": "long",
              "type": "string"
            },
            {
              "internalType": "uint256",
              "name": "temp",
              "type": "uint256"
            }
          ],
          "indexed": false,
          "internalType": "struct Package.eventInfo",
          "name": "info",
          "type": "tuple"
        }
      ],
      "name": "StartChangedCarrier",
      "type": "event"
    },
    {
      "anonymous": false,
      "inputs": [
        {
          "indexed": false,
          "internalType": "uint256",
          "name": "fsmIndex",
          "type": "uint256"
        },
        {
          "components": [
            {
              "internalType": "string",
              "name": "name",
              "type": "string"
            },
            {
              "internalType": "string",
              "name": "carrier",
              "type": "string"
            },
            {
              "internalType": "uint256",
              "name": "time",
              "type": "uint256"
            },
            {
              "internalType": "string",
              "name": "lat",
              "type": "string"
            },
            {
              "internalType": "string",
              "name": "long",
              "type": "string"
            },
            {
              "internalType": "uint256",
              "name": "temp",
              "type": "uint256"
            }
          ],
          "indexed": false,
          "internalType": "struct Package.eventInfo",
          "name": "info",
          "type": "tuple"
        }
      ],
      "name": "StartLoadingEvent",
      "type": "event"
    },
    {
      "anonymous": false,
      "inputs": [
        {
          "indexed": false,
          "internalType": "uint256",
          "name": "fsmIndex",
          "type": "uint256"
        },
        {
          "components": [
            {
              "internalType": "string",
              "name": "name",
              "type": "string"
            },
            {
              "internalType": "string",
              "name": "carrier",
              "type": "string"
            },
            {
              "internalType": "uint256",
              "name": "time",
              "type": "uint256"
            },
            {
              "internalType": "string",
              "name": "lat",
              "type": "string"
            },
            {
              "internalType": "string",
              "name": "long",
              "type": "string"
            },
            {
              "internalType": "uint256",
              "name": "temp",
              "type": "uint256"
            }
          ],
          "indexed": false,
          "internalType": "struct Package.eventInfo",
          "name": "info",
          "type": "tuple"
        }
      ],
      "name": "StartTransportationEvent",
      "type": "event"
    },
    {
      "anonymous": false,
      "inputs": [
        {
          "indexed": false,
          "internalType": "uint256",
          "name": "index",
          "type": "uint256"
        },
        {
          "indexed": false,
          "internalType": "address",
          "name": "sender",
          "type": "address"
        },
        {
          "indexed": false,
          "internalType": "bytes32",
          "name": "fromState",
          "type": "bytes32"
        },
        {
          "indexed": false,
          "internalType": "bytes32",
          "name": "toState",
          "type": "bytes32"
        }
      ],
      "name": "StateTransition",
      "type": "event"
    },
    {
      "anonymous": false,
      "inputs": [
        {
          "indexed": false,
          "internalType": "uint256",
          "name": "fsmIndex",
          "type": "uint256"
        },
        {
          "components": [
            {
              "internalType": "string",
              "name": "name",
              "type": "string"
            },
            {
              "internalType": "string",
              "name": "carrier",
              "type": "string"
            },
            {
              "internalType": "uint256",
              "name": "time",
              "type": "uint256"
            },
            {
              "internalType": "string",
              "name": "lat",
              "type": "string"
            },
            {
              "internalType": "string",
              "name": "long",
              "type": "string"
            },
            {
              "internalType": "uint256",
              "name": "temp",
              "type": "uint256"
            }
          ],
          "indexed": false,
          "internalType": "struct Package.eventInfo",
          "name": "info",
          "type": "tuple"
        }
      ],
      "name": "TrafficJamEvent",
      "type": "event"
    },
    {
      "inputs": [],
      "name": "CREATE_STATEMACHINE_ROLE",
      "outputs": [
        {
          "internalType": "bytes32",
          "name": "",
          "type": "bytes32"
        }
      ],
      "stateMutability": "view",
      "type": "function"
    },
    {
      "inputs": [],
      "name": "FINITE_STATE_MACHINE",
      "outputs": [
        {
          "internalType": "bytes32",
          "name": "",
          "type": "bytes32"
        }
      ],
      "stateMutability": "view",
      "type": "function"
    },
    {
      "inputs": [],
      "name": "UPDATE_IPFSCONTAINERHASH_ROLE",
      "outputs": [
        {
          "internalType": "bytes32",
          "name": "",
          "type": "bytes32"
        }
      ],
      "stateMutability": "view",
      "type": "function"
    },
    {
      "inputs": [],
      "name": "UPDATE_UIFIELDDEFINITIONS_ROLE",
      "outputs": [
        {
          "internalType": "bytes32",
          "name": "",
          "type": "bytes32"
        }
      ],
      "stateMutability": "view",
      "type": "function"
    },
    {
      "inputs": [],
      "name": "UPGRADEABLE_REGISTRY_TARGET",
      "outputs": [
        {
          "internalType": "bytes32",
          "name": "",
          "type": "bytes32"
        }
      ],
      "stateMutability": "view",
      "type": "function"
    },
    {
      "inputs": [
        {
          "internalType": "uint256",
          "name": "",
          "type": "uint256"
        }
      ],
      "name": "_allRoles",
      "outputs": [
        {
          "internalType": "bytes32",
          "name": "",
          "type": "bytes32"
        }
      ],
      "stateMutability": "view",
      "type": "function"
    },
    {
      "inputs": [
        {
          "internalType": "uint256",
          "name": "",
          "type": "uint256"
        }
      ],
      "name": "_allStates",
      "outputs": [
        {
          "internalType": "bytes32",
          "name": "",
          "type": "bytes32"
        }
      ],
      "stateMutability": "view",
      "type": "function"
    },
    {
      "inputs": [],
      "name": "_ipfsFieldContainerHash",
      "outputs": [
        {
          "internalType": "string",
          "name": "",
          "type": "string"
        }
      ],
      "stateMutability": "view",
      "type": "function"
    },
    {
      "inputs": [],
      "name": "_upgradeableRegistry",
      "outputs": [
        {
          "internalType": "address",
          "name": "",
          "type": "address"
        }
      ],
      "stateMutability": "view",
      "type": "function"
    },
    {
      "inputs": [],
      "name": "gateKeeper",
      "outputs": [
        {
          "internalType": "contract GateKeeper",
          "name": "",
          "type": "address"
        }
      ],
      "stateMutability": "view",
      "type": "function"
    },
    {
      "inputs": [],
      "name": "getIndexLength",
      "outputs": [
        {
          "internalType": "uint256",
          "name": "length",
          "type": "uint256"
        }
      ],
      "stateMutability": "view",
      "type": "function"
    },
    {
      "inputs": [],
      "name": "getIpfsFieldContainerHash",
      "outputs": [
        {
          "internalType": "string",
          "name": "",
          "type": "string"
        }
      ],
      "stateMutability": "view",
      "type": "function"
    },
    {
      "inputs": [
        {
          "internalType": "bytes32",
          "name": "key",
          "type": "bytes32"
        },
        {
          "internalType": "string",
          "name": "file",
          "type": "string"
        }
      ],
      "name": "setContractFile",
      "outputs": [],
      "stateMutability": "nonpayable",
      "type": "function"
    },
    {
      "inputs": [
        {
          "internalType": "string",
          "name": "ipfsFieldContainerHash",
          "type": "string"
        }
      ],
      "name": "setIpfsFieldContainerHash",
      "outputs": [],
      "stateMutability": "nonpayable",
      "type": "function"
    },
    {
      "inputs": [
        {
          "internalType": "uint256",
          "name": "fsmIndex",
          "type": "uint256"
        },
        {
          "internalType": "bytes32",
          "name": "toState",
          "type": "bytes32"
        }
      ],
      "name": "transitionState",
      "outputs": [],
      "stateMutability": "nonpayable",
      "type": "function"
    },
    {
      "inputs": [],
      "name": "initialState",
      "outputs": [
        {
          "internalType": "bytes32",
          "name": "",
          "type": "bytes32"
        }
      ],
      "stateMutability": "pure",
      "type": "function"
    },
    {
      "inputs": [],
      "name": "allStates",
      "outputs": [
        {
          "internalType": "bytes32[]",
          "name": "",
          "type": "bytes32[]"
        }
      ],
      "stateMutability": "view",
      "type": "function"
    },
    {
      "inputs": [],
      "name": "allRoles",
      "outputs": [
        {
          "internalType": "bytes32[]",
          "name": "",
          "type": "bytes32[]"
        }
      ],
      "stateMutability": "view",
      "type": "function"
    },
    {
      "inputs": [
        {
          "internalType": "bytes32",
          "name": "state",
          "type": "bytes32"
        }
      ],
      "name": "getNextStatesForState",
      "outputs": [
        {
          "internalType": "bytes32[]",
          "name": "test",
          "type": "bytes32[]"
        }
      ],
      "stateMutability": "view",
      "type": "function"
    },
    {
      "inputs": [
        {
          "internalType": "bytes32",
          "name": "state",
          "type": "bytes32"
        }
      ],
      "name": "getAllowedRolesForState",
      "outputs": [
        {
          "internalType": "bytes32[]",
          "name": "",
          "type": "bytes32[]"
        }
      ],
      "stateMutability": "view",
      "type": "function"
    },
    {
      "inputs": [
        {
          "internalType": "bytes32",
          "name": "state",
          "type": "bytes32"
        }
      ],
      "name": "getAllowedFunctionsForState",
      "outputs": [
        {
          "internalType": "bytes4[]",
          "name": "",
          "type": "bytes4[]"
        }
      ],
      "stateMutability": "view",
      "type": "function"
    },
    {
      "inputs": [
        {
          "internalType": "bytes32",
          "name": "state",
          "type": "bytes32"
        }
      ],
      "name": "getPreconditionsForState",
      "outputs": [
        {
          "internalType": "bytes4[]",
          "name": "",
          "type": "bytes4[]"
        }
      ],
      "stateMutability": "view",
      "type": "function"
    },
    {
      "inputs": [
        {
          "internalType": "bytes32",
          "name": "state",
          "type": "bytes32"
        }
      ],
      "name": "getCallbacksForState",
      "outputs": [
        {
          "internalType": "bytes4[]",
          "name": "",
          "type": "bytes4[]"
        }
      ],
      "stateMutability": "view",
      "type": "function"
    },
    {
      "inputs": [
        {
          "internalType": "bytes32",
          "name": "state",
          "type": "bytes32"
        }
      ],
      "name": "getPreFunctionForState",
      "outputs": [
        {
          "internalType": "bytes4",
          "name": "",
          "type": "bytes4"
        }
      ],
      "stateMutability": "pure",
      "type": "function"
    },
    {
      "inputs": [
        {
          "internalType": "string",
          "name": "uiFieldDefinitionsHash",
          "type": "string"
        }
      ],
      "name": "setUIFieldDefinitionsHash",
      "outputs": [],
      "stateMutability": "nonpayable",
      "type": "function"
    },
    {
      "inputs": [],
      "name": "getUIFieldDefinitionsHash",
      "outputs": [
        {
          "internalType": "string",
          "name": "",
          "type": "string"
        }
      ],
      "stateMutability": "view",
      "type": "function"
    },
    {
      "inputs": [
        {
          "internalType": "string",
          "name": "name",
          "type": "string"
        },
        {
          "internalType": "string",
          "name": "comment",
          "type": "string"
        },
        {
          "internalType": "bool",
          "name": "isMedical",
          "type": "bool"
        },
        {
          "internalType": "bool",
          "name": "tiltable",
          "type": "bool"
        },
        {
          "internalType": "bool",
          "name": "temperatureIgnored",
          "type": "bool"
        },
        {
          "internalType": "uint256",
          "name": "temperatureThreshold",
          "type": "uint256"
        },
        {
          "internalType": "string",
          "name": "ipfsFieldContainerHash",
          "type": "string"
        },
        {
          "internalType": "address",
          "name": "owner",
          "type": "address"
        }
      ],
      "name": "create",
      "outputs": [],
      "stateMutability": "nonpayable",
      "type": "function"
    },
    {
      "inputs": [
        {
          "internalType": "uint256",
          "name": "fsmIndex",
          "type": "uint256"
        },
        {
          "internalType": "string",
          "name": "name",
          "type": "string"
        },
        {
          "internalType": "string",
          "name": "comment",
          "type": "string"
        },
        {
          "internalType": "bool",
          "name": "isMedical",
          "type": "bool"
        },
        {
          "internalType": "bool",
          "name": "tiltable",
          "type": "bool"
        },
        {
          "internalType": "bool",
          "name": "temperatureIgnored",
          "type": "bool"
        },
        {
          "internalType": "uint256",
          "name": "temperatureThreshold",
          "type": "uint256"
        },
        {
          "internalType": "string",
          "name": "ipfsFieldContainerHash",
          "type": "string"
        }
      ],
      "name": "edit",
      "outputs": [],
      "stateMutability": "nonpayable",
      "type": "function"
    },
    {
      "inputs": [],
      "name": "canEdit",
      "outputs": [
        {
          "internalType": "bytes32[]",
          "name": "",
          "type": "bytes32[]"
        }
      ],
      "stateMutability": "view",
      "type": "function"
    },
    {
      "inputs": [
        {
          "internalType": "uint256",
          "name": "fsmIndex",
          "type": "uint256"
        }
      ],
      "name": "getByIndex",
      "outputs": [
        {
          "components": [
            {
              "internalType": "uint256",
              "name": "index",
              "type": "uint256"
            },
            {
              "internalType": "bytes32",
              "name": "currentState",
              "type": "bytes32"
            },
            {
              "components": [
                {
                  "internalType": "bytes32",
                  "name": "fromState",
                  "type": "bytes32"
                },
                {
                  "internalType": "bytes32",
                  "name": "toState",
                  "type": "bytes32"
                },
                {
                  "internalType": "address",
                  "name": "actor",
                  "type": "address"
                },
                {
                  "internalType": "uint256",
                  "name": "timestamp",
                  "type": "uint256"
                }
              ],
              "internalType": "struct FiniteStateMachine.Transition[]",
              "name": "transitions",
              "type": "tuple[]"
            },
            {
              "internalType": "uint256",
              "name": "createdAt",
              "type": "uint256"
            }
          ],
          "internalType": "struct FiniteStateMachine.StateMachine",
          "name": "item",
          "type": "tuple"
        },
        {
          "components": [
            {
              "internalType": "string",
              "name": "DID",
              "type": "string"
            },
            {
              "internalType": "string",
              "name": "name",
              "type": "string"
            },
            {
              "internalType": "string",
              "name": "comment",
              "type": "string"
            },
            {
              "internalType": "bool",
              "name": "isMedical",
              "type": "bool"
            },
            {
              "internalType": "bool",
              "name": "tiltable",
              "type": "bool"
            },
            {
              "internalType": "bool",
              "name": "temperatureIgnored",
              "type": "bool"
            },
            {
              "internalType": "uint256",
              "name": "temperatureThreshold",
              "type": "uint256"
            },
            {
              "components": [
                {
                  "internalType": "enum Package.IssueType",
                  "name": "issue",
                  "type": "uint8"
                },
                {
                  "internalType": "uint256",
                  "name": "timestamp",
                  "type": "uint256"
                }
              ],
              "internalType": "struct Package.packageIssue[]",
              "name": "issues",
              "type": "tuple[]"
            },
            {
              "internalType": "string",
              "name": "currentCarrier",
              "type": "string"
            },
            {
              "internalType": "uint256",
              "name": "start",
              "type": "uint256"
            },
            {
              "internalType": "uint256",
              "name": "temperature",
              "type": "uint256"
            },
            {
              "internalType": "string[]",
              "name": "gpsLocations",
              "type": "string[]"
            },
            {
              "internalType": "address",
              "name": "owner",
              "type": "address"
            },
            {
              "internalType": "string",
              "name": "ipfsFieldContainerHash",
              "type": "string"
            }
          ],
          "internalType": "struct Package.StateMachineMeta",
          "name": "meta",
          "type": "tuple"
        }
      ],
      "stateMutability": "view",
      "type": "function"
    },
    {
      "inputs": [],
      "name": "getContents",
      "outputs": [
        {
          "components": [
            {
              "internalType": "uint256",
              "name": "index",
              "type": "uint256"
            },
            {
              "internalType": "bytes32",
              "name": "currentState",
              "type": "bytes32"
            },
            {
              "components": [
                {
                  "internalType": "bytes32",
                  "name": "fromState",
                  "type": "bytes32"
                },
                {
                  "internalType": "bytes32",
                  "name": "toState",
                  "type": "bytes32"
                },
                {
                  "internalType": "address",
                  "name": "actor",
                  "type": "address"
                },
                {
                  "internalType": "uint256",
                  "name": "timestamp",
                  "type": "uint256"
                }
              ],
              "internalType": "struct FiniteStateMachine.Transition[]",
              "name": "transitions",
              "type": "tuple[]"
            },
            {
              "internalType": "uint256",
              "name": "createdAt",
              "type": "uint256"
            }
          ],
          "internalType": "struct FiniteStateMachine.StateMachine[]",
          "name": "registry",
          "type": "tuple[]"
        },
        {
          "components": [
            {
              "internalType": "string",
              "name": "DID",
              "type": "string"
            },
            {
              "internalType": "string",
              "name": "name",
              "type": "string"
            },
            {
              "internalType": "string",
              "name": "comment",
              "type": "string"
            },
            {
              "internalType": "bool",
              "name": "isMedical",
              "type": "bool"
            },
            {
              "internalType": "bool",
              "name": "tiltable",
              "type": "bool"
            },
            {
              "internalType": "bool",
              "name": "temperatureIgnored",
              "type": "bool"
            },
            {
              "internalType": "uint256",
              "name": "temperatureThreshold",
              "type": "uint256"
            },
            {
              "components": [
                {
                  "internalType": "enum Package.IssueType",
                  "name": "issue",
                  "type": "uint8"
                },
                {
                  "internalType": "uint256",
                  "name": "timestamp",
                  "type": "uint256"
                }
              ],
              "internalType": "struct Package.packageIssue[]",
              "name": "issues",
              "type": "tuple[]"
            },
            {
              "internalType": "string",
              "name": "currentCarrier",
              "type": "string"
            },
            {
              "internalType": "uint256",
              "name": "start",
              "type": "uint256"
            },
            {
              "internalType": "uint256",
              "name": "temperature",
              "type": "uint256"
            },
            {
              "internalType": "string[]",
              "name": "gpsLocations",
              "type": "string[]"
            },
            {
              "internalType": "address",
              "name": "owner",
              "type": "address"
            },
            {
              "internalType": "string",
              "name": "ipfsFieldContainerHash",
              "type": "string"
            }
          ],
          "internalType": "struct Package.StateMachineMeta[]",
          "name": "meta",
          "type": "tuple[]"
        }
      ],
      "stateMutability": "view",
      "type": "function"
    },
    {
      "inputs": [],
      "name": "getIndex",
      "outputs": [
        {
          "internalType": "string[]",
          "name": "index",
          "type": "string[]"
        }
      ],
      "stateMutability": "view",
      "type": "function"
    },
    {
      "inputs": [
        {
          "internalType": "uint256",
          "name": "fsmIndex",
          "type": "uint256"
        },
        {
          "internalType": "uint256",
          "name": "time",
          "type": "uint256"
        },
        {
          "internalType": "string",
          "name": "lat",
          "type": "string"
        },
        {
          "internalType": "string",
          "name": "long",
          "type": "string"
        }
      ],
      "name": "startLoadingTruck",
      "outputs": [],
      "stateMutability": "nonpayable",
      "type": "function"
    },
    {
      "inputs": [
        {
          "internalType": "uint256",
          "name": "fsmIndex",
          "type": "uint256"
        },
        {
          "internalType": "uint256",
          "name": "time",
          "type": "uint256"
        },
        {
          "internalType": "string",
          "name": "lat",
          "type": "string"
        },
        {
          "internalType": "string",
          "name": "long",
          "type": "string"
        }
      ],
      "name": "finishLoadingTruck",
      "outputs": [],
      "stateMutability": "nonpayable",
      "type": "function"
    },
    {
      "inputs": [
        {
          "internalType": "uint256",
          "name": "fsmIndex",
          "type": "uint256"
        },
        {
          "internalType": "uint256",
          "name": "time",
          "type": "uint256"
        },
        {
          "internalType": "string",
          "name": "lat",
          "type": "string"
        },
        {
          "internalType": "string",
          "name": "long",
          "type": "string"
        }
      ],
      "name": "setPackageTilting",
      "outputs": [],
      "stateMutability": "nonpayable",
      "type": "function"
    },
    {
      "inputs": [
        {
          "internalType": "uint256",
          "name": "fsmIndex",
          "type": "uint256"
        },
        {
          "internalType": "uint256",
          "name": "time",
          "type": "uint256"
        },
        {
          "internalType": "string",
          "name": "lat",
          "type": "string"
        },
        {
          "internalType": "string",
          "name": "long",
          "type": "string"
        },
        {
          "internalType": "uint256",
          "name": "temp",
          "type": "uint256"
        }
      ],
      "name": "setCoolingMalfunction",
      "outputs": [],
      "stateMutability": "nonpayable",
      "type": "function"
    },
    {
      "inputs": [
        {
          "internalType": "uint256",
          "name": "fsmIndex",
          "type": "uint256"
        },
        {
          "internalType": "uint256",
          "name": "time",
          "type": "uint256"
        },
        {
          "internalType": "string",
          "name": "lat",
          "type": "string"
        },
        {
          "internalType": "string",
          "name": "long",
          "type": "string"
        }
      ],
      "name": "setItMalfunction",
      "outputs": [],
      "stateMutability": "nonpayable",
      "type": "function"
    },
    {
      "inputs": [
        {
          "internalType": "uint256",
          "name": "fsmIndex",
          "type": "uint256"
        },
        {
          "internalType": "uint256",
          "name": "time",
          "type": "uint256"
        },
        {
          "internalType": "string",
          "name": "lat",
          "type": "string"
        },
        {
          "internalType": "string",
          "name": "long",
          "type": "string"
        }
      ],
      "name": "setTrafficJam",
      "outputs": [],
      "stateMutability": "nonpayable",
      "type": "function"
    },
    {
      "inputs": [
        {
          "internalType": "uint256",
          "name": "fsmIndex",
          "type": "uint256"
        },
        {
          "internalType": "uint256",
          "name": "time",
          "type": "uint256"
        },
        {
          "internalType": "string",
          "name": "lat",
          "type": "string"
        },
        {
          "internalType": "string",
          "name": "long",
          "type": "string"
        },
        {
          "internalType": "uint256",
          "name": "temp",
          "type": "uint256"
        }
      ],
      "name": "sendData",
      "outputs": [],
      "stateMutability": "nonpayable",
      "type": "function"
    },
    {
      "inputs": [
        {
          "internalType": "uint256",
          "name": "fsmIndex",
          "type": "uint256"
        },
        {
          "internalType": "uint256",
          "name": "time",
          "type": "uint256"
        },
        {
          "internalType": "string",
          "name": "lat",
          "type": "string"
        },
        {
          "internalType": "string",
          "name": "long",
          "type": "string"
        }
      ],
      "name": "arrivedToWarehouse",
      "outputs": [],
      "stateMutability": "nonpayable",
      "type": "function"
    },
    {
      "inputs": [
        {
          "internalType": "uint256",
          "name": "fsmIndex",
          "type": "uint256"
        },
        {
          "internalType": "uint256",
          "name": "time",
          "type": "uint256"
        },
        {
          "internalType": "string",
          "name": "lat",
          "type": "string"
        },
        {
          "internalType": "string",
          "name": "long",
          "type": "string"
        }
      ],
      "name": "arrivedToEndUser",
      "outputs": [],
      "stateMutability": "nonpayable",
      "type": "function"
    },
    {
      "inputs": [
        {
          "internalType": "uint256",
          "name": "fsmIndex",
          "type": "uint256"
        },
        {
          "internalType": "uint256",
          "name": "time",
          "type": "uint256"
        },
        {
          "internalType": "string",
          "name": "lat",
          "type": "string"
        },
        {
          "internalType": "string",
          "name": "long",
          "type": "string"
        },
        {
          "internalType": "string",
          "name": "newCarrier",
          "type": "string"
        }
      ],
      "name": "startChangeCarrier",
      "outputs": [],
      "stateMutability": "nonpayable",
      "type": "function"
    },
    {
      "inputs": [
        {
          "internalType": "uint256",
          "name": "fsmIndex",
          "type": "uint256"
        },
        {
          "internalType": "uint256",
          "name": "time",
          "type": "uint256"
        },
        {
          "internalType": "string",
          "name": "lat",
          "type": "string"
        },
        {
          "internalType": "string",
          "name": "long",
          "type": "string"
        }
      ],
      "name": "finishChangeCarrier",
      "outputs": [],
      "stateMutability": "nonpayable",
      "type": "function"
    },
    {
      "inputs": [
        {
          "internalType": "uint256",
          "name": "fsmIndex",
          "type": "uint256"
        },
        {
          "internalType": "uint256",
          "name": "time",
          "type": "uint256"
        },
        {
          "internalType": "string",
          "name": "lat",
          "type": "string"
        },
        {
          "internalType": "string",
          "name": "long",
          "type": "string"
        }
      ],
      "name": "checkSmartContract",
      "outputs": [],
      "stateMutability": "nonpayable",
      "type": "function"
    }
  ],
  "bytecode": "0x6101206040526d141050d2d051d157d313d051115160921b608090815271141050d2d051d157d25397d514905394d25560721b60a0527f415252495645445f544f5f57415245484f55534500000000000000000000000060c0527f5041434b4147455f4348414e4745445f4341525249455200000000000000000060e0527f415252495645445f544f5f454e445f555345520000000000000000000000000061010052620000b2906007906005620001f7565b5060408051808201909152692927a622afa0a226a4a760b11b8152682927a622afaaa9a2a960b91b6020820152620000ef906008906002620001f7565b5060408051808201909152692927a622afa0a226a4a760b11b8152682927a622afaaa9a2a960b91b60208201526200012c906009906002620001f7565b503480156200013a57600080fd5b50604051620068cc380380620068cc8339810160408190526200015d916200027b565b600080546001600160a01b0319166001600160a01b03848116919091179091558116620001d05760405162461bcd60e51b815260206004820152601860248201527f72656769737472792063616e206e6f74206265207a65726f0000000000000000604482015260640160405180910390fd5b600a80546001600160a01b0319166001600160a01b039290921691909117905550620002b2565b82805482825590600052602060002090810192821562000235579160200282015b828111156200023557825182559160200191906001019062000218565b506200024392915062000247565b5090565b5b8082111562000243576000815560010162000248565b80516001600160a01b03811681146200027657600080fd5b919050565b600080604083850312156200028e578182fd5b62000299836200025e565b9150620002a9602084016200025e565b90509250929050565b61660a80620002c26000396000f3fe608060405234801561001057600080fd5b50600436106102745760003560e01c806381045ead11610151578063c4f10f3d116100c3578063e2f3e56c11610087578063e2f3e56c146105be578063ef120a6e146105d1578063f262cb98146105d9578063f4a979a3146105ec578063fcbb5907146105ff578063fd95caa41461062657610274565b8063c4f10f3d1461055f578063d143d00514610572578063d473099b14610590578063dc834a73146105a3578063e1ba7d01146105b657610274565b80638baba52a116101155780638baba52a146104ef578063910fd10a146104f757806399cb8c13146104ff578063a303dbce14610512578063af49c6ff14610539578063b07847aa1461054c57610274565b806381045ead146104ac57806381beeb64146104c157806382f68683146104c957806385fda2dc1461044a5780638720688e146104dc57610274565b806345d61ded116101ea5780635efa6514116101ae5780635efa65141461043757806367b06eac1461044a578063747f06421461045e5780637baccd981461047e5780637dcbe435146104915780637f849c851461049957610274565b806345d61ded146103af5780634c86a555146103da5780634c9be933146103ed57806356c57bd11461040d578063590fa6f81461042057610274565b80632d883a731161023c5780632d883a7314610304578063309c70cf146103255780633b5d9907146103475780633d831ddd1461035a578063412db2ad1461036d578063459b9af91461039a57610274565b806307d01da614610279578063124262d81461028e5780631d9cf1bd146102a15780631f0f992a146102b457806323677ae2146102ee575b600080fd5b61028c610287366004615af4565b610639565b005b61028c61029c366004615c00565b6108d3565b61028c6102af366004615af4565b610c21565b6102db7f5550444154455f55494649454c44444546494e4954494f4e535f524f4c45000081565b6040519081526020015b60405180910390f35b6102f6610fc6565b6040516102e59291906160b1565b6103176103123660046158a0565b6115f8565b6040516102e59291906161fb565b6102db774352454154455f53544154454d414348494e455f524f4c4560401b81565b61028c610355366004615af4565b611c9b565b61028c610368366004615af4565b611f46565b61038161037b3660046158a0565b50600090565b6040516001600160e01b031990911681526020016102e5565b6103a26122f3565b6040516102e59190616167565b6000546103c2906001600160a01b031681565b6040516001600160a01b0390911681526020016102e5565b6102db6103e83660046158a0565b612385565b6104006103fb3660046158a0565b6123a6565b6040516102e5919061605c565b61028c61041b3660046158fd565b6128a4565b6d141050d2d051d157d313d051115160921b6102db565b61028c610445366004615c00565b6128bb565b6104006104583660046158a0565b50606090565b61047161046c3660046158a0565b612c6a565b6040516102e59190616018565b61028c61048c366004615af4565b612ec3565b61047161322f565b61028c6104a7366004615a2a565b613286565b6104b46135a6565b6040516102e5919061609e565b61047161367f565b61028c6104d73660046158fd565b6136d5565b61028c6104ea366004615938565b613752565b6104716139cc565b6103a2613a22565b61028c61050d366004615af4565b613ab0565b6102db7f5550475241444541424c455f52454749535452595f544152474554000000000081565b61028c610547366004615af4565b613e5d565b61028c61055a366004615af4565b6141a0565b61047161056d3660046158a0565b614504565b6102db7346494e4954455f53544154455f4d414348494e4560601b81565b61028c61059e366004615b68565b61487d565b6102db6105b13660046158a0565b614b48565b6001546102db565b600a546103c2906001600160a01b031681565b6103a2614b58565b61028c6105e7366004615af4565b614b67565b61028c6105fa3660046158b8565b614de1565b6102db7f5550444154455f49504653434f4e5441494e4552484153485f524f4c4500000081565b61028c610634366004615a09565b614e66565b8360006001828154811061065d57634e487b7160e01b600052603260045260246000fd5b906000526020600020906004020160030154116106955760405162461bcd60e51b815260040161068c9061617a565b60405180910390fd5b600185815481106106b657634e487b7160e01b600052603260045260246000fd5b90600052602060002090600402016001015460006106d3826123a6565b90506000805b825181101561074c576000356001600160e01b0319166001600160e01b03191683828151811061071957634e487b7160e01b600052603260045260246000fd5b60200260200101516001600160e01b031916141561073a576001915061074c565b8061074481616519565b9150506106d9565b508061076a5760405162461bcd60e51b815260040161068c906161b1565b6000600b898154811061078d57634e487b7160e01b600052603260045260246000fd5b90600052602060002090600c0201905060006040518060c001604052806040518060400160405280601381526020017210d21150d2c814d350549510d3d395149050d5606a1b81525081526020018360060180546107ea906164de565b80601f0160208091040260200160405190810160405280929190818152602001828054610816906164de565b80156108635780601f1061083857610100808354040283529160200191610863565b820191906000526020600020905b81548152906001019060200180831161084657829003601f168201915b505050505081526020018a8152602001898152602001888152602001836008015481525090507fa1c4e052233eb5f06af9767cc22e259beb2d73a5bd0a0b64082f72149e7afd8d8a82846005016040516108bf93929190616242565b60405180910390a150505050505050505050565b846000600182815481106108f757634e487b7160e01b600052603260045260246000fd5b906000526020600020906004020160030154116109265760405162461bcd60e51b815260040161068c9061617a565b6001868154811061094757634e487b7160e01b600052603260045260246000fd5b9060005260206000209060040201600101546000610964826123a6565b90506000805b82518110156109dd576000356001600160e01b0319166001600160e01b0319168382815181106109aa57634e487b7160e01b600052603260045260246000fd5b60200260200101516001600160e01b03191614156109cb57600191506109dd565b806109d581616519565b91505061096a565b50806109fb5760405162461bcd60e51b815260040161068c906161b1565b6000600b8a81548110610a1e57634e487b7160e01b600052603260045260246000fd5b6000918252602090912060408051600280825260608201909252600c9093029091019250816020015b6060815260200190600190039081610a475750508051610a71916009840191602090910190615612565b508781600901600081548110610a9757634e487b7160e01b600052603260045260246000fd5b906000526020600020019080519060200190610ab492919061566f565b508681600901600181548110610ada57634e487b7160e01b600052603260045260246000fd5b906000526020600020019080519060200190610af792919061566f565b5060088101869055604080516101008101909152600960c082019081526853454e54204441544160b81b60e08301528152600682018054600092916020830191610b40906164de565b80601f0160208091040260200160405190810160405280929190818152602001828054610b6c906164de565b8015610bb95780601f10610b8e57610100808354040283529160200191610bb9565b820191906000526020600020905b815481529060010190602001808311610b9c57829003601f168201915b505050505081526020018b81526020018a81526020018981526020018881525090507ff9b1f814d9505825bfc794dba6e26aa3d402ef79d4439e87d80edca1a51763828b82604051610c0c929190616229565b60405180910390a15050505050505050505050565b83600060018281548110610c4557634e487b7160e01b600052603260045260246000fd5b90600052602060002090600402016003015411610c745760405162461bcd60e51b815260040161068c9061617a565b60018581548110610c9557634e487b7160e01b600052603260045260246000fd5b9060005260206000209060040201600101546000610cb2826123a6565b90506000805b8251811015610d2b576000356001600160e01b0319166001600160e01b031916838281518110610cf857634e487b7160e01b600052603260045260246000fd5b60200260200101516001600160e01b0319161415610d195760019150610d2b565b80610d2381616519565b915050610cb8565b5080610d495760405162461bcd60e51b815260040161068c906161b1565b6000600b8981548110610d6c57634e487b7160e01b600052603260045260246000fd5b6000918252602090912060408051600280825260608201909252600c9093029091019250816020015b6060815260200190600190039081610d955750508051610dbf916009840191602090910190615612565b508681600901600081548110610de557634e487b7160e01b600052603260045260246000fd5b906000526020600020019080519060200190610e0292919061566f565b508581600901600181548110610e2857634e487b7160e01b600052603260045260246000fd5b906000526020600020019080519060200190610e4592919061566f565b5060408051808201909152600080825260208083018b90526005840180546001808201835591845291909220835160029092020180549092839160ff191690836003811115610ea457634e487b7160e01b600052602160045260246000fd5b0217905550602091820151600190910155604080516101008101909152600b60c082019081526a54524146464943204a414d60a81b60e0830152815260068301805460009383019190610ef6906164de565b80601f0160208091040260200160405190810160405280929190818152602001828054610f22906164de565b8015610f6f5780601f10610f4457610100808354040283529160200191610f6f565b820191906000526020600020905b815481529060010190602001808311610f5257829003601f168201915b505050505081526020018a8152602001898152602001888152602001836008015481525090507fd9c2d6bd6a09a0b87a66f5001eb853ce8a2d90ebf8130910eaa2ce07f144f47a8a826040516108bf929190616229565b6060806001805480602002602001604051908101604052809291908181526020016000905b828210156110c55783829060005260206000209060040201604051806080016040529081600082015481526020016001820154815260200160028201805480602002602001604051908101604052809291908181526020016000905b828210156110a45760008481526020908190206040805160808101825260048602909201805483526001808201548486015260028201546001600160a01b0316928401929092526003015460608301529083529092019101611047565b50505050815260200160038201548152505081526020019060010190610feb565b505050509150600b805480602002602001604051908101604052809291908181526020016000905b828210156115ee57838290600052602060002090600c0201604051806101c0016040529081600082018054611121906164de565b80601f016020809104026020016040519081016040528092919081815260200182805461114d906164de565b801561119a5780601f1061116f5761010080835404028352916020019161119a565b820191906000526020600020905b81548152906001019060200180831161117d57829003601f168201915b505050505081526020016001820180546111b3906164de565b80601f01602080910402602001604051908101604052809291908181526020018280546111df906164de565b801561122c5780601f106112015761010080835404028352916020019161122c565b820191906000526020600020905b81548152906001019060200180831161120f57829003601f168201915b50505050508152602001600282018054611245906164de565b80601f0160208091040260200160405190810160405280929190818152602001828054611271906164de565b80156112be5780601f10611293576101008083540402835291602001916112be565b820191906000526020600020905b8154815290600101906020018083116112a157829003601f168201915b5050509183525050600382015460ff808216151560208085019190915261010083048216151560408086019190915262010000909304909116151560608401526004840154608084015260058401805483518184028101840190945280845260a090940193909160009084015b828210156113af5760008481526020902060408051808201909152600284029091018054829060ff16600381111561137357634e487b7160e01b600052602160045260246000fd5b600381111561139257634e487b7160e01b600052602160045260246000fd5b81526020016001820154815250508152602001906001019061132b565b5050505081526020016006820180546113c7906164de565b80601f01602080910402602001604051908101604052809291908181526020018280546113f3906164de565b80156114405780601f1061141557610100808354040283529160200191611440565b820191906000526020600020905b81548152906001019060200180831161142357829003601f168201915b50505050508152602001600782015481526020016008820154815260200160098201805480602002602001604051908101604052809291908181526020016000905b8282101561152e5783829060005260206000200180546114a1906164de565b80601f01602080910402602001604051908101604052809291908181526020018280546114cd906164de565b801561151a5780601f106114ef5761010080835404028352916020019161151a565b820191906000526020600020905b8154815290600101906020018083116114fd57829003601f168201915b505050505081526020019060010190611482565b50505090825250600a8201546001600160a01b03166020820152600b8201805460409092019161155d906164de565b80601f0160208091040260200160405190810160405280929190818152602001828054611589906164de565b80156115d65780601f106115ab576101008083540402835291602001916115d6565b820191906000526020600020905b8154815290600101906020018083116115b957829003601f168201915b505050505081525050815260200190600101906110ed565b5050505090509091565b6116266040518060800160405280600081526020016000801916815260200160608152602001600081525090565b6116a7604051806101c0016040528060608152602001606081526020016060815260200160001515815260200160001515815260200160001515815260200160008152602001606081526020016060815260200160008152602001600081526020016060815260200160006001600160a01b03168152602001606081525090565b600183815481106116c857634e487b7160e01b600052603260045260246000fd5b9060005260206000209060040201604051806080016040529081600082015481526020016001820154815260200160028201805480602002602001604051908101604052809291908181526020016000905b828210156117775760008481526020908190206040805160808101825260048602909201805483526001808201548486015260028201546001600160a01b031692840192909252600301546060830152908352909201910161171a565b5050505081526020016003820154815250509150600b83815481106117ac57634e487b7160e01b600052603260045260246000fd5b90600052602060002090600c0201604051806101c00160405290816000820180546117d6906164de565b80601f0160208091040260200160405190810160405280929190818152602001828054611802906164de565b801561184f5780601f106118245761010080835404028352916020019161184f565b820191906000526020600020905b81548152906001019060200180831161183257829003601f168201915b50505050508152602001600182018054611868906164de565b80601f0160208091040260200160405190810160405280929190818152602001828054611894906164de565b80156118e15780601f106118b6576101008083540402835291602001916118e1565b820191906000526020600020905b8154815290600101906020018083116118c457829003601f168201915b505050505081526020016002820180546118fa906164de565b80601f0160208091040260200160405190810160405280929190818152602001828054611926906164de565b80156119735780601f1061194857610100808354040283529160200191611973565b820191906000526020600020905b81548152906001019060200180831161195657829003601f168201915b5050509183525050600382015460ff808216151560208085019190915261010083048216151560408086019190915262010000909304909116151560608401526004840154608084015260058401805483518184028101840190945280845260a090940193909160009084015b82821015611a645760008481526020902060408051808201909152600284029091018054829060ff166003811115611a2857634e487b7160e01b600052602160045260246000fd5b6003811115611a4757634e487b7160e01b600052602160045260246000fd5b8152602001600182015481525050815260200190600101906119e0565b505050508152602001600682018054611a7c906164de565b80601f0160208091040260200160405190810160405280929190818152602001828054611aa8906164de565b8015611af55780601f10611aca57610100808354040283529160200191611af5565b820191906000526020600020905b815481529060010190602001808311611ad857829003601f168201915b50505050508152602001600782015481526020016008820154815260200160098201805480602002602001604051908101604052809291908181526020016000905b82821015611be3578382906000526020600020018054611b56906164de565b80601f0160208091040260200160405190810160405280929190818152602001828054611b82906164de565b8015611bcf5780601f10611ba457610100808354040283529160200191611bcf565b820191906000526020600020905b815481529060010190602001808311611bb257829003601f168201915b505050505081526020019060010190611b37565b50505090825250600a8201546001600160a01b03166020820152600b82018054604090920191611c12906164de565b80601f0160208091040260200160405190810160405280929190818152602001828054611c3e906164de565b8015611c8b5780601f10611c6057610100808354040283529160200191611c8b565b820191906000526020600020905b815481529060010190602001808311611c6e57829003601f168201915b5050505050815250509050915091565b83600060018281548110611cbf57634e487b7160e01b600052603260045260246000fd5b90600052602060002090600402016003015411611cee5760405162461bcd60e51b815260040161068c9061617a565b60018581548110611d0f57634e487b7160e01b600052603260045260246000fd5b9060005260206000209060040201600101546000611d2c826123a6565b90506000805b8251811015611da5576000356001600160e01b0319166001600160e01b031916838281518110611d7257634e487b7160e01b600052603260045260246000fd5b60200260200101516001600160e01b0319161415611d935760019150611da5565b80611d9d81616519565b915050611d32565b5080611dc35760405162461bcd60e51b815260040161068c906161b1565b6000600b8981548110611de657634e487b7160e01b600052603260045260246000fd5b90600052602060002090600c0201905060006040518060c001604052806040518060400160405280601281526020017120a92924ab22a2102a279022a7222aa9a2a960711b8152508152602001836006018054611e42906164de565b80601f0160208091040260200160405190810160405280929190818152602001828054611e6e906164de565b8015611ebb5780601f10611e9057610100808354040283529160200191611ebb565b820191906000526020600020905b815481529060010190602001808311611e9e57829003601f168201915b505050505081526020018a8152602001898152602001888152602001836008015481525090507f98542346dcbcbee177cb0ba7dab9a5469fba0cf0a083693f932ac38290caed3f8a82604051611f12929190616229565b60405180910390a1611f3a8a7220a92924ab22a22faa27afa2a7222faaa9a2a960691b614e66565b50505050505050505050565b83600060018281548110611f6a57634e487b7160e01b600052603260045260246000fd5b90600052602060002090600402016003015411611f995760405162461bcd60e51b815260040161068c9061617a565b60018581548110611fba57634e487b7160e01b600052603260045260246000fd5b9060005260206000209060040201600101546000611fd7826123a6565b90506000805b8251811015612050576000356001600160e01b0319166001600160e01b03191683828151811061201d57634e487b7160e01b600052603260045260246000fd5b60200260200101516001600160e01b031916141561203e5760019150612050565b8061204881616519565b915050611fdd565b508061206e5760405162461bcd60e51b815260040161068c906161b1565b6000600b898154811061209157634e487b7160e01b600052603260045260246000fd5b6000918252602090912060408051600280825260608201909252600c9093029091019250816020015b60608152602001906001900390816120ba57505080516120e4916009840191602090910190615612565b50868160090160008154811061210a57634e487b7160e01b600052603260045260246000fd5b90600052602060002001908051906020019061212792919061566f565b50858160090160018154811061214d57634e487b7160e01b600052603260045260246000fd5b90600052602060002001908051906020019061216a92919061566f565b5060408051808201909152600380825260208083018b9052600584018054600180820183556000928352929091208451600290920201805490939192849260ff199092169184908111156121ce57634e487b7160e01b600052602160045260246000fd5b0217905550602091820151600190910155604080516101008101909152600e60c082019081526d24aa1026a0a6232aa721aa24a7a760911b60e0830152815260068301805460009383019190612223906164de565b80601f016020809104026020016040519081016040528092919081815260200182805461224f906164de565b801561229c5780601f106122715761010080835404028352916020019161229c565b820191906000526020600020905b81548152906001019060200180831161227f57829003601f168201915b505050505081526020018a8152602001898152602001888152602001836008015481525090507f4b7b9fa06f3f709d746d20618e26cbebff0692a0ca086f6cc1438538875cb7648a826040516108bf929190616229565b606060068054612302906164de565b80601f016020809104026020016040519081016040528092919081815260200182805461232e906164de565b801561237b5780601f106123505761010080835404028352916020019161237b565b820191906000526020600020905b81548152906001019060200180831161235e57829003601f168201915b5050505050905090565b6007818154811061239557600080fd5b600091825260209091200154905081565b6060806d141050d2d051d157d313d051115160921b8314156124b05760408051600380825260808201909252906020820160608036833701905050905063af49c6ff60e01b8160008151811061240c57634e487b7160e01b600052603260045260246000fd5b6001600160e01b031990921660209283029190910190910152805163583c23d560e11b908290600190811061245157634e487b7160e01b600052603260045260246000fd5b6001600160e01b0319909216602092830291909101909101528051637f849c8560e01b908290600290811061249657634e487b7160e01b600052603260045260246000fd5b6001600160e01b0319909216602092830291909101909101525b71141050d2d051d157d25397d514905394d25560721b83141561268a5760408051600680825260e08201909252906020820160c0803683370190505090506399cb8c1360e01b8160008151811061251757634e487b7160e01b600052603260045260246000fd5b6001600160e01b03199092166020928302919091019091015280516317be994560e21b908290600190811061255c57634e487b7160e01b600052603260045260246000fd5b6001600160e01b0319909216602092830291909101909101528051631d9cf1bd60e01b90829060029081106125a157634e487b7160e01b600052603260045260246000fd5b6001600160e01b03199092166020928302919091019091015280516302484c5b60e31b90829060039081106125e657634e487b7160e01b600052603260045260246000fd5b6001600160e01b0319909216602092830291909101909101528051630f7599b360e31b908290600490811061262b57634e487b7160e01b600052603260045260246000fd5b6001600160e01b0319909216602092830291909101909101528051633b5d990760e01b908290600590811061267057634e487b7160e01b600052603260045260246000fd5b6001600160e01b0319909216602092830291909101909101525b73415252495645445f544f5f57415245484f55534560601b83141561275157604080516002808252606082018352909160208301908036833701905050905063d473099b60e01b816000815181106126f257634e487b7160e01b600052603260045260246000fd5b6001600160e01b0319909216602092830291909101909101528051633d831ddd60e01b908290600190811061273757634e487b7160e01b600052603260045260246000fd5b6001600160e01b0319909216602092830291909101909101525b762820a1a5a0a3a2afa1a420a723a2a22fa1a0a92924a2a960491b83141561281b57604080516002808252606082018352909160208301908036833701905050905063f262cb9860e01b816000815181106127bc57634e487b7160e01b600052603260045260246000fd5b6001600160e01b0319909216602092830291909101909101528051633d831ddd60e01b908290600190811061280157634e487b7160e01b600052603260045260246000fd5b6001600160e01b0319909216602092830291909101909101525b7220a92924ab22a22faa27afa2a7222faaa9a2a960691b83141561289c5760408051600180825281830190925290602080830190803683370190505090506307d01da660e01b8160008151811061288257634e487b7160e01b600052603260045260246000fd5b6001600160e01b0319909216602092830291909101909101525b90505b919050565b80516128b790600290602084019061566f565b5050565b846000600182815481106128df57634e487b7160e01b600052603260045260246000fd5b9060005260206000209060040201600301541161290e5760405162461bcd60e51b815260040161068c9061617a565b6001868154811061292f57634e487b7160e01b600052603260045260246000fd5b906000526020600020906004020160010154600061294c826123a6565b90506000805b82518110156129c5576000356001600160e01b0319166001600160e01b03191683828151811061299257634e487b7160e01b600052603260045260246000fd5b60200260200101516001600160e01b03191614156129b357600191506129c5565b806129bd81616519565b915050612952565b50806129e35760405162461bcd60e51b815260040161068c906161b1565b6000600b8a81548110612a0657634e487b7160e01b600052603260045260246000fd5b6000918252602090912060408051600280825260608201909252600c9093029091019250816020015b6060815260200190600190039081612a2f5750508051612a59916009840191602090910190615612565b508781600901600081548110612a7f57634e487b7160e01b600052603260045260246000fd5b906000526020600020019080519060200190612a9c92919061566f565b508681600901600181548110612ac257634e487b7160e01b600052603260045260246000fd5b906000526020600020019080519060200190612adf92919061566f565b5060408051808201909152600180825260208083018c905260058401805480840182556000918252919020835160029092020180549092839160ff191690836003811115612b3d57634e487b7160e01b600052602160045260246000fd5b021790555060209182015160019091015560088201879055604080516101008101909152601360c082019081527221a7a7a624a7239026a0a6232aa721aa24a7a760691b60e0830152815260068301805460009383019190612b9e906164de565b80601f0160208091040260200160405190810160405280929190818152602001828054612bca906164de565b8015612c175780601f10612bec57610100808354040283529160200191612c17565b820191906000526020600020905b815481529060010190602001808311612bfa57829003601f168201915b505050505081526020018b81526020018a81526020018981526020018881525090507fb94e37f4cff4a70291073802b04bfdddc587f95e0556d4f89906b389c30057c08b82604051610c0c929190616229565b6060806d141050d2d051d157d313d051115160921b831415612cea57604080516001808252818301909252906020808301908036833701905050905071141050d2d051d157d25397d514905394d25560721b81600081518110612cdd57634e487b7160e01b600052603260045260246000fd5b6020026020010181815250505b71141050d2d051d157d25397d514905394d25560721b831415612db157604080516002808252606082018352909160208301908036833701905050905073415252495645445f544f5f57415245484f55534560601b81600081518110612d6057634e487b7160e01b600052603260045260246000fd5b6020026020010181815250507220a92924ab22a22faa27afa2a7222faaa9a2a960691b81600181518110612da457634e487b7160e01b600052603260045260246000fd5b6020026020010181815250505b73415252495645445f544f5f57415245484f55534560601b831415612e39576040805160018082528183019092529060208083019080368337019050509050762820a1a5a0a3a2afa1a420a723a2a22fa1a0a92924a2a960491b81600081518110612e2c57634e487b7160e01b600052603260045260246000fd5b6020026020010181815250505b762820a1a5a0a3a2afa1a420a723a2a22fa1a0a92924a2a960491b83141561289c57604080516001808252818301909252906020808301908036833701905050905071141050d2d051d157d25397d514905394d25560721b81600081518110612eb257634e487b7160e01b600052603260045260246000fd5b602090810291909101015292915050565b83600060018281548110612ee757634e487b7160e01b600052603260045260246000fd5b90600052602060002090600402016003015411612f165760405162461bcd60e51b815260040161068c9061617a565b60018581548110612f3757634e487b7160e01b600052603260045260246000fd5b9060005260206000209060040201600101546000612f54826123a6565b90506000805b8251811015612fcd576000356001600160e01b0319166001600160e01b031916838281518110612f9a57634e487b7160e01b600052603260045260246000fd5b60200260200101516001600160e01b0319161415612fbb5760019150612fcd565b80612fc581616519565b915050612f5a565b5080612feb5760405162461bcd60e51b815260040161068c906161b1565b6000600b898154811061300e57634e487b7160e01b600052603260045260246000fd5b6000918252602090912060408051600280825260608201909252600c9093029091019250816020015b60608152602001906001900390816130375750508051613061916009840191602090910190615612565b50868160090160008154811061308757634e487b7160e01b600052603260045260246000fd5b9060005260206000200190805190602001906130a492919061566f565b5085816009016001815481106130ca57634e487b7160e01b600052603260045260246000fd5b9060005260206000200190805190602001906130e792919061566f565b5060006040518060c00160405280604051806040016040528060148152602001734152524956454420544f2057415245484f55534560601b8152508152602001836006018054613136906164de565b80601f0160208091040260200160405190810160405280929190818152602001828054613162906164de565b80156131af5780601f10613184576101008083540402835291602001916131af565b820191906000526020600020905b81548152906001019060200180831161319257829003601f168201915b505050505081526020018a8152602001898152602001888152602001836008015481525090507f5939c91890b3a006ee8a7320a09612f92be8215c94966446482211ffa43178d68a82604051613206929190616229565b60405180910390a1611f3a8a73415252495645445f544f5f57415245484f55534560601b614e66565b6060600880548060200260200160405190810160405280929190818152602001828054801561237b57602002820191906000526020600020905b815481526020019060010190808311613269575050505050905090565b876000600182815481106132aa57634e487b7160e01b600052603260045260246000fd5b906000526020600020906004020160030154116132d95760405162461bcd60e51b815260040161068c9061617a565b600189815481106132fa57634e487b7160e01b600052603260045260246000fd5b9060005260206000209060040201600101546000613317826123a6565b90506000805b8251811015613390576000356001600160e01b0319166001600160e01b03191683828151811061335d57634e487b7160e01b600052603260045260246000fd5b60200260200101516001600160e01b031916141561337e5760019150613390565b8061338881616519565b91505061331d565b50806133ae5760405162461bcd60e51b815260040161068c906161b1565b8a600b8d815481106133d057634e487b7160e01b600052603260045260246000fd5b90600052602060002090600c020160010190805190602001906133f492919061566f565b5089600b8d8154811061341757634e487b7160e01b600052603260045260246000fd5b90600052602060002090600c0201600201908051906020019061343b92919061566f565b5088600b8d8154811061345e57634e487b7160e01b600052603260045260246000fd5b90600052602060002090600c020160030160006101000a81548160ff02191690831515021790555087600b8d815481106134a857634e487b7160e01b600052603260045260246000fd5b90600052602060002090600c020160030160016101000a81548160ff02191690831515021790555086600b8d815481106134f257634e487b7160e01b600052603260045260246000fd5b90600052602060002090600c020160030160026101000a81548160ff02191690831515021790555085600b8d8154811061353c57634e487b7160e01b600052603260045260246000fd5b90600052602060002090600c02016004018190555084600b8d8154811061357357634e487b7160e01b600052603260045260246000fd5b90600052602060002090600c0201600b01908051906020019061359792919061566f565b50505050505050505050505050565b6060600c805480602002602001604051908101604052809291908181526020016000905b828210156136765783829060005260206000200180546135e9906164de565b80601f0160208091040260200160405190810160405280929190818152602001828054613615906164de565b80156136625780601f1061363757610100808354040283529160200191613662565b820191906000526020600020905b81548152906001019060200180831161364557829003601f168201915b5050505050815260200190600101906135ca565b50505050905090565b6060600980548060200260200160405190810160405280929190818152602001828054801561237b5760200282019190600052602060002090815481526020019060010190808311613269575050505050905090565b7f5550444154455f55494649454c44444546494e4954494f4e535f524f4c4500006040518060600160405280602b8152602001616585602b91396137193383615107565b81906137385760405162461bcd60e51b815260040161068c9190616167565b50825161374c90600690602086019061566f565b50505050565b774352454154455f53544154454d414348494e455f524f4c4560401b6040518060600160405280602581526020016165b0602591396137913383615107565b81906137b05760405162461bcd60e51b815260040161068c9190616167565b50600180548101808255600082815291906137cc908290616478565b815481106137ea57634e487b7160e01b600052603260045260246000fd5b906000526020600020906004020190506138126d141050d2d051d157d313d051115160921b90565b600180830191909155426003830155805461382d9190616478565b8155600b805460019081018083556000838152929161384b91616478565b8154811061386957634e487b7160e01b600052603260045260246000fd5b90600052602060002090600c020190508b81600101908051906020019061389192919061566f565b508a516138a790600283019060208e019061566f565b5060038101805461ffff19168b151561ff001916176101008b1515021762ff00001916620100008a1515021790556004810187905560408051808201909152600b8082526a43617272696572204f6e6560a81b602090920191825261391091600684019161566f565b50855161392690600b830190602089019061566f565b50600a810180546001600160a01b0319166001600160a01b038716179055600b5461395c9061395790600190616478565b6151ac565b805161396f91839160209091019061566f565b50600c80546001908101808355600083905283929161398d91616478565b815481106139ab57634e487b7160e01b600052603260045260246000fd5b906000526020600020019080546139c1906164de565b6135979291906156ef565b6060600780548060200260200160405190810160405280929190818152602001828054801561237b5760200282019190600052602060002090815481526020019060010190808311613269575050505050905090565b60028054613a2f906164de565b80601f0160208091040260200160405190810160405280929190818152602001828054613a5b906164de565b8015613aa85780601f10613a7d57610100808354040283529160200191613aa8565b820191906000526020600020905b815481529060010190602001808311613a8b57829003601f168201915b505050505081565b83600060018281548110613ad457634e487b7160e01b600052603260045260246000fd5b90600052602060002090600402016003015411613b035760405162461bcd60e51b815260040161068c9061617a565b60018581548110613b2457634e487b7160e01b600052603260045260246000fd5b9060005260206000209060040201600101546000613b41826123a6565b90506000805b8251811015613bba576000356001600160e01b0319166001600160e01b031916838281518110613b8757634e487b7160e01b600052603260045260246000fd5b60200260200101516001600160e01b0319161415613ba85760019150613bba565b80613bb281616519565b915050613b47565b5080613bd85760405162461bcd60e51b815260040161068c906161b1565b6000600b8981548110613bfb57634e487b7160e01b600052603260045260246000fd5b6000918252602090912060408051600280825260608201909252600c9093029091019250816020015b6060815260200190600190039081613c245750508051613c4e916009840191602090910190615612565b508681600901600081548110613c7457634e487b7160e01b600052603260045260246000fd5b906000526020600020019080519060200190613c9192919061566f565b508581600901600181548110613cb757634e487b7160e01b600052603260045260246000fd5b906000526020600020019080519060200190613cd492919061566f565b5060408051808201909152600280825260208083018b9052600584018054600180820183556000928352929091208451919093029092018054909291839160ff191690836003811115613d3757634e487b7160e01b600052602160045260246000fd5b0217905550602091820151600190910155604080516101008101909152600f60c082019081526e5041434b4147452054494c54494e4760881b60e0830152815260068301805460009383019190613d8d906164de565b80601f0160208091040260200160405190810160405280929190818152602001828054613db9906164de565b8015613e065780601f10613ddb57610100808354040283529160200191613e06565b820191906000526020600020905b815481529060010190602001808311613de957829003601f168201915b505050505081526020018a8152602001898152602001888152602001836008015481525090507fb6f1aadc9841dc18433ac4757ba43b16f2fcf2c93c7fc5d1d010b7238376d7ba8a826040516108bf929190616229565b83600060018281548110613e8157634e487b7160e01b600052603260045260246000fd5b90600052602060002090600402016003015411613eb05760405162461bcd60e51b815260040161068c9061617a565b60018581548110613ed157634e487b7160e01b600052603260045260246000fd5b9060005260206000209060040201600101546000613eee826123a6565b90506000805b8251811015613f67576000356001600160e01b0319166001600160e01b031916838281518110613f3457634e487b7160e01b600052603260045260246000fd5b60200260200101516001600160e01b0319161415613f555760019150613f67565b80613f5f81616519565b915050613ef4565b5080613f855760405162461bcd60e51b815260040161068c906161b1565b6000600b8981548110613fa857634e487b7160e01b600052603260045260246000fd5b600091825260209091206007600c9092020190810189905560408051600280825260608201909252919250816020015b6060815260200190600190039081613fd85750508051614002916009840191602090910190615612565b50868160090160008154811061402857634e487b7160e01b600052603260045260246000fd5b90600052602060002001908051906020019061404592919061566f565b50858160090160018154811061406b57634e487b7160e01b600052603260045260246000fd5b90600052602060002001908051906020019061408892919061566f565b5060006040518060c001604052806040518060400160405280600d81526020016c5354415254204c4f4144494e4760981b81525081526020018360060180546140d0906164de565b80601f01602080910402602001604051908101604052809291908181526020018280546140fc906164de565b80156141495780601f1061411e57610100808354040283529160200191614149565b820191906000526020600020905b81548152906001019060200180831161412c57829003601f168201915b505050505081526020018a8152602001898152602001888152602001836008015481525090507fc399e1f841e0db43694b0bd9f4aa0d75ac9f97d8acc426b9c4e2f888705c54498a826040516108bf929190616229565b836000600182815481106141c457634e487b7160e01b600052603260045260246000fd5b906000526020600020906004020160030154116141f35760405162461bcd60e51b815260040161068c9061617a565b6001858154811061421457634e487b7160e01b600052603260045260246000fd5b9060005260206000209060040201600101546000614231826123a6565b90506000805b82518110156142aa576000356001600160e01b0319166001600160e01b03191683828151811061427757634e487b7160e01b600052603260045260246000fd5b60200260200101516001600160e01b031916141561429857600191506142aa565b806142a281616519565b915050614237565b50806142c85760405162461bcd60e51b815260040161068c906161b1565b6000600b89815481106142eb57634e487b7160e01b600052603260045260246000fd5b6000918252602090912060408051600280825260608201909252600c9093029091019250816020015b6060815260200190600190039081614314575050805161433e916009840191602090910190615612565b50868160090160008154811061436457634e487b7160e01b600052603260045260246000fd5b90600052602060002001908051906020019061438192919061566f565b5085816009016001815481106143a757634e487b7160e01b600052603260045260246000fd5b9060005260206000200190805190602001906143c492919061566f565b5060006040518060c001604052806040518060400160405280600e81526020016d46494e495348204c4f4144494e4760901b815250815260200183600601805461440d906164de565b80601f0160208091040260200160405190810160405280929190818152602001828054614439906164de565b80156144865780601f1061445b57610100808354040283529160200191614486565b820191906000526020600020905b81548152906001019060200180831161446957829003601f168201915b505050505081526020018a8152602001898152602001888152602001836008015481525090507ffd773326819f64de58c7ee0035cee0862dc4ae1b5e21dcaf9dc7fdadf6c849ce8a826040516144dd929190616229565b60405180910390a1611f3a8a71141050d2d051d157d25397d514905394d25560721b614e66565b6060806d141050d2d051d157d313d051115160921b8314156145b6576040805160028082526060820183529091602083019080368337019050509050692927a622afa0a226a4a760b11b8160008151811061456f57634e487b7160e01b600052603260045260246000fd5b602002602001018181525050682927a622afaaa9a2a960b91b816001815181106145a957634e487b7160e01b600052603260045260246000fd5b6020026020010181815250505b71141050d2d051d157d25397d514905394d25560721b831415614669576040805160028082526060820183529091602083019080368337019050509050692927a622afa0a226a4a760b11b8160008151811061462257634e487b7160e01b600052603260045260246000fd5b602002602001018181525050682927a622afaaa9a2a960b91b8160018151811061465c57634e487b7160e01b600052603260045260246000fd5b6020026020010181815250505b73415252495645445f544f5f57415245484f55534560601b83141561471e576040805160028082526060820183529091602083019080368337019050509050692927a622afa0a226a4a760b11b816000815181106146d757634e487b7160e01b600052603260045260246000fd5b602002602001018181525050682927a622afaaa9a2a960b91b8160018151811061471157634e487b7160e01b600052603260045260246000fd5b6020026020010181815250505b762820a1a5a0a3a2afa1a420a723a2a22fa1a0a92924a2a960491b8314156147d6576040805160028082526060820183529091602083019080368337019050509050692927a622afa0a226a4a760b11b8160008151811061478f57634e487b7160e01b600052603260045260246000fd5b602002602001018181525050682927a622afaaa9a2a960b91b816001815181106147c957634e487b7160e01b600052603260045260246000fd5b6020026020010181815250505b7220a92924ab22a22faa27afa2a7222faaa9a2a960691b83141561289c576040805160028082526060820183529091602083019080368337019050509050692927a622afa0a226a4a760b11b8160008151811061484357634e487b7160e01b600052603260045260246000fd5b602002602001018181525050682927a622afaaa9a2a960b91b81600181518110612eb257634e487b7160e01b600052603260045260246000fd5b846000600182815481106148a157634e487b7160e01b600052603260045260246000fd5b906000526020600020906004020160030154116148d05760405162461bcd60e51b815260040161068c9061617a565b600186815481106148f157634e487b7160e01b600052603260045260246000fd5b906000526020600020906004020160010154600061490e826123a6565b90506000805b8251811015614987576000356001600160e01b0319166001600160e01b03191683828151811061495457634e487b7160e01b600052603260045260246000fd5b60200260200101516001600160e01b03191614156149755760019150614987565b8061497f81616519565b915050614914565b50806149a55760405162461bcd60e51b815260040161068c906161b1565b6000600b8a815481106149c857634e487b7160e01b600052603260045260246000fd5b90600052602060002090600c02019050858160060190805190602001906149f092919061566f565b5060006040518060c001604052806040518060400160405280601481526020017329aa20a92a1021a420a723a29021a0a92924a2a960611b8152508152602001836006018054614a3f906164de565b80601f0160208091040260200160405190810160405280929190818152602001828054614a6b906164de565b8015614ab85780601f10614a8d57610100808354040283529160200191614ab8565b820191906000526020600020905b815481529060010190602001808311614a9b57829003601f168201915b505050505081526020018b81526020018a8152602001898152602001836008015481525090507f13d84a751852a4269e30951760026acc67689c3b7102c649b25f591397acd5df8b82604051614b0f929190616229565b60405180910390a1614b3b8b762820a1a5a0a3a2afa1a420a723a2a22fa1a0a92924a2a960491b614e66565b5050505050505050505050565b6008818154811061239557600080fd5b606060028054612302906164de565b83600060018281548110614b8b57634e487b7160e01b600052603260045260246000fd5b90600052602060002090600402016003015411614bba5760405162461bcd60e51b815260040161068c9061617a565b60018581548110614bdb57634e487b7160e01b600052603260045260246000fd5b9060005260206000209060040201600101546000614bf8826123a6565b90506000805b8251811015614c71576000356001600160e01b0319166001600160e01b031916838281518110614c3e57634e487b7160e01b600052603260045260246000fd5b60200260200101516001600160e01b0319161415614c5f5760019150614c71565b80614c6981616519565b915050614bfe565b5080614c8f5760405162461bcd60e51b815260040161068c906161b1565b6000600b8981548110614cb257634e487b7160e01b600052603260045260246000fd5b90600052602060002090600c0201905060006040518060c00160405280604051806040016040528060158152602001742324a724a9a41021a420a723a29021a0a92924a2a960591b8152508152602001836006018054614d11906164de565b80601f0160208091040260200160405190810160405280929190818152602001828054614d3d906164de565b8015614d8a5780601f10614d5f57610100808354040283529160200191614d8a565b820191906000526020600020905b815481529060010190602001808311614d6d57829003601f168201915b505050505081526020018a8152602001898152602001888152602001836008015481525090507f62c1b1d4335d921203cb31fa3118165ee9f35b114c85f2abc465feb2aea795858a826040516144dd929190616229565b60008281526004602052604090205460ff16614e42576003805460018181019092557fc2575a0e9e593c00f959f8c92f12db2869c3395a3b0502d05e2516446f71f85b018390556000838152600460205260409020805460ff191690911790555b60008281526005602090815260409091208251614e619284019061566f565b505050565b8181614ea460018381548110614e8c57634e487b7160e01b600052603260045260246000fd5b906000526020600020906004020160010154826151e7565b614ee35760405162461bcd60e51b815260206004820152601060248201526f696e76616c696420746f20737461746560801b604482015260640161068c565b614eec816152a0565b614f385760405162461bcd60e51b815260206004820152601f60248201527f7472616e736974696f6e20746f207374617465206e6f7420616c6c6f77656400604482015260640161068c565b614f758260018481548110614f5d57634e487b7160e01b600052603260045260246000fd5b90600052602060002090600402016001015483615325565b600060018581548110614f9857634e487b7160e01b600052603260045260246000fd5b6000918252602082206004919091020160018101805490879055909250906060905b815181101561500b57614ff9888489858581518110614fe957634e487b7160e01b600052603260045260246000fd5b602002602001015163ffffffff16565b8061500381616519565b915050614fba565b506001878154811061502d57634e487b7160e01b600052603260045260246000fd5b6000918252602080832060408051608080820183528882528185018d81523383850181815242606080870191825260049a8b029098016002908101805460018082018355918e529c8b902097519c909b029096019a8b559251988a0198909855965192880180546001600160a01b0319166001600160a01b0390941693909317909255905160039096019590955580518c8152928301939093529181018590529081018890527fda0ea013b184628ef221c26d3ecdde1c5bbade441ed06a851b724a7ace03c274910160405180910390a150505050505050565b600080546001600160a01b031615806151a55750600054604051630dace25b60e31b81526001600160a01b0385811660048301523060248301526044820185905290911690636d6712d89060640160206040518083038186803b15801561516d57600080fd5b505afa158015615181573d6000803e3d6000fd5b505050506040513d601f19601f820116820180604052508101906151a59190615884565b9392505050565b60606151b730615372565b6151c0836154d5565b6040516020016151d1929190615fbd565b6040516020818303038152906040529050919050565b6000806151f384612c6a565b90506000915060005b8151811015615298576040805160208101869052016040516020818303038152906040528051906020012082828151811061524757634e487b7160e01b600052603260045260246000fd5b602002602001015160405160200161526191815260200190565b6040516020818303038152906040528051906020012014156152865760019250615298565b8061529081616519565b9150506151fc565b505092915050565b6000806152ac83614504565b9050600091508051600014156152c157600191505b60005b815181101561531e576152fe338383815181106152f157634e487b7160e01b600052603260045260246000fd5b6020026020010151615107565b1561530c576001925061531e565b8061531681616519565b9150506152c4565b5050919050565b606060005b815181101561536b57615359858585858581518110614fe957634e487b7160e01b600052603260045260246000fd5b8061536381616519565b91505061532a565b5050505050565b60408051602880825260608281019093526000919060208201818036833701905050905060005b60148110156154ce5760006153af826013616478565b6153ba906008616430565b6153c5906002616362565b6153d8906001600160a01b0387166162e6565b60f81b9050600060108260f81c6153ef91906162fa565b60f81b905060008160f81c6010615406919061644f565b8360f81c615414919061648f565b60f81b9050615422826155d2565b8561542e866002616430565b8151811061544c57634e487b7160e01b600052603260045260246000fd5b60200101906001600160f81b031916908160001a90535061546c816155d2565b85615478866002616430565b6154839060016162a9565b815181106154a157634e487b7160e01b600052603260045260246000fd5b60200101906001600160f81b031916908160001a90535050505080806154c690616519565b915050615399565b5092915050565b6060816154fa57506040805180820190915260018152600360fc1b602082015261289f565b8160005b811561551257600101600a820491506154fe565b8360008267ffffffffffffffff81111561553c57634e487b7160e01b600052604160045260246000fd5b6040519080825280601f01601f191660200182016040528015615566576020820181803683370190505b50905060001983015b82156155c857600a830660300160f81b828280600190039350815181106155a657634e487b7160e01b600052603260045260246000fd5b60200101906001600160f81b031916908160001a905350600a8304925061556f565b5095945050505050565b6000600a60f883901c10156155fa576155f060f883901c60306162c1565b60f81b905061289f565b61560960f883901c60576162c1565b60f81b92915050565b82805482825590600052602060002090810192821561565f579160200282015b8281111561565f578251805161564f91849160209091019061566f565b5091602001919060010190615632565b5061566b92915061576a565b5090565b82805461567b906164de565b90600052602060002090601f01602090048101928261569d57600085556156e3565b82601f106156b657805160ff19168380011785556156e3565b828001600101855582156156e3579182015b828111156156e35782518255916020019190600101906156c8565b5061566b929150615787565b8280546156fb906164de565b90600052602060002090601f01602090048101928261571d57600085556156e3565b82601f1061572e57805485556156e3565b828001600101855582156156e357600052602060002091601f016020900482015b828111156156e357825482559160010191906001019061574f565b8082111561566b57600061577e828261579c565b5060010161576a565b5b8082111561566b5760008155600101615788565b5080546157a8906164de565b6000825580601f106157ba57506157d8565b601f0160209004906000526020600020908101906157d89190615787565b50565b80356001600160a01b038116811461289f57600080fd5b803561289f81616576565b600082601f83011261580d578081fd5b813567ffffffffffffffff8082111561582857615828616560565b604051601f8301601f19908116603f0116810190828211818310171561585057615850616560565b81604052838152866020858801011115615868578485fd5b8360208701602083013792830160200193909352509392505050565b600060208284031215615895578081fd5b81516151a581616576565b6000602082840312156158b1578081fd5b5035919050565b600080604083850312156158ca578081fd5b82359150602083013567ffffffffffffffff8111156158e7578182fd5b6158f3858286016157fd565b9150509250929050565b60006020828403121561590e578081fd5b813567ffffffffffffffff811115615924578182fd5b615930848285016157fd565b949350505050565b600080600080600080600080610100898b031215615954578384fd5b883567ffffffffffffffff8082111561596b578586fd5b6159778c838d016157fd565b995060208b013591508082111561598c578586fd5b6159988c838d016157fd565b98506159a660408c016157f2565b97506159b460608c016157f2565b96506159c260808c016157f2565b955060a08b0135945060c08b01359150808211156159de578384fd5b506159eb8b828c016157fd565b9250506159fa60e08a016157db565b90509295985092959890939650565b60008060408385031215615a1b578182fd5b50508035926020909101359150565b600080600080600080600080610100898b031215615a46578384fd5b88359750602089013567ffffffffffffffff80821115615a64578586fd5b615a708c838d016157fd565b985060408b0135915080821115615a85578586fd5b615a918c838d016157fd565b9750615a9f60608c016157f2565b9650615aad60808c016157f2565b9550615abb60a08c016157f2565b945060c08b0135935060e08b0135915080821115615ad7578283fd5b50615ae48b828c016157fd565b9150509295985092959890939650565b60008060008060808587031215615b09578384fd5b8435935060208501359250604085013567ffffffffffffffff80821115615b2e578384fd5b615b3a888389016157fd565b93506060870135915080821115615b4f578283fd5b50615b5c878288016157fd565b91505092959194509250565b600080600080600060a08688031215615b7f578081fd5b8535945060208601359350604086013567ffffffffffffffff80821115615ba4578283fd5b615bb089838a016157fd565b94506060880135915080821115615bc5578283fd5b615bd189838a016157fd565b93506080880135915080821115615be6578283fd5b50615bf3888289016157fd565b9150509295509295909350565b600080600080600060a08688031215615c17578081fd5b8535945060208601359350604086013567ffffffffffffffff80821115615c3c578283fd5b615c4889838a016157fd565b94506060880135915080821115615c5d578283fd5b50615c6a888289016157fd565b95989497509295608001359392505050565b600081518084526020808501808196508360051b81019150828601855b85811015615cc3578284038952615cb1848351615d3e565b98850198935090840190600101615c99565b5091979650505050505050565b6000815180845260208085019450808401835b83811015615d11578151615cf8888251615d1c565b8301518784015260409096019590820190600101615ce3565b509495945050505050565b60048110615d3a57634e487b7160e01b600052602160045260246000fd5b9052565b60008151808452615d568160208601602086016164b2565b601f01601f19169290920160200192915050565b60006101c08251818552615d8082860182615d3e565b91505060208301518482036020860152615d9a8282615d3e565b91505060408301518482036040860152615db48282615d3e565b9150506060830151615dca606086018215159052565b506080830151615dde608086018215159052565b5060a0830151615df260a086018215159052565b5060c083015160c085015260e083015184820360e0860152615e148282615cd0565b9150506101008084015185830382870152615e2f8382615d3e565b925050506101208084015181860152506101408084015181860152506101608084015185830382870152615e638382615c7c565b9250505061018080840151615e82828701826001600160a01b03169052565b50506101a08084015185830382870152615e9c8382615d3e565b9695505050505050565b600060808084018351855260208085015181870152604080860151848289015283815180865260a08a01915084830195508792505b80831015615f20578551805183528581015186840152848101516001600160a01b03168584015260609081015190830152948401946001929092019190860190615edb565b50606088015160608a015280965050505050505092915050565b6000815160c08452615f4f60c0850182615d3e565b905060208301518482036020860152615f688282615d3e565b9150506040830151604085015260608301518482036060860152615f8c8282615d3e565b91505060808301518482036080860152615fa68282615d3e565b91505060a083015160a08501528091505092915050565b6000720c8d2c874c8cadade74e0c2c6d6c2ceca7460f606b1b82528351615feb8160138501602088016164b2565b601d60f91b601391840191820152835161600c8160148401602088016164b2565b01601401949350505050565b6020808252825182820181905260009190848201906040850190845b8181101561605057835183529284019291840191600101616034565b50909695505050505050565b6020808252825182820181905260009190848201906040850190845b818110156160505783516001600160e01b03191683529284019291840191600101616078565b6000602082526151a56020830184615c7c565b6000604082016040835280855180835260608501915060608160051b86010192506020808801855b8381101561610757605f198887030185526160f5868351615ea6565b955093820193908201906001016160d9565b505085840381870152865180855281850193509150600582901b84018101878201865b8481101561615857601f19878403018652616146838351615d6a565b9584019592509083019060010161612a565b50909998505050505050505050565b6000602082526151a56020830184615d3e565b6020808252601c908201527f7374617465206d616368696e6520646f6573206e6f7420657869737400000000604082015260600190565b6020808252602a908201527f746869732066756e6374696f6e206973206e6f7420616c6c6f77656420696e206040820152697468697320737461746560b01b606082015260800190565b60006040825261620e6040830185615ea6565b82810360208401526162208185615d6a565b95945050505050565b6000838252604060208301526159306040830184615f3a565b6000848252602060608184015261625c6060840186615f3a565b838103604085810191909152855480835286855283852092840190855b818110156161585761628f8360ff875416615d1c565b600185810154848801526002909501949284019201616279565b600082198211156162bc576162bc616534565b500190565b600060ff821660ff84168060ff038211156162de576162de616534565b019392505050565b6000826162f5576162f561654a565b500490565b600060ff83168061630d5761630d61654a565b8060ff84160491505092915050565b80825b600180861161632e5750616359565b81870482111561634057616340616534565b8086161561634d57918102915b9490941c93800261631f565b94509492505050565b60006151a5600019848460008261637b575060016151a5565b81616388575060006151a5565b816001811461639e57600281146163a8576163d5565b60019150506151a5565b60ff8411156163b9576163b9616534565b6001841b9150848211156163cf576163cf616534565b506151a5565b5060208310610133831016604e8410600b8410161715616408575081810a8381111561640357616403616534565b6151a5565b616415848484600161631c565b80860482111561642757616427616534565b02949350505050565b600081600019048311821515161561644a5761644a616534565b500290565b600060ff821660ff84168160ff048111821515161561647057616470616534565b029392505050565b60008282101561648a5761648a616534565b500390565b600060ff821660ff8416808210156164a9576164a9616534565b90039392505050565b60005b838110156164cd5781810151838201526020016164b5565b8381111561374c5750506000910152565b600181811c908216806164f257607f821691505b6020821081141561651357634e487b7160e01b600052602260045260246000fd5b50919050565b600060001982141561652d5761652d616534565b5060010190565b634e487b7160e01b600052601160045260246000fd5b634e487b7160e01b600052601260045260246000fd5b634e487b7160e01b600052604160045260246000fd5b80151581146157d857600080fdfe53656e646572206e65656473205550444154455f55494649454c44444546494e4954494f4e535f524f4c4553656e646572206e65656473204352454154455f53544154454d414348494e455f524f4c45a26469706673582212200bb2dac1e51849dbb1308f3db25aca0aa14260c428a99280eff22c2541e5007864736f6c63430008030033",
  "immutableReferences": {},
  "source": "/**\n * Copyright (C) SettleMint NV - All Rights Reserved\n *\n * Use of this file is strictly prohibited without an active license agreement.\n * Distribution of this file, via any medium, is strictly prohibited.\n *\n * For license inquiries, contact hello@settlemint.com\n *\n * SPDX-License-Identifier: UNLICENSED\n */\n\n// Also Rework Roles\n// Duration/Tenperature of an event omitted for simplicity\n// IDEA: A Settings Struct with isMedical, Tilting temperature etc in?\n// Get rid of this hideous code asap\n\npragma solidity ^0.8.0;\n\nimport '../_library//provenance/statemachine/FiniteStateMachine.sol';\nimport '../_library//authentication/Secured.sol';\nimport '../_library//utility/ui/UIFieldDefinitions.sol';\nimport '../_library//utility/metadata/IpfsFieldContainer.sol';\nimport '../_library//utility/metadata/FileFieldContainer.sol';\nimport '../_library//utility/conversions/Converter.sol';\n\n/**\n * @title Package Contract\n */\ncontract Package is FiniteStateMachine, IpfsFieldContainer, FileFieldContainer, UIFieldDefinitions {\n  bytes32 public constant UPGRADEABLE_REGISTRY_TARGET = 'UPGRADEABLE_REGISTRY_TARGET';\n  bytes32 public constant CREATE_STATEMACHINE_ROLE = 'CREATE_STATEMACHINE_ROLE';\n\n  /**\n   * Package Events\n   */\n  // Package Created event\n  event StartLoadingEvent(uint256 fsmIndex, eventInfo info);\n  event FinishLoadingEvent(uint256 fsmIndex, eventInfo info);\n  event StartTransportationEvent(uint256 fsmIndex, eventInfo info); //StateSwitch\n  event SentData(uint256 fsmIndex, eventInfo info);\n  event StartChangedCarrier(uint256 fsmIndex, eventInfo info);\n  event FinishChangedCarrier(uint256 fsmIndex, eventInfo info);\n  event ArrivedToWareHouseEvent(uint256 fsmIndex, eventInfo info);\n  event ArrivedToEndUserEvent(uint256 fsmIndex, eventInfo info);\n\n  event PackageTiltingEvent(uint256 fsmIndex, eventInfo info);\n  event CoolingMalfunctionEvent(uint256 fsmIndex, eventInfo info);\n\n  //Duration todo\n  event TrafficJamEvent(uint256 fsmIndex, eventInfo info);\n  event ItMalfunctionEvent(uint256 fsmIndex, eventInfo info);\n\n  event CheckSmartContractEvent(uint256 fsmIndex, eventInfo info, packageIssue[] issues); //, packageIssue[] issues);\n\n  /**\n   * @dev State Constants -> Possible DelayState?\n   *\n   * STATE_PACKAGE_LOADED = the Package is added, possibly with missing info\n   * STATE_PACKAGE_IN_TRANSIT =\n   * STATE_ARRIVED_TO_WAREHOUS =\n   * STATE_PACKAGE_CHANGED_CAR =\n   * STATE_ARRIVED_TO_END_USER =\n   */\n\n  //Change State names\n  bytes32 private constant STATE_PACKAGE_LOADED = 'PACKAGE_LOADED';\n  bytes32 private constant STATE_PACKAGE_IN_TRANSIT = 'PACKAGE_IN_TRANSIT';\n  bytes32 private constant STATE_ARRIVED_TO_WAREHOUSE = 'ARRIVED_TO_WAREHOUSE';\n  bytes32 private constant STATE_PACKAGE_CHANGED_CARRIER = 'PACKAGE_CHANGED_CARRIER';\n  bytes32 private constant STATE_ARRIVED_TO_END_USER = 'ARRIVED_TO_END_USER';\n\n  /*\n   * Role Constants\n   */\n  bytes32 private constant ROLE_ADMIN = 'ROLE_ADMIN';\n  bytes32 private constant ROLE_USER = 'ROLE_USER';\n\n  /**\n   * Package states\n   */\n  bytes32[] public _allStates = [\n    STATE_PACKAGE_LOADED,\n    STATE_PACKAGE_IN_TRANSIT,\n    STATE_ARRIVED_TO_WAREHOUSE,\n    STATE_PACKAGE_CHANGED_CARRIER,\n    STATE_ARRIVED_TO_END_USER\n  ];\n\n  /**\n   * Package roles\n   */\n  bytes32[] public _allRoles = [ROLE_ADMIN, ROLE_USER];\n\n  /**\n   * @dev Package helper role collection\n   * specifies anyone who can edit an exponse\n   */\n  bytes32[] private _canEdit = [ROLE_ADMIN, ROLE_USER];\n\n  /**\n   * The address of the upgradeable registry this contract belongs to.\n   * Note that both this property together with the UPGRADEABLE_REGISTRY_TARGET const define a contract\n   * that is part of an upgradeable registry and provides the link to the registry if required.\n   */\n  address public _upgradeableRegistry;\n\n  /**\n   * Package Specific types\n   *\n   *\n   *\n   */\n\n  enum IssueType { trafficJam, coolingMalfunction, tilting, itMalfunction }\n  // => casing in enums google\n  struct packageIssue {\n    IssueType issue;\n    uint256 timestamp;\n  }\n\n  /**\n   * @dev StateMachineMeta contains meta data for every StateMachine - seeing as struct are not composable\n   * and the base StateMachine struct is defined in the FiniteStateMachine abstract there's no other\n   * way to compose structs than having two separte arrays where the indices match.\n   *\n   * @dev Mint is aware of the above and will zip these two into a single struct so statemachines\n   * from the outside will look as a composition of both StateMachine and StateMachineMeta structs.\n   */\n  StateMachineMeta[] internal _meta;\n\n  /**\n   * @dev The index is a collection of DIDs for every state machine in the registry\n   * Usually the getIndex call returns a list of contract addresses however as FSMs are\n   * uniquely identified by their DID we return those instead\n   */\n  string[] internal _index;\n\n  /**\n   * @dev Struct defining an Package\n   * @notice Gets decorated together with the StateMachine structs and forms the Package FSM\n   */\n  struct StateMachineMeta {\n    string DID;\n    string name;\n    string comment;\n    bool isMedical;\n    bool tiltable;\n    bool temperatureIgnored; //Smaller type maybe? //skip fn\n    uint256 temperatureThreshold; //currently string ???\n    packageIssue[] issues;\n    string currentCarrier;\n    uint256 start;\n    uint256 temperature;\n    string[] gpsLocations; // lat, long\n    address owner;\n    string ipfsFieldContainerHash;\n  }\n\n  constructor(address gateKeeper, address registry) Secured(gateKeeper) {\n    require(registry != address(0x0), 'registry can not be zero');\n    _upgradeableRegistry = registry;\n  }\n\n  //////\n  // FSM Definition Functions\n  //////\n\n  /**\n   * @notice Returns initial state\n   */\n  function initialState() public pure override returns (bytes32) {\n    return STATE_PACKAGE_LOADED;\n  }\n\n  /**\n   * @notice Returns all possible states\n   */\n  function allStates() public view override returns (bytes32[] memory) {\n    return _allStates;\n  }\n\n  /**\n   * @notice Returns all possible roles\n   */\n  function allRoles() public view override returns (bytes32[] memory) {\n    return _allRoles;\n  }\n\n  /**\n   * @notice Retrieve all possible next states for a certain state\n   * @param state state\n   */\n  function getNextStatesForState(bytes32 state) public view override returns (bytes32[] memory test) {\n    bytes32[] memory states;\n\n    if (state == STATE_PACKAGE_LOADED) {\n      states = new bytes32[](1);\n      states[0] = STATE_PACKAGE_IN_TRANSIT;\n    }\n\n    if (state == STATE_PACKAGE_IN_TRANSIT) {\n      states = new bytes32[](2);\n      states[0] = STATE_ARRIVED_TO_WAREHOUSE;\n      states[1] = STATE_ARRIVED_TO_END_USER;\n    }\n\n    if (state == STATE_ARRIVED_TO_WAREHOUSE) {\n      states = new bytes32[](1);\n      states[0] = STATE_PACKAGE_CHANGED_CARRIER;\n    }\n\n    if (state == STATE_PACKAGE_CHANGED_CARRIER) {\n      states = new bytes32[](1);\n      states[0] = STATE_PACKAGE_IN_TRANSIT;\n    }\n\n    return states;\n  }\n\n  /**\n   * @notice Retrieve all roles that are allowed to move it to the given state\n   * @param state state\n   * TODO: Roles\n   */\n  function getAllowedRolesForState(bytes32 state) public view override returns (bytes32[] memory) {\n    bytes32[] memory roles;\n\n    if (state == STATE_PACKAGE_LOADED) {\n      roles = new bytes32[](2);\n      roles[0] = ROLE_ADMIN;\n      roles[1] = ROLE_USER;\n    }\n\n    if (state == STATE_PACKAGE_IN_TRANSIT) {\n      roles = new bytes32[](2);\n      roles[0] = ROLE_ADMIN;\n      roles[1] = ROLE_USER;\n    }\n\n    if (state == STATE_ARRIVED_TO_WAREHOUSE) {\n      roles = new bytes32[](2);\n      roles[0] = ROLE_ADMIN;\n      roles[1] = ROLE_USER;\n    }\n\n    if (state == STATE_PACKAGE_CHANGED_CARRIER) {\n      roles = new bytes32[](2);\n      roles[0] = ROLE_ADMIN;\n      roles[1] = ROLE_USER;\n    }\n\n    if (state == STATE_ARRIVED_TO_END_USER) {\n      roles = new bytes32[](2);\n      roles[0] = ROLE_ADMIN;\n      roles[1] = ROLE_USER;\n    }\n\n    return roles;\n  }\n\n  /**\n   * @notice Returns method signatures for functions which are allowed to execute in the given state\n   * @param state state\n   */\n  function getAllowedFunctionsForState(bytes32 state) public view override returns (bytes4[] memory) {\n    bytes4[] memory functions;\n\n    if (state == STATE_PACKAGE_LOADED) {\n      functions = new bytes4[](3);\n      functions[0] = this.startLoadingTruck.selector;\n      functions[1] = this.finishLoadingTruck.selector;\n      functions[2] = this.edit.selector; //edit function only here?\n    }\n\n    if (state == STATE_PACKAGE_IN_TRANSIT) {\n      functions = new bytes4[](6);\n      functions[0] = this.setPackageTilting.selector;\n      functions[1] = this.setCoolingMalfunction.selector;\n      functions[2] = this.setTrafficJam.selector;\n      functions[3] = this.sendData.selector;\n      functions[4] = this.arrivedToWarehouse.selector;\n      functions[5] = this.arrivedToEndUser.selector;\n    }\n\n    if (state == STATE_ARRIVED_TO_WAREHOUSE) {\n      functions = new bytes4[](2);\n      functions[0] = this.startChangeCarrier.selector;\n      functions[1] = this.setItMalfunction.selector;\n    }\n\n    if (state == STATE_PACKAGE_CHANGED_CARRIER) {\n      functions = new bytes4[](2);\n      functions[0] = this.finishChangeCarrier.selector;\n      functions[1] = this.setItMalfunction.selector;\n    }\n\n    if (state == STATE_ARRIVED_TO_END_USER) {\n      functions = new bytes4[](1);\n      functions[0] = this.checkSmartContract.selector;\n    }\n\n    return functions;\n  }\n\n  /**\n   * @notice Returns method signatures for functions that act as preconditions that must be met in order to transition to the given state\n   * @param state state\n   */\n  function getPreconditionsForState(bytes32 state) public view override returns (bytes4[] memory) {}\n\n  /**\n   * @notice Returns method signatures for functions that will get called after transitioning to the given state\n   * @param state state\n   */\n  function getCallbacksForState(bytes32 state) public view override returns (bytes4[] memory) {}\n\n  /**\n   * @notice Returns method signatures for functions that need to be called before transitioning to the given state\n   * @param state state\n   */\n  function getPreFunctionForState(bytes32 state) public pure override returns (bytes4) {}\n\n  //////\n  // UI Field Definition Functions\n  //////\n\n  /**\n   * @notice Set the UI field definition hash\n   * @param uiFieldDefinitionsHash IPFS hash containing the UI field definitions JSON\n   */\n  function setUIFieldDefinitionsHash(string memory uiFieldDefinitionsHash)\n    public\n    override\n    authWithCustomReason(UPDATE_UIFIELDDEFINITIONS_ROLE, 'Sender needs UPDATE_UIFIELDDEFINITIONS_ROLE')\n  {\n    _uiFieldDefinitionsHash = uiFieldDefinitionsHash;\n  }\n\n  /**\n   * @notice Returns the UI field definition hash\n   */\n  function getUIFieldDefinitionsHash() public view override returns (string memory) {\n    return _uiFieldDefinitionsHash;\n  }\n\n  //////\n  // Factory Functions => Rework wit hupdated stm\n  //////\n\n  /**\n   * @notice Create a new statemachine\n   * @param name Package type\n   * @param comment is the package tiltable\n   * @param isMedical is the package medical\n   * @param temperatureIgnored is the temp ignores\n   * @param temperatureThreshold tresh\n   * @param ipfsFieldContainerHash IPFS hash df the metadata fields\n   * @param owner Package owner\n   */\n  function create(\n    string memory name,\n    string memory comment,\n    bool isMedical,\n    bool tiltable,\n    bool temperatureIgnored,\n    uint256 temperatureThreshold,\n    string memory ipfsFieldContainerHash,\n    address owner\n  ) public authWithCustomReason(CREATE_STATEMACHINE_ROLE, 'Sender needs CREATE_STATEMACHINE_ROLE') {\n    _registry.push();\n    StateMachine storage sm = _registry[_registry.length - 1];\n    sm.currentState = initialState();\n    sm.createdAt = block.timestamp;\n    sm.index = _registry.length - 1;\n    //This registry later?\n\n    _meta.push();\n    StateMachineMeta storage meta = _meta[_meta.length - 1];\n    meta.name = name;\n    meta.comment = comment;\n    meta.isMedical = isMedical;\n    meta.tiltable = tiltable;\n    meta.temperatureIgnored = temperatureIgnored;\n    meta.temperatureThreshold = temperatureThreshold;\n    meta.currentCarrier = 'Carrier One';\n    meta.ipfsFieldContainerHash = ipfsFieldContainerHash;\n    meta.owner = owner;\n    meta.DID = generateDID(_meta.length - 1);\n\n    _index.push();\n    _index[_index.length - 1] = meta.DID;\n\n    //emit PackageCreated(sm.index, owner, _upgradeableRegistry); //Event maken\n  }\n\n  /**\n   * @notice Edit an existing statemachine\n   * @param name Package type\n   * @param comment is the package tiltable\n   * @param isMedical is the package tiltable\n   * @param temperatureIgnored is the temp ignores\n   * @param temperatureThreshold tresh\n   * @param ipfsFieldContainerHash IPFS hash df the metadata fields\n   */\n  function edit(\n    uint256 fsmIndex,\n    string memory name,\n    string memory comment,\n    bool isMedical,\n    bool tiltable,\n    bool temperatureIgnored,\n    uint256 temperatureThreshold,\n    string memory ipfsFieldContainerHash\n  )\n    public\n    //authManyWithCustomReason(_canEdit, 'Edit requires one of roles: ROLE_ADMIN')\n    doesStateMachineExists(fsmIndex)\n    checkAllowedFunction(_registry[fsmIndex].currentState)\n  {\n    // Verify input (copy paste of validations  we perform in the factory)\n    //require(amount > 0, 'The amount of an Package cannot be zero');\n    // require(bytes(packageName).length > 0, 'A packageName is required for all Packages');\n\n    _meta[fsmIndex].name = name;\n    _meta[fsmIndex].comment = comment;\n    _meta[fsmIndex].isMedical = isMedical; //Enum Maybe toch niet\n    _meta[fsmIndex].tiltable = tiltable;\n    _meta[fsmIndex].temperatureIgnored = temperatureIgnored;\n    _meta[fsmIndex].temperatureThreshold = temperatureThreshold;\n    _meta[fsmIndex].ipfsFieldContainerHash = ipfsFieldContainerHash;\n  }\n\n  function canEdit() public view returns (bytes32[] memory) {\n    return _canEdit;\n  }\n\n  //////\n  // Syncable Functions\n  //////\n\n  /**\n   * @notice Returns the structs composing a statemachine for given index\n   * @param fsmIndex state machine index\n   */\n  function getByIndex(uint256 fsmIndex) public view returns (StateMachine memory item, StateMachineMeta memory meta) {\n    item = _registry[fsmIndex];\n    meta = _meta[fsmIndex];\n  }\n\n  /**\n   * @notice Returns all state machines structs in a single fetch\n   */\n  function getContents() public view returns (StateMachine[] memory registry, StateMachineMeta[] memory meta) {\n    registry = _registry;\n    meta = _meta;\n  }\n\n  /**\n   * @notice Returns the (DID) index\n   */\n  function getIndex() public view returns (string[] memory index) {\n    return _index;\n  }\n\n  //////\n  // Package Functions\n  //////\n\n  struct eventInfo {\n    string name;\n    string carrier;\n    uint256 time;\n    string lat;\n    string long;\n    uint256 temp;\n  }\n\n  /**\n   * @notice StartLoading Truck\n   * @param fsmIndex state machine index\n   */\n  function startLoadingTruck(\n    uint256 fsmIndex,\n    uint256 time,\n    string memory lat,\n    string memory long\n  ) public doesStateMachineExists(fsmIndex) checkAllowedFunction(_registry[fsmIndex].currentState) {\n    StateMachineMeta storage meta = _meta[fsmIndex];\n    meta.start = time;\n    meta.gpsLocations = new string[](2);\n    meta.gpsLocations[0] = lat;\n    meta.gpsLocations[1] = long;\n    eventInfo memory info =\n      eventInfo({\n        name: 'START LOADING',\n        carrier: meta.currentCarrier,\n        time: time,\n        lat: lat,\n        long: long,\n        temp: meta.temperature\n      });\n    emit StartLoadingEvent(fsmIndex, info); //carrier?\n  }\n\n  //Which functions does Package need?\n  /**\n   * @notice finish Loading Truck\n   * @param fsmIndex state machine index\n   * @param time start time of the loading\n   *\n   */\n  function finishLoadingTruck(\n    uint256 fsmIndex,\n    uint256 time,\n    string memory lat,\n    string memory long\n  ) public doesStateMachineExists(fsmIndex) checkAllowedFunction(_registry[fsmIndex].currentState) {\n    StateMachineMeta storage meta = _meta[fsmIndex];\n    meta.gpsLocations = new string[](2);\n    meta.gpsLocations[0] = lat;\n    meta.gpsLocations[1] = long;\n    eventInfo memory info =\n      eventInfo({\n        name: 'FINISH LOADING',\n        carrier: meta.currentCarrier,\n        time: time,\n        lat: lat,\n        long: long,\n        temp: meta.temperature\n      });\n    emit FinishLoadingEvent(fsmIndex, info); //carrier?\n    transitionState(fsmIndex, STATE_PACKAGE_IN_TRANSIT);\n  }\n\n  /**\n   * @notice setPackageTilting\n   * @param fsmIndex state machine index\n   * @param time start time of the loading\n   *\n   */\n\n  function setPackageTilting(\n    uint256 fsmIndex,\n    uint256 time,\n    string memory lat,\n    string memory long\n  ) public doesStateMachineExists(fsmIndex) checkAllowedFunction(_registry[fsmIndex].currentState) {\n    StateMachineMeta storage meta = _meta[fsmIndex];\n    meta.gpsLocations = new string[](2);\n    meta.gpsLocations[0] = lat;\n    meta.gpsLocations[1] = long;\n    meta.issues.push(packageIssue({ issue: IssueType.tilting, timestamp: time }));\n    eventInfo memory info =\n      eventInfo({\n        name: 'PACKAGE TILTING',\n        carrier: meta.currentCarrier,\n        time: time,\n        lat: lat,\n        long: long,\n        temp: meta.temperature\n      });\n\n    emit PackageTiltingEvent(fsmIndex, info);\n  }\n\n  /**\n   * @notice setCoolingMalfunction\n   * @param fsmIndex state machine index\n   * @param time start time of the loading\n   *\n   */\n\n  function setCoolingMalfunction(\n    uint256 fsmIndex,\n    uint256 time,\n    string memory lat,\n    string memory long,\n    uint256 temp\n  ) public doesStateMachineExists(fsmIndex) checkAllowedFunction(_registry[fsmIndex].currentState) {\n    StateMachineMeta storage meta = _meta[fsmIndex];\n    meta.gpsLocations = new string[](2);\n    meta.gpsLocations[0] = lat;\n    meta.gpsLocations[1] = long;\n    meta.issues.push(packageIssue({ issue: IssueType.coolingMalfunction, timestamp: time }));\n    meta.temperature = temp;\n    eventInfo memory info =\n      eventInfo({\n        name: 'COOLING MALFUNCTION',\n        carrier: meta.currentCarrier,\n        time: time,\n        lat: lat,\n        long: long,\n        temp: temp\n      });\n    emit CoolingMalfunctionEvent(fsmIndex, info);\n  }\n\n  /**\n   * @notice itMalfunction function\n   * @param fsmIndex state machine index\n   * @param time start time of the loading\n   *\n   */\n\n  function setItMalfunction(\n    uint256 fsmIndex,\n    uint256 time,\n    string memory lat,\n    string memory long\n  ) public doesStateMachineExists(fsmIndex) checkAllowedFunction(_registry[fsmIndex].currentState) {\n    StateMachineMeta storage meta = _meta[fsmIndex];\n    meta.gpsLocations = new string[](2);\n    meta.gpsLocations[0] = lat;\n    meta.gpsLocations[1] = long;\n    meta.issues.push(packageIssue({ issue: IssueType.itMalfunction, timestamp: time }));\n    eventInfo memory info =\n      eventInfo({\n        name: 'IT MALFUNCTION',\n        carrier: meta.currentCarrier,\n        time: time,\n        lat: lat,\n        long: long,\n        temp: meta.temperature\n      });\n    emit ItMalfunctionEvent(fsmIndex, info);\n  }\n\n  /**\n   * @notice finish Loading Truck event\n   * @param fsmIndex state machine index\n   */\n\n  function setTrafficJam(\n    uint256 fsmIndex,\n    uint256 time,\n    string memory lat,\n    string memory long\n  ) public doesStateMachineExists(fsmIndex) checkAllowedFunction(_registry[fsmIndex].currentState) {\n    StateMachineMeta storage meta = _meta[fsmIndex];\n    meta.gpsLocations = new string[](2);\n    meta.gpsLocations[0] = lat;\n    meta.gpsLocations[1] = long;\n    meta.issues.push(packageIssue({ issue: IssueType.trafficJam, timestamp: time }));\n    eventInfo memory info =\n      eventInfo({\n        name: 'TRAFFIC JAM',\n        carrier: meta.currentCarrier,\n        time: time,\n        lat: lat,\n        long: long,\n        temp: meta.temperature\n      });\n    emit TrafficJamEvent(fsmIndex, info);\n  }\n\n  /**\n   * @notice finish Loading Truck event\n   * @param fsmIndex state machine index\n   * @param time time\n   *\n   */\n\n  function sendData(\n    uint256 fsmIndex,\n    uint256 time,\n    string memory lat,\n    string memory long,\n    uint256 temp\n  ) public doesStateMachineExists(fsmIndex) checkAllowedFunction(_registry[fsmIndex].currentState) {\n    StateMachineMeta storage meta = _meta[fsmIndex];\n    meta.gpsLocations = new string[](2);\n    meta.gpsLocations[0] = lat;\n    meta.gpsLocations[1] = long;\n    meta.temperature = temp;\n    eventInfo memory info =\n      eventInfo({ name: 'SENT DATA', carrier: meta.currentCarrier, time: time, lat: lat, long: long, temp: temp });\n    emit SentData(fsmIndex, info);\n  }\n\n  /**\n   * @notice finish Loading Truck event\n   * @param fsmIndex state machine index\n   * @param time time\n   */\n\n  function arrivedToWarehouse(\n    uint256 fsmIndex,\n    uint256 time,\n    string memory lat,\n    string memory long\n  ) public doesStateMachineExists(fsmIndex) checkAllowedFunction(_registry[fsmIndex].currentState) {\n    StateMachineMeta storage meta = _meta[fsmIndex];\n    meta.gpsLocations = new string[](2);\n    meta.gpsLocations[0] = lat;\n    meta.gpsLocations[1] = long;\n    eventInfo memory info =\n      eventInfo({\n        name: 'ARRIVED TO WAREHOUSE',\n        carrier: meta.currentCarrier,\n        time: time,\n        lat: lat,\n        long: long,\n        temp: meta.temperature\n      });\n    emit ArrivedToWareHouseEvent(fsmIndex, info);\n    transitionState(fsmIndex, STATE_ARRIVED_TO_WAREHOUSE);\n  }\n\n  /**\n   * @notice finish Loading Truck event\n   * @param fsmIndex state machine index\n   * @param time time\n   *\n   */\n\n  function arrivedToEndUser(\n    uint256 fsmIndex,\n    uint256 time,\n    string memory lat,\n    string memory long\n  ) public doesStateMachineExists(fsmIndex) checkAllowedFunction(_registry[fsmIndex].currentState) {\n    StateMachineMeta storage meta = _meta[fsmIndex];\n    eventInfo memory info =\n      eventInfo({\n        name: 'ARRIVED TO ENDUSER',\n        carrier: meta.currentCarrier,\n        time: time,\n        lat: lat,\n        long: long,\n        temp: meta.temperature\n      });\n    emit ArrivedToEndUserEvent(fsmIndex, info);\n    transitionState(fsmIndex, STATE_ARRIVED_TO_END_USER);\n  }\n\n  /**\n   * @notice finish Loading Truck event\n   * @param fsmIndex state machine index\n   * @param time time\n   *\n   */\n\n  function startChangeCarrier(\n    uint256 fsmIndex,\n    uint256 time,\n    string memory lat,\n    string memory long,\n    string memory newCarrier\n  ) public doesStateMachineExists(fsmIndex) checkAllowedFunction(_registry[fsmIndex].currentState) {\n    StateMachineMeta storage meta = _meta[fsmIndex];\n    meta.currentCarrier = newCarrier;\n    eventInfo memory info =\n      eventInfo({\n        name: 'START CHANGE CARRIER',\n        carrier: meta.currentCarrier,\n        time: time,\n        lat: lat,\n        long: long,\n        temp: meta.temperature\n      });\n    emit StartChangedCarrier(fsmIndex, info); // new Carrier\n    transitionState(fsmIndex, STATE_PACKAGE_CHANGED_CARRIER);\n  }\n\n  /**\n   * @notice finishChangeCarrier\n   * @param fsmIndex state machine index\n   * @param time time\n   *\n   */\n  function finishChangeCarrier(\n    uint256 fsmIndex,\n    uint256 time,\n    string memory lat,\n    string memory long\n  ) public doesStateMachineExists(fsmIndex) checkAllowedFunction(_registry[fsmIndex].currentState) {\n    StateMachineMeta storage meta = _meta[fsmIndex];\n    eventInfo memory info =\n      eventInfo({\n        name: 'FINISH CHANGE CARRIER',\n        carrier: meta.currentCarrier,\n        time: time,\n        lat: lat,\n        long: long,\n        temp: meta.temperature\n      });\n    emit FinishChangedCarrier(fsmIndex, info);\n    transitionState(fsmIndex, STATE_PACKAGE_IN_TRANSIT);\n  }\n\n  /**\n   * @notice checkSmartContract\n   * @param fsmIndex state machine index\n   * @param time time\n   *\n   */\n  function checkSmartContract(\n    uint256 fsmIndex,\n    uint256 time,\n    string memory lat,\n    string memory long\n  ) public doesStateMachineExists(fsmIndex) checkAllowedFunction(_registry[fsmIndex].currentState) {\n    StateMachineMeta storage meta = _meta[fsmIndex];\n    //issues??\n    eventInfo memory info =\n      eventInfo({\n        name: 'CHECK SMARTCONTRACT',\n        carrier: meta.currentCarrier,\n        time: time,\n        lat: lat,\n        long: long,\n        temp: meta.temperature\n      });\n    emit CheckSmartContractEvent(fsmIndex, info, meta.issues); //order them right?\n  }\n\n  /**\n   * @notice Returns the preconditions for given state\n   * @param state state\n   * @dev Internal helper function that returns actual function pointers so a method can\n   * loop those and effectively call the precondition function\n   */\n  function getPreconditionFunctionsForState(bytes32 state)\n    internal\n    view\n    override\n    returns (function(uint256, bytes32, bytes32) view[] memory)\n  {}\n\n  /**\n   * @notice Returns the callbacks for given state\n   * @param state state\n   * @dev Internal helper function that returns actual function pointers so a method can\n   * loop those and effectively call the callback function\n   */\n  function getCallbackFunctionsForState(bytes32 state)\n    internal\n    override\n    returns (function(uint256, bytes32, bytes32) internal[] memory)\n  {}\n\n  //////\n  // Helper Functions\n  //////\n\n  /**\n   * @notice Generate state machine DID\n   * @param fsmIndex state machine index\n   */\n  function generateDID(uint256 fsmIndex) internal view returns (string memory) {\n    return string(abi.encodePacked('did:demo:package:0x', addressToString(address(this)), ':', uintToString(fsmIndex)));\n  }\n}\n",
  "sourcePath": "/home/coder/project/contracts/supplypackage/Package.sol",
  "compiler": {
    "name": "solc",
    "version": "0.8.3+commit.8d00100c.Emscripten.clang"
  },
  "schemaVersion": "3.4.1",
  "updatedAt": "2021-07-13T12:53:57.741Z",
  "devdoc": {
    "kind": "dev",
    "methods": {
      "arrivedToEndUser(uint256,uint256,string,string)": {
        "params": {
          "fsmIndex": "state machine index",
          "time": "time"
        }
      },
      "arrivedToWarehouse(uint256,uint256,string,string)": {
        "params": {
          "fsmIndex": "state machine index",
          "time": "time"
        }
      },
      "checkSmartContract(uint256,uint256,string,string)": {
        "params": {
          "fsmIndex": "state machine index",
          "time": "time"
        }
      },
      "create(string,string,bool,bool,bool,uint256,string,address)": {
        "params": {
          "comment": "is the package tiltable",
          "ipfsFieldContainerHash": "IPFS hash df the metadata fields",
          "isMedical": "is the package medical",
          "name": "Package type",
          "owner": "Package owner",
          "temperatureIgnored": "is the temp ignores",
          "temperatureThreshold": "tresh"
        }
      },
      "edit(uint256,string,string,bool,bool,bool,uint256,string)": {
        "params": {
          "comment": "is the package tiltable",
          "ipfsFieldContainerHash": "IPFS hash df the metadata fields",
          "isMedical": "is the package tiltable",
          "name": "Package type",
          "temperatureIgnored": "is the temp ignores",
          "temperatureThreshold": "tresh"
        }
      },
      "finishChangeCarrier(uint256,uint256,string,string)": {
        "params": {
          "fsmIndex": "state machine index",
          "time": "time"
        }
      },
      "finishLoadingTruck(uint256,uint256,string,string)": {
        "params": {
          "fsmIndex": "state machine index",
          "time": "start time of the loading"
        }
      },
      "getAllowedFunctionsForState(bytes32)": {
        "params": {
          "state": "state"
        }
      },
      "getAllowedRolesForState(bytes32)": {
        "params": {
          "state": "state TODO: Roles"
        }
      },
      "getByIndex(uint256)": {
        "params": {
          "fsmIndex": "state machine index"
        }
      },
      "getCallbacksForState(bytes32)": {
        "params": {
          "state": "state"
        }
      },
      "getIndexLength()": {
        "details": "Returns the length of the state machine registry",
        "returns": {
          "length": "the number of state machines in the registry"
        }
      },
      "getNextStatesForState(bytes32)": {
        "params": {
          "state": "state"
        }
      },
      "getPreFunctionForState(bytes32)": {
        "params": {
          "state": "state"
        }
      },
      "getPreconditionsForState(bytes32)": {
        "params": {
          "state": "state"
        }
      },
      "sendData(uint256,uint256,string,string,uint256)": {
        "params": {
          "fsmIndex": "state machine index",
          "time": "time"
        }
      },
      "setCoolingMalfunction(uint256,uint256,string,string,uint256)": {
        "params": {
          "fsmIndex": "state machine index",
          "time": "start time of the loading"
        }
      },
      "setItMalfunction(uint256,uint256,string,string)": {
        "params": {
          "fsmIndex": "state machine index",
          "time": "start time of the loading"
        }
      },
      "setPackageTilting(uint256,uint256,string,string)": {
        "params": {
          "fsmIndex": "state machine index",
          "time": "start time of the loading"
        }
      },
      "setTrafficJam(uint256,uint256,string,string)": {
        "params": {
          "fsmIndex": "state machine index"
        }
      },
      "setUIFieldDefinitionsHash(string)": {
        "params": {
          "uiFieldDefinitionsHash": "IPFS hash containing the UI field definitions JSON"
        }
      },
      "startChangeCarrier(uint256,uint256,string,string,string)": {
        "params": {
          "fsmIndex": "state machine index",
          "time": "time"
        }
      },
      "startLoadingTruck(uint256,uint256,string,string)": {
        "params": {
          "fsmIndex": "state machine index"
        }
      },
      "transitionState(uint256,bytes32)": {
        "details": "Ensures predefined transition criteria are met before transitioning to a new state. Executes callbacks. Emits a Transition event after a successful transition.",
        "params": {
          "fsmIndex": "registry index of the transitioning state machine",
          "toState": "identifier of the state to transition to"
        }
      }
    },
    "stateVariables": {
      "STATE_PACKAGE_LOADED": {
        "details": "State Constants -> Possible DelayState? STATE_PACKAGE_LOADED = the Package is added, possibly with missing info STATE_PACKAGE_IN_TRANSIT = STATE_ARRIVED_TO_WAREHOUS = STATE_PACKAGE_CHANGED_CAR = STATE_ARRIVED_TO_END_USER ="
      },
      "_canEdit": {
        "details": "Package helper role collection specifies anyone who can edit an exponse"
      },
      "_index": {
        "details": "The index is a collection of DIDs for every state machine in the registry Usually the getIndex call returns a list of contract addresses however as FSMs are uniquely identified by their DID we return those instead"
      },
      "_meta": {
        "details": "StateMachineMeta contains meta data for every StateMachine - seeing as struct are not composable and the base StateMachine struct is defined in the FiniteStateMachine abstract there's no other way to compose structs than having two separte arrays where the indices match.Mint is aware of the above and will zip these two into a single struct so statemachines from the outside will look as a composition of both StateMachine and StateMachineMeta structs."
      }
    },
    "title": "Package Contract",
    "version": 1
  },
  "userdoc": {
    "events": {
      "StartLoadingEvent(uint256,(string,string,uint256,string,string,uint256))": {
        "notice": "Package Events"
      }
    },
    "kind": "user",
    "methods": {
      "_allRoles(uint256)": {
        "notice": "Package roles"
      },
      "_allStates(uint256)": {
        "notice": "Package states"
      },
      "_upgradeableRegistry()": {
        "notice": "The address of the upgradeable registry this contract belongs to. Note that both this property together with the UPGRADEABLE_REGISTRY_TARGET const define a contract that is part of an upgradeable registry and provides the link to the registry if required."
      },
      "allRoles()": {
        "notice": "Returns all possible roles"
      },
      "allStates()": {
        "notice": "Returns all possible states"
      },
      "arrivedToEndUser(uint256,uint256,string,string)": {
        "notice": "finish Loading Truck event"
      },
      "arrivedToWarehouse(uint256,uint256,string,string)": {
        "notice": "finish Loading Truck event"
      },
      "checkSmartContract(uint256,uint256,string,string)": {
        "notice": "checkSmartContract"
      },
      "create(string,string,bool,bool,bool,uint256,string,address)": {
        "notice": "Create a new statemachine"
      },
      "edit(uint256,string,string,bool,bool,bool,uint256,string)": {
        "notice": "Edit an existing statemachine"
      },
      "finishChangeCarrier(uint256,uint256,string,string)": {
        "notice": "finishChangeCarrier"
      },
      "finishLoadingTruck(uint256,uint256,string,string)": {
        "notice": "finish Loading Truck"
      },
      "getAllowedFunctionsForState(bytes32)": {
        "notice": "Returns method signatures for functions which are allowed to execute in the given state"
      },
      "getAllowedRolesForState(bytes32)": {
        "notice": "Retrieve all roles that are allowed to move it to the given state"
      },
      "getByIndex(uint256)": {
        "notice": "Returns the structs composing a statemachine for given index"
      },
      "getCallbacksForState(bytes32)": {
        "notice": "Returns method signatures for functions that will get called after transitioning to the given state"
      },
      "getContents()": {
        "notice": "Returns all state machines structs in a single fetch"
      },
      "getIndex()": {
        "notice": "Returns the (DID) index"
      },
      "getIndexLength()": {
        "notice": "Returns the length of the state machine registry"
      },
      "getNextStatesForState(bytes32)": {
        "notice": "Retrieve all possible next states for a certain state"
      },
      "getPreFunctionForState(bytes32)": {
        "notice": "Returns method signatures for functions that need to be called before transitioning to the given state"
      },
      "getPreconditionsForState(bytes32)": {
        "notice": "Returns method signatures for functions that act as preconditions that must be met in order to transition to the given state"
      },
      "getUIFieldDefinitionsHash()": {
        "notice": "Returns the UI field definition hash"
      },
      "initialState()": {
        "notice": "Returns initial state"
      },
      "sendData(uint256,uint256,string,string,uint256)": {
        "notice": "finish Loading Truck event"
      },
      "setCoolingMalfunction(uint256,uint256,string,string,uint256)": {
        "notice": "setCoolingMalfunction"
      },
      "setItMalfunction(uint256,uint256,string,string)": {
        "notice": "itMalfunction function"
      },
      "setPackageTilting(uint256,uint256,string,string)": {
        "notice": "setPackageTilting"
      },
      "setTrafficJam(uint256,uint256,string,string)": {
        "notice": "finish Loading Truck event"
      },
      "setUIFieldDefinitionsHash(string)": {
        "notice": "Set the UI field definition hash"
      },
      "startChangeCarrier(uint256,uint256,string,string,string)": {
        "notice": "finish Loading Truck event"
      },
      "startLoadingTruck(uint256,uint256,string,string)": {
        "notice": "StartLoading Truck"
      },
      "transitionState(uint256,bytes32)": {
        "notice": "Transitions a state machine to a new state"
      }
    },
    "version": 1
  }
}