{
  "contractName": "Plot",
  "abi": [
    {
      "inputs": [
        {
          "internalType": "address",
          "name": "gateKeeper",
          "type": "address"
        },
        {
          "internalType": "string",
          "name": "name",
          "type": "string"
        },
        {
          "internalType": "string",
          "name": "caPaKey",
          "type": "string"
        },
        {
          "internalType": "address",
          "name": "owner",
          "type": "address"
        },
        {
          "internalType": "string",
          "name": "ipfsFieldContainerHash",
          "type": "string"
        },
        {
          "internalType": "string",
          "name": "uiFieldDefinitionsHash",
          "type": "string"
        }
      ],
      "stateMutability": "nonpayable",
      "type": "constructor"
    },
    {
      "anonymous": false,
      "inputs": [
        {
          "indexed": true,
          "internalType": "address",
          "name": "plot",
          "type": "address"
        },
        {
          "indexed": true,
          "internalType": "address",
          "name": "owner",
          "type": "address"
        },
        {
          "indexed": true,
          "internalType": "string",
          "name": "caPaKey",
          "type": "string"
        }
      ],
      "name": "PloSplitRefused",
      "type": "event"
    },
    {
      "anonymous": false,
      "inputs": [
        {
          "indexed": true,
          "internalType": "address",
          "name": "plot",
          "type": "address"
        },
        {
          "indexed": true,
          "internalType": "address",
          "name": "owner",
          "type": "address"
        },
        {
          "indexed": true,
          "internalType": "string",
          "name": "caPaKey",
          "type": "string"
        }
      ],
      "name": "PlotApproved",
      "type": "event"
    },
    {
      "anonymous": false,
      "inputs": [
        {
          "indexed": true,
          "internalType": "address",
          "name": "plot",
          "type": "address"
        },
        {
          "indexed": true,
          "internalType": "address",
          "name": "owner",
          "type": "address"
        },
        {
          "indexed": true,
          "internalType": "string",
          "name": "caPaKey",
          "type": "string"
        }
      ],
      "name": "PlotDisapproved",
      "type": "event"
    },
    {
      "anonymous": false,
      "inputs": [
        {
          "indexed": true,
          "internalType": "address",
          "name": "from",
          "type": "address"
        },
        {
          "indexed": true,
          "internalType": "address",
          "name": "to",
          "type": "address"
        },
        {
          "indexed": true,
          "internalType": "address",
          "name": "plot",
          "type": "address"
        },
        {
          "indexed": false,
          "internalType": "string",
          "name": "caPaKey",
          "type": "string"
        }
      ],
      "name": "PlotOwnerShipTransfered",
      "type": "event"
    },
    {
      "anonymous": false,
      "inputs": [
        {
          "indexed": true,
          "internalType": "address",
          "name": "from",
          "type": "address"
        },
        {
          "indexed": true,
          "internalType": "address",
          "name": "to",
          "type": "address"
        },
        {
          "indexed": true,
          "internalType": "address",
          "name": "plot",
          "type": "address"
        },
        {
          "indexed": false,
          "internalType": "string",
          "name": "caPaKey",
          "type": "string"
        }
      ],
      "name": "PlotOwnershipTransferRefused",
      "type": "event"
    },
    {
      "anonymous": false,
      "inputs": [
        {
          "indexed": true,
          "internalType": "address",
          "name": "plot",
          "type": "address"
        },
        {
          "indexed": true,
          "internalType": "address",
          "name": "owner",
          "type": "address"
        },
        {
          "indexed": true,
          "internalType": "string",
          "name": "caPaKey",
          "type": "string"
        }
      ],
      "name": "PlotSplitApproved",
      "type": "event"
    },
    {
      "anonymous": false,
      "inputs": [
        {
          "indexed": false,
          "internalType": "address",
          "name": "sender",
          "type": "address"
        },
        {
          "indexed": false,
          "internalType": "bytes32",
          "name": "fromState",
          "type": "bytes32"
        },
        {
          "indexed": false,
          "internalType": "bytes32",
          "name": "toState",
          "type": "bytes32"
        }
      ],
      "name": "Transition",
      "type": "event"
    },
    {
      "inputs": [],
      "name": "ROLE_ADMIN",
      "outputs": [
        {
          "internalType": "bytes32",
          "name": "",
          "type": "bytes32"
        }
      ],
      "stateMutability": "view",
      "type": "function"
    },
    {
      "inputs": [],
      "name": "ROLE_LAND_REGISTRAR",
      "outputs": [
        {
          "internalType": "bytes32",
          "name": "",
          "type": "bytes32"
        }
      ],
      "stateMutability": "view",
      "type": "function"
    },
    {
      "inputs": [],
      "name": "ROLE_NOTARY",
      "outputs": [
        {
          "internalType": "bytes32",
          "name": "",
          "type": "bytes32"
        }
      ],
      "stateMutability": "view",
      "type": "function"
    },
    {
      "inputs": [],
      "name": "STATE_PLOT_APPROVED",
      "outputs": [
        {
          "internalType": "bytes32",
          "name": "",
          "type": "bytes32"
        }
      ],
      "stateMutability": "view",
      "type": "function"
    },
    {
      "inputs": [],
      "name": "STATE_PLOT_DISAPPROVED",
      "outputs": [
        {
          "internalType": "bytes32",
          "name": "",
          "type": "bytes32"
        }
      ],
      "stateMutability": "view",
      "type": "function"
    },
    {
      "inputs": [],
      "name": "STATE_PLOT_NEEDS_UPDATE",
      "outputs": [
        {
          "internalType": "bytes32",
          "name": "",
          "type": "bytes32"
        }
      ],
      "stateMutability": "view",
      "type": "function"
    },
    {
      "inputs": [],
      "name": "STATE_PLOT_REVIEWED",
      "outputs": [
        {
          "internalType": "bytes32",
          "name": "",
          "type": "bytes32"
        }
      ],
      "stateMutability": "view",
      "type": "function"
    },
    {
      "inputs": [],
      "name": "STATE_PLOT_SUBMITTED",
      "outputs": [
        {
          "internalType": "bytes32",
          "name": "",
          "type": "bytes32"
        }
      ],
      "stateMutability": "view",
      "type": "function"
    },
    {
      "inputs": [],
      "name": "STATE_SPLIT_APPROVED",
      "outputs": [
        {
          "internalType": "bytes32",
          "name": "",
          "type": "bytes32"
        }
      ],
      "stateMutability": "view",
      "type": "function"
    },
    {
      "inputs": [],
      "name": "STATE_SPLIT_DISAPPROVED",
      "outputs": [
        {
          "internalType": "bytes32",
          "name": "",
          "type": "bytes32"
        }
      ],
      "stateMutability": "view",
      "type": "function"
    },
    {
      "inputs": [],
      "name": "STATE_SPLIT_NEEDS_UPDATE",
      "outputs": [
        {
          "internalType": "bytes32",
          "name": "",
          "type": "bytes32"
        }
      ],
      "stateMutability": "view",
      "type": "function"
    },
    {
      "inputs": [],
      "name": "STATE_SPLIT_REQUEST",
      "outputs": [
        {
          "internalType": "bytes32",
          "name": "",
          "type": "bytes32"
        }
      ],
      "stateMutability": "view",
      "type": "function"
    },
    {
      "inputs": [],
      "name": "STATE_SPLIT_REVIEWED",
      "outputs": [
        {
          "internalType": "bytes32",
          "name": "",
          "type": "bytes32"
        }
      ],
      "stateMutability": "view",
      "type": "function"
    },
    {
      "inputs": [],
      "name": "STATE_TRANSFER_OWNER_DISAPPROV",
      "outputs": [
        {
          "internalType": "bytes32",
          "name": "",
          "type": "bytes32"
        }
      ],
      "stateMutability": "view",
      "type": "function"
    },
    {
      "inputs": [],
      "name": "STATE_TRANSFER_OWNER_NEEDS_UPD",
      "outputs": [
        {
          "internalType": "bytes32",
          "name": "",
          "type": "bytes32"
        }
      ],
      "stateMutability": "view",
      "type": "function"
    },
    {
      "inputs": [],
      "name": "STATE_TRANSFER_OWNER_REQUEST",
      "outputs": [
        {
          "internalType": "bytes32",
          "name": "",
          "type": "bytes32"
        }
      ],
      "stateMutability": "view",
      "type": "function"
    },
    {
      "inputs": [],
      "name": "STATE_TRANSFER_OWNER_REVIEWED",
      "outputs": [
        {
          "internalType": "bytes32",
          "name": "",
          "type": "bytes32"
        }
      ],
      "stateMutability": "view",
      "type": "function"
    },
    {
      "inputs": [],
      "name": "UPDATE_IPFSCONTAINERHASH_ROLE",
      "outputs": [
        {
          "internalType": "bytes32",
          "name": "",
          "type": "bytes32"
        }
      ],
      "stateMutability": "view",
      "type": "function"
    },
    {
      "inputs": [],
      "name": "_caPaKey",
      "outputs": [
        {
          "internalType": "string",
          "name": "",
          "type": "string"
        }
      ],
      "stateMutability": "view",
      "type": "function"
    },
    {
      "inputs": [],
      "name": "_ipfsFieldContainerHash",
      "outputs": [
        {
          "internalType": "string",
          "name": "",
          "type": "string"
        }
      ],
      "stateMutability": "view",
      "type": "function"
    },
    {
      "inputs": [],
      "name": "_name",
      "outputs": [
        {
          "internalType": "string",
          "name": "",
          "type": "string"
        }
      ],
      "stateMutability": "view",
      "type": "function"
    },
    {
      "inputs": [],
      "name": "_owner",
      "outputs": [
        {
          "internalType": "address",
          "name": "",
          "type": "address"
        }
      ],
      "stateMutability": "view",
      "type": "function"
    },
    {
      "inputs": [],
      "name": "_ownershipRejectionReason",
      "outputs": [
        {
          "internalType": "string",
          "name": "",
          "type": "string"
        }
      ],
      "stateMutability": "view",
      "type": "function"
    },
    {
      "inputs": [],
      "name": "_plotRejectionReason",
      "outputs": [
        {
          "internalType": "string",
          "name": "",
          "type": "string"
        }
      ],
      "stateMutability": "view",
      "type": "function"
    },
    {
      "inputs": [
        {
          "internalType": "uint256",
          "name": "",
          "type": "uint256"
        }
      ],
      "name": "_roles",
      "outputs": [
        {
          "internalType": "bytes32",
          "name": "",
          "type": "bytes32"
        }
      ],
      "stateMutability": "view",
      "type": "function"
    },
    {
      "inputs": [],
      "name": "_splitRejectionReason",
      "outputs": [
        {
          "internalType": "string",
          "name": "",
          "type": "string"
        }
      ],
      "stateMutability": "view",
      "type": "function"
    },
    {
      "inputs": [],
      "name": "_uiFieldDefinitionsHash",
      "outputs": [
        {
          "internalType": "string",
          "name": "",
          "type": "string"
        }
      ],
      "stateMutability": "view",
      "type": "function"
    },
    {
      "inputs": [],
      "name": "gateKeeper",
      "outputs": [
        {
          "internalType": "contract GateKeeper",
          "name": "",
          "type": "address"
        }
      ],
      "stateMutability": "view",
      "type": "function"
    },
    {
      "inputs": [],
      "name": "getAllStates",
      "outputs": [
        {
          "internalType": "bytes32[]",
          "name": "allStates",
          "type": "bytes32[]"
        }
      ],
      "stateMutability": "view",
      "type": "function"
    },
    {
      "inputs": [],
      "name": "getCurrentState",
      "outputs": [
        {
          "internalType": "bytes32",
          "name": "state",
          "type": "bytes32"
        }
      ],
      "stateMutability": "view",
      "type": "function"
    },
    {
      "inputs": [
        {
          "internalType": "uint256",
          "name": "index",
          "type": "uint256"
        }
      ],
      "name": "getHistory",
      "outputs": [
        {
          "internalType": "bytes32",
          "name": "fromState",
          "type": "bytes32"
        },
        {
          "internalType": "bytes32",
          "name": "toState",
          "type": "bytes32"
        },
        {
          "internalType": "address",
          "name": "actor",
          "type": "address"
        },
        {
          "internalType": "uint256",
          "name": "timestamp",
          "type": "uint256"
        }
      ],
      "stateMutability": "view",
      "type": "function"
    },
    {
      "inputs": [],
      "name": "getHistoryLength",
      "outputs": [
        {
          "internalType": "uint256",
          "name": "",
          "type": "uint256"
        }
      ],
      "stateMutability": "view",
      "type": "function"
    },
    {
      "inputs": [],
      "name": "getIpfsFieldContainerHash",
      "outputs": [
        {
          "internalType": "string",
          "name": "",
          "type": "string"
        }
      ],
      "stateMutability": "view",
      "type": "function"
    },
    {
      "inputs": [],
      "name": "getNextStates",
      "outputs": [
        {
          "internalType": "bytes32[]",
          "name": "nextStates",
          "type": "bytes32[]"
        }
      ],
      "stateMutability": "view",
      "type": "function"
    },
    {
      "inputs": [
        {
          "internalType": "bytes32",
          "name": "state",
          "type": "bytes32"
        }
      ],
      "name": "getState",
      "outputs": [
        {
          "internalType": "bytes32",
          "name": "name",
          "type": "bytes32"
        },
        {
          "internalType": "bytes32[]",
          "name": "nextStates",
          "type": "bytes32[]"
        },
        {
          "internalType": "bytes32[]",
          "name": "allowedRoles",
          "type": "bytes32[]"
        },
        {
          "internalType": "bytes4[]",
          "name": "allowedFunctions",
          "type": "bytes4[]"
        },
        {
          "internalType": "bytes4",
          "name": "preFunction",
          "type": "bytes4"
        }
      ],
      "stateMutability": "view",
      "type": "function"
    },
    {
      "inputs": [
        {
          "internalType": "uint256",
          "name": "",
          "type": "uint256"
        }
      ],
      "name": "history",
      "outputs": [
        {
          "internalType": "bytes32",
          "name": "fromState",
          "type": "bytes32"
        },
        {
          "internalType": "bytes32",
          "name": "toState",
          "type": "bytes32"
        },
        {
          "internalType": "address",
          "name": "actor",
          "type": "address"
        },
        {
          "internalType": "uint256",
          "name": "timestamp",
          "type": "uint256"
        }
      ],
      "stateMutability": "view",
      "type": "function"
    },
    {
      "inputs": [
        {
          "internalType": "string",
          "name": "ipfsFieldContainerHash",
          "type": "string"
        }
      ],
      "name": "setIpfsFieldContainerHash",
      "outputs": [],
      "stateMutability": "nonpayable",
      "type": "function"
    },
    {
      "inputs": [
        {
          "internalType": "bytes32",
          "name": "toState",
          "type": "bytes32"
        }
      ],
      "name": "transitionState",
      "outputs": [],
      "stateMutability": "nonpayable",
      "type": "function"
    },
    {
      "inputs": [
        {
          "internalType": "string",
          "name": "name",
          "type": "string"
        },
        {
          "internalType": "string",
          "name": "caPaKey",
          "type": "string"
        },
        {
          "internalType": "address",
          "name": "owner",
          "type": "address"
        },
        {
          "internalType": "string",
          "name": "ipfsFieldContainerHash",
          "type": "string"
        },
        {
          "internalType": "string",
          "name": "uiFieldDefinitionsHash",
          "type": "string"
        }
      ],
      "name": "edit",
      "outputs": [],
      "stateMutability": "nonpayable",
      "type": "function"
    },
    {
      "inputs": [],
      "name": "getRoles",
      "outputs": [
        {
          "internalType": "bytes32[]",
          "name": "",
          "type": "bytes32[]"
        }
      ],
      "stateMutability": "view",
      "type": "function"
    },
    {
      "inputs": [
        {
          "internalType": "string",
          "name": "rejectionReason",
          "type": "string"
        }
      ],
      "name": "setPlotNeedsUpdateRejectionReason",
      "outputs": [],
      "stateMutability": "nonpayable",
      "type": "function"
    },
    {
      "inputs": [
        {
          "internalType": "string",
          "name": "rejectionReason",
          "type": "string"
        }
      ],
      "name": "setPlotRejectedRejectionReason",
      "outputs": [],
      "stateMutability": "nonpayable",
      "type": "function"
    },
    {
      "inputs": [
        {
          "internalType": "string",
          "name": "rejectionReason",
          "type": "string"
        }
      ],
      "name": "setTransferOwnershipRejectionReason",
      "outputs": [],
      "stateMutability": "nonpayable",
      "type": "function"
    },
    {
      "inputs": [
        {
          "internalType": "string",
          "name": "rejectionReason",
          "type": "string"
        }
      ],
      "name": "setSplitNeedsUpdateRejectionReason",
      "outputs": [],
      "stateMutability": "nonpayable",
      "type": "function"
    },
    {
      "inputs": [
        {
          "internalType": "string",
          "name": "rejectionReason",
          "type": "string"
        }
      ],
      "name": "setSplitRejectedRejectionReason",
      "outputs": [],
      "stateMutability": "nonpayable",
      "type": "function"
    },
    {
      "inputs": [],
      "name": "DID",
      "outputs": [
        {
          "internalType": "string",
          "name": "",
          "type": "string"
        }
      ],
      "stateMutability": "view",
      "type": "function"
    }
  ],
  "bytecode": "0x60e0604052692927a622afa0a226a4a760b11b6080908152600080516020620036f283398151915260a0526a524f4c455f4e4f5441525960a81b60c0526200004c9060089060036200123a565b503480156200005a57600080fd5b50604051620037f2380380620037f28339810160408190526200007d91620013ed565b600080546001600160a01b0319166001600160a01b0388161790558451620000ad90600b9060208801906200128a565b508351620000c390600c9060208701906200128a565b50600a80546001600160a01b0319166001600160a01b0385161790558151620000f49060079060208501906200128a565b5080516200010a9060099060208401906200128a565b506200011562000121565b50505050505062001519565b6200013b6000805160206200379283398151915262000bf8565b620001556000805160206200373283398151915262000bf8565b6200016f600080516020620036d283398151915262000bf8565b620001896000805160206200371283398151915262000bf8565b620001a36000805160206200375283398151915262000bf8565b620001bd600080516020620035f283398151915262000bf8565b620001d76000805160206200369283398151915262000bf8565b620001f1600080516020620037d283398151915262000bf8565b6200020b600080516020620036b283398151915262000bf8565b620002256000805160206200363283398151915262000bf8565b6200023f6000805160206200377283398151915262000bf8565b62000259600080516020620037b283398151915262000bf8565b620002736000805160206200365283398151915262000bf8565b6200028d6000805160206200367283398151915262000bf8565b620002b560008051602062003792833981519152692927a622afa0a226a4a760b11b62000cb6565b620002de600080516020620037928339815191526a524f4c455f4e4f5441525960a81b62000cb6565b62000308600080516020620037928339815191526000805160206200375283398151915262000d39565b6200033060008051602062003732833981519152692927a622afa0a226a4a760b11b62000cb6565b6200035a60008051602062003732833981519152600080516020620036f283398151915262000cb6565b6200038460008051602062003732833981519152600080516020620035f283398151915262000d39565b620003ae600080516020620037328339815191526000805160206200363283398151915262000d39565b620003d6600080516020620036d2833981519152692927a622afa0a226a4a760b11b62000cb6565b62000400600080516020620036d2833981519152600080516020620036f283398151915262000cb6565b6200042a600080516020620036d28339815191526000805160206200379283398151915262000d39565b62000450600080516020620036d2833981519152620013d162000e1960201b1762000f14565b6200047860008051602062003712833981519152692927a622afa0a226a4a760b11b62000cb6565b620004a260008051602062003712833981519152600080516020620036f283398151915262000cb6565b620004c860008051602062003712833981519152620013d162000e1960201b1762000f14565b620004f060008051602062003752833981519152692927a622afa0a226a4a760b11b62000cb6565b6200051a60008051602062003752833981519152600080516020620036f283398151915262000cb6565b6200053c600080516020620037528339815191526381f4e49d60e01b62000fc0565b6200055e60008051602062003752833981519152630a67eced60e21b62000fc0565b62000588600080516020620037528339815191526000805160206200373283398151915262000d39565b620005b260008051602062003752833981519152600080516020620036d283398151915262000d39565b620005dc600080516020620037528339815191526000805160206200371283398151915262000d39565b62000604600080516020620035f2833981519152692927a622afa0a226a4a760b11b62000cb6565b6200062d600080516020620035f28339815191526a524f4c455f4e4f5441525960a81b62000cb6565b62000657600080516020620035f28339815191526000805160206200369283398151915262000d39565b6200067f60008051602062003692833981519152692927a622afa0a226a4a760b11b62000cb6565b620006a960008051602062003692833981519152600080516020620036f283398151915262000cb6565b620006cb600080516020620036928339815191526327a087dd60e11b62000fc0565b620006f560008051602062003692833981519152600080516020620037d283398151915262000d39565b6200071f60008051602062003692833981519152600080516020620036b283398151915262000d39565b62000747600080516020620037d2833981519152692927a622afa0a226a4a760b11b62000cb6565b62000771600080516020620037d2833981519152600080516020620036f283398151915262000cb6565b6200079b600080516020620037d2833981519152600080516020620035f283398151915262000d39565b620007c5600080516020620037d28339815191526000805160206200373283398151915262000d39565b620007eb600080516020620037d2833981519152620014c2620010f860201b1762000f14565b62000813600080516020620036b2833981519152692927a622afa0a226a4a760b11b62000cb6565b6200083d600080516020620036b2833981519152600080516020620036f283398151915262000cb6565b62000867600080516020620036b28339815191526000805160206200373283398151915262000d39565b6200088d600080516020620036b2833981519152620014c2620010f860201b1762000f14565b620008b560008051602062003632833981519152692927a622afa0a226a4a760b11b62000cb6565b620008de600080516020620036328339815191526a524f4c455f4e4f5441525960a81b62000cb6565b62000908600080516020620036328339815191526000805160206200377283398151915262000d39565b6200093060008051602062003772833981519152692927a622afa0a226a4a760b11b62000cb6565b6200095a60008051602062003772833981519152600080516020620036f283398151915262000cb6565b6200097c600080516020620037728339815191526381f4e49d60e01b62000fc0565b6200099e60008051602062003772833981519152630a67eced60e21b62000fc0565b620009c860008051602062003772833981519152600080516020620037b283398151915262000d39565b620009f2600080516020620037728339815191526000805160206200365283398151915262000d39565b62000a1c600080516020620037728339815191526000805160206200367283398151915262000d39565b62000a44600080516020620037b2833981519152692927a622afa0a226a4a760b11b62000cb6565b62000a6e600080516020620037b2833981519152600080516020620036f283398151915262000cb6565b62000a94600080516020620037b2833981519152620014d16200110960201b1762000f14565b62000abe600080516020620037b28339815191526000805160206200363283398151915262000d39565b62000ae8600080516020620037b28339815191526000805160206200373283398151915262000d39565b62000b1060008051602062003652833981519152692927a622afa0a226a4a760b11b62000cb6565b62000b3a60008051602062003652833981519152600080516020620036f283398151915262000cb6565b62000b6260008051602062003672833981519152692927a622afa0a226a4a760b11b62000cb6565b62000b8c60008051602062003672833981519152600080516020620036f283398151915262000cb6565b62000bb260008051602062003672833981519152620014d16200110960201b1762000f14565b62000bdc600080516020620036728339815191526000805160206200373283398151915262000d39565b62000bf6600080516020620037928339815191526200111a565b565b60008181526002602052604090205460ff161562000c695760405162461bcd60e51b815260206004820152602360248201527f746869732073746174652068617320616c7265616479206265656e20637265616044820152621d195960ea1b60648201526084015b60405180910390fd5b6000818152600260205260408120805460ff191660019081179091556003805491820181559091527fc2575a0e9e593c00f959f8c92f12db2869c3395a3b0502d05e2516446f71f85b0155565b600082815260026020526040902054829060ff1662000d125760405162461bcd60e51b8152602060048201526022602482015260008051602062003612833981519152604482015261195d60f21b606482015260840162000c60565b50600091825260026020818152604084209091018054600181018255908452922090910155565b600082815260026020526040902054829060ff1662000d955760405162461bcd60e51b8152602060048201526022602482015260008051602062003612833981519152604482015261195d60f21b606482015260840162000c60565b600082815260026020526040902054829060ff1662000df15760405162461bcd60e51b8152602060048201526022602482015260008051602062003612833981519152604482015261195d60f21b606482015260840162000c60565b5050600091825260026020908152604083206005018054600181018255908452922090910155565b6000600d805462000e2a90620014c6565b80601f016020809104026020016040519081016040528092919081815260200182805462000e5890620014c6565b801562000ea95780601f1062000e7d5761010080835404028352916020019162000ea9565b820191906000526020600020905b81548152906001019060200180831162000e8b57829003601f168201915b50505050509050600081511162000f0f5760405162461bcd60e51b8152602060048201526024808201527f4120726561736f6e20666f7220612072656a656374696f6e20697320726571756044820152631a5c995960e21b606482015260840162000c60565b505050565b600082815260026020526040902054829060ff1662000f705760405162461bcd60e51b8152602060048201526022602482015260008051602062003612833981519152604482015261195d60f21b606482015260840162000c60565b5060009182526002602090815260408320600390810180546001810182559085529190932060048204018054919093166008026101000a6001600160401b03818102199092169290911602179055565b600082815260026020526040902054829060ff166200101c5760405162461bcd60e51b8152602060048201526022602482015260008051602062003612833981519152604482015261195d60f21b606482015260840162000c60565b6001600160e01b0319821660009081526006602052604090205460ff16620010c0576001600160e01b0319821660009081526006602052604081208054600160ff1990911681179091556005805491820181559091527f036b6384b5eca791c62761152d0c79bb0604c104a5fb6f4eb0703f3154bb3db06008820401805463ffffffff60079093166004026101000a928302191660e085901c929092029190911790555b5060009182526002602090815260408084206001600160e01b031990931684526001928301909152909120805460ff19169091179055565b6000600e805462000e2a90620014c6565b6000600f805462000e2a90620014c6565b60008181526002602052604090205460ff166200118d5760405162461bcd60e51b815260206004820152602a60248201527f74686520696e697469616c20737461746520686173206e6f74206265656e20636044820152691c99585d1959081e595d60b21b606482015260840162000c60565b60045415620012355760405162461bcd60e51b815260206004820152606160248201527f7468652063757272656e742073746174652068617320616c726561647920626560448201527f656e207365742c20736f20796f752063616e6e6f7420636f6e6669677572652060648201527f74686520696e697469616c20737461746520616e64206f7665727269646520696084820152601d60fa1b60a482015260c40162000c60565b600455565b82805482825590600052602060002090810192821562001278579160200282015b82811115620012785782518255916020019190600101906200125b565b506200128692915062001306565b5090565b8280546200129890620014c6565b90600052602060002090601f016020900481019282620012bc576000855562001278565b82601f10620012d757805160ff191683800117855562001278565b82800160010185558215620012785791820182811115620012785782518255916020019190600101906200125b565b5b8082111562001286576000815560010162001307565b80516001600160a01b03811681146200133557600080fd5b919050565b600082601f8301126200134b578081fd5b81516001600160401b038082111562001368576200136862001503565b604051601f8301601f19908116603f0116810190828211818310171562001393576200139362001503565b81604052838152602092508683858801011115620013af578485fd5b8491505b83821015620013d25785820183015181830184015290820190620013b3565b83821115620013e357848385830101525b9695505050505050565b60008060008060008060c0878903121562001406578182fd5b62001411876200131d565b60208801519096506001600160401b03808211156200142e578384fd5b6200143c8a838b016200133a565b9650604089015191508082111562001452578384fd5b620014608a838b016200133a565b95506200147060608a016200131d565b9450608089015191508082111562001486578384fd5b620014948a838b016200133a565b935060a0890151915080821115620014aa578283fd5b50620014b989828a016200133a565b9150509295509295509295565b600181811c90821680620014db57607f821691505b60208210811415620014fd57634e487b7160e01b600052602260045260246000fd5b50919050565b634e487b7160e01b600052604160045260246000fd5b6120c980620015296000396000f3fe608060405234801561001057600080fd5b50600436106102895760003560e01c80637d8e00131161015c578063bce77f91116100ce578063d391014b11610087578063d391014b14610659578063ef120a6e1461066d578063ef15e5f114610675578063f7758ef71461069c578063fcbb5907146106a4578063fda5a40a146106cb57610289565b8063bce77f91146105e9578063c85a410514610610578063c8691b2a1461062e578063cf27d45314610641578063d04906cf14610649578063d28d88521461065157610289565b8063a7a38f0b11610120578063a7a38f0b1461050e578063ac517cc214610550578063af33bab114610571578063afe41f0a14610598578063b2bdfa7b146105b6578063b4fb0759146105c957610289565b80637d8e0013146104ab57806381f4e49d146104c9578063909a5df8146104dc578063910fd10a146104fe578063a4ddb0711461050657610289565b80633e44694f116102005780635478f468116101b95780635478f4681461044d57806356c57bd114610455578063608d1e2e146104685780636743331a1461047b578063694f11051461049057806371061398146104a357610289565b80633e44694f146103ae57806345d61ded146103c35780634a364f01146103ee5780634de6740e1461040b5780634e461b81146104135780634f410fba1461043a57610289565b8063299fb3b411610252578063299fb3b41461033b5780632e2bc0d51461034e578063304b1bd11461036357806330bd8158146103765780633682144914610393578063378aa701146103a657610289565b8062dd872d1461028e57806309648a9d146102be57806310cf18f3146102e257806315348780146102ff5780632662461c14610326575b600080fd5b6102ab7214d510551157d4d413125517d49154555154d5606a1b81565b6040519081526020015b60405180910390f35b6102d16102cc366004611ca2565b6106d3565b6040516102b5959493929190611ec4565b6102ab7214d510551157d41313d517d054141493d59151606a1b81565b6102ab7f53544154455f5452414e534645525f4f574e45525f524551554553540000000081565b610339610334366004611cba565b610a1d565b005b610339610349366004611cba565b610a93565b610356610b00565b6040516102b59190611eb1565b6102ab610371366004611ca2565b610b66565b6102ab722927a622afa620a7222fa922a3a4a9aa2920a960691b81565b6103396103a1366004611cf5565b610b87565b6102ab610bf9565b6103b6610c74565b6040516102b59190611f4f565b6000546103d6906001600160a01b031681565b6040516001600160a01b0390911681526020016102b5565b6102ab7214d510551157d41313d517d49155925155d151606a1b81565b6103b6610c9c565b6102ab7f53544154455f5452414e534645525f4f574e45525f4e454544535f555044000081565b610339610448366004611cba565b610d2a565b6001546102ab565b610339610463366004611cba565b610d9e565b610339610476366004611cba565b610db5565b6102ab6a524f4c455f4e4f5441525960a81b81565b61033961049e366004611ca2565b610e24565b610356611063565b6102ab7314d510551157d4d413125517d054141493d5915160621b81565b6103396104d7366004611cba565b6110b9565b6102ab7753544154455f53504c49545f4e454544535f55504441544560401b81565b6103b6611127565b610356611134565b61052161051c366004611ca2565b61118a565b6040516102b5949392919093845260208401929092526001600160a01b03166040830152606082015260800190565b6102ab7653544154455f504c4f545f4e454544535f55504441544560481b81565b6102ab7f53544154455f53504c49545f444953415050524f56454400000000000000000081565b6102ab7314d510551157d41313d517d4d55093525515115160621b81565b600a546103d6906001600160a01b031681565b6102ab7514d510551157d41313d517d11254d054141493d5915160521b81565b6102ab7f53544154455f5452414e534645525f4f574e45525f524556494557454400000081565b6102ab7314d510551157d4d413125517d49155925155d15160621b81565b61052161063c366004611ca2565b6111cd565b6103b6611307565b6103b6611314565b6103b6611321565b6102ab692927a622afa0a226a4a760b11b81565b6103b661132e565b6102ab7f53544154455f5452414e534645525f4f574e45525f444953415050524f56000081565b6103b66113b7565b6102ab7f5550444154455f49504653434f4e5441494e4552484153485f524f4c4500000081565b6103b66113c4565b60008181526002602052604081206005546060918291829185918290819067ffffffffffffffff81111561071757634e487b7160e01b600052604160045260246000fd5b604051908082528060200260200182016040528015610740578160200160208202803683370190505b50905060005b60055481101561086b57600260008b815260200190815260200160002060010160006005838154811061078957634e487b7160e01b600052603260045260246000fd5b6000918252602080832060088304015460079092166004026101000a90910460e01b6001600160e01b031916835282019290925260400190205460ff161561085957600581815481106107ec57634e487b7160e01b600052603260045260246000fd5b90600052602060002090600891828204019190066004029054906101000a900460e01b828460ff168151811061083257634e487b7160e01b600052603260045260246000fd5b6001600160e01b031990921660209283029190910190910152610856600184611fec565b92505b806108638161204c565b915050610746565b5060008260ff1667ffffffffffffffff81111561089857634e487b7160e01b600052604160045260246000fd5b6040519080825280602002602001820160405280156108c1578160200160208202803683370190505b50905060005b8360ff16811015610945578281815181106108f257634e487b7160e01b600052603260045260246000fd5b602002602001015182828151811061091a57634e487b7160e01b600052603260045260246000fd5b6001600160e01b0319909216602092830291909101909101528061093d8161204c565b9150506108c7565b50898460050185600201838760060160009054906101000a900460e01b838054806020026020016040519081016040528092919081815260200182805480156109ad57602002820191906000526020600020905b815481526020019060010190808311610999575b50505050509350828054806020026020016040519081016040528092919081815260200182805480156109ff57602002820191906000526020600020905b8154815260200190600101908083116109eb575b50505050509250985098509850985098505050505091939590929450565b60045460009081526002602090815260408083206001600160e01b0319843516845260010190915290205460ff16610a705760405162461bcd60e51b8152600401610a6790611fa2565b60405180910390fd5b610a90817214d510551157d41313d517d054141493d59151606a1b6114e0565b50565b60045460009081526002602090815260408083206001600160e01b0319843516845260010190915290205460ff16610add5760405162461bcd60e51b8152600401610a6790611fa2565b610a90817514d510551157d41313d517d11254d054141493d5915160521b6114e0565b600454600090815260026020908152604091829020600501805483518184028101840190945280845260609392830182828015610b5c57602002820191906000526020600020905b815481526020019060010190808311610b48575b5050505050905090565b60088181548110610b7657600080fd5b600091825260209091200154905081565b8451610b9a90600b906020880190611b4c565b508351610bae90600c906020870190611b4c565b50600a80546001600160a01b0319166001600160a01b0385161790558151610bdd906007906020850190611b4c565b508051610bf1906009906020840190611b4c565b505050505050565b60045460009081526002602052604081205460ff16610c6d5760405162461bcd60e51b815260206004820152602a60248201527f74686520696e697469616c20737461746520686173206e6f74206265656e20636044820152691c99585d1959081e595d60b21b6064820152608401610a67565b5060045490565b6060600c604051602001610c889190611df7565b604051602081830303815290604052905090565b60098054610ca990612011565b80601f0160208091040260200160405190810160405280929190818152602001828054610cd590612011565b8015610d225780601f10610cf757610100808354040283529160200191610d22565b820191906000526020600020905b815481529060010190602001808311610d0557829003601f168201915b505050505081565b60045460009081526002602090815260408083206001600160e01b0319843516845260010190915290205460ff16610d745760405162461bcd60e51b8152600401610a6790611fa2565b610a90817f53544154455f5452414e534645525f4f574e45525f4e454544535f55504400006115dd565b8051610db1906007906020840190611b4c565b5050565b60045460009081526002602090815260408083206001600160e01b0319843516845260010190915290205460ff16610dff5760405162461bcd60e51b8152600401610a6790611fa2565b610a90817753544154455f53504c49545f4e454544535f55504441544560401b6114e0565b600354610e845760405162461bcd60e51b815260206004820152602860248201527f746869732073746174656d616368696e6520686173206e6f74206265656e2073604482015267195d1d5c081e595d60c21b6064820152608401610a67565b80610e96610e90610bf9565b826116d0565b600480548382556000848152600260205260408120919291909101905b8154811015610f2c57610f1a8386848481548110610ee157634e487b7160e01b600052603260045260246000fd5b90600052602060002090600491828204019190066008029054906101000a90048015611bd0021767ffffffffffffffff1663ffffffff16565b80610f248161204c565b915050610eb3565b506040805160808101825283815260208082018781523383850181815242606080870191825260018054808201825560009190915296517fb10e2d527612073b26eecdfd717e6a320cf44b4afac2b0732d9fcbe2b7fa0cf660049889029081019190915594517fb10e2d527612073b26eecdfd717e6a320cf44b4afac2b0732d9fcbe2b7fa0cf786015591517fb10e2d527612073b26eecdfd717e6a320cf44b4afac2b0732d9fcbe2b7fa0cf8850180546001600160a01b0319166001600160a01b03909216919091179055517fb10e2d527612073b26eecdfd717e6a320cf44b4afac2b0732d9fcbe2b7fa0cf99093019290925592548451938452918301869052928201527f483a31c379a4b707332853662276a3424ec44f0ccbfc20d78fd9d143694f7669910160405180910390a150505050565b60606008805480602002602001604051908101604052809291908181526020018280548015610b5c5760200282019190600052602060002090815481526020019060010190808311610b48575050505050905090565b60045460009081526002602090815260408083206001600160e01b0319843516845260010190915290205460ff166111035760405162461bcd60e51b8152600401610a6790611fa2565b610a90817653544154455f504c4f545f4e454544535f55504441544560481b6114e0565b60078054610ca990612011565b60606003805480602002602001604051908101604052809291908181526020018280548015610b5c5760200282019190600052602060002090815481526020019060010190808311610b48575050505050905090565b6001818154811061119a57600080fd5b60009182526020909120600490910201805460018201546002830154600390930154919350916001600160a01b03169084565b600080808060015485106112195760405162461bcd60e51b8152602060048201526013602482015272496e646578206f7574206f6620626f756e647360681b6044820152606401610a67565b6001858154811061123a57634e487b7160e01b600052603260045260246000fd5b9060005260206000209060040201600001546001868154811061126d57634e487b7160e01b600052603260045260246000fd5b906000526020600020906004020160010154600187815481106112a057634e487b7160e01b600052603260045260246000fd5b906000526020600020906004020160020160009054906101000a90046001600160a01b0316600188815481106112e657634e487b7160e01b600052603260045260246000fd5b90600052602060002090600402016003015493509350935093509193509193565b600f8054610ca990612011565b600e8054610ca990612011565b600b8054610ca990612011565b60606007805461133d90612011565b80601f016020809104026020016040519081016040528092919081815260200182805461136990612011565b8015610b5c5780601f1061138b57610100808354040283529160200191610b5c565b820191906000526020600020905b81548152906001019060200180831161139957509395945050505050565b600c8054610ca990612011565b600d8054610ca990612011565b6000600d80546113e090612011565b80601f016020809104026020016040519081016040528092919081815260200182805461140c90612011565b80156114595780601f1061142e57610100808354040283529160200191611459565b820191906000526020600020905b81548152906001019060200180831161143c57829003601f168201915b5050505050905060008151116114bd5760405162461bcd60e51b8152602060048201526024808201527f4120726561736f6e20666f7220612072656a656374696f6e20697320726571756044820152631a5c995960e21b6064820152608401610a67565b505050565b6000600e80546113e090612011565b6000600f80546113e090612011565b6000600d80546114ef90612011565b80601f016020809104026020016040519081016040528092919081815260200182805461151b90612011565b80156115685780601f1061153d57610100808354040283529160200191611568565b820191906000526020600020905b81548152906001019060200180831161154b57829003601f168201915b5050505050905060008151116115c05760405162461bcd60e51b815260206004820181905260248201527f5468652072656a656374696f6e20726561736f6e2069732072657175697265646044820152606401610a67565b82516115d390600d906020860190611b4c565b506114bd82610e24565b6000600e80546115ec90612011565b80601f016020809104026020016040519081016040528092919081815260200182805461161890612011565b80156116655780601f1061163a57610100808354040283529160200191611665565b820191906000526020600020905b81548152906001019060200180831161164857829003601f168201915b5050505050905060008151116116bd5760405162461bcd60e51b815260206004820181905260248201527f5468652072656a656374696f6e20726561736f6e2069732072657175697265646044820152606401610a67565b82516115d390600e906020860190611b4c565b60008281526002602052604090205460ff1661174c5760405162461bcd60e51b815260206004820152603560248201527f7468652066726f6d20737461746520686173206e6f74206265656e20636f6e666044820152741a59dd5c9959081a5b881d1a1a5cc81bd89a9958dd605a1b6064820152608401610a67565b60008181526002602052604090205460ff166117c65760405162461bcd60e51b815260206004820152603360248201527f74686520746f20737461746520686173206e6f74206265656e20636f6e6669676044820152721d5c9959081a5b881d1a1a5cc81bd89a9958dd606a1b6064820152608401610a67565b6117d08282611911565b6118545760405162461bcd60e51b815260206004820152604960248201527f74686520726571756573746564206e657874207374617465206973206e6f742060448201527f616e20616c6c6f776564206e65787420737461746520666f72207468697320746064820152683930b739b4ba34b7b760b91b608482015260a401610a67565b61185d816119cb565b6119075760405162461bcd60e51b815260206004820152606960248201527f7468652073656e646572206f662074686973207472616e73616374696f6e206460448201527f6f6573206e6f742068617665206120726f6c65207468617420616c6c6f77732060648201527f7472616e736974696f6e206265747765656e207468652066726f6d20616e6420608482015268746f2073746174657360b81b60a482015260c401610a67565b610db18282611a4e565b6000828152600260205260408120600501815b81548110156119c3576040805160208101869052016040516020818303038152906040528051906020012082828154811061196f57634e487b7160e01b600052603260045260246000fd5b906000526020600020015460405160200161198c91815260200190565b6040516020818303038152906040528051906020012014156119b157600192506119c3565b806119bb8161204c565b915050611924565b505092915050565b600081815260026020819052604082200180546119e757600191505b60005b8154811015611a4757611a2733838381548110611a1757634e487b7160e01b600052603260045260246000fd5b9060005260206000200154611aa7565b15611a355760019250611a47565b80611a3f8161204c565b9150506119ea565b5050919050565b6000818152600260205260408120600301905b8154811015611aa157611a8f8484848481548110610ee157634e487b7160e01b600052603260045260246000fd5b80611a998161204c565b915050611a61565b50505050565b600080546001600160a01b03161580611b455750600054604051630dace25b60e31b81526001600160a01b0385811660048301523060248301526044820185905290911690636d6712d89060640160206040518083038186803b158015611b0d57600080fd5b505afa158015611b21573d6000803e3d6000fd5b505050506040513d601f19601f82011682018060405250810190611b459190611c82565b9392505050565b828054611b5890612011565b90600052602060002090601f016020900481019282611b7a5760008555611bc0565b82601f10611b9357805160ff1916838001178555611bc0565b82800160010185558215611bc0579182015b82811115611bc0578251825591602001919060010190611ba5565b50611bcc929150611be6565b5090565b634e487b7160e01b600052605160045260246000fd5b5b80821115611bcc5760008155600101611be7565b600082601f830112611c0b578081fd5b813567ffffffffffffffff80821115611c2657611c2661207d565b604051601f8301601f19908116603f01168101908282118183101715611c4e57611c4e61207d565b81604052838152866020858801011115611c66578485fd5b8360208701602083013792830160200193909352509392505050565b600060208284031215611c93578081fd5b81518015158114611b45578182fd5b600060208284031215611cb3578081fd5b5035919050565b600060208284031215611ccb578081fd5b813567ffffffffffffffff811115611ce1578182fd5b611ced84828501611bfb565b949350505050565b600080600080600060a08688031215611d0c578081fd5b853567ffffffffffffffff80821115611d23578283fd5b611d2f89838a01611bfb565b96506020880135915080821115611d44578283fd5b611d5089838a01611bfb565b9550604088013591506001600160a01b0382168214611d6d578283fd5b90935060608701359080821115611d82578283fd5b611d8e89838a01611bfb565b93506080880135915080821115611da3578283fd5b50611db088828901611bfb565b9150509295509295909350565b6000815180845260208085019450808401835b83811015611dec57815187529582019590820190600101611dd0565b509495945050505050565b60006d3234b21d3232b6b79d383637ba1d60911b8252600e81845483600182811c915080831680611e2957607f831692505b6020808410821415611e4957634e487b7160e01b88526022600452602488fd5b818015611e5d5760018114611e7257611ea2565b60ff1986168a890152848a0188019650611ea2565b60008b815260209020895b86811015611e985781548c82018b0152908501908301611e7d565b505087858b010196505b50949998505050505050505050565b600060208252611b456020830184611dbd565b6000868252602060a081840152611ede60a0840188611dbd565b8381036040850152611ef08188611dbd565b84810360608601528651808252838801925090830190845b81811015611f2e5783516001600160e01b03191683529284019291840191600101611f08565b505080935050505063ffffffff60e01b831660808301529695505050505050565b6000602080835283518082850152825b81811015611f7b57858101830151858201604001528201611f5f565b81811115611f8c5783604083870101525b50601f01601f1916929092016040019392505050565b6020808252602a908201527f746869732066756e6374696f6e206973206e6f7420616c6c6f77656420696e206040820152697468697320737461746560b01b606082015260800190565b600060ff821660ff84168060ff0382111561200957612009612067565b019392505050565b600181811c9082168061202557607f821691505b6020821081141561204657634e487b7160e01b600052602260045260246000fd5b50919050565b600060001982141561206057612060612067565b5060010190565b634e487b7160e01b600052601160045260246000fd5b634e487b7160e01b600052604160045260246000fdfea26469706673582212204c2622552f1476fedd97a81c67ad6b90eb808ad96fb51a19799b91ff5c4deb9864736f6c6343000803003353544154455f5452414e534645525f4f574e45525f524551554553540000000074686520737461746520686173206e6f74206265656e2063726561746564207953544154455f53504c49545f524551554553540000000000000000000000000053544154455f53504c49545f415050524f56454400000000000000000000000053544154455f53504c49545f444953415050524f56454400000000000000000053544154455f5452414e534645525f4f574e45525f524556494557454400000053544154455f5452414e534645525f4f574e45525f444953415050524f56000053544154455f504c4f545f4e454544535f555044415445000000000000000000524f4c455f4c414e445f5245474953545241520000000000000000000000000053544154455f504c4f545f444953415050524f5645440000000000000000000053544154455f504c4f545f415050524f5645440000000000000000000000000053544154455f504c4f545f52455649455745440000000000000000000000000053544154455f53504c49545f524556494557454400000000000000000000000053544154455f504c4f545f5355424d495454454400000000000000000000000053544154455f53504c49545f4e454544535f555044415445000000000000000053544154455f5452414e534645525f4f574e45525f4e454544535f5550440000",
  "immutableReferences": {},
  "source": "/**\n * Copyright (C) SettleMint NV - All Rights Reserved\n *\n * Use of this file is strictly prohibited without an active license agreement.\n * Distribution of this file, via any medium, is strictly prohibited.\n *\n * For license inquiries, contact hello@settlemint.com\n *\n * SPDX-License-Identifier: UNLICENSED\n */\n\npragma solidity ^0.8.0;\n\n//TODO: Hoe Eigendom registreren op naam?\n\nimport '../_library//provenance/statemachine/StateMachine.sol';\nimport '../_library//authentication/Secured.sol';\nimport '../_library//utility/metadata/IpfsFieldContainer.sol';\n\ncontract Plot is StateMachine, IpfsFieldContainer {\n  event PlotOwnerShipTransfered(address indexed from, address indexed to, address indexed plot, string caPaKey);\n  event PlotOwnershipTransferRefused(address indexed from, address indexed to, address indexed plot, string caPaKey);\n  event PlotApproved(address indexed plot, address indexed owner, string indexed caPaKey);\n  event PlotDisapproved(address indexed plot, address indexed owner, string indexed caPaKey);\n  event PlotSplitApproved(address indexed plot, address indexed owner, string indexed caPaKey);\n  event PloSplitRefused(address indexed plot, address indexed owner, string indexed caPaKey);\n\n  bytes32 public constant STATE_PLOT_SUBMITTED = 'STATE_PLOT_SUBMITTED';\n  bytes32 public constant STATE_PLOT_APPROVED = 'STATE_PLOT_APPROVED';\n  bytes32 public constant STATE_PLOT_NEEDS_UPDATE = 'STATE_PLOT_NEEDS_UPDATE';\n  bytes32 public constant STATE_PLOT_DISAPPROVED = 'STATE_PLOT_DISAPPROVED';\n  bytes32 public constant STATE_PLOT_REVIEWED = 'STATE_PLOT_REVIEWED';\n  bytes32 public constant STATE_TRANSFER_OWNER_REQUEST = 'STATE_TRANSFER_OWNER_REQUEST';\n  bytes32 public constant STATE_TRANSFER_OWNER_REVIEWED = 'STATE_TRANSFER_OWNER_REVIEWED';\n  bytes32 public constant STATE_TRANSFER_OWNER_NEEDS_UPD = 'STATE_TRANSFER_OWNER_NEEDS_UPD';\n  bytes32 public constant STATE_TRANSFER_OWNER_DISAPPROV = 'STATE_TRANSFER_OWNER_DISAPPROV';\n  bytes32 public constant STATE_SPLIT_REQUEST = 'STATE_SPLIT_REQUEST';\n  bytes32 public constant STATE_SPLIT_REVIEWED = 'STATE_SPLIT_REVIEWED';\n  bytes32 public constant STATE_SPLIT_NEEDS_UPDATE = 'STATE_SPLIT_NEEDS_UPDATE';\n  bytes32 public constant STATE_SPLIT_APPROVED = 'STATE_SPLIT_APPROVED';\n  bytes32 public constant STATE_SPLIT_DISAPPROVED = 'STATE_SPLIT_DISAPPROVED';\n\n  bytes32 public constant ROLE_LAND_REGISTRAR = 'ROLE_LAND_REGISTRAR';\n  bytes32 public constant ROLE_NOTARY = 'ROLE_NOTARY';\n  bytes32 public constant ROLE_ADMIN = 'ROLE_ADMIN';\n\n  bytes32[] public _roles = [ROLE_ADMIN, ROLE_LAND_REGISTRAR, ROLE_NOTARY];\n\n  string public _uiFieldDefinitionsHash;\n  address public _owner;\n  string public _name;\n  string public _caPaKey;\n  string public _plotRejectionReason;\n  string public _ownershipRejectionReason;\n  string public _splitRejectionReason;\n\n  constructor(\n    address gateKeeper,\n    string memory name,\n    string memory caPaKey,\n    address owner,\n    string memory ipfsFieldContainerHash,\n    string memory uiFieldDefinitionsHash\n  ) Secured(gateKeeper) {\n    _name = name;\n    _caPaKey = caPaKey;\n    _owner = owner;\n    _ipfsFieldContainerHash = ipfsFieldContainerHash;\n    _uiFieldDefinitionsHash = uiFieldDefinitionsHash;\n    setupStateMachine();\n  }\n\n  function edit(\n    string memory name,\n    string memory caPaKey,\n    address owner,\n    string memory ipfsFieldContainerHash,\n    string memory uiFieldDefinitionsHash\n  ) public {\n    _name = name;\n    _caPaKey = caPaKey;\n    _owner = owner;\n    _ipfsFieldContainerHash = ipfsFieldContainerHash;\n    _uiFieldDefinitionsHash = uiFieldDefinitionsHash;\n  }\n\n  function getRoles() public view returns (bytes32[] memory) {\n    return _roles;\n  }\n\n  function setPlotNeedsUpdateRejectionReason(string memory rejectionReason) public checkAllowedFunction {\n    setPlotRejectionReason(rejectionReason, STATE_PLOT_NEEDS_UPDATE);\n  }\n\n  function setPlotRejectedRejectionReason(string memory rejectionReason) public checkAllowedFunction {\n    setPlotRejectionReason(rejectionReason, STATE_PLOT_DISAPPROVED);\n  }\n\n  function setTransferOwnershipRejectionReason(string memory rejectionReason) public checkAllowedFunction {\n    setOwnerShipRejectionReason(rejectionReason, STATE_TRANSFER_OWNER_NEEDS_UPD);\n  }\n\n  function setSplitNeedsUpdateRejectionReason(string memory rejectionReason) public checkAllowedFunction {\n    setPlotRejectionReason(rejectionReason, STATE_SPLIT_NEEDS_UPDATE);\n  }\n\n  function setSplitRejectedRejectionReason(string memory rejectionReason) public checkAllowedFunction {\n    setPlotRejectionReason(rejectionReason, STATE_PLOT_APPROVED);\n  }\n\n  function DID() public view returns (string memory) {\n    return string(abi.encodePacked('did:demo:plot:', _caPaKey));\n  }\n\n  function setupStateMachine() internal override {\n    // Create all states\n    createState(STATE_PLOT_SUBMITTED);\n    createState(STATE_PLOT_APPROVED);\n    createState(STATE_PLOT_NEEDS_UPDATE);\n    createState(STATE_PLOT_DISAPPROVED);\n    createState(STATE_PLOT_REVIEWED);\n    createState(STATE_TRANSFER_OWNER_REQUEST);\n    createState(STATE_TRANSFER_OWNER_REVIEWED);\n    createState(STATE_TRANSFER_OWNER_NEEDS_UPD);\n    createState(STATE_TRANSFER_OWNER_DISAPPROV);\n    createState(STATE_SPLIT_REQUEST);\n    createState(STATE_SPLIT_REVIEWED);\n    createState(STATE_SPLIT_NEEDS_UPDATE);\n    createState(STATE_SPLIT_APPROVED);\n    createState(STATE_SPLIT_DISAPPROVED);\n\n    // Add properties\n    // STATE_PLOT_SUBMITTED\n    addRoleForState(STATE_PLOT_SUBMITTED, ROLE_ADMIN);\n    addRoleForState(STATE_PLOT_SUBMITTED, ROLE_NOTARY);\n    addNextStateForState(STATE_PLOT_SUBMITTED, STATE_PLOT_REVIEWED);\n\n    // STATE_PLOT_APPROVED\n    addRoleForState(STATE_PLOT_APPROVED, ROLE_ADMIN);\n    addRoleForState(STATE_PLOT_APPROVED, ROLE_LAND_REGISTRAR);\n    addNextStateForState(STATE_PLOT_APPROVED, STATE_TRANSFER_OWNER_REQUEST);\n    addNextStateForState(STATE_PLOT_APPROVED, STATE_SPLIT_REQUEST);\n\n    // STATE_PLOT_NEEDS_UPDATE\n    addRoleForState(STATE_PLOT_NEEDS_UPDATE, ROLE_ADMIN);\n    addRoleForState(STATE_PLOT_NEEDS_UPDATE, ROLE_LAND_REGISTRAR);\n    addNextStateForState(STATE_PLOT_NEEDS_UPDATE, STATE_PLOT_SUBMITTED);\n    addPreConditionForState(STATE_PLOT_NEEDS_UPDATE, hasPlotRejectionReason);\n\n    // STATE_PLOT_DISAPPROVED\n    addRoleForState(STATE_PLOT_DISAPPROVED, ROLE_ADMIN);\n    addRoleForState(STATE_PLOT_DISAPPROVED, ROLE_LAND_REGISTRAR);\n    addPreConditionForState(STATE_PLOT_DISAPPROVED, hasPlotRejectionReason);\n\n    // STATE_PLOT_REVIEWED\n    addRoleForState(STATE_PLOT_REVIEWED, ROLE_ADMIN);\n    addRoleForState(STATE_PLOT_REVIEWED, ROLE_LAND_REGISTRAR);\n    addAllowedFunctionForState(STATE_PLOT_REVIEWED, this.setPlotNeedsUpdateRejectionReason.selector);\n    addAllowedFunctionForState(STATE_PLOT_REVIEWED, this.setPlotRejectedRejectionReason.selector);\n    addNextStateForState(STATE_PLOT_REVIEWED, STATE_PLOT_APPROVED);\n    addNextStateForState(STATE_PLOT_REVIEWED, STATE_PLOT_NEEDS_UPDATE);\n    addNextStateForState(STATE_PLOT_REVIEWED, STATE_PLOT_DISAPPROVED);\n\n    // STATE_TRANSFER_OWNER_REQUEST\n    addRoleForState(STATE_TRANSFER_OWNER_REQUEST, ROLE_ADMIN);\n    addRoleForState(STATE_TRANSFER_OWNER_REQUEST, ROLE_NOTARY);\n    addNextStateForState(STATE_TRANSFER_OWNER_REQUEST, STATE_TRANSFER_OWNER_REVIEWED);\n\n    // STATE_TRANSFER_OWNER_REVIEWED\n    addRoleForState(STATE_TRANSFER_OWNER_REVIEWED, ROLE_ADMIN);\n    addRoleForState(STATE_TRANSFER_OWNER_REVIEWED, ROLE_LAND_REGISTRAR);\n    addAllowedFunctionForState(STATE_TRANSFER_OWNER_REVIEWED, this.setTransferOwnershipRejectionReason.selector);\n    addNextStateForState(STATE_TRANSFER_OWNER_REVIEWED, STATE_TRANSFER_OWNER_NEEDS_UPD);\n    addNextStateForState(STATE_TRANSFER_OWNER_REVIEWED, STATE_TRANSFER_OWNER_DISAPPROV);\n\n    // STATE_TRANSFER_OWNER_NEEDS_UPD\n    addRoleForState(STATE_TRANSFER_OWNER_NEEDS_UPD, ROLE_ADMIN);\n    addRoleForState(STATE_TRANSFER_OWNER_NEEDS_UPD, ROLE_LAND_REGISTRAR);\n    addNextStateForState(STATE_TRANSFER_OWNER_NEEDS_UPD, STATE_TRANSFER_OWNER_REQUEST);\n    addNextStateForState(STATE_TRANSFER_OWNER_NEEDS_UPD, STATE_PLOT_APPROVED);\n    addPreConditionForState(STATE_TRANSFER_OWNER_NEEDS_UPD, hasOwnershipRejectionReason);\n\n    // STATE_TRANSFER_OWNER_DISAPPROV\n    addRoleForState(STATE_TRANSFER_OWNER_DISAPPROV, ROLE_ADMIN);\n    addRoleForState(STATE_TRANSFER_OWNER_DISAPPROV, ROLE_LAND_REGISTRAR);\n    addNextStateForState(STATE_TRANSFER_OWNER_DISAPPROV, STATE_PLOT_APPROVED);\n    addPreConditionForState(STATE_TRANSFER_OWNER_DISAPPROV, hasOwnershipRejectionReason);\n\n    // STATE_SPLIT_REQUEST\n    addRoleForState(STATE_SPLIT_REQUEST, ROLE_ADMIN);\n    addRoleForState(STATE_SPLIT_REQUEST, ROLE_NOTARY);\n    addNextStateForState(STATE_SPLIT_REQUEST, STATE_SPLIT_REVIEWED);\n\n    // STATE_SPLIT_REVIEWED\n    addRoleForState(STATE_SPLIT_REVIEWED, ROLE_ADMIN);\n    addRoleForState(STATE_SPLIT_REVIEWED, ROLE_LAND_REGISTRAR);\n    addAllowedFunctionForState(STATE_SPLIT_REVIEWED, this.setPlotNeedsUpdateRejectionReason.selector);\n    addAllowedFunctionForState(STATE_SPLIT_REVIEWED, this.setPlotRejectedRejectionReason.selector);\n    addNextStateForState(STATE_SPLIT_REVIEWED, STATE_SPLIT_NEEDS_UPDATE);\n    addNextStateForState(STATE_SPLIT_REVIEWED, STATE_SPLIT_APPROVED);\n    addNextStateForState(STATE_SPLIT_REVIEWED, STATE_SPLIT_DISAPPROVED);\n\n    // STATE_SPLIT_NEEDS_UPDATE\n    addRoleForState(STATE_SPLIT_NEEDS_UPDATE, ROLE_ADMIN);\n    addRoleForState(STATE_SPLIT_NEEDS_UPDATE, ROLE_LAND_REGISTRAR);\n    addPreConditionForState(STATE_SPLIT_NEEDS_UPDATE, hasSplittRejectionReason);\n    addNextStateForState(STATE_SPLIT_NEEDS_UPDATE, STATE_SPLIT_REQUEST);\n    addNextStateForState(STATE_SPLIT_NEEDS_UPDATE, STATE_PLOT_APPROVED);\n\n    // STATE_SPLIT_APPROVED\n    // Once a plot has been split it cannot be used again\n    addRoleForState(STATE_SPLIT_APPROVED, ROLE_ADMIN);\n    addRoleForState(STATE_SPLIT_APPROVED, ROLE_LAND_REGISTRAR);\n\n    // STATE_SPLIT_DISAPPROVED\n    addRoleForState(STATE_SPLIT_DISAPPROVED, ROLE_ADMIN);\n    addRoleForState(STATE_SPLIT_DISAPPROVED, ROLE_LAND_REGISTRAR);\n    addPreConditionForState(STATE_SPLIT_DISAPPROVED, hasSplittRejectionReason);\n    addNextStateForState(STATE_SPLIT_DISAPPROVED, STATE_PLOT_APPROVED);\n\n    setInitialState(STATE_PLOT_SUBMITTED);\n  }\n\n  /**\n   * Precondition functions\n   */\n  function hasPlotRejectionReason(\n    bytes32, /* fromState */\n    bytes32 /*toState*/\n  ) internal view {\n    bytes memory reasonForRejection = bytes(_plotRejectionReason);\n    require(reasonForRejection.length > 0, 'A reason for a rejection is required');\n  }\n\n  function setPlotRejectionReason(string memory rejectionReason, bytes32 nextState) private {\n    bytes memory bytesRejectionReason = bytes(_plotRejectionReason);\n    require(bytesRejectionReason.length > 0, 'The rejection reason is required');\n    _plotRejectionReason = rejectionReason;\n    transitionState(nextState);\n  }\n\n  function hasOwnershipRejectionReason(\n    bytes32, /* fromState */\n    bytes32 /*toState*/\n  ) internal view {\n    bytes memory reasonForRejection = bytes(_ownershipRejectionReason);\n    require(reasonForRejection.length > 0, 'A reason for a rejection is required');\n  }\n\n  function setOwnerShipRejectionReason(string memory rejectionReason, bytes32 nextState) private {\n    bytes memory bytesRejectionReason = bytes(_ownershipRejectionReason);\n    require(bytesRejectionReason.length > 0, 'The rejection reason is required');\n    _ownershipRejectionReason = rejectionReason;\n    transitionState(nextState);\n  }\n\n  function hasSplittRejectionReason(\n    bytes32, /* fromState */\n    bytes32 /*toState*/\n  ) internal view {\n    bytes memory reasonForRejection = bytes(_splitRejectionReason);\n    require(reasonForRejection.length > 0, 'A reason for a rejection is required');\n  }\n\n  function setSplitRejectionReason(string memory rejectionReason, bytes32 nextState) private {\n    bytes memory bytesRejectionReason = bytes(_splitRejectionReason);\n    require(bytesRejectionReason.length > 0, 'The rejection reason is required');\n    _splitRejectionReason = rejectionReason;\n    transitionState(nextState);\n  }\n}\n",
  "sourcePath": "/home/coder/project/contracts/plot/Plot.sol",
  "compiler": {
    "name": "solc",
    "version": "0.8.3+commit.8d00100c.Emscripten.clang"
  },
  "schemaVersion": "3.4.3",
  "updatedAt": "2021-09-21T08:20:59.548Z",
  "devdoc": {
    "kind": "dev",
    "methods": {
      "getCurrentState()": {
        "details": "Requires the current state to be configured before calling this function"
      },
      "getHistory(uint256)": {
        "details": "Requires the index to be within the bounds of the history array"
      },
      "transitionState(bytes32)": {
        "details": "Emits a Transition event after a successful transition."
      }
    },
    "version": 1
  },
  "userdoc": {
    "kind": "user",
    "methods": {
      "getAllStates()": {
        "notice": "Returns a list of all the possible states of this object."
      },
      "getCurrentState()": {
        "notice": "Returns the name of the current state of this object."
      },
      "getHistory(uint256)": {
        "notice": "Returns history as tuple for given index."
      },
      "getHistoryLength()": {
        "notice": "Returns the length of the history"
      },
      "getNextStates()": {
        "notice": "Returns a list of all the possible next states of the current state."
      },
      "getState(bytes32)": {
        "notice": "Returns state as tuple for give state."
      },
      "transitionState(bytes32)": {
        "notice": "Transitions the state and executes all callbacks."
      }
    },
    "version": 1
  }
}