{
  "contractName": "PlotRegistry",
  "abi": [
    {
      "inputs": [
        {
          "internalType": "address",
          "name": "gatekeeper",
          "type": "address"
        }
      ],
      "stateMutability": "nonpayable",
      "type": "constructor"
    },
    {
      "anonymous": false,
      "inputs": [
        {
          "indexed": false,
          "internalType": "address",
          "name": "statemachine",
          "type": "address"
        }
      ],
      "name": "StateMachineRegistered",
      "type": "event"
    },
    {
      "inputs": [],
      "name": "INSERT_STATEMACHINE_ROLE",
      "outputs": [
        {
          "internalType": "bytes32",
          "name": "",
          "type": "bytes32"
        }
      ],
      "stateMutability": "view",
      "type": "function"
    },
    {
      "inputs": [],
      "name": "gateKeeper",
      "outputs": [
        {
          "internalType": "contract GateKeeper",
          "name": "",
          "type": "address"
        }
      ],
      "stateMutability": "view",
      "type": "function"
    },
    {
      "inputs": [
        {
          "internalType": "uint256",
          "name": "index",
          "type": "uint256"
        }
      ],
      "name": "getByIndex",
      "outputs": [
        {
          "internalType": "address",
          "name": "key",
          "type": "address"
        },
        {
          "internalType": "address",
          "name": "contractAddress",
          "type": "address"
        }
      ],
      "stateMutability": "view",
      "type": "function"
    },
    {
      "inputs": [
        {
          "internalType": "address",
          "name": "someKey",
          "type": "address"
        }
      ],
      "name": "getByKey",
      "outputs": [
        {
          "internalType": "address",
          "name": "key",
          "type": "address"
        },
        {
          "internalType": "address",
          "name": "contractAddress",
          "type": "address"
        }
      ],
      "stateMutability": "view",
      "type": "function"
    },
    {
      "inputs": [],
      "name": "getIndex",
      "outputs": [
        {
          "internalType": "address[]",
          "name": "index",
          "type": "address[]"
        }
      ],
      "stateMutability": "view",
      "type": "function"
    },
    {
      "inputs": [],
      "name": "getIndexLength",
      "outputs": [
        {
          "internalType": "uint256",
          "name": "length",
          "type": "uint256"
        }
      ],
      "stateMutability": "view",
      "type": "function"
    },
    {
      "inputs": [
        {
          "internalType": "address",
          "name": "statemachine",
          "type": "address"
        }
      ],
      "name": "insert",
      "outputs": [],
      "stateMutability": "nonpayable",
      "type": "function"
    }
  ],
  "bytecode": "0x608060405234801561001057600080fd5b506040516105d03803806105d083398101604081905261002f91610052565b50600080546001600160a01b031981166001600160a01b03909116179055610080565b600060208284031215610063578081fd5b81516001600160a01b0381168114610079578182fd5b9392505050565b6105418061008f6000396000f3fe608060405234801561001057600080fd5b506004361061007d5760003560e01c8063498770381161005b578063498770381461011557806381045ead14610144578063bc902ad214610159578063e1ba7d011461016e5761007d565b806319357f6b146100825780632d883a73146100b757806345d61ded146100ea575b600080fd5b6100a477494e534552545f53544154454d414348494e455f524f4c4560401b81565b6040519081526020015b60405180910390f35b6100ca6100c536600461042e565b610176565b604080516001600160a01b039384168152929091166020830152016100ae565b6000546100fd906001600160a01b031681565b6040516001600160a01b0390911681526020016100ae565b6100ca6101233660046103e7565b6001600160a01b038082166000908152600160205260409020549192911690565b61014c6101dc565b6040516100ae9190610446565b61016c6101673660046103e7565b61023e565b005b6002546100a4565b6000806101d36002848154811061019d57634e487b7160e01b600052603260045260246000fd5b6000918252602090912001546001600160a01b03166001600160a01b038082166000908152600160205260409020549192911690565b91509150915091565b6060600280548060200260200160405190810160405280929190818152602001828054801561023457602002820191906000526020600020905b81546001600160a01b03168152600190910190602001808311610216575b5050505050905090565b77494e534552545f53544154454d414348494e455f524f4c4560401b6040518060600160405280602581526020016104e76025913961027d3383610342565b81906102a55760405162461bcd60e51b815260040161029c9190610493565b60405180910390fd5b506001600160a01b038316600081815260016020818152604080842080546001600160a01b031990811687179091556002805494850181559094527f405787fa12a823e0f2b7631cc41b3ba8828b3321ca811111fa75cd3aa3bb5ace90920180549093168417909255519182527fc3a7a2bf484e19fc97d2833ddd72ce199320147e7a660b28f9d1be4e868c4913910160405180910390a1505050565b600080546001600160a01b031615806103e05750600054604051630dace25b60e31b81526001600160a01b0385811660048301523060248301526044820185905290911690636d6712d89060640160206040518083038186803b1580156103a857600080fd5b505afa1580156103bc573d6000803e3d6000fd5b505050506040513d601f19601f820116820180604052508101906103e0919061040e565b9392505050565b6000602082840312156103f8578081fd5b81356001600160a01b03811681146103e0578182fd5b60006020828403121561041f578081fd5b815180151581146103e0578182fd5b60006020828403121561043f578081fd5b5035919050565b6020808252825182820181905260009190848201906040850190845b818110156104875783516001600160a01b031683529284019291840191600101610462565b50909695505050505050565b6000602080835283518082850152825b818110156104bf578581018301518582016040015282016104a3565b818111156104d05783604083870101525b50601f01601f191692909201604001939250505056fe53656e646572206e6565647320494e534552545f53544154454d414348494e455f524f4c45a2646970667358221220417f1798d15e256bfb9fa3735f264880dd4dfe36d3a4f9e833c97c1e5c8e4cba64736f6c63430008030033",
  "immutableReferences": {},
  "source": "/**\n * Copyright (C) SettleMint NV - All Rights Reserved\n *\n * Use of this file is strictly prohibited without an active license agreement.\n * Distribution of this file, via any medium, is strictly prohibited.\n *\n * For license inquiries, contact hello@settlemint.com\n *\n * SPDX-License-Identifier: UNLICENSED\n */\n\npragma solidity ^0.8.0;\n\nimport '../_library//provenance/statemachine/StateMachineRegistry.sol';\n\ncontract PlotRegistry is StateMachineRegistry {\n  constructor(address gatekeeper) StateMachineRegistry(address(gateKeeper)) {}\n}\n",
  "sourcePath": "/home/coder/project/contracts/plot/PlotRegistry.sol",
  "compiler": {
    "name": "solc",
    "version": "0.8.3+commit.8d00100c.Emscripten.clang"
  },
  "schemaVersion": "3.4.3",
  "updatedAt": "2021-09-21T08:25:39.724Z",
  "networkType": "ethereum",
  "devdoc": {
    "kind": "dev",
    "methods": {
      "getIndex()": {
        "returns": {
          "index": "an array with the addresses of all statemachines"
        }
      },
      "getIndexLength()": {
        "details": "Returns the length of the state machine index",
        "returns": {
          "length": "the amount of items in the state machine index"
        }
      },
      "insert(address)": {
        "details": "Emits the StateMachineRegistered event after the state machine has been included to the registry",
        "params": {
          "statemachine": "the state machine's address"
        }
      }
    },
    "version": 1
  },
  "userdoc": {
    "kind": "user",
    "methods": {
      "getIndex()": {
        "notice": "Retrieves the state machine index"
      },
      "getIndexLength()": {
        "notice": "Returns the length of the state machine index"
      },
      "insert(address)": {
        "notice": "Inserts a statemachine into the registry"
      }
    },
    "version": 1
  }
}