{
  "contractName": "RoleRegistry",
  "abi": [
    {
      "inputs": [
        {
          "internalType": "address",
          "name": "_gateKeeper",
          "type": "address"
        }
      ],
      "stateMutability": "nonpayable",
      "type": "constructor"
    },
    {
      "anonymous": false,
      "inputs": [
        {
          "indexed": false,
          "internalType": "address",
          "name": "_address",
          "type": "address"
        }
      ],
      "name": "Designated",
      "type": "event"
    },
    {
      "anonymous": false,
      "inputs": [
        {
          "indexed": false,
          "internalType": "address",
          "name": "_address",
          "type": "address"
        }
      ],
      "name": "Discharged",
      "type": "event"
    },
    {
      "anonymous": false,
      "inputs": [
        {
          "indexed": false,
          "internalType": "address",
          "name": "_address",
          "type": "address"
        }
      ],
      "name": "RoleRegistryCreated",
      "type": "event"
    },
    {
      "inputs": [],
      "name": "DESIGNATE_ROLE",
      "outputs": [
        {
          "internalType": "bytes32",
          "name": "",
          "type": "bytes32"
        }
      ],
      "stateMutability": "view",
      "type": "function"
    },
    {
      "inputs": [],
      "name": "gateKeeper",
      "outputs": [
        {
          "internalType": "contract GateKeeper",
          "name": "",
          "type": "address"
        }
      ],
      "stateMutability": "view",
      "type": "function"
    },
    {
      "inputs": [],
      "name": "getRoleHolders",
      "outputs": [
        {
          "internalType": "address[]",
          "name": "allRoleHolders",
          "type": "address[]"
        }
      ],
      "stateMutability": "view",
      "type": "function"
    },
    {
      "inputs": [
        {
          "internalType": "address",
          "name": "_address",
          "type": "address"
        }
      ],
      "name": "hasRole",
      "outputs": [
        {
          "internalType": "bool",
          "name": "hasTheRole",
          "type": "bool"
        }
      ],
      "stateMutability": "view",
      "type": "function"
    },
    {
      "inputs": [
        {
          "internalType": "address",
          "name": "_address",
          "type": "address"
        }
      ],
      "name": "designate",
      "outputs": [],
      "stateMutability": "nonpayable",
      "type": "function"
    },
    {
      "inputs": [
        {
          "internalType": "address",
          "name": "_address",
          "type": "address"
        }
      ],
      "name": "discharge",
      "outputs": [],
      "stateMutability": "nonpayable",
      "type": "function"
    },
    {
      "inputs": [],
      "name": "getIndexLength",
      "outputs": [
        {
          "internalType": "uint256",
          "name": "length",
          "type": "uint256"
        }
      ],
      "stateMutability": "view",
      "type": "function"
    },
    {
      "inputs": [
        {
          "internalType": "uint256",
          "name": "_index",
          "type": "uint256"
        }
      ],
      "name": "getByIndex",
      "outputs": [
        {
          "internalType": "address",
          "name": "key",
          "type": "address"
        },
        {
          "internalType": "bool",
          "name": "hasTheRole",
          "type": "bool"
        }
      ],
      "stateMutability": "view",
      "type": "function"
    },
    {
      "inputs": [
        {
          "internalType": "address",
          "name": "_key",
          "type": "address"
        }
      ],
      "name": "getByKey",
      "outputs": [
        {
          "internalType": "address",
          "name": "key",
          "type": "address"
        },
        {
          "internalType": "bool",
          "name": "hasTheRole",
          "type": "bool"
        }
      ],
      "stateMutability": "view",
      "type": "function"
    }
  ],
  "bytecode": "0x608060405234801561001057600080fd5b506040516109b63803806109b683398101604081905261002f91610083565b600080546001600160a01b0319166001600160a01b0383161790556040513081527fe1024fd8985d06ce8c9f997f972a1260bbbb007e7f7496825505aff3b18165e99060200160405180910390a1506100b1565b600060208284031215610094578081fd5b81516001600160a01b03811681146100aa578182fd5b9392505050565b6108f6806100c06000396000f3fe608060405234801561001057600080fd5b50600436106100935760003560e01c806345d61ded1161006657806345d61ded1461011d57806349877038146101485780637ef09bca14610179578063d09200a3146101b5578063e1ba7d01146101ca57610093565b80630231853a146100985780630a7519a3146100ad5780632d883a73146100d8578063453416921461010a575b600080fd5b6100ab6100a6366004610761565b6101d2565b005b6100c56d44455349474e4154455f524f4c4560901b81565b6040519081526020015b60405180910390f35b6100eb6100e63660046107a8565b61047a565b604080516001600160a01b0390931683529015156020830152016100cf565b6100ab610118366004610761565b61050d565b600054610130906001600160a01b031681565b6040516001600160a01b0390911681526020016100cf565b6100eb610156366004610761565b6001600160a01b038116600090815260016020526040902054909160ff90911690565b6101a5610187366004610761565b6001600160a01b031660009081526001602052604090205460ff1690565b60405190151581526020016100cf565b6101bd61065a565b6040516100cf91906107c0565b6002546100c5565b6d44455349474e4154455f524f4c4560901b6040518060400160405280601b81526020017f53656e646572206e656564732044455349474e4154455f524f4c45000000000081525061022433836106bc565b819061024c5760405162461bcd60e51b8152600401610243919061080d565b60405180910390fd5b506001600160a01b038316600090815260016020819052604090912001546102cd5760405162461bcd60e51b815260206004820152602e60248201527f54686973206164647265737320776173206e657665722064657369676e61746560448201526d6420746f207468697320726f6c6560901b6064820152608401610243565b60005b836001600160a01b0316600282815481106102fb57634e487b7160e01b600052603260045260246000fd5b6000918252602090912001546001600160a01b031614610327578061031f8161088f565b9150506102d0565b805b60025461033890600190610878565b8110156103df57600261034c826001610860565b8154811061036a57634e487b7160e01b600052603260045260246000fd5b600091825260209091200154600280546001600160a01b0390921691839081106103a457634e487b7160e01b600052603260045260246000fd5b600091825260209091200180546001600160a01b0319166001600160a01b0392909216919091179055806103d78161088f565b915050610329565b5060028054806103ff57634e487b7160e01b600052603160045260246000fd5b60008281526020808220600019908401810180546001600160a01b03191690559092019092556001600160a01b03861680835260018252604092839020805460ff1916905591519182527fa918a014a3cc4d384620aab101a9de9a018850704254ab6ce288864db9abd98b910160405180910390a150505050565b6000806002838154811061049e57634e487b7160e01b600052603260045260246000fd5b6000918252602082200154600280546001600160a01b03909216945060019291869081106104dc57634e487b7160e01b600052603260045260246000fd5b60009182526020808320909101546001600160a01b03168352820192909252604001902054919360ff909216925050565b6d44455349474e4154455f524f4c4560901b6040518060400160405280601b81526020017f53656e646572206e656564732044455349474e4154455f524f4c45000000000081525061055f33836106bc565b819061057e5760405162461bcd60e51b8152600401610243919061080d565b506001600160a01b038316600090815260016020819052604090912001546105fd576002805460018082019092557f405787fa12a823e0f2b7631cc41b3ba8828b3321ca811111fa75cd3aa3bb5ace0180546001600160a01b0319166001600160a01b0386169081179091556000908152602082905260409020429101555b6001600160a01b038316600081815260016020818152604092839020805460ff191690921790915590519182527f6a7971839356e91af1f994a516a95eac2d3583cb6ba16b104843fcc927d77dae910160405180910390a1505050565b606060028054806020026020016040519081016040528092919081815260200182805480156106b257602002820191906000526020600020905b81546001600160a01b03168152600190910190602001808311610694575b5050505050905090565b600080546001600160a01b0316158061075a5750600054604051630dace25b60e31b81526001600160a01b0385811660048301523060248301526044820185905290911690636d6712d89060640160206040518083038186803b15801561072257600080fd5b505afa158015610736573d6000803e3d6000fd5b505050506040513d601f19601f8201168201806040525081019061075a9190610788565b9392505050565b600060208284031215610772578081fd5b81356001600160a01b038116811461075a578182fd5b600060208284031215610799578081fd5b8151801515811461075a578182fd5b6000602082840312156107b9578081fd5b5035919050565b6020808252825182820181905260009190848201906040850190845b818110156108015783516001600160a01b0316835292840192918401916001016107dc565b50909695505050505050565b6000602080835283518082850152825b818110156108395785810183015185820160400152820161081d565b8181111561084a5783604083870101525b50601f01601f1916929092016040019392505050565b60008219821115610873576108736108aa565b500190565b60008282101561088a5761088a6108aa565b500390565b60006000198214156108a3576108a36108aa565b5060010190565b634e487b7160e01b600052601160045260246000fdfea264697066735822122094942886af55523bb502ae29eb81b7de86c36e9fa1f662b45092c96c5f024ab864736f6c63430008030033",
  "immutableReferences": {},
  "source": "// SPDX-License-Identifier: UNLICENSED\n/**\n * Copyright (C) SettleMint NV - All Rights Reserved\n *\n * Use of this file is strictly prohibited without an active license agreement.\n * Distribution of this file, via any medium, is strictly prohibited.\n *\n * For license inquiries, contact hello@settlemint.com\n */\n\npragma solidity ^0.8.0;\n\nimport './interfaces/IRoleRegistry.sol';\nimport './Secured.sol';\nimport '../utility/syncing/Syncable.sol';\n\n/**\n * @title Base contract for role registries\n * @dev The RoleRegistry contract defines the methods and data structures to\n * record if addresses have certain roles or not.\n */\ncontract RoleRegistry is IRoleRegistry, Syncable, Secured {\n  bytes32 public constant DESIGNATE_ROLE = bytes32('DESIGNATE_ROLE');\n\n  struct RoleHolderContainer {\n    bool roleDesignated;\n    uint256 creationDate;\n  }\n\n  mapping(address => RoleHolderContainer) private roleHolders;\n  address[] private roleHoldersIndex;\n\n  constructor(address _gateKeeper) Secured(_gateKeeper) {\n    emit RoleRegistryCreated(address(this));\n  }\n\n  /**\n   * @notice Returns a list of all the holders of this role.\n   * @dev Returns a list of all the holders of this role.\n   * @return allRoleHolders array with all role holders' addresses\n   */\n  function getRoleHolders() public view returns (address[] memory allRoleHolders) {\n    return roleHoldersIndex;\n  }\n\n  /**\n   * @notice Checks if an address has this role\n   * @dev Checks if `_address` has given the role managed by this role registry\n   * @param _address The address to check for the role.\n   * @return hasTheRole A boolean that is True if the address has the role.\n   */\n  function hasRole(address _address) public view override returns (bool hasTheRole) {\n    hasTheRole = roleHolders[_address].roleDesignated;\n  }\n\n  /**\n   * @notice Gives the role to an address\n   * @dev Gives the role managed by this role registry to `_address`. Access is limited by the ACL.\n   * @param _address The address to designate the role to.\n   */\n  function designate(address _address)\n    public\n    override\n    authWithCustomReason(DESIGNATE_ROLE, 'Sender needs DESIGNATE_ROLE')\n  {\n    if (roleHolders[_address].creationDate == 0) {\n      roleHoldersIndex.push(_address);\n      roleHolders[_address].creationDate = block.timestamp;\n    }\n    roleHolders[_address].roleDesignated = true;\n    emit Designated(_address);\n  }\n\n  /**\n   * @notice Removes the role from an address\n   * @dev Removes the role from `_address`. Access is limited by the ACL.\n   * @param _address The address to discharge fromn the role.\n   */\n  function discharge(address _address)\n    public\n    override\n    authWithCustomReason(DESIGNATE_ROLE, 'Sender needs DESIGNATE_ROLE')\n  {\n    require(roleHolders[_address].creationDate > 0, 'This address was never designated to this role');\n\n    uint256 i = 0;\n    while (roleHoldersIndex[i] != _address) {\n      i++;\n    }\n    for (uint256 j = i; j < roleHoldersIndex.length - 1; j++) {\n      roleHoldersIndex[j] = roleHoldersIndex[j + 1];\n    }\n    roleHoldersIndex.pop();\n\n    roleHolders[_address].roleDesignated = false;\n    emit Discharged(_address);\n  }\n\n  /**\n   * @notice Returns the length of the index array\n   * @dev Returns the length of the index array\n   * @return length the amount of items in the index array\n   */\n  function getIndexLength() public view override returns (uint256 length) {\n    length = roleHoldersIndex.length;\n  }\n\n  /**\n   * @notice Returns the information for the key at a given index\n   * @dev Returns the information for the key at index `_index`\n   * @param _index The index of the key in the key array\n   * @return key the information for the key on a certain index\n   */\n  function getByIndex(uint256 _index) public view returns (address key, bool hasTheRole) {\n    key = roleHoldersIndex[_index];\n    hasTheRole = roleHolders[roleHoldersIndex[_index]].roleDesignated;\n  }\n\n  /**\n   * @notice Returns the information for the key\n   * @dev Returns the information for the key `_key`\n   * @param _key The key to get the info for\n   * @return key the information for the key\n   */\n  function getByKey(address _key) public view returns (address key, bool hasTheRole) {\n    key = _key;\n    hasTheRole = roleHolders[_key].roleDesignated;\n  }\n}\n",
  "sourcePath": "/home/coder/project/contracts/_library/authentication/RoleRegistry.sol",
  "compiler": {
    "name": "solc",
    "version": "0.8.3+commit.8d00100c.Emscripten.clang"
  },
  "schemaVersion": "3.4.3",
  "updatedAt": "2021-09-21T08:20:57.983Z",
  "devdoc": {
    "details": "The RoleRegistry contract defines the methods and data structures to record if addresses have certain roles or not.",
    "kind": "dev",
    "methods": {
      "designate(address)": {
        "details": "Gives the role managed by this role registry to `_address`. Access is limited by the ACL.",
        "params": {
          "_address": "The address to designate the role to."
        }
      },
      "discharge(address)": {
        "details": "Removes the role from `_address`. Access is limited by the ACL.",
        "params": {
          "_address": "The address to discharge fromn the role."
        }
      },
      "getByIndex(uint256)": {
        "details": "Returns the information for the key at index `_index`",
        "params": {
          "_index": "The index of the key in the key array"
        },
        "returns": {
          "key": "the information for the key on a certain index"
        }
      },
      "getByKey(address)": {
        "details": "Returns the information for the key `_key`",
        "params": {
          "_key": "The key to get the info for"
        },
        "returns": {
          "key": "the information for the key"
        }
      },
      "getIndexLength()": {
        "details": "Returns the length of the index array",
        "returns": {
          "length": "the amount of items in the index array"
        }
      },
      "getRoleHolders()": {
        "details": "Returns a list of all the holders of this role.",
        "returns": {
          "allRoleHolders": "array with all role holders' addresses"
        }
      },
      "hasRole(address)": {
        "details": "Checks if `_address` has given the role managed by this role registry",
        "params": {
          "_address": "The address to check for the role."
        },
        "returns": {
          "hasTheRole": "A boolean that is True if the address has the role."
        }
      }
    },
    "title": "Base contract for role registries",
    "version": 1
  },
  "userdoc": {
    "kind": "user",
    "methods": {
      "designate(address)": {
        "notice": "Gives the role to an address"
      },
      "discharge(address)": {
        "notice": "Removes the role from an address"
      },
      "getByIndex(uint256)": {
        "notice": "Returns the information for the key at a given index"
      },
      "getByKey(address)": {
        "notice": "Returns the information for the key"
      },
      "getIndexLength()": {
        "notice": "Returns the length of the index array"
      },
      "getRoleHolders()": {
        "notice": "Returns a list of all the holders of this role."
      },
      "hasRole(address)": {
        "notice": "Checks if an address has this role"
      }
    },
    "version": 1
  }
}