{
  "contractName": "Secured",
  "abi": [
    {
      "inputs": [
        {
          "internalType": "address",
          "name": "_gateKeeper",
          "type": "address"
        }
      ],
      "stateMutability": "nonpayable",
      "type": "constructor"
    },
    {
      "inputs": [],
      "name": "gateKeeper",
      "outputs": [
        {
          "internalType": "contract GateKeeper",
          "name": "",
          "type": "address"
        }
      ],
      "stateMutability": "view",
      "type": "function"
    }
  ],
  "bytecode": "0x608060405234801561001057600080fd5b5060405161012138038061012183398101604081905261002f91610054565b600080546001600160a01b0319166001600160a01b0392909216919091179055610082565b600060208284031215610065578081fd5b81516001600160a01b038116811461007b578182fd5b9392505050565b6091806100906000396000f3fe6080604052348015600f57600080fd5b506004361060285760003560e01c806345d61ded14602d575b600080fd5b600054603f906001600160a01b031681565b6040516001600160a01b03909116815260200160405180910390f3fea2646970667358221220dab80729eb7efdc6fb5ef68f962a4bbbfdc1240bf4c567b9495551fa0426684b64736f6c63430008030033",
  "immutableReferences": {},
  "source": "// SPDX-License-Identifier: UNLICENSED\n/**\n * Copyright (C) SettleMint NV - All Rights Reserved\n *\n * Use of this file is strictly prohibited without an active license agreement.\n * Distribution of this file, via any medium, is strictly prohibited.\n *\n * For license inquiries, contact hello@settlemint.com\n */\n\npragma solidity ^0.8.0;\n\nimport './GateKeeper.sol';\nimport '../utility/conversions/Converter.sol';\n\n/**\n * @title Executes role-based permission checks\n */\ncontract Secured is Converter {\n  GateKeeper public gateKeeper;\n\n  modifier auth(bytes32 _role) {\n    require(canPerform(msg.sender, _role), 'Sender does not have the correct role');\n    _;\n  }\n\n  modifier authMany(bytes32[] memory _roles) {\n    bool hasRole = false;\n    for (uint256 i = 0; i < _roles.length; i++) {\n      if (canPerform(msg.sender, _roles[i])) {\n        hasRole = true;\n        break;\n      }\n    }\n    require(hasRole == true, 'Sender does not have the correct role');\n    _;\n  }\n\n  modifier authWithCustomReason(bytes32 _role, string memory reason) {\n    require(canPerform(msg.sender, _role), reason);\n    _;\n  }\n\n  modifier authManyWithCustomReason(bytes32[] memory _roles, string memory reason) {\n    bool hasRole = false;\n    for (uint256 i = 0; i < _roles.length; i++) {\n      if (canPerform(msg.sender, _roles[i])) {\n        hasRole = true;\n        break;\n      }\n    }\n    require(hasRole == true, reason);\n    _;\n  }\n\n  constructor(address _gateKeeper) {\n    gateKeeper = GateKeeper(_gateKeeper);\n  }\n\n  /**\n   * @notice Internal function to check if the address has the required role\n   */\n  function canPerform(address _sender, bytes32 _role) internal view returns (bool) {\n    return address(gateKeeper) == address(0x0) || gateKeeper.hasPermission(_sender, address(this), _role);\n  }\n}\n",
  "sourcePath": "/home/coder/project/contracts/_library/authentication/Secured.sol",
  "compiler": {
    "name": "solc",
    "version": "0.8.3+commit.8d00100c.Emscripten.clang"
  },
  "schemaVersion": "3.4.1",
  "updatedAt": "2021-07-13T12:53:56.160Z",
  "devdoc": {
    "kind": "dev",
    "methods": {},
    "title": "Executes role-based permission checks",
    "version": 1
  },
  "userdoc": {
    "kind": "user",
    "methods": {},
    "version": 1
  }
}