{
  "contractName": "SimpleExampleV1",
  "abi": [
    {
      "inputs": [
        {
          "internalType": "address",
          "name": "_gateKeeper",
          "type": "address"
        }
      ],
      "stateMutability": "nonpayable",
      "type": "constructor"
    },
    {
      "anonymous": false,
      "inputs": [
        {
          "indexed": false,
          "internalType": "address",
          "name": "originalTarget",
          "type": "address"
        },
        {
          "indexed": false,
          "internalType": "address",
          "name": "newTarget",
          "type": "address"
        }
      ],
      "name": "TargetChanged",
      "type": "event"
    },
    {
      "inputs": [],
      "name": "UPGRADE_CONTRACT",
      "outputs": [
        {
          "internalType": "bytes32",
          "name": "",
          "type": "bytes32"
        }
      ],
      "stateMutability": "view",
      "type": "function"
    },
    {
      "inputs": [],
      "name": "_target",
      "outputs": [
        {
          "internalType": "address",
          "name": "",
          "type": "address"
        }
      ],
      "stateMutability": "view",
      "type": "function"
    },
    {
      "inputs": [],
      "name": "gateKeeper",
      "outputs": [
        {
          "internalType": "contract GateKeeper",
          "name": "",
          "type": "address"
        }
      ],
      "stateMutability": "view",
      "type": "function"
    },
    {
      "inputs": [],
      "name": "getUint",
      "outputs": [
        {
          "internalType": "uint256",
          "name": "",
          "type": "uint256"
        }
      ],
      "stateMutability": "pure",
      "type": "function"
    }
  ],
  "bytecode": "0x608060405234801561001057600080fd5b5060405161017a38038061017a83398101604081905261002f91610054565b600080546001600160a01b0319166001600160a01b0392909216919091179055610082565b600060208284031215610065578081fd5b81516001600160a01b038116811461007b578182fd5b9392505050565b60ea806100906000396000f3fe6080604052348015600f57600080fd5b506004361060455760003560e01c80620267a414604a57806317f821391460605780632ac8bb1514607957806345d61ded1460a2575b600080fd5b600a5b6040519081526020015b60405180910390f35b604d6f155411d490511157d0d3d395149050d560821b81565b600154608b906001600160a01b031681565b6040516001600160a01b0390911681526020016057565b600054608b906001600160a01b03168156fea26469706673582212207a6e26e0e38f40e52d7603f87c29e7bee8ca98ed4235c54bb79c15976b4fe36d64736f6c63430008030033",
  "immutableReferences": {},
  "source": "// SPDX-License-Identifier: UNLICENSED\npragma solidity ^0.8.0;\n\nimport './SimpleIExample.sol';\nimport '../../../utility/upgrading/Upgradeable.sol';\n\n/* Base version of Example class */\ncontract SimpleExampleV1 is SimpleIExample, Upgradeable {\n  constructor(address _gateKeeper) Upgradeable(_gateKeeper) {}\n\n  function getUint() public pure override returns (uint256) {\n    return 10;\n  }\n}\n",
  "sourcePath": "/home/coder/project/contracts/_library/_test/utility/upgrading/SimpleExampleV1.sol",
  "compiler": {
    "name": "solc",
    "version": "0.8.3+commit.8d00100c.Emscripten.clang"
  },
  "schemaVersion": "3.4.1",
  "updatedAt": "2021-07-13T12:53:56.143Z",
  "devdoc": {
    "kind": "dev",
    "methods": {},
    "version": 1
  },
  "userdoc": {
    "kind": "user",
    "methods": {},
    "version": 1
  }
}