{
  "contractName": "SimpleExampleDispatcher",
  "abi": [
    {
      "inputs": [
        {
          "internalType": "address",
          "name": "_gateKeeper",
          "type": "address"
        }
      ],
      "stateMutability": "nonpayable",
      "type": "constructor"
    },
    {
      "anonymous": false,
      "inputs": [
        {
          "indexed": false,
          "internalType": "address",
          "name": "originalTarget",
          "type": "address"
        },
        {
          "indexed": false,
          "internalType": "address",
          "name": "newTarget",
          "type": "address"
        }
      ],
      "name": "TargetChanged",
      "type": "event"
    },
    {
      "stateMutability": "nonpayable",
      "type": "fallback"
    },
    {
      "inputs": [],
      "name": "UPGRADE_CONTRACT",
      "outputs": [
        {
          "internalType": "bytes32",
          "name": "",
          "type": "bytes32"
        }
      ],
      "stateMutability": "view",
      "type": "function"
    },
    {
      "inputs": [],
      "name": "_target",
      "outputs": [
        {
          "internalType": "address",
          "name": "",
          "type": "address"
        }
      ],
      "stateMutability": "view",
      "type": "function"
    },
    {
      "inputs": [],
      "name": "gateKeeper",
      "outputs": [
        {
          "internalType": "contract GateKeeper",
          "name": "",
          "type": "address"
        }
      ],
      "stateMutability": "view",
      "type": "function"
    },
    {
      "inputs": [
        {
          "internalType": "address",
          "name": "target",
          "type": "address"
        }
      ],
      "name": "setTarget",
      "outputs": [],
      "stateMutability": "nonpayable",
      "type": "function"
    }
  ],
  "bytecode": "0x608060405234801561001057600080fd5b506040516103a03803806103a083398101604081905261002f91610054565b600080546001600160a01b0319166001600160a01b0392909216919091179055610082565b600060208284031215610065578081fd5b81516001600160a01b038116811461007b578182fd5b9392505050565b61030f806100916000396000f3fe608060405234801561001057600080fd5b506004361061004c5760003560e01c806317f821391461007b5780632ac8bb15146100a857806345d61ded146100d3578063776d1a01146100e6575b60015460008035916001600160a01b03169036908037600080366000846127105a03f4503d806000803e806000f35b6100956f155411d490511157d0d3d395149050d560821b81565b6040519081526020015b60405180910390f35b6001546100bb906001600160a01b031681565b6040516001600160a01b03909116815260200161009f565b6000546100bb906001600160a01b031681565b6100f96100f4366004610292565b6100fb565b005b61010481610107565b50565b6f155411d490511157d0d3d395149050d560821b61012533826101ed565b6101835760405162461bcd60e51b815260206004820152602560248201527f53656e64657220646f6573206e6f7420686176652074686520636f727265637460448201526420726f6c6560d81b606482015260840160405180910390fd5b600154604080516001600160a01b03928316815291841660208301527f4d11d6210a5e807da812a693b5d341a870571b5fc31158172207a3d99c911ccd910160405180910390a150600180546001600160a01b0319166001600160a01b0392909216919091179055565b600080546001600160a01b0316158061028b5750600054604051630dace25b60e31b81526001600160a01b0385811660048301523060248301526044820185905290911690636d6712d89060640160206040518083038186803b15801561025357600080fd5b505afa158015610267573d6000803e3d6000fd5b505050506040513d601f19601f8201168201806040525081019061028b91906102b9565b9392505050565b6000602082840312156102a3578081fd5b81356001600160a01b038116811461028b578182fd5b6000602082840312156102ca578081fd5b8151801515811461028b578182fdfea2646970667358221220585f6c69aeab67a319dc1909051fd54a8b4075107eecae89732a4e2d2a884e6664736f6c63430008030033",
  "immutableReferences": {},
  "source": "// SPDX-License-Identifier: UNLICENSED\npragma solidity ^0.8.0;\n\nimport '../../../utility/upgrading/Dispatcher.sol';\nimport '../../../authentication/Secured.sol';\n\n/* Dispatcher for Example contracts */\ncontract SimpleExampleDispatcher is Dispatcher {\n  constructor(address _gateKeeper) Dispatcher(_gateKeeper) {}\n}\n",
  "sourcePath": "/home/coder/project/contracts/_library/_test/utility/upgrading/SimpleExampleDispatcher.sol",
  "compiler": {
    "name": "solc",
    "version": "0.8.3+commit.8d00100c.Emscripten.clang"
  },
  "schemaVersion": "3.4.1",
  "updatedAt": "2021-07-01T14:00:20.440Z",
  "devdoc": {
    "kind": "dev",
    "methods": {},
    "version": 1
  },
  "userdoc": {
    "kind": "user",
    "methods": {},
    "version": 1
  }
}