{
  "contractName": "StateMachineFactory",
  "abi": [
    {
      "inputs": [
        {
          "internalType": "contract GateKeeper",
          "name": "gateKeeper",
          "type": "address"
        },
        {
          "internalType": "contract StateMachineRegistry",
          "name": "registry",
          "type": "address"
        }
      ],
      "stateMutability": "nonpayable",
      "type": "constructor"
    },
    {
      "anonymous": false,
      "inputs": [
        {
          "indexed": false,
          "internalType": "address",
          "name": "statemachine",
          "type": "address"
        }
      ],
      "name": "StateMachineCreated",
      "type": "event"
    },
    {
      "inputs": [],
      "name": "CREATE_STATEMACHINE_ROLE",
      "outputs": [
        {
          "internalType": "bytes32",
          "name": "",
          "type": "bytes32"
        }
      ],
      "stateMutability": "view",
      "type": "function"
    },
    {
      "inputs": [],
      "name": "UPDATE_UIFIELDDEFINITIONS_ROLE",
      "outputs": [
        {
          "internalType": "bytes32",
          "name": "",
          "type": "bytes32"
        }
      ],
      "stateMutability": "view",
      "type": "function"
    },
    {
      "inputs": [],
      "name": "gateKeeper",
      "outputs": [
        {
          "internalType": "contract GateKeeper",
          "name": "",
          "type": "address"
        }
      ],
      "stateMutability": "view",
      "type": "function"
    },
    {
      "inputs": [
        {
          "internalType": "string",
          "name": "uiFieldDefinitionsHash",
          "type": "string"
        }
      ],
      "name": "setUIFieldDefinitionsHash",
      "outputs": [],
      "stateMutability": "nonpayable",
      "type": "function"
    },
    {
      "inputs": [],
      "name": "getUIFieldDefinitionsHash",
      "outputs": [
        {
          "internalType": "string",
          "name": "",
          "type": "string"
        }
      ],
      "stateMutability": "view",
      "type": "function"
    }
  ],
  "bytecode": "0x608060405234801561001057600080fd5b506040516105f93803806105f983398101604081905261002f91610060565b600180546001600160a01b039384166001600160a01b031991821617909155600280549290931691161790556100b1565b60008060408385031215610072578182fd5b825161007d81610099565b602084015190925061008e81610099565b809150509250929050565b6001600160a01b03811681146100ae57600080fd5b50565b610539806100c06000396000f3fe608060405234801561001057600080fd5b50600436106100575760003560e01c80631f0f992a1461005c578063309c70cf14610096578063459b9af9146100bd57806345d61ded146100d257806382f68683146100fd575b600080fd5b6100837f5550444154455f55494649454c44444546494e4954494f4e535f524f4c45000081565b6040519081526020015b60405180910390f35b6100837f4352454154455f53544154454d414348494e455f524f4c45000000000000000081565b6100c5610112565b60405161008d9190610434565b6001546100e5906001600160a01b031681565b6040516001600160a01b03909116815260200161008d565b61011061010b36600461038a565b6101a4565b005b60606000805461012190610487565b80601f016020809104026020016040519081016040528092919081815260200182805461014d90610487565b801561019a5780601f1061016f5761010080835404028352916020019161019a565b820191906000526020600020905b81548152906001019060200180831161017d57829003601f168201915b5050505050905090565b7f5550444154455f55494649454c44444546494e4954494f4e535f524f4c4500006040518060600160405280602b81526020016104d9602b91396101e8338361022a565b81906102105760405162461bcd60e51b81526004016102079190610434565b60405180910390fd5b5082516102249060009060208601906102d1565b50505050565b6001546000906001600160a01b031615806102ca5750600154604051630dace25b60e31b81526001600160a01b0385811660048301523060248301526044820185905290911690636d6712d89060640160206040518083038186803b15801561029257600080fd5b505afa1580156102a6573d6000803e3d6000fd5b505050506040513d601f19601f820116820180604052508101906102ca919061036a565b9392505050565b8280546102dd90610487565b90600052602060002090601f0160209004810192826102ff5760008555610345565b82601f1061031857805160ff1916838001178555610345565b82800160010185558215610345579182015b8281111561034557825182559160200191906001019061032a565b50610351929150610355565b5090565b5b808211156103515760008155600101610356565b60006020828403121561037b578081fd5b815180151581146102ca578182fd5b60006020828403121561039b578081fd5b813567ffffffffffffffff808211156103b2578283fd5b818401915084601f8301126103c5578283fd5b8135818111156103d7576103d76104c2565b604051601f8201601f19908116603f011681019083821181831017156103ff576103ff6104c2565b81604052828152876020848701011115610417578586fd5b826020860160208301379182016020019490945295945050505050565b6000602080835283518082850152825b8181101561046057858101830151858201604001528201610444565b818111156104715783604083870101525b50601f01601f1916929092016040019392505050565b600181811c9082168061049b57607f821691505b602082108114156104bc57634e487b7160e01b600052602260045260246000fd5b50919050565b634e487b7160e01b600052604160045260246000fdfe53656e646572206e65656473205550444154455f55494649454c44444546494e4954494f4e535f524f4c45a2646970667358221220da49290fb628407e4e9fa183e79bfa5a050170949e00323a1775e9ebd3ad1da764736f6c63430008030033",
  "immutableReferences": {},
  "source": "// SPDX-License-Identifier: UNLICENSED\n/**\n * Copyright (C) SettleMint NV - All Rights Reserved\n *\n * Use of this file is strictly prohibited without an active license agreement.\n * Distribution of this file, via any medium, is strictly prohibited.\n *\n * For license inquiries, contact hello@settlemint.com\n */\n\npragma solidity ^0.8.0;\n\nimport '../../authentication/Secured.sol';\nimport '../../utility/ui/UIFieldDefinitions.sol';\nimport './StateMachine.sol';\nimport './StateMachineRegistry.sol';\n\n/**\n * @title Base contract for state machine factories\n */\ncontract StateMachineFactory is UIFieldDefinitions, Secured {\n  bytes32 public constant CREATE_STATEMACHINE_ROLE = 'CREATE_STATEMACHINE_ROLE';\n  StateMachineRegistry internal _registry;\n\n  event StateMachineCreated(address statemachine);\n\n  constructor(GateKeeper gateKeeper, StateMachineRegistry registry) Secured(address(gateKeeper)) {\n    _registry = registry;\n  }\n\n  /**\n   * @notice Sets the value of `_uiFieldDefinitionsHash`\n   * @param uiFieldDefinitionsHash value to assign to _uiFieldDefinitionsHash\n   */\n  function setUIFieldDefinitionsHash(string memory uiFieldDefinitionsHash)\n    public\n    override\n    authWithCustomReason(UPDATE_UIFIELDDEFINITIONS_ROLE, 'Sender needs UPDATE_UIFIELDDEFINITIONS_ROLE')\n  {\n    _uiFieldDefinitionsHash = uiFieldDefinitionsHash;\n  }\n\n  /**\n   * @notice Retrieves the value of `_uiFieldDefinitionsHash`\n   */\n  function getUIFieldDefinitionsHash() public view override returns (string memory) {\n    return _uiFieldDefinitionsHash;\n  }\n\n  // Due to the fact that the param list is dependant on the statemachine implementation,\n  // this cannot be an abstract contract but you still have to implement the create() function.\n  // This is a good example. Make sure to emit the StateMachineCreated event.\n  //\n  // function create(\n  //   uint256 amount,\n  //   string memory proof,\n  //   string memory ipfsFieldContainerHash\n  // )\n  //   public\n  //   auth(CREATE_STATEMACHINE_ROLE)\n  // {\n  //   require(amount > 0, \"The amount of an expense cannot be zero\");\n  //   bytes memory memProof = bytes(proof);\n  //   require(memProof.length > 0, \"A proof file is required for all expenses\");\n  //\n  //   Expense expense = new Expense(\n  //     gateKeeper,\n  //     amount,\n  //     proof,\n  //     ipfsFieldContainerHash,\n  //     _uiFieldDefinitionsHash,\n  //     msg.sender\n  //   );\n\n  //   // Give every role registry a single permission on the newly created expense.\n  //   bytes32[] memory roles = expense.getRoles();\n  //   for (uint i = 0; i < roles.length; i++) {\n  //     gateKeeper.createPermission(\n  //       gateKeeper.getRoleRegistryAddress(roles[i]),\n  //       address(expense),\n  //       roles[i],\n  //       address(this)\n  //     );\n  //   }\n\n  //   _registry.insert(address(expense), msg.sender);\n  //   emit StateMachineCreated(msg.sender,address(expense),amount);\n  // }\n}\n",
  "sourcePath": "/home/coder/project/contracts/_library/provenance/statemachine/StateMachineFactory.sol",
  "compiler": {
    "name": "solc",
    "version": "0.8.3+commit.8d00100c.Emscripten.clang"
  },
  "schemaVersion": "3.4.1",
  "updatedAt": "2021-08-03T10:03:35.028Z",
  "devdoc": {
    "kind": "dev",
    "methods": {
      "setUIFieldDefinitionsHash(string)": {
        "params": {
          "uiFieldDefinitionsHash": "value to assign to _uiFieldDefinitionsHash"
        }
      }
    },
    "title": "Base contract for state machine factories",
    "version": 1
  },
  "userdoc": {
    "kind": "user",
    "methods": {
      "getUIFieldDefinitionsHash()": {
        "notice": "Retrieves the value of `_uiFieldDefinitionsHash`"
      },
      "setUIFieldDefinitionsHash(string)": {
        "notice": "Sets the value of `_uiFieldDefinitionsHash`"
      }
    },
    "version": 1
  }
}