{
  "contractName": "StateMachineImplHappy",
  "abi": [
    {
      "inputs": [
        {
          "internalType": "address",
          "name": "gateKeeper",
          "type": "address"
        },
        {
          "internalType": "address",
          "name": "partyOne",
          "type": "address"
        },
        {
          "internalType": "address",
          "name": "partyTwo",
          "type": "address"
        }
      ],
      "stateMutability": "nonpayable",
      "type": "constructor"
    },
    {
      "anonymous": false,
      "inputs": [
        {
          "indexed": false,
          "internalType": "address",
          "name": "sender",
          "type": "address"
        },
        {
          "indexed": false,
          "internalType": "bytes32",
          "name": "fromState",
          "type": "bytes32"
        },
        {
          "indexed": false,
          "internalType": "bytes32",
          "name": "toState",
          "type": "bytes32"
        }
      ],
      "name": "Transition",
      "type": "event"
    },
    {
      "inputs": [],
      "name": "ROLE_COUNTERPARTY",
      "outputs": [
        {
          "internalType": "bytes32",
          "name": "",
          "type": "bytes32"
        }
      ],
      "stateMutability": "view",
      "type": "function"
    },
    {
      "inputs": [],
      "name": "ROLE_EDITOR",
      "outputs": [
        {
          "internalType": "bytes32",
          "name": "",
          "type": "bytes32"
        }
      ],
      "stateMutability": "view",
      "type": "function"
    },
    {
      "inputs": [],
      "name": "STATE_ACCEPTED",
      "outputs": [
        {
          "internalType": "bytes32",
          "name": "",
          "type": "bytes32"
        }
      ],
      "stateMutability": "view",
      "type": "function"
    },
    {
      "inputs": [],
      "name": "STATE_CREATED",
      "outputs": [
        {
          "internalType": "bytes32",
          "name": "",
          "type": "bytes32"
        }
      ],
      "stateMutability": "view",
      "type": "function"
    },
    {
      "inputs": [],
      "name": "STATE_ENDED",
      "outputs": [
        {
          "internalType": "bytes32",
          "name": "",
          "type": "bytes32"
        }
      ],
      "stateMutability": "view",
      "type": "function"
    },
    {
      "inputs": [],
      "name": "STATE_MODIFIED",
      "outputs": [
        {
          "internalType": "bytes32",
          "name": "",
          "type": "bytes32"
        }
      ],
      "stateMutability": "view",
      "type": "function"
    },
    {
      "inputs": [],
      "name": "STATE_REJECTED",
      "outputs": [
        {
          "internalType": "bytes32",
          "name": "",
          "type": "bytes32"
        }
      ],
      "stateMutability": "view",
      "type": "function"
    },
    {
      "inputs": [],
      "name": "STATE_TEMPORARY",
      "outputs": [
        {
          "internalType": "bytes32",
          "name": "",
          "type": "bytes32"
        }
      ],
      "stateMutability": "view",
      "type": "function"
    },
    {
      "inputs": [],
      "name": "gateKeeper",
      "outputs": [
        {
          "internalType": "contract GateKeeper",
          "name": "",
          "type": "address"
        }
      ],
      "stateMutability": "view",
      "type": "function"
    },
    {
      "inputs": [],
      "name": "getAllStates",
      "outputs": [
        {
          "internalType": "bytes32[]",
          "name": "allStates",
          "type": "bytes32[]"
        }
      ],
      "stateMutability": "view",
      "type": "function"
    },
    {
      "inputs": [],
      "name": "getCurrentState",
      "outputs": [
        {
          "internalType": "bytes32",
          "name": "state",
          "type": "bytes32"
        }
      ],
      "stateMutability": "view",
      "type": "function"
    },
    {
      "inputs": [
        {
          "internalType": "uint256",
          "name": "index",
          "type": "uint256"
        }
      ],
      "name": "getHistory",
      "outputs": [
        {
          "internalType": "bytes32",
          "name": "fromState",
          "type": "bytes32"
        },
        {
          "internalType": "bytes32",
          "name": "toState",
          "type": "bytes32"
        },
        {
          "internalType": "address",
          "name": "actor",
          "type": "address"
        },
        {
          "internalType": "uint256",
          "name": "timestamp",
          "type": "uint256"
        }
      ],
      "stateMutability": "view",
      "type": "function"
    },
    {
      "inputs": [],
      "name": "getHistoryLength",
      "outputs": [
        {
          "internalType": "uint256",
          "name": "",
          "type": "uint256"
        }
      ],
      "stateMutability": "view",
      "type": "function"
    },
    {
      "inputs": [],
      "name": "getNextStates",
      "outputs": [
        {
          "internalType": "bytes32[]",
          "name": "nextStates",
          "type": "bytes32[]"
        }
      ],
      "stateMutability": "view",
      "type": "function"
    },
    {
      "inputs": [
        {
          "internalType": "bytes32",
          "name": "state",
          "type": "bytes32"
        }
      ],
      "name": "getState",
      "outputs": [
        {
          "internalType": "bytes32",
          "name": "name",
          "type": "bytes32"
        },
        {
          "internalType": "bytes32[]",
          "name": "nextStates",
          "type": "bytes32[]"
        },
        {
          "internalType": "bytes32[]",
          "name": "allowedRoles",
          "type": "bytes32[]"
        },
        {
          "internalType": "bytes4[]",
          "name": "allowedFunctions",
          "type": "bytes4[]"
        },
        {
          "internalType": "bytes4",
          "name": "preFunction",
          "type": "bytes4"
        }
      ],
      "stateMutability": "view",
      "type": "function"
    },
    {
      "inputs": [
        {
          "internalType": "uint256",
          "name": "",
          "type": "uint256"
        }
      ],
      "name": "history",
      "outputs": [
        {
          "internalType": "bytes32",
          "name": "fromState",
          "type": "bytes32"
        },
        {
          "internalType": "bytes32",
          "name": "toState",
          "type": "bytes32"
        },
        {
          "internalType": "address",
          "name": "actor",
          "type": "address"
        },
        {
          "internalType": "uint256",
          "name": "timestamp",
          "type": "uint256"
        }
      ],
      "stateMutability": "view",
      "type": "function"
    },
    {
      "inputs": [],
      "name": "modificationTransitionHandled",
      "outputs": [
        {
          "internalType": "bool",
          "name": "",
          "type": "bool"
        }
      ],
      "stateMutability": "view",
      "type": "function"
    },
    {
      "inputs": [],
      "name": "modified",
      "outputs": [
        {
          "internalType": "bool",
          "name": "",
          "type": "bool"
        }
      ],
      "stateMutability": "view",
      "type": "function"
    },
    {
      "inputs": [
        {
          "internalType": "bytes32",
          "name": "toState",
          "type": "bytes32"
        }
      ],
      "name": "transitionState",
      "outputs": [],
      "stateMutability": "nonpayable",
      "type": "function"
    },
    {
      "inputs": [],
      "name": "modify",
      "outputs": [],
      "stateMutability": "nonpayable",
      "type": "function"
    },
    {
      "inputs": [],
      "name": "sign",
      "outputs": [],
      "stateMutability": "nonpayable",
      "type": "function"
    }
  ],
  "bytecode": "0x60806040526007805461ffff191690553480156200001c57600080fd5b506040516200264d3803806200264d8339810160408190526200003f916200123e565b600080546001600160a01b038086166001600160a01b03199283161790925560078054858416620100000262010000600160b01b03199091161790556008805492841692909116919091179055620000966200009f565b505050620012d1565b620000b46610d4915055115160ca1b620003c3565b620000ca671353d1125192515160c21b620003c3565b620000e0671050d0d15415115160c21b620003c3565b620000f6671491529150d5115160c21b620003c3565b6200010d6854454d504f5241525960b81b620003c3565b6200012064115391115160da1b620003c3565b6200013d64115391115160da1b6522a224aa27a960d11b62000481565b62000163671491529150d5115160c21b6b434f554e544552504152545960a01b62000481565b62000189671050d0d15415115160c21b6b434f554e544552504152545960a01b62000481565b620001ab671050d0d15415115160c21b62000bfc6200050460201b17620005e6565b620001ca671050d0d15415115160c21b64115391115160da1b62000692565b620001ed671050d0d15415115160c21b6854454d504f5241525960b81b62000692565b6200020d671353d1125192515160c21b6522a224aa27a960d11b62000481565b6200022b671353d1125192515160c21b630c99e67760e31b62000772565b62000242671353d1125192515160c21b8062000692565b62000264671353d1125192515160c21b62000cda620008aa60201b17620008bd565b62000286671353d1125192515160c21b671050d0d15415115160c21b62000692565b620002a8671353d1125192515160c21b671491529150d5115160c21b62000692565b620002ca671491529150d5115160c21b671353d1125192515160c21b62000692565b620002e96610d4915055115160ca1b6522a224aa27a960d11b62000481565b620003066610d4915055115160ca1b630c99e67760e31b62000772565b620003276610d4915055115160ca1b671353d1125192515160c21b62000692565b620003486610d4915055115160ca1b671050d0d15415115160c21b62000692565b620003696610d4915055115160ca1b671491529150d5115160c21b62000692565b620003896854454d504f5241525960b81b64115391115160da1b62000692565b620003ac6854454d504f5241525960b81b62000ced6200096e60201b17620008bd565b620003c16610d4915055115160ca1b62000981565b565b60008181526002602052604090205460ff1615620004345760405162461bcd60e51b815260206004820152602360248201527f746869732073746174652068617320616c7265616479206265656e20637265616044820152621d195960ea1b60648201526084015b60405180910390fd5b6000818152600260205260408120805460ff191660019081179091556003805491820181559091527fc2575a0e9e593c00f959f8c92f12db2869c3395a3b0502d05e2516446f71f85b0155565b600082815260026020526040902054829060ff16620004dd5760405162461bcd60e51b815260206004820152602260248201526000805160206200260d833981519152604482015261195d60f21b60648201526084016200042b565b50600091825260026020818152604084209091018054600181018255908452922090910155565b6007546201000090046001600160a01b031660009081526009602052604090205460ff16620005765760405162461bcd60e51b815260206004820152601860248201527f5061727479203120646964206e6f74207369676e20796574000000000000000060448201526064016200042b565b6008546001600160a01b031660009081526009602052604090205460ff16620005e25760405162461bcd60e51b815260206004820152601860248201527f5061727479203220646964206e6f74207369676e20796574000000000000000060448201526064016200042b565b5050565b600082815260026020526040902054829060ff16620006425760405162461bcd60e51b815260206004820152602260248201526000805160206200260d833981519152604482015261195d60f21b60648201526084016200042b565b5060009182526002602090815260408320600390810180546001810182559085529190932060048204018054919093166008026101000a6001600160401b03818102199092169290911602179055565b600082815260026020526040902054829060ff16620006ee5760405162461bcd60e51b815260206004820152602260248201526000805160206200260d833981519152604482015261195d60f21b60648201526084016200042b565b600082815260026020526040902054829060ff166200074a5760405162461bcd60e51b815260206004820152602260248201526000805160206200260d833981519152604482015261195d60f21b60648201526084016200042b565b5050600091825260026020908152604083206005018054600181018255908452922090910155565b600082815260026020526040902054829060ff16620007ce5760405162461bcd60e51b815260206004820152602260248201526000805160206200260d833981519152604482015261195d60f21b60648201526084016200042b565b6001600160e01b0319821660009081526006602052604090205460ff1662000872576001600160e01b0319821660009081526006602052604081208054600160ff1990911681179091556005805491820181559091527f036b6384b5eca791c62761152d0c79bb0604c104a5fb6f4eb0703f3154bb3db06008820401805463ffffffff60079093166004026101000a928302191660e085901c929092029190911790555b5060009182526002602090815260408084206001600160e01b031990931684526001928301909152909120805460ff19169091179055565b50506007805461ff001916610100179055565b600082815260026020526040902054829060ff16620009195760405162461bcd60e51b815260206004820152602260248201526000805160206200260d833981519152604482015261195d60f21b60648201526084016200042b565b50600091825260026020908152604083206004908101805460018101825590855291909320928104909201805460039093166008026101000a6001600160401b03818102199094169290931692909202179055565b620005e264115391115160da1b62000a90565b60008181526002602052604090205460ff16620009e35760405162461bcd60e51b815260206004820152602a60248201526000805160206200262d8339815191526044820152691c99585d1959081e595d60b21b60648201526084016200042b565b6004541562000a8b5760405162461bcd60e51b815260206004820152606160248201527f7468652063757272656e742073746174652068617320616c726561647920626560448201527f656e207365742c20736f20796f752063616e6e6f7420636f6e6669677572652060648201527f74686520696e697469616c20737461746520616e64206f7665727269646520696084820152601d60fa1b60a482015260c4016200042b565b600455565b60035462000af25760405162461bcd60e51b815260206004820152602860248201527f746869732073746174656d616368696e6520686173206e6f74206265656e2073604482015267195d1d5c081e595d60c21b60648201526084016200042b565b8062000b0862000b0162000ce0565b8262000d4c565b600480548382556000848152600260205260408120919291909101905b815481101562000ba95762000b94838684848154811062000b5657634e487b7160e01b600052603260045260246000fd5b90600052602060002090600491828204019190066008029054906101000a900480156200120b60201b6200117a1702176001600160401b031660201c565b8062000ba081620012a9565b91505062000b25565b506040805160808101825283815260208082018781523383850181815242606080870191825260018054808201825560009190915296517fb10e2d527612073b26eecdfd717e6a320cf44b4afac2b0732d9fcbe2b7fa0cf660049889029081019190915594517fb10e2d527612073b26eecdfd717e6a320cf44b4afac2b0732d9fcbe2b7fa0cf786015591517fb10e2d527612073b26eecdfd717e6a320cf44b4afac2b0732d9fcbe2b7fa0cf8850180546001600160a01b0319166001600160a01b03909216919091179055517fb10e2d527612073b26eecdfd717e6a320cf44b4afac2b0732d9fcbe2b7fa0cf99093019290925592548451938452918301869052928201527f483a31c379a4b707332853662276a3424ec44f0ccbfc20d78fd9d143694f7669910160405180910390a150505050565b60045460009081526002602052604081205460ff1662000d455760405162461bcd60e51b815260206004820152602a60248201526000805160206200262d8339815191526044820152691c99585d1959081e595d60b21b60648201526084016200042b565b5060045490565b60008281526002602052604090205460ff1662000dd25760405162461bcd60e51b815260206004820152603560248201527f7468652066726f6d20737461746520686173206e6f74206265656e20636f6e6660448201527f69677572656420696e2074686973206f626a656374000000000000000000000060648201526084016200042b565b60008181526002602052604090205460ff1662000e585760405162461bcd60e51b815260206004820152603360248201527f74686520746f20737461746520686173206e6f74206265656e20636f6e66696760448201527f7572656420696e2074686973206f626a6563740000000000000000000000000060648201526084016200042b565b62000e64828262000fad565b62000eea5760405162461bcd60e51b815260206004820152604960248201527f74686520726571756573746564206e657874207374617465206973206e6f742060448201527f616e20616c6c6f776564206e65787420737461746520666f72207468697320746064820152683930b739b4ba34b7b760b91b608482015260a4016200042b565b62000ef5816200106f565b62000fa15760405162461bcd60e51b815260206004820152606960248201527f7468652073656e646572206f662074686973207472616e73616374696f6e206460448201527f6f6573206e6f742068617665206120726f6c65207468617420616c6c6f77732060648201527f7472616e736974696f6e206265747765656e207468652066726f6d20616e6420608482015268746f2073746174657360b81b60a482015260c4016200042b565b620005e2828262001102565b6000828152600260205260408120600501815b81548110156200106757604080516020810186905201604051602081830303815290604052805190602001208282815481106200100d57634e487b7160e01b600052603260045260246000fd5b90600052602060002001546040516020016200102b91815260200190565b60405160208183030381529060405280519060200120141562001052576001925062001067565b806200105e81620012a9565b91505062000fc0565b505092915050565b600081815260026020819052604082200180546200108c57600191505b60005b8154811015620010fb57620010d633838381548110620010bf57634e487b7160e01b600052603260045260246000fd5b90600052602060002001546200116160201b60201c565b15620010e65760019250620010fb565b80620010f281620012a9565b9150506200108f565b5050919050565b6000818152600260205260408120600301905b81548110156200115b5762001146848484848154811062000b5657634e487b7160e01b600052603260045260246000fd5b806200115281620012a9565b91505062001115565b50505050565b600080546001600160a01b03161580620012045750600054604051630dace25b60e31b81526001600160a01b0385811660048301523060248301526044820185905290911690636d6712d89060640160206040518083038186803b158015620011c957600080fd5b505afa158015620011de573d6000803e3d6000fd5b505050506040513d601f19601f8201168201806040525081019062001204919062001287565b9392505050565b634e487b7160e01b600052605160045260246000fd5b80516001600160a01b03811681146200123957600080fd5b919050565b60008060006060848603121562001253578283fd5b6200125e8462001221565b92506200126e6020850162001221565b91506200127e6040850162001221565b90509250925092565b60006020828403121562001299578081fd5b8151801515811462001204578182fd5b6000600019821415620012ca57634e487b7160e01b81526011600452602481fd5b5060010190565b61132c80620012e16000396000f3fe608060405234801561001057600080fd5b50600436106101375760003560e01c806364cf33b8116100b8578063a8257e7a1161007c578063a8257e7a146102b1578063c8691b2a146102c2578063cb0c059c146102d5578063f3cd7717146102e7578063f58f8e15146102f9578063f6242aef1461030f57610137565b806364cf33b81461023c578063694f1105146102445780639c557adc14610257578063a4ddb07114610267578063a7a38f0b1461026f57610137565b8063378aa701116100ff578063378aa701146101e157806345d61ded146101e957806345ecd3d7146102145780635478f4681461022157806362e060a31461022957610137565b806309648a9d1461013c578063289ecd7f146101695780632ca151221461018b5780632d595ac4146101ac5780632e2bc0d5146101cc575b600080fd5b61014f61014a3660046111b0565b61031e565b604051610160959493929190611215565b60405180910390f35b60075461017b90610100900460ff1681565b6040519015158152602001610160565b6101aa336000908152600960205260409020805460ff19166001179055565b005b6101be671050d0d15415115160c21b81565b604051908152602001610160565b6101d4610668565b6040516101609190611202565b6101be6106ce565b6000546101fc906001600160a01b031681565b6040516001600160a01b039091168152602001610160565b60075461017b9060ff1681565b6001546101be565b6101be6854454d504f5241525960b81b81565b6101aa61074e565b6101aa6102523660046111b0565b6107ea565b6101be6522a224aa27a960d11b81565b6101d4610a29565b61028261027d3660046111b0565b610a7f565b604051610160949392919093845260208401929092526001600160a01b03166040830152606082015260800190565b6101be6610d4915055115160ca1b81565b6102826102d03660046111b0565b610ac2565b6101be671353d1125192515160c21b81565b6101be671491529150d5115160c21b81565b6101be6b434f554e544552504152545960a01b81565b6101be64115391115160da1b81565b60008181526002602052604081206005546060918291829185918290819067ffffffffffffffff81111561036257634e487b7160e01b600052604160045260246000fd5b60405190808252806020026020018201604052801561038b578160200160208202803683370190505b50905060005b6005548110156104b657600260008b81526020019081526020016000206001016000600583815481106103d457634e487b7160e01b600052603260045260246000fd5b6000918252602080832060088304015460079092166004026101000a90910460e01b6001600160e01b031916835282019290925260400190205460ff16156104a4576005818154811061043757634e487b7160e01b600052603260045260246000fd5b90600052602060002090600891828204019190066004029054906101000a900460e01b828460ff168151811061047d57634e487b7160e01b600052603260045260246000fd5b6001600160e01b0319909216602092830291909101909101526104a16001846112a0565b92505b806104ae816112c5565b915050610391565b5060008260ff1667ffffffffffffffff8111156104e357634e487b7160e01b600052604160045260246000fd5b60405190808252806020026020018201604052801561050c578160200160208202803683370190505b50905060005b8360ff168110156105905782818151811061053d57634e487b7160e01b600052603260045260246000fd5b602002602001015182828151811061056557634e487b7160e01b600052603260045260246000fd5b6001600160e01b03199092166020928302919091019091015280610588816112c5565b915050610512565b50898460050185600201838760060160009054906101000a900460e01b838054806020026020016040519081016040528092919081815260200182805480156105f857602002820191906000526020600020905b8154815260200190600101908083116105e4575b505050505093508280548060200260200160405190810160405280929190818152602001828054801561064a57602002820191906000526020600020905b815481526020019060010190808311610636575b50505050509250985098509850985098505050505091939590929450565b6004546000908152600260209081526040918290206005018054835181840281018401909452808452606093928301828280156106c457602002820191906000526020600020905b8154815260200190600101908083116106b0575b5050505050905090565b60045460009081526002602052604081205460ff166107475760405162461bcd60e51b815260206004820152602a60248201527f74686520696e697469616c20737461746520686173206e6f74206265656e20636044820152691c99585d1959081e595d60b21b60648201526084015b60405180910390fd5b5060045490565b60045460009081526002602090815260408083206001600160e01b0319843516845260010190915290205460ff166107db5760405162461bcd60e51b815260206004820152602a60248201527f746869732066756e6374696f6e206973206e6f7420616c6c6f77656420696e206044820152697468697320737461746560b01b606482015260840161073e565b6007805460ff19166001179055565b60035461084a5760405162461bcd60e51b815260206004820152602860248201527f746869732073746174656d616368696e6520686173206e6f74206265656e2073604482015267195d1d5c081e595d60c21b606482015260840161073e565b8061085c6108566106ce565b82610cfe565b600480548382556000848152600260205260408120919291909101905b81548110156108f2576108e083868484815481106108a757634e487b7160e01b600052603260045260246000fd5b90600052602060002090600491828204019190066008029054906101000a9004801561117a021767ffffffffffffffff1663ffffffff16565b806108ea816112c5565b915050610879565b506040805160808101825283815260208082018781523383850181815242606080870191825260018054808201825560009190915296517fb10e2d527612073b26eecdfd717e6a320cf44b4afac2b0732d9fcbe2b7fa0cf660049889029081019190915594517fb10e2d527612073b26eecdfd717e6a320cf44b4afac2b0732d9fcbe2b7fa0cf786015591517fb10e2d527612073b26eecdfd717e6a320cf44b4afac2b0732d9fcbe2b7fa0cf8850180546001600160a01b0319166001600160a01b03909216919091179055517fb10e2d527612073b26eecdfd717e6a320cf44b4afac2b0732d9fcbe2b7fa0cf99093019290925592548451938452918301869052928201527f483a31c379a4b707332853662276a3424ec44f0ccbfc20d78fd9d143694f7669910160405180910390a150505050565b606060038054806020026020016040519081016040528092919081815260200182805480156106c457602002820191906000526020600020908154815260200190600101908083116106b0575050505050905090565b60018181548110610a8f57600080fd5b60009182526020909120600490910201805460018201546002830154600390930154919350916001600160a01b03169084565b60008080806001548510610b0e5760405162461bcd60e51b8152602060048201526013602482015272496e646578206f7574206f6620626f756e647360681b604482015260640161073e565b60018581548110610b2f57634e487b7160e01b600052603260045260246000fd5b90600052602060002090600402016000015460018681548110610b6257634e487b7160e01b600052603260045260246000fd5b90600052602060002090600402016001015460018781548110610b9557634e487b7160e01b600052603260045260246000fd5b906000526020600020906004020160020160009054906101000a90046001600160a01b031660018881548110610bdb57634e487b7160e01b600052603260045260246000fd5b90600052602060002090600402016003015493509350935093509193509193565b6007546201000090046001600160a01b031660009081526009602052604090205460ff16610c6c5760405162461bcd60e51b815260206004820152601860248201527f5061727479203120646964206e6f74207369676e207965740000000000000000604482015260640161073e565b6008546001600160a01b031660009081526009602052604090205460ff16610cd65760405162461bcd60e51b815260206004820152601860248201527f5061727479203220646964206e6f74207369676e207965740000000000000000604482015260640161073e565b5050565b50506007805461ff001916610100179055565b610cd664115391115160da1b6107ea565b60008281526002602052604090205460ff16610d7a5760405162461bcd60e51b815260206004820152603560248201527f7468652066726f6d20737461746520686173206e6f74206265656e20636f6e666044820152741a59dd5c9959081a5b881d1a1a5cc81bd89a9958dd605a1b606482015260840161073e565b60008181526002602052604090205460ff16610df45760405162461bcd60e51b815260206004820152603360248201527f74686520746f20737461746520686173206e6f74206265656e20636f6e6669676044820152721d5c9959081a5b881d1a1a5cc81bd89a9958dd606a1b606482015260840161073e565b610dfe8282610f3f565b610e825760405162461bcd60e51b815260206004820152604960248201527f74686520726571756573746564206e657874207374617465206973206e6f742060448201527f616e20616c6c6f776564206e65787420737461746520666f72207468697320746064820152683930b739b4ba34b7b760b91b608482015260a40161073e565b610e8b81610ff9565b610f355760405162461bcd60e51b815260206004820152606960248201527f7468652073656e646572206f662074686973207472616e73616374696f6e206460448201527f6f6573206e6f742068617665206120726f6c65207468617420616c6c6f77732060648201527f7472616e736974696f6e206265747765656e207468652066726f6d20616e6420608482015268746f2073746174657360b81b60a482015260c40161073e565b610cd6828261107c565b6000828152600260205260408120600501815b8154811015610ff15760408051602081018690520160405160208183030381529060405280519060200120828281548110610f9d57634e487b7160e01b600052603260045260246000fd5b9060005260206000200154604051602001610fba91815260200190565b604051602081830303815290604052805190602001201415610fdf5760019250610ff1565b80610fe9816112c5565b915050610f52565b505092915050565b6000818152600260208190526040822001805461101557600191505b60005b8154811015611075576110553383838154811061104557634e487b7160e01b600052603260045260246000fd5b90600052602060002001546110d5565b156110635760019250611075565b8061106d816112c5565b915050611018565b5050919050565b6000818152600260205260408120600301905b81548110156110cf576110bd84848484815481106108a757634e487b7160e01b600052603260045260246000fd5b806110c7816112c5565b91505061108f565b50505050565b600080546001600160a01b031615806111735750600054604051630dace25b60e31b81526001600160a01b0385811660048301523060248301526044820185905290911690636d6712d89060640160206040518083038186803b15801561113b57600080fd5b505afa15801561114f573d6000803e3d6000fd5b505050506040513d601f19601f820116820180604052508101906111739190611190565b9392505050565b634e487b7160e01b600052605160045260246000fd5b6000602082840312156111a1578081fd5b81518015158114611173578182fd5b6000602082840312156111c1578081fd5b5035919050565b6000815180845260208085019450808401835b838110156111f7578151875295820195908201906001016111db565b509495945050505050565b60006020825261117360208301846111c8565b6000868252602060a08184015261122f60a08401886111c8565b838103604085015261124181886111c8565b84810360608601528651808252838801925090830190845b8181101561127f5783516001600160e01b03191683529284019291840191600101611259565b505080935050505063ffffffff60e01b831660808301529695505050505050565b600060ff821660ff84168060ff038211156112bd576112bd6112e0565b019392505050565b60006000198214156112d9576112d96112e0565b5060010190565b634e487b7160e01b600052601160045260246000fdfea2646970667358221220aa99a777350f6b8c1da225571f65a10ca463e737d5e2f7abf992dc075264254f64736f6c6343000803003374686520737461746520686173206e6f74206265656e2063726561746564207974686520696e697469616c20737461746520686173206e6f74206265656e2063",
  "immutableReferences": {},
  "source": "// SPDX-License-Identifier: UNLICENSED\npragma solidity ^0.8.0;\n\nimport '../../../provenance/statemachine/StateMachine.sol';\n\ncontract StateMachineImplHappy is StateMachine {\n  bytes32 public constant STATE_CREATED = 'CREATED';\n  bytes32 public constant STATE_TEMPORARY = 'TEMPORARY';\n  bytes32 public constant STATE_MODIFIED = 'MODIFIED';\n  bytes32 public constant STATE_ACCEPTED = 'ACCEPTED';\n  bytes32 public constant STATE_REJECTED = 'REJECTED';\n  bytes32 public constant STATE_ENDED = 'ENDED';\n\n  bytes32 public constant ROLE_EDITOR = 'EDITOR';\n  bytes32 public constant ROLE_COUNTERPARTY = 'COUNTERPARTY';\n\n  bool public modified = false;\n  bool public modificationTransitionHandled = false;\n\n  address party1;\n  address party2;\n  mapping(address => bool) signatures;\n\n  constructor(\n    address gateKeeper,\n    address partyOne,\n    address partyTwo\n  ) Secured(gateKeeper) {\n    party1 = partyOne;\n    party2 = partyTwo;\n    setupStateMachine();\n  }\n\n  function modify() public checkAllowedFunction {\n    modified = true;\n  }\n\n  function sign() public {\n    signatures[msg.sender] = true;\n  }\n\n  function setupStateMachine() internal override {\n    createState(STATE_CREATED);\n    createState(STATE_MODIFIED);\n    createState(STATE_ACCEPTED);\n    createState(STATE_REJECTED);\n    createState(STATE_TEMPORARY);\n    createState(STATE_ENDED);\n\n    // STATE_ENDED\n    addRoleForState(STATE_ENDED, ROLE_EDITOR);\n\n    // STATE_REJECTED\n    addRoleForState(STATE_REJECTED, ROLE_COUNTERPARTY);\n\n    // STATE_ACCEPTED\n    addRoleForState(STATE_ACCEPTED, ROLE_COUNTERPARTY);\n    addPreConditionForState(STATE_ACCEPTED, acceptPreCondition);\n    addNextStateForState(STATE_ACCEPTED, STATE_ENDED);\n    addNextStateForState(STATE_ACCEPTED, STATE_TEMPORARY);\n\n    // STATE_MODIFIED\n    addRoleForState(STATE_MODIFIED, ROLE_EDITOR);\n    addAllowedFunctionForState(STATE_MODIFIED, this.modify.selector);\n    addNextStateForState(STATE_MODIFIED, STATE_MODIFIED);\n    addCallbackForState(STATE_MODIFIED, handleModificationTransition);\n    addNextStateForState(STATE_MODIFIED, STATE_ACCEPTED);\n    addNextStateForState(STATE_MODIFIED, STATE_REJECTED);\n\n    // Adjust STATE_REJECTED\n    addNextStateForState(STATE_REJECTED, STATE_MODIFIED);\n\n    // STATE_CREATED\n    addRoleForState(STATE_CREATED, ROLE_EDITOR);\n    addAllowedFunctionForState(STATE_CREATED, this.modify.selector);\n    addNextStateForState(STATE_CREATED, STATE_MODIFIED);\n    addNextStateForState(STATE_CREATED, STATE_ACCEPTED);\n    addNextStateForState(STATE_CREATED, STATE_REJECTED);\n    addNextStateForState(STATE_TEMPORARY, STATE_ENDED);\n    addCallbackForState(STATE_TEMPORARY, testInternalTransition);\n\n    setInitialState(STATE_CREATED);\n  }\n\n  function handleModificationTransition(\n    bytes32, /*fromState*/\n    bytes32 /*toState*/\n  ) internal {\n    modificationTransitionHandled = true;\n  }\n\n  function acceptPreCondition(\n    bytes32, /*fromState*/\n    bytes32 /*toState*/\n  ) internal view {\n    require(signatures[party1], 'Party 1 did not sign yet');\n    require(signatures[party2], 'Party 2 did not sign yet');\n  }\n\n  function testInternalTransition(\n    bytes32, /*fromState*/\n    bytes32 /*toState*/\n  ) internal {\n    transitionState(STATE_ENDED);\n  }\n}\n",
  "sourcePath": "/home/coder/project/contracts/_library/_test/provenance/statemachine/StateMachineImplHappy.sol",
  "compiler": {
    "name": "solc",
    "version": "0.8.3+commit.8d00100c.Emscripten.clang"
  },
  "schemaVersion": "3.4.3",
  "updatedAt": "2021-09-21T08:20:57.798Z",
  "devdoc": {
    "kind": "dev",
    "methods": {
      "getCurrentState()": {
        "details": "Requires the current state to be configured before calling this function"
      },
      "getHistory(uint256)": {
        "details": "Requires the index to be within the bounds of the history array"
      },
      "transitionState(bytes32)": {
        "details": "Emits a Transition event after a successful transition."
      }
    },
    "version": 1
  },
  "userdoc": {
    "kind": "user",
    "methods": {
      "getAllStates()": {
        "notice": "Returns a list of all the possible states of this object."
      },
      "getCurrentState()": {
        "notice": "Returns the name of the current state of this object."
      },
      "getHistory(uint256)": {
        "notice": "Returns history as tuple for given index."
      },
      "getHistoryLength()": {
        "notice": "Returns the length of the history"
      },
      "getNextStates()": {
        "notice": "Returns a list of all the possible next states of the current state."
      },
      "getState(bytes32)": {
        "notice": "Returns state as tuple for give state."
      },
      "transitionState(bytes32)": {
        "notice": "Transitions the state and executes all callbacks."
      }
    },
    "version": 1
  }
}