{
  "contractName": "StatefulBond",
  "abi": [
    {
      "inputs": [
        {
          "internalType": "string",
          "name": "name",
          "type": "string"
        },
        {
          "internalType": "uint256",
          "name": "parValue",
          "type": "uint256"
        },
        {
          "internalType": "uint256",
          "name": "couponRate",
          "type": "uint256"
        },
        {
          "internalType": "uint8",
          "name": "decimals",
          "type": "uint8"
        },
        {
          "internalType": "bytes32",
          "name": "inFlight",
          "type": "bytes32"
        },
        {
          "internalType": "bytes32",
          "name": "frequency",
          "type": "bytes32"
        },
        {
          "internalType": "contract GateKeeper",
          "name": "gateKeeper",
          "type": "address"
        },
        {
          "internalType": "string",
          "name": "ipfsFieldContainerHash",
          "type": "string"
        },
        {
          "internalType": "string",
          "name": "uiFieldDefinitionsHash",
          "type": "string"
        }
      ],
      "stateMutability": "nonpayable",
      "type": "constructor"
    },
    {
      "anonymous": false,
      "inputs": [
        {
          "indexed": true,
          "internalType": "address",
          "name": "owner",
          "type": "address"
        },
        {
          "indexed": true,
          "internalType": "address",
          "name": "spender",
          "type": "address"
        },
        {
          "indexed": false,
          "internalType": "uint256",
          "name": "value",
          "type": "uint256"
        }
      ],
      "name": "Approval",
      "type": "event"
    },
    {
      "anonymous": false,
      "inputs": [
        {
          "indexed": true,
          "internalType": "address",
          "name": "from",
          "type": "address"
        },
        {
          "indexed": false,
          "internalType": "uint256",
          "name": "amount",
          "type": "uint256"
        }
      ],
      "name": "Burn",
      "type": "event"
    },
    {
      "anonymous": false,
      "inputs": [
        {
          "indexed": true,
          "internalType": "address",
          "name": "to",
          "type": "address"
        },
        {
          "indexed": false,
          "internalType": "uint256",
          "name": "amount",
          "type": "uint256"
        }
      ],
      "name": "Mint",
      "type": "event"
    },
    {
      "anonymous": false,
      "inputs": [
        {
          "indexed": false,
          "internalType": "address",
          "name": "to",
          "type": "address"
        },
        {
          "indexed": false,
          "internalType": "uint256",
          "name": "holderBalance",
          "type": "uint256"
        },
        {
          "indexed": false,
          "internalType": "uint256",
          "name": "payment",
          "type": "uint256"
        }
      ],
      "name": "PaymentCommand",
      "type": "event"
    },
    {
      "anonymous": false,
      "inputs": [
        {
          "indexed": true,
          "internalType": "address",
          "name": "from",
          "type": "address"
        },
        {
          "indexed": true,
          "internalType": "address",
          "name": "to",
          "type": "address"
        },
        {
          "indexed": false,
          "internalType": "uint256",
          "name": "value",
          "type": "uint256"
        }
      ],
      "name": "Transfer",
      "type": "event"
    },
    {
      "anonymous": false,
      "inputs": [
        {
          "indexed": true,
          "internalType": "address",
          "name": "from",
          "type": "address"
        },
        {
          "indexed": true,
          "internalType": "address",
          "name": "to",
          "type": "address"
        },
        {
          "indexed": false,
          "internalType": "bytes",
          "name": "data",
          "type": "bytes"
        }
      ],
      "name": "TransferData",
      "type": "event"
    },
    {
      "anonymous": false,
      "inputs": [
        {
          "indexed": false,
          "internalType": "address",
          "name": "sender",
          "type": "address"
        },
        {
          "indexed": false,
          "internalType": "bytes32",
          "name": "fromState",
          "type": "bytes32"
        },
        {
          "indexed": false,
          "internalType": "bytes32",
          "name": "toState",
          "type": "bytes32"
        }
      ],
      "name": "Transition",
      "type": "event"
    },
    {
      "inputs": [],
      "name": "BURN_ROLE",
      "outputs": [
        {
          "internalType": "bytes32",
          "name": "",
          "type": "bytes32"
        }
      ],
      "stateMutability": "view",
      "type": "function"
    },
    {
      "inputs": [],
      "name": "MINT_ROLE",
      "outputs": [
        {
          "internalType": "bytes32",
          "name": "",
          "type": "bytes32"
        }
      ],
      "stateMutability": "view",
      "type": "function"
    },
    {
      "inputs": [],
      "name": "ROLE_ADMIN",
      "outputs": [
        {
          "internalType": "bytes32",
          "name": "",
          "type": "bytes32"
        }
      ],
      "stateMutability": "view",
      "type": "function"
    },
    {
      "inputs": [],
      "name": "ROLE_CHECKER",
      "outputs": [
        {
          "internalType": "bytes32",
          "name": "",
          "type": "bytes32"
        }
      ],
      "stateMutability": "view",
      "type": "function"
    },
    {
      "inputs": [],
      "name": "ROLE_MAKER",
      "outputs": [
        {
          "internalType": "bytes32",
          "name": "",
          "type": "bytes32"
        }
      ],
      "stateMutability": "view",
      "type": "function"
    },
    {
      "inputs": [],
      "name": "STATE_CHANGES_NEEDED",
      "outputs": [
        {
          "internalType": "bytes32",
          "name": "",
          "type": "bytes32"
        }
      ],
      "stateMutability": "view",
      "type": "function"
    },
    {
      "inputs": [],
      "name": "STATE_CONVERTED",
      "outputs": [
        {
          "internalType": "bytes32",
          "name": "",
          "type": "bytes32"
        }
      ],
      "stateMutability": "view",
      "type": "function"
    },
    {
      "inputs": [],
      "name": "STATE_CREATED",
      "outputs": [
        {
          "internalType": "bytes32",
          "name": "",
          "type": "bytes32"
        }
      ],
      "stateMutability": "view",
      "type": "function"
    },
    {
      "inputs": [],
      "name": "STATE_MATURED",
      "outputs": [
        {
          "internalType": "bytes32",
          "name": "",
          "type": "bytes32"
        }
      ],
      "stateMutability": "view",
      "type": "function"
    },
    {
      "inputs": [],
      "name": "STATE_READY_FOR_TOKENIZATION",
      "outputs": [
        {
          "internalType": "bytes32",
          "name": "",
          "type": "bytes32"
        }
      ],
      "stateMutability": "view",
      "type": "function"
    },
    {
      "inputs": [],
      "name": "STATE_TOKENIZATION_APPROVED",
      "outputs": [
        {
          "internalType": "bytes32",
          "name": "",
          "type": "bytes32"
        }
      ],
      "stateMutability": "view",
      "type": "function"
    },
    {
      "inputs": [],
      "name": "STATE_TOKENIZATION_DENIED",
      "outputs": [
        {
          "internalType": "bytes32",
          "name": "",
          "type": "bytes32"
        }
      ],
      "stateMutability": "view",
      "type": "function"
    },
    {
      "inputs": [],
      "name": "STATE_TOKENIZATION_REQUEST",
      "outputs": [
        {
          "internalType": "bytes32",
          "name": "",
          "type": "bytes32"
        }
      ],
      "stateMutability": "view",
      "type": "function"
    },
    {
      "inputs": [],
      "name": "STATE_TO_REVIEW",
      "outputs": [
        {
          "internalType": "bytes32",
          "name": "",
          "type": "bytes32"
        }
      ],
      "stateMutability": "view",
      "type": "function"
    },
    {
      "inputs": [],
      "name": "UPDATE_IPFSCONTAINERHASH_ROLE",
      "outputs": [
        {
          "internalType": "bytes32",
          "name": "",
          "type": "bytes32"
        }
      ],
      "stateMutability": "view",
      "type": "function"
    },
    {
      "inputs": [],
      "name": "_couponRate",
      "outputs": [
        {
          "internalType": "uint256",
          "name": "",
          "type": "uint256"
        }
      ],
      "stateMutability": "view",
      "type": "function"
    },
    {
      "inputs": [],
      "name": "_decimals",
      "outputs": [
        {
          "internalType": "uint8",
          "name": "",
          "type": "uint8"
        }
      ],
      "stateMutability": "view",
      "type": "function"
    },
    {
      "inputs": [],
      "name": "_frequency",
      "outputs": [
        {
          "internalType": "bytes32",
          "name": "",
          "type": "bytes32"
        }
      ],
      "stateMutability": "view",
      "type": "function"
    },
    {
      "inputs": [],
      "name": "_inFlight",
      "outputs": [
        {
          "internalType": "bytes32",
          "name": "",
          "type": "bytes32"
        }
      ],
      "stateMutability": "view",
      "type": "function"
    },
    {
      "inputs": [],
      "name": "_ipfsFieldContainerHash",
      "outputs": [
        {
          "internalType": "string",
          "name": "",
          "type": "string"
        }
      ],
      "stateMutability": "view",
      "type": "function"
    },
    {
      "inputs": [],
      "name": "_launchDate",
      "outputs": [
        {
          "internalType": "uint256",
          "name": "",
          "type": "uint256"
        }
      ],
      "stateMutability": "view",
      "type": "function"
    },
    {
      "inputs": [],
      "name": "_name",
      "outputs": [
        {
          "internalType": "string",
          "name": "",
          "type": "string"
        }
      ],
      "stateMutability": "view",
      "type": "function"
    },
    {
      "inputs": [],
      "name": "_parValue",
      "outputs": [
        {
          "internalType": "uint256",
          "name": "",
          "type": "uint256"
        }
      ],
      "stateMutability": "view",
      "type": "function"
    },
    {
      "inputs": [
        {
          "internalType": "uint256",
          "name": "",
          "type": "uint256"
        }
      ],
      "name": "_roles",
      "outputs": [
        {
          "internalType": "bytes32",
          "name": "",
          "type": "bytes32"
        }
      ],
      "stateMutability": "view",
      "type": "function"
    },
    {
      "inputs": [],
      "name": "_tokenizationAmount",
      "outputs": [
        {
          "internalType": "uint256",
          "name": "",
          "type": "uint256"
        }
      ],
      "stateMutability": "view",
      "type": "function"
    },
    {
      "inputs": [],
      "name": "_tokenizationRecipient",
      "outputs": [
        {
          "internalType": "address",
          "name": "",
          "type": "address"
        }
      ],
      "stateMutability": "view",
      "type": "function"
    },
    {
      "inputs": [],
      "name": "_uiFieldDefinitionsHash",
      "outputs": [
        {
          "internalType": "string",
          "name": "",
          "type": "string"
        }
      ],
      "stateMutability": "view",
      "type": "function"
    },
    {
      "inputs": [
        {
          "internalType": "address",
          "name": "owner",
          "type": "address"
        },
        {
          "internalType": "address",
          "name": "spender",
          "type": "address"
        }
      ],
      "name": "allowance",
      "outputs": [
        {
          "internalType": "uint256",
          "name": "remaining",
          "type": "uint256"
        }
      ],
      "stateMutability": "view",
      "type": "function"
    },
    {
      "inputs": [
        {
          "internalType": "address",
          "name": "spender",
          "type": "address"
        },
        {
          "internalType": "uint256",
          "name": "value",
          "type": "uint256"
        }
      ],
      "name": "approve",
      "outputs": [
        {
          "internalType": "bool",
          "name": "",
          "type": "bool"
        }
      ],
      "stateMutability": "nonpayable",
      "type": "function"
    },
    {
      "inputs": [
        {
          "internalType": "address",
          "name": "spender",
          "type": "address"
        },
        {
          "internalType": "uint256",
          "name": "value",
          "type": "uint256"
        },
        {
          "internalType": "bytes",
          "name": "data",
          "type": "bytes"
        }
      ],
      "name": "approveAndCall",
      "outputs": [
        {
          "internalType": "bool",
          "name": "success",
          "type": "bool"
        }
      ],
      "stateMutability": "nonpayable",
      "type": "function"
    },
    {
      "inputs": [
        {
          "internalType": "address",
          "name": "owner",
          "type": "address"
        }
      ],
      "name": "balanceOf",
      "outputs": [
        {
          "internalType": "uint256",
          "name": "balance",
          "type": "uint256"
        }
      ],
      "stateMutability": "view",
      "type": "function"
    },
    {
      "inputs": [
        {
          "internalType": "address",
          "name": "from",
          "type": "address"
        },
        {
          "internalType": "uint256",
          "name": "amount",
          "type": "uint256"
        }
      ],
      "name": "burn",
      "outputs": [
        {
          "internalType": "bool",
          "name": "success",
          "type": "bool"
        }
      ],
      "stateMutability": "nonpayable",
      "type": "function"
    },
    {
      "inputs": [
        {
          "internalType": "address",
          "name": "roleRegistryAddress",
          "type": "address"
        },
        {
          "internalType": "uint256",
          "name": "amount",
          "type": "uint256"
        }
      ],
      "name": "burnFromRoleRegistry",
      "outputs": [
        {
          "internalType": "bool",
          "name": "success",
          "type": "bool"
        }
      ],
      "stateMutability": "nonpayable",
      "type": "function"
    },
    {
      "inputs": [
        {
          "internalType": "address",
          "name": "spender",
          "type": "address"
        },
        {
          "internalType": "uint256",
          "name": "subtractedValue",
          "type": "uint256"
        }
      ],
      "name": "decreaseApproval",
      "outputs": [
        {
          "internalType": "bool",
          "name": "success",
          "type": "bool"
        }
      ],
      "stateMutability": "nonpayable",
      "type": "function"
    },
    {
      "inputs": [],
      "name": "gateKeeper",
      "outputs": [
        {
          "internalType": "contract GateKeeper",
          "name": "",
          "type": "address"
        }
      ],
      "stateMutability": "view",
      "type": "function"
    },
    {
      "inputs": [],
      "name": "getAllStates",
      "outputs": [
        {
          "internalType": "bytes32[]",
          "name": "allStates",
          "type": "bytes32[]"
        }
      ],
      "stateMutability": "view",
      "type": "function"
    },
    {
      "inputs": [],
      "name": "getCurrentState",
      "outputs": [
        {
          "internalType": "bytes32",
          "name": "state",
          "type": "bytes32"
        }
      ],
      "stateMutability": "view",
      "type": "function"
    },
    {
      "inputs": [
        {
          "internalType": "uint256",
          "name": "index",
          "type": "uint256"
        }
      ],
      "name": "getHistory",
      "outputs": [
        {
          "internalType": "bytes32",
          "name": "fromState",
          "type": "bytes32"
        },
        {
          "internalType": "bytes32",
          "name": "toState",
          "type": "bytes32"
        },
        {
          "internalType": "address",
          "name": "actor",
          "type": "address"
        },
        {
          "internalType": "uint256",
          "name": "timestamp",
          "type": "uint256"
        }
      ],
      "stateMutability": "view",
      "type": "function"
    },
    {
      "inputs": [],
      "name": "getHistoryLength",
      "outputs": [
        {
          "internalType": "uint256",
          "name": "",
          "type": "uint256"
        }
      ],
      "stateMutability": "view",
      "type": "function"
    },
    {
      "inputs": [],
      "name": "getIpfsFieldContainerHash",
      "outputs": [
        {
          "internalType": "string",
          "name": "",
          "type": "string"
        }
      ],
      "stateMutability": "view",
      "type": "function"
    },
    {
      "inputs": [],
      "name": "getNextStates",
      "outputs": [
        {
          "internalType": "bytes32[]",
          "name": "nextStates",
          "type": "bytes32[]"
        }
      ],
      "stateMutability": "view",
      "type": "function"
    },
    {
      "inputs": [
        {
          "internalType": "bytes32",
          "name": "state",
          "type": "bytes32"
        }
      ],
      "name": "getState",
      "outputs": [
        {
          "internalType": "bytes32",
          "name": "name",
          "type": "bytes32"
        },
        {
          "internalType": "bytes32[]",
          "name": "nextStates",
          "type": "bytes32[]"
        },
        {
          "internalType": "bytes32[]",
          "name": "allowedRoles",
          "type": "bytes32[]"
        },
        {
          "internalType": "bytes4[]",
          "name": "allowedFunctions",
          "type": "bytes4[]"
        },
        {
          "internalType": "bytes4",
          "name": "preFunction",
          "type": "bytes4"
        }
      ],
      "stateMutability": "view",
      "type": "function"
    },
    {
      "inputs": [
        {
          "internalType": "uint256",
          "name": "",
          "type": "uint256"
        }
      ],
      "name": "history",
      "outputs": [
        {
          "internalType": "bytes32",
          "name": "fromState",
          "type": "bytes32"
        },
        {
          "internalType": "bytes32",
          "name": "toState",
          "type": "bytes32"
        },
        {
          "internalType": "address",
          "name": "actor",
          "type": "address"
        },
        {
          "internalType": "uint256",
          "name": "timestamp",
          "type": "uint256"
        }
      ],
      "stateMutability": "view",
      "type": "function"
    },
    {
      "inputs": [
        {
          "internalType": "address",
          "name": "spender",
          "type": "address"
        },
        {
          "internalType": "uint256",
          "name": "addedValue",
          "type": "uint256"
        }
      ],
      "name": "increaseApproval",
      "outputs": [
        {
          "internalType": "bool",
          "name": "success",
          "type": "bool"
        }
      ],
      "stateMutability": "nonpayable",
      "type": "function"
    },
    {
      "inputs": [
        {
          "internalType": "address",
          "name": "to",
          "type": "address"
        },
        {
          "internalType": "uint256",
          "name": "amount",
          "type": "uint256"
        }
      ],
      "name": "mint",
      "outputs": [
        {
          "internalType": "bool",
          "name": "success",
          "type": "bool"
        }
      ],
      "stateMutability": "nonpayable",
      "type": "function"
    },
    {
      "inputs": [
        {
          "internalType": "address",
          "name": "roleRegistryAddress",
          "type": "address"
        },
        {
          "internalType": "uint256",
          "name": "amount",
          "type": "uint256"
        }
      ],
      "name": "mintToRoleRegistry",
      "outputs": [
        {
          "internalType": "bool",
          "name": "success",
          "type": "bool"
        }
      ],
      "stateMutability": "nonpayable",
      "type": "function"
    },
    {
      "inputs": [
        {
          "internalType": "bytes32",
          "name": "key",
          "type": "bytes32"
        },
        {
          "internalType": "string",
          "name": "file",
          "type": "string"
        }
      ],
      "name": "setContractFile",
      "outputs": [],
      "stateMutability": "nonpayable",
      "type": "function"
    },
    {
      "inputs": [
        {
          "internalType": "string",
          "name": "ipfsHash",
          "type": "string"
        }
      ],
      "name": "setIpfsFieldContainerHash",
      "outputs": [],
      "stateMutability": "nonpayable",
      "type": "function"
    },
    {
      "inputs": [],
      "name": "totalSupply",
      "outputs": [
        {
          "internalType": "uint256",
          "name": "",
          "type": "uint256"
        }
      ],
      "stateMutability": "view",
      "type": "function"
    },
    {
      "inputs": [
        {
          "internalType": "address",
          "name": "to",
          "type": "address"
        },
        {
          "internalType": "uint256",
          "name": "value",
          "type": "uint256"
        }
      ],
      "name": "transfer",
      "outputs": [
        {
          "internalType": "bool",
          "name": "success",
          "type": "bool"
        }
      ],
      "stateMutability": "nonpayable",
      "type": "function"
    },
    {
      "inputs": [
        {
          "internalType": "address",
          "name": "from",
          "type": "address"
        },
        {
          "internalType": "address",
          "name": "to",
          "type": "address"
        },
        {
          "internalType": "uint256",
          "name": "value",
          "type": "uint256"
        }
      ],
      "name": "transferFrom",
      "outputs": [
        {
          "internalType": "bool",
          "name": "success",
          "type": "bool"
        }
      ],
      "stateMutability": "nonpayable",
      "type": "function"
    },
    {
      "inputs": [
        {
          "internalType": "address",
          "name": "from",
          "type": "address"
        },
        {
          "internalType": "address",
          "name": "to",
          "type": "address"
        },
        {
          "internalType": "uint256",
          "name": "value",
          "type": "uint256"
        },
        {
          "internalType": "bytes",
          "name": "data",
          "type": "bytes"
        }
      ],
      "name": "transferFromWithData",
      "outputs": [
        {
          "internalType": "bool",
          "name": "success",
          "type": "bool"
        }
      ],
      "stateMutability": "nonpayable",
      "type": "function"
    },
    {
      "inputs": [
        {
          "internalType": "address",
          "name": "to",
          "type": "address"
        },
        {
          "internalType": "uint256",
          "name": "value",
          "type": "uint256"
        },
        {
          "internalType": "bytes",
          "name": "data",
          "type": "bytes"
        }
      ],
      "name": "transferWithData",
      "outputs": [
        {
          "internalType": "bool",
          "name": "success",
          "type": "bool"
        }
      ],
      "stateMutability": "nonpayable",
      "type": "function"
    },
    {
      "inputs": [
        {
          "internalType": "bytes32",
          "name": "toState",
          "type": "bytes32"
        }
      ],
      "name": "transitionState",
      "outputs": [],
      "stateMutability": "nonpayable",
      "type": "function"
    },
    {
      "inputs": [],
      "name": "canEdit",
      "outputs": [
        {
          "internalType": "bytes32[]",
          "name": "",
          "type": "bytes32[]"
        }
      ],
      "stateMutability": "view",
      "type": "function"
    },
    {
      "inputs": [
        {
          "internalType": "bytes",
          "name": "fieldName",
          "type": "bytes"
        }
      ],
      "name": "getDecimalsFor",
      "outputs": [
        {
          "internalType": "uint256",
          "name": "",
          "type": "uint256"
        }
      ],
      "stateMutability": "view",
      "type": "function"
    },
    {
      "inputs": [
        {
          "internalType": "string",
          "name": "name",
          "type": "string"
        },
        {
          "internalType": "uint256",
          "name": "parValue",
          "type": "uint256"
        },
        {
          "internalType": "uint256",
          "name": "couponRate",
          "type": "uint256"
        },
        {
          "internalType": "uint8",
          "name": "decimals",
          "type": "uint8"
        },
        {
          "internalType": "bytes32",
          "name": "inFlight",
          "type": "bytes32"
        },
        {
          "internalType": "bytes32",
          "name": "frequency",
          "type": "bytes32"
        },
        {
          "internalType": "string",
          "name": "ipfsFieldContainerHash",
          "type": "string"
        }
      ],
      "name": "edit",
      "outputs": [],
      "stateMutability": "nonpayable",
      "type": "function"
    },
    {
      "inputs": [
        {
          "internalType": "uint256",
          "name": "launchDate",
          "type": "uint256"
        }
      ],
      "name": "launch",
      "outputs": [],
      "stateMutability": "nonpayable",
      "type": "function"
    },
    {
      "inputs": [
        {
          "internalType": "uint256",
          "name": "amount",
          "type": "uint256"
        }
      ],
      "name": "requestTokenization",
      "outputs": [],
      "stateMutability": "nonpayable",
      "type": "function"
    },
    {
      "inputs": [
        {
          "internalType": "bytes32",
          "name": "fromState",
          "type": "bytes32"
        },
        {
          "internalType": "bytes32",
          "name": "toState",
          "type": "bytes32"
        }
      ],
      "name": "tokenize",
      "outputs": [],
      "stateMutability": "nonpayable",
      "type": "function"
    },
    {
      "inputs": [
        {
          "internalType": "bytes32",
          "name": "",
          "type": "bytes32"
        },
        {
          "internalType": "bytes32",
          "name": "",
          "type": "bytes32"
        }
      ],
      "name": "mature",
      "outputs": [],
      "stateMutability": "nonpayable",
      "type": "function"
    },
    {
      "inputs": [
        {
          "internalType": "bytes32",
          "name": "",
          "type": "bytes32"
        },
        {
          "internalType": "bytes32",
          "name": "",
          "type": "bytes32"
        }
      ],
      "name": "convert",
      "outputs": [],
      "stateMutability": "nonpayable",
      "type": "function"
    },
    {
      "inputs": [],
      "name": "coupon",
      "outputs": [],
      "stateMutability": "nonpayable",
      "type": "function"
    },
    {
      "inputs": [
        {
          "internalType": "bytes32",
          "name": "",
          "type": "bytes32"
        },
        {
          "internalType": "bytes32",
          "name": "",
          "type": "bytes32"
        }
      ],
      "name": "reset",
      "outputs": [],
      "stateMutability": "nonpayable",
      "type": "function"
    },
    {
      "inputs": [],
      "name": "getRoles",
      "outputs": [
        {
          "internalType": "bytes32[]",
          "name": "",
          "type": "bytes32[]"
        }
      ],
      "stateMutability": "view",
      "type": "function"
    },
    {
      "inputs": [],
      "name": "getIndexLength",
      "outputs": [
        {
          "internalType": "uint256",
          "name": "length",
          "type": "uint256"
        }
      ],
      "stateMutability": "view",
      "type": "function"
    },
    {
      "inputs": [
        {
          "internalType": "uint256",
          "name": "index",
          "type": "uint256"
        }
      ],
      "name": "getByIndex",
      "outputs": [
        {
          "internalType": "address",
          "name": "holder",
          "type": "address"
        },
        {
          "internalType": "uint256",
          "name": "balance",
          "type": "uint256"
        }
      ],
      "stateMutability": "view",
      "type": "function"
    },
    {
      "inputs": [
        {
          "internalType": "address",
          "name": "key",
          "type": "address"
        }
      ],
      "name": "getByKey",
      "outputs": [
        {
          "internalType": "address",
          "name": "holder",
          "type": "address"
        },
        {
          "internalType": "uint256",
          "name": "balance",
          "type": "uint256"
        }
      ],
      "stateMutability": "view",
      "type": "function"
    }
  ],
  "bytecode": "0x60e0604052692927a622afa0a226a4a760b11b6080908152692927a622afa6a0a5a2a960b11b60a0526b2927a622afa1a422a1a5a2a960a11b60c0526200004b9060129060036200201c565b5060408051808201909152692927a622afa0a226a4a760b11b8152692927a622afa6a0a5a2a960b11b6020820152620000899060139060026200201c565b503480156200009757600080fd5b506040516200611638038062006116833981016040819052620000ba91620021f0565b600080546001600160a01b0319166001600160a01b03851617905588518990879085908490849084908490620000f890600b9060208601906200206c565b5050600c805460ff191660ff92909216919091179055508051620001249060119060208401906200206c565b505084516200013e9350600a92506020860191506200206c565b50601488905560158790556019859055601a849055601b805461ffff19166102021790556200016c6200017b565b50505050505050505062002562565b620001906610d4915055115160ca1b62000a25565b620001a768544f2052455649455760b81b62000a25565b620001c16000805160206200601683398151915262000a25565b620001dd6d10d2105391d154c813915151115160921b62000a25565b620001f76000805160206200605683398151915262000a25565b62000211600080516020620060f683398151915262000a25565b6200022b600080516020620060d683398151915262000a25565b6019546259455360e81b14156200025357620002536810d3d395915495115160ba1b62000a25565b62000268661350551554915160ca1b62000a25565b6200028a6610d4915055115160ca1b68544f2052455649455760b81b62000ae3565b620002a76610d4915055115160ca1b630a61ee6960e11b62000bc3565b620002cc68544f2052455649455760b81b692927a622afa0a226a4a760b11b62000cfb565b620002f168544f2052455649455760b81b692927a622afa6a0a5a2a960b11b62000cfb565b6200031868544f2052455649455760b81b6000805160206200601683398151915262000ae3565b6200034168544f2052455649455760b81b6d10d2105391d154c813915151115160921b62000ae3565b6200036b6d10d2105391d154c813915151115160921b692927a622afa0a226a4a760b11b62000cfb565b620003976d10d2105391d154c813915151115160921b6b2927a622afa1a422a1a5a2a960a11b62000cfb565b620003c06d10d2105391d154c813915151115160921b68544f2052455649455760b81b62000ae3565b620003e46d10d2105391d154c813915151115160921b630a61ee6960e11b62000bc3565b620004066000805160206200601683398151915263216c4b1f60e21b62000d7e565b6200042e60008051602062006016833981519152692927a622afa0a226a4a760b11b62000cfb565b62000458600080516020620060168339815191526b2927a622afa1a422a1a5a2a960a11b62000cfb565b62000482600080516020620060168339815191526000805160206200605683398151915262000ae3565b6019546259455360e81b1415620004ba57620004ba600080516020620060168339815191526810d3d395915495115160ba1b62000ae3565b620004df60008051602062006016833981519152661350551554915160ca1b62000ae3565b6200050160008051602062006016833981519152630316adcf60e11b62000bc3565b62000523600080516020620060168339815191526355c0134560e01b62000bc3565b620005456000805160206200601683398151915263a9059cbb60e01b62000bc3565b6200056760008051602062006056833981519152630316adcf60e11b62000d7e565b6200058f60008051602062006056833981519152692927a622afa0a226a4a760b11b62000cfb565b620005b760008051602062006056833981519152692927a622afa6a0a5a2a960b11b62000cfb565b620005e160008051602062006056833981519152600080516020620060d683398151915262000ae3565b620006036000805160206200605683398151915263a9059cbb60e01b62000bc3565b6200062d60008051602062006056833981519152600080516020620060f683398151915262000ae3565b62000655600080516020620060f6833981519152692927a622afa0a226a4a760b11b62000cfb565b6200067f600080516020620060f68339815191526b2927a622afa1a422a1a5a2a960a11b62000cfb565b620006a9600080516020620060f68339815191526000805160206200601683398151915262000ae3565b620006cf600080516020620060f683398151915262002a9562000e0460201b1762000eb5565b620006f1600080516020620060f683398151915263a9059cbb60e01b62000bc3565b62000713600080516020620060f68339815191526339c727f760e21b62000bc3565b62000735600080516020620060f683398151915263694f110560e01b62000bc3565b6200075d600080516020620060d6833981519152692927a622afa0a226a4a760b11b62000cfb565b62000787600080516020620060d68339815191526b2927a622afa1a422a1a5a2a960a11b62000cfb565b620007b1600080516020620060d68339815191526000805160206200601683398151915262000ae3565b620007d7600080516020620060d6833981519152620009a162000f6660201b1762000eb5565b620007f9600080516020620060d68339815191526301f10a4960e01b62000bc3565b6200081b600080516020620060d68339815191526340c10f1960e01b62000bc3565b6200083d600080516020620060d683398151915263694f110560e01b62000bc3565b6200085f600080516020620060d683398151915263a9059cbb60e01b62000bc3565b62000881600080516020620060d68339815191526306da191360e51b62000bc3565b620008a3600080516020620060d68339815191526339c727f760e21b62000bc3565b6019546259455360e81b14156200098857620008d96810d3d395915495115160ba1b692927a622afa0a226a4a760b11b62000cfb565b620009006810d3d395915495115160ba1b6b2927a622afa1a422a1a5a2a960a11b62000cfb565b620009236810d3d395915495115160ba1b62000e336200100c60201b1762000eb5565b620009426810d3d395915495115160ba1b63139a717160e01b62000bc3565b620009616810d3d395915495115160ba1b632770a7eb60e21b62000bc3565b620009886810d3d395915495115160ba1b6000805160206200601683398151915262000ae3565b620009ab661350551554915160ca1b692927a622afa0a226a4a760b11b62000cfb565b620009d0661350551554915160ca1b6b2927a622afa1a422a1a5a2a960a11b62000cfb565b620009f1661350551554915160ca1b6200277b6200102f60201b1762000eb5565b62000a0e661350551554915160ca1b632770a7eb60e21b62000bc3565b62000a236610d4915055115160ca1b620011c9565b565b60008181526002602052604090205460ff161562000a965760405162461bcd60e51b815260206004820152602360248201527f746869732073746174652068617320616c7265616479206265656e20637265616044820152621d195960ea1b60648201526084015b60405180910390fd5b6000818152600260205260408120805460ff191660019081179091556003805491820181559091527fc2575a0e9e593c00f959f8c92f12db2869c3395a3b0502d05e2516446f71f85b0155565b600082815260026020526040902054829060ff1662000b3f5760405162461bcd60e51b8152602060048201526022602482015260008051602062006036833981519152604482015261195d60f21b606482015260840162000a8d565b600082815260026020526040902054829060ff1662000b9b5760405162461bcd60e51b8152602060048201526022602482015260008051602062006036833981519152604482015261195d60f21b606482015260840162000a8d565b5050600091825260026020908152604083206005018054600181018255908452922090910155565b600082815260026020526040902054829060ff1662000c1f5760405162461bcd60e51b8152602060048201526022602482015260008051602062006036833981519152604482015261195d60f21b606482015260840162000a8d565b6001600160e01b0319821660009081526006602052604090205460ff1662000cc3576001600160e01b0319821660009081526006602052604081208054600160ff1990911681179091556005805491820181559091527f036b6384b5eca791c62761152d0c79bb0604c104a5fb6f4eb0703f3154bb3db06008820401805463ffffffff60079093166004026101000a928302191660e085901c929092029190911790555b5060009182526002602090815260408084206001600160e01b031990931684526001928301909152909120805460ff19169091179055565b600082815260026020526040902054829060ff1662000d575760405162461bcd60e51b8152602060048201526022602482015260008051602062006036833981519152604482015261195d60f21b606482015260840162000a8d565b50600091825260026020818152604084209091018054600181018255908452922090910155565b600082815260026020526040902054829060ff1662000dda5760405162461bcd60e51b8152602060048201526022602482015260008051602062006036833981519152604482015261195d60f21b606482015260840162000a8d565b50600091825260026020526040909120600601805463ffffffff191660e09290921c919091179055565b60045460009081526002602090815260408083206001600160e01b0319843516845260010190915290205460ff1662000e825760405162461bcd60e51b815260206004820152602a6024820152600080516020620060768339815191526044820152697468697320737461746560b01b606482015260840162000a8d565b6000601755601880546001600160a01b031916905562000eb160008051602062006016833981519152620012d8565b5050565b600082815260026020526040902054829060ff1662000f115760405162461bcd60e51b8152602060048201526022602482015260008051602062006036833981519152604482015261195d60f21b606482015260840162000a8d565b50600091825260026020908152604083206004908101805460018101825590855291909320928104909201805460039093166008026101000a6001600160401b03818102199094169290931692909202179055565b60045460009081526002602090815260408083206001600160e01b0319843516845260010190915290205460ff1662000fe45760405162461bcd60e51b815260206004820152602a6024820152600080516020620060768339815191526044820152697468697320737461746560b01b606482015260840162000a8d565b60185460175462000fff916001600160a01b03169062001528565b5062000eb1828262000e04565b614e4f60f01b60195562000eb160008051602062006016833981519152620012d8565b60005b600e54811015620011c4576000600d6000600e84815481106200106557634e487b7160e01b600052603260045260246000fd5b60009182526020808320909101546001600160a01b03168352820192909252604001902054600e8054919250620010d19184908110620010b557634e487b7160e01b600052603260045260246000fd5b6000918252602090912001546001600160a01b031682620016e6565b5060006200110a6040518060400160405280600d81526020016c686f6c64657242616c616e636560981b815250620018dd60201b60201c565b6200111790600a62002388565b60145462001126908462002470565b6200113291906200231a565b90507f95162cb03f6f95f370e0c284328f0fa2398387051b5ca824a9fd7e9dbed64ed8600e84815481106200117757634e487b7160e01b600052603260045260246000fd5b60009182526020918290200154604080516001600160a01b03909216825291810185905290810183905260600160405180910390a150508080620011bb9062002518565b91505062001032565b505050565b60008181526002602052604090205460ff166200122b5760405162461bcd60e51b815260206004820152602a6024820152600080516020620060968339815191526044820152691c99585d1959081e595d60b21b606482015260840162000a8d565b60045415620012d35760405162461bcd60e51b815260206004820152606160248201527f7468652063757272656e742073746174652068617320616c726561647920626560448201527f656e207365742c20736f20796f752063616e6e6f7420636f6e6669677572652060648201527f74686520696e697469616c20737461746520616e64206f7665727269646520696084820152601d60fa1b60a482015260c40162000a8d565b600455565b6003546200133a5760405162461bcd60e51b815260206004820152602860248201527f746869732073746174656d616368696e6520686173206e6f74206265656e2073604482015267195d1d5c081e595d60c21b606482015260840162000a8d565b80620013506200134962001af9565b8262001b65565b600480548382556000848152600260205260408120919291909101905b8154811015620013f157620013dc83868484815481106200139e57634e487b7160e01b600052603260045260246000fd5b90600052602060002090600491828204019190066008029054906101000a90048015620020e860201b6200312d1702176001600160401b031660201c565b80620013e88162002518565b9150506200136d565b506040805160808101825283815260208082018781523383850181815242606080870191825260018054808201825560009190915296517fb10e2d527612073b26eecdfd717e6a320cf44b4afac2b0732d9fcbe2b7fa0cf660049889029081019190915594517fb10e2d527612073b26eecdfd717e6a320cf44b4afac2b0732d9fcbe2b7fa0cf786015591517fb10e2d527612073b26eecdfd717e6a320cf44b4afac2b0732d9fcbe2b7fa0cf8850180546001600160a01b0319166001600160a01b03909216919091179055517fb10e2d527612073b26eecdfd717e6a320cf44b4afac2b0732d9fcbe2b7fa0cf99093019290925592548451938452918301869052928201527f483a31c379a4b707332853662276a3424ec44f0ccbfc20d78fd9d143694f7669910160405180910390a150505050565b6000684d494e545f524f4c4560b81b6040518060400160405280601b81526020017f53656e646572206e6565647320746865204d494e545f5f524f4c4500000000008152506200157f338362001dc660201b60201c565b8190620015a15760405162461bcd60e51b815260040162000a8d9190620022ca565b506001600160a01b0385166000908152600d602052604090206001015462001622576001600160a01b0385166000818152600d6020526040812042600191820155600e805491820181559091527fbb7b4a454dc3493923482f07822329ed19e8244eff582cc204f8554c3620c3fd0180546001600160a01b03191690911790555b8360106000828254620016369190620022ff565b90915550506001600160a01b0385166000908152600d60205260408120805486929062001665908490620022ff565b90915550506040518481526001600160a01b038616907f0f6798a560793a54c3bcfe86a93cde1e73087d944c0ea20544137d41213968859060200160405180910390a26040518481526001600160a01b03861690600090600080516020620060b6833981519152906020015b60405180910390a3600192505b505092915050565b6000684255524e5f524f4c4560b81b6040518060400160405280601a81526020017f53656e646572206e6565647320746865204255524e5f524f4c450000000000008152506200173d338362001dc660201b60201c565b81906200175f5760405162461bcd60e51b815260040162000a8d9190620022ca565b5060008411620017b25760405162461bcd60e51b815260206004820152601e60248201527f616d6f756e742073686f756c6420626520626967676572207468616e20300000604482015260640162000a8d565b6001600160a01b0385166000908152600d6020526040902054841115620018275760405162461bcd60e51b815260206004820152602260248201527f616d6f756e742073686f756c64206265206c657373207468616e2062616c616e604482015261636560f01b606482015260840162000a8d565b6001600160a01b0385166000908152600d6020526040812080548692906200185190849062002492565b9250508190555083601060008282546200186c919062002492565b90915550506040518481526001600160a01b038616907fcc16f5dbb4873280815c1ee09dbd06736cffcc184412cf7a71a0fdb75d397ca59060200160405180910390a26040518481526000906001600160a01b03871690600080516020620060b683398151915290602001620016d1565b60007f8ab96b9c0dc6274b94d0699cc89adca1b1068b4ac406c6d4d5e9a3f2ea862ac9828051906020012014806200193a5750815160208301207f1fab0c92eaead7da02fe29795732249e0861c98d6738709e6be992a170920770145b156200194d5750601b5460ff1662001af4565b815160208301207f0bbab5bc73a089b1c7b3c851156c35bd430929abb09e3f1f84e6d0a6654da7bf14156200198e5750601b54610100900460ff1662001af4565b815160208301207f89c4783cb6cc307f98e95f2d5d5d8647bdb3d4bdd087209374f187b38e0988951480620019e85750815160208301207fea06f38f7e4f15e87567361213c28f235cccdaa1d7fd34c9db1dfe9489c6a091145b8062001a195750815160208301207f7c80aa9fdbfaf9615e4afc7f5f722e265daca5ccc655360fa5ccacf9c267936d145b8062001a4a5750815160208301207f81afeeaff0ed5cee7d05a21078399c2f56226b0cd5657062500cef4c4e736f85145b8062001a7b5750815160208301207f7706b6ea93375c23d934e55f4210fb8e5c6d12f29b26b665ffe41fb8dc7156f6145b8062001aac5750815160208301207f62fce144fc50b14fd1ae138fb24155cb853247cc0468c488c78a751537f84a5d145b8062001add5750815160208301207f3472c15bca45198273d1121595d5afbbb9913ecf20e5f9ded8be34c95d80938f145b1562001af05750600c5460ff1662001af4565b5060005b919050565b60045460009081526002602052604081205460ff1662001b5e5760405162461bcd60e51b815260206004820152602a6024820152600080516020620060968339815191526044820152691c99585d1959081e595d60b21b606482015260840162000a8d565b5060045490565b60008281526002602052604090205460ff1662001beb5760405162461bcd60e51b815260206004820152603560248201527f7468652066726f6d20737461746520686173206e6f74206265656e20636f6e6660448201527f69677572656420696e2074686973206f626a6563740000000000000000000000606482015260840162000a8d565b60008181526002602052604090205460ff1662001c715760405162461bcd60e51b815260206004820152603360248201527f74686520746f20737461746520686173206e6f74206265656e20636f6e66696760448201527f7572656420696e2074686973206f626a65637400000000000000000000000000606482015260840162000a8d565b62001c7d828262001e70565b62001d035760405162461bcd60e51b815260206004820152604960248201527f74686520726571756573746564206e657874207374617465206973206e6f742060448201527f616e20616c6c6f776564206e65787420737461746520666f72207468697320746064820152683930b739b4ba34b7b760b91b608482015260a40162000a8d565b62001d0e8162001f2a565b62001dba5760405162461bcd60e51b815260206004820152606960248201527f7468652073656e646572206f662074686973207472616e73616374696f6e206460448201527f6f6573206e6f742068617665206120726f6c65207468617420616c6c6f77732060648201527f7472616e736974696f6e206265747765656e207468652066726f6d20616e6420608482015268746f2073746174657360b81b60a482015260c40162000a8d565b62000eb1828262001fbd565b600080546001600160a01b0316158062001e695750600054604051630dace25b60e31b81526001600160a01b0385811660048301523060248301526044820185905290911690636d6712d89060640160206040518083038186803b15801562001e2e57600080fd5b505afa15801562001e43573d6000803e3d6000fd5b505050506040513d601f19601f8201168201806040525081019062001e699190620021ce565b9392505050565b6000828152600260205260408120600501815b8154811015620016de576040805160208101869052016040516020818303038152906040528051906020012082828154811062001ed057634e487b7160e01b600052603260045260246000fd5b906000526020600020015460405160200162001eee91815260200190565b60405160208183030381529060405280519060200120141562001f155760019250620016de565b8062001f218162002518565b91505062001e83565b6000818152600260208190526040822001805462001f4757600191505b60005b815481101562001fb65762001f913383838154811062001f7a57634e487b7160e01b600052603260045260246000fd5b906000526020600020015462001dc660201b60201c565b1562001fa1576001925062001fb6565b8062001fad8162002518565b91505062001f4a565b5050919050565b6000818152600260205260408120600301905b815481101562002016576200200184848484815481106200139e57634e487b7160e01b600052603260045260246000fd5b806200200d8162002518565b91505062001fd0565b50505050565b8280548282559060005260206000209081019282156200205a579160200282015b828111156200205a5782518255916020019190600101906200203d565b5062002068929150620020fe565b5090565b8280546200207a90620024db565b90600052602060002090601f0160209004810192826200209e57600085556200205a565b82601f10620020b957805160ff19168380011785556200205a565b828001600101855582156200205a57918201828111156200205a5782518255916020019190600101906200203d565b634e487b7160e01b600052605160045260246000fd5b5b80821115620020685760008155600101620020ff565b80516001600160a01b038116811462001af457600080fd5b600082601f8301126200213e578081fd5b81516001600160401b03808211156200215b576200215b6200254c565b604051601f8301601f19908116603f011681019082821181831017156200218657620021866200254c565b816040528381528660208588010111156200219f578485fd5b620021b2846020830160208901620024ac565b9695505050505050565b805160ff8116811462001af457600080fd5b600060208284031215620021e0578081fd5b8151801515811462001e69578182fd5b60008060008060008060008060006101208a8c0312156200220f578485fd5b89516001600160401b038082111562002226578687fd5b620022348d838e016200212d565b9a5060208c0151995060408c015198506200225260608d01620021bc565b975060808c0151965060a08c015195506200227060c08d0162002115565b945060e08c015191508082111562002286578384fd5b620022948d838e016200212d565b93506101008c0151915080821115620022ab578283fd5b50620022ba8c828d016200212d565b9150509295985092959850929598565b6000602082528251806020840152620022eb816040850160208701620024ac565b601f01601f19169190910160400192915050565b6000821982111562002315576200231562002536565b500190565b6000826200233657634e487b7160e01b81526012600452602481fd5b500490565b80825b60018086116200234f57506200237f565b81870482111562002364576200236462002536565b808616156200237257918102915b9490941c9380026200233e565b94509492505050565b600062001e696000198484600082620023a45750600162001e69565b81620023b35750600062001e69565b8160018114620023cc5760028114620023d7576200240b565b600191505062001e69565b60ff841115620023eb57620023eb62002536565b6001841b91508482111562002404576200240462002536565b5062001e69565b5060208310610133831016604e8410600b841016171562002443575081810a838111156200243d576200243d62002536565b62001e69565b6200245284848460016200233b565b80860482111562002467576200246762002536565b02949350505050565b60008160001904831182151516156200248d576200248d62002536565b500290565b600082821015620024a757620024a762002536565b500390565b60005b83811015620024c9578181015183820152602001620024af565b83811115620020165750506000910152565b600181811c90821680620024f057607f821691505b602082108114156200251257634e487b7160e01b600052602260045260246000fd5b50919050565b60006000198214156200252f576200252f62002536565b5060010190565b634e487b7160e01b600052601160045260246000fd5b634e487b7160e01b600052604160045260246000fd5b613aa480620025726000396000f3fe608060405234801561001057600080fd5b50600436106103fc5760003560e01c806384551ff411610215578063cae9ca5111610125578063e71c9fdc116100b8578063ed6ed10a11610087578063ed6ed10a14610934578063ee532f311461094c578063ef120a6e1461095f578063f4a979a314610967578063fcbb59071461097a576103fc565b8063e71c9fdc146108e8578063e76f1fcb146108fb578063e8777d9514610904578063e9a9c85014610921576103fc565b8063db432260116100f4578063db43226014610881578063dcb82f8114610894578063dd62ed3e146108a7578063e1ba7d01146108e0576103fc565b8063cae9ca511461083f578063d28d885214610852578063d391014b1461085a578063d73dd6231461086e576103fc565b8063a7a38f0b116101a8578063b441a94a11610177578063b441a94a146107d1578063b930908f146107e7578063bd87c59a146107fa578063c5206aff1461080d578063c8691b2a1461082c576103fc565b8063a7a38f0b1461075a578063a8257e7a1461079c578063a885fc82146107ad578063a9059cbb146107be576103fc565b806396071d45116101e457806396071d45146107165780639b241b44146107365780639dc29fac1461073f578063a4ddb07114610752576103fc565b806384551ff4146106d557806385b12c7c146106e85780638f799988146106fb578063910fd10a1461070e576103fc565b8063309040881161031057806350843cd0116102a357806366188463116102725780636618846314610676578063694f11051461068957806370a082311461069c57806371061398146106c557806381beeb64146106cd576103fc565b806350843cd01461064a5780635478f4681461065357806355c013451461065b57806356c57bd114610663576103fc565b806342822756116102df57806342822756146105cc57806345d61ded146105df578063498770381461060a5780634de6740e14610635576103fc565b8063309040881461058957806332424aa314610592578063378aa701146105b157806340c10f19146105b9576103fc565b806314c3dcd2116103935780632535f762116103625780632535f762146105135780632b935f30146105265780632d883a731461052f5780632e2bc0d514610561578063304b1bd114610576576103fc565b806314c3dcd2146104d157806318160ddd146104e45780631bd42f3e146104ed57806323b872dd14610500576103fc565b8063062d5b9e116103cf578063062d5b9e14610464578063095ea7b31461047757806309648a9d1461049a578063139a7171146104be576103fc565b806301f10a491461040157806303b42a5c14610416578063056dd6c2146104475780630627116e1461045b575b600080fd5b61041461040f366004613459565b6109a1565b005b610434731513d2d153925690551253d388149154555154d560621b81565b6040519081526020015b60405180910390f35b610434692927a622afa6a0a5a2a960b11b81565b610434601a5481565b610414610472366004613441565b610a1c565b61048a6104853660046133a5565b610a7d565b604051901515815260200161043e565b6104ad6104a8366004613441565b610ae9565b60405161043e959493929190613688565b6104146104cc366004613459565b610e33565b6104146104df3660046134fa565b610e5e565b61043460105481565b61048a6104fb3660046133a5565b610fa3565b61048a61050e3660046132c7565b61114f565b61048a6105213660046133d0565b6113af565b61043460175481565b61054261053d366004613441565b61143c565b604080516001600160a01b03909316835260208301919091520161043e565b6105696114cb565b60405161043e9190613675565b610434610584366004613441565b611531565b61043460155481565b600c5461059f9060ff1681565b60405160ff909116815260200161043e565b610434611552565b61048a6105c73660046133a5565b6115cd565b6104346105da3660046134bf565b611778565b6000546105f2906001600160a01b031681565b6040516001600160a01b03909116815260200161043e565b610542610618366004613273565b6001600160a01b0381166000908152600d60205260409020549091565b61063d611987565b60405161043e9190613713565b61043460165481565b600154610434565b610414611a15565b6104146106713660046134bf565b611c3d565b61048a6106843660046133a5565b611caa565b610414610697366004613441565b611d92565b6104346106aa366004613273565b6001600160a01b03166000908152600d602052604090205490565b610569611fd1565b610569612027565b61043468544f2052455649455760b81b81565b6104146106f6366004613441565b61207d565b6018546105f2906001600160a01b031681565b61063d6120d2565b610434752922a0a22c902327a9102a27a5a2a724ad20aa24a7a760511b81565b61043460145481565b61048a61074d3660046133a5565b6120df565b6105696122c1565b61076d610768366004613441565b612317565b60405161043e949392919093845260208401929092526001600160a01b03166040830152606082015260800190565b6104346610d4915055115160ca1b81565b610434661350551554915160ca1b81565b61048a6107cc3660046133a5565b61235a565b6104346b2927a622afa1a422a1a5a2a960a11b81565b610434684255524e5f524f4c4560b81b81565b6104346810d3d395915495115160ba1b81565b610434741513d2d153925690551253d3881054141493d59151605a1b81565b61076d61083a366004613441565b6124d1565b61048a61084d3660046133d0565b61260b565b61063d6126dd565b610434692927a622afa0a226a4a760b11b81565b61048a61087c3660046133a5565b6126ea565b61041461088f366004613459565b61277b565b61048a6108a23660046133a5565b6128f9565b6104346108b536600461328f565b6001600160a01b039182166000908152600f6020908152604080832093909416825291909152205490565b600e54610434565b6104146108f6366004613459565b612a95565b61043460195481565b610434721513d2d153925690551253d388111153925151606a1b81565b610434684d494e545f524f4c4560b81b81565b6104346d10d2105391d154c813915151115160921b81565b61048a61095a366004613307565b612b16565b61063d612ba4565b61041461097536600461347a565b612c2d565b6104347f5550444154455f49504653434f4e5441494e4552484153485f524f4c4500000081565b60045460009081526002602090815260408083206001600160e01b0319843516845260010190915290205460ff166109f45760405162461bcd60e51b81526004016109eb90613726565b60405180910390fd5b601854601754610a0d916001600160a01b0316906115cd565b50610a188282612a95565b5050565b60045460009081526002602090815260408083206001600160e01b0319843516845260010190915290205460ff16610a665760405162461bcd60e51b81526004016109eb90613726565b601755601880546001600160a01b03191633179055565b336000818152600f602090815260408083206001600160a01b038716808552925280832085905551919290917f8c5be1e5ebec7d5bd14f71427d1e84f3dd0314c0f7b2291e5b200ac8c7c3b92590610ad89086815260200190565b60405180910390a350600192915050565b60008181526002602052604081206005546060918291829185918290819067ffffffffffffffff811115610b2d57634e487b7160e01b600052604160045260246000fd5b604051908082528060200260200182016040528015610b56578160200160208202803683370190505b50905060005b600554811015610c8157600260008b8152602001908152602001600020600101600060058381548110610b9f57634e487b7160e01b600052603260045260246000fd5b6000918252602080832060088304015460079092166004026101000a90910460e01b6001600160e01b031916835282019290925260400190205460ff1615610c6f5760058181548110610c0257634e487b7160e01b600052603260045260246000fd5b90600052602060002090600891828204019190066004029054906101000a900460e01b828460ff1681518110610c4857634e487b7160e01b600052603260045260246000fd5b6001600160e01b031990921660209283029190910190910152610c6c6001846137c9565b92505b80610c7981613993565b915050610b5c565b5060008260ff1667ffffffffffffffff811115610cae57634e487b7160e01b600052604160045260246000fd5b604051908082528060200260200182016040528015610cd7578160200160208202803683370190505b50905060005b8360ff16811015610d5b57828181518110610d0857634e487b7160e01b600052603260045260246000fd5b6020026020010151828281518110610d3057634e487b7160e01b600052603260045260246000fd5b6001600160e01b03199092166020928302919091019091015280610d5381613993565b915050610cdd565b50898460050185600201838760060160009054906101000a900460e01b83805480602002602001604051908101604052809291908181526020018280548015610dc357602002820191906000526020600020905b815481526020019060010190808311610daf575b5050505050935082805480602002602001604051908101604052809291908181526020018280548015610e1557602002820191906000526020600020905b815481526020019060010190808311610e01575b50505050509250985098509850985098505050505091939590929450565b614e4f60f01b601955610a18752922a0a22c902327a9102a27a5a2a724ad20aa24a7a760511b611d92565b6013805480602002602001604051908101604052809291908181526020018280548015610eaa57602002820191906000526020600020905b815481526020019060010190808311610e96575b50505050506040518060600160405280603281526020016139f3603291396000805b8351811015610f2657610f0633858381518110610ef957634e487b7160e01b600052603260045260246000fd5b6020026020010151612cad565b15610f145760019150610f26565b80610f1e81613993565b915050610ecc565b5081600182151514610f4b5760405162461bcd60e51b81526004016109eb9190613713565b508951610f5f90600b9060208d0190613143565b50600c805460ff191660ff8916179055601489905560158890556019869055601a8590558351610f9690600a906020870190613143565b5050505050505050505050565b6000684255524e5f524f4c4560b81b6040518060400160405280601a81526020017f53656e646572206e6565647320746865204255524e5f524f4c45000000000000815250610ff23383612cad565b81906110115760405162461bcd60e51b81526004016109eb9190613713565b5060008590506000816001600160a01b031663e1ba7d016040518163ffffffff1660e01b815260040160206040518083038186803b15801561105257600080fd5b505afa158015611066573d6000803e3d6000fd5b505050506040513d601f19601f8201168201806040525081019061108a919061359b565b905060005b8181101561113f57604051632d883a7360e01b81526004810182905260009081906001600160a01b03861690632d883a7390602401604080518083038186803b1580156110db57600080fd5b505afa1580156110ef573d6000803e3d6000fd5b505050506040513d601f19601f820116820180604052508101906111139190613371565b9092509050801561112a57611128828a6120df565b505b5050808061113790613993565b91505061108f565b506001945050505b505092915050565b60006001600160a01b03831661119f5760405162461bcd60e51b81526020600482015260156024820152741d1bc81cda1bdd5b19081b9bdd081899481b9d5b1b605a1b60448201526064016109eb565b6001600160a01b0384166000908152600d60205260409020548211156111d75760405162461bcd60e51b81526004016109eb90613770565b6001600160a01b0384166000908152600f602090815260408083203384529091529020548211156112565760405162461bcd60e51b815260206004820152602360248201527f76616c75652073686f756c64206265206c657373207468616e20616c6c6f77616044820152626e636560e81b60648201526084016109eb565b6001600160a01b0383166000908152600d60205260409020600101546112d5576001600160a01b0383166000818152600d6020526040812042600191820155600e805491820181559091527fbb7b4a454dc3493923482f07822329ed19e8244eff582cc204f8554c3620c3fd0180546001600160a01b03191690911790555b6001600160a01b0384166000908152600d6020526040812080548492906112fd908490613941565b90915550506001600160a01b0383166000908152600d60205260408120805484929061132a9084906137b1565b90915550506001600160a01b0384166000908152600f6020908152604080832033845290915281208054849290611362908490613941565b92505081905550826001600160a01b0316846001600160a01b0316600080516020613a4f8339815191528460405161139c91815260200190565b60405180910390a35060015b9392505050565b60006113bb848461235a565b6113f95760405162461bcd60e51b815260206004820152600f60248201526e1d1c985b9cd9995c8819985a5b1959608a1b60448201526064016109eb565b836001600160a01b0316336001600160a01b03167f69cf42fddae119b7568ebaa1f70aac657fd6abd62d00c2ab4fcf81ff87935ab38460405161139c9190613713565b600080600e838154811061146057634e487b7160e01b600052603260045260246000fd5b6000918252602082200154600e80546001600160a01b039092169450600d92918690811061149e57634e487b7160e01b600052603260045260246000fd5b60009182526020808320909101546001600160a01b03168352820192909252604001902054919391925050565b60045460009081526002602090815260409182902060050180548351818402810184019094528084526060939283018282801561152757602002820191906000526020600020905b815481526020019060010190808311611513575b5050505050905090565b6012818154811061154157600080fd5b600091825260209091200154905081565b60045460009081526002602052604081205460ff166115c65760405162461bcd60e51b815260206004820152602a60248201527f74686520696e697469616c20737461746520686173206e6f74206265656e20636044820152691c99585d1959081e595d60b21b60648201526084016109eb565b5060045490565b6000684d494e545f524f4c4560b81b6040518060400160405280601b81526020017f53656e646572206e6565647320746865204d494e545f5f524f4c45000000000081525061161c3383612cad565b819061163b5760405162461bcd60e51b81526004016109eb9190613713565b506001600160a01b0385166000908152600d60205260409020600101546116bb576001600160a01b0385166000818152600d6020526040812042600191820155600e805491820181559091527fbb7b4a454dc3493923482f07822329ed19e8244eff582cc204f8554c3620c3fd0180546001600160a01b03191690911790555b83601060008282546116cd91906137b1565b90915550506001600160a01b0385166000908152600d6020526040812080548692906116fa9084906137b1565b90915550506040518481526001600160a01b038616907f0f6798a560793a54c3bcfe86a93cde1e73087d944c0ea20544137d41213968859060200160405180910390a26040518481526001600160a01b03861690600090600080516020613a4f833981519152906020015b60405180910390a3506001949350505050565b60007f8ab96b9c0dc6274b94d0699cc89adca1b1068b4ac406c6d4d5e9a3f2ea862ac9828051906020012014806117d45750815160208301207f1fab0c92eaead7da02fe29795732249e0861c98d6738709e6be992a170920770145b156117e55750601b5460ff16611982565b815160208301207f0bbab5bc73a089b1c7b3c851156c35bd430929abb09e3f1f84e6d0a6654da7bf14156118245750601b54610100900460ff16611982565b815160208301207f89c4783cb6cc307f98e95f2d5d5d8647bdb3d4bdd087209374f187b38e098895148061187d5750815160208301207fea06f38f7e4f15e87567361213c28f235cccdaa1d7fd34c9db1dfe9489c6a091145b806118ad5750815160208301207f7c80aa9fdbfaf9615e4afc7f5f722e265daca5ccc655360fa5ccacf9c267936d145b806118dd5750815160208301207f81afeeaff0ed5cee7d05a21078399c2f56226b0cd5657062500cef4c4e736f85145b8061190d5750815160208301207f7706b6ea93375c23d934e55f4210fb8e5c6d12f29b26b665ffe41fb8dc7156f6145b8061193d5750815160208301207f62fce144fc50b14fd1ae138fb24155cb853247cc0468c488c78a751537f84a5d145b8061196d5750815160208301207f3472c15bca45198273d1121595d5afbbb9913ecf20e5f9ded8be34c95d80938f145b1561197e5750600c5460ff16611982565b5060005b919050565b6011805461199490613958565b80601f01602080910402602001604051908101604052809291908181526020018280546119c090613958565b8015611a0d5780601f106119e257610100808354040283529160200191611a0d565b820191906000526020600020905b8154815290600101906020018083116119f057829003601f168201915b505050505081565b60045460009081526002602090815260408083206001600160e01b0319843516845260010190915290205460ff16611a5f5760405162461bcd60e51b81526004016109eb90613726565b60006353454d4960e01b90506000611a996040518060400160405280600b81526020016a5f636f75706f6e5261746560a81b815250611778565b611aa490600a613854565b60646015546014546103e8611ab99190613922565b611ac39190613922565b611acd91906137ee565b611ad791906137ee565b905081601a541415611af157611aee6002826137ee565b90505b60005b600e54811015611c38576000600d6000600e8481548110611b2557634e487b7160e01b600052603260045260246000fd5b60009182526020808320909101546001600160a01b031683528281019390935260409182018120548251808401909352600d83526c686f6c64657242616c616e636560981b938301939093529192506103e890611b8190611778565b611b8c90600a613854565b611b968685613922565b611ba091906137ee565b611baa91906137ee565b90507f95162cb03f6f95f370e0c284328f0fa2398387051b5ca824a9fd7e9dbed64ed8600e8481548110611bee57634e487b7160e01b600052603260045260246000fd5b60009182526020918290200154604080516001600160a01b03909216825291810185905290810183905260600160405180910390a150508080611c3090613993565b915050611af4565b505050565b7f5550444154455f49504653434f4e5441494e4552484153485f524f4c450000006040518060600160405280602a8152602001613a25602a9139611c813383612cad565b8190611ca05760405162461bcd60e51b81526004016109eb9190613713565b50611c3883612d4b565b336000908152600f602090815260408083206001600160a01b038616845290915281205480831115611cff57336000908152600f602090815260408083206001600160a01b0388168452909152812055611d2e565b611d098382613941565b336000908152600f602090815260408083206001600160a01b03891684529091529020555b336000818152600f602090815260408083206001600160a01b038916808552908352928190205490519081529192917f8c5be1e5ebec7d5bd14f71427d1e84f3dd0314c0f7b2291e5b200ac8c7c3b925910160405180910390a35060019392505050565b600354611df25760405162461bcd60e51b815260206004820152602860248201527f746869732073746174656d616368696e6520686173206e6f74206265656e2073604482015267195d1d5c081e595d60c21b60648201526084016109eb565b80611e04611dfe611552565b82612d5e565b600480548382556000848152600260205260408120919291909101905b8154811015611e9a57611e888386848481548110611e4f57634e487b7160e01b600052603260045260246000fd5b90600052602060002090600491828204019190066008029054906101000a9004801561312d021767ffffffffffffffff1663ffffffff16565b80611e9281613993565b915050611e21565b506040805160808101825283815260208082018781523383850181815242606080870191825260018054808201825560009190915296517fb10e2d527612073b26eecdfd717e6a320cf44b4afac2b0732d9fcbe2b7fa0cf660049889029081019190915594517fb10e2d527612073b26eecdfd717e6a320cf44b4afac2b0732d9fcbe2b7fa0cf786015591517fb10e2d527612073b26eecdfd717e6a320cf44b4afac2b0732d9fcbe2b7fa0cf8850180546001600160a01b0319166001600160a01b03909216919091179055517fb10e2d527612073b26eecdfd717e6a320cf44b4afac2b0732d9fcbe2b7fa0cf99093019290925592548451938452918301869052928201527f483a31c379a4b707332853662276a3424ec44f0ccbfc20d78fd9d143694f7669910160405180910390a150505050565b606060128054806020026020016040519081016040528092919081815260200182805480156115275760200282019190600052602060002090815481526020019060010190808311611513575050505050905090565b606060138054806020026020016040519081016040528092919081815260200182805480156115275760200282019190600052602060002090815481526020019060010190808311611513575050505050905090565b601654156120cd5760405162461bcd60e51b815260206004820152601d60248201527f5468697320626f6e6420697320616c7265616479206c61756e6368656400000060448201526064016109eb565b601655565b600a805461199490613958565b6000684255524e5f524f4c4560b81b6040518060400160405280601a81526020017f53656e646572206e6565647320746865204255524e5f524f4c4500000000000081525061212e3383612cad565b819061214d5760405162461bcd60e51b81526004016109eb9190613713565b506000841161219e5760405162461bcd60e51b815260206004820152601e60248201527f616d6f756e742073686f756c6420626520626967676572207468616e2030000060448201526064016109eb565b6001600160a01b0385166000908152600d60205260409020548411156122115760405162461bcd60e51b815260206004820152602260248201527f616d6f756e742073686f756c64206265206c657373207468616e2062616c616e604482015261636560f01b60648201526084016109eb565b6001600160a01b0385166000908152600d602052604081208054869290612239908490613941565b9250508190555083601060008282546122529190613941565b90915550506040518481526001600160a01b038616907fcc16f5dbb4873280815c1ee09dbd06736cffcc184412cf7a71a0fdb75d397ca59060200160405180910390a26040518481526000906001600160a01b03871690600080516020613a4f83398151915290602001611765565b606060038054806020026020016040519081016040528092919081815260200182805480156115275760200282019190600052602060002090815481526020019060010190808311611513575050505050905090565b6001818154811061232757600080fd5b60009182526020909120600490910201805460018201546002830154600390930154919350916001600160a01b03169084565b60006001600160a01b0383166123a75760405162461bcd60e51b81526020600482015260126024820152710746f2073686f756c64206e6f7420626520360741b60448201526064016109eb565b336000908152600d60205260409020548211156123d65760405162461bcd60e51b81526004016109eb90613770565b6001600160a01b0383166000908152600d6020526040902060010154612455576001600160a01b0383166000818152600d6020526040812042600191820155600e805491820181559091527fbb7b4a454dc3493923482f07822329ed19e8244eff582cc204f8554c3620c3fd0180546001600160a01b03191690911790555b336000908152600d602052604081208054849290612474908490613941565b90915550506001600160a01b0383166000908152600d6020526040812080548492906124a19084906137b1565b90915550506040518281526001600160a01b038416903390600080516020613a4f83398151915290602001610ad8565b6000808080600154851061251d5760405162461bcd60e51b8152602060048201526013602482015272496e646578206f7574206f6620626f756e647360681b60448201526064016109eb565b6001858154811061253e57634e487b7160e01b600052603260045260246000fd5b9060005260206000209060040201600001546001868154811061257157634e487b7160e01b600052603260045260246000fd5b906000526020600020906004020160010154600187815481106125a457634e487b7160e01b600052603260045260246000fd5b906000526020600020906004020160020160009054906101000a90046001600160a01b0316600188815481106125ea57634e487b7160e01b600052603260045260246000fd5b90600052602060002090600402016003015493509350935093509193509193565b60006126178484610a7d565b61266f5760405162461bcd60e51b8152602060048201526024808201527f436f756c64206e6f7420617070726f766520616d6f756e7420666f7220737065604482015263373232b960e11b60648201526084016109eb565b604051638f4ffcb160e01b81526001600160a01b03851690638f4ffcb1906126a1903390879030908890600401613638565b600060405180830381600087803b1580156126bb57600080fd5b505af11580156126cf573d6000803e3d6000fd5b506001979650505050505050565b600b805461199490613958565b336000908152600f602090815260408083206001600160a01b038616845290915281208054839190839061271f9084906137b1565b9091555050336000818152600f602090815260408083206001600160a01b038816808552908352928190205490519081529192917f8c5be1e5ebec7d5bd14f71427d1e84f3dd0314c0f7b2291e5b200ac8c7c3b9259101610ad8565b60005b600e54811015611c38576000600d6000600e84815481106127af57634e487b7160e01b600052603260045260246000fd5b60009182526020808320909101546001600160a01b03168352820192909252604001902054600e805491925061281891849081106127fd57634e487b7160e01b600052603260045260246000fd5b6000918252602090912001546001600160a01b0316826120df565b5060006128496040518060400160405280600d81526020016c686f6c64657242616c616e636560981b815250611778565b61285490600a613854565b6014546128619084613922565b61286b91906137ee565b90507f95162cb03f6f95f370e0c284328f0fa2398387051b5ca824a9fd7e9dbed64ed8600e84815481106128af57634e487b7160e01b600052603260045260246000fd5b60009182526020918290200154604080516001600160a01b03909216825291810185905290810183905260600160405180910390a1505080806128f190613993565b91505061277e565b6000684d494e545f524f4c4560b81b6040518060400160405280601b81526020017f53656e646572206e6565647320746865204d494e545f5f524f4c4500000000008152506129483383612cad565b81906129675760405162461bcd60e51b81526004016109eb9190613713565b5060008590506000816001600160a01b031663e1ba7d016040518163ffffffff1660e01b815260040160206040518083038186803b1580156129a857600080fd5b505afa1580156129bc573d6000803e3d6000fd5b505050506040513d601f19601f820116820180604052508101906129e0919061359b565b905060005b8181101561113f57604051632d883a7360e01b81526004810182905260009081906001600160a01b03861690632d883a7390602401604080518083038186803b158015612a3157600080fd5b505afa158015612a45573d6000803e3d6000fd5b505050506040513d601f19601f82011682018060405250810190612a699190613371565b90925090508015612a8057612a7e828a6115cd565b505b50508080612a8d90613993565b9150506129e5565b60045460009081526002602090815260408083206001600160e01b0319843516845260010190915290205460ff16612adf5760405162461bcd60e51b81526004016109eb90613726565b6000601755601880546001600160a01b0319169055610a18752922a0a22c902327a9102a27a5a2a724ad20aa24a7a760511b611d92565b6000612b2385858561114f565b612b615760405162461bcd60e51b815260206004820152600f60248201526e1d1c985b9cd9995c8819985a5b1959608a1b60448201526064016109eb565b836001600160a01b0316856001600160a01b03167f69cf42fddae119b7568ebaa1f70aac657fd6abd62d00c2ab4fcf81ff87935ab3846040516117659190613713565b6060600a8054612bb390613958565b80601f0160208091040260200160405190810160405280929190818152602001828054612bdf90613958565b80156115275780601f10612c0157610100808354040283529160200191611527565b820191906000526020600020905b815481529060010190602001808311612c0f57509395945050505050565b60008281526008602052604090205460ff16612c8e576007805460018181019092557fa66cc928b5edb82af9bd49922954155ab7b0942694bea4ce44661d9a8736c688018390556000838152600860205260409020805460ff191690911790555b60008281526009602090815260409091208251611c3892840190613143565b600080546001600160a01b031615806113a85750600054604051630dace25b60e31b81526001600160a01b0385811660048301523060248301526044820185905290911690636d6712d89060640160206040518083038186803b158015612d1357600080fd5b505afa158015612d27573d6000803e3d6000fd5b505050506040513d601f19601f820116820180604052508101906113a89190613427565b8051610a1890600a906020840190613143565b60008281526002602052604090205460ff16612dda5760405162461bcd60e51b815260206004820152603560248201527f7468652066726f6d20737461746520686173206e6f74206265656e20636f6e666044820152741a59dd5c9959081a5b881d1a1a5cc81bd89a9958dd605a1b60648201526084016109eb565b60008181526002602052604090205460ff16612e545760405162461bcd60e51b815260206004820152603360248201527f74686520746f20737461746520686173206e6f74206265656e20636f6e6669676044820152721d5c9959081a5b881d1a1a5cc81bd89a9958dd606a1b60648201526084016109eb565b612e5e8282612f9f565b612ee25760405162461bcd60e51b815260206004820152604960248201527f74686520726571756573746564206e657874207374617465206973206e6f742060448201527f616e20616c6c6f776564206e65787420737461746520666f72207468697320746064820152683930b739b4ba34b7b760b91b608482015260a4016109eb565b612eeb81613051565b612f955760405162461bcd60e51b815260206004820152606960248201527f7468652073656e646572206f662074686973207472616e73616374696f6e206460448201527f6f6573206e6f742068617665206120726f6c65207468617420616c6c6f77732060648201527f7472616e736974696f6e206265747765656e207468652066726f6d20616e6420608482015268746f2073746174657360b81b60a482015260c4016109eb565b610a1882826130d4565b6000828152600260205260408120600501815b81548110156111475760408051602081018690520160405160208183030381529060405280519060200120828281548110612ffd57634e487b7160e01b600052603260045260246000fd5b906000526020600020015460405160200161301a91815260200190565b60405160208183030381529060405280519060200120141561303f5760019250611147565b8061304981613993565b915050612fb2565b6000818152600260208190526040822001805461306d57600191505b60005b81548110156130cd576130ad3383838154811061309d57634e487b7160e01b600052603260045260246000fd5b9060005260206000200154612cad565b156130bb57600192506130cd565b806130c581613993565b915050613070565b5050919050565b6000818152600260205260408120600301905b8154811015613127576131158484848481548110611e4f57634e487b7160e01b600052603260045260246000fd5b8061311f81613993565b9150506130e7565b50505050565b634e487b7160e01b600052605160045260246000fd5b82805461314f90613958565b90600052602060002090601f01602090048101928261317157600085556131b7565b82601f1061318a57805160ff19168380011785556131b7565b828001600101855582156131b7579182015b828111156131b757825182559160200191906001019061319c565b506131c39291506131c7565b5090565b5b808211156131c357600081556001016131c8565b8051801515811461198257600080fd5b600082601f8301126131fc578081fd5b813567ffffffffffffffff80821115613217576132176139c4565b604051601f8301601f19908116603f0116810190828211818310171561323f5761323f6139c4565b81604052838152866020858801011115613257578485fd5b8360208701602083013792830160200193909352509392505050565b600060208284031215613284578081fd5b81356113a8816139da565b600080604083850312156132a1578081fd5b82356132ac816139da565b915060208301356132bc816139da565b809150509250929050565b6000806000606084860312156132db578081fd5b83356132e6816139da565b925060208401356132f6816139da565b929592945050506040919091013590565b6000806000806080858703121561331c578081fd5b8435613327816139da565b93506020850135613337816139da565b925060408501359150606085013567ffffffffffffffff811115613359578182fd5b613365878288016131ec565b91505092959194509250565b60008060408385031215613383578182fd5b825161338e816139da565b915061339c602084016131dc565b90509250929050565b600080604083850312156133b7578182fd5b82356133c2816139da565b946020939093013593505050565b6000806000606084860312156133e4578283fd5b83356133ef816139da565b925060208401359150604084013567ffffffffffffffff811115613411578182fd5b61341d868287016131ec565b9150509250925092565b600060208284031215613438578081fd5b6113a8826131dc565b600060208284031215613452578081fd5b5035919050565b6000806040838503121561346b578182fd5b50508035926020909101359150565b6000806040838503121561348c578182fd5b82359150602083013567ffffffffffffffff8111156134a9578182fd5b6134b5858286016131ec565b9150509250929050565b6000602082840312156134d0578081fd5b813567ffffffffffffffff8111156134e6578182fd5b6134f2848285016131ec565b949350505050565b600080600080600080600060e0888a031215613514578485fd5b873567ffffffffffffffff8082111561352b578687fd5b6135378b838c016131ec565b985060208a0135975060408a0135965060608a0135915060ff8216821461355c578485fd5b9094506080890135935060a0890135925060c0890135908082111561357f578283fd5b5061358c8a828b016131ec565b91505092959891949750929550565b6000602082840312156135ac578081fd5b5051919050565b6000815180845260208085019450808401835b838110156135e2578151875295820195908201906001016135c6565b509495945050505050565b60008151808452815b81811015613612576020818501810151868301820152016135f6565b818111156136235782602083870101525b50601f01601f19169290920160200192915050565b6001600160a01b038581168252602082018590528316604082015260806060820181905260009061366b908301846135ed565b9695505050505050565b6000602082526113a860208301846135b3565b6000868252602060a0818401526136a260a08401886135b3565b83810360408501526136b481886135b3565b84810360608601528651808252838801925090830190845b818110156136f25783516001600160e01b031916835292840192918401916001016136cc565b505080935050505063ffffffff60e01b831660808301529695505050505050565b6000602082526113a860208301846135ed565b6020808252602a908201527f746869732066756e6374696f6e206973206e6f7420616c6c6f77656420696e206040820152697468697320737461746560b01b606082015260800190565b60208082526021908201527f76616c75652073686f756c64206265206c657373207468616e2062616c616e636040820152606560f81b606082015260800190565b600082198211156137c4576137c46139ae565b500190565b600060ff821660ff84168060ff038211156137e6576137e66139ae565b019392505050565b60008261380957634e487b7160e01b81526012600452602481fd5b500490565b80825b6001808611613820575061384b565b818704821115613832576138326139ae565b8086161561383f57918102915b9490941c938002613811565b94509492505050565b60006113a8600019848460008261386d575060016113a8565b8161387a575060006113a8565b8160018114613890576002811461389a576138c7565b60019150506113a8565b60ff8411156138ab576138ab6139ae565b6001841b9150848211156138c1576138c16139ae565b506113a8565b5060208310610133831016604e8410600b84101617156138fa575081810a838111156138f5576138f56139ae565b6113a8565b613907848484600161380e565b808604821115613919576139196139ae565b02949350505050565b600081600019048311821515161561393c5761393c6139ae565b500290565b600082821015613953576139536139ae565b500390565b600181811c9082168061396c57607f821691505b6020821081141561398d57634e487b7160e01b600052602260045260246000fd5b50919050565b60006000198214156139a7576139a76139ae565b5060010190565b634e487b7160e01b600052601160045260246000fd5b634e487b7160e01b600052604160045260246000fd5b6001600160a01b03811681146139ef57600080fd5b5056fe45646974207265717569726573206f6e65206f6620726f6c65733a20524f4c455f41444d494e2c20524f4c455f4d414b455253656e646572206e65656473205550444154455f49504653434f4e5441494e4552484153485f524f4c45ddf252ad1be2c89b69c2b068fc378daa952ba7f163c4a11628f55a4df523b3efa264697066735822122035964799fc7fcbc23e75888c4e6bcee7134c4d0c1a5b2ee427f068cc3ae90b9664736f6c63430008030033524541445920464f5220544f4b454e495a4154494f4e0000000000000000000074686520737461746520686173206e6f74206265656e20637265617465642079544f4b454e495a4154494f4e2052455155455354000000000000000000000000746869732066756e6374696f6e206973206e6f7420616c6c6f77656420696e2074686520696e697469616c20737461746520686173206e6f74206265656e2063ddf252ad1be2c89b69c2b068fc378daa952ba7f163c4a11628f55a4df523b3ef544f4b454e495a4154494f4e20415050524f5645440000000000000000000000544f4b454e495a4154494f4e2044454e49454400000000000000000000000000",
  "immutableReferences": {},
  "source": "/**\n * Copyright (C) SettleMint NV - All Rights Reserved\n *\n * Use of this file is strictly prohibited without an active license agreement.\n * Distribution of this file, via any medium, is strictly prohibited.\n *\n * For license inquiries, contact hello@settlemint.com\n *\n * SPDX-License-Identifier: UNLICENSED\n */\n\npragma solidity ^0.8.0;\n\nimport '../_library//authentication/Secured.sol';\nimport '../_library//provenance/statemachine/StateMachine.sol';\nimport '../_library//utility/metadata/IpfsFieldContainer.sol';\nimport '../_library//utility/metadata/FileFieldContainer.sol';\nimport '../_library//utility/conversions/Converter.sol';\nimport '../_library//tokens/ERC20/ERC20Token.sol';\n\n/**\n * StatefulBond\n *\nA screen to create a bond as an asset on the platform with the following attributes:\nIssuance Date\nLaunch Date\nMaturity Date\nCoupon Rate\nCoupon Payment Frequency\nISIN\nBond Name\nBind Currency\n\nOperator 1 can create the bond, and Operator 2 will approve the bond creation.\n\nA screen which shows the amount of bonds which the client is holding with SCB (Maximum Bond field which Rod\nmentioned earlier and this field can be updated as and when the client buy more bonds in the real world).\nFrom this screen, Operator 1 can choose to tokenize the number of bonds and the number of tokens they want\nto create. Operator 2 will approve the request and the tokens will be minted to a client wallet which Operator 2\nwill select from a list of wallets.\n\nA screen to transfer tokens from the client wallet to other wallets and vice versa.\n\nA screen for Coupon Payout with the following details:\nCoupon Rate\nCoupon Payment $Amount per Token\nTotal Coupon Payment $Amount\nPayment in Currency Token Button\nPayment in Fiat Currency Button\n\nOperator 1 will clicked on either (d) or (e) button after confirming the details on the screen. When Operator 1\nclicked on the button in (d), currency tokens will be paid out to the respective investor wallets. When Operator 1\nclicked on the button in (e), an instruction will be sent to an external payment system. No need to have any external\nconnection, just need to show a pop-up etc to say that Coupon Payment Instruction sent\n\nBonus:\n\nIn-Flight Bonds  Bonds which are purchased by client in the real world but not yet settled. Client wants these in-flight bonds to be tokenized as well so that they can start to sell those tokens. When the actual bonds are settled in the real world, the in-flight bonds and the in-flight bond tokens become normal bonds and normal tokens through a change of status or any other logical way.\n\nThanks!\n\n\n\n\nFully manual yet stateful bond\n\nStates:\n\n  - Created (ops1)\n      - Issuance Date\n      - Launch Date\n      - Maturity Date\n      - Coupon Rate\n      - Coupon Payment Frequency\n      - ISIN\n      - Bond Name\n      - Bind Currency\n  - Approved (ops2)\n  - Tokenization request (ops1)\n      - max supply check\n  - Tokenization approved (ops2)\n      - mints to client\n\nFunctions:\n  - updateMaxSupplyFromBackend()\n  - createCoupon()\n\n  - couponCheckpoints\n\nCoupon\n\nStates:\n  - Created (ops1)\n      - Coupon Rate\n      - Coupon Payment $Amount per Token\n      - Total Coupon Payment $Amount\n      - Payment in Currency Token Button\n      - Payment in Fiat Currency Button\n *\n * @title State machine to track a stateful bond\n */\ncontract StatefulBond is Converter, StateMachine, FileFieldContainer, ERC20Token {\n  // State Machine config\n  bytes32 public constant STATE_CREATED = 'CREATED';\n  bytes32 public constant STATE_TO_REVIEW = 'TO REVIEW';\n  bytes32 public constant STATE_CHANGES_NEEDED = 'CHANGES NEEDED';\n  bytes32 public constant STATE_READY_FOR_TOKENIZATION = 'READY FOR TOKENIZATION';\n  bytes32 public constant STATE_TOKENIZATION_REQUEST = 'TOKENIZATION REQUEST';\n  bytes32 public constant STATE_TOKENIZATION_APPROVED = 'TOKENIZATION APPROVED';\n  bytes32 public constant STATE_TOKENIZATION_DENIED = 'TOKENIZATION DENIED';\n  bytes32 public constant STATE_MATURED = 'MATURED';\n  bytes32 public constant STATE_CONVERTED = 'CONVERTED';\n\n  bytes32 public constant ROLE_ADMIN = 'ROLE_ADMIN';\n  bytes32 public constant ROLE_MAKER = 'ROLE_MAKER';\n  bytes32 public constant ROLE_CHECKER = 'ROLE_CHECKER';\n\n  bytes32[] public _roles = [ROLE_ADMIN, ROLE_MAKER, ROLE_CHECKER];\n  bytes32[] private _canEdit = [ROLE_ADMIN, ROLE_MAKER];\n\n  // Data fields\n  uint256 public _parValue;\n  uint256 public _couponRate;\n  uint256 public _launchDate;\n  uint256 public _tokenizationAmount;\n  address public _tokenizationRecipient;\n  bytes32 public _inFlight;\n  bytes32 public _frequency;\n  uint8 internal _parValueDecimal;\n  uint8 internal _couponRateDecimal;\n\n  constructor(\n    string memory name,\n    uint256 parValue,\n    uint256 couponRate,\n    uint8 decimals,\n    bytes32 inFlight,\n    bytes32 frequency,\n    GateKeeper gateKeeper,\n    string memory ipfsFieldContainerHash,\n    string memory uiFieldDefinitionsHash\n  ) ERC20Token(name, decimals, address(gateKeeper), uiFieldDefinitionsHash) {\n    _ipfsFieldContainerHash = ipfsFieldContainerHash;\n    _parValue = parValue;\n    _couponRate = couponRate;\n    _inFlight = inFlight;\n    _frequency = frequency;\n    _parValueDecimal = 2;\n    _couponRateDecimal = 2;\n    setupStateMachine();\n  }\n\n  function canEdit() public view returns (bytes32[] memory) {\n    return _canEdit;\n  }\n\n  function getDecimalsFor(bytes memory fieldName) public view override returns (uint256) {\n    if (keccak256(fieldName) == keccak256('_parValue') || keccak256(fieldName) == keccak256('payment')) {\n      return _parValueDecimal;\n    }\n    if (keccak256(fieldName) == keccak256('_couponRate')) {\n      return _couponRateDecimal;\n    }\n    if (\n      keccak256(fieldName) == keccak256('amount') ||\n      keccak256(fieldName) == keccak256('balance') ||\n      keccak256(fieldName) == keccak256('totalSupply') ||\n      keccak256(fieldName) == keccak256('value') ||\n      keccak256(fieldName) == keccak256('tokenizationAmount') ||\n      keccak256(fieldName) == keccak256('_tokenizationAmount') ||\n      keccak256(fieldName) == keccak256('holderBalance')\n    ) {\n      return _decimals;\n    }\n    return 0;\n  }\n\n  function edit(\n    string memory name,\n    uint256 parValue,\n    uint256 couponRate,\n    uint8 decimals,\n    bytes32 inFlight,\n    bytes32 frequency,\n    string memory ipfsFieldContainerHash\n  ) public authManyWithCustomReason(_canEdit, 'Edit requires one of roles: ROLE_ADMIN, ROLE_MAKER') {\n    _name = name;\n    _decimals = decimals;\n    _parValue = parValue;\n    _couponRate = couponRate;\n    _inFlight = inFlight;\n    _frequency = frequency;\n    _ipfsFieldContainerHash = ipfsFieldContainerHash;\n  }\n\n  /**\n   * @notice Releases the issuance to investors at a certain date and time\n   *\n   * @param launchDate the launch date or announcement date is the date at which the details regarding a new issue\n   *                   are released to investors.\n   */\n  function launch(uint256 launchDate) public {\n    require(_launchDate == 0, 'This bond is already launched');\n    _launchDate = launchDate;\n  }\n\n  function requestTokenization(uint256 amount) public checkAllowedFunction {\n    _tokenizationAmount = amount;\n    _tokenizationRecipient = msg.sender;\n  }\n\n  function tokenize(bytes32 fromState, bytes32 toState) public checkAllowedFunction {\n    mint(_tokenizationRecipient, _tokenizationAmount);\n    reset(fromState, toState);\n  }\n\n  event PaymentCommand(address to, uint256 holderBalance, uint256 payment);\n\n  function mature(\n    bytes32, /* fromState */\n    bytes32 /* toState */\n  ) public {\n    for (uint256 j = 0; j < tokenHolders.length; j++) {\n      uint256 holderBalance = balances[tokenHolders[j]].balance;\n      burn(tokenHolders[j], holderBalance);\n      uint256 payment = (holderBalance * _parValue) / (10**uint256(getDecimalsFor('holderBalance')));\n      emit PaymentCommand(tokenHolders[j], holderBalance, payment);\n    }\n  }\n\n  function convert(\n    bytes32, /* fromState */\n    bytes32 /* toState */\n  ) public {\n    _inFlight = 'NO';\n    transitionState(STATE_READY_FOR_TOKENIZATION);\n  }\n\n  function coupon() public checkAllowedFunction {\n    bytes32 semi = 'SEMI';\n    // .mul(1000) is used to avoid rounding issues. .div(1000) is done below in the payment calculation\n    uint256 couponValue = (((_parValue * 1000) * _couponRate) / 100) / (10**uint256(getDecimalsFor('_couponRate')));\n    if (_frequency == semi) {\n      couponValue = couponValue / 2;\n    }\n    for (uint256 j = 0; j < tokenHolders.length; j++) {\n      uint256 holderBalance = balances[tokenHolders[j]].balance;\n      uint256 payment = (holderBalance * couponValue) / (10**uint256(getDecimalsFor('holderBalance'))) / 1000;\n      emit PaymentCommand(tokenHolders[j], holderBalance, payment);\n    }\n  }\n\n  function reset(\n    bytes32, /* fromState */\n    bytes32 /* toState */\n  ) public checkAllowedFunction {\n    _tokenizationAmount = 0;\n    _tokenizationRecipient = address(0x0);\n    transitionState(STATE_READY_FOR_TOKENIZATION);\n  }\n\n  /**\n   * @notice Returns all the roles for this contract\n   * @return bytes32[] array of raw bytes representing the roles\n   */\n  function getRoles() public view returns (bytes32[] memory) {\n    return _roles;\n  }\n\n  function setupStateMachine() internal override {\n    //create all states\n    createState(STATE_CREATED);\n    createState(STATE_TO_REVIEW);\n    createState(STATE_READY_FOR_TOKENIZATION);\n    createState(STATE_CHANGES_NEEDED);\n    createState(STATE_TOKENIZATION_REQUEST);\n    createState(STATE_TOKENIZATION_DENIED);\n    createState(STATE_TOKENIZATION_APPROVED);\n    if (_inFlight == 'YES') {\n      createState(STATE_CONVERTED);\n    }\n    createState(STATE_MATURED);\n\n    // STATE_CREATED\n    addNextStateForState(STATE_CREATED, STATE_TO_REVIEW);\n    addAllowedFunctionForState(STATE_CREATED, this.edit.selector);\n\n    // STATE_TO_REVIEW\n    addRoleForState(STATE_TO_REVIEW, ROLE_ADMIN);\n    addRoleForState(STATE_TO_REVIEW, ROLE_MAKER);\n    addNextStateForState(STATE_TO_REVIEW, STATE_READY_FOR_TOKENIZATION);\n    addNextStateForState(STATE_TO_REVIEW, STATE_CHANGES_NEEDED);\n\n    // STATE_CHANGES_NEEDED\n    addRoleForState(STATE_CHANGES_NEEDED, ROLE_ADMIN);\n    addRoleForState(STATE_CHANGES_NEEDED, ROLE_CHECKER);\n    addNextStateForState(STATE_CHANGES_NEEDED, STATE_TO_REVIEW);\n    addAllowedFunctionForState(STATE_CHANGES_NEEDED, this.edit.selector);\n\n    // STATE_READY_FOR_TOKENIZATION\n    setPreFunctionForState(STATE_READY_FOR_TOKENIZATION, this.launch.selector);\n    addRoleForState(STATE_READY_FOR_TOKENIZATION, ROLE_ADMIN);\n    addRoleForState(STATE_READY_FOR_TOKENIZATION, ROLE_CHECKER);\n    addNextStateForState(STATE_READY_FOR_TOKENIZATION, STATE_TOKENIZATION_REQUEST);\n    if (_inFlight == 'YES') {\n      addNextStateForState(STATE_READY_FOR_TOKENIZATION, STATE_CONVERTED);\n    }\n    addNextStateForState(STATE_READY_FOR_TOKENIZATION, STATE_MATURED);\n    addAllowedFunctionForState(STATE_READY_FOR_TOKENIZATION, this.requestTokenization.selector);\n    addAllowedFunctionForState(STATE_READY_FOR_TOKENIZATION, this.coupon.selector);\n    addAllowedFunctionForState(STATE_READY_FOR_TOKENIZATION, this.transfer.selector);\n\n    // STATE_TOKENIZATION_REQUEST\n    setPreFunctionForState(STATE_TOKENIZATION_REQUEST, this.requestTokenization.selector);\n    addRoleForState(STATE_TOKENIZATION_REQUEST, ROLE_ADMIN);\n    addRoleForState(STATE_TOKENIZATION_REQUEST, ROLE_MAKER);\n    addNextStateForState(STATE_TOKENIZATION_REQUEST, STATE_TOKENIZATION_APPROVED);\n    addAllowedFunctionForState(STATE_TOKENIZATION_REQUEST, this.transfer.selector);\n    addNextStateForState(STATE_TOKENIZATION_REQUEST, STATE_TOKENIZATION_DENIED);\n\n    // STATE_TOKENIZATION_DENIED // auto advance\n    addRoleForState(STATE_TOKENIZATION_DENIED, ROLE_ADMIN);\n    addRoleForState(STATE_TOKENIZATION_DENIED, ROLE_CHECKER);\n    addNextStateForState(STATE_TOKENIZATION_DENIED, STATE_READY_FOR_TOKENIZATION);\n    addCallbackForState(STATE_TOKENIZATION_DENIED, reset);\n    addAllowedFunctionForState(STATE_TOKENIZATION_DENIED, this.transfer.selector);\n    addAllowedFunctionForState(STATE_TOKENIZATION_DENIED, this.reset.selector);\n    addAllowedFunctionForState(STATE_TOKENIZATION_DENIED, this.transitionState.selector);\n\n    // STATE_TOKENIZATION_APPROVED // auto advance\n    addRoleForState(STATE_TOKENIZATION_APPROVED, ROLE_ADMIN);\n    addRoleForState(STATE_TOKENIZATION_APPROVED, ROLE_CHECKER);\n    addNextStateForState(STATE_TOKENIZATION_APPROVED, STATE_READY_FOR_TOKENIZATION);\n    addCallbackForState(STATE_TOKENIZATION_APPROVED, tokenize);\n    addAllowedFunctionForState(STATE_TOKENIZATION_APPROVED, this.tokenize.selector);\n    addAllowedFunctionForState(STATE_TOKENIZATION_APPROVED, this.mint.selector);\n    addAllowedFunctionForState(STATE_TOKENIZATION_APPROVED, this.transitionState.selector);\n    addAllowedFunctionForState(STATE_TOKENIZATION_APPROVED, this.transfer.selector);\n    addAllowedFunctionForState(STATE_TOKENIZATION_APPROVED, this.mature.selector);\n    addAllowedFunctionForState(STATE_TOKENIZATION_APPROVED, this.reset.selector);\n\n    if (_inFlight == 'YES') {\n      // STATE_CONVERTED\n      addRoleForState(STATE_CONVERTED, ROLE_ADMIN);\n      addRoleForState(STATE_CONVERTED, ROLE_CHECKER);\n      addCallbackForState(STATE_CONVERTED, convert);\n      addAllowedFunctionForState(STATE_CONVERTED, this.convert.selector);\n      addAllowedFunctionForState(STATE_CONVERTED, this.burn.selector);\n      addNextStateForState(STATE_CONVERTED, STATE_READY_FOR_TOKENIZATION);\n    }\n\n    // STATE_MATURED\n    addRoleForState(STATE_MATURED, ROLE_ADMIN);\n    addRoleForState(STATE_MATURED, ROLE_CHECKER);\n    addCallbackForState(STATE_MATURED, mature);\n    addAllowedFunctionForState(STATE_MATURED, this.burn.selector);\n\n    setInitialState(STATE_CREATED);\n  }\n\n  /**\n   * @notice Returns the amount of bond holders.\n   * @dev Gets the amount of bond holders, used by the middleware to build a cache you can query.\n   *      You should not need this function in general since iteration this way clientside is very slow.\n   *\n   * @return length An uint256 representing the amount of tokenholders recorded in this contract.\n   */\n  function getIndexLength() public view override returns (uint256 length) {\n    length = tokenHolders.length;\n  }\n\n  /**\n   * @notice Returns the address and balance of the tokenholder by index\n   * @dev Gets balance of an individual bond holder, used by the middleware to build a cache you can query.\n   *      You should not need this function in general since iteration this way clientside is very slow.\n   *\n   * @param index       used to access the tokenHolders array\n   * @return holder     holder's address\n   * @return balance    the holder's balance\n   */\n  function getByIndex(uint256 index) public view returns (address holder, uint256 balance) {\n    holder = tokenHolders[index];\n    balance = balances[tokenHolders[index]].balance;\n  }\n\n  /**\n   * @notice Returns the address and balance of the tokenholder by address\n   * @dev Gets balance of an individual bond holder, used by the middleware to build a cache you can query.\n   *      You should not need this function in general since iteration this way clientside is very slow.\n   *\n   * @param key         used to access the token's balances\n   * @return holder     holder's address and balance\n   * @return balance    the holder's balance\n   */\n  function getByKey(address key) public view returns (address holder, uint256 balance) {\n    holder = key;\n    balance = balances[key].balance;\n  }\n}\n",
  "sourcePath": "/home/coder/project/contracts/statefulbonds/StatefulBond.sol",
  "compiler": {
    "name": "solc",
    "version": "0.8.3+commit.8d00100c.Emscripten.clang"
  },
  "schemaVersion": "3.4.3",
  "updatedAt": "2021-09-21T08:26:45.631Z",
  "networkType": "ethereum",
  "devdoc": {
    "kind": "dev",
    "methods": {
      "allowance(address,address)": {
        "details": "Function to check the amount of tokens that an owner allowed to a spender.",
        "params": {
          "owner": "The address which owns the funds.",
          "spender": "The address which will spend the funds."
        },
        "returns": {
          "remaining": "A uint256 specifying the amount of tokens still available for the spender."
        }
      },
      "approve(address,uint256)": {
        "details": "Approve the passed address to spend the specified amount of tokens on behalf of msg.sender. Beware that changing an allowance with this method brings the risk that someone may use both the old and the new allowance by unfortunate transaction ordering. One possible solution to mitigate this race condition is to first reduce the spender's allowance to 0 and set the desired value afterwards: https://github.com/ethereum/EIPs/issues/20#issuecomment-263524729",
        "params": {
          "spender": "The address which will spend the funds.",
          "value": "The amount of tokens to be spent."
        }
      },
      "approveAndCall(address,uint256,bytes)": {
        "details": "ApproveAndCall the passed address to spend the specified amount of tokens on behalf of msg.sender and call the receiveApproval function on that contract. This allows users to use their tokens to interact with contracts in one function call instead of two. Beware that changing an allowance with this method brings the risk that someone may use both the old and the new allowance by unfortunate transaction ordering. One possible solution to mitigate this race condition is to first reduce the spender's allowance to 0 and set the desired value afterwards: https://github.com/ethereum/EIPs/issues/20#issuecomment-263524729",
        "params": {
          "data": "Extra data to be sent along the call.",
          "spender": "The address which will spend the funds.",
          "value": "The amount of tokens to be spent."
        }
      },
      "balanceOf(address)": {
        "details": "Gets the balance of the specified address.",
        "params": {
          "owner": "The address to query the the balance of."
        },
        "returns": {
          "balance": "An uint256 representing the amount owned by the passed address."
        }
      },
      "getByIndex(uint256)": {
        "details": "Gets balance of an individual bond holder, used by the middleware to build a cache you can query.      You should not need this function in general since iteration this way clientside is very slow.",
        "params": {
          "index": "used to access the tokenHolders array"
        },
        "returns": {
          "balance": "   the holder's balance",
          "holder": "    holder's address"
        }
      },
      "getByKey(address)": {
        "details": "Gets balance of an individual bond holder, used by the middleware to build a cache you can query.      You should not need this function in general since iteration this way clientside is very slow.",
        "params": {
          "key": "used to access the token's balances"
        },
        "returns": {
          "balance": "   the holder's balance",
          "holder": "    holder's address and balance"
        }
      },
      "getCurrentState()": {
        "details": "Requires the current state to be configured before calling this function"
      },
      "getHistory(uint256)": {
        "details": "Requires the index to be within the bounds of the history array"
      },
      "getIndexLength()": {
        "details": "Gets the amount of bond holders, used by the middleware to build a cache you can query.      You should not need this function in general since iteration this way clientside is very slow.",
        "returns": {
          "length": "An uint256 representing the amount of tokenholders recorded in this contract."
        }
      },
      "getRoles()": {
        "returns": {
          "_0": "bytes32[] array of raw bytes representing the roles"
        }
      },
      "increaseApproval(address,uint256)": {
        "details": "approve should be called when allowed[spender] == 0. To increment allowed value it's better to use this function to avoid 2 calls (and wait until the first transaction is mined). From MonolithDAO ERC20Token.sol"
      },
      "launch(uint256)": {
        "params": {
          "launchDate": "the launch date or announcement date is the date at which the details regarding a new issue                   are released to investors."
        }
      },
      "transitionState(bytes32)": {
        "details": "Emits a Transition event after a successful transition."
      }
    },
    "title": "State machine to track a stateful bond",
    "version": 1
  },
  "userdoc": {
    "kind": "user",
    "methods": {
      "getAllStates()": {
        "notice": "Returns a list of all the possible states of this object."
      },
      "getByIndex(uint256)": {
        "notice": "Returns the address and balance of the tokenholder by index"
      },
      "getByKey(address)": {
        "notice": "Returns the address and balance of the tokenholder by address"
      },
      "getCurrentState()": {
        "notice": "Returns the name of the current state of this object."
      },
      "getHistory(uint256)": {
        "notice": "Returns history as tuple for given index."
      },
      "getHistoryLength()": {
        "notice": "Returns the length of the history"
      },
      "getIndexLength()": {
        "notice": "Returns the amount of bond holders."
      },
      "getNextStates()": {
        "notice": "Returns a list of all the possible next states of the current state."
      },
      "getRoles()": {
        "notice": "Returns all the roles for this contract"
      },
      "getState(bytes32)": {
        "notice": "Returns state as tuple for give state."
      },
      "launch(uint256)": {
        "notice": "Releases the issuance to investors at a certain date and time"
      },
      "transitionState(bytes32)": {
        "notice": "Transitions the state and executes all callbacks."
      }
    },
    "notice": "StatefulBond A screen to create a bond as an asset on the platform with the following attributes: Issuance Date Launch Date Maturity Date Coupon Rate Coupon Payment Frequency ISIN Bond Name Bind Currency Operator 1 can create the bond, and Operator 2 will approve the bond creation. A screen which shows the amount of bonds which the client is holding with SCB (Maximum Bond field which Rod mentioned earlier and this field can be updated as and when the client buy more bonds in the real world). From this screen, Operator 1 can choose to tokenize the number of bonds and the number of tokens they want to create. Operator 2 will approve the request and the tokens will be minted to a client wallet which Operator 2 will select from a list of wallets. A screen to transfer tokens from the client wallet to other wallets and vice versa. A screen for Coupon Payout with the following details: Coupon Rate Coupon Payment $Amount per Token Total Coupon Payment $Amount Payment in Currency Token Button Payment in Fiat Currency Button Operator 1 will clicked on either (d) or (e) button after confirming the details on the screen. When Operator 1 clicked on the button in (d), currency tokens will be paid out to the respective investor wallets. When Operator 1 clicked on the button in (e), an instruction will be sent to an external payment system. No need to have any external connection, just need to show a pop-up etc to say that Coupon Payment Instruction sent Bonus: In-Flight Bonds  Bonds which are purchased by client in the real world but not yet settled. Client wants these in-flight bonds to be tokenized as well so that they can start to sell those tokens. When the actual bonds are settled in the real world, the in-flight bonds and the in-flight bond tokens become normal bonds and normal tokens through a change of status or any other logical way. Thanks! Fully manual yet stateful bond States: - Created (ops1) - Issuance Date - Launch Date - Maturity Date - Coupon Rate - Coupon Payment Frequency - ISIN - Bond Name - Bind Currency - Approved (ops2) - Tokenization request (ops1) - max supply check - Tokenization approved (ops2) - mints to client Functions: - updateMaxSupplyFromBackend() - createCoupon() - couponCheckpoints Coupon States: - Created (ops1) - Coupon Rate - Coupon Payment $Amount per Token - Total Coupon Payment $Amount - Payment in Currency Token Button - Payment in Fiat Currency Button",
    "version": 1
  }
}