{
  "contractName": "SupplyChainFinance",
  "abi": [
    {
      "inputs": [
        {
          "internalType": "address",
          "name": "gateKeeper",
          "type": "address"
        },
        {
          "internalType": "string",
          "name": "Order_Number",
          "type": "string"
        },
        {
          "internalType": "string",
          "name": "ipfsFieldContainerHash",
          "type": "string"
        },
        {
          "internalType": "string",
          "name": "uiFieldDefinitionsHash",
          "type": "string"
        }
      ],
      "stateMutability": "nonpayable",
      "type": "constructor"
    },
    {
      "anonymous": false,
      "inputs": [
        {
          "indexed": false,
          "internalType": "address",
          "name": "sender",
          "type": "address"
        },
        {
          "indexed": false,
          "internalType": "bytes32",
          "name": "fromState",
          "type": "bytes32"
        },
        {
          "indexed": false,
          "internalType": "bytes32",
          "name": "toState",
          "type": "bytes32"
        }
      ],
      "name": "Transition",
      "type": "event"
    },
    {
      "inputs": [],
      "name": "ROLE_ADMIN",
      "outputs": [
        {
          "internalType": "bytes32",
          "name": "",
          "type": "bytes32"
        }
      ],
      "stateMutability": "view",
      "type": "function"
    },
    {
      "inputs": [],
      "name": "ROLE_BANK",
      "outputs": [
        {
          "internalType": "bytes32",
          "name": "",
          "type": "bytes32"
        }
      ],
      "stateMutability": "view",
      "type": "function"
    },
    {
      "inputs": [],
      "name": "ROLE_BUYER",
      "outputs": [
        {
          "internalType": "bytes32",
          "name": "",
          "type": "bytes32"
        }
      ],
      "stateMutability": "view",
      "type": "function"
    },
    {
      "inputs": [],
      "name": "ROLE_REGULATOR",
      "outputs": [
        {
          "internalType": "bytes32",
          "name": "",
          "type": "bytes32"
        }
      ],
      "stateMutability": "view",
      "type": "function"
    },
    {
      "inputs": [],
      "name": "ROLE_SUPPLIER",
      "outputs": [
        {
          "internalType": "bytes32",
          "name": "",
          "type": "bytes32"
        }
      ],
      "stateMutability": "view",
      "type": "function"
    },
    {
      "inputs": [],
      "name": "ROLE_TRANSPORTER",
      "outputs": [
        {
          "internalType": "bytes32",
          "name": "",
          "type": "bytes32"
        }
      ],
      "stateMutability": "view",
      "type": "function"
    },
    {
      "inputs": [],
      "name": "ROLE_WAREHOUSE",
      "outputs": [
        {
          "internalType": "bytes32",
          "name": "",
          "type": "bytes32"
        }
      ],
      "stateMutability": "view",
      "type": "function"
    },
    {
      "inputs": [],
      "name": "STATE_ADVANCE_APPROVED",
      "outputs": [
        {
          "internalType": "bytes32",
          "name": "",
          "type": "bytes32"
        }
      ],
      "stateMutability": "view",
      "type": "function"
    },
    {
      "inputs": [],
      "name": "STATE_ADVANCE_RELEASED",
      "outputs": [
        {
          "internalType": "bytes32",
          "name": "",
          "type": "bytes32"
        }
      ],
      "stateMutability": "view",
      "type": "function"
    },
    {
      "inputs": [],
      "name": "STATE_ADVANCE_REQUESTED",
      "outputs": [
        {
          "internalType": "bytes32",
          "name": "",
          "type": "bytes32"
        }
      ],
      "stateMutability": "view",
      "type": "function"
    },
    {
      "inputs": [],
      "name": "STATE_BACKGROUND_CHECK",
      "outputs": [
        {
          "internalType": "bytes32",
          "name": "",
          "type": "bytes32"
        }
      ],
      "stateMutability": "view",
      "type": "function"
    },
    {
      "inputs": [],
      "name": "STATE_DEMAND_GENERATED",
      "outputs": [
        {
          "internalType": "bytes32",
          "name": "",
          "type": "bytes32"
        }
      ],
      "stateMutability": "view",
      "type": "function"
    },
    {
      "inputs": [],
      "name": "STATE_FINANCING_REQUESTED",
      "outputs": [
        {
          "internalType": "bytes32",
          "name": "",
          "type": "bytes32"
        }
      ],
      "stateMutability": "view",
      "type": "function"
    },
    {
      "inputs": [],
      "name": "STATE_IN_PRODUCTION",
      "outputs": [
        {
          "internalType": "bytes32",
          "name": "",
          "type": "bytes32"
        }
      ],
      "stateMutability": "view",
      "type": "function"
    },
    {
      "inputs": [],
      "name": "STATE_KYB_APPROVED",
      "outputs": [
        {
          "internalType": "bytes32",
          "name": "",
          "type": "bytes32"
        }
      ],
      "stateMutability": "view",
      "type": "function"
    },
    {
      "inputs": [],
      "name": "STATE_KYB_AVAILABLE",
      "outputs": [
        {
          "internalType": "bytes32",
          "name": "",
          "type": "bytes32"
        }
      ],
      "stateMutability": "view",
      "type": "function"
    },
    {
      "inputs": [],
      "name": "STATE_KYB_IN_PROCESS",
      "outputs": [
        {
          "internalType": "bytes32",
          "name": "",
          "type": "bytes32"
        }
      ],
      "stateMutability": "view",
      "type": "function"
    },
    {
      "inputs": [],
      "name": "STATE_KYB_UNAVAILABLE",
      "outputs": [
        {
          "internalType": "bytes32",
          "name": "",
          "type": "bytes32"
        }
      ],
      "stateMutability": "view",
      "type": "function"
    },
    {
      "inputs": [],
      "name": "STATE_LOAN_APPROVED",
      "outputs": [
        {
          "internalType": "bytes32",
          "name": "",
          "type": "bytes32"
        }
      ],
      "stateMutability": "view",
      "type": "function"
    },
    {
      "inputs": [],
      "name": "STATE_MONEY_TRANSFERED",
      "outputs": [
        {
          "internalType": "bytes32",
          "name": "",
          "type": "bytes32"
        }
      ],
      "stateMutability": "view",
      "type": "function"
    },
    {
      "inputs": [],
      "name": "STATE_ORDER_ACCEPTED",
      "outputs": [
        {
          "internalType": "bytes32",
          "name": "",
          "type": "bytes32"
        }
      ],
      "stateMutability": "view",
      "type": "function"
    },
    {
      "inputs": [],
      "name": "STATE_ORDER_DECLINED",
      "outputs": [
        {
          "internalType": "bytes32",
          "name": "",
          "type": "bytes32"
        }
      ],
      "stateMutability": "view",
      "type": "function"
    },
    {
      "inputs": [],
      "name": "STATE_ORDER_ON_HOLD",
      "outputs": [
        {
          "internalType": "bytes32",
          "name": "",
          "type": "bytes32"
        }
      ],
      "stateMutability": "view",
      "type": "function"
    },
    {
      "inputs": [],
      "name": "STATE_ORDER_PLACED",
      "outputs": [
        {
          "internalType": "bytes32",
          "name": "",
          "type": "bytes32"
        }
      ],
      "stateMutability": "view",
      "type": "function"
    },
    {
      "inputs": [],
      "name": "STATE_OUT_FOR_DELIVERY",
      "outputs": [
        {
          "internalType": "bytes32",
          "name": "",
          "type": "bytes32"
        }
      ],
      "stateMutability": "view",
      "type": "function"
    },
    {
      "inputs": [],
      "name": "STATE_PRODUCT_DISCARDED",
      "outputs": [
        {
          "internalType": "bytes32",
          "name": "",
          "type": "bytes32"
        }
      ],
      "stateMutability": "view",
      "type": "function"
    },
    {
      "inputs": [],
      "name": "STATE_PRODUCT_SHELVED",
      "outputs": [
        {
          "internalType": "bytes32",
          "name": "",
          "type": "bytes32"
        }
      ],
      "stateMutability": "view",
      "type": "function"
    },
    {
      "inputs": [],
      "name": "STATE_PRODUCT_SOLD",
      "outputs": [
        {
          "internalType": "bytes32",
          "name": "",
          "type": "bytes32"
        }
      ],
      "stateMutability": "view",
      "type": "function"
    },
    {
      "inputs": [],
      "name": "STATE_REACHED_TRANSFER_POINT",
      "outputs": [
        {
          "internalType": "bytes32",
          "name": "",
          "type": "bytes32"
        }
      ],
      "stateMutability": "view",
      "type": "function"
    },
    {
      "inputs": [],
      "name": "STATE_READY_FOR_DISPATCH",
      "outputs": [
        {
          "internalType": "bytes32",
          "name": "",
          "type": "bytes32"
        }
      ],
      "stateMutability": "view",
      "type": "function"
    },
    {
      "inputs": [],
      "name": "STATE_RECEIEVED_AT_WAREHOUSE",
      "outputs": [
        {
          "internalType": "bytes32",
          "name": "",
          "type": "bytes32"
        }
      ],
      "stateMutability": "view",
      "type": "function"
    },
    {
      "inputs": [],
      "name": "STATE_RECIEVED_BY_BUYER",
      "outputs": [
        {
          "internalType": "bytes32",
          "name": "",
          "type": "bytes32"
        }
      ],
      "stateMutability": "view",
      "type": "function"
    },
    {
      "inputs": [],
      "name": "STATE_STOCKED_AT_WAREHOUSE",
      "outputs": [
        {
          "internalType": "bytes32",
          "name": "",
          "type": "bytes32"
        }
      ],
      "stateMutability": "view",
      "type": "function"
    },
    {
      "inputs": [],
      "name": "UPDATE_IPFSCONTAINERHASH_ROLE",
      "outputs": [
        {
          "internalType": "bytes32",
          "name": "",
          "type": "bytes32"
        }
      ],
      "stateMutability": "view",
      "type": "function"
    },
    {
      "inputs": [],
      "name": "_Order_Number",
      "outputs": [
        {
          "internalType": "string",
          "name": "",
          "type": "string"
        }
      ],
      "stateMutability": "view",
      "type": "function"
    },
    {
      "inputs": [],
      "name": "_ipfsFieldContainerHash",
      "outputs": [
        {
          "internalType": "string",
          "name": "",
          "type": "string"
        }
      ],
      "stateMutability": "view",
      "type": "function"
    },
    {
      "inputs": [
        {
          "internalType": "uint256",
          "name": "",
          "type": "uint256"
        }
      ],
      "name": "_roles",
      "outputs": [
        {
          "internalType": "bytes32",
          "name": "",
          "type": "bytes32"
        }
      ],
      "stateMutability": "view",
      "type": "function"
    },
    {
      "inputs": [],
      "name": "_uiFieldDefinitionsHash",
      "outputs": [
        {
          "internalType": "string",
          "name": "",
          "type": "string"
        }
      ],
      "stateMutability": "view",
      "type": "function"
    },
    {
      "inputs": [],
      "name": "gateKeeper",
      "outputs": [
        {
          "internalType": "contract GateKeeper",
          "name": "",
          "type": "address"
        }
      ],
      "stateMutability": "view",
      "type": "function"
    },
    {
      "inputs": [],
      "name": "getAllStates",
      "outputs": [
        {
          "internalType": "bytes32[]",
          "name": "allStates",
          "type": "bytes32[]"
        }
      ],
      "stateMutability": "view",
      "type": "function"
    },
    {
      "inputs": [],
      "name": "getCurrentState",
      "outputs": [
        {
          "internalType": "bytes32",
          "name": "state",
          "type": "bytes32"
        }
      ],
      "stateMutability": "view",
      "type": "function"
    },
    {
      "inputs": [
        {
          "internalType": "uint256",
          "name": "index",
          "type": "uint256"
        }
      ],
      "name": "getHistory",
      "outputs": [
        {
          "internalType": "bytes32",
          "name": "fromState",
          "type": "bytes32"
        },
        {
          "internalType": "bytes32",
          "name": "toState",
          "type": "bytes32"
        },
        {
          "internalType": "address",
          "name": "actor",
          "type": "address"
        },
        {
          "internalType": "uint256",
          "name": "timestamp",
          "type": "uint256"
        }
      ],
      "stateMutability": "view",
      "type": "function"
    },
    {
      "inputs": [],
      "name": "getHistoryLength",
      "outputs": [
        {
          "internalType": "uint256",
          "name": "",
          "type": "uint256"
        }
      ],
      "stateMutability": "view",
      "type": "function"
    },
    {
      "inputs": [],
      "name": "getIpfsFieldContainerHash",
      "outputs": [
        {
          "internalType": "string",
          "name": "",
          "type": "string"
        }
      ],
      "stateMutability": "view",
      "type": "function"
    },
    {
      "inputs": [],
      "name": "getNextStates",
      "outputs": [
        {
          "internalType": "bytes32[]",
          "name": "nextStates",
          "type": "bytes32[]"
        }
      ],
      "stateMutability": "view",
      "type": "function"
    },
    {
      "inputs": [
        {
          "internalType": "bytes32",
          "name": "state",
          "type": "bytes32"
        }
      ],
      "name": "getState",
      "outputs": [
        {
          "internalType": "bytes32",
          "name": "name",
          "type": "bytes32"
        },
        {
          "internalType": "bytes32[]",
          "name": "nextStates",
          "type": "bytes32[]"
        },
        {
          "internalType": "bytes32[]",
          "name": "allowedRoles",
          "type": "bytes32[]"
        },
        {
          "internalType": "bytes4[]",
          "name": "allowedFunctions",
          "type": "bytes4[]"
        },
        {
          "internalType": "bytes4",
          "name": "preFunction",
          "type": "bytes4"
        }
      ],
      "stateMutability": "view",
      "type": "function"
    },
    {
      "inputs": [
        {
          "internalType": "uint256",
          "name": "",
          "type": "uint256"
        }
      ],
      "name": "history",
      "outputs": [
        {
          "internalType": "bytes32",
          "name": "fromState",
          "type": "bytes32"
        },
        {
          "internalType": "bytes32",
          "name": "toState",
          "type": "bytes32"
        },
        {
          "internalType": "address",
          "name": "actor",
          "type": "address"
        },
        {
          "internalType": "uint256",
          "name": "timestamp",
          "type": "uint256"
        }
      ],
      "stateMutability": "view",
      "type": "function"
    },
    {
      "inputs": [
        {
          "internalType": "bytes32",
          "name": "key",
          "type": "bytes32"
        },
        {
          "internalType": "string",
          "name": "file",
          "type": "string"
        }
      ],
      "name": "setContractFile",
      "outputs": [],
      "stateMutability": "nonpayable",
      "type": "function"
    },
    {
      "inputs": [
        {
          "internalType": "string",
          "name": "ipfsFieldContainerHash",
          "type": "string"
        }
      ],
      "name": "setIpfsFieldContainerHash",
      "outputs": [],
      "stateMutability": "nonpayable",
      "type": "function"
    },
    {
      "inputs": [
        {
          "internalType": "bytes32",
          "name": "toState",
          "type": "bytes32"
        }
      ],
      "name": "transitionState",
      "outputs": [],
      "stateMutability": "nonpayable",
      "type": "function"
    },
    {
      "inputs": [
        {
          "internalType": "string",
          "name": "Order_Number",
          "type": "string"
        },
        {
          "internalType": "string",
          "name": "ipfsFieldContainerHash",
          "type": "string"
        }
      ],
      "name": "edit",
      "outputs": [],
      "stateMutability": "nonpayable",
      "type": "function"
    },
    {
      "inputs": [],
      "name": "DID",
      "outputs": [
        {
          "internalType": "string",
          "name": "",
          "type": "string"
        }
      ],
      "stateMutability": "view",
      "type": "function"
    },
    {
      "inputs": [],
      "name": "getRoles",
      "outputs": [
        {
          "internalType": "bytes32[]",
          "name": "",
          "type": "bytes32[]"
        }
      ],
      "stateMutability": "view",
      "type": "function"
    },
    {
      "inputs": [],
      "name": "canEdit",
      "outputs": [
        {
          "internalType": "bytes32[]",
          "name": "",
          "type": "bytes32[]"
        }
      ],
      "stateMutability": "view",
      "type": "function"
    }
  ],
  "bytecode": "0x610100604052692927a622afa0a226a4a760b11b6080908152692927a622afa12aaca2a960b11b60a0526c2927a622afa9aaa8282624a2a960991b60c0526f2927a622afaa2920a729a827a92a22a960811b60e0526200006490600b906004620014ff565b506040518060e00160405280692927a622afa0a226a4a760b11b8152602001692927a622afa12aaca2a960b11b81526020016c2927a622afa9aaa8282624a2a960991b81526020016f2927a622afaa2920a729a827a92a22a960811b81526020016d524f4c455f57415245484f55534560901b81526020016d2927a622afa922a3aaa620aa27a960911b815260200168524f4c455f42414e4b60b81b815250600e90600762000115929190620014ff565b503480156200012357600080fd5b506040516200358238038062003582833981016040819052620001469162001695565b600080546001600160a01b0319166001600160a01b03861617905582516200017690600d9060208601906200154f565b5081516200018c9060079060208501906200154f565b508051620001a290600c9060208401906200154f565b50620001ad620001b7565b5050505062001795565b620001d56f1111535053910811d15391549055115160821b620011be565b620001ef6b13d49111548814131050d15160a21b620011be565b62000205671050d0d15415115160c21b620011be565b6200021a6613d3881213d31160ca1b620011be565b6200023067111150d31253915160c21b620011be565b6200024a60008051602062003562833981519152620011be565b6200026460008051602062003462833981519152620011be565b6200027f6c4b594220415641494c41424c4560981b620011be565b6200029c6e4b594220554e415641494c41424c4560881b620011be565b620002b86d4b594220494e2050524f4345535360901b620011be565b620002d26b12d650881054141493d5915160a21b620011be565b620002ed6c1313d053881054141493d59151609a1b620011be565b6200030b6f1353d39156481514905394d19154915160821b620011be565b6200032560008051602062003502833981519152620011be565b620003436f105115905390d1481054141493d5915160821b620011be565b620003616f105115905390d148149153115054d15160821b620011be565b6200037c6c24a710282927a22aa1aa24a7a760991b620011be565b62000396600080516020620034c2833981519152620011be565b620003b060008051602062003522833981519152620011be565b620003ca60008051602062003482833981519152620011be565b620003e4600080516020620034e2833981519152620011be565b620004026f4f555420464f522044454c495645525960801b620011be565b6200041c60008051602062003542833981519152620011be565b620004316614d2115315915160ca1b620011be565b620004436314d3d31160e21b620011be565b6200045a68111254d0d05491115160ba1b620011be565b620004886f1111535053910811d15391549055115160821b6b13d49111548814131050d15160a21b6200127c565b620004ae6b13d49111548814131050d15160a21b671050d0d15415115160c21b6200127c565b620004d36b13d49111548814131050d15160a21b6613d3881213d31160ca1b6200127c565b620004f96b13d49111548814131050d15160a21b67111150d31253915160c21b6200127c565b62000520671050d0d15415115160c21b6c24a710282927a22aa1aa24a7a760991b6200127c565b6200054b6c24a710282927a22aa1aa24a7a760991b600080516020620034c28339815191526200127c565b62000575600080516020620034c2833981519152600080516020620035228339815191526200127c565b6200059f60008051602062003522833981519152600080516020620034828339815191526200127c565b620005c960008051602062003482833981519152600080516020620034e28339815191526200127c565b620005f7600080516020620034e28339815191526f4f555420464f522044454c495645525960801b6200127c565b620006256f4f555420464f522044454c495645525960801b600080516020620035428339815191526200127c565b6200064a600080516020620035428339815191526614d2115315915160ca1b6200127c565b6200066c600080516020620035428339815191526314d3d31160e21b6200127c565b620006936000805160206200354283398151915268111254d0d05491115160ba1b6200127c565b620006b86613d3881213d31160ca1b600080516020620035628339815191526200127c565b620006e260008051602062003562833981519152600080516020620034628339815191526200127c565b6200070d600080516020620034628339815191526c4b594220415641494c41424c4560981b6200127c565b6200073a600080516020620034628339815191526e4b594220554e415641494c41424c4560881b6200127c565b620007696e4b594220554e415641494c41424c4560881b6d4b594220494e2050524f4345535360901b6200127c565b620007966d4b594220494e2050524f4345535360901b6c4b594220415641494c41424c4560981b6200127c565b620007c26c4b594220415641494c41424c4560981b6c1313d053881054141493d59151609a1b6200127c565b620007f16c1313d053881054141493d59151609a1b6f1353d39156481514905394d19154915160821b6200127c565b6200081b6f1353d39156481514905394d19154915160821b671050d0d15415115160c21b6200127c565b620008406613d3881213d31160ca1b600080516020620035028339815191526200127c565b6200086a60008051602062003502833981519152600080516020620034628339815191526200127c565b620008996c4b594220415641494c41424c4560981b6f105115905390d1481054141493d5915160821b6200127c565b620008cb6f105115905390d1481054141493d5915160821b6f105115905390d148149153115054d15160821b6200127c565b620008f56f105115905390d148149153115054d15160821b671050d0d15415115160c21b6200127c565b620009216f1111535053910811d15391549055115160821b692927a622afa12aaca2a960b11b6200135c565b620009496b13d49111548814131050d15160a21b692927a622afa12aaca2a960b11b6200135c565b62000970671050d0d15415115160c21b6c2927a622afa9aaa8282624a2a960991b6200135c565b620009966613d3881213d31160ca1b6c2927a622afa9aaa8282624a2a960991b6200135c565b620009bd67111150d31253915160c21b6c2927a622afa9aaa8282624a2a960991b6200135c565b620009e96c24a710282927a22aa1aa24a7a760991b6c2927a622afa9aaa8282624a2a960991b6200135c565b62000a14600080516020620034c28339815191526c2927a622afa9aaa8282624a2a960991b6200135c565b62000a42600080516020620035228339815191526f2927a622afaa2920a729a827a92a22a960811b6200135c565b62000a6e600080516020620034828339815191526d524f4c455f57415245484f55534560901b6200135c565b62000a9a600080516020620034e28339815191526d524f4c455f57415245484f55534560901b6200135c565b62000acc6f4f555420464f522044454c495645525960801b6f2927a622afaa2920a729a827a92a22a960811b6200135c565b62000af460008051602062003542833981519152692927a622afa12aaca2a960b11b6200135c565b62000b176614d2115315915160ca1b692927a622afa12aaca2a960b11b6200135c565b62000b376314d3d31160e21b692927a622afa12aaca2a960b11b6200135c565b62000b5c68111254d0d05491115160ba1b692927a622afa12aaca2a960b11b6200135c565b62000b87600080516020620035628339815191526c2927a622afa9aaa8282624a2a960991b6200135c565b62000bb3600080516020620034628339815191526d2927a622afa922a3aaa620aa27a960911b6200135c565b62000be06c4b594220415641494c41424c4560981b6d2927a622afa922a3aaa620aa27a960911b6200135c565b62000c0f6e4b594220554e415641494c41424c4560881b6d2927a622afa922a3aaa620aa27a960911b6200135c565b62000c3c6d4b594220494e2050524f4345535360901b6c2927a622afa9aaa8282624a2a960991b6200135c565b62000c696c4b594220415641494c41424c4560981b6d2927a622afa922a3aaa620aa27a960911b6200135c565b62000c916c1313d053881054141493d59151609a1b68524f4c455f42414e4b60b81b6200135c565b62000cbc6f1353d39156481514905394d19154915160821b68524f4c455f42414e4b60b81b6200135c565b62000ce3671050d0d15415115160c21b6c2927a622afa9aaa8282624a2a960991b6200135c565b62000d0e600080516020620035028339815191526c2927a622afa9aaa8282624a2a960991b6200135c565b62000d3a6f105115905390d1481054141493d5915160821b692927a622afa12aaca2a960b11b6200135c565b62000d666f105115905390d148149153115054d15160821b692927a622afa12aaca2a960b11b6200135c565b62000d926f1111535053910811d15391549055115160821b692927a622afa0a226a4a760b11b6200135c565b62000dba6b13d49111548814131050d15160a21b692927a622afa0a226a4a760b11b6200135c565b62000dde671050d0d15415115160c21b692927a622afa0a226a4a760b11b6200135c565b62000e016613d3881213d31160ca1b692927a622afa0a226a4a760b11b6200135c565b62000e2567111150d31253915160c21b692927a622afa0a226a4a760b11b6200135c565b62000e4e6c24a710282927a22aa1aa24a7a760991b692927a622afa0a226a4a760b11b6200135c565b62000e76600080516020620034c2833981519152692927a622afa0a226a4a760b11b6200135c565b62000e9e60008051602062003522833981519152692927a622afa0a226a4a760b11b6200135c565b62000ec660008051602062003482833981519152692927a622afa0a226a4a760b11b6200135c565b62000eee600080516020620034e2833981519152692927a622afa0a226a4a760b11b6200135c565b62000f1a6f4f555420464f522044454c495645525960801b692927a622afa0a226a4a760b11b6200135c565b62000f4260008051602062003542833981519152692927a622afa0a226a4a760b11b6200135c565b62000f656614d2115315915160ca1b692927a622afa0a226a4a760b11b6200135c565b62000f856314d3d31160e21b692927a622afa0a226a4a760b11b6200135c565b62000faa68111254d0d05491115160ba1b692927a622afa0a226a4a760b11b6200135c565b62000fd260008051602062003562833981519152692927a622afa0a226a4a760b11b6200135c565b62000ffa60008051602062003462833981519152692927a622afa0a226a4a760b11b6200135c565b620010236c4b594220415641494c41424c4560981b692927a622afa0a226a4a760b11b6200135c565b6200104e6e4b594220554e415641494c41424c4560881b692927a622afa0a226a4a760b11b6200135c565b620010786d4b594220494e2050524f4345535360901b692927a622afa0a226a4a760b11b6200135c565b620010a16c4b594220415641494c41424c4560981b692927a622afa0a226a4a760b11b6200135c565b620010ca6c1313d053881054141493d59151609a1b692927a622afa0a226a4a760b11b6200135c565b620010f66f1353d39156481514905394d19154915160821b692927a622afa0a226a4a760b11b6200135c565b6200111e60008051602062003502833981519152692927a622afa0a226a4a760b11b6200135c565b6200114660008051602062003462833981519152692927a622afa0a226a4a760b11b6200135c565b620011726f105115905390d1481054141493d5915160821b692927a622afa0a226a4a760b11b6200135c565b6200119e6f105115905390d148149153115054d15160821b692927a622afa0a226a4a760b11b6200135c565b620011bc6f1111535053910811d15391549055115160821b620013df565b565b60008181526002602052604090205460ff16156200122f5760405162461bcd60e51b815260206004820152602360248201527f746869732073746174652068617320616c7265616479206265656e20637265616044820152621d195960ea1b60648201526084015b60405180910390fd5b6000818152600260205260408120805460ff191660019081179091556003805491820181559091527fc2575a0e9e593c00f959f8c92f12db2869c3395a3b0502d05e2516446f71f85b0155565b600082815260026020526040902054829060ff16620012d85760405162461bcd60e51b81526020600482015260226024820152600080516020620034a2833981519152604482015261195d60f21b606482015260840162001226565b600082815260026020526040902054829060ff16620013345760405162461bcd60e51b81526020600482015260226024820152600080516020620034a2833981519152604482015261195d60f21b606482015260840162001226565b5050600091825260026020908152604083206005018054600181018255908452922090910155565b600082815260026020526040902054829060ff16620013b85760405162461bcd60e51b81526020600482015260226024820152600080516020620034a2833981519152604482015261195d60f21b606482015260840162001226565b50600091825260026020818152604084209091018054600181018255908452922090910155565b60008181526002602052604090205460ff16620014525760405162461bcd60e51b815260206004820152602a60248201527f74686520696e697469616c20737461746520686173206e6f74206265656e20636044820152691c99585d1959081e595d60b21b606482015260840162001226565b60045415620014fa5760405162461bcd60e51b815260206004820152606160248201527f7468652063757272656e742073746174652068617320616c726561647920626560448201527f656e207365742c20736f20796f752063616e6e6f7420636f6e6669677572652060648201527f74686520696e697469616c20737461746520616e64206f7665727269646520696084820152601d60fa1b60a482015260c40162001226565b600455565b8280548282559060005260206000209081019282156200153d579160200282015b828111156200153d57825182559160200191906001019062001520565b506200154b929150620015cb565b5090565b8280546200155d9062001742565b90600052602060002090601f0160209004810192826200158157600085556200153d565b82601f106200159c57805160ff19168380011785556200153d565b828001600101855582156200153d57918201828111156200153d57825182559160200191906001019062001520565b5b808211156200154b5760008155600101620015cc565b600082601f830112620015f3578081fd5b81516001600160401b03808211156200161057620016106200177f565b604051601f8301601f19908116603f011681019082821181831017156200163b576200163b6200177f565b8160405283815260209250868385880101111562001657578485fd5b8491505b838210156200167a57858201830151818301840152908201906200165b565b838211156200168b57848385830101525b9695505050505050565b60008060008060808587031215620016ab578384fd5b84516001600160a01b0381168114620016c2578485fd5b60208601519094506001600160401b0380821115620016df578485fd5b620016ed88838901620015e2565b9450604087015191508082111562001703578384fd5b6200171188838901620015e2565b9350606087015191508082111562001727578283fd5b506200173687828801620015e2565b91505092959194509250565b600181811c908216806200175757607f821691505b602082108114156200177957634e487b7160e01b600052602260045260246000fd5b50919050565b634e487b7160e01b600052604160045260246000fd5b611cbd80620017a56000396000f3fe608060405234801561001057600080fd5b50600436106103425760003560e01c80639075386f116101b8578063be5bfaad11610104578063ddb78f0a116100a2578063f4a979a31161007c578063f4a979a31461079b578063f78014fd146107ae578063fa3c4811146107c1578063fcbb5907146107d957610342565b8063ddb78f0a14610767578063ecf870cc14610779578063ef120a6e1461079357610342565b8063d330b0a7116100de578063d330b0a71461070d578063d391014b14610723578063d8b0052714610737578063d9e3de111461074e57610342565b8063be5bfaad146106c4578063bfc15adf146106e0578063c8691b2a146106fa57610342565b8063a7a38f0b11610171578063b40b34231161014b578063b40b342314610666578063baa463b914610678578063bbd45fbc14610690578063bc7b8b24146106aa57610342565b8063a7a38f0b146105f9578063aa535fb41461063b578063ab2ca63d1461064f57610342565b80639075386f146105a35780639086b2e3146105ba578063910fd10a146105d05780639d861fe0146105d8578063a4ddb071146105e9578063a54df332146105f157610342565b80634490acc311610292578063580b2998116102305780637b5810981161020a5780637b5810981461055a57806381beeb64146105755780638624c2691461057d5780638cb928321461058b57610342565b8063580b299814610524578063694f11051461053f578063710613981461055257610342565b80634de6740e1161026c5780634de6740e146104e757806350123ff7146104ef5780635478f4681461050957806356c57bd11461051157610342565b80634490acc31461049057806345d61ded146104a7578063489f19eb146104d257610342565b80632e2bc0d5116102ff578063390878cc116102d9578063390878cc146104295780633a7fae12146104465780633e44694f146104615780634270e1871461047657610342565b80632e2bc0d5146103f9578063304b1bd11461040e578063378aa7011461042157610342565b8063051330511461034757806309648a9d146103745780630b1cbe2f146103985780630c0c3059146103b75780631eeda95d146103c857806322622057146103e6575b600080fd5b6103616f4241434b47524f554e4420434845434b60801b81565b6040519081526020015b60405180910390f35b6103876103823660046118fd565b610800565b60405161036b959493929190611b02565b6103617452454349455645442041542057415245484f55534560581b81565b6103616613d3881213d31160ca1b81565b6103617353544f434b45442041542057415245484f55534560601b81565b61036168524f4c455f42414e4b60b81b81565b610401610b4a565b60405161036b9190611aef565b61036161041c3660046118fd565b610bb0565b610361610bd1565b61036172119253905390d25391c8149154555154d51151606a1b81565b610361702922a1a4a2ab22a210212c90212aaca2a960791b81565b610469610c51565b60405161036b9190611b8d565b6103616f1353d39156481514905394d19154915160821b81565b6103616c1313d053881054141493d59151609a1b81565b6000546104ba906001600160a01b031681565b6040516001600160a01b03909116815260200161036b565b6104e56104e0366004611995565b610c79565b005b610469610ca5565b6103616f4f555420464f522044454c495645525960801b81565b600154610361565b6104e561051f36600461195a565b610d33565b61036170105115905390d148149154555154d51151607a1b81565b6104e561054d3660046118fd565b610d4a565b610401610f89565b610361701055081514905394d19154881413d25395607a1b81565b610401610fdf565b6103616314d3d31160e21b81565b6103616d524f4c455f57415245484f55534560901b81565b6103616c4b594220415641494c41424c4560981b81565b6103616b13d49111548814131050d15160a21b81565b610469611035565b6103616614d2115315915160ca1b81565b610401611042565b610469611098565b61060c6106073660046118fd565b6110a5565b60405161036b949392919093845260208401929092526001600160a01b03166040830152606082015260800190565b610361692927a622afa12aaca2a960b11b81565b6103616c2927a622afa9aaa8282624a2a960991b81565b61036167111150d31253915160c21b81565b6103616d4b594220494e2050524f4345535360901b81565b6103616f105115905390d148149153115054d15160821b81565b6103616f2927a622afaa2920a729a827a92a22a960811b81565b610361710a48a8288b2408c9ea4408892a6a082a886960731b81565b6103616f105115905390d1481054141493d5915160821b81565b61060c6107083660046118fd565b6110e8565b6103616b12d650881054141493d5915160a21b81565b610361692927a622afa0a226a4a760b11b81565b6103616c24a710282927a22aa1aa24a7a760991b81565b6103616e4b594220554e415641494c41424c4560881b81565b610361671050d0d15415115160c21b81565b6103616f1111535053910811d15391549055115160821b81565b610469611222565b6104e56107a9366004611915565b6112ab565b61036168111254d0d05491115160ba1b81565b6103616d2927a622afa922a3aaa620aa27a960911b81565b6103617f5550444154455f49504653434f4e5441494e4552484153485f524f4c4500000081565b60008181526002602052604081206005546060918291829185918290819067ffffffffffffffff81111561084457634e487b7160e01b600052604160045260246000fd5b60405190808252806020026020018201604052801561086d578160200160208202803683370190505b50905060005b60055481101561099857600260008b81526020019081526020016000206001016000600583815481106108b657634e487b7160e01b600052603260045260246000fd5b6000918252602080832060088304015460079092166004026101000a90910460e01b6001600160e01b031916835282019290925260400190205460ff1615610986576005818154811061091957634e487b7160e01b600052603260045260246000fd5b90600052602060002090600891828204019190066004029054906101000a900460e01b828460ff168151811061095f57634e487b7160e01b600052603260045260246000fd5b6001600160e01b031990921660209283029190910190910152610983600184611be0565b92505b8061099081611c40565b915050610873565b5060008260ff1667ffffffffffffffff8111156109c557634e487b7160e01b600052604160045260246000fd5b6040519080825280602002602001820160405280156109ee578160200160208202803683370190505b50905060005b8360ff16811015610a7257828181518110610a1f57634e487b7160e01b600052603260045260246000fd5b6020026020010151828281518110610a4757634e487b7160e01b600052603260045260246000fd5b6001600160e01b03199092166020928302919091019091015280610a6a81611c40565b9150506109f4565b50898460050185600201838760060160009054906101000a900460e01b83805480602002602001604051908101604052809291908181526020018280548015610ada57602002820191906000526020600020905b815481526020019060010190808311610ac6575b5050505050935082805480602002602001604051908101604052809291908181526020018280548015610b2c57602002820191906000526020600020905b815481526020019060010190808311610b18575b50505050509250985098509850985098505050505091939590929450565b600454600090815260026020908152604091829020600501805483518184028101840190945280845260609392830182828015610ba657602002820191906000526020600020905b815481526020019060010190808311610b92575b5050505050905090565b600b8181548110610bc057600080fd5b600091825260209091200154905081565b60045460009081526002602052604081205460ff16610c4a5760405162461bcd60e51b815260206004820152602a60248201527f74686520696e697469616c20737461746520686173206e6f74206265656e20636044820152691c99585d1959081e595d60b21b60648201526084015b60405180910390fd5b5060045490565b6060600d604051602001610c659190611a26565b604051602081830303815290604052905090565b8151610c8c90600d9060208501906117a7565b508051610ca09060079060208401906117a7565b505050565b600c8054610cb290611c05565b80601f0160208091040260200160405190810160405280929190818152602001828054610cde90611c05565b8015610d2b5780601f10610d0057610100808354040283529160200191610d2b565b820191906000526020600020905b815481529060010190602001808311610d0e57829003601f168201915b505050505081565b8051610d469060079060208401906117a7565b5050565b600354610daa5760405162461bcd60e51b815260206004820152602860248201527f746869732073746174656d616368696e6520686173206e6f74206265656e2073604482015267195d1d5c081e595d60c21b6064820152608401610c41565b80610dbc610db6610bd1565b8261132b565b600480548382556000848152600260205260408120919291909101905b8154811015610e5257610e408386848481548110610e0757634e487b7160e01b600052603260045260246000fd5b90600052602060002090600491828204019190066008029054906101000a9004801561182b021767ffffffffffffffff1663ffffffff16565b80610e4a81611c40565b915050610dd9565b506040805160808101825283815260208082018781523383850181815242606080870191825260018054808201825560009190915296517fb10e2d527612073b26eecdfd717e6a320cf44b4afac2b0732d9fcbe2b7fa0cf660049889029081019190915594517fb10e2d527612073b26eecdfd717e6a320cf44b4afac2b0732d9fcbe2b7fa0cf786015591517fb10e2d527612073b26eecdfd717e6a320cf44b4afac2b0732d9fcbe2b7fa0cf8850180546001600160a01b0319166001600160a01b03909216919091179055517fb10e2d527612073b26eecdfd717e6a320cf44b4afac2b0732d9fcbe2b7fa0cf99093019290925592548451938452918301869052928201527f483a31c379a4b707332853662276a3424ec44f0ccbfc20d78fd9d143694f7669910160405180910390a150505050565b6060600b805480602002602001604051908101604052809291908181526020018280548015610ba65760200282019190600052602060002090815481526020019060010190808311610b92575050505050905090565b6060600e805480602002602001604051908101604052809291908181526020018280548015610ba65760200282019190600052602060002090815481526020019060010190808311610b92575050505050905090565b60078054610cb290611c05565b60606003805480602002602001604051908101604052809291908181526020018280548015610ba65760200282019190600052602060002090815481526020019060010190808311610b92575050505050905090565b600d8054610cb290611c05565b600181815481106110b557600080fd5b60009182526020909120600490910201805460018201546002830154600390930154919350916001600160a01b03169084565b600080808060015485106111345760405162461bcd60e51b8152602060048201526013602482015272496e646578206f7574206f6620626f756e647360681b6044820152606401610c41565b6001858154811061115557634e487b7160e01b600052603260045260246000fd5b9060005260206000209060040201600001546001868154811061118857634e487b7160e01b600052603260045260246000fd5b906000526020600020906004020160010154600187815481106111bb57634e487b7160e01b600052603260045260246000fd5b906000526020600020906004020160020160009054906101000a90046001600160a01b03166001888154811061120157634e487b7160e01b600052603260045260246000fd5b90600052602060002090600402016003015493509350935093509193509193565b60606007805461123190611c05565b80601f016020809104026020016040519081016040528092919081815260200182805461125d90611c05565b8015610ba65780601f1061127f57610100808354040283529160200191610ba6565b820191906000526020600020905b81548152906001019060200180831161128d57509395945050505050565b60008281526009602052604090205460ff1661130c576008805460018181019092557ff3f7a9fe364faab93b216da50a3214154f22a0a2b415b23a84c8169e8b636ee3018390556000838152600960205260409020805460ff191690911790555b6000828152600a602090815260409091208251610ca0928401906117a7565b60008281526002602052604090205460ff166113a75760405162461bcd60e51b815260206004820152603560248201527f7468652066726f6d20737461746520686173206e6f74206265656e20636f6e666044820152741a59dd5c9959081a5b881d1a1a5cc81bd89a9958dd605a1b6064820152608401610c41565b60008181526002602052604090205460ff166114215760405162461bcd60e51b815260206004820152603360248201527f74686520746f20737461746520686173206e6f74206265656e20636f6e6669676044820152721d5c9959081a5b881d1a1a5cc81bd89a9958dd606a1b6064820152608401610c41565b61142b828261156c565b6114af5760405162461bcd60e51b815260206004820152604960248201527f74686520726571756573746564206e657874207374617465206973206e6f742060448201527f616e20616c6c6f776564206e65787420737461746520666f72207468697320746064820152683930b739b4ba34b7b760b91b608482015260a401610c41565b6114b881611626565b6115625760405162461bcd60e51b815260206004820152606960248201527f7468652073656e646572206f662074686973207472616e73616374696f6e206460448201527f6f6573206e6f742068617665206120726f6c65207468617420616c6c6f77732060648201527f7472616e736974696f6e206265747765656e207468652066726f6d20616e6420608482015268746f2073746174657360b81b60a482015260c401610c41565b610d4682826116a9565b6000828152600260205260408120600501815b815481101561161e57604080516020810186905201604051602081830303815290604052805190602001208282815481106115ca57634e487b7160e01b600052603260045260246000fd5b90600052602060002001546040516020016115e791815260200190565b60405160208183030381529060405280519060200120141561160c576001925061161e565b8061161681611c40565b91505061157f565b505092915050565b6000818152600260208190526040822001805461164257600191505b60005b81548110156116a2576116823383838154811061167257634e487b7160e01b600052603260045260246000fd5b9060005260206000200154611702565b1561169057600192506116a2565b8061169a81611c40565b915050611645565b5050919050565b6000818152600260205260408120600301905b81548110156116fc576116ea8484848481548110610e0757634e487b7160e01b600052603260045260246000fd5b806116f481611c40565b9150506116bc565b50505050565b600080546001600160a01b031615806117a05750600054604051630dace25b60e31b81526001600160a01b0385811660048301523060248301526044820185905290911690636d6712d89060640160206040518083038186803b15801561176857600080fd5b505afa15801561177c573d6000803e3d6000fd5b505050506040513d601f19601f820116820180604052508101906117a091906118dd565b9392505050565b8280546117b390611c05565b90600052602060002090601f0160209004810192826117d5576000855561181b565b82601f106117ee57805160ff191683800117855561181b565b8280016001018555821561181b579182015b8281111561181b578251825591602001919060010190611800565b50611827929150611841565b5090565b634e487b7160e01b600052605160045260246000fd5b5b808211156118275760008155600101611842565b600082601f830112611866578081fd5b813567ffffffffffffffff8082111561188157611881611c71565b604051601f8301601f19908116603f011681019082821181831017156118a9576118a9611c71565b816040528381528660208588010111156118c1578485fd5b8360208701602083013792830160200193909352509392505050565b6000602082840312156118ee578081fd5b815180151581146117a0578182fd5b60006020828403121561190e578081fd5b5035919050565b60008060408385031215611927578081fd5b82359150602083013567ffffffffffffffff811115611944578182fd5b61195085828601611856565b9150509250929050565b60006020828403121561196b578081fd5b813567ffffffffffffffff811115611981578182fd5b61198d84828501611856565b949350505050565b600080604083850312156119a7578182fd5b823567ffffffffffffffff808211156119be578384fd5b6119ca86838701611856565b935060208501359150808211156119df578283fd5b5061195085828601611856565b6000815180845260208085019450808401835b83811015611a1b578151875295820195908201906001016119ff565b509495945050505050565b60007f6469643a64656d6f3a737570706c79636861696e66696e616e63653a000000008252601c81845483600182811c915080831680611a6757607f831692505b6020808410821415611a8757634e487b7160e01b88526022600452602488fd5b818015611a9b5760018114611ab057611ae0565b60ff1986168a890152848a0188019650611ae0565b60008b815260209020895b86811015611ad65781548c82018b0152908501908301611abb565b505087858b010196505b50949998505050505050505050565b6000602082526117a060208301846119ec565b6000868252602060a081840152611b1c60a08401886119ec565b8381036040850152611b2e81886119ec565b84810360608601528651808252838801925090830190845b81811015611b6c5783516001600160e01b03191683529284019291840191600101611b46565b505080935050505063ffffffff60e01b831660808301529695505050505050565b6000602080835283518082850152825b81811015611bb957858101830151858201604001528201611b9d565b81811115611bca5783604083870101525b50601f01601f1916929092016040019392505050565b600060ff821660ff84168060ff03821115611bfd57611bfd611c5b565b019392505050565b600181811c90821680611c1957607f821691505b60208210811415611c3a57634e487b7160e01b600052602260045260246000fd5b50919050565b6000600019821415611c5457611c54611c5b565b5060010190565b634e487b7160e01b600052601160045260246000fd5b634e487b7160e01b600052604160045260246000fdfea2646970667358221220e7b83616b4381d03549e65d8648cdf9e3fea64f677ef35912d67a8a6a891f03664736f6c634300080300334241434b47524f554e4420434845434b0000000000000000000000000000000052454349455645442041542057415245484f555345000000000000000000000074686520737461746520686173206e6f74206265656e20637265617465642079524541445920464f52204449535041544348000000000000000000000000000053544f434b45442041542057415245484f555345000000000000000000000000414456414e4345205245515545535445440000000000000000000000000000004154205452414e5346455220504f494e54000000000000000000000000000000524543494556454420425920425559455200000000000000000000000000000046494e414e43494e472052455155455354454400000000000000000000000000",
  "immutableReferences": {},
  "source": "/**\n * Copyright (C) SettleMint NV - All Rights Reserved\n *\n * Use of this file is strictly prohibited without an active license agreement.\n * Distribution of this file, via any medium, is strictly prohibited.\n *\n * For license inquiries, contact hello@settlemint.com\n *\n * SPDX-License-Identifier: UNLICENSED\n */\n\npragma solidity ^0.8.0;\n\nimport '../_library//authentication/Secured.sol';\nimport '../_library//provenance/statemachine/StateMachine.sol';\nimport '../_library//utility/metadata/IpfsFieldContainer.sol';\nimport '../_library//utility/metadata/FileFieldContainer.sol';\nimport '../_library//utility/conversions/Converter.sol';\n\n/**\n * SupplyChainFinance\n\n *\n * @title State machine for SupplyChainFinance\n */\ncontract SupplyChainFinance is Converter, StateMachine, IpfsFieldContainer, FileFieldContainer {\n  bytes32 public constant STATE_DEMAND_GENERATED = 'DEMAND GENERATED';\n  bytes32 public constant STATE_ORDER_PLACED = 'ORDER PLACED';\n  bytes32 public constant STATE_ORDER_ACCEPTED = 'ACCEPTED';\n  bytes32 public constant STATE_ORDER_ON_HOLD = 'ON HOLD';\n  bytes32 public constant STATE_ORDER_DECLINED = 'DECLINED';\n\n  bytes32 public constant STATE_FINANCING_REQUESTED = 'FINANCING REQUESTED';\n  bytes32 public constant STATE_BACKGROUND_CHECK = 'BACKGROUND CHECK';\n  bytes32 public constant STATE_KYB_AVAILABLE = 'KYB AVAILABLE';\n  bytes32 public constant STATE_KYB_UNAVAILABLE = 'KYB UNAVAILABLE';\n  bytes32 public constant STATE_KYB_IN_PROCESS = 'KYB IN PROCESS';\n  bytes32 public constant STATE_KYB_APPROVED = 'KYB APPROVED';\n  bytes32 public constant STATE_LOAN_APPROVED = 'LOAN APPROVED';\n  bytes32 public constant STATE_MONEY_TRANSFERED = 'MONEY TRANSFERED';\n\n  bytes32 public constant STATE_ADVANCE_REQUESTED = 'ADVANCE REQUESTED';\n  bytes32 public constant STATE_ADVANCE_APPROVED = 'ADVANCE APPROVED';\n  bytes32 public constant STATE_ADVANCE_RELEASED = 'ADVANCE RELEASED';\n\n  bytes32 public constant STATE_IN_PRODUCTION = 'IN PRODUCTION';\n  bytes32 public constant STATE_READY_FOR_DISPATCH = 'READY FOR DISPATCH';\n  bytes32 public constant STATE_REACHED_TRANSFER_POINT = 'AT TRANSFER POINT';\n  bytes32 public constant STATE_RECEIEVED_AT_WAREHOUSE = 'RECIEVED AT WAREHOUSE';\n  bytes32 public constant STATE_STOCKED_AT_WAREHOUSE = 'STOCKED AT WAREHOUSE';\n  bytes32 public constant STATE_OUT_FOR_DELIVERY = 'OUT FOR DELIVERY';\n  bytes32 public constant STATE_RECIEVED_BY_BUYER = 'RECIEVED BY BUYER';\n  bytes32 public constant STATE_PRODUCT_SHELVED = 'SHELVED';\n  bytes32 public constant STATE_PRODUCT_SOLD = 'SOLD';\n  bytes32 public constant STATE_PRODUCT_DISCARDED = 'DISCARDED';\n\n  bytes32 public constant ROLE_ADMIN = 'ROLE_ADMIN';\n  bytes32 public constant ROLE_BUYER = 'ROLE_BUYER';\n  bytes32 public constant ROLE_SUPPLIER = 'ROLE_SUPPLIER';\n  bytes32 public constant ROLE_TRANSPORTER = 'ROLE_TRANSPORTER';\n  bytes32 public constant ROLE_WAREHOUSE = 'ROLE_WAREHOUSE';\n\n  bytes32 public constant ROLE_REGULATOR = 'ROLE_REGULATOR';\n  bytes32 public constant ROLE_BANK = 'ROLE_BANK';\n\n  bytes32[] public _roles = [ROLE_ADMIN, ROLE_BUYER, ROLE_SUPPLIER, ROLE_TRANSPORTER];\n\n  string public _uiFieldDefinitionsHash;\n  string public _Order_Number;\n\n  constructor(\n    address gateKeeper,\n    string memory Order_Number,\n    string memory ipfsFieldContainerHash,\n    string memory uiFieldDefinitionsHash\n  ) Secured(gateKeeper) {\n    _Order_Number = Order_Number;\n    _ipfsFieldContainerHash = ipfsFieldContainerHash;\n    _uiFieldDefinitionsHash = uiFieldDefinitionsHash;\n    setupStateMachine();\n  }\n\n  /**\n   * @notice Updates expense properties\n   * @param Order_Number It is the order Identification Number\n   * @param ipfsFieldContainerHash ipfs hash of supplychainfinance metadata\n   */\n  function edit(string memory Order_Number, string memory ipfsFieldContainerHash) public {\n    _Order_Number = Order_Number;\n    _ipfsFieldContainerHash = ipfsFieldContainerHash;\n  }\n\n  /**\n   * @notice Returns a DID of the supplychainfinance\n   * @dev Returns a unique DID (Decentralized Identifier) for the supplychainfinance.\n   * @return string representing the DID of the supplychainfinance\n   */\n  function DID() public view returns (string memory) {\n    return string(abi.encodePacked('did:demo:supplychainfinance:', _Order_Number));\n  }\n\n  /**\n   * @notice Returns all the roles for this contract\n   * @return bytes32[] array of raw bytes representing the roles\n   */\n  function getRoles() public view returns (bytes32[] memory) {\n    return _roles;\n  }\n\n  bytes32[] private _canEdit = [\n    ROLE_ADMIN,\n    ROLE_BUYER,\n    ROLE_SUPPLIER,\n    ROLE_TRANSPORTER,\n    ROLE_WAREHOUSE,\n    ROLE_REGULATOR,\n    ROLE_BANK\n  ];\n\n  function canEdit() public view returns (bytes32[] memory) {\n    return _canEdit;\n  }\n\n  function setupStateMachine() internal override {\n    //create all states\n\n    createState(STATE_DEMAND_GENERATED);\n    createState(STATE_ORDER_PLACED);\n    createState(STATE_ORDER_ACCEPTED);\n    createState(STATE_ORDER_ON_HOLD);\n    createState(STATE_ORDER_DECLINED);\n    createState(STATE_FINANCING_REQUESTED);\n    createState(STATE_BACKGROUND_CHECK);\n    createState(STATE_KYB_AVAILABLE);\n    createState(STATE_KYB_UNAVAILABLE);\n    createState(STATE_KYB_IN_PROCESS);\n    createState(STATE_KYB_APPROVED);\n    createState(STATE_LOAN_APPROVED);\n    createState(STATE_MONEY_TRANSFERED);\n    createState(STATE_ADVANCE_REQUESTED);\n    createState(STATE_ADVANCE_APPROVED);\n    createState(STATE_ADVANCE_RELEASED);\n    createState(STATE_IN_PRODUCTION);\n    createState(STATE_READY_FOR_DISPATCH);\n    createState(STATE_REACHED_TRANSFER_POINT);\n    createState(STATE_RECEIEVED_AT_WAREHOUSE);\n    createState(STATE_STOCKED_AT_WAREHOUSE);\n    createState(STATE_OUT_FOR_DELIVERY);\n    createState(STATE_RECIEVED_BY_BUYER);\n    createState(STATE_PRODUCT_SHELVED);\n    createState(STATE_PRODUCT_SOLD);\n    createState(STATE_PRODUCT_DISCARDED);\n\n    // add properties\n\n    addNextStateForState(STATE_DEMAND_GENERATED, STATE_ORDER_PLACED);\n    addNextStateForState(STATE_ORDER_PLACED, STATE_ORDER_ACCEPTED);\n    addNextStateForState(STATE_ORDER_PLACED, STATE_ORDER_ON_HOLD);\n    addNextStateForState(STATE_ORDER_PLACED, STATE_ORDER_DECLINED);\n    addNextStateForState(STATE_ORDER_ACCEPTED, STATE_IN_PRODUCTION);\n    addNextStateForState(STATE_IN_PRODUCTION, STATE_READY_FOR_DISPATCH);\n    addNextStateForState(STATE_READY_FOR_DISPATCH, STATE_REACHED_TRANSFER_POINT);\n    addNextStateForState(STATE_REACHED_TRANSFER_POINT, STATE_RECEIEVED_AT_WAREHOUSE);\n    addNextStateForState(STATE_RECEIEVED_AT_WAREHOUSE, STATE_STOCKED_AT_WAREHOUSE);\n    addNextStateForState(STATE_STOCKED_AT_WAREHOUSE, STATE_OUT_FOR_DELIVERY);\n    addNextStateForState(STATE_OUT_FOR_DELIVERY, STATE_RECIEVED_BY_BUYER);\n    addNextStateForState(STATE_RECIEVED_BY_BUYER, STATE_PRODUCT_SHELVED);\n    addNextStateForState(STATE_RECIEVED_BY_BUYER, STATE_PRODUCT_SOLD);\n    addNextStateForState(STATE_RECIEVED_BY_BUYER, STATE_PRODUCT_DISCARDED);\n\n    addNextStateForState(STATE_ORDER_ON_HOLD, STATE_FINANCING_REQUESTED);\n    addNextStateForState(STATE_FINANCING_REQUESTED, STATE_BACKGROUND_CHECK);\n    addNextStateForState(STATE_BACKGROUND_CHECK, STATE_KYB_AVAILABLE);\n    addNextStateForState(STATE_BACKGROUND_CHECK, STATE_KYB_UNAVAILABLE);\n    addNextStateForState(STATE_KYB_UNAVAILABLE, STATE_KYB_IN_PROCESS);\n    addNextStateForState(STATE_KYB_IN_PROCESS, STATE_KYB_AVAILABLE);\n    addNextStateForState(STATE_KYB_AVAILABLE, STATE_LOAN_APPROVED);\n    addNextStateForState(STATE_LOAN_APPROVED, STATE_MONEY_TRANSFERED);\n    addNextStateForState(STATE_MONEY_TRANSFERED, STATE_ORDER_ACCEPTED);\n\n    addNextStateForState(STATE_ORDER_ON_HOLD, STATE_ADVANCE_REQUESTED);\n    addNextStateForState(STATE_ADVANCE_REQUESTED, STATE_BACKGROUND_CHECK);\n    addNextStateForState(STATE_KYB_AVAILABLE, STATE_ADVANCE_APPROVED);\n    addNextStateForState(STATE_ADVANCE_APPROVED, STATE_ADVANCE_RELEASED);\n    addNextStateForState(STATE_ADVANCE_RELEASED, STATE_ORDER_ACCEPTED);\n\n    addRoleForState(STATE_DEMAND_GENERATED, ROLE_BUYER);\n    addRoleForState(STATE_ORDER_PLACED, ROLE_BUYER);\n    addRoleForState(STATE_ORDER_ACCEPTED, ROLE_SUPPLIER);\n    addRoleForState(STATE_ORDER_ON_HOLD, ROLE_SUPPLIER);\n    addRoleForState(STATE_ORDER_DECLINED, ROLE_SUPPLIER);\n    addRoleForState(STATE_IN_PRODUCTION, ROLE_SUPPLIER);\n    addRoleForState(STATE_READY_FOR_DISPATCH, ROLE_SUPPLIER);\n    addRoleForState(STATE_REACHED_TRANSFER_POINT, ROLE_TRANSPORTER);\n    addRoleForState(STATE_RECEIEVED_AT_WAREHOUSE, ROLE_WAREHOUSE);\n    addRoleForState(STATE_STOCKED_AT_WAREHOUSE, ROLE_WAREHOUSE);\n    addRoleForState(STATE_OUT_FOR_DELIVERY, ROLE_TRANSPORTER);\n    addRoleForState(STATE_RECIEVED_BY_BUYER, ROLE_BUYER);\n    addRoleForState(STATE_PRODUCT_SHELVED, ROLE_BUYER);\n    addRoleForState(STATE_PRODUCT_SOLD, ROLE_BUYER);\n    addRoleForState(STATE_PRODUCT_DISCARDED, ROLE_BUYER);\n\n    addRoleForState(STATE_FINANCING_REQUESTED, ROLE_SUPPLIER);\n    addRoleForState(STATE_BACKGROUND_CHECK, ROLE_REGULATOR);\n    addRoleForState(STATE_KYB_AVAILABLE, ROLE_REGULATOR);\n    addRoleForState(STATE_KYB_UNAVAILABLE, ROLE_REGULATOR);\n    addRoleForState(STATE_KYB_IN_PROCESS, ROLE_SUPPLIER);\n    addRoleForState(STATE_KYB_AVAILABLE, ROLE_REGULATOR);\n    addRoleForState(STATE_LOAN_APPROVED, ROLE_BANK);\n    addRoleForState(STATE_MONEY_TRANSFERED, ROLE_BANK);\n    addRoleForState(STATE_ORDER_ACCEPTED, ROLE_SUPPLIER);\n    addRoleForState(STATE_ADVANCE_REQUESTED, ROLE_SUPPLIER);\n    addRoleForState(STATE_ADVANCE_APPROVED, ROLE_BUYER);\n    addRoleForState(STATE_ADVANCE_RELEASED, ROLE_BUYER);\n\n    addRoleForState(STATE_DEMAND_GENERATED, ROLE_ADMIN);\n    addRoleForState(STATE_ORDER_PLACED, ROLE_ADMIN);\n    addRoleForState(STATE_ORDER_ACCEPTED, ROLE_ADMIN);\n    addRoleForState(STATE_ORDER_ON_HOLD, ROLE_ADMIN);\n    addRoleForState(STATE_ORDER_DECLINED, ROLE_ADMIN);\n    addRoleForState(STATE_IN_PRODUCTION, ROLE_ADMIN);\n    addRoleForState(STATE_READY_FOR_DISPATCH, ROLE_ADMIN);\n    addRoleForState(STATE_REACHED_TRANSFER_POINT, ROLE_ADMIN);\n    addRoleForState(STATE_RECEIEVED_AT_WAREHOUSE, ROLE_ADMIN);\n    addRoleForState(STATE_STOCKED_AT_WAREHOUSE, ROLE_ADMIN);\n    addRoleForState(STATE_OUT_FOR_DELIVERY, ROLE_ADMIN);\n    addRoleForState(STATE_RECIEVED_BY_BUYER, ROLE_ADMIN);\n    addRoleForState(STATE_PRODUCT_SHELVED, ROLE_ADMIN);\n    addRoleForState(STATE_PRODUCT_SOLD, ROLE_ADMIN);\n    addRoleForState(STATE_PRODUCT_DISCARDED, ROLE_ADMIN);\n\n    addRoleForState(STATE_FINANCING_REQUESTED, ROLE_ADMIN);\n    addRoleForState(STATE_BACKGROUND_CHECK, ROLE_ADMIN);\n    addRoleForState(STATE_KYB_AVAILABLE, ROLE_ADMIN);\n    addRoleForState(STATE_KYB_UNAVAILABLE, ROLE_ADMIN);\n    addRoleForState(STATE_KYB_IN_PROCESS, ROLE_ADMIN);\n    addRoleForState(STATE_KYB_AVAILABLE, ROLE_ADMIN);\n    addRoleForState(STATE_LOAN_APPROVED, ROLE_ADMIN);\n    addRoleForState(STATE_MONEY_TRANSFERED, ROLE_ADMIN);\n    addRoleForState(STATE_ADVANCE_REQUESTED, ROLE_ADMIN);\n    addRoleForState(STATE_BACKGROUND_CHECK, ROLE_ADMIN);\n    addRoleForState(STATE_ADVANCE_APPROVED, ROLE_ADMIN);\n    addRoleForState(STATE_ADVANCE_RELEASED, ROLE_ADMIN);\n\n    setInitialState(STATE_DEMAND_GENERATED);\n  }\n}\n",
  "sourcePath": "/home/coder/project/contracts/supplychainfinance/SupplyChainFinance.sol",
  "compiler": {
    "name": "solc",
    "version": "0.8.3+commit.8d00100c.Emscripten.clang"
  },
  "schemaVersion": "3.4.3",
  "updatedAt": "2021-09-21T08:21:00.046Z",
  "devdoc": {
    "kind": "dev",
    "methods": {
      "DID()": {
        "details": "Returns a unique DID (Decentralized Identifier) for the supplychainfinance.",
        "returns": {
          "_0": "string representing the DID of the supplychainfinance"
        }
      },
      "edit(string,string)": {
        "params": {
          "Order_Number": "It is the order Identification Number",
          "ipfsFieldContainerHash": "ipfs hash of supplychainfinance metadata"
        }
      },
      "getCurrentState()": {
        "details": "Requires the current state to be configured before calling this function"
      },
      "getHistory(uint256)": {
        "details": "Requires the index to be within the bounds of the history array"
      },
      "getRoles()": {
        "returns": {
          "_0": "bytes32[] array of raw bytes representing the roles"
        }
      },
      "transitionState(bytes32)": {
        "details": "Emits a Transition event after a successful transition."
      }
    },
    "title": "State machine for SupplyChainFinance",
    "version": 1
  },
  "userdoc": {
    "kind": "user",
    "methods": {
      "DID()": {
        "notice": "Returns a DID of the supplychainfinance"
      },
      "edit(string,string)": {
        "notice": "Updates expense properties"
      },
      "getAllStates()": {
        "notice": "Returns a list of all the possible states of this object."
      },
      "getCurrentState()": {
        "notice": "Returns the name of the current state of this object."
      },
      "getHistory(uint256)": {
        "notice": "Returns history as tuple for given index."
      },
      "getHistoryLength()": {
        "notice": "Returns the length of the history"
      },
      "getNextStates()": {
        "notice": "Returns a list of all the possible next states of the current state."
      },
      "getRoles()": {
        "notice": "Returns all the roles for this contract"
      },
      "getState(bytes32)": {
        "notice": "Returns state as tuple for give state."
      },
      "transitionState(bytes32)": {
        "notice": "Transitions the state and executes all callbacks."
      }
    },
    "notice": "SupplyChainFinance",
    "version": 1
  }
}