{
  "contractName": "TestTokenFactory",
  "abi": [
    {
      "inputs": [
        {
          "internalType": "address",
          "name": "registry",
          "type": "address"
        },
        {
          "internalType": "address",
          "name": "gateKeeper",
          "type": "address"
        }
      ],
      "stateMutability": "nonpayable",
      "type": "constructor"
    },
    {
      "anonymous": false,
      "inputs": [
        {
          "indexed": false,
          "internalType": "address",
          "name": "_address",
          "type": "address"
        },
        {
          "indexed": false,
          "internalType": "string",
          "name": "_name",
          "type": "string"
        }
      ],
      "name": "TokenCreated",
      "type": "event"
    },
    {
      "inputs": [],
      "name": "CREATE_TOKEN_ROLE",
      "outputs": [
        {
          "internalType": "bytes32",
          "name": "",
          "type": "bytes32"
        }
      ],
      "stateMutability": "view",
      "type": "function"
    },
    {
      "inputs": [],
      "name": "UPDATE_UIFIELDDEFINITIONS_ROLE",
      "outputs": [
        {
          "internalType": "bytes32",
          "name": "",
          "type": "bytes32"
        }
      ],
      "stateMutability": "view",
      "type": "function"
    },
    {
      "inputs": [],
      "name": "gateKeeper",
      "outputs": [
        {
          "internalType": "contract GateKeeper",
          "name": "",
          "type": "address"
        }
      ],
      "stateMutability": "view",
      "type": "function"
    },
    {
      "inputs": [],
      "name": "getUIFieldDefinitionsHash",
      "outputs": [
        {
          "internalType": "string",
          "name": "",
          "type": "string"
        }
      ],
      "stateMutability": "view",
      "type": "function"
    },
    {
      "inputs": [
        {
          "internalType": "string",
          "name": "uiFieldDefinitionsHash",
          "type": "string"
        }
      ],
      "name": "setUIFieldDefinitionsHash",
      "outputs": [],
      "stateMutability": "nonpayable",
      "type": "function"
    },
    {
      "inputs": [
        {
          "internalType": "string",
          "name": "name",
          "type": "string"
        },
        {
          "internalType": "uint8",
          "name": "decimals",
          "type": "uint8"
        }
      ],
      "name": "createToken",
      "outputs": [],
      "stateMutability": "nonpayable",
      "type": "function"
    }
  ],
  "bytecode": "0x608060405234801561001057600080fd5b5060405161298a38038061298a83398101604081905261002f9161007c565b600180546001600160a01b039283166001600160a01b031991821617909155600280549290931691161790556100ae565b80516001600160a01b038116811461007757600080fd5b919050565b6000806040838503121561008e578182fd5b61009783610060565b91506100a560208401610060565b90509250929050565b6128cd806100bd6000396000f3fe60806040523480156200001157600080fd5b50600436106200006a5760003560e01c80631f0f992a146200006f578063459b9af914620000aa57806345d61ded14620000c3578063781c95da14620000f057806382f686831462000109578063b4d8c2a41462000120575b600080fd5b620000977f5550444154455f55494649454c44444546494e4954494f4e535f524f4c45000081565b6040519081526020015b60405180910390f35b620000b46200013c565b604051620000a19190620007fb565b600154620000d7906001600160a01b031681565b6040516001600160a01b039091168152602001620000a1565b62000107620001013660046200072d565b620001d6565b005b620001076200011a366004620006ee565b62000458565b62000097704352454154455f544f4b454e5f524f4c4560781b81565b6060600080546200014d906200091e565b80601f01602080910402602001604051908101604052809291908181526020018280546200017b906200091e565b8015620001cc5780601f10620001a057610100808354040283529160200191620001cc565b820191906000526020600020905b815481529060010190602001808311620001ae57829003601f168201915b5050505050905090565b704352454154455f544f4b454e5f524f4c4560781b620001f73382620004dd565b620002575760405162461bcd60e51b815260206004820152602560248201527f53656e64657220646f6573206e6f7420686176652074686520636f727265637460448201526420726f6c6560d81b60648201526084015b60405180910390fd5b600154604051600091859185916001600160a01b03169084906200027b9062000589565b6200028a94939291906200083c565b604051809103906000f080158015620002a7573d6000803e3d6000fd5b50600254604051632c2c8b0b60e21b81529192506001600160a01b03169063b0b22c2c90620002dd908790859060040162000810565b600060405180830381600087803b158015620002f857600080fd5b505af11580156200030d573d6000803e3d6000fd5b505050507f7c56d5eff73d004b4d80f35d05a7e9a2429df1bb9544be59c859d049e2f449fb818560405162000344929190620007d5565b60405180910390a16001546040516317c0708f60e31b815233600482018190526001600160a01b038481166024840152684d494e545f524f4c4560b81b604484015260648301919091529091169063be03847890608401600060405180830381600087803b158015620003b657600080fd5b505af1158015620003cb573d6000803e3d6000fd5b50506001546040516317c0708f60e31b815233600482018190526001600160a01b038681166024840152684255524e5f524f4c4560b81b60448401526064830191909152909116925063be0384789150608401600060405180830381600087803b1580156200043957600080fd5b505af11580156200044e573d6000803e3d6000fd5b5050505050505050565b7f5550444154455f55494649454c44444546494e4954494f4e535f524f4c4500006040518060600160405280602b81526020016200286d602b91396200049f3383620004dd565b8190620004c15760405162461bcd60e51b81526004016200024e9190620007fb565b508251620004d790600090602086019062000597565b50505050565b6001546000906001600160a01b03161580620005825750600154604051630dace25b60e31b81526001600160a01b0385811660048301523060248301526044820185905290911690636d6712d89060640160206040518083038186803b1580156200054757600080fd5b505afa1580156200055c573d6000803e3d6000fd5b505050506040513d601f19601f82011682018060405250810190620005829190620006cc565b9392505050565b611efb806200097283390190565b828054620005a5906200091e565b90600052602060002090601f016020900481019282620005c9576000855562000614565b82601f10620005e457805160ff191683800117855562000614565b8280016001018555821562000614579182015b8281111562000614578251825591602001919060010190620005f7565b506200062292915062000626565b5090565b5b8082111562000622576000815560010162000627565b600082601f8301126200064e578081fd5b813567ffffffffffffffff808211156200066c576200066c6200095b565b604051601f8301601f19908116603f011681019082821181831017156200069757620006976200095b565b81604052838152866020858801011115620006b0578485fd5b8360208701602083013792830160200193909352509392505050565b600060208284031215620006de578081fd5b8151801515811462000582578182fd5b60006020828403121562000700578081fd5b813567ffffffffffffffff81111562000717578182fd5b62000725848285016200063d565b949350505050565b6000806040838503121562000740578081fd5b823567ffffffffffffffff81111562000757578182fd5b62000765858286016200063d565b925050602083013560ff811681146200077c578182fd5b809150509250929050565b60008151808452815b81811015620007ae5760208185018101518683018201520162000790565b81811115620007c05782602083870101525b50601f01601f19169290920160200192915050565b6001600160a01b0383168152604060208201819052600090620007259083018462000787565b60006020825262000582602083018462000787565b60006040825262000825604083018562000787565b905060018060a01b03831660208301529392505050565b60006080825262000851608083018762000787565b60ff86166020848101919091526001600160a01b0386166040850152838203606085015284548390600181811c90828116806200088f57607f831692505b858310811415620008ae57634e487b7160e01b88526022600452602488fd5b828752602087019650808015620008ce5760018114620008e0576200090c565b60ff198516885286880195506200090c565b60008b815260209020895b85811015620009065781548a820152908401908801620008eb565b89019650505b50939c9b505050505050505050505050565b600181811c908216806200093357607f821691505b602082108114156200095557634e487b7160e01b600052602260045260246000fd5b50919050565b634e487b7160e01b600052604160045260246000fdfe60806040523480156200001157600080fd5b5060405162001efb38038062001efb833981016040819052620000349162000206565b600080546001600160a01b0319166001600160a01b0384161790558351849084908490849084908490849062000072906002906020860190620000ad565b50506003805460ff191660ff929092169190911790555080516200009e906008906020840190620000ad565b505050505050505050620002f9565b828054620000bb90620002a6565b90600052602060002090601f016020900481019282620000df57600085556200012a565b82601f10620000fa57805160ff19168380011785556200012a565b828001600101855582156200012a579182015b828111156200012a5782518255916020019190600101906200010d565b50620001389291506200013c565b5090565b5b808211156200013857600081556001016200013d565b600082601f83011262000164578081fd5b81516001600160401b0380821115620001815762000181620002e3565b604051601f8301601f19908116603f01168101908282118183101715620001ac57620001ac620002e3565b81604052838152602092508683858801011115620001c8578485fd5b8491505b83821015620001eb5785820183015181830184015290820190620001cc565b83821115620001fc57848385830101525b9695505050505050565b600080600080608085870312156200021c578384fd5b84516001600160401b038082111562000233578586fd5b620002418883890162000153565b95506020870151915060ff8216821462000259578485fd5b60408701519194506001600160a01b038216821462000276578384fd5b6060870151919350808211156200028b578283fd5b506200029a8782880162000153565b91505092959194509250565b600181811c90821680620002bb57607f821691505b60208210811415620002dd57634e487b7160e01b600052602260045260246000fd5b50919050565b634e487b7160e01b600052604160045260246000fd5b611bf280620003096000396000f3fe608060405234801561001057600080fd5b50600436106101cf5760003560e01c806370a0823111610104578063d73dd623116100a2578063e9a9c85011610071578063e9a9c85014610442578063ee532f3114610455578063ef120a6e14610468578063fcbb590714610470576101cf565b8063d73dd623146103db578063dcb82f81146103ee578063dd62ed3e14610401578063e1ba7d011461043a576101cf565b8063a9059cbb116100de578063a9059cbb1461039a578063b930908f146103ad578063cae9ca51146103c0578063d28d8852146103d3576101cf565b806370a0823114610356578063910fd10a1461037f5780639dc29fac14610387576101cf565b806340c10f1911610171578063498770381161014b57806349877038146102ee5780634de6740e1461031957806356c57bd11461032e5780636618846314610343576101cf565b806340c10f191461029d57806342822756146102b057806345d61ded146102c3576101cf565b806323b872dd116101ad57806323b872dd146102265780632535f762146102395780632d883a731461024c57806332424aa31461027e576101cf565b8063095ea7b3146101d457806318160ddd146101fc5780631bd42f3e14610213575b600080fd5b6101e76101e2366004611880565b610497565b60405190151581526020015b60405180910390f35b61020560075481565b6040519081526020016101f3565b6101e7610221366004611880565b610503565b6101e76102343660046117a2565b6106b6565b6101e76102473660046118ab565b610915565b61025f61025a36600461199d565b6109a2565b604080516001600160a01b0390931683526020830191909152016101f3565b60035461028b9060ff1681565b60405160ff90911681526020016101f3565b6101e76102ab366004611880565b610a31565b6102056102be36600461191c565b610bdc565b6000546102d6906001600160a01b031681565b6040516001600160a01b0390911681526020016101f3565b61025f6102fc36600461174e565b6001600160a01b0381166000908152600460205260409020549091565b610321610be8565b6040516101f39190611a55565b61034161033c366004611957565b610c76565b005b6101e7610351366004611880565b610ce8565b61020561036436600461174e565b6001600160a01b031660009081526004602052604090205490565b610321610dd0565b6101e7610395366004611880565b610ddd565b6101e76103a8366004611880565b610fbf565b610205684255524e5f524f4c4560b81b81565b6101e76103ce3660046118ab565b611136565b6103216111fa565b6101e76103e9366004611880565b611207565b6101e76103fc366004611880565b611298565b61020561040f36600461176a565b6001600160a01b03918216600090815260066020908152604080832093909416825291909152205490565b600554610205565b610205684d494e545f524f4c4560b81b81565b6101e76104633660046117e2565b611434565b6103216114c2565b6102057f5550444154455f49504653434f4e5441494e4552484153485f524f4c4500000081565b3360008181526006602090815260408083206001600160a01b038716808552925280832085905551919290917f8c5be1e5ebec7d5bd14f71427d1e84f3dd0314c0f7b2291e5b200ac8c7c3b925906104f29086815260200190565b60405180910390a350600192915050565b6000684255524e5f524f4c4560b81b6040518060400160405280601a81526020017f53656e646572206e6565647320746865204255524e5f524f4c450000000000008152506105523383611554565b819061057a5760405162461bcd60e51b81526004016105719190611a55565b60405180910390fd5b5060008590506000816001600160a01b031663e1ba7d016040518163ffffffff1660e01b815260040160206040518083038186803b1580156105bb57600080fd5b505afa1580156105cf573d6000803e3d6000fd5b505050506040513d601f19601f820116820180604052508101906105f391906119b5565b905060005b818110156106a857604051632d883a7360e01b81526004810182905260009081906001600160a01b03861690632d883a7390602401604080518083038186803b15801561064457600080fd5b505afa158015610658573d6000803e3d6000fd5b505050506040513d601f19601f8201168201806040525081019061067c919061184c565b9092509050801561069357610691828a610ddd565b505b505080806106a090611b13565b9150506105f8565b506001979650505050505050565b60006001600160a01b0383166107065760405162461bcd60e51b81526020600482015260156024820152741d1bc81cda1bdd5b19081b9bdd081899481b9d5b1b605a1b6044820152606401610571565b6001600160a01b03841660009081526004602052604090205482111561073e5760405162461bcd60e51b815260040161057190611a68565b6001600160a01b03841660009081526006602090815260408083203384529091529020548211156107bd5760405162461bcd60e51b815260206004820152602360248201527f76616c75652073686f756c64206265206c657373207468616e20616c6c6f77616044820152626e636560e81b6064820152608401610571565b6001600160a01b03831660009081526004602052604090206001015461083c576001600160a01b0383166000818152600460205260408120426001918201556005805491820181559091527f036b6384b5eca791c62761152d0c79bb0604c104a5fb6f4eb0703f3154bb3db00180546001600160a01b03191690911790555b6001600160a01b03841660009081526004602052604081208054849290610864908490611ac1565b90915550506001600160a01b03831660009081526004602052604081208054849290610891908490611aa9565b90915550506001600160a01b0384166000908152600660209081526040808320338452909152812080548492906108c9908490611ac1565b92505081905550826001600160a01b0316846001600160a01b0316600080516020611b9d8339815191528460405161090391815260200190565b60405180910390a35060019392505050565b60006109218484610fbf565b61095f5760405162461bcd60e51b815260206004820152600f60248201526e1d1c985b9cd9995c8819985a5b1959608a1b6044820152606401610571565b836001600160a01b0316336001600160a01b03167f69cf42fddae119b7568ebaa1f70aac657fd6abd62d00c2ab4fcf81ff87935ab3846040516109039190611a55565b600080600583815481106109c657634e487b7160e01b600052603260045260246000fd5b6000918252602082200154600580546001600160a01b0390921694506004929186908110610a0457634e487b7160e01b600052603260045260246000fd5b60009182526020808320909101546001600160a01b03168352820192909252604001902054919391925050565b6000684d494e545f524f4c4560b81b6040518060400160405280601b81526020017f53656e646572206e6565647320746865204d494e545f5f524f4c450000000000815250610a803383611554565b8190610a9f5760405162461bcd60e51b81526004016105719190611a55565b506001600160a01b038516600090815260046020526040902060010154610b1f576001600160a01b0385166000818152600460205260408120426001918201556005805491820181559091527f036b6384b5eca791c62761152d0c79bb0604c104a5fb6f4eb0703f3154bb3db00180546001600160a01b03191690911790555b8360076000828254610b319190611aa9565b90915550506001600160a01b03851660009081526004602052604081208054869290610b5e908490611aa9565b90915550506040518481526001600160a01b038616907f0f6798a560793a54c3bcfe86a93cde1e73087d944c0ea20544137d41213968859060200160405180910390a26040518481526001600160a01b03861690600090600080516020611b9d833981519152906020015b60405180910390a3506001949350505050565b60035460ff165b919050565b60088054610bf590611ad8565b80601f0160208091040260200160405190810160405280929190818152602001828054610c2190611ad8565b8015610c6e5780601f10610c4357610100808354040283529160200191610c6e565b820191906000526020600020905b815481529060010190602001808311610c5157829003601f168201915b505050505081565b7f5550444154455f49504653434f4e5441494e4552484153485f524f4c450000006040518060600160405280602a8152602001611b73602a9139610cba3383611554565b8190610cd95760405162461bcd60e51b81526004016105719190611a55565b50610ce3836115f9565b505050565b3360009081526006602090815260408083206001600160a01b038616845290915281205480831115610d3d573360009081526006602090815260408083206001600160a01b0388168452909152812055610d6c565b610d478382611ac1565b3360009081526006602090815260408083206001600160a01b03891684529091529020555b3360008181526006602090815260408083206001600160a01b038916808552908352928190205490519081529192917f8c5be1e5ebec7d5bd14f71427d1e84f3dd0314c0f7b2291e5b200ac8c7c3b925910160405180910390a35060019392505050565b60018054610bf590611ad8565b6000684255524e5f524f4c4560b81b6040518060400160405280601a81526020017f53656e646572206e6565647320746865204255524e5f524f4c45000000000000815250610e2c3383611554565b8190610e4b5760405162461bcd60e51b81526004016105719190611a55565b5060008411610e9c5760405162461bcd60e51b815260206004820152601e60248201527f616d6f756e742073686f756c6420626520626967676572207468616e203000006044820152606401610571565b6001600160a01b038516600090815260046020526040902054841115610f0f5760405162461bcd60e51b815260206004820152602260248201527f616d6f756e742073686f756c64206265206c657373207468616e2062616c616e604482015261636560f01b6064820152608401610571565b6001600160a01b03851660009081526004602052604081208054869290610f37908490611ac1565b925050819055508360076000828254610f509190611ac1565b90915550506040518481526001600160a01b038616907fcc16f5dbb4873280815c1ee09dbd06736cffcc184412cf7a71a0fdb75d397ca59060200160405180910390a26040518481526000906001600160a01b03871690600080516020611b9d83398151915290602001610bc9565b60006001600160a01b03831661100c5760405162461bcd60e51b81526020600482015260126024820152710746f2073686f756c64206e6f7420626520360741b6044820152606401610571565b3360009081526004602052604090205482111561103b5760405162461bcd60e51b815260040161057190611a68565b6001600160a01b0383166000908152600460205260409020600101546110ba576001600160a01b0383166000818152600460205260408120426001918201556005805491820181559091527f036b6384b5eca791c62761152d0c79bb0604c104a5fb6f4eb0703f3154bb3db00180546001600160a01b03191690911790555b33600090815260046020526040812080548492906110d9908490611ac1565b90915550506001600160a01b03831660009081526004602052604081208054849290611106908490611aa9565b90915550506040518281526001600160a01b038416903390600080516020611b9d833981519152906020016104f2565b60006111428484610497565b61119a5760405162461bcd60e51b8152602060048201526024808201527f436f756c64206e6f7420617070726f766520616d6f756e7420666f7220737065604482015263373232b960e11b6064820152608401610571565b604051638f4ffcb160e01b81526001600160a01b03851690638f4ffcb1906111cc903390879030908890600401611a18565b600060405180830381600087803b1580156111e657600080fd5b505af11580156106a8573d6000803e3d6000fd5b60028054610bf590611ad8565b3360009081526006602090815260408083206001600160a01b038616845290915281208054839190839061123c908490611aa9565b90915550503360008181526006602090815260408083206001600160a01b038816808552908352928190205490519081529192917f8c5be1e5ebec7d5bd14f71427d1e84f3dd0314c0f7b2291e5b200ac8c7c3b92591016104f2565b6000684d494e545f524f4c4560b81b6040518060400160405280601b81526020017f53656e646572206e6565647320746865204d494e545f5f524f4c4500000000008152506112e73383611554565b81906113065760405162461bcd60e51b81526004016105719190611a55565b5060008590506000816001600160a01b031663e1ba7d016040518163ffffffff1660e01b815260040160206040518083038186803b15801561134757600080fd5b505afa15801561135b573d6000803e3d6000fd5b505050506040513d601f19601f8201168201806040525081019061137f91906119b5565b905060005b818110156106a857604051632d883a7360e01b81526004810182905260009081906001600160a01b03861690632d883a7390602401604080518083038186803b1580156113d057600080fd5b505afa1580156113e4573d6000803e3d6000fd5b505050506040513d601f19601f82011682018060405250810190611408919061184c565b9092509050801561141f5761141d828a610a31565b505b5050808061142c90611b13565b915050611384565b60006114418585856106b6565b61147f5760405162461bcd60e51b815260206004820152600f60248201526e1d1c985b9cd9995c8819985a5b1959608a1b6044820152606401610571565b836001600160a01b0316856001600160a01b03167f69cf42fddae119b7568ebaa1f70aac657fd6abd62d00c2ab4fcf81ff87935ab384604051610bc99190611a55565b6060600180546114d190611ad8565b80601f01602080910402602001604051908101604052809291908181526020018280546114fd90611ad8565b801561154a5780601f1061151f5761010080835404028352916020019161154a565b820191906000526020600020905b81548152906001019060200180831161152d57829003601f168201915b5050505050905090565b600080546001600160a01b031615806115f25750600054604051630dace25b60e31b81526001600160a01b0385811660048301523060248301526044820185905290911690636d6712d89060640160206040518083038186803b1580156115ba57600080fd5b505afa1580156115ce573d6000803e3d6000fd5b505050506040513d601f19601f820116820180604052508101906115f29190611902565b9392505050565b805161160c906001906020840190611610565b5050565b82805461161c90611ad8565b90600052602060002090601f01602090048101928261163e5760008555611684565b82601f1061165757805160ff1916838001178555611684565b82800160010185558215611684579182015b82811115611684578251825591602001919060010190611669565b50611690929150611694565b5090565b5b808211156116905760008155600101611695565b600067ffffffffffffffff808411156116c4576116c4611b44565b604051601f8501601f19908116603f011681019082821181831017156116ec576116ec611b44565b8160405280935085815286868601111561170557600080fd5b858560208301376000602087830101525050509392505050565b80518015158114610be357600080fd5b600082601f83011261173f578081fd5b6115f2838335602085016116a9565b60006020828403121561175f578081fd5b81356115f281611b5a565b6000806040838503121561177c578081fd5b823561178781611b5a565b9150602083013561179781611b5a565b809150509250929050565b6000806000606084860312156117b6578081fd5b83356117c181611b5a565b925060208401356117d181611b5a565b929592945050506040919091013590565b600080600080608085870312156117f7578081fd5b843561180281611b5a565b9350602085013561181281611b5a565b925060408501359150606085013567ffffffffffffffff811115611834578182fd5b6118408782880161172f565b91505092959194509250565b6000806040838503121561185e578182fd5b825161186981611b5a565b91506118776020840161171f565b90509250929050565b60008060408385031215611892578182fd5b823561189d81611b5a565b946020939093013593505050565b6000806000606084860312156118bf578283fd5b83356118ca81611b5a565b925060208401359150604084013567ffffffffffffffff8111156118ec578182fd5b6118f88682870161172f565b9150509250925092565b600060208284031215611913578081fd5b6115f28261171f565b60006020828403121561192d578081fd5b813567ffffffffffffffff811115611943578182fd5b61194f8482850161172f565b949350505050565b600060208284031215611968578081fd5b813567ffffffffffffffff81111561197e578182fd5b8201601f8101841361198e578182fd5b61194f848235602084016116a9565b6000602082840312156119ae578081fd5b5035919050565b6000602082840312156119c6578081fd5b5051919050565b60008151808452815b818110156119f2576020818501810151868301820152016119d6565b81811115611a035782602083870101525b50601f01601f19169290920160200192915050565b6001600160a01b0385811682526020820185905283166040820152608060608201819052600090611a4b908301846119cd565b9695505050505050565b6000602082526115f260208301846119cd565b60208082526021908201527f76616c75652073686f756c64206265206c657373207468616e2062616c616e636040820152606560f81b606082015260800190565b60008219821115611abc57611abc611b2e565b500190565b600082821015611ad357611ad3611b2e565b500390565b600181811c90821680611aec57607f821691505b60208210811415611b0d57634e487b7160e01b600052602260045260246000fd5b50919050565b6000600019821415611b2757611b27611b2e565b5060010190565b634e487b7160e01b600052601160045260246000fd5b634e487b7160e01b600052604160045260246000fd5b6001600160a01b0381168114611b6f57600080fd5b5056fe53656e646572206e65656473205550444154455f49504653434f4e5441494e4552484153485f524f4c45ddf252ad1be2c89b69c2b068fc378daa952ba7f163c4a11628f55a4df523b3efa26469706673582212204809a8f3ba2692d3af81ed16aecca2c8f5463e317c6f09bb53decbf920d1304364736f6c6343000803003353656e646572206e65656473205550444154455f55494649454c44444546494e4954494f4e535f524f4c45a264697066735822122011f9d62e2872630beb977b32bcbe95696fd8d2387dc87342fbe227535f2815d464736f6c63430008030033",
  "immutableReferences": {},
  "source": "// SPDX-License-Identifier: UNLICENSED\npragma solidity ^0.8.0;\n\nimport '../../../tokens/ERC20/ERC20TokenFactory.sol';\nimport './TestToken.sol';\nimport './TestTokenRegistry.sol';\n\ncontract TestTokenFactory is ERC20TokenFactory {\n  constructor(address registry, address gateKeeper) ERC20TokenFactory(registry, gateKeeper) {}\n\n  function createToken(string memory name, uint8 decimals) public auth(CREATE_TOKEN_ROLE) {\n    TestToken newToken = new TestToken(name, decimals, address(gateKeeper), _uiFieldDefinitionsHash);\n    _tokenRegistry.addToken(name, address(newToken));\n    emit TokenCreated(address(newToken), name);\n    gateKeeper.createPermission(msg.sender, address(newToken), bytes32('MINT_ROLE'), msg.sender);\n    gateKeeper.createPermission(msg.sender, address(newToken), bytes32('BURN_ROLE'), msg.sender);\n  }\n}\n",
  "sourcePath": "/home/coder/project/contracts/_library/_test/tokens/ERC20/TestTokenFactory.sol",
  "compiler": {
    "name": "solc",
    "version": "0.8.3+commit.8d00100c.Emscripten.clang"
  },
  "schemaVersion": "3.4.3",
  "updatedAt": "2021-09-21T08:20:57.867Z",
  "devdoc": {
    "kind": "dev",
    "methods": {},
    "version": 1
  },
  "userdoc": {
    "kind": "user",
    "methods": {},
    "version": 1
  }
}