{
  "contractName": "TestApproveAndCallable",
  "abi": [
    {
      "anonymous": false,
      "inputs": [
        {
          "indexed": false,
          "internalType": "address",
          "name": "from",
          "type": "address"
        },
        {
          "indexed": false,
          "internalType": "uint256",
          "name": "amount",
          "type": "uint256"
        },
        {
          "indexed": false,
          "internalType": "address",
          "name": "token",
          "type": "address"
        },
        {
          "indexed": false,
          "internalType": "bytes",
          "name": "_data",
          "type": "bytes"
        }
      ],
      "name": "ReceivedApproval",
      "type": "event"
    },
    {
      "inputs": [
        {
          "internalType": "address",
          "name": "from",
          "type": "address"
        },
        {
          "internalType": "uint256",
          "name": "amount",
          "type": "uint256"
        },
        {
          "internalType": "address",
          "name": "token",
          "type": "address"
        },
        {
          "internalType": "bytes",
          "name": "data",
          "type": "bytes"
        }
      ],
      "name": "receiveApproval",
      "outputs": [],
      "stateMutability": "nonpayable",
      "type": "function"
    }
  ],
  "bytecode": "0x608060405234801561001057600080fd5b50610466806100206000396000f3fe608060405234801561001057600080fd5b506004361061002b5760003560e01c80638f4ffcb114610030575b600080fd5b61004361003e36600461028d565b610045565b005b7f87e06b1b8a771d31d61a99c983030a65053deb5ade31175392ab61d50bdc3cbb8484848460405161007a94939291906103a1565b60405180910390a16001600160a01b0384166100a657634e487b7160e01b600052600160045260246000fd5b6001600160a01b0382166100ca57634e487b7160e01b600052600160045260246000fd5b600083116100e857634e487b7160e01b600052600160045260246000fd5b604051636eb1769f60e11b81526001600160a01b03858116600483015230602483015284919084169063dd62ed3e9060440160206040518083038186803b15801561013257600080fd5b505afa158015610146573d6000803e3d6000fd5b505050506040513d601f19601f8201168201806040525081019061016a9190610389565b10156101e25760405162461bcd60e51b815260206004820152603b60248201527f54686520616c6c6f77616e6365206973206c657373207468616e20746865206160448201527f6d6f756e742061736b696e6720746f20626520617070726f7665640000000000606482015260840160405180910390fd5b6040516323b872dd60e01b81526001600160a01b038581166004830152306024830152604482018590528316906323b872dd90606401602060405180830381600087803b15801561023257600080fd5b505af1158015610246573d6000803e3d6000fd5b505050506040513d601f19601f8201168201806040525081019061026a9190610362565b5050505050565b80356001600160a01b038116811461028857600080fd5b919050565b600080600080608085870312156102a2578384fd5b6102ab85610271565b9350602085013592506102c060408601610271565b9150606085013567ffffffffffffffff808211156102dc578283fd5b818701915087601f8301126102ef578283fd5b8135818111156103015761030161041a565b604051601f8201601f19908116603f011681019083821181831017156103295761032961041a565b816040528281528a6020848701011115610341578586fd5b82602086016020830137918201602001949094529598949750929550505050565b600060208284031215610373578081fd5b81518015158114610382578182fd5b9392505050565b60006020828403121561039a578081fd5b5051919050565b6001600160a01b038581168252602080830186905290841660408301526080606083018190528351908301819052600091825b828110156103f05785810182015185820160a0015281016103d4565b82811115610401578360a084870101525b5050601f01601f19169190910160a00195945050505050565b634e487b7160e01b600052604160045260246000fdfea2646970667358221220463a2572b7d31412b0be816d59b3ee7558fec9bb65b67c86c9a0788ce52f4d8864736f6c63430008030033",
  "immutableReferences": {},
  "source": "// SPDX-License-Identifier: UNLICENSED\npragma solidity ^0.8.0;\n\nimport '../../../tokens/IApproveAndCallable.sol';\nimport './TestToken.sol';\n\ncontract TestApproveAndCallable is IApproveAndCallable {\n  function receiveApproval(\n    address from,\n    uint256 amount,\n    address token,\n    bytes memory data\n  ) public override {\n    emit ReceivedApproval(from, amount, token, data);\n\n    assert(from != address(0x0));\n    assert(token != address(0x0));\n    assert(amount > 0);\n\n    require(\n      TestToken(token).allowance(from, address(this)) >= amount,\n      'The allowance is less than the amount asking to be approved'\n    );\n    TestToken(token).transferFrom(from, address(this), amount);\n  }\n}\n",
  "sourcePath": "/home/coder/project/contracts/_library/_test/tokens/ERC20/TestApproveAndCallable.sol",
  "compiler": {
    "name": "solc",
    "version": "0.8.3+commit.8d00100c.Emscripten.clang"
  },
  "schemaVersion": "3.4.3",
  "updatedAt": "2021-09-21T08:20:57.855Z",
  "devdoc": {
    "kind": "dev",
    "methods": {},
    "version": 1
  },
  "userdoc": {
    "kind": "user",
    "methods": {},
    "version": 1
  }
}