{
  "contractName": "TokenCuratedRegistry",
  "abi": [
    {
      "inputs": [
        {
          "internalType": "address",
          "name": "_gateKeeper",
          "type": "address"
        },
        {
          "internalType": "address",
          "name": "_token",
          "type": "address"
        },
        {
          "internalType": "address",
          "name": "_listingFactory",
          "type": "address"
        },
        {
          "internalType": "address",
          "name": "_challengeRegistry",
          "type": "address"
        },
        {
          "internalType": "uint256",
          "name": "_minEnlistAmount",
          "type": "uint256"
        },
        {
          "internalType": "uint256",
          "name": "_minChallengeAmount",
          "type": "uint256"
        },
        {
          "internalType": "uint256",
          "name": "_curatorPercentage",
          "type": "uint256"
        }
      ],
      "stateMutability": "nonpayable",
      "type": "constructor"
    },
    {
      "anonymous": false,
      "inputs": [
        {
          "indexed": false,
          "internalType": "address",
          "name": "listing",
          "type": "address"
        }
      ],
      "name": "ChallengeApproved",
      "type": "event"
    },
    {
      "anonymous": false,
      "inputs": [
        {
          "indexed": false,
          "internalType": "address",
          "name": "listing",
          "type": "address"
        }
      ],
      "name": "ChallengeDenied",
      "type": "event"
    },
    {
      "anonymous": false,
      "inputs": [
        {
          "indexed": false,
          "internalType": "address",
          "name": "listing",
          "type": "address"
        },
        {
          "indexed": false,
          "internalType": "uint256",
          "name": "stake",
          "type": "uint256"
        },
        {
          "indexed": false,
          "internalType": "address",
          "name": "challenge",
          "type": "address"
        }
      ],
      "name": "Challenged",
      "type": "event"
    },
    {
      "anonymous": false,
      "inputs": [
        {
          "indexed": false,
          "internalType": "uint256",
          "name": "value",
          "type": "uint256"
        }
      ],
      "name": "CuratorPercentageChanged",
      "type": "event"
    },
    {
      "anonymous": false,
      "inputs": [
        {
          "indexed": false,
          "internalType": "address",
          "name": "listing",
          "type": "address"
        },
        {
          "indexed": false,
          "internalType": "uint256",
          "name": "decreasedBy",
          "type": "uint256"
        },
        {
          "indexed": false,
          "internalType": "uint256",
          "name": "newStake",
          "type": "uint256"
        }
      ],
      "name": "Decreased",
      "type": "event"
    },
    {
      "anonymous": false,
      "inputs": [
        {
          "indexed": false,
          "internalType": "address",
          "name": "listing",
          "type": "address"
        },
        {
          "indexed": false,
          "internalType": "uint256",
          "name": "stake",
          "type": "uint256"
        },
        {
          "indexed": false,
          "internalType": "uint256",
          "name": "price",
          "type": "uint256"
        }
      ],
      "name": "Enlisted",
      "type": "event"
    },
    {
      "anonymous": false,
      "inputs": [
        {
          "indexed": false,
          "internalType": "address",
          "name": "listing",
          "type": "address"
        },
        {
          "indexed": false,
          "internalType": "uint256",
          "name": "increasedBy",
          "type": "uint256"
        },
        {
          "indexed": false,
          "internalType": "uint256",
          "name": "newStake",
          "type": "uint256"
        }
      ],
      "name": "Increased",
      "type": "event"
    },
    {
      "anonymous": false,
      "inputs": [
        {
          "indexed": false,
          "internalType": "uint256",
          "name": "value",
          "type": "uint256"
        }
      ],
      "name": "MinChallengeAmountChanged",
      "type": "event"
    },
    {
      "anonymous": false,
      "inputs": [
        {
          "indexed": false,
          "internalType": "uint256",
          "name": "value",
          "type": "uint256"
        }
      ],
      "name": "MinEnlistAmountChanged",
      "type": "event"
    },
    {
      "anonymous": false,
      "inputs": [
        {
          "indexed": false,
          "internalType": "address",
          "name": "listing",
          "type": "address"
        }
      ],
      "name": "Unlisted",
      "type": "event"
    },
    {
      "anonymous": false,
      "inputs": [
        {
          "indexed": false,
          "internalType": "address",
          "name": "by",
          "type": "address"
        },
        {
          "indexed": false,
          "internalType": "uint256",
          "name": "balance",
          "type": "uint256"
        }
      ],
      "name": "Withdrawn",
      "type": "event"
    },
    {
      "inputs": [],
      "name": "CHANGE_SETTINGS_ROLE",
      "outputs": [
        {
          "internalType": "bytes32",
          "name": "",
          "type": "bytes32"
        }
      ],
      "stateMutability": "view",
      "type": "function"
    },
    {
      "inputs": [],
      "name": "CURATE_CHALLENGE_ROLE",
      "outputs": [
        {
          "internalType": "bytes32",
          "name": "",
          "type": "bytes32"
        }
      ],
      "stateMutability": "view",
      "type": "function"
    },
    {
      "inputs": [],
      "name": "WITHDRAW_FUNDS_ROLE",
      "outputs": [
        {
          "internalType": "bytes32",
          "name": "",
          "type": "bytes32"
        }
      ],
      "stateMutability": "view",
      "type": "function"
    },
    {
      "inputs": [],
      "name": "gateKeeper",
      "outputs": [
        {
          "internalType": "contract GateKeeper",
          "name": "",
          "type": "address"
        }
      ],
      "stateMutability": "view",
      "type": "function"
    },
    {
      "inputs": [],
      "name": "listingFactory",
      "outputs": [
        {
          "internalType": "contract IListingFactory",
          "name": "",
          "type": "address"
        }
      ],
      "stateMutability": "view",
      "type": "function"
    },
    {
      "inputs": [
        {
          "internalType": "address",
          "name": "",
          "type": "address"
        }
      ],
      "name": "listings",
      "outputs": [
        {
          "internalType": "contract IListing",
          "name": "",
          "type": "address"
        }
      ],
      "stateMutability": "view",
      "type": "function"
    },
    {
      "inputs": [],
      "name": "token",
      "outputs": [
        {
          "internalType": "contract IERC20Token",
          "name": "",
          "type": "address"
        }
      ],
      "stateMutability": "view",
      "type": "function"
    },
    {
      "inputs": [
        {
          "internalType": "uint256",
          "name": "_stakeAmount",
          "type": "uint256"
        },
        {
          "internalType": "uint256",
          "name": "_price",
          "type": "uint256"
        },
        {
          "internalType": "string",
          "name": "_metadata",
          "type": "string"
        }
      ],
      "name": "enlist",
      "outputs": [],
      "stateMutability": "nonpayable",
      "type": "function"
    },
    {
      "inputs": [
        {
          "internalType": "address",
          "name": "_listing",
          "type": "address"
        }
      ],
      "name": "addListing",
      "outputs": [],
      "stateMutability": "nonpayable",
      "type": "function"
    },
    {
      "inputs": [
        {
          "internalType": "address",
          "name": "_listing",
          "type": "address"
        }
      ],
      "name": "unlist",
      "outputs": [],
      "stateMutability": "nonpayable",
      "type": "function"
    },
    {
      "inputs": [
        {
          "internalType": "address",
          "name": "_listing",
          "type": "address"
        },
        {
          "internalType": "uint256",
          "name": "_stakeAmount",
          "type": "uint256"
        }
      ],
      "name": "increase",
      "outputs": [],
      "stateMutability": "nonpayable",
      "type": "function"
    },
    {
      "inputs": [
        {
          "internalType": "address",
          "name": "_listing",
          "type": "address"
        },
        {
          "internalType": "uint256",
          "name": "_stakeAmount",
          "type": "uint256"
        }
      ],
      "name": "decrease",
      "outputs": [],
      "stateMutability": "nonpayable",
      "type": "function"
    },
    {
      "inputs": [
        {
          "internalType": "address",
          "name": "_listing",
          "type": "address"
        },
        {
          "internalType": "uint256",
          "name": "_stakeAmount",
          "type": "uint256"
        },
        {
          "internalType": "string",
          "name": "_metadata",
          "type": "string"
        }
      ],
      "name": "challenge",
      "outputs": [],
      "stateMutability": "nonpayable",
      "type": "function"
    },
    {
      "inputs": [
        {
          "internalType": "address",
          "name": "_listing",
          "type": "address"
        }
      ],
      "name": "approveChallenge",
      "outputs": [],
      "stateMutability": "nonpayable",
      "type": "function"
    },
    {
      "inputs": [
        {
          "internalType": "address",
          "name": "_listing",
          "type": "address"
        }
      ],
      "name": "denyChallenge",
      "outputs": [],
      "stateMutability": "nonpayable",
      "type": "function"
    },
    {
      "inputs": [],
      "name": "withdraw",
      "outputs": [],
      "stateMutability": "nonpayable",
      "type": "function"
    },
    {
      "inputs": [
        {
          "internalType": "uint256",
          "name": "_minEnlistAmount",
          "type": "uint256"
        }
      ],
      "name": "setMinEnlistAmount",
      "outputs": [],
      "stateMutability": "nonpayable",
      "type": "function"
    },
    {
      "inputs": [
        {
          "internalType": "uint256",
          "name": "_minChallengeAmount",
          "type": "uint256"
        }
      ],
      "name": "setMinChallengeAmount",
      "outputs": [],
      "stateMutability": "nonpayable",
      "type": "function"
    },
    {
      "inputs": [
        {
          "internalType": "uint256",
          "name": "_curatorPercentage",
          "type": "uint256"
        }
      ],
      "name": "setCuratorPercentage",
      "outputs": [],
      "stateMutability": "nonpayable",
      "type": "function"
    },
    {
      "inputs": [],
      "name": "getIndexLength",
      "outputs": [
        {
          "internalType": "uint256",
          "name": "length",
          "type": "uint256"
        }
      ],
      "stateMutability": "view",
      "type": "function"
    },
    {
      "inputs": [
        {
          "internalType": "uint256",
          "name": "index",
          "type": "uint256"
        }
      ],
      "name": "getByIndex",
      "outputs": [
        {
          "internalType": "address",
          "name": "key",
          "type": "address"
        },
        {
          "internalType": "address",
          "name": "contractAddress",
          "type": "address"
        }
      ],
      "stateMutability": "view",
      "type": "function"
    },
    {
      "inputs": [
        {
          "internalType": "address",
          "name": "_key",
          "type": "address"
        }
      ],
      "name": "getByKey",
      "outputs": [
        {
          "internalType": "address",
          "name": "key",
          "type": "address"
        },
        {
          "internalType": "address",
          "name": "contractAddress",
          "type": "address"
        }
      ],
      "stateMutability": "view",
      "type": "function"
    }
  ],
  "bytecode": "0x60806040526000600655600060075560006008553480156200002057600080fd5b506040516200333f3803806200333f8339810160408190526200004391620000c6565b600080546001600160a01b039889166001600160a01b03199182161790915560038054978916978216979097179096556004805495881695871695909517909455600580549390961692909416919091179093556006929092556007556008556200013f565b80516001600160a01b0381168114620000c157600080fd5b919050565b600080600080600080600060e0888a031215620000e1578283fd5b620000ec88620000a9565b9650620000fc60208901620000a9565b95506200010c60408901620000a9565b94506200011c60608901620000a9565b93506080880151925060a0880151915060c0880151905092959891949750929550565b6131f0806200014f6000396000f3fe60806040523480156200001157600080fd5b5060043610620001605760003560e01c806365d96c8211620000c9578063bde3672d1162000087578063bde3672d146200035b578063de29ee681462000372578063e1ba7d011462000389578063f27ac4d91462000392578063fc0c546a14620003a9578063fe8cde3414620003bd5762000160565b806365d96c8214620002d35780636c3344eb14620002ff57806383b7113e146200031657806392f60b96146200032d57806399b6c1c614620003445762000160565b8063346fa9211162000123578063346fa92114620002265780633ccfd60b146200023d57806345d61ded1462000247578063498770381462000274578063522afaec14620002a557806359d5da8914620002bc5762000160565b80631cbcd9741462000165578063236b237c14620001965780632d883a7314620001af57806332a6519814620001e75780633426ddd51462000207575b600080fd5b620001837257495448445241575f46554e44535f524f4c4560681b81565b6040519081526020015b60405180910390f35b620001ad620001a736600462002898565b620003d1565b005b620001c6620001c036600462002866565b62000549565b604080516001600160a01b039384168152929091166020830152016200018d565b62000183744355524154455f4348414c4c454e47455f524f4c4560581b81565b62000183734348414e47455f53455454494e47535f524f4c4560601b81565b620001ad6200023736600462002866565b620005b0565b620001ad62000630565b6000546200025b906001600160a01b031681565b6040516001600160a01b0390911681526020016200018d565b620001c66200028536600462002704565b6001600160a01b0390811660009081526001602052604090205416908190565b620001ad620002b636600462002742565b62000731565b620001ad620002cd36600462002704565b62000a66565b6200025b620002e436600462002704565b6001602052600090815260409020546001600160a01b031681565b620001ad6200031036600462002770565b62000bfd565b620001ad6200032736600462002866565b6200115f565b620001ad6200033e36600462002704565b620011d8565b620001ad6200035536600462002704565b620018a8565b620001ad6200036c36600462002704565b62001e2e565b620001ad6200038336600462002866565b620021e3565b60025462000183565b620001ad620003a336600462002742565b6200225c565b6003546200025b906001600160a01b031681565b6004546200025b906001600160a01b031681565b600654841015620004295760405162461bcd60e51b815260206004820152601f60248201527f5f7374616b65416d6f756e74203e3d206d696e456e6c697374416d6f756e740060448201526064015b60405180910390fd5b6003546040516323b872dd60e01b81526001600160a01b03909116906323b872dd906200045f9033903090899060040162002918565b602060405180830381600087803b1580156200047a57600080fd5b505af11580156200048f573d6000803e3d6000fd5b505050506040513d601f19601f82011682018060405250810190620004b5919062002844565b620004d45760405162461bcd60e51b81526004016200042090620029eb565b60048054604051631a8096bf60e11b81526001600160a01b03909116916335012d7e916200050f91339188918a9130918a918a91016200293c565b600060405180830381600087803b1580156200052a57600080fd5b505af11580156200053f573d6000803e3d6000fd5b5050505050505050565b600080620005a7600284815481106200057257634e487b7160e01b600052603260045260246000fd5b6000918252602090912001546001600160a01b03166001600160a01b0390811660009081526001602052604090205416908190565b91509150915091565b734348414e47455f53455454494e47535f524f4c4560601b620005d4338262002650565b620005f35760405162461bcd60e51b8152600401620004209062002a14565b60088290556040518281527fea6c6084ca0283f30c459faead18d4a32783096c26aa5847e96e1eeec97edce8906020015b60405180910390a15050565b7257495448445241575f46554e44535f524f4c4560681b62000653338262002650565b620006725760405162461bcd60e51b8152600401620004209062002a14565b60035460405163a9059cbb60e01b815233600482015247602482015247916001600160a01b03169063a9059cbb90604401602060405180830381600087803b158015620006be57600080fd5b505af1158015620006d3573d6000803e3d6000fd5b505050506040513d601f19601f82011682018060405250810190620006f9919062002844565b5060408051338152602081018390527f7084f5476618d8e60b11ef0d7d3f06914655adb8793e28ff7f018d4c76d505d5910162000624565b6001600160a01b03808316600090815260016020908152604091829020548251638da5cb5b60e01b8152925193169233928492638da5cb5b92600480840193829003018186803b1580156200078557600080fd5b505afa1580156200079a573d6000803e3d6000fd5b505050506040513d601f19601f82011682018060405250810190620007c0919062002723565b6001600160a01b031614620008125760405162461bcd60e51b815260206004820152601760248201527637bbb732b91034b9903737ba103a34329039b2b73232b960491b604482015260640162000420565b6003546040516323b872dd60e01b81526001600160a01b03909116906323b872dd90620008489033903090879060040162002918565b602060405180830381600087803b1580156200086357600080fd5b505af115801562000878573d6000803e3d6000fd5b505050506040513d601f19601f820116820180604052508101906200089e919062002844565b620008bd5760405162461bcd60e51b81526004016200042090620029eb565b806001600160a01b03166335d9db5383836001600160a01b0316633a4b66f16040518163ffffffff1660e01b815260040160206040518083038186803b1580156200090757600080fd5b505afa1580156200091c573d6000803e3d6000fd5b505050506040513d601f19601f820116820180604052508101906200094291906200287f565b6200094e919062002a59565b6040518263ffffffff1660e01b81526004016200096d91815260200190565b600060405180830381600087803b1580156200098857600080fd5b505af11580156200099d573d6000803e3d6000fd5b505050507f8b05844824acf2db2f068e4006ef99b307ca4fe1a896d06e884700f1a9da3a6d8383836001600160a01b0316633a4b66f16040518163ffffffff1660e01b815260040160206040518083038186803b158015620009fe57600080fd5b505afa15801562000a13573d6000803e3d6000fd5b505050506040513d601f19601f8201168201806040525081019062000a3991906200287f565b604080516001600160a01b03909416845260208401929092529082015260600160405180910390a1505050565b6001600160a01b038116600081815260016020818152604080842080546001600160a01b031990811687179091556002805494850181559094527f405787fa12a823e0f2b7631cc41b3ba8828b3321ca811111fa75cd3aa3bb5ace909201805490931684179092558051633a4b66f160e01b8152905184937f7583fed51a2ab4e582c68d93e281e0fcc2601ef4a7491d1d2d2dc511f6a912799385939192633a4b66f1926004808201939291829003018186803b15801562000b2757600080fd5b505afa15801562000b3c573d6000803e3d6000fd5b505050506040513d601f19601f8201168201806040525081019062000b6291906200287f565b836001600160a01b031663a035b1fe6040518163ffffffff1660e01b815260040160206040518083038186803b15801562000b9c57600080fd5b505afa15801562000bb1573d6000803e3d6000fd5b505050506040513d601f19601f8201168201806040525081019062000bd791906200287f565b604080516001600160a01b03909416845260208401929092529082015260600162000624565b60075482101562000c5c5760405162461bcd60e51b815260206004820152602260248201527f5f7374616b65416d6f756e74203e3d206d696e4368616c6c656e6765416d6f756044820152611b9d60f21b606482015260840162000420565b6001600160a01b03808416600090815260016020526040908190205460035491516323b872dd60e01b81529083169291909116906323b872dd9062000caa9033903090889060040162002918565b602060405180830381600087803b15801562000cc557600080fd5b505af115801562000cda573d6000803e3d6000fd5b505050506040513d601f19601f8201168201806040525081019062000d00919062002844565b62000d1f5760405162461bcd60e51b81526004016200042090620029eb565b600080546040513391869188916001600160a01b03169062000d4190620026f6565b6001600160a01b039485168152602081019390935290831660408301529091166060820152608001604051809103906000f08015801562000d86573d6000803e3d6000fd5b506000546040516317c0708f60e31b815233600482018190526001600160a01b0380851660248401527f5550444154455f49504653434f4e5441494e4552484153485f524f4c450000006044840152606483019190915292935091169063be03847890608401600060405180830381600087803b15801562000e0757600080fd5b505af115801562000e1c573d6000803e3d6000fd5b50506040516356c57bd160e01b81526001600160a01b03841692506356c57bd1915062000e4e90869060040162002995565b600060405180830381600087803b15801562000e6957600080fd5b505af115801562000e7e573d6000803e3d6000fd5b5050600554604051637c12161960e11b81526001600160a01b038581166004830152909116925063f8242c329150602401600060405180830381600087803b15801562000eca57600080fd5b505af115801562000edf573d6000803e3d6000fd5b50505050816001600160a01b0316636de149f585846001600160a01b031663605cba826040518163ffffffff1660e01b815260040160206040518083038186803b15801562000f2d57600080fd5b505afa15801562000f42573d6000803e3d6000fd5b505050506040513d601f19601f8201168201806040525081019062000f6891906200287f565b62000f74919062002a59565b6040518263ffffffff1660e01b815260040162000f9391815260200190565b600060405180830381600087803b15801562000fae57600080fd5b505af115801562000fc3573d6000803e3d6000fd5b50505050816001600160a01b031663a2de8368836001600160a01b031663ae1108756040518163ffffffff1660e01b815260040160206040518083038186803b1580156200101057600080fd5b505afa15801562001025573d6000803e3d6000fd5b505050506040513d601f19601f820116820180604052508101906200104b91906200287f565b6200105890600162002a59565b6040518263ffffffff1660e01b81526004016200107791815260200190565b600060405180830381600087803b1580156200109257600080fd5b505af1158015620010a7573d6000803e3d6000fd5b5050604051637daa30df60e01b81526001600160a01b03848116600483015285169250637daa30df9150602401600060405180830381600087803b158015620010ef57600080fd5b505af115801562001104573d6000803e3d6000fd5b5050604080516001600160a01b03808a168252602082018990528516918101919091527fccd897ff376a9748c9a2e6af2a359a82cb0513a96ff431f17763ad057b161908925060600190505b60405180910390a15050505050565b734348414e47455f53455454494e47535f524f4c4560601b62001183338262002650565b620011a25760405162461bcd60e51b8152600401620004209062002a14565b60068290556040518281527f1e2fffeb4ad73c19aa71037a187b8cb1a45220f05d6cce7c2801c106de268a8a9060200162000624565b744355524154455f4348414c4c454e47455f524f4c4560581b620011fd338262002650565b6200121c5760405162461bcd60e51b8152600401620004209062002a14565b6001600160a01b03808316600090815260016020908152604080832054815163302e5d4160e11b81529151941693849263605cba829260048082019391829003018186803b1580156200126e57600080fd5b505afa15801562001283573d6000803e3d6000fd5b505050506040513d601f19601f82011682018060405250810190620012a991906200287f565b905060006064600854620012be919062002a74565b620012ca908362002a95565b60035460405163a9059cbb60e01b8152336004820152602481018390529192506001600160a01b03169063a9059cbb90604401602060405180830381600087803b1580156200131857600080fd5b505af11580156200132d573d6000803e3d6000fd5b505050506040513d601f19601f8201168201806040525081019062001353919062002844565b5060005b836001600160a01b031663cfd6d7326040518163ffffffff1660e01b815260040160206040518083038186803b1580156200139157600080fd5b505afa158015620013a6573d6000803e3d6000fd5b505050506040513d601f19601f82011682018060405250810190620013cc91906200287f565b811015620016fc57604051635931d93760e11b8152600481018290526000906001600160a01b0386169063b263b26e9060240160206040518083038186803b1580156200141857600080fd5b505afa1580156200142d573d6000803e3d6000fd5b505050506040513d601f19601f8201168201806040525081019062001453919062002723565b9050806001600160a01b0316633f6fa6556040518163ffffffff1660e01b815260040160206040518083038186803b1580156200148f57600080fd5b505afa158015620014a4573d6000803e3d6000fd5b505050506040513d601f19601f82011682018060405250810190620014ca919062002844565b620016e6576000620014dd848662002ab7565b9050600360009054906101000a90046001600160a01b03166001600160a01b031663a9059cbb836001600160a01b031663534db0e26040518163ffffffff1660e01b815260040160206040518083038186803b1580156200153d57600080fd5b505afa15801562001552573d6000803e3d6000fd5b505050506040513d601f19601f8201168201806040525081019062001578919062002723565b87856001600160a01b0316633a4b66f16040518163ffffffff1660e01b815260040160206040518083038186803b158015620015b357600080fd5b505afa158015620015c8573d6000803e3d6000fd5b505050506040513d601f19601f82011682018060405250810190620015ee91906200287f565b620015fa919062002a74565b62001606908562002a95565b6040516001600160e01b031960e085901b1681526001600160a01b0390921660048301526024820152604401602060405180830381600087803b1580156200164d57600080fd5b505af115801562001662573d6000803e3d6000fd5b505050506040513d601f19601f8201168201806040525081019062001688919062002844565b5060405162b26c8760e51b8152600160048201526001600160a01b0383169063164d90e090602401600060405180830381600087803b158015620016cb57600080fd5b505af1158015620016e0573d6000803e3d6000fd5b50505050505b5080620016f38162002ad1565b91505062001357565b506040516335d9db5360e01b8152600060048201526001600160a01b038416906335d9db5390602401600060405180830381600087803b1580156200174057600080fd5b505af115801562001755573d6000803e3d6000fd5b5050604051636de149f560e01b8152600060048201526001600160a01b0386169250636de149f59150602401600060405180830381600087803b1580156200179c57600080fd5b505af1158015620017b1573d6000803e3d6000fd5b505060405163145bd06d60e31b8152600060048201526001600160a01b038616925063a2de83689150602401600060405180830381600087803b158015620017f857600080fd5b505af11580156200180d573d6000803e3d6000fd5b5050604051631ede248160e21b8152600060048201526001600160a01b0386169250637b7892049150602401600060405180830381600087803b1580156200185457600080fd5b505af115801562001869573d6000803e3d6000fd5b50506040516001600160a01b03881681527f9d9f99a36ef64966814c1f89a7a64fcb0132cbd085184a9666469302f32b92c49250602001905062001150565b744355524154455f4348414c4c454e47455f524f4c4560581b620018cd338262002650565b620018ec5760405162461bcd60e51b8152600401620004209062002a14565b6001600160a01b03808316600090815260016020908152604080832054815163302e5d4160e11b81529151941693849263605cba829260048082019391829003018186803b1580156200193e57600080fd5b505afa15801562001953573d6000803e3d6000fd5b505050506040513d601f19601f820116820180604052508101906200197991906200287f565b905060006064600854836200198f919062002a95565b6200199b919062002a74565b60035460405163a9059cbb60e01b8152336004820152602481018390529192506001600160a01b03169063a9059cbb90604401602060405180830381600087803b158015620019e957600080fd5b505af1158015620019fe573d6000803e3d6000fd5b505050506040513d601f19601f8201168201806040525081019062001a24919062002844565b50600360009054906101000a90046001600160a01b03166001600160a01b031663a9059cbb846001600160a01b0316638da5cb5b6040518163ffffffff1660e01b815260040160206040518083038186803b15801562001a8357600080fd5b505afa15801562001a98573d6000803e3d6000fd5b505050506040513d601f19601f8201168201806040525081019062001abe919062002723565b62001aca848662002ab7565b6040516001600160e01b031960e085901b1681526001600160a01b0390921660048301526024820152604401602060405180830381600087803b15801562001b1157600080fd5b505af115801562001b26573d6000803e3d6000fd5b505050506040513d601f19601f8201168201806040525081019062001b4c919062002844565b5060005b836001600160a01b031663cfd6d7326040518163ffffffff1660e01b815260040160206040518083038186803b15801562001b8a57600080fd5b505afa15801562001b9f573d6000803e3d6000fd5b505050506040513d601f19601f8201168201806040525081019062001bc591906200287f565b81101562001d3a57604051635931d93760e11b8152600481018290526000906001600160a01b0386169063b263b26e9060240160206040518083038186803b15801562001c1157600080fd5b505afa15801562001c26573d6000803e3d6000fd5b505050506040513d601f19601f8201168201806040525081019062001c4c919062002723565b9050806001600160a01b0316633f6fa6556040518163ffffffff1660e01b815260040160206040518083038186803b15801562001c8857600080fd5b505afa15801562001c9d573d6000803e3d6000fd5b505050506040513d601f19601f8201168201806040525081019062001cc3919062002844565b62001d245760405162b26c8760e51b8152600160048201526001600160a01b0382169063164d90e090602401600060405180830381600087803b15801562001d0a57600080fd5b505af115801562001d1f573d6000803e3d6000fd5b505050505b508062001d318162002ad1565b91505062001b50565b50604051636de149f560e01b8152600060048201526001600160a01b03841690636de149f590602401600060405180830381600087803b15801562001d7e57600080fd5b505af115801562001d93573d6000803e3d6000fd5b505060405163145bd06d60e31b8152600060048201526001600160a01b038616925063a2de83689150602401600060405180830381600087803b15801562001dda57600080fd5b505af115801562001def573d6000803e3d6000fd5b50506040516001600160a01b03881681527f125014e75e2aead4a1c8a35e9bb786a430fc1ba6354cbd9845802d3603abd0b09250602001905062001150565b6001600160a01b03808216600090815260016020908152604091829020548251638da5cb5b60e01b815292519316928392638da5cb5b926004808301939192829003018186803b15801562001e8257600080fd5b505afa15801562001e97573d6000803e3d6000fd5b505050506040513d601f19601f8201168201806040525081019062001ebd919062002723565b6001600160a01b0316336001600160a01b03161462001f1f5760405162461bcd60e51b815260206004820152601760248201527f73656e646572206973206e6f7420746865206f776e6572000000000000000000604482015260640162000420565b6000816001600160a01b0316633a4b66f16040518163ffffffff1660e01b815260040160206040518083038186803b15801562001f5b57600080fd5b505afa15801562001f70573d6000803e3d6000fd5b505050506040513d601f19601f8201168201806040525081019062001f9691906200287f565b11156200214c57600360009054906101000a90046001600160a01b03166001600160a01b031663a9059cbb826001600160a01b0316638da5cb5b6040518163ffffffff1660e01b815260040160206040518083038186803b15801562001ffb57600080fd5b505afa15801562002010573d6000803e3d6000fd5b505050506040513d601f19601f8201168201806040525081019062002036919062002723565b836001600160a01b0316633a4b66f16040518163ffffffff1660e01b815260040160206040518083038186803b1580156200207057600080fd5b505afa15801562002085573d6000803e3d6000fd5b505050506040513d601f19601f82011682018060405250810190620020ab91906200287f565b6040516001600160e01b031960e085901b1681526001600160a01b0390921660048301526024820152604401602060405180830381600087803b158015620020f257600080fd5b505af115801562002107573d6000803e3d6000fd5b505050506040513d601f19601f820116820180604052508101906200212d919062002844565b6200214c5760405162461bcd60e51b81526004016200042090620029eb565b604051631ede248160e21b8152600060048201526001600160a01b03821690637b78920490602401600060405180830381600087803b1580156200218f57600080fd5b505af1158015620021a4573d6000803e3d6000fd5b50506040516001600160a01b03851681527fc48322c2e165c864176005884983dd81c87a9fc8258ca6a1967d17b26cd8d0e39250602001905062000624565b734348414e47455f53455454494e47535f524f4c4560601b62002207338262002650565b620022265760405162461bcd60e51b8152600401620004209062002a14565b60078290556040518281527fec0975e9a985b0702fafca3ee144a642dfe5c48de1b5e1c934e0e4131ce5fcbe9060200162000624565b6001600160a01b038083166000908152600160209081526040808320548151633a4b66f160e01b815291519416938492633a4b66f19260048082019391829003018186803b158015620022ae57600080fd5b505afa158015620022c3573d6000803e3d6000fd5b505050506040513d601f19601f82011682018060405250810190620022e991906200287f565b9050336001600160a01b0316826001600160a01b0316638da5cb5b6040518163ffffffff1660e01b815260040160206040518083038186803b1580156200232f57600080fd5b505afa15801562002344573d6000803e3d6000fd5b505050506040513d601f19601f820116820180604052508101906200236a919062002723565b6001600160a01b031614620023bc5760405162461bcd60e51b815260206004820152601760248201527637bbb732b91034b9903737ba103a34329039b2b73232b960491b604482015260640162000420565b80831115620024065760405162461bcd60e51b81526020600482015260156024820152745f7374616b65416d6f756e74203c3d207374616b6560581b604482015260640162000420565b60065462002415848362002ab7565b1015620024755760405162461bcd60e51b815260206004820152602760248201527f7374616b65202d205f7374616b65416d6f756e74203e3d206d696e456e6c69736044820152661d105b5bdd5b9d60ca1b606482015260840162000420565b60035460405163a9059cbb60e01b8152336004820152602481018590526001600160a01b039091169063a9059cbb90604401602060405180830381600087803b158015620024c257600080fd5b505af1158015620024d7573d6000803e3d6000fd5b505050506040513d601f19601f82011682018060405250810190620024fd919062002844565b6200251c5760405162461bcd60e51b81526004016200042090620029eb565b6001600160a01b0382166335d9db5362002537858462002ab7565b6040518263ffffffff1660e01b81526004016200255691815260200190565b600060405180830381600087803b1580156200257157600080fd5b505af115801562002586573d6000803e3d6000fd5b505050507f5ee9537083cb767f9e599a17876a9c597197deba435082e0b88c4da925d4599e8484846001600160a01b0316633a4b66f16040518163ffffffff1660e01b815260040160206040518083038186803b158015620025e757600080fd5b505afa158015620025fc573d6000803e3d6000fd5b505050506040513d601f19601f820116820180604052508101906200262291906200287f565b604080516001600160a01b03909416845260208401929092529082015260600160405180910390a150505050565b600080546001600160a01b03161580620026ef5750600054604051630dace25b60e31b81526001600160a01b0390911690636d6712d8906200269b9086903090879060040162002918565b60206040518083038186803b158015620026b457600080fd5b505afa158015620026c9573d6000803e3d6000fd5b505050506040513d601f19601f82011682018060405250810190620026ef919062002844565b9392505050565b6106868062002b3583390190565b60006020828403121562002716578081fd5b8135620026ef8162002b1b565b60006020828403121562002735578081fd5b8151620026ef8162002b1b565b6000806040838503121562002755578081fd5b8235620027628162002b1b565b946020939093013593505050565b60008060006060848603121562002785578081fd5b8335620027928162002b1b565b925060208401359150604084013567ffffffffffffffff80821115620027b6578283fd5b818601915086601f830112620027ca578283fd5b813581811115620027df57620027df62002b05565b604051601f8201601f19908116603f011681019083821181831017156200280a576200280a62002b05565b8160405282815289602084870101111562002823578586fd5b82602086016020830137856020848301015280955050505050509250925092565b60006020828403121562002856578081fd5b81518015158114620026ef578182fd5b60006020828403121562002878578081fd5b5035919050565b60006020828403121562002891578081fd5b5051919050565b60008060008060608587031215620028ae578081fd5b8435935060208501359250604085013567ffffffffffffffff80821115620028d4578283fd5b818701915087601f830112620028e8578283fd5b813581811115620028f7578384fd5b88602082850101111562002909578384fd5b95989497505060200194505050565b6001600160a01b039384168152919092166020820152604081019190915260600190565b6001600160a01b03878116825260208201879052604082018690528416606082015260a06080820181905281018290526000828460c084013781830160c090810191909152601f909201601f1916010195945050505050565b6000602080835283518082850152825b81811015620029c357858101830151858201604001528201620029a5565b81811115620029d55783604083870101525b50601f01601f1916929092016040019392505050565b6020808252600f908201526e1d1c985b9cd9995c8819985a5b1959608a1b604082015260600190565b60208082526025908201527f53656e64657220646f6573206e6f7420686176652074686520636f727265637460408201526420726f6c6560d81b606082015260800190565b6000821982111562002a6f5762002a6f62002aef565b500190565b60008262002a9057634e487b7160e01b81526012600452602481fd5b500490565b600081600019048311821515161562002ab25762002ab262002aef565b500290565b60008282101562002acc5762002acc62002aef565b500390565b600060001982141562002ae85762002ae862002aef565b5060010190565b634e487b7160e01b600052601160045260246000fd5b634e487b7160e01b600052604160045260246000fd5b6001600160a01b038116811462002b3157600080fd5b5056fe60806040526002805460ff60a01b1916905534801561001d57600080fd5b5060405161068638038061068683398101604081905261003c916100a2565b600080546001600160a01b03199081166001600160a01b039384161790915560028054821695831695909517909455600392909255600480549093169116179055426005556100ee565b80516001600160a01b038116811461009d57600080fd5b919050565b600080600080608085870312156100b7578384fd5b6100c085610086565b9350602085015192506100d560408601610086565b91506100e360608601610086565b905092959194509250565b610589806100fd6000396000f3fe608060405234801561001057600080fd5b50600436106100a95760003560e01c806356c57bd11161007157806356c57bd114610141578063910fd10a14610154578063b80777ea14610169578063bc7c55ed14610172578063ef120a6e14610185578063fcbb59071461018d576100a9565b8063164d90e0146100ae5780633a4b66f1146100c35780633f6fa655146100df57806345d61ded14610103578063534db0e21461012e575b600080fd5b6100c16100bc3660046103de565b6101b4565b005b6100cc60035481565b6040519081526020015b60405180910390f35b6002546100f390600160a01b900460ff1681565b60405190151581526020016100d6565b600054610116906001600160a01b031681565b6040516001600160a01b0390911681526020016100d6565b600254610116906001600160a01b031681565b6100c161014f366004610405565b61020e565b61015c610225565b6040516100d691906104af565b6100cc60055481565b600454610116906001600160a01b031681565b61015c6102b3565b6100cc7f5550444154455f49504653434f4e5441494e4552484153485f524f4c4500000081565b6002805460ff60a01b1916600160a01b831515908102919091179091556040805130815260208101929092527f1e26517183efe4efd75405d381f0fd1aa3fc89740db3c17a9c244127ca64c79c910160405180910390a150565b8051610221906001906020840190610345565b5050565b6001805461023290610502565b80601f016020809104026020016040519081016040528092919081815260200182805461025e90610502565b80156102ab5780601f10610280576101008083540402835291602001916102ab565b820191906000526020600020905b81548152906001019060200180831161028e57829003601f168201915b505050505081565b6060600180546102c290610502565b80601f01602080910402602001604051908101604052809291908181526020018280546102ee90610502565b801561033b5780601f106103105761010080835404028352916020019161033b565b820191906000526020600020905b81548152906001019060200180831161031e57829003601f168201915b5050505050905090565b82805461035190610502565b90600052602060002090601f01602090048101928261037357600085556103b9565b82601f1061038c57805160ff19168380011785556103b9565b828001600101855582156103b9579182015b828111156103b957825182559160200191906001019061039e565b506103c59291506103c9565b5090565b5b808211156103c557600081556001016103ca565b6000602082840312156103ef578081fd5b813580151581146103fe578182fd5b9392505050565b600060208284031215610416578081fd5b813567ffffffffffffffff8082111561042d578283fd5b818401915084601f830112610440578283fd5b8135818111156104525761045261053d565b604051601f8201601f19908116603f0116810190838211818310171561047a5761047a61053d565b81604052828152876020848701011115610492578586fd5b826020860160208301379182016020019490945295945050505050565b6000602080835283518082850152825b818110156104db578581018301518582016040015282016104bf565b818111156104ec5783604083870101525b50601f01601f1916929092016040019392505050565b600181811c9082168061051657607f821691505b6020821081141561053757634e487b7160e01b600052602260045260246000fd5b50919050565b634e487b7160e01b600052604160045260246000fdfea2646970667358221220eda214ca3944fb915194eed33147eade2ad0f0fc6279c72f00e3e40bb06f49e464736f6c63430008030033a2646970667358221220c7851be125e3b87a15c83ccf1255a0f5a5897d44538ed70a11d11e2bb402220c64736f6c63430008030033",
  "immutableReferences": {},
  "source": "// SPDX-License-Identifier: UNLICENSED\n/**\n * Copyright (C) SettleMint NV - All Rights Reserved\n *\n * Use of this file is strictly prohibited without an active license agreement.\n * Distribution of this file, via any medium, is strictly prohibited.\n *\n * For license inquiries, contact hello@settlemint.com\n */\n\npragma solidity ^0.8.0;\n\nimport './IListing.sol';\nimport './IListingFactory.sol';\nimport '../tokens/ERC20/IERC20Token.sol';\nimport '../authentication/Secured.sol';\nimport '../utility/syncing/Syncable.sol';\nimport '../utility/metadata/IpfsFieldContainer.sol';\nimport './Challenge.sol';\nimport './ChallengeRegistry.sol';\n\ncontract TokenCuratedRegistry is Secured, Syncable {\n  bytes32 public constant WITHDRAW_FUNDS_ROLE = 'WITHDRAW_FUNDS_ROLE';\n  bytes32 public constant CURATE_CHALLENGE_ROLE = 'CURATE_CHALLENGE_ROLE';\n  bytes32 public constant CHANGE_SETTINGS_ROLE = 'CHANGE_SETTINGS_ROLE';\n\n  // ------\n  // EVENTS\n  // ------\n\n  event Enlisted(address listing, uint256 stake, uint256 price);\n  event Challenged(address listing, uint256 stake, address challenge);\n  event Unlisted(address listing);\n  event ChallengeApproved(address listing);\n  event ChallengeDenied(address listing);\n  event Increased(address listing, uint256 increasedBy, uint256 newStake);\n  event Decreased(address listing, uint256 decreasedBy, uint256 newStake);\n  event Withdrawn(address by, uint256 balance);\n  event MinEnlistAmountChanged(uint256 value);\n  event MinChallengeAmountChanged(uint256 value);\n  event CuratorPercentageChanged(uint256 value);\n\n  // Maps listingHashes to associated listing data\n  mapping(address => IListing) public listings;\n  address[] listingsIndex;\n\n  // Global Variables\n  IERC20Token public token;\n  IListingFactory public listingFactory;\n  ChallengeRegistry challengeRegistry;\n\n  // Settings\n  uint256 minEnlistAmount = 0;\n  uint256 minChallengeAmount = 0;\n  uint256 curatorPercentage = 0;\n\n  /**\n  @dev Contructor\n  @notice                Sets the address for token\n  @param _gateKeeper     Address of the gatekeeper\n  @param _token          Address of the token\n  */\n  constructor(\n    address _gateKeeper,\n    address _token,\n    address _listingFactory,\n    address _challengeRegistry,\n    uint256 _minEnlistAmount,\n    uint256 _minChallengeAmount,\n    uint256 _curatorPercentage\n  ) Secured(_gateKeeper) {\n    token = IERC20Token(_token);\n    listingFactory = IListingFactory(_listingFactory);\n    challengeRegistry = ChallengeRegistry(_challengeRegistry);\n\n    minEnlistAmount = _minEnlistAmount;\n    minChallengeAmount = _minChallengeAmount;\n    curatorPercentage = _curatorPercentage;\n  }\n\n  /**\n  @notice                 Allows a seller to list data to be available for selling.\n  @notice                 Takes tokens from user.\n  @param _stakeAmount     The number of ERC20 tokens a user is willing to potentially stake\n  @param _price           Price of the listing\n  @param _metadata        Metadata\n  */\n  function enlist(\n    uint256 _stakeAmount,\n    uint256 _price,\n    string calldata _metadata\n  ) external {\n    // Stake must be above a certain amount\n    require(_stakeAmount >= minEnlistAmount, '_stakeAmount >= minEnlistAmount');\n\n    // Transfers tokens from user to Registry contract\n    require(token.transferFrom(msg.sender, address(this), _stakeAmount), 'transfer failed');\n\n    // Add listing to listings\n    listingFactory.createListing(msg.sender, _price, _stakeAmount, address(this), _metadata);\n  }\n\n  /**\n  @notice                 Listing is added through the factory\n  @param _listing         Address of the added listing\n  */\n  function addListing(address _listing) public {\n    IListing listing = IListing(_listing);\n\n    // Add to mapping\n    listings[_listing] = listing;\n    listingsIndex.push(_listing);\n\n    // Event\n    emit Enlisted(_listing, listing.stake(), listing.price());\n  }\n\n  /**\n  @notice             Allows the owner of a listing to remove the listing from the whitelist\n  @notice             Returns all tokens to the owner of the listing\n  @param _listing     The listing of a user's listing\n  */\n  function unlist(address _listing) public {\n    IListing listing = listings[_listing];\n    require(msg.sender == listing.owner(), 'sender is not the owner');\n\n    // Transfers any remaining balance back to the owner\n    if (listing.stake() > 0) require(token.transfer(listing.owner(), listing.stake()), 'transfer failed');\n\n    // Blacklist\n    listing.setWhitelisted(false);\n\n    // Event\n    emit Unlisted(_listing);\n  }\n\n  /**\n  @notice             Allows the owner of a listing to increase their unstaked deposit.\n  @param _listing     The listing of a user's application/listing\n  @param _stakeAmount The number of ERC20 tokens to increase a user's unstaked deposit\n  */\n  function increase(address _listing, uint256 _stakeAmount) public {\n    IListing listing = listings[_listing];\n\n    require(listing.owner() == msg.sender, 'owner is not the sender');\n    require(token.transferFrom(msg.sender, address(this), _stakeAmount), 'transfer failed');\n\n    listing.setStake(listing.stake() + _stakeAmount);\n\n    // Event\n    emit Increased(_listing, _stakeAmount, listing.stake());\n  }\n\n  /**\n  @notice             Allows the owner of a listing to decrease their unstaked deposit.\n  @notice             The listing keeps its previous status.\n  @param _listing     The listing of a user's application/listing\n  @param _stakeAmount The number of ERC20 tokens to decrease a user's unstaked deposit\n  */\n  function decrease(address _listing, uint256 _stakeAmount) public {\n    IListing listing = listings[_listing];\n\n    uint256 stake = listing.stake();\n\n    require(listing.owner() == msg.sender, 'owner is not the sender');\n    require(_stakeAmount <= stake, '_stakeAmount <= stake');\n    require(stake - _stakeAmount >= minEnlistAmount, 'stake - _stakeAmount >= minEnlistAmount');\n\n    require(token.transfer(msg.sender, _stakeAmount), 'transfer failed');\n\n    listing.setStake(stake - _stakeAmount);\n\n    // Event\n    emit Decreased(_listing, _stakeAmount, listing.stake());\n  }\n\n  /**\n  @notice             Starts a challenge for a listing.\n  @dev                Tokens are taken from the challenger and the data seller's deposit is locked.\n  @param _listing     The listing of data.\n  @param _stakeAmount The amount the challenger wants to stake.\n  */\n  function challenge(\n    address _listing,\n    uint256 _stakeAmount,\n    string memory _metadata\n  ) public {\n    require(_stakeAmount >= minChallengeAmount, '_stakeAmount >= minChallengeAmount');\n\n    IListing listing = listings[_listing];\n\n    // Takes tokens from challenger\n    require(token.transferFrom(msg.sender, address(this), _stakeAmount), 'transfer failed');\n\n    // Add challenge to the challenges mapping\n    Challenge _challenge = new Challenge(msg.sender, _stakeAmount, _listing, address(gateKeeper));\n\n    // Metadata role\n    gateKeeper.createPermission(msg.sender, address(_challenge), bytes32('UPDATE_IPFSCONTAINERHASH_ROLE'), msg.sender);\n\n    // Add metadata\n    _challenge.setIpfsFieldContainerHash(_metadata);\n\n    // Add challenge to registry\n    challengeRegistry.addChallenge(address(_challenge));\n    // Add the necessary data on the challenged listing\n    listing.setChallengesStake(listing.challengesStake() + _stakeAmount);\n    listing.setNumberOfChallenges(listing.numberOfChallenges() + 1);\n    listing.setChallenge(address(_challenge));\n\n    // Event\n    emit Challenged(_listing, _stakeAmount, address(_challenge));\n  }\n\n  /**\n  @notice             Marks a challenge as resolved.\n  @notice             Rewards the winner tokens and either whitelists or de-whitelists the listing.\n  @param _listing     A listing with a challenge that is to be resolved\n  */\n  function approveChallenge(address _listing) public auth(CURATE_CHALLENGE_ROLE) {\n    IListing listing = listings[_listing];\n\n    uint256 challengesStake = listing.challengesStake();\n\n    // Curator (msg.sender) should get 10% of the total sum of all challenge stakes + lising stake\n    uint256 curatorShare = challengesStake * (curatorPercentage / 100);\n    token.transfer(msg.sender, curatorShare);\n\n    // Challengers should get a percentage of the total sum of all challenge stakes + lising stake\n    // equal to their share of the total challenge stake\n    // Get all challenges that are unresolved and are linked to this listing,\n    for (uint256 i = 0; i < listing.getChallengesLength(); i++) {\n      Challenge _challenge = Challenge(listing.getChallengeAtIndex(i));\n\n      if (_challenge.resolved() == false) {\n        // Calculate what's left to divide between the challengers\n        uint256 challengerShare = challengesStake - curatorShare;\n        // Transfer percentage of challenge to THIS challenger\n        token.transfer(_challenge.challenger(), challengerShare * (_challenge.stake() / challengesStake));\n        // Set challenge as resolved\n        _challenge.setResolved(true);\n      }\n    }\n\n    // Take stake from listing\n    listing.setStake(0);\n    // Reset number of challenges and total challenges stake\n    listing.setChallengesStake(0);\n    listing.setNumberOfChallenges(0);\n\n    // Blacklist listing\n    listing.setWhitelisted(false);\n\n    // Event\n    emit ChallengeApproved(_listing);\n  }\n\n  /**\n  @notice             Marks a challenge as denied.\n  @notice             Rewards the listing seller tokens and de-whitelists the listing.\n  @param _listing     A listing with a challenge that is to be resolved\n  */\n  function denyChallenge(address _listing) public auth(CURATE_CHALLENGE_ROLE) {\n    IListing listing = listings[_listing];\n\n    uint256 challengesStake = listing.challengesStake();\n\n    // Admin (msg.sender) should get 10% of the total sum of all challenge stakes + lising stake\n    uint256 curatorShare = (challengesStake * curatorPercentage) / 100;\n    token.transfer(msg.sender, curatorShare);\n\n    // Transfer the rest of the stake to the data owner\n    token.transfer(listing.owner(), challengesStake - curatorShare);\n\n    // Get all challenges that are unresolved and are linked to this listing,\n    for (uint256 i = 0; i < listing.getChallengesLength(); i++) {\n      Challenge _challenge = Challenge(listing.getChallengeAtIndex(i));\n\n      if (_challenge.resolved() == false) {\n        // Set challenge as resolved\n        _challenge.setResolved(true);\n      }\n    }\n\n    // Reset number of challenges and total challenges stake\n    listing.setChallengesStake(0);\n    listing.setNumberOfChallenges(0);\n\n    // Event\n    emit ChallengeDenied(_listing);\n  }\n\n  /**\n  @notice      Withdraw all the funds from this contract: safety measure\n  */\n  function withdraw() public auth(WITHDRAW_FUNDS_ROLE) {\n    uint256 balance = address(this).balance;\n    token.transfer(msg.sender, address(this).balance);\n    emit Withdrawn(msg.sender, balance);\n  }\n\n  /**\n  @notice                   Sets the minEnlistAmount\n  @param _minEnlistAmount   minEnlistAmount\n  */\n  function setMinEnlistAmount(uint256 _minEnlistAmount) public auth(CHANGE_SETTINGS_ROLE) {\n    minEnlistAmount = _minEnlistAmount;\n    emit MinEnlistAmountChanged(_minEnlistAmount);\n  }\n\n  /**\n  @notice                     Sets the minChallengeAmount\n  @param _minChallengeAmount  minChallengeAmount\n  */\n  function setMinChallengeAmount(uint256 _minChallengeAmount) public auth(CHANGE_SETTINGS_ROLE) {\n    minChallengeAmount = _minChallengeAmount;\n    emit MinChallengeAmountChanged(_minChallengeAmount);\n  }\n\n  /**\n  @notice                   Sets the curatorPercentage\n  @param _curatorPercentage curatorPercentage\n  */\n  function setCuratorPercentage(uint256 _curatorPercentage) public auth(CHANGE_SETTINGS_ROLE) {\n    curatorPercentage = _curatorPercentage;\n    emit CuratorPercentageChanged(_curatorPercentage);\n  }\n\n  /**\n   * implementation of syncable methods\n   */\n  function getIndexLength() public view override returns (uint256 length) {\n    length = listingsIndex.length;\n  }\n\n  function getByIndex(uint256 index) public view returns (address key, address contractAddress) {\n    return getByKey(listingsIndex[index]);\n  }\n\n  function getByKey(address _key) public view returns (address key, address contractAddress) {\n    key = address(listings[_key]);\n    contractAddress = address(listings[_key]);\n  }\n}\n",
  "sourcePath": "/home/coder/project/contracts/_library/tokencuratedregistry/TokenCuratedRegistry.sol",
  "compiler": {
    "name": "solc",
    "version": "0.8.3+commit.8d00100c.Emscripten.clang"
  },
  "schemaVersion": "3.4.3",
  "updatedAt": "2021-09-21T08:20:58.171Z",
  "devdoc": {
    "kind": "dev",
    "methods": {
      "addListing(address)": {
        "params": {
          "_listing": "Address of the added listing"
        }
      },
      "approveChallenge(address)": {
        "params": {
          "_listing": "A listing with a challenge that is to be resolved"
        }
      },
      "challenge(address,uint256,string)": {
        "details": "Tokens are taken from the challenger and the data seller's deposit is locked.",
        "params": {
          "_listing": "The listing of data.",
          "_stakeAmount": "The amount the challenger wants to stake."
        }
      },
      "constructor": {
        "details": "Contructor",
        "params": {
          "_gateKeeper": "Address of the gatekeeper",
          "_token": "Address of the token"
        }
      },
      "decrease(address,uint256)": {
        "params": {
          "_listing": "The listing of a user's application/listing",
          "_stakeAmount": "The number of ERC20 tokens to decrease a user's unstaked deposit"
        }
      },
      "denyChallenge(address)": {
        "params": {
          "_listing": "A listing with a challenge that is to be resolved"
        }
      },
      "enlist(uint256,uint256,string)": {
        "params": {
          "_metadata": "Metadata",
          "_price": "Price of the listing",
          "_stakeAmount": "The number of ERC20 tokens a user is willing to potentially stake"
        }
      },
      "increase(address,uint256)": {
        "params": {
          "_listing": "The listing of a user's application/listing",
          "_stakeAmount": "The number of ERC20 tokens to increase a user's unstaked deposit"
        }
      },
      "setCuratorPercentage(uint256)": {
        "params": {
          "_curatorPercentage": "curatorPercentage"
        }
      },
      "setMinChallengeAmount(uint256)": {
        "params": {
          "_minChallengeAmount": "minChallengeAmount"
        }
      },
      "setMinEnlistAmount(uint256)": {
        "params": {
          "_minEnlistAmount": "minEnlistAmount"
        }
      },
      "unlist(address)": {
        "params": {
          "_listing": "The listing of a user's listing"
        }
      }
    },
    "version": 1
  },
  "userdoc": {
    "kind": "user",
    "methods": {
      "addListing(address)": {
        "notice": "Listing is added through the factory"
      },
      "approveChallenge(address)": {
        "notice": "Marks a challenge as resolved.Rewards the winner tokens and either whitelists or de-whitelists the listing."
      },
      "challenge(address,uint256,string)": {
        "notice": "Starts a challenge for a listing."
      },
      "constructor": {
        "notice": "Sets the address for token"
      },
      "decrease(address,uint256)": {
        "notice": "Allows the owner of a listing to decrease their unstaked deposit.The listing keeps its previous status."
      },
      "denyChallenge(address)": {
        "notice": "Marks a challenge as denied.Rewards the listing seller tokens and de-whitelists the listing."
      },
      "enlist(uint256,uint256,string)": {
        "notice": "Allows a seller to list data to be available for selling.Takes tokens from user."
      },
      "getIndexLength()": {
        "notice": "implementation of syncable methods"
      },
      "increase(address,uint256)": {
        "notice": "Allows the owner of a listing to increase their unstaked deposit."
      },
      "setCuratorPercentage(uint256)": {
        "notice": "Sets the curatorPercentage"
      },
      "setMinChallengeAmount(uint256)": {
        "notice": "Sets the minChallengeAmount"
      },
      "setMinEnlistAmount(uint256)": {
        "notice": "Sets the minEnlistAmount"
      },
      "unlist(address)": {
        "notice": "Allows the owner of a listing to remove the listing from the whitelistReturns all tokens to the owner of the listing"
      },
      "withdraw()": {
        "notice": "Withdraw all the funds from this contract: safety measure"
      }
    },
    "version": 1
  }
}