{
  "contractName": "TraceabilityFactory",
  "abi": [
    {
      "inputs": [
        {
          "internalType": "contract GateKeeper",
          "name": "gateKeeper",
          "type": "address"
        },
        {
          "internalType": "contract TraceabilityRegistry",
          "name": "registry",
          "type": "address"
        }
      ],
      "stateMutability": "nonpayable",
      "type": "constructor"
    },
    {
      "anonymous": false,
      "inputs": [
        {
          "indexed": false,
          "internalType": "address",
          "name": "statemachine",
          "type": "address"
        }
      ],
      "name": "StateMachineCreated",
      "type": "event"
    },
    {
      "inputs": [],
      "name": "CREATE_STATEMACHINE_ROLE",
      "outputs": [
        {
          "internalType": "bytes32",
          "name": "",
          "type": "bytes32"
        }
      ],
      "stateMutability": "view",
      "type": "function"
    },
    {
      "inputs": [],
      "name": "UPDATE_UIFIELDDEFINITIONS_ROLE",
      "outputs": [
        {
          "internalType": "bytes32",
          "name": "",
          "type": "bytes32"
        }
      ],
      "stateMutability": "view",
      "type": "function"
    },
    {
      "inputs": [],
      "name": "gateKeeper",
      "outputs": [
        {
          "internalType": "contract GateKeeper",
          "name": "",
          "type": "address"
        }
      ],
      "stateMutability": "view",
      "type": "function"
    },
    {
      "inputs": [],
      "name": "getUIFieldDefinitionsHash",
      "outputs": [
        {
          "internalType": "string",
          "name": "",
          "type": "string"
        }
      ],
      "stateMutability": "view",
      "type": "function"
    },
    {
      "inputs": [
        {
          "internalType": "string",
          "name": "uiFieldDefinitionsHash",
          "type": "string"
        }
      ],
      "name": "setUIFieldDefinitionsHash",
      "outputs": [],
      "stateMutability": "nonpayable",
      "type": "function"
    },
    {
      "inputs": [
        {
          "internalType": "uint256",
          "name": "harvestDate",
          "type": "uint256"
        },
        {
          "internalType": "string",
          "name": "ipfsFieldContainerHash",
          "type": "string"
        }
      ],
      "name": "create",
      "outputs": [],
      "stateMutability": "nonpayable",
      "type": "function"
    }
  ],
  "bytecode": "0x608060405234801561001057600080fd5b506040516130ef3803806130ef83398101604081905261002f91610060565b600180546001600160a01b039384166001600160a01b031991821617909155600280549290931691161790556100b1565b60008060408385031215610072578182fd5b825161007d81610099565b602084015190925061008e81610099565b809150509250929050565b6001600160a01b03811681146100ae57600080fd5b50565b61302f806100c06000396000f3fe60806040523480156200001157600080fd5b50600436106200006a5760003560e01c80630118fa49146200006f5780631f0f992a1462000088578063309c70cf14620000c3578063459b9af914620000e657806345d61ded14620000ff57806382f68683146200012c575b600080fd5b6200008662000080366004620008d0565b62000143565b005b620000b07f5550444154455f55494649454c44444546494e4954494f4e535f524f4c45000081565b6040519081526020015b60405180910390f35b620000b0774352454154455f53544154454d414348494e455f524f4c4560401b81565b620000f0620004a2565b604051620000ba919062000a42565b60015462000113906001600160a01b031681565b6040516001600160a01b039091168152602001620000ba565b620000866200013d36600462000891565b6200053c565b774352454154455f53544154454d414348494e455f524f4c4560401b60405180606001604052806025815260200162002fd560259139620001853383620005c1565b8190620001b05760405162461bcd60e51b8152600401620001a7919062000a42565b60405180910390fd5b506001546040516000916001600160a01b031690869086908490620001d5906200066d565b620001e4949392919062000967565b604051809103906000f08015801562000201573d6000803e3d6000fd5b5090506000816001600160a01b031663710613986040518163ffffffff1660e01b815260040160006040518083038186803b1580156200024057600080fd5b505afa15801562000255573d6000803e3d6000fd5b505050506040513d6000823e601f3d908101601f191682016040526200027f9190810190620007bc565b905060005b6001811015620003fb5760015482516001600160a01b039091169063be038478908290630ef9ae3990869086908110620002ce57634e487b7160e01b600052603260045260246000fd5b60200260200101516040518263ffffffff1660e01b8152600401620002f591815260200190565b60206040518083038186803b1580156200030e57600080fd5b505afa15801562000323573d6000803e3d6000fd5b505050506040513d601f19601f8201168201806040525081019062000349919062000793565b858585815181106200036b57634e487b7160e01b600052603260045260246000fd5b60209081029190910101516040516001600160e01b031960e086901b1681526001600160a01b0393841660048201529290911660248301526044820152306064820152608401600060405180830381600087803b158015620003cc57600080fd5b505af1158015620003e1573d6000803e3d6000fd5b505050508080620003f29062000ac8565b91505062000284565b50600254604051635e48156960e11b81526001600160a01b0384811660048301529091169063bc902ad290602401600060405180830381600087803b1580156200044457600080fd5b505af115801562000459573d6000803e3d6000fd5b50506040516001600160a01b03851681527f9133c0c22004f4e0d1b425e3f564b710f3fda1af39a2e9565a1ce53eda52f7889250602001905060405180910390a1505050505050565b606060008054620004b39062000a8b565b80601f0160208091040260200160405190810160405280929190818152602001828054620004e19062000a8b565b8015620005325780601f10620005065761010080835404028352916020019162000532565b820191906000526020600020905b8154815290600101906020018083116200051457829003601f168201915b5050505050905090565b7f5550444154455f55494649454c44444546494e4954494f4e535f524f4c4500006040518060600160405280602b815260200162002faa602b9139620005833383620005c1565b8190620005a55760405162461bcd60e51b8152600401620001a7919062000a42565b508251620005bb9060009060208601906200067b565b50505050565b6001546000906001600160a01b03161580620006665750600154604051630dace25b60e31b81526001600160a01b0385811660048301523060248301526044820185905290911690636d6712d89060640160206040518083038186803b1580156200062b57600080fd5b505afa15801562000640573d6000803e3d6000fd5b505050506040513d601f19601f820116820180604052508101906200066691906200086f565b9392505050565b6124a38062000b0783390190565b828054620006899062000a8b565b90600052602060002090601f016020900481019282620006ad5760008555620006f8565b82601f10620006c857805160ff1916838001178555620006f8565b82800160010185558215620006f8579182015b82811115620006f8578251825591602001919060010190620006db565b50620007069291506200070a565b5090565b5b808211156200070657600081556001016200070b565b600082601f83011262000732578081fd5b813567ffffffffffffffff8111156200074f576200074f62000af0565b62000764601f8201601f191660200162000a57565b81815284602083860101111562000779578283fd5b816020850160208301379081016020019190915292915050565b600060208284031215620007a5578081fd5b81516001600160a01b038116811462000666578182fd5b60006020808385031215620007cf578182fd5b825167ffffffffffffffff80821115620007e7578384fd5b818501915085601f830112620007fb578384fd5b81518181111562000810576200081062000af0565b8060051b91506200082384830162000a57565b8181528481019084860184860187018a10156200083e578788fd5b8795505b838610156200086257805183526001959095019491860191860162000842565b5098975050505050505050565b60006020828403121562000881578081fd5b8151801515811462000666578182fd5b600060208284031215620008a3578081fd5b813567ffffffffffffffff811115620008ba578182fd5b620008c88482850162000721565b949350505050565b60008060408385031215620008e3578081fd5b82359150602083013567ffffffffffffffff81111562000901578182fd5b6200090f8582860162000721565b9150509250929050565b60008151808452815b81811015620009405760208185018101518683018201520162000922565b81811115620009525782602083870101525b50601f01601f19169290920160200192915050565b600060018060a01b0386168252602085818401526080604084015262000991608084018662000919565b838103606085015284548390600181811c9080831680620009b357607f831692505b868310811415620009d257634e487b7160e01b88526022600452602488fd5b828652602086019550808015620009f2576001811462000a045762000a30565b60ff1985168752878701955062000a30565b60008b815260209020895b8581101562000a2a5781548982015290840190890162000a0f565b88019650505b50939c9b505050505050505050505050565b60006020825262000666602083018462000919565b604051601f8201601f1916810167ffffffffffffffff8111828210171562000a835762000a8362000af0565b604052919050565b600181811c9082168062000aa057607f821691505b6020821081141562000ac257634e487b7160e01b600052602260045260246000fd5b50919050565b600060001982141562000ae957634e487b7160e01b81526011600452602481fd5b5060010190565b634e487b7160e01b600052604160045260246000fdfe60a0604052692927a622afa0a226a4a760b11b60809081526200002790600b9060016200093e565b503480156200003557600080fd5b50604051620024a3380380620024a3833981016040819052620000589162000ad4565b600080546001600160a01b0319166001600160a01b038616179055600d83905581516200008d9060079060208501906200098e565b508051620000a390600c9060208401906200098e565b50620000ae620000b8565b5050505062000bb7565b620000cd6612185c9d995cdd60ca1b620004c5565b620000e2664d616c74696e6760c81b620004c5565b620000f76642726577696e6760c81b620004c5565b620001116b2332b936b2b73a30ba34b7b760a11b620004c5565b620001296926b0ba3ab930ba34b7b760b11b620004c5565b6200013f67426f74746c696e6760c01b620004c5565b62000157692334b730b6102132b2b960b11b620004c5565b620001776612185c9d995cdd60ca1b664d616c74696e6760c81b62000583565b6200019a6612185c9d995cdd60ca1b692927a622afa0a226a4a760b11b62000663565b620001b96612185c9d995cdd60ca1b652330b936b2b960d11b62000663565b620001d9664d616c74696e6760c81b6642726577696e6760c81b62000583565b620001f6664d616c74696e6760c81b636887cb3b60e01b620006e6565b62000219664d616c74696e6760c81b692927a622afa0a226a4a760b11b62000663565b6200023a664d616c74696e6760c81b6726b0b63a39ba32b960c11b62000663565b6200025f6642726577696e6760c81b6b2332b936b2b73a30ba34b7b760a11b62000583565b6200027c6642726577696e6760c81b637f2e09cf60e01b620006e6565b6200029f6642726577696e6760c81b692927a622afa0a226a4a760b11b62000663565b620002be6642726577696e6760c81b65213932bbb2b960d11b62000663565b620002e66b2332b936b2b73a30ba34b7b760a11b6926b0ba3ab930ba34b7b760b11b62000583565b620003086b2332b936b2b73a30ba34b7b760a11b63e528fd4b60e01b620006e6565b620003306b2332b936b2b73a30ba34b7b760a11b692927a622afa0a226a4a760b11b62000663565b620003546b2332b936b2b73a30ba34b7b760a11b65213932bbb2b960d11b62000663565b620003786926b0ba3ab930ba34b7b760b11b67426f74746c696e6760c01b62000583565b620003986926b0ba3ab930ba34b7b760b11b634e4d1b6f60e11b620006e6565b620003be6926b0ba3ab930ba34b7b760b11b692927a622afa0a226a4a760b11b62000663565b620003e06926b0ba3ab930ba34b7b760b11b65213932bbb2b960d11b62000663565b6200040467426f74746c696e6760c01b692334b730b6102132b2b960b11b62000583565b6200042267426f74746c696e6760c01b632faf1a1560e01b620006e6565b6200044667426f74746c696e6760c01b692927a622afa0a226a4a760b11b62000663565b6200046667426f74746c696e6760c01b65213932bbb2b960d11b62000663565b6200048c692334b730b6102132b2b960b11b692927a622afa0a226a4a760b11b62000663565b620004ae692334b730b6102132b2b960b11b65213932bbb2b960d11b62000663565b620004c36612185c9d995cdd60ca1b6200081e565b565b60008181526002602052604090205460ff1615620005365760405162461bcd60e51b815260206004820152602360248201527f746869732073746174652068617320616c7265616479206265656e20637265616044820152621d195960ea1b60648201526084015b60405180910390fd5b6000818152600260205260408120805460ff191660019081179091556003805491820181559091527fc2575a0e9e593c00f959f8c92f12db2869c3395a3b0502d05e2516446f71f85b0155565b600082815260026020526040902054829060ff16620005df5760405162461bcd60e51b8152602060048201526022602482015260008051602062002483833981519152604482015261195d60f21b60648201526084016200052d565b600082815260026020526040902054829060ff166200063b5760405162461bcd60e51b8152602060048201526022602482015260008051602062002483833981519152604482015261195d60f21b60648201526084016200052d565b5050600091825260026020908152604083206005018054600181018255908452922090910155565b600082815260026020526040902054829060ff16620006bf5760405162461bcd60e51b8152602060048201526022602482015260008051602062002483833981519152604482015261195d60f21b60648201526084016200052d565b50600091825260026020818152604084209091018054600181018255908452922090910155565b600082815260026020526040902054829060ff16620007425760405162461bcd60e51b8152602060048201526022602482015260008051602062002483833981519152604482015261195d60f21b60648201526084016200052d565b6001600160e01b0319821660009081526006602052604090205460ff16620007e6576001600160e01b0319821660009081526006602052604081208054600160ff1990911681179091556005805491820181559091527f036b6384b5eca791c62761152d0c79bb0604c104a5fb6f4eb0703f3154bb3db06008820401805463ffffffff60079093166004026101000a928302191660e085901c929092029190911790555b5060009182526002602090815260408084206001600160e01b031990931684526001928301909152909120805460ff19169091179055565b60008181526002602052604090205460ff16620008915760405162461bcd60e51b815260206004820152602a60248201527f74686520696e697469616c20737461746520686173206e6f74206265656e20636044820152691c99585d1959081e595d60b21b60648201526084016200052d565b60045415620009395760405162461bcd60e51b815260206004820152606160248201527f7468652063757272656e742073746174652068617320616c726561647920626560448201527f656e207365742c20736f20796f752063616e6e6f7420636f6e6669677572652060648201527f74686520696e697469616c20737461746520616e64206f7665727269646520696084820152601d60fa1b60a482015260c4016200052d565b600455565b8280548282559060005260206000209081019282156200097c579160200282015b828111156200097c5782518255916020019190600101906200095f565b506200098a92915062000a0a565b5090565b8280546200099c9062000b64565b90600052602060002090601f016020900481019282620009c057600085556200097c565b82601f10620009db57805160ff19168380011785556200097c565b828001600101855582156200097c57918201828111156200097c5782518255916020019190600101906200095f565b5b808211156200098a576000815560010162000a0b565b600082601f83011262000a32578081fd5b81516001600160401b038082111562000a4f5762000a4f62000ba1565b604051601f8301601f19908116603f0116810190828211818310171562000a7a5762000a7a62000ba1565b8160405283815260209250868385880101111562000a96578485fd5b8491505b8382101562000ab9578582018301518183018401529082019062000a9a565b8382111562000aca57848385830101525b9695505050505050565b6000806000806080858703121562000aea578384fd5b84516001600160a01b038116811462000b01578485fd5b6020860151604087015191955093506001600160401b038082111562000b25578384fd5b62000b338883890162000a21565b9350606087015191508082111562000b49578283fd5b5062000b588782880162000a21565b91505092959194509250565b600181811c9082168062000b7957607f821691505b6020821081141562000b9b57634e487b7160e01b600052602260045260246000fd5b50919050565b634e487b7160e01b600052604160045260246000fd5b6118bc8062000bc76000396000f3fe608060405234801561001057600080fd5b506004361061027f5760003560e01c8063694f11051161015c578063ac65527f116100ce578063ddaac67c11610087578063ddaac67c14610534578063e528fd4b1461053c578063ed96b08d1461054f578063ef120a6e14610565578063f4a979a31461056d578063fcbb5907146105805761027f565b8063ac65527f146104da578063c6c3f835146104eb578063c6ef8f2f146104f4578063c8691b2a14610505578063caaf085614610518578063d391014b146105205761027f565b80638885c57f116101205780638885c57f14610458578063910fd10a146104615780639c9a36de14610469578063a2f507841461047c578063a4ddb07114610490578063a7a38f0b146104985761027f565b8063694f110514610419578063710613981461042c5780637888270f146104345780637f2e09cf1461043c57806383c54dd01461044f5761027f565b806345564636116101f557806354eab301116101b957806354eab301146103c557806355afd710146103d957806356c57bd1146103e15780636826953e146103f4578063687e11f9146103fd5780636887cb3b146104065761027f565b8063455646361461036457806345d61ded1461036d5780634de6740e146103985780635415555d146103ad5780635478f468146103bd5761027f565b80632e2bc0d5116102475780632e2bc0d5146102fa5780632faf1a151461030f578063304b1bd11461032457806336423f5414610337578063378aa7011461034a578063390cf613146103525761027f565b806309648a9d146102845780630cc24f5e146102b1578063226c8952146102cf578063256bbd05146102e05780632876c322146102e8575b600080fd5b61029761029236600461160a565b6105a7565b6040516102a8959493929190611701565b60405180910390f35b6102c165213932bbb2b960d11b81565b6040519081526020016102a8565b6102c1664d616c74696e6760c81b81565b600e546102c1565b6102c167426f74746c696e6760c01b81565b6103026108f1565b6040516102a891906116ee565b61032261031d36600461160a565b601255565b005b6102c161033236600461160a565b610957565b6103226103453660046116a2565b610978565b6102c1610995565b6102c16726b0b63a39ba32b960c11b81565b6102c160105481565b600054610380906001600160a01b031681565b6040516001600160a01b0390911681526020016102a8565b6103a0610a15565b6040516102a8919061178c565b6102c1652330b936b2b960d11b81565b6001546102c1565b6102c1692334b730b6102132b2b960b11b81565b6010546102c1565b6103226103ef366004611667565b610aa3565b6102c160125481565b6102c160115481565b61032261041436600461160a565b600e55565b61032261042736600461160a565b610aba565b610302610cf9565b6012546102c1565b61032261044a36600461160a565b600f55565b6102c1600f5481565b6102c1600d5481565b6103a0610d4f565b61032261047736600461160a565b601155565b6102c16926b0ba3ab930ba34b7b760b11b81565b610302610d5c565b6104ab6104a636600461160a565b610db2565b6040516102a8949392919093845260208401929092526001600160a01b03166040830152606082015260800190565b6102c16612185c9d995cdd60ca1b81565b6102c1600e5481565b6102c16642726577696e6760c81b81565b6104ab61051336600461160a565b610df5565b600f546102c1565b6102c1692927a622afa0a226a4a760b11b81565b6011546102c1565b61032261054a36600461160a565b601055565b6102c16b2332b936b2b73a30ba34b7b760a11b81565b6103a0610f2f565b61032261057b366004611622565b610fb8565b6102c17f5550444154455f49504653434f4e5441494e4552484153485f524f4c4500000081565b60008181526002602052604081206005546060918291829185918290819067ffffffffffffffff8111156105eb57634e487b7160e01b600052604160045260246000fd5b604051908082528060200260200182016040528015610614578160200160208202803683370190505b50905060005b60055481101561073f57600260008b815260200190815260200160002060010160006005838154811061065d57634e487b7160e01b600052603260045260246000fd5b6000918252602080832060088304015460079092166004026101000a90910460e01b6001600160e01b031916835282019290925260400190205460ff161561072d57600581815481106106c057634e487b7160e01b600052603260045260246000fd5b90600052602060002090600891828204019190066004029054906101000a900460e01b828460ff168151811061070657634e487b7160e01b600052603260045260246000fd5b6001600160e01b03199092166020928302919091019091015261072a6001846117df565b92505b806107378161183f565b91505061061a565b5060008260ff1667ffffffffffffffff81111561076c57634e487b7160e01b600052604160045260246000fd5b604051908082528060200260200182016040528015610795578160200160208202803683370190505b50905060005b8360ff16811015610819578281815181106107c657634e487b7160e01b600052603260045260246000fd5b60200260200101518282815181106107ee57634e487b7160e01b600052603260045260246000fd5b6001600160e01b031990921660209283029190910190910152806108118161183f565b91505061079b565b50898460050185600201838760060160009054906101000a900460e01b8380548060200260200160405190810160405280929190818152602001828054801561088157602002820191906000526020600020905b81548152602001906001019080831161086d575b50505050509350828054806020026020016040519081016040528092919081815260200182805480156108d357602002820191906000526020600020905b8154815260200190600101908083116108bf575b50505050509250985098509850985098505050505091939590929450565b60045460009081526002602090815260409182902060050180548351818402810184019094528084526060939283018282801561094d57602002820191906000526020600020905b815481526020019060010190808311610939575b5050505050905090565b600b818154811061096757600080fd5b600091825260209091200154905081565b600d82905580516109909060079060208401906114b4565b505050565b60045460009081526002602052604081205460ff16610a0e5760405162461bcd60e51b815260206004820152602a60248201527f74686520696e697469616c20737461746520686173206e6f74206265656e20636044820152691c99585d1959081e595d60b21b60648201526084015b60405180910390fd5b5060045490565b600c8054610a2290611804565b80601f0160208091040260200160405190810160405280929190818152602001828054610a4e90611804565b8015610a9b5780601f10610a7057610100808354040283529160200191610a9b565b820191906000526020600020905b815481529060010190602001808311610a7e57829003601f168201915b505050505081565b8051610ab69060079060208401906114b4565b5050565b600354610b1a5760405162461bcd60e51b815260206004820152602860248201527f746869732073746174656d616368696e6520686173206e6f74206265656e2073604482015267195d1d5c081e595d60c21b6064820152608401610a05565b80610b2c610b26610995565b82611038565b600480548382556000848152600260205260408120919291909101905b8154811015610bc257610bb08386848481548110610b7757634e487b7160e01b600052603260045260246000fd5b90600052602060002090600491828204019190066008029054906101000a90048015611538021767ffffffffffffffff1663ffffffff16565b80610bba8161183f565b915050610b49565b506040805160808101825283815260208082018781523383850181815242606080870191825260018054808201825560009190915296517fb10e2d527612073b26eecdfd717e6a320cf44b4afac2b0732d9fcbe2b7fa0cf660049889029081019190915594517fb10e2d527612073b26eecdfd717e6a320cf44b4afac2b0732d9fcbe2b7fa0cf786015591517fb10e2d527612073b26eecdfd717e6a320cf44b4afac2b0732d9fcbe2b7fa0cf8850180546001600160a01b0319166001600160a01b03909216919091179055517fb10e2d527612073b26eecdfd717e6a320cf44b4afac2b0732d9fcbe2b7fa0cf99093019290925592548451938452918301869052928201527f483a31c379a4b707332853662276a3424ec44f0ccbfc20d78fd9d143694f7669910160405180910390a150505050565b6060600b80548060200260200160405190810160405280929190818152602001828054801561094d5760200282019190600052602060002090815481526020019060010190808311610939575050505050905090565b60078054610a2290611804565b6060600380548060200260200160405190810160405280929190818152602001828054801561094d5760200282019190600052602060002090815481526020019060010190808311610939575050505050905090565b60018181548110610dc257600080fd5b60009182526020909120600490910201805460018201546002830154600390930154919350916001600160a01b03169084565b60008080806001548510610e415760405162461bcd60e51b8152602060048201526013602482015272496e646578206f7574206f6620626f756e647360681b6044820152606401610a05565b60018581548110610e6257634e487b7160e01b600052603260045260246000fd5b90600052602060002090600402016000015460018681548110610e9557634e487b7160e01b600052603260045260246000fd5b90600052602060002090600402016001015460018781548110610ec857634e487b7160e01b600052603260045260246000fd5b906000526020600020906004020160020160009054906101000a90046001600160a01b031660018881548110610f0e57634e487b7160e01b600052603260045260246000fd5b90600052602060002090600402016003015493509350935093509193509193565b606060078054610f3e90611804565b80601f0160208091040260200160405190810160405280929190818152602001828054610f6a90611804565b801561094d5780601f10610f8c5761010080835404028352916020019161094d565b820191906000526020600020905b815481529060010190602001808311610f9a57509395945050505050565b60008281526009602052604090205460ff16611019576008805460018181019092557ff3f7a9fe364faab93b216da50a3214154f22a0a2b415b23a84c8169e8b636ee3018390556000838152600960205260409020805460ff191690911790555b6000828152600a602090815260409091208251610990928401906114b4565b60008281526002602052604090205460ff166110b45760405162461bcd60e51b815260206004820152603560248201527f7468652066726f6d20737461746520686173206e6f74206265656e20636f6e666044820152741a59dd5c9959081a5b881d1a1a5cc81bd89a9958dd605a1b6064820152608401610a05565b60008181526002602052604090205460ff1661112e5760405162461bcd60e51b815260206004820152603360248201527f74686520746f20737461746520686173206e6f74206265656e20636f6e6669676044820152721d5c9959081a5b881d1a1a5cc81bd89a9958dd606a1b6064820152608401610a05565b6111388282611279565b6111bc5760405162461bcd60e51b815260206004820152604960248201527f74686520726571756573746564206e657874207374617465206973206e6f742060448201527f616e20616c6c6f776564206e65787420737461746520666f72207468697320746064820152683930b739b4ba34b7b760b91b608482015260a401610a05565b6111c581611333565b61126f5760405162461bcd60e51b815260206004820152606960248201527f7468652073656e646572206f662074686973207472616e73616374696f6e206460448201527f6f6573206e6f742068617665206120726f6c65207468617420616c6c6f77732060648201527f7472616e736974696f6e206265747765656e207468652066726f6d20616e6420608482015268746f2073746174657360b81b60a482015260c401610a05565b610ab682826113b6565b6000828152600260205260408120600501815b815481101561132b57604080516020810186905201604051602081830303815290604052805190602001208282815481106112d757634e487b7160e01b600052603260045260246000fd5b90600052602060002001546040516020016112f491815260200190565b604051602081830303815290604052805190602001201415611319576001925061132b565b806113238161183f565b91505061128c565b505092915050565b6000818152600260208190526040822001805461134f57600191505b60005b81548110156113af5761138f3383838154811061137f57634e487b7160e01b600052603260045260246000fd5b906000526020600020015461140f565b1561139d57600192506113af565b806113a78161183f565b915050611352565b5050919050565b6000818152600260205260408120600301905b8154811015611409576113f78484848481548110610b7757634e487b7160e01b600052603260045260246000fd5b806114018161183f565b9150506113c9565b50505050565b600080546001600160a01b031615806114ad5750600054604051630dace25b60e31b81526001600160a01b0385811660048301523060248301526044820185905290911690636d6712d89060640160206040518083038186803b15801561147557600080fd5b505afa158015611489573d6000803e3d6000fd5b505050506040513d601f19601f820116820180604052508101906114ad91906115ea565b9392505050565b8280546114c090611804565b90600052602060002090601f0160209004810192826114e25760008555611528565b82601f106114fb57805160ff1916838001178555611528565b82800160010185558215611528579182015b8281111561152857825182559160200191906001019061150d565b5061153492915061154e565b5090565b634e487b7160e01b600052605160045260246000fd5b5b80821115611534576000815560010161154f565b600082601f830112611573578081fd5b813567ffffffffffffffff8082111561158e5761158e611870565b604051601f8301601f19908116603f011681019082821181831017156115b6576115b6611870565b816040528381528660208588010111156115ce578485fd5b8360208701602083013792830160200193909352509392505050565b6000602082840312156115fb578081fd5b815180151581146114ad578182fd5b60006020828403121561161b578081fd5b5035919050565b60008060408385031215611634578081fd5b82359150602083013567ffffffffffffffff811115611651578182fd5b61165d85828601611563565b9150509250929050565b600060208284031215611678578081fd5b813567ffffffffffffffff81111561168e578182fd5b61169a84828501611563565b949350505050565b60008060408385031215611634578182fd5b6000815180845260208085019450808401835b838110156116e3578151875295820195908201906001016116c7565b509495945050505050565b6000602082526114ad60208301846116b4565b6000868252602060a08184015261171b60a08401886116b4565b838103604085015261172d81886116b4565b84810360608601528651808252838801925090830190845b8181101561176b5783516001600160e01b03191683529284019291840191600101611745565b505080935050505063ffffffff60e01b831660808301529695505050505050565b6000602080835283518082850152825b818110156117b85785810183015185820160400152820161179c565b818111156117c95783604083870101525b50601f01601f1916929092016040019392505050565b600060ff821660ff84168060ff038211156117fc576117fc61185a565b019392505050565b600181811c9082168061181857607f821691505b6020821081141561183957634e487b7160e01b600052602260045260246000fd5b50919050565b60006000198214156118535761185361185a565b5060010190565b634e487b7160e01b600052601160045260246000fd5b634e487b7160e01b600052604160045260246000fdfea2646970667358221220f70e77cf75ddce206519ab0999ca6b464c365590f321d570ff274baf9de4457f64736f6c6343000803003374686520737461746520686173206e6f74206265656e2063726561746564207953656e646572206e65656473205550444154455f55494649454c44444546494e4954494f4e535f524f4c4553656e646572206e65656473204352454154455f53544154454d414348494e455f524f4c45a264697066735822122018eaaff04c9ea878a68e32dc25821cdb2d8008dcd5d8e87a8d4d9514045b361a64736f6c63430008030033",
  "immutableReferences": {},
  "source": "/**\n * Copyright (C) SettleMint NV - All Rights Reserved\n *\n * Use of this file is strictly prohibited without an active license agreement.\n * Distribution of this file, via any medium, is strictly prohibited.\n *\n * For license inquiries, contact hello@settlemint.com\n *\n * SPDX-License-Identifier: UNLICENSED\n */\n\npragma solidity ^0.8.0;\n\nimport '../_library//provenance/statemachine/StateMachineFactory.sol';\nimport './Traceability.sol';\nimport './TraceabilityRegistry.sol';\n\n/**\n * @title Factory contract for generic state machines\n */\ncontract TraceabilityFactory is StateMachineFactory {\n  constructor(GateKeeper gateKeeper, TraceabilityRegistry registry) StateMachineFactory(gateKeeper, registry) {}\n\n  /**\n   * @notice Create new generic instance\n   * @dev Factory method to create a new state machine. Emits StateMachineCreated event.\n   * @param harvestDate the fharvest date of  the batch\n   * @param ipfsFieldContainerHash ipfs hash of vehicle metadata\n   */\n  function create(uint256 harvestDate, string memory ipfsFieldContainerHash)\n    public\n    authWithCustomReason(CREATE_STATEMACHINE_ROLE, 'Sender needs CREATE_STATEMACHINE_ROLE')\n  {\n    Traceability traceability = new Traceability(\n      address(gateKeeper),\n      harvestDate,\n      ipfsFieldContainerHash,\n      _uiFieldDefinitionsHash\n    );\n\n    // Give every role registry a single permission on the newly created expense.\n    bytes32[] memory roles = traceability.getRoles();\n    for (uint256 i = 0; i < 1; i++) {\n      gateKeeper.createPermission(\n        gateKeeper.getRoleRegistryAddress(roles[i]),\n        address(traceability),\n        roles[i],\n        address(this)\n      );\n    }\n    _registry.insert(address(traceability));\n    emit StateMachineCreated(address(traceability));\n  }\n}\n",
  "sourcePath": "/home/coder/project/contracts/traceability/TraceabilityFactory.sol",
  "compiler": {
    "name": "solc",
    "version": "0.8.3+commit.8d00100c.Emscripten.clang"
  },
  "schemaVersion": "3.4.3",
  "updatedAt": "2021-09-21T08:53:37.000Z",
  "networkType": "ethereum",
  "devdoc": {
    "kind": "dev",
    "methods": {
      "create(uint256,string)": {
        "details": "Factory method to create a new state machine. Emits StateMachineCreated event.",
        "params": {
          "harvestDate": "the fharvest date of  the batch",
          "ipfsFieldContainerHash": "ipfs hash of vehicle metadata"
        }
      },
      "setUIFieldDefinitionsHash(string)": {
        "params": {
          "uiFieldDefinitionsHash": "value to assign to _uiFieldDefinitionsHash"
        }
      }
    },
    "title": "Factory contract for generic state machines",
    "version": 1
  },
  "userdoc": {
    "kind": "user",
    "methods": {
      "create(uint256,string)": {
        "notice": "Create new generic instance"
      },
      "getUIFieldDefinitionsHash()": {
        "notice": "Retrieves the value of `_uiFieldDefinitionsHash`"
      },
      "setUIFieldDefinitionsHash(string)": {
        "notice": "Sets the value of `_uiFieldDefinitionsHash`"
      }
    },
    "version": 1
  }
}