{
  "contractName": "Upgradeable",
  "abi": [
    {
      "inputs": [
        {
          "internalType": "address",
          "name": "gateKeeper",
          "type": "address"
        }
      ],
      "stateMutability": "nonpayable",
      "type": "constructor"
    },
    {
      "anonymous": false,
      "inputs": [
        {
          "indexed": false,
          "internalType": "address",
          "name": "originalTarget",
          "type": "address"
        },
        {
          "indexed": false,
          "internalType": "address",
          "name": "newTarget",
          "type": "address"
        }
      ],
      "name": "TargetChanged",
      "type": "event"
    },
    {
      "inputs": [],
      "name": "UPGRADE_CONTRACT",
      "outputs": [
        {
          "internalType": "bytes32",
          "name": "",
          "type": "bytes32"
        }
      ],
      "stateMutability": "view",
      "type": "function"
    },
    {
      "inputs": [],
      "name": "_target",
      "outputs": [
        {
          "internalType": "address",
          "name": "",
          "type": "address"
        }
      ],
      "stateMutability": "view",
      "type": "function"
    },
    {
      "inputs": [],
      "name": "gateKeeper",
      "outputs": [
        {
          "internalType": "contract GateKeeper",
          "name": "",
          "type": "address"
        }
      ],
      "stateMutability": "view",
      "type": "function"
    }
  ],
  "bytecode": "0x608060405234801561001057600080fd5b5060405161016e38038061016e83398101604081905261002f91610054565b600080546001600160a01b0319166001600160a01b0392909216919091179055610082565b600060208284031215610065578081fd5b81516001600160a01b038116811461007b578182fd5b9392505050565b60de806100906000396000f3fe6080604052348015600f57600080fd5b5060043610603c5760003560e01c806317f821391460415780632ac8bb1514606d57806345d61ded146096575b600080fd5b605a6f155411d490511157d0d3d395149050d560821b81565b6040519081526020015b60405180910390f35b600154607f906001600160a01b031681565b6040516001600160a01b0390911681526020016064565b600054607f906001600160a01b03168156fea2646970667358221220090e466b7054732e427cbeb36fd5630bca3e4652d12555994c56b1a933897ff364736f6c63430008030033",
  "immutableReferences": {},
  "source": "// SPDX-License-Identifier: UNLICENSED\n/**\n * Copyright (C) SettleMint NV - All Rights Reserved\n *\n * Use of this file is strictly prohibited without an active license agreement.\n * Distribution of this file, via any medium, is strictly prohibited.\n *\n * For license inquiries, contact hello@settlemint.com\n */\n\npragma solidity ^0.8.0;\n\nimport '../../authentication/Secured.sol';\n\n/**\n * Base contract that all upgradeable contracts should use\n *\n * Contracts implementing this interface are all called using delegatecall from\n * a dispatcher. As a result, _dest variables are shared with the\n * dispatcher contract, which allows the called contract to update these at will.\n *\n * _dest is the address of the contract currently implementing all the\n * functionality of the composite contract. Contracts should update this by\n * calling the internal function `replace`, which updates _dest.\n *\n * When upgrading a contract, restrictions on permissible changes to the set of\n * storage variables must be observed. New variables may be added, but existing\n * ones may not be deleted or replaced. Changing variable names is acceptable.\n * Structs in arrays may not be modified, but structs in maps can be, following\n * the same rules described above.\n */\n\ncontract Upgradeable is Secured {\n  bytes32 public constant UPGRADE_CONTRACT = 'UPGRADE_CONTRACT';\n  address public _target;\n\n  event TargetChanged(address originalTarget, address newTarget);\n\n  constructor(address gateKeeper) Secured(gateKeeper) {}\n\n  /**\n   * Performs a handover to a new implementing contract.\n   */\n  function replace(address target) internal auth(UPGRADE_CONTRACT) {\n    emit TargetChanged(_target, target);\n    _target = target;\n  }\n}\n",
  "sourcePath": "/home/coder/project/contracts/_library/utility/upgrading/Upgradeable.sol",
  "compiler": {
    "name": "solc",
    "version": "0.8.3+commit.8d00100c.Emscripten.clang"
  },
  "schemaVersion": "3.4.3",
  "updatedAt": "2021-09-21T08:20:58.479Z",
  "devdoc": {
    "kind": "dev",
    "methods": {},
    "version": 1
  },
  "userdoc": {
    "kind": "user",
    "methods": {},
    "notice": "Base contract that all upgradeable contracts should use Contracts implementing this interface are all called using delegatecall from a dispatcher. As a result, _dest variables are shared with the dispatcher contract, which allows the called contract to update these at will. _dest is the address of the contract currently implementing all the functionality of the composite contract. Contracts should update this by calling the internal function `replace`, which updates _dest. When upgrading a contract, restrictions on permissible changes to the set of storage variables must be observed. New variables may be added, but existing ones may not be deleted or replaced. Changing variable names is acceptable. Structs in arrays may not be modified, but structs in maps can be, following the same rules described above.",
    "version": 1
  }
}