{
  "contractName": "VehicleFactory",
  "abi": [
    {
      "inputs": [
        {
          "internalType": "contract GateKeeper",
          "name": "gateKeeper",
          "type": "address"
        },
        {
          "internalType": "contract VehicleRegistry",
          "name": "registry",
          "type": "address"
        }
      ],
      "stateMutability": "nonpayable",
      "type": "constructor"
    },
    {
      "anonymous": false,
      "inputs": [
        {
          "indexed": false,
          "internalType": "address",
          "name": "statemachine",
          "type": "address"
        }
      ],
      "name": "StateMachineCreated",
      "type": "event"
    },
    {
      "inputs": [],
      "name": "CREATE_STATEMACHINE_ROLE",
      "outputs": [
        {
          "internalType": "bytes32",
          "name": "",
          "type": "bytes32"
        }
      ],
      "stateMutability": "view",
      "type": "function"
    },
    {
      "inputs": [],
      "name": "UPDATE_UIFIELDDEFINITIONS_ROLE",
      "outputs": [
        {
          "internalType": "bytes32",
          "name": "",
          "type": "bytes32"
        }
      ],
      "stateMutability": "view",
      "type": "function"
    },
    {
      "inputs": [],
      "name": "gateKeeper",
      "outputs": [
        {
          "internalType": "contract GateKeeper",
          "name": "",
          "type": "address"
        }
      ],
      "stateMutability": "view",
      "type": "function"
    },
    {
      "inputs": [],
      "name": "getUIFieldDefinitionsHash",
      "outputs": [
        {
          "internalType": "string",
          "name": "",
          "type": "string"
        }
      ],
      "stateMutability": "view",
      "type": "function"
    },
    {
      "inputs": [
        {
          "internalType": "string",
          "name": "uiFieldDefinitionsHash",
          "type": "string"
        }
      ],
      "name": "setUIFieldDefinitionsHash",
      "outputs": [],
      "stateMutability": "nonpayable",
      "type": "function"
    },
    {
      "inputs": [
        {
          "internalType": "string",
          "name": "vin",
          "type": "string"
        },
        {
          "internalType": "address",
          "name": "owner",
          "type": "address"
        },
        {
          "internalType": "uint256",
          "name": "mileage",
          "type": "uint256"
        },
        {
          "internalType": "string",
          "name": "ipfsFieldContainerHash",
          "type": "string"
        }
      ],
      "name": "create",
      "outputs": [],
      "stateMutability": "nonpayable",
      "type": "function"
    }
  ],
  "bytecode": "0x608060405234801561001057600080fd5b506040516134d63803806134d683398101604081905261002f91610060565b600180546001600160a01b039384166001600160a01b031991821617909155600280549290931691161790556100b1565b60008060408385031215610072578182fd5b825161007d81610099565b602084015190925061008e81610099565b809150509250929050565b6001600160a01b03811681146100ae57600080fd5b50565b613416806100c06000396000f3fe60806040523480156200001157600080fd5b50600436106200006a5760003560e01c80631f0f992a146200006f578063309c70cf14620000aa578063459b9af914620000cd57806345d61ded14620000e657806382f686831462000113578063bfc0cbfb146200012c575b600080fd5b620000977f5550444154455f55494649454c44444546494e4954494f4e535f524f4c45000081565b6040519081526020015b60405180910390f35b62000097774352454154455f53544154454d414348494e455f524f4c4560401b81565b620000d762000143565b604051620000a1919062000aed565b600154620000fa906001600160a01b031681565b6040516001600160a01b039091168152602001620000a1565b6200012a62000124366004620008da565b620001dd565b005b6200012a6200013d36600462000919565b6200026b565b606060008054620001549062000b36565b80601f0160208091040260200160405190810160405280929190818152602001828054620001829062000b36565b8015620001d35780601f10620001a757610100808354040283529160200191620001d3565b820191906000526020600020905b815481529060010190602001808311620001b557829003601f168201915b5050505050905090565b7f5550444154455f55494649454c44444546494e4954494f4e535f524f4c4500006040518060600160405280602b815260200162003391602b913962000224338362000614565b81906200024f5760405162461bcd60e51b815260040162000246919062000aed565b60405180910390fd5b50825162000265906000906020860190620006c0565b50505050565b774352454154455f53544154454d414348494e455f524f4c4560401b604051806060016040528060258152602001620033bc60259139620002ad338362000614565b8190620002cf5760405162461bcd60e51b815260040162000246919062000aed565b5085518690620003165760405162461bcd60e51b815260206004820152601160248201527010481d9a5b881a5cc81c995c5d5a5c9959607a1b604482015260640162000246565b6000600160009054906101000a90046001600160a01b031688888888600060405162000342906200074f565b6200035396959493929190620009ef565b604051809103906000f08015801562000370573d6000803e3d6000fd5b5090506000816001600160a01b031663710613986040518163ffffffff1660e01b815260040160006040518083038186803b158015620003af57600080fd5b505afa158015620003c4573d6000803e3d6000fd5b505050506040513d6000823e601f3d908101601f19168201604052620003ee919081019062000805565b905060005b81518110156200056a5760015482516001600160a01b039091169063be038478908290630ef9ae39908690869081106200043d57634e487b7160e01b600052603260045260246000fd5b60200260200101516040518263ffffffff1660e01b81526004016200046491815260200190565b60206040518083038186803b1580156200047d57600080fd5b505afa15801562000492573d6000803e3d6000fd5b505050506040513d601f19601f82011682018060405250810190620004b89190620007e6565b85858581518110620004da57634e487b7160e01b600052603260045260246000fd5b60209081029190910101516040516001600160e01b031960e086901b1681526001600160a01b0393841660048201529290911660248301526044820152306064820152608401600060405180830381600087803b1580156200053b57600080fd5b505af115801562000550573d6000803e3d6000fd5b505050508080620005619062000b73565b915050620003f3565b50600254604051635e48156960e11b81526001600160a01b0384811660048301529091169063bc902ad290602401600060405180830381600087803b158015620005b357600080fd5b505af1158015620005c8573d6000803e3d6000fd5b50506040516001600160a01b03851681527f9133c0c22004f4e0d1b425e3f564b710f3fda1af39a2e9565a1ce53eda52f7889250602001905060405180910390a1505050505050505050565b6001546000906001600160a01b03161580620006b95750600154604051630dace25b60e31b81526001600160a01b0385811660048301523060248301526044820185905290911690636d6712d89060640160206040518083038186803b1580156200067e57600080fd5b505afa15801562000693573d6000803e3d6000fd5b505050506040513d601f19601f82011682018060405250810190620006b99190620008b8565b9392505050565b828054620006ce9062000b36565b90600052602060002090601f016020900481019282620006f257600085556200073d565b82601f106200070d57805160ff19168380011785556200073d565b828001600101855582156200073d579182015b828111156200073d57825182559160200191906001019062000720565b506200074b9291506200075d565b5090565b6127c68062000bcb83390190565b5b808211156200074b57600081556001016200075e565b600082601f83011262000785578081fd5b813567ffffffffffffffff811115620007a257620007a262000b9b565b620007b7601f8201601f191660200162000b02565b818152846020838601011115620007cc578283fd5b816020850160208301379081016020019190915292915050565b600060208284031215620007f8578081fd5b8151620006b98162000bb1565b6000602080838503121562000818578182fd5b825167ffffffffffffffff8082111562000830578384fd5b818501915085601f83011262000844578384fd5b81518181111562000859576200085962000b9b565b8060051b91506200086c84830162000b02565b8181528481019084860184860187018a101562000887578788fd5b8795505b83861015620008ab5780518352600195909501949186019186016200088b565b5098975050505050505050565b600060208284031215620008ca578081fd5b81518015158114620006b9578182fd5b600060208284031215620008ec578081fd5b813567ffffffffffffffff81111562000903578182fd5b620009118482850162000774565b949350505050565b600080600080608085870312156200092f578283fd5b843567ffffffffffffffff8082111562000947578485fd5b620009558883890162000774565b955060208701359150620009698262000bb1565b909350604086013592506060860135908082111562000986578283fd5b50620009958782880162000774565b91505092959194509250565b60008151808452815b81811015620009c857602081850181015186830182015201620009aa565b81811115620009da5782602083870101525b50601f01601f19169290920160200192915050565b600060018060a01b038089168352602060c08185015262000a1460c085018a620009a1565b8289166040860152876060860152848103608086015262000a368188620009a1565b92505083820360a085015282855484600182811c91508083168062000a5c57607f831692505b85831081141562000a7b57634e487b7160e01b88526022600452602488fd5b82875260208701965080801562000a9b576001811462000aad5762000ad9565b60ff1985168852868801955062000ad9565b60008b815260209020895b8581101562000ad35781548a82015290840190880162000ab8565b89019650505b50939e9d5050505050505050505050505050565b600060208252620006b96020830184620009a1565b604051601f8201601f1916810167ffffffffffffffff8111828210171562000b2e5762000b2e62000b9b565b604052919050565b600181811c9082168062000b4b57607f821691505b6020821081141562000b6d57634e487b7160e01b600052602260045260246000fd5b50919050565b600060001982141562000b9457634e487b7160e01b81526011600452602481fd5b5060010190565b634e487b7160e01b600052604160045260246000fd5b6001600160a01b038116811462000bc757600080fd5b5056fe610120604052692927a622afa0a226a4a760b11b6080908152702927a622afa6a0a72aa320a1aa2aa922a960791b60a052691493d31157d051d1539560b21b60c0526d2927a622afa922a3aaa620aa27a960911b60e052682927a622afaaa9a2a960b91b610100526200007790600b90600562000a33565b503480156200008557600080fd5b50604051620027c6380380620027c6833981016040819052620000a89162000be6565b600080546001600160a01b0319166001600160a01b0388161790558451620000d890600d90602088019062000a83565b50600e80546001600160a01b0319166001600160a01b038616179055600f83905581516200010e90600790602085019062000a83565b5080516200012490600c90602084019062000a83565b506200012f6200013b565b50505050505062000cf5565b620001667f53544154455f56494e5f52454749535445524544000000000000000000000000620006f2565b6200018060008051602062002766833981519152620006f2565b6200019a60008051602062002706833981519152620006f2565b620001b4600080516020620027a6833981519152620006f2565b620001ce60008051602062002786833981519152620006f2565b620001e860008051602062002746833981519152620006f2565b62000202600080516020620026e6833981519152620006f2565b6200021c60008051602062002726833981519152620006f2565b620002577f53544154455f56494e5f5245474953544552454400000000000000000000000060008051602062002766833981519152620007b0565b6200027f60008051602062002766833981519152692927a622afa0a226a4a760b11b62000890565b620002ae60008051602062002766833981519152702927a622afa6a0a72aa320a1aa2aa922a960791b62000890565b620002d86000805160206200276683398151915260008051602062002706833981519152620007b0565b6200030260008051602062002766833981519152600080516020620027a6833981519152620007b0565b6200032a60008051602062002706833981519152692927a622afa0a226a4a760b11b62000890565b6200035960008051602062002706833981519152702927a622afa6a0a72aa320a1aa2aa922a960791b62000890565b6200038160008051602062002706833981519152691493d31157d051d1539560b21b62000890565b620003ad600080516020620027068339815191526d2927a622afa922a3aaa620aa27a960911b62000890565b620003d760008051602062002706833981519152600080516020620027a6833981519152620007b0565b620003ff600080516020620027a6833981519152692927a622afa0a226a4a760b11b62000890565b62000427600080516020620027a6833981519152691493d31157d051d1539560b21b62000890565b62000453600080516020620027a68339815191526d2927a622afa922a3aaa620aa27a960911b62000890565b6200047d600080516020620027a683398151915260008051602062002786833981519152620007b0565b620004a560008051602062002786833981519152692927a622afa0a226a4a760b11b62000890565b620004d1600080516020620027868339815191526d2927a622afa922a3aaa620aa27a960911b62000890565b620004fb6000805160206200278683398151915260008051602062002726833981519152620007b0565b6200052560008051602062002786833981519152600080516020620026e6833981519152620007b0565b6200054f6000805160206200278683398151915260008051602062002746833981519152620007b0565b6200057760008051602062002726833981519152692927a622afa0a226a4a760b11b62000890565b6200059f60008051602062002726833981519152691493d31157d051d1539560b21b62000890565b620005cb600080516020620027268339815191526d2927a622afa922a3aaa620aa27a960911b62000890565b620005f3600080516020620026e6833981519152692927a622afa0a226a4a760b11b62000890565b6200061b600080516020620026e6833981519152691493d31157d051d1539560b21b62000890565b62000647600080516020620026e68339815191526d2927a622afa922a3aaa620aa27a960911b62000890565b6200066f60008051602062002746833981519152692927a622afa0a226a4a760b11b62000890565b6200069b600080516020620027468339815191526d2927a622afa922a3aaa620aa27a960911b62000890565b620006c5600080516020620027a683398151915260008051602062002786833981519152620007b0565b620006f07f53544154455f56494e5f5245474953544552454400000000000000000000000062000913565b565b60008181526002602052604090205460ff1615620007635760405162461bcd60e51b815260206004820152602360248201527f746869732073746174652068617320616c7265616479206265656e20637265616044820152621d195960ea1b60648201526084015b60405180910390fd5b6000818152600260205260408120805460ff191660019081179091556003805491820181559091527fc2575a0e9e593c00f959f8c92f12db2869c3395a3b0502d05e2516446f71f85b0155565b600082815260026020526040902054829060ff166200080c5760405162461bcd60e51b81526020600482015260226024820152600080516020620026c6833981519152604482015261195d60f21b60648201526084016200075a565b600082815260026020526040902054829060ff16620008685760405162461bcd60e51b81526020600482015260226024820152600080516020620026c6833981519152604482015261195d60f21b60648201526084016200075a565b5050600091825260026020908152604083206005018054600181018255908452922090910155565b600082815260026020526040902054829060ff16620008ec5760405162461bcd60e51b81526020600482015260226024820152600080516020620026c6833981519152604482015261195d60f21b60648201526084016200075a565b50600091825260026020818152604084209091018054600181018255908452922090910155565b60008181526002602052604090205460ff16620009865760405162461bcd60e51b815260206004820152602a60248201527f74686520696e697469616c20737461746520686173206e6f74206265656e20636044820152691c99585d1959081e595d60b21b60648201526084016200075a565b6004541562000a2e5760405162461bcd60e51b815260206004820152606160248201527f7468652063757272656e742073746174652068617320616c726561647920626560448201527f656e207365742c20736f20796f752063616e6e6f7420636f6e6669677572652060648201527f74686520696e697469616c20737461746520616e64206f7665727269646520696084820152601d60fa1b60a482015260c4016200075a565b600455565b82805482825590600052602060002090810192821562000a71579160200282015b8281111562000a7157825182559160200191906001019062000a54565b5062000a7f92915062000aff565b5090565b82805462000a919062000ca2565b90600052602060002090601f01602090048101928262000ab5576000855562000a71565b82601f1062000ad057805160ff191683800117855562000a71565b8280016001018555821562000a71579182018281111562000a7157825182559160200191906001019062000a54565b5b8082111562000a7f576000815560010162000b00565b80516001600160a01b038116811462000b2e57600080fd5b919050565b600082601f83011262000b44578081fd5b81516001600160401b038082111562000b615762000b6162000cdf565b604051601f8301601f19908116603f0116810190828211818310171562000b8c5762000b8c62000cdf565b8160405283815260209250868385880101111562000ba8578485fd5b8491505b8382101562000bcb578582018301518183018401529082019062000bac565b8382111562000bdc57848385830101525b9695505050505050565b60008060008060008060c0878903121562000bff578182fd5b62000c0a8762000b16565b60208801519096506001600160401b038082111562000c27578384fd5b62000c358a838b0162000b33565b965062000c4560408a0162000b16565b955060608901519450608089015191508082111562000c62578384fd5b62000c708a838b0162000b33565b935060a089015191508082111562000c86578283fd5b5062000c9589828a0162000b33565b9150509295509295509295565b600181811c9082168062000cb757607f821691505b6020821081141562000cd957634e487b7160e01b600052602260045260246000fd5b50919050565b634e487b7160e01b600052604160045260246000fd5b6119c18062000d056000396000f3fe608060405234801561001057600080fd5b50600436106101f05760003560e01c80638e2975631161010f578063c8691b2a116100a2578063ef120a6e11610071578063ef120a6e146104bf578063f4a979a3146104c7578063fa3c4811146104da578063fcbb5907146104f2576101f0565b8063c8691b2a14610469578063d391014b1461047c578063e3bbe79e14610490578063e9ac2d8b146104a4576101f0565b8063a4ddb071116100de578063a4ddb071146103ec578063a7a38f0b146103f4578063b941719e14610436578063c3f0cc1414610449576101f0565b80638e29756314610383578063910fd10a146103aa57806395d5d488146103b25780639dc393e4146103c5576101f0565b80633e44694f1161018757806356c57bd11161015657806356c57bd1146103335780635f9d22c714610348578063694f110514610368578063710613981461037b576101f0565b80633e44694f146102e357806345d61ded146102f85780634de6740e146103235780635478f4681461032b576101f0565b80632e2bc0d5116101c35780632e2bc0d5146102955780632f957bd2146102aa578063304b1bd1146102c8578063378aa701146102db576101f0565b806309648a9d146101f557806309decd20146102225780631a83f4bd1461024e578063279f509a1461026e575b600080fd5b6102086102033660046115da565b610519565b604051610219959493929190611806565b60405180910390f35b6102407314d510551157d5925397d49151d254d51154915160621b81565b604051908152602001610219565b6102407514d510551157d591521250d31157d4d0d4905414115160521b81565b6102407f53544154455f56454849434c455f494e5f4f5045524154494f4e00000000000081565b61029d610863565b60405161021991906117f3565b6102407353544154455f4341525f494e5f434f554e54525960601b81565b6102406102d63660046115da565b6108c9565b6102406108ea565b6102eb61096a565b6040516102199190611891565b60005461030b906001600160a01b031681565b6040516001600160a01b039091168152602001610219565b6102eb610992565b600154610240565b610346610341366004611637565b610a20565b005b6102407514d510551157d0d05497d3505395519050d51554915160521b81565b6103466103763660046115da565b610a37565b61029d610c76565b6102407f53544154455f4c4943454e53455f504c4154455f41535349474e45440000000081565b6102eb610ccc565b6103466103c0366004611672565b610cd9565b6102407f53544154455f56454849434c455f494d504f554e44454400000000000000000081565b61029d610d27565b6104076104023660046115da565b610d7d565b604051610219949392919093845260208401929092526001600160a01b03166040830152606082015260800190565b610240682927a622afaaa9a2a960b91b81565b6102407514d510551157d591521250d31157d1561413d495115160521b81565b6104076104773660046115da565b610dc0565b610240692927a622afa0a226a4a760b11b81565b610240691493d31157d051d1539560b21b81565b610240702927a622afa6a0a72aa320a1aa2aa922a960791b81565b6102eb610efa565b6103466104d53660046115f2565b610f83565b6102406d2927a622afa922a3aaa620aa27a960911b81565b6102407f5550444154455f49504653434f4e5441494e4552484153485f524f4c4500000081565b60008181526002602052604081206005546060918291829185918290819067ffffffffffffffff81111561055d57634e487b7160e01b600052604160045260246000fd5b604051908082528060200260200182016040528015610586578160200160208202803683370190505b50905060005b6005548110156106b157600260008b81526020019081526020016000206001016000600583815481106105cf57634e487b7160e01b600052603260045260246000fd5b6000918252602080832060088304015460079092166004026101000a90910460e01b6001600160e01b031916835282019290925260400190205460ff161561069f576005818154811061063257634e487b7160e01b600052603260045260246000fd5b90600052602060002090600891828204019190066004029054906101000a900460e01b828460ff168151811061067857634e487b7160e01b600052603260045260246000fd5b6001600160e01b03199092166020928302919091019091015261069c6001846118e4565b92505b806106a981611944565b91505061058c565b5060008260ff1667ffffffffffffffff8111156106de57634e487b7160e01b600052604160045260246000fd5b604051908082528060200260200182016040528015610707578160200160208202803683370190505b50905060005b8360ff1681101561078b5782818151811061073857634e487b7160e01b600052603260045260246000fd5b602002602001015182828151811061076057634e487b7160e01b600052603260045260246000fd5b6001600160e01b0319909216602092830291909101909101528061078381611944565b91505061070d565b50898460050185600201838760060160009054906101000a900460e01b838054806020026020016040519081016040528092919081815260200182805480156107f357602002820191906000526020600020905b8154815260200190600101908083116107df575b505050505093508280548060200260200160405190810160405280929190818152602001828054801561084557602002820191906000526020600020905b815481526020019060010190808311610831575b50505050509250985098509850985098505050505091939590929450565b6004546000908152600260209081526040918290206005018054835181840281018401909452808452606093928301828280156108bf57602002820191906000526020600020905b8154815260200190600101908083116108ab575b5050505050905090565b600b81815481106108d957600080fd5b600091825260209091200154905081565b60045460009081526002602052604081205460ff166109635760405162461bcd60e51b815260206004820152602a60248201527f74686520696e697469616c20737461746520686173206e6f74206265656e20636044820152691c99585d1959081e595d60b21b60648201526084015b60405180910390fd5b5060045490565b6060600d60405160200161097e9190611736565b604051602081830303815290604052905090565b600c805461099f90611909565b80601f01602080910402602001604051908101604052809291908181526020018280546109cb90611909565b8015610a185780601f106109ed57610100808354040283529160200191610a18565b820191906000526020600020905b8154815290600101906020018083116109fb57829003601f168201915b505050505081565b8051610a33906007906020840190611484565b5050565b600354610a975760405162461bcd60e51b815260206004820152602860248201527f746869732073746174656d616368696e6520686173206e6f74206265656e2073604482015267195d1d5c081e595d60c21b606482015260840161095a565b80610aa9610aa36108ea565b82611008565b600480548382556000848152600260205260408120919291909101905b8154811015610b3f57610b2d8386848481548110610af457634e487b7160e01b600052603260045260246000fd5b90600052602060002090600491828204019190066008029054906101000a90048015611508021767ffffffffffffffff1663ffffffff16565b80610b3781611944565b915050610ac6565b506040805160808101825283815260208082018781523383850181815242606080870191825260018054808201825560009190915296517fb10e2d527612073b26eecdfd717e6a320cf44b4afac2b0732d9fcbe2b7fa0cf660049889029081019190915594517fb10e2d527612073b26eecdfd717e6a320cf44b4afac2b0732d9fcbe2b7fa0cf786015591517fb10e2d527612073b26eecdfd717e6a320cf44b4afac2b0732d9fcbe2b7fa0cf8850180546001600160a01b0319166001600160a01b03909216919091179055517fb10e2d527612073b26eecdfd717e6a320cf44b4afac2b0732d9fcbe2b7fa0cf99093019290925592548451938452918301869052928201527f483a31c379a4b707332853662276a3424ec44f0ccbfc20d78fd9d143694f7669910160405180910390a150505050565b6060600b8054806020026020016040519081016040528092919081815260200182805480156108bf57602002820191906000526020600020908154815260200190600101908083116108ab575050505050905090565b6007805461099f90611909565b8351610cec90600d906020870190611484565b50600e80546001600160a01b0319166001600160a01b038516179055600f8290558051610d20906007906020840190611484565b5050505050565b606060038054806020026020016040519081016040528092919081815260200182805480156108bf57602002820191906000526020600020908154815260200190600101908083116108ab575050505050905090565b60018181548110610d8d57600080fd5b60009182526020909120600490910201805460018201546002830154600390930154919350916001600160a01b03169084565b60008080806001548510610e0c5760405162461bcd60e51b8152602060048201526013602482015272496e646578206f7574206f6620626f756e647360681b604482015260640161095a565b60018581548110610e2d57634e487b7160e01b600052603260045260246000fd5b90600052602060002090600402016000015460018681548110610e6057634e487b7160e01b600052603260045260246000fd5b90600052602060002090600402016001015460018781548110610e9357634e487b7160e01b600052603260045260246000fd5b906000526020600020906004020160020160009054906101000a90046001600160a01b031660018881548110610ed957634e487b7160e01b600052603260045260246000fd5b90600052602060002090600402016003015493509350935093509193509193565b606060078054610f0990611909565b80601f0160208091040260200160405190810160405280929190818152602001828054610f3590611909565b80156108bf5780601f10610f57576101008083540402835291602001916108bf565b820191906000526020600020905b815481529060010190602001808311610f6557509395945050505050565b60008281526009602052604090205460ff16610fe4576008805460018181019092557ff3f7a9fe364faab93b216da50a3214154f22a0a2b415b23a84c8169e8b636ee3018390556000838152600960205260409020805460ff191690911790555b6000828152600a60209081526040909120825161100392840190611484565b505050565b60008281526002602052604090205460ff166110845760405162461bcd60e51b815260206004820152603560248201527f7468652066726f6d20737461746520686173206e6f74206265656e20636f6e666044820152741a59dd5c9959081a5b881d1a1a5cc81bd89a9958dd605a1b606482015260840161095a565b60008181526002602052604090205460ff166110fe5760405162461bcd60e51b815260206004820152603360248201527f74686520746f20737461746520686173206e6f74206265656e20636f6e6669676044820152721d5c9959081a5b881d1a1a5cc81bd89a9958dd606a1b606482015260840161095a565b6111088282611249565b61118c5760405162461bcd60e51b815260206004820152604960248201527f74686520726571756573746564206e657874207374617465206973206e6f742060448201527f616e20616c6c6f776564206e65787420737461746520666f72207468697320746064820152683930b739b4ba34b7b760b91b608482015260a40161095a565b61119581611303565b61123f5760405162461bcd60e51b815260206004820152606960248201527f7468652073656e646572206f662074686973207472616e73616374696f6e206460448201527f6f6573206e6f742068617665206120726f6c65207468617420616c6c6f77732060648201527f7472616e736974696f6e206265747765656e207468652066726f6d20616e6420608482015268746f2073746174657360b81b60a482015260c40161095a565b610a338282611386565b6000828152600260205260408120600501815b81548110156112fb57604080516020810186905201604051602081830303815290604052805190602001208282815481106112a757634e487b7160e01b600052603260045260246000fd5b90600052602060002001546040516020016112c491815260200190565b6040516020818303038152906040528051906020012014156112e957600192506112fb565b806112f381611944565b91505061125c565b505092915050565b6000818152600260208190526040822001805461131f57600191505b60005b815481101561137f5761135f3383838154811061134f57634e487b7160e01b600052603260045260246000fd5b90600052602060002001546113df565b1561136d576001925061137f565b8061137781611944565b915050611322565b5050919050565b6000818152600260205260408120600301905b81548110156113d9576113c78484848481548110610af457634e487b7160e01b600052603260045260246000fd5b806113d181611944565b915050611399565b50505050565b600080546001600160a01b0316158061147d5750600054604051630dace25b60e31b81526001600160a01b0385811660048301523060248301526044820185905290911690636d6712d89060640160206040518083038186803b15801561144557600080fd5b505afa158015611459573d6000803e3d6000fd5b505050506040513d601f19601f8201168201806040525081019061147d91906115ba565b9392505050565b82805461149090611909565b90600052602060002090601f0160209004810192826114b257600085556114f8565b82601f106114cb57805160ff19168380011785556114f8565b828001600101855582156114f8579182015b828111156114f85782518255916020019190600101906114dd565b5061150492915061151e565b5090565b634e487b7160e01b600052605160045260246000fd5b5b80821115611504576000815560010161151f565b600082601f830112611543578081fd5b813567ffffffffffffffff8082111561155e5761155e611975565b604051601f8301601f19908116603f0116810190828211818310171561158657611586611975565b8160405283815286602085880101111561159e578485fd5b8360208701602083013792830160200193909352509392505050565b6000602082840312156115cb578081fd5b8151801515811461147d578182fd5b6000602082840312156115eb578081fd5b5035919050565b60008060408385031215611604578081fd5b82359150602083013567ffffffffffffffff811115611621578182fd5b61162d85828601611533565b9150509250929050565b600060208284031215611648578081fd5b813567ffffffffffffffff81111561165e578182fd5b61166a84828501611533565b949350505050565b60008060008060808587031215611687578182fd5b843567ffffffffffffffff8082111561169e578384fd5b6116aa88838901611533565b9550602087013591506001600160a01b03821682146116c7578384fd5b90935060408601359250606086013590808211156116e3578283fd5b506116f087828801611533565b91505092959194509250565b6000815180845260208085019450808401835b8381101561172b5781518752958201959082019060010161170f565b509495945050505050565b6000703234b21d3232b6b79d3b32b434b1b6329d60791b8252601181845483600182811c91508083168061176b57607f831692505b602080841082141561178b57634e487b7160e01b88526022600452602488fd5b81801561179f57600181146117b4576117e4565b60ff1986168a890152848a01880196506117e4565b60008b815260209020895b868110156117da5781548c82018b01529085019083016117bf565b505087858b010196505b50949998505050505050505050565b60006020825261147d60208301846116fc565b6000868252602060a08184015261182060a08401886116fc565b838103604085015261183281886116fc565b84810360608601528651808252838801925090830190845b818110156118705783516001600160e01b0319168352928401929184019160010161184a565b505080935050505063ffffffff60e01b831660808301529695505050505050565b6000602080835283518082850152825b818110156118bd578581018301518582016040015282016118a1565b818111156118ce5783604083870101525b50601f01601f1916929092016040019392505050565b600060ff821660ff84168060ff038211156119015761190161195f565b019392505050565b600181811c9082168061191d57607f821691505b6020821081141561193e57634e487b7160e01b600052602260045260246000fd5b50919050565b60006000198214156119585761195861195f565b5060010190565b634e487b7160e01b600052601160045260246000fd5b634e487b7160e01b600052604160045260246000fdfea2646970667358221220d9ad39c5331abfd9d3e0feaa4490748b5b384ba16a1ae4a599c238574fc7450d64736f6c6343000803003374686520737461746520686173206e6f74206265656e2063726561746564207953544154455f56454849434c455f4558504f525445440000000000000000000053544154455f4341525f494e5f434f554e54525900000000000000000000000053544154455f56454849434c455f53435241505045440000000000000000000053544154455f56454849434c455f494d504f554e44454400000000000000000053544154455f4341525f4d414e5546414354555245440000000000000000000053544154455f56454849434c455f494e5f4f5045524154494f4e00000000000053544154455f4c4943454e53455f504c4154455f41535349474e45440000000053656e646572206e65656473205550444154455f55494649454c44444546494e4954494f4e535f524f4c4553656e646572206e65656473204352454154455f53544154454d414348494e455f524f4c45a26469706673582212206affd5a09eb8167c36cb1587edc02062cd803396e7acec3a6f154f2519c9251464736f6c63430008030033",
  "immutableReferences": {},
  "source": "/**\n * Copyright (C) SettleMint NV - All Rights Reserved\n *\n * Use of this file is strictly prohibited without an active license agreement.\n * Distribution of this file, via any medium, is strictly prohibited.\n *\n * For license inquiries, contact hello@settlemint.com\n *\n * SPDX-License-Identifier: UNLICENSED\n */\n\npragma solidity ^0.8.0;\n\nimport '../_library//provenance/statemachine/StateMachineFactory.sol';\nimport './Vehicle.sol';\nimport './VehicleRegistry.sol';\n\n/**\n * @title Factory contract for vehicle state machines\n */\ncontract VehicleFactory is StateMachineFactory {\n  constructor(GateKeeper gateKeeper, VehicleRegistry registry) StateMachineFactory(gateKeeper, registry) {}\n\n  /**\n   * @notice Create new vehicle\n   * @dev Factory method to create a new vehicle. Emits StateMachineCreated event.\n   * @param vin the vehicle's unique Vehicle Identification Number\n   * @param owner the vehicle's current owner\n   * @param mileage the vehicle's mileage\n   * @param ipfsFieldContainerHash ipfs hash of vehicle metadata\n   */\n  function create(\n    string memory vin,\n    address owner,\n    uint256 mileage,\n    string memory ipfsFieldContainerHash\n  ) public authWithCustomReason(CREATE_STATEMACHINE_ROLE, 'Sender needs CREATE_STATEMACHINE_ROLE') {\n    bytes memory memProof = bytes(vin);\n    require(memProof.length > 0, 'A vin is required');\n\n    Vehicle vehicle =\n      new Vehicle(address(gateKeeper), vin, owner, mileage, ipfsFieldContainerHash, _uiFieldDefinitionsHash);\n\n    // Give every role registry a single permission on the newly created expense.\n    bytes32[] memory roles = vehicle.getRoles();\n    for (uint256 i = 0; i < roles.length; i++) {\n      gateKeeper.createPermission(\n        gateKeeper.getRoleRegistryAddress(roles[i]),\n        address(vehicle),\n        roles[i],\n        address(this)\n      );\n    }\n\n    _registry.insert(address(vehicle));\n    emit StateMachineCreated(address(vehicle));\n  }\n}\n",
  "sourcePath": "/home/coder/project/contracts/vehicle/VehicleFactory.sol",
  "compiler": {
    "name": "solc",
    "version": "0.8.3+commit.8d00100c.Emscripten.clang"
  },
  "schemaVersion": "3.4.1",
  "updatedAt": "2021-08-01T16:33:50.260Z",
  "devdoc": {
    "kind": "dev",
    "methods": {
      "create(string,address,uint256,string)": {
        "details": "Factory method to create a new vehicle. Emits StateMachineCreated event.",
        "params": {
          "ipfsFieldContainerHash": "ipfs hash of vehicle metadata",
          "mileage": "the vehicle's mileage",
          "owner": "the vehicle's current owner",
          "vin": "the vehicle's unique Vehicle Identification Number"
        }
      },
      "setUIFieldDefinitionsHash(string)": {
        "params": {
          "uiFieldDefinitionsHash": "value to assign to _uiFieldDefinitionsHash"
        }
      }
    },
    "title": "Factory contract for vehicle state machines",
    "version": 1
  },
  "userdoc": {
    "kind": "user",
    "methods": {
      "create(string,address,uint256,string)": {
        "notice": "Create new vehicle"
      },
      "getUIFieldDefinitionsHash()": {
        "notice": "Retrieves the value of `_uiFieldDefinitionsHash`"
      },
      "setUIFieldDefinitionsHash(string)": {
        "notice": "Sets the value of `_uiFieldDefinitionsHash`"
      }
    },
    "version": 1
  }
}